{
  "abi": [
    {
      "inputs": [],
      "stateMutability": "nonpayable",
      "type": "constructor"
    },
    {
      "inputs": [],
      "name": "AlreadyClaimed",
      "type": "error"
    },
    {
      "inputs": [],
      "name": "AmountExceedsBalance",
      "type": "error"
    },
    {
      "inputs": [],
      "name": "ClaimWindowNotStarted",
      "type": "error"
    },
    {
      "inputs": [],
      "name": "EndTimeInPast",
      "type": "error"
    },
    {
      "inputs": [],
      "name": "EndTimeLessThanOrEqualToStartTime",
      "type": "error"
    },
    {
      "inputs": [],
      "name": "MustImplementInChild",
      "type": "error"
    },
    {
      "inputs": [],
      "name": "NewOwnerIsZeroAddress",
      "type": "error"
    },
    {
      "inputs": [],
      "name": "NoHandoverRequest",
      "type": "error"
    },
    {
      "inputs": [],
      "name": "NoTokensToClaim",
      "type": "error"
    },
    {
      "inputs": [],
      "name": "NoWithdrawDuringClaim",
      "type": "error"
    },
    {
      "inputs": [],
      "name": "NotQuestFactory",
      "type": "error"
    },
    {
      "inputs": [],
      "name": "NotStarted",
      "type": "error"
    },
    {
      "inputs": [],
      "name": "TotalAmountExceedsBalance",
      "type": "error"
    },
    {
      "inputs": [],
      "name": "Unauthorized",
      "type": "error"
    },
    {
      "anonymous": false,
      "inputs": [
        {
          "indexed": true,
          "internalType": "address",
          "name": "account",
          "type": "address"
        },
        {
          "indexed": false,
          "internalType": "address",
          "name": "rewardAddress",
          "type": "address"
        },
        {
          "indexed": false,
          "internalType": "uint256",
          "name": "amount",
          "type": "uint256"
        }
      ],
      "name": "Claimed",
      "type": "event"
    },
    {
      "anonymous": false,
      "inputs": [
        {
          "indexed": true,
          "internalType": "address",
          "name": "account",
          "type": "address"
        },
        {
          "indexed": false,
          "internalType": "address",
          "name": "rewardAddress",
          "type": "address"
        },
        {
          "indexed": false,
          "internalType": "uint256",
          "name": "amount",
          "type": "uint256"
        }
      ],
      "name": "ClaimedSingle",
      "type": "event"
    },
    {
      "anonymous": false,
      "inputs": [
        {
          "indexed": false,
          "internalType": "uint8",
          "name": "version",
          "type": "uint8"
        }
      ],
      "name": "Initialized",
      "type": "event"
    },
    {
      "anonymous": false,
      "inputs": [
        {
          "indexed": false,
          "internalType": "string",
          "name": "cid",
          "type": "string"
        }
      ],
      "name": "JsonSpecCIDSet",
      "type": "event"
    },
    {
      "anonymous": false,
      "inputs": [
        {
          "indexed": true,
          "internalType": "address",
          "name": "pendingOwner",
          "type": "address"
        }
      ],
      "name": "OwnershipHandoverCanceled",
      "type": "event"
    },
    {
      "anonymous": false,
      "inputs": [
        {
          "indexed": true,
          "internalType": "address",
          "name": "pendingOwner",
          "type": "address"
        }
      ],
      "name": "OwnershipHandoverRequested",
      "type": "event"
    },
    {
      "anonymous": false,
      "inputs": [
        {
          "indexed": true,
          "internalType": "address",
          "name": "oldOwner",
          "type": "address"
        },
        {
          "indexed": true,
          "internalType": "address",
          "name": "newOwner",
          "type": "address"
        }
      ],
      "name": "OwnershipTransferred",
      "type": "event"
    },
    {
      "anonymous": false,
      "inputs": [
        {
          "indexed": false,
          "internalType": "address",
          "name": "account",
          "type": "address"
        }
      ],
      "name": "Paused",
      "type": "event"
    },
    {
      "anonymous": false,
      "inputs": [
        {
          "indexed": false,
          "internalType": "uint256",
          "name": "timestamp",
          "type": "uint256"
        }
      ],
      "name": "Queued",
      "type": "event"
    },
    {
      "anonymous": false,
      "inputs": [
        {
          "indexed": false,
          "internalType": "address",
          "name": "account",
          "type": "address"
        }
      ],
      "name": "Unpaused",
      "type": "event"
    },
    {
      "inputs": [],
      "name": "cancelOwnershipHandover",
      "outputs": [],
      "stateMutability": "payable",
      "type": "function"
    },
    {
      "inputs": [],
      "name": "claim",
      "outputs": [],
      "stateMutability": "nonpayable",
      "type": "function"
    },
    {
      "inputs": [
        {
          "internalType": "address",
          "name": "pendingOwner",
          "type": "address"
        }
      ],
      "name": "completeOwnershipHandover",
      "outputs": [],
      "stateMutability": "payable",
      "type": "function"
    },
    {
      "inputs": [],
      "name": "durationTotal",
      "outputs": [
        {
          "internalType": "uint40",
          "name": "",
          "type": "uint40"
        }
      ],
      "stateMutability": "view",
      "type": "function"
    },
    {
      "inputs": [],
      "name": "endTime",
      "outputs": [
        {
          "internalType": "uint256",
          "name": "",
          "type": "uint256"
        }
      ],
      "stateMutability": "view",
      "type": "function"
    },
    {
      "inputs": [],
      "name": "getRewardAmount",
      "outputs": [
        {
          "internalType": "uint256",
          "name": "",
          "type": "uint256"
        }
      ],
      "stateMutability": "view",
      "type": "function"
    },
    {
      "inputs": [],
      "name": "getRewardToken",
      "outputs": [
        {
          "internalType": "address",
          "name": "",
          "type": "address"
        }
      ],
      "stateMutability": "view",
      "type": "function"
    },
    {
      "inputs": [],
      "name": "hasWithdrawn",
      "outputs": [
        {
          "internalType": "bool",
          "name": "",
          "type": "bool"
        }
      ],
      "stateMutability": "view",
      "type": "function"
    },
    {
      "inputs": [
        {
          "internalType": "address",
          "name": "rewardTokenAddress_",
          "type": "address"
        },
        {
          "internalType": "uint256",
          "name": "endTime_",
          "type": "uint256"
        },
        {
          "internalType": "uint256",
          "name": "startTime_",
          "type": "uint256"
        },
        {
          "internalType": "uint256",
          "name": "totalParticipants_",
          "type": "uint256"
        },
        {
          "internalType": "uint256",
          "name": "rewardAmountInWei_",
          "type": "uint256"
        },
        {
          "internalType": "string",
          "name": "questId_",
          "type": "string"
        },
        {
          "internalType": "address",
          "name": "receiptContractAddress_",
          "type": "address"
        },
        {
          "internalType": "uint16",
          "name": "questFee_",
          "type": "uint16"
        },
        {
          "internalType": "address",
          "name": "protocolFeeRecipient_",
          "type": "address"
        },
        {
          "internalType": "uint40",
          "name": "durationTotal_",
          "type": "uint40"
        }
      ],
      "name": "initialize",
      "outputs": [],
      "stateMutability": "nonpayable",
      "type": "function"
    },
    {
      "inputs": [
        {
          "internalType": "uint256",
          "name": "tokenId_",
          "type": "uint256"
        }
      ],
      "name": "isClaimed",
      "outputs": [
        {
          "internalType": "bool",
          "name": "",
          "type": "bool"
        }
      ],
      "stateMutability": "view",
      "type": "function"
    },
    {
      "inputs": [],
      "name": "jsonSpecCID",
      "outputs": [
        {
          "internalType": "string",
          "name": "",
          "type": "string"
        }
      ],
      "stateMutability": "view",
      "type": "function"
    },
    {
      "inputs": [],
      "name": "lockupLinear",
      "outputs": [
        {
          "internalType": "contract ISablierV2LockupLinear",
          "name": "",
          "type": "address"
        }
      ],
      "stateMutability": "view",
      "type": "function"
    },
    {
      "inputs": [],
      "name": "maxProtocolReward",
      "outputs": [
        {
          "internalType": "uint256",
          "name": "",
          "type": "uint256"
        }
      ],
      "stateMutability": "view",
      "type": "function"
    },
    {
      "inputs": [],
      "name": "maxTotalRewards",
      "outputs": [
        {
          "internalType": "uint256",
          "name": "",
          "type": "uint256"
        }
      ],
      "stateMutability": "view",
      "type": "function"
    },
    {
      "inputs": [],
      "name": "owner",
      "outputs": [
        {
          "internalType": "address",
          "name": "result",
          "type": "address"
        }
      ],
      "stateMutability": "view",
      "type": "function"
    },
    {
      "inputs": [
        {
          "internalType": "address",
          "name": "pendingOwner",
          "type": "address"
        }
      ],
      "name": "ownershipHandoverExpiresAt",
      "outputs": [
        {
          "internalType": "uint256",
          "name": "result",
          "type": "uint256"
        }
      ],
      "stateMutability": "view",
      "type": "function"
    },
    {
      "inputs": [],
      "name": "ownershipHandoverValidFor",
      "outputs": [
        {
          "internalType": "uint64",
          "name": "",
          "type": "uint64"
        }
      ],
      "stateMutability": "view",
      "type": "function"
    },
    {
      "inputs": [],
      "name": "pause",
      "outputs": [],
      "stateMutability": "nonpayable",
      "type": "function"
    },
    {
      "inputs": [],
      "name": "paused",
      "outputs": [
        {
          "internalType": "bool",
          "name": "",
          "type": "bool"
        }
      ],
      "stateMutability": "view",
      "type": "function"
    },
    {
      "inputs": [],
      "name": "protocolFee",
      "outputs": [
        {
          "internalType": "uint256",
          "name": "",
          "type": "uint256"
        }
      ],
      "stateMutability": "view",
      "type": "function"
    },
    {
      "inputs": [],
      "name": "protocolFeeRecipient",
      "outputs": [
        {
          "internalType": "address",
          "name": "",
          "type": "address"
        }
      ],
      "stateMutability": "view",
      "type": "function"
    },
    {
      "inputs": [],
      "name": "questFactoryContract",
      "outputs": [
        {
          "internalType": "contract QuestFactory",
          "name": "",
          "type": "address"
        }
      ],
      "stateMutability": "view",
      "type": "function"
    },
    {
      "inputs": [],
      "name": "questFee",
      "outputs": [
        {
          "internalType": "uint16",
          "name": "",
          "type": "uint16"
        }
      ],
      "stateMutability": "view",
      "type": "function"
    },
    {
      "inputs": [],
      "name": "questId",
      "outputs": [
        {
          "internalType": "string",
          "name": "",
          "type": "string"
        }
      ],
      "stateMutability": "view",
      "type": "function"
    },
    {
      "inputs": [],
      "name": "queue",
      "outputs": [],
      "stateMutability": "nonpayable",
      "type": "function"
    },
    {
      "inputs": [],
      "name": "queued",
      "outputs": [
        {
          "internalType": "bool",
          "name": "",
          "type": "bool"
        }
      ],
      "stateMutability": "view",
      "type": "function"
    },
    {
      "inputs": [],
      "name": "rabbitHoleReceiptContract",
      "outputs": [
        {
          "internalType": "contract RabbitHoleReceipt",
          "name": "",
          "type": "address"
        }
      ],
      "stateMutability": "view",
      "type": "function"
    },
    {
      "inputs": [],
      "name": "receiptRedeemers",
      "outputs": [
        {
          "internalType": "uint256",
          "name": "",
          "type": "uint256"
        }
      ],
      "stateMutability": "view",
      "type": "function"
    },
    {
      "inputs": [],
      "name": "redeemedTokens",
      "outputs": [
        {
          "internalType": "uint256",
          "name": "",
          "type": "uint256"
        }
      ],
      "stateMutability": "view",
      "type": "function"
    },
    {
      "inputs": [
        {
          "internalType": "address",
          "name": "erc20Address_",
          "type": "address"
        }
      ],
      "name": "refund",
      "outputs": [],
      "stateMutability": "nonpayable",
      "type": "function"
    },
    {
      "inputs": [],
      "name": "renounceOwnership",
      "outputs": [],
      "stateMutability": "payable",
      "type": "function"
    },
    {
      "inputs": [],
      "name": "requestOwnershipHandover",
      "outputs": [],
      "stateMutability": "payable",
      "type": "function"
    },
    {
      "inputs": [],
      "name": "rewardAmountInWei",
      "outputs": [
        {
          "internalType": "uint256",
          "name": "",
          "type": "uint256"
        }
      ],
      "stateMutability": "view",
      "type": "function"
    },
    {
      "inputs": [],
      "name": "rewardToken",
      "outputs": [
        {
          "internalType": "address",
          "name": "",
          "type": "address"
        }
      ],
      "stateMutability": "view",
      "type": "function"
    },
    {
      "inputs": [
        {
          "internalType": "address",
          "name": "account_",
          "type": "address"
        }
      ],
      "name": "singleClaim",
      "outputs": [],
      "stateMutability": "nonpayable",
      "type": "function"
    },
    {
      "inputs": [],
      "name": "startTime",
      "outputs": [
        {
          "internalType": "uint256",
          "name": "",
          "type": "uint256"
        }
      ],
      "stateMutability": "view",
      "type": "function"
    },
    {
      "inputs": [],
      "name": "totalParticipants",
      "outputs": [
        {
          "internalType": "uint256",
          "name": "",
          "type": "uint256"
        }
      ],
      "stateMutability": "view",
      "type": "function"
    },
    {
      "inputs": [],
      "name": "totalTransferAmount",
      "outputs": [
        {
          "internalType": "uint256",
          "name": "",
          "type": "uint256"
        }
      ],
      "stateMutability": "view",
      "type": "function"
    },
    {
      "inputs": [
        {
          "internalType": "address",
          "name": "newOwner",
          "type": "address"
        }
      ],
      "name": "transferOwnership",
      "outputs": [],
      "stateMutability": "payable",
      "type": "function"
    },
    {
      "inputs": [],
      "name": "unPause",
      "outputs": [],
      "stateMutability": "nonpayable",
      "type": "function"
    },
    {
      "inputs": [],
      "name": "withdrawRemainingTokens",
      "outputs": [],
      "stateMutability": "nonpayable",
      "type": "function"
    }
  ],
  "bytecode": {
    "object": "0x608060405234801561001057600080fd5b5061001961001e565b6100de565b600054610100900460ff161561008a5760405162461bcd60e51b815260206004820152602760248201527f496e697469616c697a61626c653a20636f6e747261637420697320696e697469604482015266616c697a696e6760c81b606482015260840160405180910390fd5b60005460ff90811610156100dc576000805460ff191660ff9081179091556040519081527f7f26b83ff96e1f2b6a682f133852f6798a09c465da95921460cefb38474024989060200160405180910390a15b565b61216a80620000ee6000396000f3fe6080604052600436106102465760003560e01c8063715018a611610139578063d7533f02116100b6578063f2fde38b1161007a578063f2fde38b1461061e578063f4c17a6b14610631578063f7b188a514610646578063f7c618c11461065b578063fa89401a1461067b578063fee81cf41461069b57600080fd5b8063d7533f02146105ad578063d86b8739146105cb578063e10d29ee146105e1578063e458e7de146105f6578063f04e283e1461060b57600080fd5b80638afbf669116100fd5780638afbf6691461051f5780638da5cb5b146105345780639e34070f1461054d578063a26dbf2614610582578063b0e21e8a1461059857600080fd5b8063715018a6146104ac5780637282a4aa146104b457806378e97925146104d45780637b16e429146104ea5780638456cb591461050a57600080fd5b80635215153b116101c757806369940d791161018b57806369940d791461040457806369cda6df1461042257806369d2dc05146104425780636cb4e611146104585780636d2dcec91461047857600080fd5b80635215153b1461037a57806354d1f13d1461038f5780635c975abb1461039757806364df049e146103af57806367dfa3e7146103d657600080fd5b80633dd4d94f1161020e5780633dd4d94f146102f95780633ef17b171461030e57806344a22c361461032e5780634e71d92d146103505780634f51407c1461036557600080fd5b806309a69f571461024b57806316049ddf1461026f57806325692962146102995780633197cbb6146102a357806337fb15c0146102b9575b600080fd5b34801561025757600080fd5b50609d545b6040519081526020015b60405180910390f35b34801561027b57600080fd5b50609e546102899060ff1681565b6040519015158152602001610266565b6102a16106ce565b005b3480156102af57600080fd5b5061025c609a5481565b3480156102c557600080fd5b506102e173a4fc358455febe425536fd1878be67ffdbdec59a81565b6040516001600160a01b039091168152602001610266565b34801561030557600080fd5b5061025c61071e565b34801561031a57600080fd5b506097546102e1906001600160a01b031681565b34801561033a57600080fd5b506103436107f3565b6040516102669190611abb565b34801561035c57600080fd5b506102a1610881565b34801561037157600080fd5b5061025c610ac4565b34801561038657600080fd5b5061025c610ad6565b6102a1610b49565b3480156103a357600080fd5b5060655460ff16610289565b3480156103bb57600080fd5b5060a1546102e190630100000090046001600160a01b031681565b3480156103e257600080fd5b5060a1546103f19061ffff1681565b60405161ffff9091168152602001610266565b34801561041057600080fd5b506099546001600160a01b03166102e1565b34801561042e57600080fd5b506102a161043d366004611b93565b610b85565b34801561044e57600080fd5b5061025c609d5481565b34801561046457600080fd5b5060a1546102899062010000900460ff1681565b34801561048457600080fd5b5060a4546104969064ffffffffff1681565b60405164ffffffffff9091168152602001610266565b6102a1610d9d565b3480156104c057600080fd5b506102a16104cf366004611ca4565b610daf565b3480156104e057600080fd5b5061025c609b5481565b3480156104f657600080fd5b506098546102e1906001600160a01b031681565b34801561051657600080fd5b506102a1610eb0565b34801561052b57600080fd5b506102a1610ee3565b34801561054057600080fd5b50638b78c6d819546102e1565b34801561055957600080fd5b50610289610568366004611cc6565b600090815260a2602052604090205460ff16151560011490565b34801561058e57600080fd5b5061025c609c5481565b3480156105a457600080fd5b5061025c6111b9565b3480156105b957600080fd5b506040516202a3008152602001610266565b3480156105d757600080fd5b5061025c60a05481565b3480156105ed57600080fd5b506102a1611256565b34801561060257600080fd5b5061034361133e565b6102a1610619366004611ca4565b61134b565b6102a161062c366004611ca4565b611388565b34801561063d57600080fd5b5061025c6113af565b34801561065257600080fd5b506102a161142b565b34801561066757600080fd5b506099546102e1906001600160a01b031681565b34801561068757600080fd5b506102a1610696366004611ca4565b61145e565b3480156106a757600080fd5b5061025c6106b6366004611ca4565b63389a75e1600c908152600091909152602090205490565b60006202a30067ffffffffffffffff164201905063389a75e1600c5233600052806020600c2055337fdbf36a107da19e49527a7176a1babf963b4b0ff8cde35ee35d6cd8f1f9ac7e1d600080a250565b6000306001600160a01b031663f4c17a6b6040518163ffffffff1660e01b8152600401602060405180830381865afa15801561075e573d6000803e3d6000fd5b505050506040513d601f19601f820116820180604052508101906107829190611cdf565b306001600160a01b0316634f51407c6040518163ffffffff1660e01b8152600401602060405180830381865afa1580156107c0573d6000803e3d6000fd5b505050506040513d601f19601f820116820180604052508101906107e49190611cdf565b6107ee9190611d0e565b905090565b609f805461080090611d21565b80601f016020809104026020016040519081016040528092919081815260200182805461082c90611d21565b80156108795780601f1061084e57610100808354040283529160200191610879565b820191906000526020600020905b81548152906001019060200180831161085c57829003601f168201915b505050505081565b610889611530565b609e5460ff166108ac57604051636f312cbd60e01b815260040160405180910390fd5b609b544210156108cf57604051636ec099f360e11b815260040160405180910390fd5b6108d7611589565b60975460405163b8d1ebfd60e01b81526000916001600160a01b03169063b8d1ebfd9061090b90609f903390600401611dd8565b600060405180830381865afa158015610928573d6000803e3d6000fd5b505050506040513d6000823e601f3d908101601f191682016040526109509190810190611e02565b905080516000036109735760405162f3f86160e41b815260040160405180910390fd5b6000805b8251811015610a1b57306001600160a01b0316639e34070f8483815181106109a1576109a1611ea8565b60200260200101516040518263ffffffff1660e01b81526004016109c791815260200190565b602060405180830381865afa1580156109e4573d6000803e3d6000fd5b505050506040513d601f19601f82011682018060405250810190610a089190611ebe565b610a13576001909101905b600101610977565b5080600003610a3d57604051630c8d9eab60e31b815260040160405180910390fd5b6000610a48826115cf565b9050610a53836115e5565b610a5d338261163a565b8160a054610a6b9190611d0e565b60a055609954604080516001600160a01b0390921682526020820183905233917ff7a40077ff7a04c7e61f6f26fb13774259ddf1b6bce9ecf26a8276cdd3992683910160405180910390a2505050610ac260018055565b565b6000609d54609c546107ee9190611ee0565b6098546040516343ff27d160e01b81526000916001600160a01b0316906343ff27d190610b0890609f90600401611ef7565b602060405180830381865afa158015610b25573d6000803e3d6000fd5b505050506040513d601f19601f820116820180604052508101906107ee9190611cdf565b63389a75e1600c523360005260006020600c2055337ffa7b8eab7da67f412cc9575ed43464468f9bfbae89d1675917346ca6d8fe3c92600080a2565b600054610100900460ff1615808015610ba55750600054600160ff909116105b80610bbf5750303b158015610bbf575060005460ff166001145b610c275760405162461bcd60e51b815260206004820152602e60248201527f496e697469616c697a61626c653a20636f6e747261637420697320616c72656160448201526d191e481a5b9a5d1a585b1a5e995960921b60648201526084015b60405180910390fd5b6000805460ff191660011790558015610c4a576000805461ff0019166101001790555b428a11610c6a576040516372e54d4d60e01b815260040160405180910390fd5b888a11610c8a576040516301a4e51360e61b815260040160405180910390fd5b609a8a9055609b899055609980546001600160a01b0319166001600160a01b038d16179055609c889055609d879055609f610cc58782611f58565b50609880546001600160a01b031990811633908117909255609780546001600160a01b038981169190931617905560a180549186166301000000026001600160b81b031990921661ffff88161791909117905560a4805464ffffffffff851664ffffffffff19909116179055610d3a90611670565b610d426116ac565b610d4a6116db565b8015610d90576000805461ff0019169055604051600181527f7f26b83ff96e1f2b6a682f133852f6798a09c465da95921460cefb38474024989060200160405180910390a15b5050505050505050505050565b610da561170a565b610ac26000611725565b610db7611530565b609e5460ff16610dda57604051636f312cbd60e01b815260040160405180910390fd5b609b54421015610dfd57604051636ec099f360e11b815260040160405180910390fd5b610e05611589565b6098546001600160a01b03163314610e305760405163ce3f000560e01b815260040160405180910390fd5b6000610e3c60016115cf565b9050610e48828261163a565b60a054610e56906001611d0e565b60a055609954604080516001600160a01b03928316815260208101849052918416917fb436a00ffcb828bdee3eba840ca0936b461b32cbc7a7fc65fd3c85e4843d83ed910160405180910390a250610ead60018055565b50565b610eb861170a565b609e5460ff16610edb57604051636f312cbd60e01b815260040160405180910390fd5b610ac2611763565b60a154630100000090046001600160a01b0316331480610f1a5750638b78c6d819546001600160a01b0316336001600160a01b0316145b610f725760405162461bcd60e51b815260206004820152602360248201527f4e6f742070726f746f636f6c2066656520726563697069656e74206f72206f776044820152623732b960e91b6064820152608401610c1e565b609a54421015610f9557604051630ee56a2b60e41b815260040160405180910390fd5b60a15462010000900460ff1615610fe25760405162461bcd60e51b815260206004820152601160248201527020b63932b0b23c903bb4ba34323930bbb760791b6044820152606401610c1e565b6000609d5460a054306001600160a01b0316635215153b6040518163ffffffff1660e01b8152600401602060405180830381865afa158015611028573d6000803e3d6000fd5b505050506040513d601f19601f8201168201806040525081019061104c9190611cdf565b6110569190612018565b6110609190611ee0565b9050600081306001600160a01b031663b0e21e8a6040518163ffffffff1660e01b8152600401602060405180830381865afa1580156110a3573d6000803e3d6000fd5b505050506040513d601f19601f820116820180604052508101906110c79190611cdf565b6099546110dd906001600160a01b0316306117b8565b6110e79190612018565b6110f19190612018565b60a1805462ff00001916620100001790559050611127611114638b78c6d8195490565b6099546001600160a01b031690836117e4565b6111b560a160039054906101000a90046001600160a01b0316306001600160a01b031663b0e21e8a6040518163ffffffff1660e01b8152600401602060405180830381865afa15801561117e573d6000803e3d6000fd5b505050506040513d601f19601f820116820180604052508101906111a29190611cdf565b6099546001600160a01b031691906117e4565b5050565b600061271060a160009054906101000a900461ffff1661ffff16609d54306001600160a01b0316635215153b6040518163ffffffff1660e01b8152600401602060405180830381865afa158015611214573d6000803e3d6000fd5b505050506040513d601f19601f820116820180604052508101906112389190611cdf565b6112429190611ee0565b61124c9190611ee0565b6107ee919061202b565b61125e61170a565b306001600160a01b0316633dd4d94f6040518163ffffffff1660e01b8152600401602060405180830381865afa15801561129c573d6000803e3d6000fd5b505050506040513d601f19601f820116820180604052508101906112c09190611cdf565b6099546112d6906001600160a01b0316306117b8565b10156112f55760405163dfae425d60e01b815260040160405180910390fd5b609e805460ff191660011790556040517f2dba1d9e78f3192742fc9d510383d669fe8a4fa03d039bd7382ef67119078af7906113349042815260200190565b60405180910390a1565b60a3805461080090611d21565b61135361170a565b63389a75e1600c52806000526020600c20805442111561137b57636f5e88186000526004601cfd5b60009055610ead81611725565b61139061170a565b8060601b6113a657637448fbae6000526004601cfd5b610ead81611725565b600061271060a160009054906101000a900461ffff1661ffff16306001600160a01b0316634f51407c6040518163ffffffff1660e01b8152600401602060405180830381865afa158015611407573d6000803e3d6000fd5b505050506040513d601f19601f820116820180604052508101906112429190611cdf565b61143361170a565b609e5460ff1661145657604051636f312cbd60e01b815260040160405180910390fd5b610ac261182a565b61146661170a565b6099546001600160a01b03908116908216036114c45760405162461bcd60e51b815260206004820152601a60248201527f43616e6e6f7420726566756e642072657761726420746f6b656e0000000000006044820152606401610c1e565b4780156114fa57604051339082156108fc029083906000818181858888f193505050501580156114f8573d6000803e3d6000fd5b505b600061150f6001600160a01b038416306117b8565b9050801561152b5761152b6001600160a01b03841633836117e4565b505050565b6002600154036115825760405162461bcd60e51b815260206004820152601f60248201527f5265656e7472616e637947756172643a207265656e7472616e742063616c6c006044820152606401610c1e565b6002600155565b60655460ff1615610ac25760405162461bcd60e51b815260206004820152601060248201526f14185d5cd8589b194e881c185d5cd95960821b6044820152606401610c1e565b6000609d54826115df9190611ee0565b92915050565b60005b81518110156111b557600160a2600084848151811061160957611609611ea8565b6020908102919091018101518252810191909152604001600020805460ff19169115159190911790556001016115e8565b60a45464ffffffffff16156116535761152b8183611863565b6099546111b5906001600160a01b031683836117e4565b60018055565b6001600160a01b0316638b78c6d8198190558060007f8be0079c531659141344cd1fd0a4f28419497f9722a3daafe3b4186f6b6457e08180a350565b600054610100900460ff166116d35760405162461bcd60e51b8152600401610c1e9061204d565b610ac26119dc565b600054610100900460ff166117025760405162461bcd60e51b8152600401610c1e9061204d565b610ac2611a0f565b638b78c6d819543314610ac2576382b429006000526004601cfd5b638b78c6d81980546001600160a01b039092169182907f8be0079c531659141344cd1fd0a4f28419497f9722a3daafe3b4186f6b6457e0600080a355565b61176b611589565b6065805460ff191660011790557f62e78cea01bee320cd4e420270b5ea74000d11b0c9f74754ebdbfc544b05a2586117a03390565b6040516001600160a01b039091168152602001611334565b6000816014526370a0823160601b60005260208060246010865afa601f3d111660205102905092915050565b816014528060345263a9059cbb60601b60005260206000604460106000875af13d156001600051141716611820576390b8ec186000526004601cfd5b6000603452505050565b611832611a36565b6065805460ff191690557f5db9ee0a495bf2e6ff9c91a7834c1ba4fdd244a5e8aa4e537bd38aeae4b073aa336117a0565b609954600090611891906001600160a01b031673a4fc358455febe425536fd1878be67ffdbdec59a85611a7f565b6118eb6040805160e0810182526000808252602080830182905282840182905260608301829052608083018290528351808501855282815280820183905260a084015283518085019094528184528301529060c082015290565b3381526001600160a01b038381166020808401919091526001600160801b03861660408085019190915260995490921660608401526001608084015281518083018352600080825260a45464ffffffffff168284015260a0850191909152825180840184528181529182015260c083015251631b4103a960e01b815273a4fc358455febe425536fd1878be67ffdbdec59a90631b4103a990611991908490600401612098565b6020604051808303816000875af11580156119b0573d6000803e3d6000fd5b505050506040513d601f19601f820116820180604052508101906119d49190611cdf565b949350505050565b600054610100900460ff16611a035760405162461bcd60e51b8152600401610c1e9061204d565b6065805460ff19169055565b600054610100900460ff1661166a5760405162461bcd60e51b8152600401610c1e9061204d565b60655460ff16610ac25760405162461bcd60e51b815260206004820152601460248201527314185d5cd8589b194e881b9bdd081c185d5cd95960621b6044820152606401610c1e565b816014528060345263095ea7b360601b60005260206000604460106000875af13d15600160005114171661182057633e3f8f736000526004601cfd5b600060208083528351808285015260005b81811015611ae857858101830151858201604001528201611acc565b506000604082860101526040601f19601f8301168501019250505092915050565b80356001600160a01b0381168114611b2057600080fd5b919050565b634e487b7160e01b600052604160045260246000fd5b604051601f8201601f1916810167ffffffffffffffff81118282101715611b6457611b64611b25565b604052919050565b803561ffff81168114611b2057600080fd5b803564ffffffffff81168114611b2057600080fd5b6000806000806000806000806000806101408b8d031215611bb357600080fd5b611bbc8b611b09565b99506020808c0135995060408c0135985060608c0135975060808c0135965060a08c013567ffffffffffffffff80821115611bf657600080fd5b818e0191508e601f830112611c0a57600080fd5b813581811115611c1c57611c1c611b25565b611c2e601f8201601f19168501611b3b565b91508082528f84828501011115611c4457600080fd5b8084840185840137600084828401015250809750505050611c6760c08c01611b09565b9350611c7560e08c01611b6c565b9250611c846101008c01611b09565b9150611c936101208c01611b7e565b90509295989b9194979a5092959850565b600060208284031215611cb657600080fd5b611cbf82611b09565b9392505050565b600060208284031215611cd857600080fd5b5035919050565b600060208284031215611cf157600080fd5b5051919050565b634e487b7160e01b600052601160045260246000fd5b808201808211156115df576115df611cf8565b600181811c90821680611d3557607f821691505b602082108103611d5557634e487b7160e01b600052602260045260246000fd5b50919050565b60008154611d6881611d21565b808552602060018381168015611d855760018114611d9f57611dcd565b60ff1985168884015283151560051b880183019550611dcd565b866000528260002060005b85811015611dc55781548a8201860152908301908401611daa565b890184019650505b505050505092915050565b604081526000611deb6040830185611d5b565b905060018060a01b03831660208301529392505050565b60006020808385031215611e1557600080fd5b825167ffffffffffffffff80821115611e2d57600080fd5b818501915085601f830112611e4157600080fd5b815181811115611e5357611e53611b25565b8060051b9150611e64848301611b3b565b8181529183018401918481019088841115611e7e57600080fd5b938501935b83851015611e9c57845182529385019390850190611e83565b98975050505050505050565b634e487b7160e01b600052603260045260246000fd5b600060208284031215611ed057600080fd5b81518015158114611cbf57600080fd5b80820281158282048414176115df576115df611cf8565b602081526000611cbf6020830184611d5b565b601f82111561152b57600081815260208120601f850160051c81016020861015611f315750805b601f850160051c820191505b81811015611f5057828155600101611f3d565b505050505050565b815167ffffffffffffffff811115611f7257611f72611b25565b611f8681611f808454611d21565b84611f0a565b602080601f831160018114611fbb5760008415611fa35750858301515b600019600386901b1c1916600185901b178555611f50565b600085815260208120601f198616915b82811015611fea57888601518255948401946001909101908401611fcb565b50858210156120085787850151600019600388901b60f8161c191681555b5050505050600190811b01905550565b818103818111156115df576115df611cf8565b60008261204857634e487b7160e01b600052601260045260246000fd5b500490565b6020808252602b908201527f496e697469616c697a61626c653a20636f6e7472616374206973206e6f74206960408201526a6e697469616c697a696e6760a81b606082015260800190565b60006101208201905060018060a01b038084511683528060208501511660208401526001600160801b0360408501511660408401528060608501511660608401525060808301511515608083015260a083015164ffffffffff8082511660a08501528060208301511660c0850152505060c083015161212d60e084018280516001600160a01b03168252602090810151910152565b509291505056fea2646970667358221220b5e1c4aa0da10faa4226cb19b52a565e7af031e0a1e64fce322a68a34ed0a5fc64736f6c63430008130033",
    "linkReferences": {}
  },
  "methodIdentifiers": {
    "cancelOwnershipHandover()": "54d1f13d",
    "claim()": "4e71d92d",
    "completeOwnershipHandover(address)": "f04e283e",
    "durationTotal()": "6d2dcec9",
    "endTime()": "3197cbb6",
    "getRewardAmount()": "09a69f57",
    "getRewardToken()": "69940d79",
    "hasWithdrawn()": "6cb4e611",
    "initialize(address,uint256,uint256,uint256,uint256,string,address,uint16,address,uint40)": "69cda6df",
    "isClaimed(uint256)": "9e34070f",
    "jsonSpecCID()": "e458e7de",
    "lockupLinear()": "37fb15c0",
    "maxProtocolReward()": "f4c17a6b",
    "maxTotalRewards()": "4f51407c",
    "owner()": "8da5cb5b",
    "ownershipHandoverExpiresAt(address)": "fee81cf4",
    "ownershipHandoverValidFor()": "d7533f02",
    "pause()": "8456cb59",
    "paused()": "5c975abb",
    "protocolFee()": "b0e21e8a",
    "protocolFeeRecipient()": "64df049e",
    "questFactoryContract()": "7b16e429",
    "questFee()": "67dfa3e7",
    "questId()": "44a22c36",
    "queue()": "e10d29ee",
    "queued()": "16049ddf",
    "rabbitHoleReceiptContract()": "3ef17b17",
    "receiptRedeemers()": "5215153b",
    "redeemedTokens()": "d86b8739",
    "refund(address)": "fa89401a",
    "renounceOwnership()": "715018a6",
    "requestOwnershipHandover()": "25692962",
    "rewardAmountInWei()": "69d2dc05",
    "rewardToken()": "f7c618c1",
    "singleClaim(address)": "7282a4aa",
    "startTime()": "78e97925",
    "totalParticipants()": "a26dbf26",
    "totalTransferAmount()": "3dd4d94f",
    "transferOwnership(address)": "f2fde38b",
    "unPause()": "f7b188a5",
    "withdrawRemainingTokens()": "8afbf669"
  },
  "id": 1
}