{
  "abi": [
    {
      "inputs": [],
      "stateMutability": "nonpayable",
      "type": "constructor"
    },
    {
      "inputs": [],
      "name": "AccountBalanceOverflow",
      "type": "error"
    },
    {
      "inputs": [],
      "name": "ArrayLengthsMismatch",
      "type": "error"
    },
    {
      "inputs": [],
      "name": "InsufficientBalance",
      "type": "error"
    },
    {
      "inputs": [],
      "name": "NewOwnerIsZeroAddress",
      "type": "error"
    },
    {
      "inputs": [],
      "name": "NoHandoverRequest",
      "type": "error"
    },
    {
      "inputs": [],
      "name": "NotOwnerNorApproved",
      "type": "error"
    },
    {
      "inputs": [],
      "name": "OnlyMinter",
      "type": "error"
    },
    {
      "inputs": [],
      "name": "TransferToNonERC1155ReceiverImplementer",
      "type": "error"
    },
    {
      "inputs": [],
      "name": "TransferToZeroAddress",
      "type": "error"
    },
    {
      "inputs": [],
      "name": "Unauthorized",
      "type": "error"
    },
    {
      "anonymous": false,
      "inputs": [
        {
          "indexed": true,
          "internalType": "address",
          "name": "owner",
          "type": "address"
        },
        {
          "indexed": true,
          "internalType": "address",
          "name": "operator",
          "type": "address"
        },
        {
          "indexed": false,
          "internalType": "bool",
          "name": "isApproved",
          "type": "bool"
        }
      ],
      "name": "ApprovalForAll",
      "type": "event"
    },
    {
      "anonymous": false,
      "inputs": [
        {
          "indexed": false,
          "internalType": "uint8",
          "name": "version",
          "type": "uint8"
        }
      ],
      "name": "Initialized",
      "type": "event"
    },
    {
      "anonymous": false,
      "inputs": [
        {
          "indexed": true,
          "internalType": "address",
          "name": "minterAddress",
          "type": "address"
        }
      ],
      "name": "MinterAddressSet",
      "type": "event"
    },
    {
      "anonymous": false,
      "inputs": [
        {
          "indexed": true,
          "internalType": "address",
          "name": "pendingOwner",
          "type": "address"
        }
      ],
      "name": "OwnershipHandoverCanceled",
      "type": "event"
    },
    {
      "anonymous": false,
      "inputs": [
        {
          "indexed": true,
          "internalType": "address",
          "name": "pendingOwner",
          "type": "address"
        }
      ],
      "name": "OwnershipHandoverRequested",
      "type": "event"
    },
    {
      "anonymous": false,
      "inputs": [
        {
          "indexed": true,
          "internalType": "address",
          "name": "oldOwner",
          "type": "address"
        },
        {
          "indexed": true,
          "internalType": "address",
          "name": "newOwner",
          "type": "address"
        }
      ],
      "name": "OwnershipTransferred",
      "type": "event"
    },
    {
      "anonymous": false,
      "inputs": [
        {
          "indexed": true,
          "internalType": "uint256",
          "name": "royaltyFee",
          "type": "uint256"
        }
      ],
      "name": "RoyaltyFeeSet",
      "type": "event"
    },
    {
      "anonymous": false,
      "inputs": [
        {
          "indexed": true,
          "internalType": "address",
          "name": "operator",
          "type": "address"
        },
        {
          "indexed": true,
          "internalType": "address",
          "name": "from",
          "type": "address"
        },
        {
          "indexed": true,
          "internalType": "address",
          "name": "to",
          "type": "address"
        },
        {
          "indexed": false,
          "internalType": "uint256[]",
          "name": "ids",
          "type": "uint256[]"
        },
        {
          "indexed": false,
          "internalType": "uint256[]",
          "name": "amounts",
          "type": "uint256[]"
        }
      ],
      "name": "TransferBatch",
      "type": "event"
    },
    {
      "anonymous": false,
      "inputs": [
        {
          "indexed": true,
          "internalType": "address",
          "name": "operator",
          "type": "address"
        },
        {
          "indexed": true,
          "internalType": "address",
          "name": "from",
          "type": "address"
        },
        {
          "indexed": true,
          "internalType": "address",
          "name": "to",
          "type": "address"
        },
        {
          "indexed": false,
          "internalType": "uint256",
          "name": "id",
          "type": "uint256"
        },
        {
          "indexed": false,
          "internalType": "uint256",
          "name": "amount",
          "type": "uint256"
        }
      ],
      "name": "TransferSingle",
      "type": "event"
    },
    {
      "anonymous": false,
      "inputs": [
        {
          "indexed": false,
          "internalType": "string",
          "name": "value",
          "type": "string"
        },
        {
          "indexed": true,
          "internalType": "uint256",
          "name": "id",
          "type": "uint256"
        }
      ],
      "name": "URI",
      "type": "event"
    },
    {
      "inputs": [],
      "name": "animationUrlIPFSCID",
      "outputs": [
        {
          "internalType": "string",
          "name": "",
          "type": "string"
        }
      ],
      "stateMutability": "view",
      "type": "function"
    },
    {
      "inputs": [
        {
          "internalType": "address",
          "name": "owner",
          "type": "address"
        },
        {
          "internalType": "uint256",
          "name": "id",
          "type": "uint256"
        }
      ],
      "name": "balanceOf",
      "outputs": [
        {
          "internalType": "uint256",
          "name": "result",
          "type": "uint256"
        }
      ],
      "stateMutability": "view",
      "type": "function"
    },
    {
      "inputs": [
        {
          "internalType": "address[]",
          "name": "owners",
          "type": "address[]"
        },
        {
          "internalType": "uint256[]",
          "name": "ids",
          "type": "uint256[]"
        }
      ],
      "name": "balanceOfBatch",
      "outputs": [
        {
          "internalType": "uint256[]",
          "name": "balances",
          "type": "uint256[]"
        }
      ],
      "stateMutability": "view",
      "type": "function"
    },
    {
      "inputs": [],
      "name": "cancelOwnershipHandover",
      "outputs": [],
      "stateMutability": "payable",
      "type": "function"
    },
    {
      "inputs": [
        {
          "internalType": "address",
          "name": "pendingOwner",
          "type": "address"
        }
      ],
      "name": "completeOwnershipHandover",
      "outputs": [],
      "stateMutability": "payable",
      "type": "function"
    },
    {
      "inputs": [],
      "name": "imageIPFSCID",
      "outputs": [
        {
          "internalType": "string",
          "name": "",
          "type": "string"
        }
      ],
      "stateMutability": "view",
      "type": "function"
    },
    {
      "inputs": [
        {
          "internalType": "address",
          "name": "royaltyRecipient_",
          "type": "address"
        },
        {
          "internalType": "address",
          "name": "minterAddress_",
          "type": "address"
        },
        {
          "internalType": "uint256",
          "name": "royaltyFee_",
          "type": "uint256"
        },
        {
          "internalType": "address",
          "name": "owner_",
          "type": "address"
        },
        {
          "internalType": "string",
          "name": "imageIPFSCID_",
          "type": "string"
        },
        {
          "internalType": "string",
          "name": "animationUrlIPFSCID_",
          "type": "string"
        }
      ],
      "name": "initialize",
      "outputs": [],
      "stateMutability": "nonpayable",
      "type": "function"
    },
    {
      "inputs": [
        {
          "internalType": "address",
          "name": "owner",
          "type": "address"
        },
        {
          "internalType": "address",
          "name": "operator",
          "type": "address"
        }
      ],
      "name": "isApprovedForAll",
      "outputs": [
        {
          "internalType": "bool",
          "name": "result",
          "type": "bool"
        }
      ],
      "stateMutability": "view",
      "type": "function"
    },
    {
      "inputs": [
        {
          "internalType": "address",
          "name": "to_",
          "type": "address"
        },
        {
          "internalType": "uint256",
          "name": "id_",
          "type": "uint256"
        },
        {
          "internalType": "uint256",
          "name": "amount_",
          "type": "uint256"
        },
        {
          "internalType": "bytes",
          "name": "data_",
          "type": "bytes"
        }
      ],
      "name": "mint",
      "outputs": [],
      "stateMutability": "nonpayable",
      "type": "function"
    },
    {
      "inputs": [
        {
          "internalType": "address",
          "name": "to_",
          "type": "address"
        },
        {
          "internalType": "uint256[]",
          "name": "ids_",
          "type": "uint256[]"
        },
        {
          "internalType": "uint256[]",
          "name": "amounts_",
          "type": "uint256[]"
        },
        {
          "internalType": "bytes",
          "name": "data_",
          "type": "bytes"
        }
      ],
      "name": "mintBatch",
      "outputs": [],
      "stateMutability": "nonpayable",
      "type": "function"
    },
    {
      "inputs": [],
      "name": "minterAddress",
      "outputs": [
        {
          "internalType": "address",
          "name": "",
          "type": "address"
        }
      ],
      "stateMutability": "view",
      "type": "function"
    },
    {
      "inputs": [],
      "name": "owner",
      "outputs": [
        {
          "internalType": "address",
          "name": "result",
          "type": "address"
        }
      ],
      "stateMutability": "view",
      "type": "function"
    },
    {
      "inputs": [
        {
          "internalType": "address",
          "name": "pendingOwner",
          "type": "address"
        }
      ],
      "name": "ownershipHandoverExpiresAt",
      "outputs": [
        {
          "internalType": "uint256",
          "name": "result",
          "type": "uint256"
        }
      ],
      "stateMutability": "view",
      "type": "function"
    },
    {
      "inputs": [],
      "name": "ownershipHandoverValidFor",
      "outputs": [
        {
          "internalType": "uint64",
          "name": "",
          "type": "uint64"
        }
      ],
      "stateMutability": "view",
      "type": "function"
    },
    {
      "inputs": [],
      "name": "renounceOwnership",
      "outputs": [],
      "stateMutability": "payable",
      "type": "function"
    },
    {
      "inputs": [],
      "name": "requestOwnershipHandover",
      "outputs": [],
      "stateMutability": "payable",
      "type": "function"
    },
    {
      "inputs": [],
      "name": "royaltyFee",
      "outputs": [
        {
          "internalType": "uint256",
          "name": "",
          "type": "uint256"
        }
      ],
      "stateMutability": "view",
      "type": "function"
    },
    {
      "inputs": [
        {
          "internalType": "uint256",
          "name": "",
          "type": "uint256"
        },
        {
          "internalType": "uint256",
          "name": "salePrice_",
          "type": "uint256"
        }
      ],
      "name": "royaltyInfo",
      "outputs": [
        {
          "internalType": "address",
          "name": "receiver",
          "type": "address"
        },
        {
          "internalType": "uint256",
          "name": "royaltyAmount",
          "type": "uint256"
        }
      ],
      "stateMutability": "view",
      "type": "function"
    },
    {
      "inputs": [],
      "name": "royaltyRecipient",
      "outputs": [
        {
          "internalType": "address",
          "name": "",
          "type": "address"
        }
      ],
      "stateMutability": "view",
      "type": "function"
    },
    {
      "inputs": [
        {
          "internalType": "address",
          "name": "from",
          "type": "address"
        },
        {
          "internalType": "address",
          "name": "to",
          "type": "address"
        },
        {
          "internalType": "uint256[]",
          "name": "ids",
          "type": "uint256[]"
        },
        {
          "internalType": "uint256[]",
          "name": "amounts",
          "type": "uint256[]"
        },
        {
          "internalType": "bytes",
          "name": "data",
          "type": "bytes"
        }
      ],
      "name": "safeBatchTransferFrom",
      "outputs": [],
      "stateMutability": "nonpayable",
      "type": "function"
    },
    {
      "inputs": [
        {
          "internalType": "address",
          "name": "from",
          "type": "address"
        },
        {
          "internalType": "address",
          "name": "to",
          "type": "address"
        },
        {
          "internalType": "uint256",
          "name": "id",
          "type": "uint256"
        },
        {
          "internalType": "uint256",
          "name": "amount",
          "type": "uint256"
        },
        {
          "internalType": "bytes",
          "name": "data",
          "type": "bytes"
        }
      ],
      "name": "safeTransferFrom",
      "outputs": [],
      "stateMutability": "nonpayable",
      "type": "function"
    },
    {
      "inputs": [
        {
          "internalType": "string",
          "name": "animationUrlIPFSCID_",
          "type": "string"
        }
      ],
      "name": "setAnimationUrlIPFSCID",
      "outputs": [],
      "stateMutability": "nonpayable",
      "type": "function"
    },
    {
      "inputs": [
        {
          "internalType": "address",
          "name": "operator",
          "type": "address"
        },
        {
          "internalType": "bool",
          "name": "isApproved",
          "type": "bool"
        }
      ],
      "name": "setApprovalForAll",
      "outputs": [],
      "stateMutability": "nonpayable",
      "type": "function"
    },
    {
      "inputs": [
        {
          "internalType": "string",
          "name": "imageIPFSCID_",
          "type": "string"
        }
      ],
      "name": "setImageIPFSCID",
      "outputs": [],
      "stateMutability": "nonpayable",
      "type": "function"
    },
    {
      "inputs": [
        {
          "internalType": "address",
          "name": "minterAddress_",
          "type": "address"
        }
      ],
      "name": "setMinterAddress",
      "outputs": [],
      "stateMutability": "nonpayable",
      "type": "function"
    },
    {
      "inputs": [
        {
          "internalType": "uint256",
          "name": "royaltyFee_",
          "type": "uint256"
        }
      ],
      "name": "setRoyaltyFee",
      "outputs": [],
      "stateMutability": "nonpayable",
      "type": "function"
    },
    {
      "inputs": [
        {
          "internalType": "address",
          "name": "royaltyRecipient_",
          "type": "address"
        }
      ],
      "name": "setRoyaltyRecipient",
      "outputs": [],
      "stateMutability": "nonpayable",
      "type": "function"
    },
    {
      "inputs": [
        {
          "internalType": "bytes4",
          "name": "interfaceId_",
          "type": "bytes4"
        }
      ],
      "name": "supportsInterface",
      "outputs": [
        {
          "internalType": "bool",
          "name": "",
          "type": "bool"
        }
      ],
      "stateMutability": "view",
      "type": "function"
    },
    {
      "inputs": [
        {
          "internalType": "address",
          "name": "newOwner",
          "type": "address"
        }
      ],
      "name": "transferOwnership",
      "outputs": [],
      "stateMutability": "payable",
      "type": "function"
    },
    {
      "inputs": [
        {
          "internalType": "uint256",
          "name": "",
          "type": "uint256"
        }
      ],
      "name": "uri",
      "outputs": [
        {
          "internalType": "string",
          "name": "",
          "type": "string"
        }
      ],
      "stateMutability": "view",
      "type": "function"
    }
  ],
  "bytecode": {
    "object": "0x608060405234801561001057600080fd5b5061001961001e565b6100de565b600054610100900460ff161561008a5760405162461bcd60e51b815260206004820152602760248201527f496e697469616c697a61626c653a20636f6e747261637420697320696e697469604482015266616c697a696e6760c81b606482015260840160405180910390fd5b60005460ff90811610156100dc576000805460ff191660ff9081179091556040519081527f7f26b83ff96e1f2b6a682f133852f6798a09c465da95921460cefb38474024989060200160405180910390a15b565b611ff2806100ed6000396000f3fe6080604052600436106101cc5760003560e01c806365401a9c116100f7578063b8997a9711610095578063f04e283e11610064578063f04e283e1461054f578063f242432a14610562578063f2fde38b14610582578063fee81cf41461059557600080fd5b8063b8997a97146104c2578063d7533f02146104d8578063e4e1ff01146104f6578063e985e9c51461051657600080fd5b80638da5cb5b116100d15780638da5cb5b14610449578063a22cb46514610462578063a3106b9514610482578063a4a53539146104a257600080fd5b806365401a9c14610401578063715018a614610421578063731133e91461042957600080fd5b80632eb2c2d61161016f578063498719bc1161013e578063498719bc146103915780634c00de82146103a65780634e1273f4146103cc57806354d1f13d146103f957600080fd5b80632eb2c2d6146102f957806334d722c9146103195780633e4086e51461035157806341e42f301461037157600080fd5b80630e89341c116101ab5780630e89341c146102705780631f7fdffa1461029057806325692962146102b25780632a55205a146102ba57600080fd5b8062fdd58e146101d157806301ffc9a71461021e5780630b497f381461024e575b600080fd5b3480156101dd57600080fd5b5061020b6101ec3660046115cc565b679a31110384e0b0c96020526014919091526000908152604090205490565b6040519081526020015b60405180910390f35b34801561022a57600080fd5b5061023e6102393660046115f6565b6105c8565b6040519015158152602001610215565b34801561025a57600080fd5b50610263610610565b604051610215919061164b565b34801561027c57600080fd5b5061026361028b36600461167e565b61069e565b34801561029c57600080fd5b506102b06102ab3660046117cb565b6106dc565b005b6102b0610719565b3480156102c657600080fd5b506102da6102d5366004611863565b610768565b604080516001600160a01b039093168352602083019190915201610215565b34801561030557600080fd5b506102b061031436600461190a565b6107a7565b34801561032557600080fd5b50600154610339906001600160a01b031681565b6040516001600160a01b039091168152602001610215565b34801561035d57600080fd5b506102b061036c36600461167e565b6109d5565b34801561037d57600080fd5b506102b061038c3660046119c4565b610a10565b34801561039d57600080fd5b50610263610a42565b3480156103b257600080fd5b50600054610339906201000090046001600160a01b031681565b3480156103d857600080fd5b506103ec6103e73660046119df565b610a4f565b6040516102159190611a4a565b6102b0610abf565b34801561040d57600080fd5b506102b061041c366004611a8e565b610afb565b6102b0610b13565b34801561043557600080fd5b506102b0610444366004611aca565b610b27565b34801561045557600080fd5b50638b78c6d81954610339565b34801561046e57600080fd5b506102b061047d366004611b1e565b610b5e565b34801561048e57600080fd5b506102b061049d3660046119c4565b610bb4565b3480156104ae57600080fd5b506102b06104bd366004611a8e565b610c06565b3480156104ce57600080fd5b5061020b60025481565b3480156104e457600080fd5b506040516202a3008152602001610215565b34801561050257600080fd5b506102b0610511366004611b5a565b610c1a565b34801561052257600080fd5b5061023e610531366004611bf7565b679a31110384e0b0c96020526014919091526000526034600c205490565b6102b061055d3660046119c4565b610d96565b34801561056e57600080fd5b506102b061057d366004611c2a565b610dd6565b6102b06105903660046119c4565b610f44565b3480156105a157600080fd5b5061020b6105b03660046119c4565b63389a75e1600c908152600091909152602090205490565b60006001600160e01b0319821663152a902d60e11b148061060a575061060a826301ffc9a760e09190911c90811463d9b67a26821417630e89341c9091141790565b92915050565b6004805461061d90611ca1565b80601f016020809104026020016040519081016040528092919081815260200182805461064990611ca1565b80156106965780601f1061066b57610100808354040283529160200191610696565b820191906000526020600020905b81548152906001019060200180831161067957829003601f168201915b505050505081565b606060006106aa610f6b565b90506106b5816110bc565b6040516020016106c59190611cf7565b604051602081830303815290604052915050919050565b6001546001600160a01b0316331461070757604051639cdc2ed560e01b815260040160405180910390fd5b610713848484846110ca565b50505050565b60006202a3006001600160401b03164201905063389a75e1600c5233600052806020600c2055337fdbf36a107da19e49527a7176a1babf963b4b0ff8cde35ee35d6cd8f1f9ac7e1d600080a250565b60008060006127106002548561077e9190611d3c565b6107889190611d61565b6000546201000090046001600160a01b031693509150505b9250929050565b8285146107bc57633b800a466000526004601cfd5b8760601b679a31110384e0b0c9178760601b679a31110384e0b0c917816020528160601c99508060601c9850886107fb5763ea553b346000526004601cfd5b89331461081e57336000526034600c205461081e57634b6e7f186000526004601cfd5b8660051b60005b81811461088f578088013584602052818b013560005260406000208054808311156108585763f4d678b86000526004601cfd5b829003905560208490526040600020805480830181811015610882576301336cea6000526004601cfd5b9091555050602001610825565b50505050604051604081528560051b602001604082018160208a03823760408201602084810191909152600587901b01910181601f198801823701819003888a337f4a39dc06d4c0dbc64b70af90fd698a233a518aa5d07e595d983b8c0526c8f7fb8486a450506108fe600090565b156109135761091388888888888888886111e4565b863b156109cb5760405163bc197c81815233602082015288604082015260a060608201528560051b60200160c082018160208a0382378160a00180608085015282820191508660051b602001925082602089038337820160a084015260208401910181601f198601823701819003601b190160208282601c820160008d5af16109ab573d156109a6573d6000803e3d6000fd5b600082525b50805163bc197c8160e01b146109c957639c05499b6000526004601cfd5b505b5050505050505050565b6109dd6111e9565b600281905560405181907fc36422dcc77a5c93a5c48743078f8130c9fcc2a0ff893904ee62a3565688117c90600090a250565b610a186111e9565b600080546001600160a01b03909216620100000262010000600160b01b0319909216919091179055565b6003805461061d90611ca1565b6060838214610a6657633b800a466000526004601cfd5b6040519050818152602081018260051b81810160405260005b818114610ab457679a31110384e0b0c98882013560601b17602090815286820135600090815260409020548483015201610a7f565b505050949350505050565b63389a75e1600c523360005260006020600c2055337ffa7b8eab7da67f412cc9575ed43464468f9bfbae89d1675917346ca6d8fe3c92600080a2565b610b036111e9565b6004610b0f8282611dce565b5050565b610b1b6111e9565b610b256000611204565b565b6001546001600160a01b03163314610b5257604051639cdc2ed560e01b815260040160405180910390fd5b61071384848484611242565b8015159050679a31110384e0b0c96020523360145281600052806034600c2055806000528160601b60601c337f17307eab39ab6107e8899845ad3d59bd9653f200f220920489ca2b5937696c3160206000a35050565b610bbc6111e9565b600180546001600160a01b0319166001600160a01b0383169081179091556040517f09e32743122b4d02dc06c38a35ee1587a02854644d47574bb35a6ef75a22fa9890600090a250565b610c0e6111e9565b6003610b0f8282611dce565b600054610100900460ff1615808015610c3a5750600054600160ff909116105b80610c545750303b158015610c54575060005460ff166001145b610cbb5760405162461bcd60e51b815260206004820152602e60248201527f496e697469616c697a61626c653a20636f6e747261637420697320616c72656160448201526d191e481a5b9a5d1a585b1a5e995960921b606482015260840160405180910390fd5b6000805460ff191660011790558015610cde576000805461ff0019166101001790555b610ce7846112de565b6000805462010000600160b01b031916620100006001600160a01b038a81169190910291909117909155600180546001600160a01b03191691881691909117905560028590556003610d398482611dce565b506004610d468382611dce565b508015610d8d576000805461ff0019169055604051600181527f7f26b83ff96e1f2b6a682f133852f6798a09c465da95921460cefb38474024989060200160405180910390a15b50505050505050565b610d9e6111e9565b63389a75e1600c52806000526020600c208054421115610dc657636f5e88186000526004601cfd5b60009055610dd381611204565b50565b8560601b679a31110384e0b0c9178560601b679a31110384e0b0c917816020528160601c97508060601c965086610e155763ea553b346000526004601cfd5b873314610e3857336000526034600c2054610e3857634b6e7f186000526004601cfd5b8560005260406000209150815480861115610e5b5763f4d678b86000526004601cfd5b8581038355508060205260406000209150815485810181811015610e87576301336cea6000526004601cfd5b909255505060208390528486337fc3d58168c5ae7397731d063d5bbf3d657854427343f4c083240f7aacaa2d0f6260406000a4843b15610f3c5760405163f23a6e61815233602082015286604082015284606082015283608082015260a080820152816020016020840360c08301376020818360c401601c840160008a5af1610f1f573d15610f1a573d6000803e3d6000fd5b600081525b805163f23a6e6160e01b14610d8d57639c05499b6000526004601cfd5b505050505050565b610f4c6111e9565b8060601b610f6257637448fbae6000526004601cfd5b610dd381611204565b6060600061100260038054610f7f90611ca1565b80601f0160208091040260200160405190810160405280929190818152602001828054610fab90611ca1565b8015610ff85780601f10610fcd57610100808354040283529160200191610ff8565b820191906000526020600020905b815481529060010190602001808311610fdb57829003601f168201915b505050505061131a565b6110956004805461101290611ca1565b80601f016020809104026020016040519081016040528092919081815260200182805461103e90611ca1565b801561108b5780601f106110605761010080835404028352916020019161108b565b820191906000526020600020905b81548152906001019060200180831161106e57829003601f168201915b5050505050611343565b6040516020016110a6929190611e8d565b60408051601f1981840301815291905292915050565b606061060a82600080611373565b81518351146110e157633b800a466000526004601cfd5b8360601b806110f85763ea553b346000526004601cfd5b80679a31110384e0b0c917602052835160051b60005b8181146111515760208101905080850151818701516000526040600020805482810181811015611146576301336cea6000526004601cfd5b9091555061110e9050565b505060405160408152845160051b602001604082018181838960045afa503d60400160208401523d81019050855160051b60200191508181838860045afa50823d8201039150508260601c6000337f4a39dc06d4c0dbc64b70af90fd698a233a518aa5d07e595d983b8c0526c8f7fb8486a45050506111ce600090565b50833b156107135761071360008585858561145b565b6109cb565b638b78c6d819543314610b25576382b429006000526004601cfd5b638b78c6d81980546001600160a01b039092169182907f8be0079c531659141344cd1fd0a4f28419497f9722a3daafe3b4186f6b6457e0600080a355565b8360601b806112595763ea553b346000526004601cfd5b679a31110384e0b0c96020528460145283600052604060002080548481018181101561128d576301336cea6000526004601cfd5b80835550505083600052826020528060601c6000337fc3d58168c5ae7397731d063d5bbf3d657854427343f4c083240f7aacaa2d0f6260406000a450833b156107135761071360008585858561151d565b6001600160a01b0316638b78c6d8198190558060007f8be0079c531659141344cd1fd0a4f28419497f9722a3daafe3b4186f6b6457e08180a350565b60608160405160200161132d9190611f8d565b6040516020818303038152906040529050919050565b6060815160000361136257505060408051602081019091526000815290565b8160405160200161132d9190611f8d565b606083518015611453576003600282010460021b60405192507f4142434445464748494a4b4c4d4e4f505152535455565758595a616263646566601f526102308515027f6768696a6b6c6d6e6f707172737475767778797a303132333435363738392d5f03603f52602083018181015b6003880197508751603f8160121c1651600053603f81600c1c1651600153603f8160061c1651600253603f8116516003535060005182526004820191508082106113e357602001604052613d3d60f01b600384066002048083039190915260008615159091029182900352900382525b509392505050565b60405163bc197c8181523360208201528560601b60601c604082015260a06060820152835160051b60200160c082018181838860045afa503d60a0018060808501523d82019150855160051b60200192508282848860045afa503d0160a0840152835160200191503d018181818660045afa50601c83013d82010391505060208282601c850160008a5af16114ff573d156114fa573d6000803e3d6000fd5b600082525b50805163bc197c8160e01b14610f3c57639c05499b6000526004601cfd5b60405163f23a6e6181523360208201528560601b60601c604082015283606082015282608082015260a08082015281518060c08301528015611569578060e08301826020860160045afa505b6020828260c401601c850160008a5af1611592573d1561158d573d6000803e3d6000fd5b600082525b50805163f23a6e6160e01b14610f3c57639c05499b6000526004601cfd5b80356001600160a01b03811681146115c757600080fd5b919050565b600080604083850312156115df57600080fd5b6115e8836115b0565b946020939093013593505050565b60006020828403121561160857600080fd5b81356001600160e01b03198116811461162057600080fd5b9392505050565b60005b8381101561164257818101518382015260200161162a565b50506000910152565b602081526000825180602084015261166a816040850160208701611627565b601f01601f19169190910160400192915050565b60006020828403121561169057600080fd5b5035919050565b634e487b7160e01b600052604160045260246000fd5b604051601f8201601f191681016001600160401b03811182821017156116d5576116d5611697565b604052919050565b600082601f8301126116ee57600080fd5b813560206001600160401b0382111561170957611709611697565b8160051b6117188282016116ad565b928352848101820192828101908785111561173257600080fd5b83870192505b8483101561175157823582529183019190830190611738565b979650505050505050565b600082601f83011261176d57600080fd5b81356001600160401b0381111561178657611786611697565b611799601f8201601f19166020016116ad565b8181528460208386010111156117ae57600080fd5b816020850160208301376000918101602001919091529392505050565b600080600080608085870312156117e157600080fd5b6117ea856115b0565b935060208501356001600160401b038082111561180657600080fd5b611812888389016116dd565b9450604087013591508082111561182857600080fd5b611834888389016116dd565b9350606087013591508082111561184a57600080fd5b506118578782880161175c565b91505092959194509250565b6000806040838503121561187657600080fd5b50508035926020909101359150565b60008083601f84011261189757600080fd5b5081356001600160401b038111156118ae57600080fd5b6020830191508360208260051b85010111156107a057600080fd5b60008083601f8401126118db57600080fd5b5081356001600160401b038111156118f257600080fd5b6020830191508360208285010111156107a057600080fd5b60008060008060008060008060a0898b03121561192657600080fd5b61192f896115b0565b975061193d60208a016115b0565b965060408901356001600160401b038082111561195957600080fd5b6119658c838d01611885565b909850965060608b013591508082111561197e57600080fd5b61198a8c838d01611885565b909650945060808b01359150808211156119a357600080fd5b506119b08b828c016118c9565b999c989b5096995094979396929594505050565b6000602082840312156119d657600080fd5b611620826115b0565b600080600080604085870312156119f557600080fd5b84356001600160401b0380821115611a0c57600080fd5b611a1888838901611885565b90965094506020870135915080821115611a3157600080fd5b50611a3e87828801611885565b95989497509550505050565b6020808252825182820181905260009190848201906040850190845b81811015611a8257835183529284019291840191600101611a66565b50909695505050505050565b600060208284031215611aa057600080fd5b81356001600160401b03811115611ab657600080fd5b611ac28482850161175c565b949350505050565b60008060008060808587031215611ae057600080fd5b611ae9856115b0565b9350602085013592506040850135915060608501356001600160401b03811115611b1257600080fd5b6118578782880161175c565b60008060408385031215611b3157600080fd5b611b3a836115b0565b915060208301358015158114611b4f57600080fd5b809150509250929050565b60008060008060008060c08789031215611b7357600080fd5b611b7c876115b0565b9550611b8a602088016115b0565b945060408701359350611b9f606088016115b0565b925060808701356001600160401b0380821115611bbb57600080fd5b611bc78a838b0161175c565b935060a0890135915080821115611bdd57600080fd5b50611bea89828a0161175c565b9150509295509295509295565b60008060408385031215611c0a57600080fd5b611c13836115b0565b9150611c21602084016115b0565b90509250929050565b60008060008060008060a08789031215611c4357600080fd5b611c4c876115b0565b9550611c5a602088016115b0565b9450604087013593506060870135925060808701356001600160401b03811115611c8357600080fd5b611c8f89828a016118c9565b979a9699509497509295939492505050565b600181811c90821680611cb557607f821691505b602082108103611cd557634e487b7160e01b600052602260045260246000fd5b50919050565b60008151611ced818560208601611627565b9290920192915050565b7f646174613a6170706c69636174696f6e2f6a736f6e3b6261736536342c000000815260008251611d2f81601d850160208701611627565b91909101601d0192915050565b808202811582820484141761060a57634e487b7160e01b600052601160045260246000fd5b600082611d7e57634e487b7160e01b600052601260045260246000fd5b500490565b601f821115611dc957600081815260208120601f850160051c81016020861015611daa5750805b601f850160051c820191505b81811015610f3c57828155600101611db6565b505050565b81516001600160401b03811115611de757611de7611697565b611dfb81611df58454611ca1565b84611d83565b602080601f831160018114611e305760008415611e185750858301515b600019600386901b1c1916600185901b178555610f3c565b600085815260208120601f198616915b82811015611e5f57888601518255948401946001909101908401611e40565b5085821015611e7d5787850151600019600388901b60f8161c191681555b5050505050600190811b01905550565b607b60f81b815268113730b6b2911d101160b91b600182015270149858989a5d121bdb1948151a58dad95d607a1b600a82015261088b60f21b601b82018190526f113232b9b1b934b83a34b7b7111d101160811b601d83015271526162626974486f6c65205469636b65747360701b602d830152603f8201819052691134b6b0b3b2911d101160b11b6041830152835160009190611f3281604b860160208901611627565b8301604b8101829052711130b734b6b0ba34b7b72fbab936111d101160711b604d820152611f83611f76611f69605f840188611cdb565b601160f91b815260010190565b607d60f81b815260010190565b9695505050505050565b66697066733a2f2f60c81b815260008251611faf816007850160208701611627565b919091016007019291505056fea2646970667358221220153a60ad0f62ae4b716f269ae68ce542104da78b934811e8134a32602547c97b64736f6c63430008130033",
    "linkReferences": {}
  },
  "methodIdentifiers": {
    "animationUrlIPFSCID()": "0b497f38",
    "balanceOf(address,uint256)": "00fdd58e",
    "balanceOfBatch(address[],uint256[])": "4e1273f4",
    "cancelOwnershipHandover()": "54d1f13d",
    "completeOwnershipHandover(address)": "f04e283e",
    "imageIPFSCID()": "498719bc",
    "initialize(address,address,uint256,address,string,string)": "e4e1ff01",
    "isApprovedForAll(address,address)": "e985e9c5",
    "mint(address,uint256,uint256,bytes)": "731133e9",
    "mintBatch(address,uint256[],uint256[],bytes)": "1f7fdffa",
    "minterAddress()": "34d722c9",
    "owner()": "8da5cb5b",
    "ownershipHandoverExpiresAt(address)": "fee81cf4",
    "ownershipHandoverValidFor()": "d7533f02",
    "renounceOwnership()": "715018a6",
    "requestOwnershipHandover()": "25692962",
    "royaltyFee()": "b8997a97",
    "royaltyInfo(uint256,uint256)": "2a55205a",
    "royaltyRecipient()": "4c00de82",
    "safeBatchTransferFrom(address,address,uint256[],uint256[],bytes)": "2eb2c2d6",
    "safeTransferFrom(address,address,uint256,uint256,bytes)": "f242432a",
    "setAnimationUrlIPFSCID(string)": "65401a9c",
    "setApprovalForAll(address,bool)": "a22cb465",
    "setImageIPFSCID(string)": "a4a53539",
    "setMinterAddress(address)": "a3106b95",
    "setRoyaltyFee(uint256)": "3e4086e5",
    "setRoyaltyRecipient(address)": "41e42f30",
    "supportsInterface(bytes4)": "01ffc9a7",
    "transferOwnership(address)": "f2fde38b",
    "uri(uint256)": "0e89341c"
  },
  "id": 6
}