{
  "address": "0xfe9aF934a9d1Bd4109d0d698635c19385389e85f",
  "abi": [
    {
      "inputs": [],
      "stateMutability": "nonpayable",
      "type": "constructor"
    },
    {
      "inputs": [],
      "name": "AddressAlreadyMinted",
      "type": "error"
    },
    {
      "inputs": [],
      "name": "AddressNotSigned",
      "type": "error"
    },
    {
      "inputs": [],
      "name": "AddressZeroNotAllowed",
      "type": "error"
    },
    {
      "inputs": [],
      "name": "InvalidHash",
      "type": "error"
    },
    {
      "inputs": [],
      "name": "OnlyOwnerCanCreate1155Quest",
      "type": "error"
    },
    {
      "inputs": [],
      "name": "OverMaxAllowedToMint",
      "type": "error"
    },
    {
      "inputs": [],
      "name": "QuestEnded",
      "type": "error"
    },
    {
      "inputs": [],
      "name": "QuestFeeTooHigh",
      "type": "error"
    },
    {
      "inputs": [],
      "name": "QuestIdUsed",
      "type": "error"
    },
    {
      "inputs": [],
      "name": "QuestNotQueued",
      "type": "error"
    },
    {
      "inputs": [],
      "name": "QuestNotStarted",
      "type": "error"
    },
    {
      "inputs": [],
      "name": "QuestTypeInvalid",
      "type": "error"
    },
    {
      "inputs": [],
      "name": "RewardNotAllowed",
      "type": "error"
    },
    {
      "anonymous": false,
      "inputs": [
        {
          "indexed": false,
          "internalType": "uint8",
          "name": "version",
          "type": "uint8"
        }
      ],
      "name": "Initialized",
      "type": "event"
    },
    {
      "anonymous": false,
      "inputs": [
        {
          "indexed": true,
          "internalType": "address",
          "name": "previousOwner",
          "type": "address"
        },
        {
          "indexed": true,
          "internalType": "address",
          "name": "newOwner",
          "type": "address"
        }
      ],
      "name": "OwnershipTransferred",
      "type": "event"
    },
    {
      "anonymous": false,
      "inputs": [
        {
          "indexed": true,
          "internalType": "address",
          "name": "creator",
          "type": "address"
        },
        {
          "indexed": true,
          "internalType": "address",
          "name": "contractAddress",
          "type": "address"
        },
        {
          "indexed": false,
          "internalType": "string",
          "name": "questId",
          "type": "string"
        },
        {
          "indexed": false,
          "internalType": "string",
          "name": "contractType",
          "type": "string"
        },
        {
          "indexed": false,
          "internalType": "address",
          "name": "rewardTokenAddress",
          "type": "address"
        },
        {
          "indexed": false,
          "internalType": "uint256",
          "name": "endTime",
          "type": "uint256"
        },
        {
          "indexed": false,
          "internalType": "uint256",
          "name": "startTime",
          "type": "uint256"
        },
        {
          "indexed": false,
          "internalType": "uint256",
          "name": "totalParticipants",
          "type": "uint256"
        },
        {
          "indexed": false,
          "internalType": "uint256",
          "name": "rewardAmountOrTokenId",
          "type": "uint256"
        }
      ],
      "name": "QuestCreated",
      "type": "event"
    },
    {
      "anonymous": false,
      "inputs": [
        {
          "indexed": true,
          "internalType": "address",
          "name": "recipient",
          "type": "address"
        },
        {
          "indexed": true,
          "internalType": "address",
          "name": "questAddress",
          "type": "address"
        },
        {
          "indexed": true,
          "internalType": "uint256",
          "name": "tokenId",
          "type": "uint256"
        },
        {
          "indexed": false,
          "internalType": "string",
          "name": "questId",
          "type": "string"
        }
      ],
      "name": "ReceiptMinted",
      "type": "event"
    },
    {
      "anonymous": false,
      "inputs": [
        {
          "indexed": true,
          "internalType": "bytes32",
          "name": "role",
          "type": "bytes32"
        },
        {
          "indexed": true,
          "internalType": "bytes32",
          "name": "previousAdminRole",
          "type": "bytes32"
        },
        {
          "indexed": true,
          "internalType": "bytes32",
          "name": "newAdminRole",
          "type": "bytes32"
        }
      ],
      "name": "RoleAdminChanged",
      "type": "event"
    },
    {
      "anonymous": false,
      "inputs": [
        {
          "indexed": true,
          "internalType": "bytes32",
          "name": "role",
          "type": "bytes32"
        },
        {
          "indexed": true,
          "internalType": "address",
          "name": "account",
          "type": "address"
        },
        {
          "indexed": true,
          "internalType": "address",
          "name": "sender",
          "type": "address"
        }
      ],
      "name": "RoleGranted",
      "type": "event"
    },
    {
      "anonymous": false,
      "inputs": [
        {
          "indexed": true,
          "internalType": "bytes32",
          "name": "role",
          "type": "bytes32"
        },
        {
          "indexed": true,
          "internalType": "address",
          "name": "account",
          "type": "address"
        },
        {
          "indexed": true,
          "internalType": "address",
          "name": "sender",
          "type": "address"
        }
      ],
      "name": "RoleRevoked",
      "type": "event"
    },
    {
      "inputs": [],
      "name": "CREATE_QUEST_ROLE",
      "outputs": [
        {
          "internalType": "bytes32",
          "name": "",
          "type": "bytes32"
        }
      ],
      "stateMutability": "view",
      "type": "function"
    },
    {
      "inputs": [],
      "name": "DEFAULT_ADMIN_ROLE",
      "outputs": [
        {
          "internalType": "bytes32",
          "name": "",
          "type": "bytes32"
        }
      ],
      "stateMutability": "view",
      "type": "function"
    },
    {
      "inputs": [],
      "name": "ERC1155",
      "outputs": [
        {
          "internalType": "bytes32",
          "name": "",
          "type": "bytes32"
        }
      ],
      "stateMutability": "view",
      "type": "function"
    },
    {
      "inputs": [],
      "name": "ERC20",
      "outputs": [
        {
          "internalType": "bytes32",
          "name": "",
          "type": "bytes32"
        }
      ],
      "stateMutability": "view",
      "type": "function"
    },
    {
      "inputs": [],
      "name": "claimSignerAddress",
      "outputs": [
        {
          "internalType": "address",
          "name": "",
          "type": "address"
        }
      ],
      "stateMutability": "view",
      "type": "function"
    },
    {
      "inputs": [
        {
          "internalType": "address",
          "name": "rewardTokenAddress_",
          "type": "address"
        },
        {
          "internalType": "uint256",
          "name": "endTime_",
          "type": "uint256"
        },
        {
          "internalType": "uint256",
          "name": "startTime_",
          "type": "uint256"
        },
        {
          "internalType": "uint256",
          "name": "totalParticipants_",
          "type": "uint256"
        },
        {
          "internalType": "uint256",
          "name": "rewardAmountOrTokenId_",
          "type": "uint256"
        },
        {
          "internalType": "string",
          "name": "contractType_",
          "type": "string"
        },
        {
          "internalType": "string",
          "name": "questId_",
          "type": "string"
        }
      ],
      "name": "createQuest",
      "outputs": [
        {
          "internalType": "address",
          "name": "",
          "type": "address"
        }
      ],
      "stateMutability": "nonpayable",
      "type": "function"
    },
    {
      "inputs": [],
      "name": "erc1155QuestAddress",
      "outputs": [
        {
          "internalType": "address",
          "name": "",
          "type": "address"
        }
      ],
      "stateMutability": "view",
      "type": "function"
    },
    {
      "inputs": [],
      "name": "erc20QuestAddress",
      "outputs": [
        {
          "internalType": "address",
          "name": "",
          "type": "address"
        }
      ],
      "stateMutability": "view",
      "type": "function"
    },
    {
      "inputs": [
        {
          "internalType": "string",
          "name": "questId_",
          "type": "string"
        },
        {
          "internalType": "address",
          "name": "address_",
          "type": "address"
        }
      ],
      "name": "getAddressMinted",
      "outputs": [
        {
          "internalType": "bool",
          "name": "",
          "type": "bool"
        }
      ],
      "stateMutability": "view",
      "type": "function"
    },
    {
      "inputs": [
        {
          "internalType": "string",
          "name": "questId_",
          "type": "string"
        }
      ],
      "name": "getNumberMinted",
      "outputs": [
        {
          "internalType": "uint256",
          "name": "",
          "type": "uint256"
        }
      ],
      "stateMutability": "view",
      "type": "function"
    },
    {
      "inputs": [
        {
          "internalType": "bytes32",
          "name": "role",
          "type": "bytes32"
        }
      ],
      "name": "getRoleAdmin",
      "outputs": [
        {
          "internalType": "bytes32",
          "name": "",
          "type": "bytes32"
        }
      ],
      "stateMutability": "view",
      "type": "function"
    },
    {
      "inputs": [
        {
          "internalType": "bytes32",
          "name": "role",
          "type": "bytes32"
        },
        {
          "internalType": "address",
          "name": "account",
          "type": "address"
        }
      ],
      "name": "grantRole",
      "outputs": [],
      "stateMutability": "nonpayable",
      "type": "function"
    },
    {
      "inputs": [
        {
          "internalType": "bytes32",
          "name": "role",
          "type": "bytes32"
        },
        {
          "internalType": "address",
          "name": "account",
          "type": "address"
        }
      ],
      "name": "hasRole",
      "outputs": [
        {
          "internalType": "bool",
          "name": "",
          "type": "bool"
        }
      ],
      "stateMutability": "view",
      "type": "function"
    },
    {
      "inputs": [
        {
          "internalType": "address",
          "name": "claimSignerAddress_",
          "type": "address"
        },
        {
          "internalType": "address",
          "name": "rabbitHoleReceiptContract_",
          "type": "address"
        },
        {
          "internalType": "address",
          "name": "rabbitHoleTicketsContract_",
          "type": "address"
        },
        {
          "internalType": "address",
          "name": "protocolFeeRecipient_",
          "type": "address"
        },
        {
          "internalType": "address",
          "name": "erc20QuestAddress_",
          "type": "address"
        },
        {
          "internalType": "address",
          "name": "erc1155QuestAddress_",
          "type": "address"
        },
        {
          "internalType": "address",
          "name": "ownerAddress_",
          "type": "address"
        }
      ],
      "name": "initialize",
      "outputs": [],
      "stateMutability": "nonpayable",
      "type": "function"
    },
    {
      "inputs": [
        {
          "internalType": "string",
          "name": "questId_",
          "type": "string"
        },
        {
          "internalType": "bytes32",
          "name": "hash_",
          "type": "bytes32"
        },
        {
          "internalType": "bytes",
          "name": "signature_",
          "type": "bytes"
        }
      ],
      "name": "mintReceipt",
      "outputs": [],
      "stateMutability": "nonpayable",
      "type": "function"
    },
    {
      "inputs": [],
      "name": "owner",
      "outputs": [
        {
          "internalType": "address",
          "name": "",
          "type": "address"
        }
      ],
      "stateMutability": "view",
      "type": "function"
    },
    {
      "inputs": [],
      "name": "protocolFeeRecipient",
      "outputs": [
        {
          "internalType": "address",
          "name": "",
          "type": "address"
        }
      ],
      "stateMutability": "view",
      "type": "function"
    },
    {
      "inputs": [],
      "name": "questFee",
      "outputs": [
        {
          "internalType": "uint16",
          "name": "",
          "type": "uint16"
        }
      ],
      "stateMutability": "view",
      "type": "function"
    },
    {
      "inputs": [
        {
          "internalType": "string",
          "name": "questId_",
          "type": "string"
        }
      ],
      "name": "questInfo",
      "outputs": [
        {
          "internalType": "address",
          "name": "",
          "type": "address"
        },
        {
          "internalType": "uint256",
          "name": "",
          "type": "uint256"
        },
        {
          "internalType": "uint256",
          "name": "",
          "type": "uint256"
        }
      ],
      "stateMutability": "view",
      "type": "function"
    },
    {
      "inputs": [
        {
          "internalType": "string",
          "name": "",
          "type": "string"
        }
      ],
      "name": "quests",
      "outputs": [
        {
          "internalType": "address",
          "name": "questAddress",
          "type": "address"
        },
        {
          "internalType": "uint256",
          "name": "totalParticipants",
          "type": "uint256"
        },
        {
          "internalType": "uint256",
          "name": "numberMinted",
          "type": "uint256"
        }
      ],
      "stateMutability": "view",
      "type": "function"
    },
    {
      "inputs": [],
      "name": "rabbitHoleReceiptContract",
      "outputs": [
        {
          "internalType": "contract RabbitHoleReceipt",
          "name": "",
          "type": "address"
        }
      ],
      "stateMutability": "view",
      "type": "function"
    },
    {
      "inputs": [],
      "name": "rabbitHoleTicketsContract",
      "outputs": [
        {
          "internalType": "contract RabbitHoleTickets",
          "name": "",
          "type": "address"
        }
      ],
      "stateMutability": "view",
      "type": "function"
    },
    {
      "inputs": [
        {
          "internalType": "bytes32",
          "name": "hash_",
          "type": "bytes32"
        },
        {
          "internalType": "bytes",
          "name": "signature_",
          "type": "bytes"
        }
      ],
      "name": "recoverSigner",
      "outputs": [
        {
          "internalType": "address",
          "name": "",
          "type": "address"
        }
      ],
      "stateMutability": "pure",
      "type": "function"
    },
    {
      "inputs": [],
      "name": "renounceOwnership",
      "outputs": [],
      "stateMutability": "nonpayable",
      "type": "function"
    },
    {
      "inputs": [
        {
          "internalType": "bytes32",
          "name": "role",
          "type": "bytes32"
        },
        {
          "internalType": "address",
          "name": "account",
          "type": "address"
        }
      ],
      "name": "renounceRole",
      "outputs": [],
      "stateMutability": "nonpayable",
      "type": "function"
    },
    {
      "inputs": [
        {
          "internalType": "bytes32",
          "name": "role",
          "type": "bytes32"
        },
        {
          "internalType": "address",
          "name": "account",
          "type": "address"
        }
      ],
      "name": "revokeRole",
      "outputs": [],
      "stateMutability": "nonpayable",
      "type": "function"
    },
    {
      "inputs": [
        {
          "internalType": "address",
          "name": "",
          "type": "address"
        }
      ],
      "name": "rewardAllowlist",
      "outputs": [
        {
          "internalType": "bool",
          "name": "",
          "type": "bool"
        }
      ],
      "stateMutability": "view",
      "type": "function"
    },
    {
      "inputs": [
        {
          "internalType": "address",
          "name": "claimSignerAddress_",
          "type": "address"
        }
      ],
      "name": "setClaimSignerAddress",
      "outputs": [],
      "stateMutability": "nonpayable",
      "type": "function"
    },
    {
      "inputs": [
        {
          "internalType": "address",
          "name": "erc1155QuestAddress_",
          "type": "address"
        }
      ],
      "name": "setErc1155QuestAddress",
      "outputs": [],
      "stateMutability": "nonpayable",
      "type": "function"
    },
    {
      "inputs": [
        {
          "internalType": "address",
          "name": "erc20QuestAddress_",
          "type": "address"
        }
      ],
      "name": "setErc20QuestAddress",
      "outputs": [],
      "stateMutability": "nonpayable",
      "type": "function"
    },
    {
      "inputs": [
        {
          "internalType": "address",
          "name": "protocolFeeRecipient_",
          "type": "address"
        }
      ],
      "name": "setProtocolFeeRecipient",
      "outputs": [],
      "stateMutability": "nonpayable",
      "type": "function"
    },
    {
      "inputs": [
        {
          "internalType": "uint16",
          "name": "questFee_",
          "type": "uint16"
        }
      ],
      "name": "setQuestFee",
      "outputs": [],
      "stateMutability": "nonpayable",
      "type": "function"
    },
    {
      "inputs": [
        {
          "internalType": "address",
          "name": "rabbitholeReceiptContract_",
          "type": "address"
        }
      ],
      "name": "setRabbitHoleReceiptContract",
      "outputs": [],
      "stateMutability": "nonpayable",
      "type": "function"
    },
    {
      "inputs": [
        {
          "internalType": "address",
          "name": "rabbitholeTicketsContract_",
          "type": "address"
        }
      ],
      "name": "setRabbitHoleTicketsContract",
      "outputs": [],
      "stateMutability": "nonpayable",
      "type": "function"
    },
    {
      "inputs": [
        {
          "internalType": "address",
          "name": "rewardAddress_",
          "type": "address"
        },
        {
          "internalType": "bool",
          "name": "allowed_",
          "type": "bool"
        }
      ],
      "name": "setRewardAllowlistAddress",
      "outputs": [],
      "stateMutability": "nonpayable",
      "type": "function"
    },
    {
      "inputs": [
        {
          "internalType": "bytes4",
          "name": "interfaceId",
          "type": "bytes4"
        }
      ],
      "name": "supportsInterface",
      "outputs": [
        {
          "internalType": "bool",
          "name": "",
          "type": "bool"
        }
      ],
      "stateMutability": "view",
      "type": "function"
    },
    {
      "inputs": [
        {
          "internalType": "address",
          "name": "newOwner",
          "type": "address"
        }
      ],
      "name": "transferOwnership",
      "outputs": [],
      "stateMutability": "nonpayable",
      "type": "function"
    }
  ],
  "transactionHash": "0x3b65a1709932f3a7f198df8f35adb3406647eea633efab820355a35675fdd031",
  "args": [],
  "numDeployments": 1,
  "solcInputHash": "8616fb14f43007f4bcdb14a0afb765ef",
  "bytecode": "0x60806040523480156200001157600080fd5b50600054610100900460ff1615808015620000335750600054600160ff909116105b8062000063575062000050306200013d60201b620019721760201c565b15801562000063575060005460ff166001145b620000cb5760405162461bcd60e51b815260206004820152602e60248201527f496e697469616c697a61626c653a20636f6e747261637420697320616c72656160448201526d191e481a5b9a5d1a585b1a5e995960921b606482015260840160405180910390fd5b6000805460ff191660011790558015620000ef576000805461ff0019166101001790555b801562000136576000805461ff0019169055604051600181527f7f26b83ff96e1f2b6a682f133852f6798a09c465da95921460cefb38474024989060200160405180910390a15b506200014c565b6001600160a01b03163b151590565b612b0e806200015c6000396000f3fe608060405234801561001057600080fd5b50600436106102775760003560e01c80637c93f9ee11610160578063cc4aa204116100d8578063e521cb921161008c578063f2fde38b11610071578063f2fde38b146105be578063f8565efd146105d1578063fb41808a146105e457600080fd5b8063e521cb9214610598578063ec461ac4146105ab57600080fd5b8063d547741f116100bd578063d547741f1461055f578063d693e8d314610572578063e1bc3aba1461058557600080fd5b8063cc4aa20414610544578063d4faaa171461054c57600080fd5b806397aba7f91161012f578063a217fddf11610114578063a217fddf14610516578063a96a1cb01461051e578063b4cbdd8b1461053157600080fd5b806397aba7f9146104f0578063a1db1ba41461050357600080fd5b80637c93f9ee146104275780637e4176e31461043a5780638da5cb5b146104a657806391d14854146104b757600080fd5b806343f8bc6f116101f357806367dfa3e7116101c2578063715018a6116101a7578063715018a6146103f957806376319ee01461040157806378077f8d1461041457600080fd5b806367dfa3e7146103b5578063695ef19f146103d657600080fd5b806343f8bc6f1461036957806343ff27d11461037c57806361ab146b1461038f57806364df049e146103a257600080fd5b80632d2554711161024a578063358764761161022f578063358764761461033057806336568abe146103435780633ef17b171461035657600080fd5b80632d255471146103135780632f2ff15d1461031b57600080fd5b806301ffc9a71461027c5780630b6fc163146102a4578063248a9ca3146102cf57806327b0655f14610300575b600080fd5b61028f61028a366004612308565b61060b565b60405190151581526020015b60405180910390f35b60c9546102b7906001600160a01b031681565b6040516001600160a01b03909116815260200161029b565b6102f26102dd36600461234a565b60009081526097602052604090206001015490565b60405190815260200161029b565b61028f61030e366004612436565b6106a4565b6102f26106e6565b61032e610329366004612484565b61072c565b005b61032e61033e3660046124a7565b610756565b61032e610351366004612484565b61096b565b60ce546102b7906001600160a01b031681565b6102b761037736600461252d565b6109f7565b6102f261038a3660046125c8565b61104c565b61032e61039d3660046125fd565b611077565b60ca546102b7906001600160a01b031681565b60d1546103c39061ffff1681565b60405161ffff909116815260200161029b565b61028f6103e43660046125fd565b60d06020526000908152604090205460ff1681565b61032e6110ae565b61032e61040f366004612618565b6110c2565b60cf546102b7906001600160a01b031681565b61032e6104353660046125fd565b6115d8565b6104816104483660046125c8565b805160208183018101805160cd825292820191909301209152600181015460028201546003909201546001600160a01b03909116919083565b604080516001600160a01b03909416845260208401929092529082015260600161029b565b6033546001600160a01b03166102b7565b61028f6104c5366004612484565b60009182526097602090815260408084206001600160a01b0393909316845291905290205460ff1690565b6102b76104fe366004612685565b61160f565b60cb546102b7906001600160a01b031681565b6102f2600081565b61032e61052c3660046125fd565b611671565b61032e61053f3660046125fd565b6116a8565b6102f26116df565b60cc546102b7906001600160a01b031681565b61032e61056d366004612484565b611710565b61032e6105803660046126da565b611735565b61032e610593366004612711565b611768565b61032e6105a63660046125fd565b6117e5565b6104816105b93660046125c8565b61185c565b61032e6105cc3660046125fd565b6118ab565b61032e6105df3660046125fd565b61193b565b6102f27ff9ca453be4e83785e69957dffc5e557020ebe7df32422c6d32ccad977982cadd81565b60007fffffffff0000000000000000000000000000000000000000000000000000000082167f7965db0b00000000000000000000000000000000000000000000000000000000148061069e57507f01ffc9a7000000000000000000000000000000000000000000000000000000007fffffffff000000000000000000000000000000000000000000000000000000008316145b92915050565b600060cd836040516106b69190612759565b90815260408051602092819003830190206001600160a01b0385166000908152925290205460ff16905092915050565b6040517f657263313135350000000000000000000000000000000000000000000000000060208201526027015b6040516020818303038152906040528051906020012081565b60008281526097602052604090206001015461074781611981565b610751838361198b565b505050565b600054610100900460ff16158080156107765750600054600160ff909116105b806107905750303b158015610790575060005460ff166001145b6108075760405162461bcd60e51b815260206004820152602e60248201527f496e697469616c697a61626c653a20636f6e747261637420697320616c72656160448201527f647920696e697469616c697a656400000000000000000000000000000000000060648201526084015b60405180910390fd5b6000805460ff19166001179055801561084757600080547fffffffffffffffffffffffffffffffffffffffffffffffffffffffffffff00ff166101001790555b61085082611a2d565b610858611ab3565b61086182611b30565b60c980546001600160a01b03808b1673ffffffffffffffffffffffffffffffffffffffff199283161790925560ce80548a841690831617905560cf805489841690831617905560ca805488841690831617905560d180547fffffffffffffffffffffffffffffffffffffffffffffffffffffffffffff0000166107d017905560cb805487841690831617905560cc805492861692909116919091179055801561096157600080547fffffffffffffffffffffffffffffffffffffffffffffffffffffffffffff00ff169055604051600181527f7f26b83ff96e1f2b6a682f133852f6798a09c465da95921460cefb38474024989060200160405180910390a15b5050505050505050565b6001600160a01b03811633146109e95760405162461bcd60e51b815260206004820152602f60248201527f416363657373436f6e74726f6c3a2063616e206f6e6c792072656e6f756e636560448201527f20726f6c657320666f722073656c66000000000000000000000000000000000060648201526084016107fe565b6109f38282611b65565b5050565b60007ff9ca453be4e83785e69957dffc5e557020ebe7df32422c6d32ccad977982cadd610a2381611981565b600060cd84604051610a359190612759565b90815260405190819003602001902060018101549091506001600160a01b031615610a8c576040517fb2431b6100000000000000000000000000000000000000000000000000000000815260040160405180910390fd5b6040517f657263323000000000000000000000000000000000000000000000000000000060208201526025016040516020818303038152906040528051906020012085604051602001610adf9190612759565b6040516020818303038152906040528051906020012003610d18576001600160a01b038a16600090815260d0602052604081205460ff1615159003610b50576040517f9f7fdf3100000000000000000000000000000000000000000000000000000000815260040160405180910390fd5b60cb54600090610b68906001600160a01b0316611be8565b9050806001600160a01b0316336001600160a01b03167f7ffd904b9426b92270b251e237818b61230a9c7dc857d7e6130dddc21b76193787898f8f8f8f8f604051610bb997969594939291906127a1565b60405180910390a3808260010160006101000a8154816001600160a01b0302191690836001600160a01b03160217905550878260020181905550806001600160a01b031663938299b68c8c8c8c8c8b60ce60009054906101000a90046001600160a01b031660d160009054906101000a900461ffff1660ca60009054906101000a90046001600160a01b03166040518a63ffffffff1660e01b8152600401610c69999897969594939291906127fa565b600060405180830381600087803b158015610c8357600080fd5b505af1158015610c97573d6000803e3d6000fd5b50506040517ff2fde38b0000000000000000000000000000000000000000000000000000000081523360048201526001600160a01b038416925063f2fde38b91506024015b600060405180830381600087803b158015610cf657600080fd5b505af1158015610d0a573d6000803e3d6000fd5b505050508093505050611040565b6040517f657263313135350000000000000000000000000000000000000000000000000060208201526027016040516020818303038152906040528051906020012085604051602001610d6b9190612759565b604051602081830303815290604052805190602001200361100e576033546001600160a01b03163314610dca576040517f764a7c5000000000000000000000000000000000000000000000000000000000815260040160405180910390fd5b60cc54600090610de2906001600160a01b0316611be8565b9050806001600160a01b0316336001600160a01b03167f7ffd904b9426b92270b251e237818b61230a9c7dc857d7e6130dddc21b76193787898f8f8f8f8f604051610e3397969594939291906127a1565b60405180910390a3808260010160006101000a8154816001600160a01b0302191690836001600160a01b03160217905550878260020181905550806001600160a01b031663b7af306e8c8c8c8c8c8b60ce60009054906101000a90046001600160a01b03166040518863ffffffff1660e01b8152600401610eba979695949392919061285f565b600060405180830381600087803b158015610ed457600080fd5b505af1158015610ee8573d6000803e3d6000fd5b50506040517ff2fde38b0000000000000000000000000000000000000000000000000000000081523360048201526001600160a01b038416925063f2fde38b9150602401600060405180830381600087803b158015610f4657600080fd5b505af1158015610f5a573d6000803e3d6000fd5b505060cf546001600160a01b03908116908e1603915061100590505760cf546040517f731133e90000000000000000000000000000000000000000000000000000000081526001600160a01b03838116600480840191909152602483018b9052604483018c90526080606484015260848301527f307830300000000000000000000000000000000000000000000000000000000060a48301529091169063731133e99060c401610cdc565b92506110409050565b6040517fd5fde11d00000000000000000000000000000000000000000000000000000000815260040160405180910390fd5b50979650505050505050565b600060cd8260405161105e9190612759565b9081526020016040518091039020600301549050919050565b61107f611c89565b60ce805473ffffffffffffffffffffffffffffffffffffffff19166001600160a01b0392909216919091179055565b6110b6611c89565b6110c06000611ce3565b565b600060cd846040516110d49190612759565b908152602001604051809103902090508060020154816003015460016110fa91906128e0565b1115611132576040517f571e5b1800000000000000000000000000000000000000000000000000000000815260040160405180910390fd5b3360009081526020829052604090205460ff161515600103611180576040517ff5f915f000000000000000000000000000000000000000000000000000000000815260040160405180910390fd5b8060010160009054906101000a90046001600160a01b03166001600160a01b03166316049ddf6040518163ffffffff1660e01b8152600401602060405180830381865afa1580156111d5573d6000803e3d6000fd5b505050506040513d601f19601f820116820180604052508101906111f991906128f3565b61122f576040517fe5ec6b0400000000000000000000000000000000000000000000000000000000815260040160405180910390fd5b8060010160009054906101000a90046001600160a01b03166001600160a01b03166378e979256040518163ffffffff1660e01b8152600401602060405180830381865afa158015611284573d6000803e3d6000fd5b505050506040513d601f19601f820116820180604052508101906112a89190612910565b4210156112e1576040517f5971011300000000000000000000000000000000000000000000000000000000815260040160405180910390fd5b8060010160009054906101000a90046001600160a01b03166001600160a01b0316633197cbb66040518163ffffffff1660e01b8152600401602060405180830381865afa158015611336573d6000803e3d6000fd5b505050506040513d601f19601f8201168201806040525081019061135a9190612910565b421115611393576040517f8b602a4200000000000000000000000000000000000000000000000000000000815260040160405180910390fd5b8233856040516020016113a7929190612929565b60405160208183030381529060405280519060200120146113f4576040517f0af806e000000000000000000000000000000000000000000000000000000000815260040160405180910390fd5b60c9546001600160a01b031661140a848461160f565b6001600160a01b03161461144a576040517f05d0fdda00000000000000000000000000000000000000000000000000000000815260040160405180910390fd5b336000908152602082905260408120805460ff1916600117905560038201805490919061147690612974565b9091555060ce546040517fd0def5210000000000000000000000000000000000000000000000000000000081526001600160a01b039091169063d0def521906114c5903390889060040161298e565b600060405180830381600087803b1580156114df57600080fd5b505af11580156114f3573d6000803e3d6000fd5b5050505060ce60009054906101000a90046001600160a01b03166001600160a01b031663010a38f56040518163ffffffff1660e01b8152600401602060405180830381865afa15801561154a573d6000803e3d6000fd5b505050506040513d601f19601f8201168201806040525081019061156e9190612910565b60cd8560405161157e9190612759565b908152604051908190036020018120600101546001600160a01b03169033907fa9e09a39b54248cb5161a8bad4e544f88b8aa2da99e7c425846bece6703cc1fc906115ca9089906129b0565b60405180910390a450505050565b6115e0611c89565b60cb805473ffffffffffffffffffffffffffffffffffffffff19166001600160a01b0392909216919091179055565b6040517f19457468657265756d205369676e6564204d6573736167653a0a3332000000006020820152603c81018390526000908190605c016040516020818303038152906040528051906020012090506116698184611d42565b949350505050565b611679611c89565b60cf805473ffffffffffffffffffffffffffffffffffffffff19166001600160a01b0392909216919091179055565b6116b0611c89565b60c9805473ffffffffffffffffffffffffffffffffffffffff19166001600160a01b0392909216919091179055565b6040517f65726332300000000000000000000000000000000000000000000000000000006020820152602501610713565b60008281526097602052604090206001015461172b81611981565b6107518383611b65565b61173d611c89565b6001600160a01b0391909116600090815260d060205260409020805460ff1916911515919091179055565b611770611c89565b6127108161ffff1611156117b0576040517f4ae19ab600000000000000000000000000000000000000000000000000000000815260040160405180910390fd5b60d180547fffffffffffffffffffffffffffffffffffffffffffffffffffffffffffff00001661ffff92909216919091179055565b6117ed611c89565b6001600160a01b03811661182d576040517f0855380c00000000000000000000000000000000000000000000000000000000815260040160405180910390fd5b60ca805473ffffffffffffffffffffffffffffffffffffffff19166001600160a01b0392909216919091179055565b60008060008060cd856040516118729190612759565b908152604051908190036020019020600181015460028201546003909201546001600160a01b0390911695509093509150509193909250565b6118b3611c89565b6001600160a01b03811661192f5760405162461bcd60e51b815260206004820152602660248201527f4f776e61626c653a206e6577206f776e657220697320746865207a65726f206160448201527f646472657373000000000000000000000000000000000000000000000000000060648201526084016107fe565b61193881611ce3565b50565b611943611c89565b60cc805473ffffffffffffffffffffffffffffffffffffffff19166001600160a01b0392909216919091179055565b6001600160a01b03163b151590565b6119388133611d66565b60008281526097602090815260408083206001600160a01b038516845290915290205460ff166109f35760008281526097602090815260408083206001600160a01b03851684529091529020805460ff191660011790556119e93390565b6001600160a01b0316816001600160a01b0316837f2f8788117e7eff1d82e926ec794901d17c78024a50270940304540a733656f0d60405160405180910390a45050565b600054610100900460ff16611aaa5760405162461bcd60e51b815260206004820152602b60248201527f496e697469616c697a61626c653a20636f6e7472616374206973206e6f74206960448201527f6e697469616c697a696e6700000000000000000000000000000000000000000060648201526084016107fe565b61193881611ddb565b600054610100900460ff166110c05760405162461bcd60e51b815260206004820152602b60248201527f496e697469616c697a61626c653a20636f6e7472616374206973206e6f74206960448201527f6e697469616c697a696e6700000000000000000000000000000000000000000060648201526084016107fe565b611b3b60008261198b565b6119387ff9ca453be4e83785e69957dffc5e557020ebe7df32422c6d32ccad977982cadd8261198b565b60008281526097602090815260408083206001600160a01b038516845290915290205460ff16156109f35760008281526097602090815260408083206001600160a01b0385168085529252808320805460ff1916905551339285917ff6391f5c32d9c69d2a47ea670b442974b53935d1edc7fd64eb21e047a839171b9190a45050565b6000763d602d80600a3d3981f3363d3d373d3d3d363d730000008260601b60e81c176000526e5af43d82803e903d91602b57fd5bf38260781b17602052603760096000f090506001600160a01b038116611c845760405162461bcd60e51b815260206004820152601660248201527f455243313136373a20637265617465206661696c65640000000000000000000060448201526064016107fe565b919050565b6033546001600160a01b031633146110c05760405162461bcd60e51b815260206004820181905260248201527f4f776e61626c653a2063616c6c6572206973206e6f7420746865206f776e657260448201526064016107fe565b603380546001600160a01b0383811673ffffffffffffffffffffffffffffffffffffffff19831681179093556040519116919082907f8be0079c531659141344cd1fd0a4f28419497f9722a3daafe3b4186f6b6457e090600090a35050565b6000806000611d518585611e58565b91509150611d5e81611e9d565b509392505050565b60008281526097602090815260408083206001600160a01b038516845290915290205460ff166109f357611d9981612002565b611da4836020612014565b604051602001611db59291906129c3565b60408051601f198184030181529082905262461bcd60e51b82526107fe916004016129b0565b600054610100900460ff1661192f5760405162461bcd60e51b815260206004820152602b60248201527f496e697469616c697a61626c653a20636f6e7472616374206973206e6f74206960448201527f6e697469616c697a696e6700000000000000000000000000000000000000000060648201526084016107fe565b6000808251604103611e8e5760208301516040840151606085015160001a611e8287828585612244565b94509450505050611e96565b506000905060025b9250929050565b6000816004811115611eb157611eb1612a44565b03611eb95750565b6001816004811115611ecd57611ecd612a44565b03611f1a5760405162461bcd60e51b815260206004820152601860248201527f45434453413a20696e76616c6964207369676e6174757265000000000000000060448201526064016107fe565b6002816004811115611f2e57611f2e612a44565b03611f7b5760405162461bcd60e51b815260206004820152601f60248201527f45434453413a20696e76616c6964207369676e6174757265206c656e6774680060448201526064016107fe565b6003816004811115611f8f57611f8f612a44565b036119385760405162461bcd60e51b815260206004820152602260248201527f45434453413a20696e76616c6964207369676e6174757265202773272076616c60448201527f756500000000000000000000000000000000000000000000000000000000000060648201526084016107fe565b606061069e6001600160a01b03831660145b60606000612023836002612a73565b61202e9060026128e0565b67ffffffffffffffff81111561204657612046612363565b6040519080825280601f01601f191660200182016040528015612070576020820181803683370190505b5090507f3000000000000000000000000000000000000000000000000000000000000000816000815181106120a7576120a7612a92565b60200101907effffffffffffffffffffffffffffffffffffffffffffffffffffffffffffff1916908160001a9053507f78000000000000000000000000000000000000000000000000000000000000008160018151811061210a5761210a612a92565b60200101907effffffffffffffffffffffffffffffffffffffffffffffffffffffffffffff1916908160001a9053506000612146846002612a73565b6121519060016128e0565b90505b60018111156121ee577f303132333435363738396162636465660000000000000000000000000000000085600f166010811061219257612192612a92565b1a60f81b8282815181106121a8576121a8612a92565b60200101907effffffffffffffffffffffffffffffffffffffffffffffffffffffffffffff1916908160001a90535060049490941c936121e781612ac1565b9050612154565b50831561223d5760405162461bcd60e51b815260206004820181905260248201527f537472696e67733a20686578206c656e67746820696e73756666696369656e7460448201526064016107fe565b9392505050565b6000807f7fffffffffffffffffffffffffffffff5d576e7357a4501ddfe92f46681b20a083111561227b57506000905060036122ff565b6040805160008082526020820180845289905260ff881692820192909252606081018690526080810185905260019060a0016020604051602081039080840390855afa1580156122cf573d6000803e3d6000fd5b5050604051601f1901519150506001600160a01b0381166122f8576000600192509250506122ff565b9150600090505b94509492505050565b60006020828403121561231a57600080fd5b81357fffffffff000000000000000000000000000000000000000000000000000000008116811461223d57600080fd5b60006020828403121561235c57600080fd5b5035919050565b7f4e487b7100000000000000000000000000000000000000000000000000000000600052604160045260246000fd5b600082601f8301126123a357600080fd5b813567ffffffffffffffff808211156123be576123be612363565b604051601f8301601f19908116603f011681019082821181831017156123e6576123e6612363565b816040528381528660208588010111156123ff57600080fd5b836020870160208301376000602085830101528094505050505092915050565b80356001600160a01b0381168114611c8457600080fd5b6000806040838503121561244957600080fd5b823567ffffffffffffffff81111561246057600080fd5b61246c85828601612392565b92505061247b6020840161241f565b90509250929050565b6000806040838503121561249757600080fd5b8235915061247b6020840161241f565b600080600080600080600060e0888a0312156124c257600080fd5b6124cb8861241f565b96506124d96020890161241f565b95506124e76040890161241f565b94506124f56060890161241f565b93506125036080890161241f565b925061251160a0890161241f565b915061251f60c0890161241f565b905092959891949750929550565b600080600080600080600060e0888a03121561254857600080fd5b6125518861241f565b96506020880135955060408801359450606088013593506080880135925060a088013567ffffffffffffffff8082111561258a57600080fd5b6125968b838c01612392565b935060c08a01359150808211156125ac57600080fd5b506125b98a828b01612392565b91505092959891949750929550565b6000602082840312156125da57600080fd5b813567ffffffffffffffff8111156125f157600080fd5b61166984828501612392565b60006020828403121561260f57600080fd5b61223d8261241f565b60008060006060848603121561262d57600080fd5b833567ffffffffffffffff8082111561264557600080fd5b61265187838801612392565b945060208601359350604086013591508082111561266e57600080fd5b5061267b86828701612392565b9150509250925092565b6000806040838503121561269857600080fd5b82359150602083013567ffffffffffffffff8111156126b657600080fd5b6126c285828601612392565b9150509250929050565b801515811461193857600080fd5b600080604083850312156126ed57600080fd5b6126f68361241f565b91506020830135612706816126cc565b809150509250929050565b60006020828403121561272357600080fd5b813561ffff8116811461223d57600080fd5b60005b83811015612750578181015183820152602001612738565b50506000910152565b6000825161276b818460208701612735565b9190910192915050565b6000815180845261278d816020860160208601612735565b601f01601f19169290920160200192915050565b60e0815260006127b460e083018a612775565b82810360208401526127c6818a612775565b6001600160a01b0398909816604084015250506060810194909452608084019290925260a083015260c09091015292915050565b60006101206001600160a01b03808d1684528b60208501528a60408501528960608501528860808501528160a085015261283682850189612775565b96811660c085015261ffff9590951660e084015250509116610100909101529695505050505050565b60006001600160a01b03808a16835288602084015287604084015286606084015285608084015260e060a084015261289a60e0840186612775565b915080841660c08401525098975050505050505050565b7f4e487b7100000000000000000000000000000000000000000000000000000000600052601160045260246000fd5b8082018082111561069e5761069e6128b1565b60006020828403121561290557600080fd5b815161223d816126cc565b60006020828403121561292257600080fd5b5051919050565b7fffffffffffffffffffffffffffffffffffffffff0000000000000000000000008360601b16815260008251612966816014850160208701612735565b919091016014019392505050565b60006000198203612987576129876128b1565b5060010190565b6001600160a01b03831681526040602082015260006116696040830184612775565b60208152600061223d6020830184612775565b7f416363657373436f6e74726f6c3a206163636f756e74200000000000000000008152600083516129fb816017850160208801612735565b7f206973206d697373696e6720726f6c65200000000000000000000000000000006017918401918201528351612a38816028840160208801612735565b01602801949350505050565b7f4e487b7100000000000000000000000000000000000000000000000000000000600052602160045260246000fd5b6000816000190483118215151615612a8d57612a8d6128b1565b500290565b7f4e487b7100000000000000000000000000000000000000000000000000000000600052603260045260246000fd5b600081612ad057612ad06128b1565b50600019019056fea2646970667358221220c3bb00e7280dbac1936435a41cd209f2c124aded7885147018c2354f87807a5c64736f6c63430008100033",
  "devdoc": {
    "author": "RabbitHole.gg",
    "details": "This contract is used to create quests and mint receipts",
    "kind": "dev",
    "methods": {
      "constructor": {
        "custom:oz-upgrades-unsafe-allow": "constructor"
      },
      "createQuest(address,uint256,uint256,uint256,uint256,string,string)": {
        "details": "Create either an erc20 or erc1155 quest, only accounts with the CREATE_QUEST_ROLE can create quests",
        "params": {
          "contractType_": "The type of quest, either erc20 or erc1155",
          "endTime_": "The end time of the quest",
          "questId_": "The id of the quest",
          "rewardAmountOrTokenId_": "The reward amount for an erc20 quest or the token id for an erc1155 quest",
          "rewardTokenAddress_": "The contract address of the reward token",
          "startTime_": "The start time of the quest",
          "totalParticipants_": "The total amount of participants (accounts) the quest will have"
        },
        "returns": {
          "_0": "address the quest contract address"
        }
      },
      "getAddressMinted(string,address)": {
        "details": "return status of whether an address has minted a receipt for a quest",
        "params": {
          "address_": "The address to check",
          "questId_": "The id of the quest"
        },
        "returns": {
          "_0": "Minted status"
        }
      },
      "getNumberMinted(string)": {
        "details": "return the number of minted receipts for a quest",
        "params": {
          "questId_": "The id of the quest"
        }
      },
      "getRoleAdmin(bytes32)": {
        "details": "Returns the admin role that controls `role`. See {grantRole} and {revokeRole}. To change a role's admin, use {_setRoleAdmin}."
      },
      "grantRole(bytes32,address)": {
        "details": "Grants `role` to `account`. If `account` had not been already granted `role`, emits a {RoleGranted} event. Requirements: - the caller must have ``role``'s admin role. May emit a {RoleGranted} event."
      },
      "hasRole(bytes32,address)": {
        "details": "Returns `true` if `account` has been granted `role`."
      },
      "mintReceipt(string,bytes32,bytes)": {
        "details": "mint a RabbitHole Receipt. Note: this contract must be set as Minter on the receipt contract",
        "params": {
          "hash_": "The hash of the message",
          "questId_": "The id of the quest",
          "signature_": "The signature of the hash"
        }
      },
      "owner()": {
        "details": "Returns the address of the current owner."
      },
      "questInfo(string)": {
        "details": "return data in the quest struct for a questId",
        "params": {
          "questId_": "The id of the quest"
        }
      },
      "recoverSigner(bytes32,bytes)": {
        "details": "recover the signer from a hash and signature",
        "params": {
          "hash_": "The hash of the message",
          "signature_": "The signature of the hash"
        }
      },
      "renounceOwnership()": {
        "details": "Leaves the contract without owner. It will not be possible to call `onlyOwner` functions anymore. Can only be called by the current owner. NOTE: Renouncing ownership will leave the contract without an owner, thereby removing any functionality that is only available to the owner."
      },
      "renounceRole(bytes32,address)": {
        "details": "Revokes `role` from the calling account. Roles are often managed via {grantRole} and {revokeRole}: this function's purpose is to provide a mechanism for accounts to lose their privileges if they are compromised (such as when a trusted device is misplaced). If the calling account had been revoked `role`, emits a {RoleRevoked} event. Requirements: - the caller must be `account`. May emit a {RoleRevoked} event."
      },
      "revokeRole(bytes32,address)": {
        "details": "Revokes `role` from `account`. If `account` had been granted `role`, emits a {RoleRevoked} event. Requirements: - the caller must have ``role``'s admin role. May emit a {RoleRevoked} event."
      },
      "setClaimSignerAddress(address)": {
        "details": "set the claim signer address",
        "params": {
          "claimSignerAddress_": "The address of the claim signer"
        }
      },
      "setErc1155QuestAddress(address)": {
        "details": "set erc1155QuestAddress",
        "params": {
          "erc1155QuestAddress_": "The address of the erc1155 quest"
        }
      },
      "setErc20QuestAddress(address)": {
        "details": "set erc20QuestAddress",
        "params": {
          "erc20QuestAddress_": "The address of the erc20 quest"
        }
      },
      "setProtocolFeeRecipient(address)": {
        "details": "set the protocol fee recipient",
        "params": {
          "protocolFeeRecipient_": "The address of the protocol fee recipient"
        }
      },
      "setQuestFee(uint16)": {
        "details": "set the quest fee",
        "params": {
          "questFee_": "The quest fee value"
        }
      },
      "setRabbitHoleReceiptContract(address)": {
        "details": "set the rabbithole receipt contract",
        "params": {
          "rabbitholeReceiptContract_": "The address of the rabbithole receipt contract"
        }
      },
      "setRabbitHoleTicketsContract(address)": {
        "details": "set the rabbithole tickets contract",
        "params": {
          "rabbitholeTicketsContract_": "The address of the rabbithole tickets contract"
        }
      },
      "setRewardAllowlistAddress(address,bool)": {
        "details": "set or remave a contract address to be used as a reward",
        "params": {
          "allowed_": "Whether the contract address is allowed or not",
          "rewardAddress_": "The contract address to set"
        }
      },
      "supportsInterface(bytes4)": {
        "details": "See {IERC165-supportsInterface}."
      },
      "transferOwnership(address)": {
        "details": "Transfers ownership of the contract to a new account (`newOwner`). Can only be called by the current owner."
      }
    },
    "title": "QuestFactory",
    "version": 1
  },
  "userdoc": {
    "kind": "user",
    "methods": {
      "setQuestFee(uint16)": {
        "notice": "the quest fee should be in Basis Point units: https://www.investopedia.com/terms/b/basispoint.asp"
      }
    },
    "version": 1
  },
  "storageLayout": {
    "storage": [
      {
        "astId": 566,
        "contract": "contracts/QuestFactory.sol:QuestFactory",
        "label": "_initialized",
        "offset": 0,
        "slot": "0",
        "type": "t_uint8"
      },
      {
        "astId": 569,
        "contract": "contracts/QuestFactory.sol:QuestFactory",
        "label": "_initializing",
        "offset": 1,
        "slot": "0",
        "type": "t_bool"
      },
      {
        "astId": 4373,
        "contract": "contracts/QuestFactory.sol:QuestFactory",
        "label": "__gap",
        "offset": 0,
        "slot": "1",
        "type": "t_array(t_uint256)50_storage"
      },
      {
        "astId": 10816,
        "contract": "contracts/QuestFactory.sol:QuestFactory",
        "label": "_owner",
        "offset": 0,
        "slot": "51",
        "type": "t_address"
      },
      {
        "astId": 10940,
        "contract": "contracts/QuestFactory.sol:QuestFactory",
        "label": "__gap",
        "offset": 0,
        "slot": "52",
        "type": "t_array(t_uint256)49_storage"
      },
      {
        "astId": 5027,
        "contract": "contracts/QuestFactory.sol:QuestFactory",
        "label": "__gap",
        "offset": 0,
        "slot": "101",
        "type": "t_array(t_uint256)50_storage"
      },
      {
        "astId": 39,
        "contract": "contracts/QuestFactory.sol:QuestFactory",
        "label": "_roles",
        "offset": 0,
        "slot": "151",
        "type": "t_mapping(t_bytes32,t_struct(RoleData)34_storage)"
      },
      {
        "astId": 334,
        "contract": "contracts/QuestFactory.sol:QuestFactory",
        "label": "__gap",
        "offset": 0,
        "slot": "152",
        "type": "t_array(t_uint256)49_storage"
      },
      {
        "astId": 11487,
        "contract": "contracts/QuestFactory.sol:QuestFactory",
        "label": "claimSignerAddress",
        "offset": 0,
        "slot": "201",
        "type": "t_address"
      },
      {
        "astId": 11489,
        "contract": "contracts/QuestFactory.sol:QuestFactory",
        "label": "protocolFeeRecipient",
        "offset": 0,
        "slot": "202",
        "type": "t_address"
      },
      {
        "astId": 11491,
        "contract": "contracts/QuestFactory.sol:QuestFactory",
        "label": "erc20QuestAddress",
        "offset": 0,
        "slot": "203",
        "type": "t_address"
      },
      {
        "astId": 11493,
        "contract": "contracts/QuestFactory.sol:QuestFactory",
        "label": "erc1155QuestAddress",
        "offset": 0,
        "slot": "204",
        "type": "t_address"
      },
      {
        "astId": 11498,
        "contract": "contracts/QuestFactory.sol:QuestFactory",
        "label": "quests",
        "offset": 0,
        "slot": "205",
        "type": "t_mapping(t_string_memory_ptr,t_struct(Quest)11485_storage)"
      },
      {
        "astId": 11501,
        "contract": "contracts/QuestFactory.sol:QuestFactory",
        "label": "rabbitHoleReceiptContract",
        "offset": 0,
        "slot": "206",
        "type": "t_contract(RabbitHoleReceipt)12748"
      },
      {
        "astId": 11504,
        "contract": "contracts/QuestFactory.sol:QuestFactory",
        "label": "rabbitHoleTicketsContract",
        "offset": 0,
        "slot": "207",
        "type": "t_contract(RabbitHoleTickets)13033"
      },
      {
        "astId": 11508,
        "contract": "contracts/QuestFactory.sol:QuestFactory",
        "label": "rewardAllowlist",
        "offset": 0,
        "slot": "208",
        "type": "t_mapping(t_address,t_bool)"
      },
      {
        "astId": 11510,
        "contract": "contracts/QuestFactory.sol:QuestFactory",
        "label": "questFee",
        "offset": 0,
        "slot": "209",
        "type": "t_uint16"
      }
    ],
    "types": {
      "t_address": {
        "encoding": "inplace",
        "label": "address",
        "numberOfBytes": "20"
      },
      "t_array(t_uint256)49_storage": {
        "base": "t_uint256",
        "encoding": "inplace",
        "label": "uint256[49]",
        "numberOfBytes": "1568"
      },
      "t_array(t_uint256)50_storage": {
        "base": "t_uint256",
        "encoding": "inplace",
        "label": "uint256[50]",
        "numberOfBytes": "1600"
      },
      "t_bool": {
        "encoding": "inplace",
        "label": "bool",
        "numberOfBytes": "1"
      },
      "t_bytes32": {
        "encoding": "inplace",
        "label": "bytes32",
        "numberOfBytes": "32"
      },
      "t_contract(RabbitHoleReceipt)12748": {
        "encoding": "inplace",
        "label": "contract RabbitHoleReceipt",
        "numberOfBytes": "20"
      },
      "t_contract(RabbitHoleTickets)13033": {
        "encoding": "inplace",
        "label": "contract RabbitHoleTickets",
        "numberOfBytes": "20"
      },
      "t_mapping(t_address,t_bool)": {
        "encoding": "mapping",
        "key": "t_address",
        "label": "mapping(address => bool)",
        "numberOfBytes": "32",
        "value": "t_bool"
      },
      "t_mapping(t_bytes32,t_struct(RoleData)34_storage)": {
        "encoding": "mapping",
        "key": "t_bytes32",
        "label": "mapping(bytes32 => struct AccessControlUpgradeable.RoleData)",
        "numberOfBytes": "32",
        "value": "t_struct(RoleData)34_storage"
      },
      "t_mapping(t_string_memory_ptr,t_struct(Quest)11485_storage)": {
        "encoding": "mapping",
        "key": "t_string_memory_ptr",
        "label": "mapping(string => struct QuestFactory.Quest)",
        "numberOfBytes": "32",
        "value": "t_struct(Quest)11485_storage"
      },
      "t_string_memory_ptr": {
        "encoding": "bytes",
        "label": "string",
        "numberOfBytes": "32"
      },
      "t_struct(Quest)11485_storage": {
        "encoding": "inplace",
        "label": "struct QuestFactory.Quest",
        "members": [
          {
            "astId": 11478,
            "contract": "contracts/QuestFactory.sol:QuestFactory",
            "label": "addressMinted",
            "offset": 0,
            "slot": "0",
            "type": "t_mapping(t_address,t_bool)"
          },
          {
            "astId": 11480,
            "contract": "contracts/QuestFactory.sol:QuestFactory",
            "label": "questAddress",
            "offset": 0,
            "slot": "1",
            "type": "t_address"
          },
          {
            "astId": 11482,
            "contract": "contracts/QuestFactory.sol:QuestFactory",
            "label": "totalParticipants",
            "offset": 0,
            "slot": "2",
            "type": "t_uint256"
          },
          {
            "astId": 11484,
            "contract": "contracts/QuestFactory.sol:QuestFactory",
            "label": "numberMinted",
            "offset": 0,
            "slot": "3",
            "type": "t_uint256"
          }
        ],
        "numberOfBytes": "128"
      },
      "t_struct(RoleData)34_storage": {
        "encoding": "inplace",
        "label": "struct AccessControlUpgradeable.RoleData",
        "members": [
          {
            "astId": 31,
            "contract": "contracts/QuestFactory.sol:QuestFactory",
            "label": "members",
            "offset": 0,
            "slot": "0",
            "type": "t_mapping(t_address,t_bool)"
          },
          {
            "astId": 33,
            "contract": "contracts/QuestFactory.sol:QuestFactory",
            "label": "adminRole",
            "offset": 0,
            "slot": "1",
            "type": "t_bytes32"
          }
        ],
        "numberOfBytes": "64"
      },
      "t_uint16": {
        "encoding": "inplace",
        "label": "uint16",
        "numberOfBytes": "2"
      },
      "t_uint256": {
        "encoding": "inplace",
        "label": "uint256",
        "numberOfBytes": "32"
      },
      "t_uint8": {
        "encoding": "inplace",
        "label": "uint8",
        "numberOfBytes": "1"
      }
    }
  }
}