{
  "address": "0x4d6C349BE46F7904E1E1aE89DBedAe35E54945AF",
  "abi": [
    {
      "inputs": [
        {
          "internalType": "uint256",
          "name": "tokenId_",
          "type": "uint256"
        }
      ],
      "name": "generateTokenURI",
      "outputs": [
        {
          "internalType": "string",
          "name": "",
          "type": "string"
        }
      ],
      "stateMutability": "pure",
      "type": "function"
    }
  ],
  "transactionHash": "0xfbe8ce283a162ade05e2476fc1224a168741bd1fe9d8a875e524643699f82f6f",
  "args": [],
  "numDeployments": 1,
  "solcInputHash": "b3264e2ea64b2880e837019ad0a8060d",
  "bytecode": "0x608060405234801561001057600080fd5b50610a7b806100206000396000f3fe608060405234801561001057600080fd5b506004361061002b5760003560e01c8063210fa96b14610030575b600080fd5b61004361003e3660046103fc565b610059565b6040516100509190610439565b60405180910390f35b60606000610066836100c1565b61006f8461017f565b6040516020016100809291906104a6565b604051602081830303815290604052905061009a816101c6565b6040516020016100aa9190610636565b604051602081830303815290604052915050919050565b606060006100ce83610319565b600101905060008167ffffffffffffffff8111156100ee576100ee61067b565b6040519080825280601f01601f191660200182016040528015610118576020820181803683370190505b5090508181016020015b7fffffffffffffffffffffffffffffffffffffffffffffffffffffffffffffffff017f3031323334353637383961626364656600000000000000000000000000000000600a86061a8153600a850494508461012257509392505050565b6060600061018c836100c1565b60405160200161019c91906106aa565b60405160208183030381529060405290506101b6816101c6565b6040516020016100aa9190610906565b606081516000036101e557505060408051602081019091526000815290565b6000604051806060016040528060408152602001610a066040913990506000600384516002610214919061097a565b61021e919061098d565b6102299060046109c8565b67ffffffffffffffff8111156102415761024161067b565b6040519080825280601f01601f19166020018201604052801561026b576020820181803683370190505b509050600182016020820185865187015b808210156102d7576003820191508151603f8160121c168501518453600184019350603f81600c1c168501518453600184019350603f8160061c168501518453600184019350603f811685015184535060018301925061027c565b50506003865106600181146102f357600281146103065761030e565b603d6001830353603d600283035361030e565b603d60018303535b509195945050505050565b6000807a184f03e93ff9f4daa797ed6e38ed64bf6a1f0100000000000000008310610362577a184f03e93ff9f4daa797ed6e38ed64bf6a1f010000000000000000830492506040015b6d04ee2d6d415b85acef8100000000831061038e576d04ee2d6d415b85acef8100000000830492506020015b662386f26fc1000083106103ac57662386f26fc10000830492506010015b6305f5e10083106103c4576305f5e100830492506008015b61271083106103d857612710830492506004015b606483106103ea576064830492506002015b600a83106103f6576001015b92915050565b60006020828403121561040e57600080fd5b5035919050565b60005b83811015610430578181015183820152602001610418565b50506000910152565b6020815260008251806020840152610458816040850160208701610415565b601f017fffffffffffffffffffffffffffffffffffffffffffffffffffffffffffffffe0169190910160400192915050565b6000815161049c818560208601610415565b9290920192915050565b7f7b0000000000000000000000000000000000000000000000000000000000000081527f226e616d65223a2022526162626974486f6c65205469636b657473202300000060018201526000835161050481601e850160208801610415565b80830190507f222c000000000000000000000000000000000000000000000000000000000000601e8201527f226465736372697074696f6e223a2022412072657761726420666f7220636f6d60208201527f706c6574696e67207175657374732077697468696e20526162626974486f6c6560408201527f2c207769746820756e6b286e6f29776e207574696c697479222c00000000000060608201527f22696d616765223a202200000000000000000000000000000000000000000000607a82015283516105da816084840160208801610415565b7f2200000000000000000000000000000000000000000000000000000000000000608492909101918201527f7d000000000000000000000000000000000000000000000000000000000000006085820152608601949350505050565b7f646174613a6170706c69636174696f6e2f6a736f6e3b6261736536342c00000081526000825161066e81601d850160208701610415565b91909101601d0192915050565b7f4e487b7100000000000000000000000000000000000000000000000000000000600052604160045260246000fd5b7f3c73766720786d6c6e733d22687474703a2f2f7777772e77332e6f72672f323081527f30302f73766722207072657365727665417370656374526174696f3d22784d6960208201527f6e594d696e206d656574222076696577426f783d22302030203335302033353060408201527f223e00000000000000000000000000000000000000000000000000000000000060608201527f3c7374796c653e2e62617365207b2066696c6c3a2077686974653b20666f6e7460628201527f2d66616d696c793a2073657269663b20666f6e742d73697a653a20313470783b60828201527f207d3c2f7374796c653e0000000000000000000000000000000000000000000060a28201527f3c726563742077696474683d223130302522206865696768743d22313030252260ac8201527f2066696c6c3d22626c61636b22202f3e0000000000000000000000000000000060cc8201527f3c7465787420783d223530252220793d223430252220636c6173733d2262617360dc8201527f652220646f6d696e616e742d626173656c696e653d226d6964646c652220746560fc8201527f78742d616e63686f723d226d6964646c65223e526162626974486f6c6520546961011c8201527f636b65747320230000000000000000000000000000000000000000000000000061013c82015260006108ff6108d66108ad61014385018661048a565b7f3c2f746578743e00000000000000000000000000000000000000000000000000815260070190565b7f3c2f7376673e0000000000000000000000000000000000000000000000000000815260060190565b9392505050565b7f646174613a696d6167652f7376672b786d6c3b6261736536342c00000000000081526000825161093e81601a850160208701610415565b91909101601a0192915050565b7f4e487b7100000000000000000000000000000000000000000000000000000000600052601160045260246000fd5b808201808211156103f6576103f661094b565b6000826109c3577f4e487b7100000000000000000000000000000000000000000000000000000000600052601260045260246000fd5b500490565b6000817fffffffffffffffffffffffffffffffffffffffffffffffffffffffffffffffff0483118215151615610a0057610a0061094b565b50029056fe4142434445464748494a4b4c4d4e4f505152535455565758595a6162636465666768696a6b6c6d6e6f707172737475767778797a303132333435363738392b2fa264697066735822122093c13748f82af248cdf26feb1cef3c1ce8fe5f9a3503a3efb7799257f9783dae64736f6c63430008100033",
  "devdoc": {
    "author": "RabbitHole.gg",
    "details": "This contract is used to render on-chain data for RabbitHole tickets (aka an 1155 Reward)",
    "kind": "dev",
    "methods": {
      "generateTokenURI(uint256)": {
        "details": "generates the tokenURI for a given 1155 token ID",
        "params": {
          "tokenId_": "The token id to generate the URI for"
        },
        "returns": {
          "_0": "encoded JSON following the generic OpenSea metadata standard"
        }
      }
    },
    "title": "TicketRenderer",
    "version": 1
  },
  "userdoc": {
    "kind": "user",
    "methods": {},
    "version": 1
  },
  "storageLayout": {
    "storage": [],
    "types": null
  }
}