{
  "abi": [
    {
      "inputs": [],
      "stateMutability": "nonpayable",
      "type": "constructor"
    },
    {
      "anonymous": false,
      "inputs": [
        {
          "indexed": true,
          "internalType": "address",
          "name": "owner",
          "type": "address"
        },
        {
          "indexed": true,
          "internalType": "address",
          "name": "approved",
          "type": "address"
        },
        {
          "indexed": true,
          "internalType": "uint256",
          "name": "tokenId",
          "type": "uint256"
        }
      ],
      "name": "Approval",
      "type": "event"
    },
    {
      "anonymous": false,
      "inputs": [
        {
          "indexed": true,
          "internalType": "address",
          "name": "owner",
          "type": "address"
        },
        {
          "indexed": true,
          "internalType": "address",
          "name": "operator",
          "type": "address"
        },
        {
          "indexed": false,
          "internalType": "bool",
          "name": "approved",
          "type": "bool"
        }
      ],
      "name": "ApprovalForAll",
      "type": "event"
    },
    {
      "anonymous": false,
      "inputs": [
        {
          "indexed": false,
          "internalType": "uint8",
          "name": "version",
          "type": "uint8"
        }
      ],
      "name": "Initialized",
      "type": "event"
    },
    {
      "anonymous": false,
      "inputs": [
        {
          "indexed": true,
          "internalType": "address",
          "name": "minterAddress",
          "type": "address"
        }
      ],
      "name": "MinterAddressSet",
      "type": "event"
    },
    {
      "anonymous": false,
      "inputs": [
        {
          "indexed": true,
          "internalType": "address",
          "name": "previousOwner",
          "type": "address"
        },
        {
          "indexed": true,
          "internalType": "address",
          "name": "newOwner",
          "type": "address"
        }
      ],
      "name": "OwnershipTransferred",
      "type": "event"
    },
    {
      "anonymous": false,
      "inputs": [
        {
          "indexed": true,
          "internalType": "address",
          "name": "questFactoryAddress",
          "type": "address"
        }
      ],
      "name": "QuestFactoryAddressSet",
      "type": "event"
    },
    {
      "anonymous": false,
      "inputs": [
        {
          "indexed": true,
          "internalType": "uint256",
          "name": "royaltyFee",
          "type": "uint256"
        }
      ],
      "name": "RoyaltyFeeSet",
      "type": "event"
    },
    {
      "anonymous": false,
      "inputs": [
        {
          "indexed": true,
          "internalType": "address",
          "name": "from",
          "type": "address"
        },
        {
          "indexed": true,
          "internalType": "address",
          "name": "to",
          "type": "address"
        },
        {
          "indexed": true,
          "internalType": "uint256",
          "name": "tokenId",
          "type": "uint256"
        }
      ],
      "name": "Transfer",
      "type": "event"
    },
    {
      "inputs": [],
      "name": "animationUrlIPFSHash",
      "outputs": [
        {
          "internalType": "string",
          "name": "",
          "type": "string"
        }
      ],
      "stateMutability": "view",
      "type": "function"
    },
    {
      "inputs": [
        {
          "internalType": "address",
          "name": "to",
          "type": "address"
        },
        {
          "internalType": "uint256",
          "name": "tokenId",
          "type": "uint256"
        }
      ],
      "name": "approve",
      "outputs": [],
      "stateMutability": "nonpayable",
      "type": "function"
    },
    {
      "inputs": [
        {
          "internalType": "address",
          "name": "owner",
          "type": "address"
        }
      ],
      "name": "balanceOf",
      "outputs": [
        {
          "internalType": "uint256",
          "name": "",
          "type": "uint256"
        }
      ],
      "stateMutability": "view",
      "type": "function"
    },
    {
      "inputs": [
        {
          "internalType": "address[]",
          "name": "addresses_",
          "type": "address[]"
        }
      ],
      "name": "bulkMintNoDiscount",
      "outputs": [],
      "stateMutability": "nonpayable",
      "type": "function"
    },
    {
      "inputs": [
        {
          "internalType": "uint256",
          "name": "",
          "type": "uint256"
        }
      ],
      "name": "discounts",
      "outputs": [
        {
          "internalType": "uint16",
          "name": "percentage",
          "type": "uint16"
        },
        {
          "internalType": "uint16",
          "name": "usedCount",
          "type": "uint16"
        }
      ],
      "stateMutability": "view",
      "type": "function"
    },
    {
      "inputs": [
        {
          "internalType": "uint256",
          "name": "tokenId",
          "type": "uint256"
        }
      ],
      "name": "getApproved",
      "outputs": [
        {
          "internalType": "address",
          "name": "",
          "type": "address"
        }
      ],
      "stateMutability": "view",
      "type": "function"
    },
    {
      "inputs": [
        {
          "internalType": "address",
          "name": "owner_",
          "type": "address"
        }
      ],
      "name": "getOwnedTokenIds",
      "outputs": [
        {
          "internalType": "uint256[]",
          "name": "",
          "type": "uint256[]"
        }
      ],
      "stateMutability": "view",
      "type": "function"
    },
    {
      "inputs": [],
      "name": "imageIPFSHash",
      "outputs": [
        {
          "internalType": "string",
          "name": "",
          "type": "string"
        }
      ],
      "stateMutability": "view",
      "type": "function"
    },
    {
      "inputs": [
        {
          "internalType": "uint256",
          "name": "tokenId_",
          "type": "uint256"
        }
      ],
      "name": "incrementUsedCount",
      "outputs": [],
      "stateMutability": "nonpayable",
      "type": "function"
    },
    {
      "inputs": [
        {
          "internalType": "address",
          "name": "royaltyRecipient_",
          "type": "address"
        },
        {
          "internalType": "address",
          "name": "minterAddress_",
          "type": "address"
        },
        {
          "internalType": "address",
          "name": "questFactoryAddress_",
          "type": "address"
        },
        {
          "internalType": "uint256",
          "name": "royaltyFee_",
          "type": "uint256"
        },
        {
          "internalType": "address",
          "name": "owner_",
          "type": "address"
        },
        {
          "internalType": "string",
          "name": "imageIPFSHash_",
          "type": "string"
        },
        {
          "internalType": "string",
          "name": "animationUrlIPFSHash_",
          "type": "string"
        }
      ],
      "name": "initialize",
      "outputs": [],
      "stateMutability": "nonpayable",
      "type": "function"
    },
    {
      "inputs": [
        {
          "internalType": "address",
          "name": "owner",
          "type": "address"
        },
        {
          "internalType": "address",
          "name": "operator",
          "type": "address"
        }
      ],
      "name": "isApprovedForAll",
      "outputs": [
        {
          "internalType": "bool",
          "name": "",
          "type": "bool"
        }
      ],
      "stateMutability": "view",
      "type": "function"
    },
    {
      "inputs": [
        {
          "internalType": "address",
          "name": "to_",
          "type": "address"
        },
        {
          "internalType": "uint16",
          "name": "discountPercentage_",
          "type": "uint16"
        }
      ],
      "name": "mint",
      "outputs": [],
      "stateMutability": "nonpayable",
      "type": "function"
    },
    {
      "inputs": [],
      "name": "minterAddress",
      "outputs": [
        {
          "internalType": "address",
          "name": "",
          "type": "address"
        }
      ],
      "stateMutability": "view",
      "type": "function"
    },
    {
      "inputs": [],
      "name": "name",
      "outputs": [
        {
          "internalType": "string",
          "name": "",
          "type": "string"
        }
      ],
      "stateMutability": "view",
      "type": "function"
    },
    {
      "inputs": [],
      "name": "owner",
      "outputs": [
        {
          "internalType": "address",
          "name": "",
          "type": "address"
        }
      ],
      "stateMutability": "view",
      "type": "function"
    },
    {
      "inputs": [
        {
          "internalType": "uint256",
          "name": "tokenId",
          "type": "uint256"
        }
      ],
      "name": "ownerOf",
      "outputs": [
        {
          "internalType": "address",
          "name": "",
          "type": "address"
        }
      ],
      "stateMutability": "view",
      "type": "function"
    },
    {
      "inputs": [],
      "name": "questFactoryAddress",
      "outputs": [
        {
          "internalType": "address",
          "name": "",
          "type": "address"
        }
      ],
      "stateMutability": "view",
      "type": "function"
    },
    {
      "inputs": [],
      "name": "renounceOwnership",
      "outputs": [],
      "stateMutability": "nonpayable",
      "type": "function"
    },
    {
      "inputs": [],
      "name": "royaltyFee",
      "outputs": [
        {
          "internalType": "uint256",
          "name": "",
          "type": "uint256"
        }
      ],
      "stateMutability": "view",
      "type": "function"
    },
    {
      "inputs": [
        {
          "internalType": "uint256",
          "name": "tokenId_",
          "type": "uint256"
        },
        {
          "internalType": "uint256",
          "name": "salePrice_",
          "type": "uint256"
        }
      ],
      "name": "royaltyInfo",
      "outputs": [
        {
          "internalType": "address",
          "name": "receiver",
          "type": "address"
        },
        {
          "internalType": "uint256",
          "name": "royaltyAmount",
          "type": "uint256"
        }
      ],
      "stateMutability": "view",
      "type": "function"
    },
    {
      "inputs": [],
      "name": "royaltyRecipient",
      "outputs": [
        {
          "internalType": "address",
          "name": "",
          "type": "address"
        }
      ],
      "stateMutability": "view",
      "type": "function"
    },
    {
      "inputs": [
        {
          "internalType": "address",
          "name": "from",
          "type": "address"
        },
        {
          "internalType": "address",
          "name": "to",
          "type": "address"
        },
        {
          "internalType": "uint256",
          "name": "tokenId",
          "type": "uint256"
        }
      ],
      "name": "safeTransferFrom",
      "outputs": [],
      "stateMutability": "nonpayable",
      "type": "function"
    },
    {
      "inputs": [
        {
          "internalType": "address",
          "name": "from",
          "type": "address"
        },
        {
          "internalType": "address",
          "name": "to",
          "type": "address"
        },
        {
          "internalType": "uint256",
          "name": "tokenId",
          "type": "uint256"
        },
        {
          "internalType": "bytes",
          "name": "data",
          "type": "bytes"
        }
      ],
      "name": "safeTransferFrom",
      "outputs": [],
      "stateMutability": "nonpayable",
      "type": "function"
    },
    {
      "inputs": [
        {
          "internalType": "string",
          "name": "animationUrlIPFSHash_",
          "type": "string"
        }
      ],
      "name": "setAnimationUrlIPFSHash",
      "outputs": [],
      "stateMutability": "nonpayable",
      "type": "function"
    },
    {
      "inputs": [
        {
          "internalType": "address",
          "name": "operator",
          "type": "address"
        },
        {
          "internalType": "bool",
          "name": "approved",
          "type": "bool"
        }
      ],
      "name": "setApprovalForAll",
      "outputs": [],
      "stateMutability": "nonpayable",
      "type": "function"
    },
    {
      "inputs": [
        {
          "internalType": "string",
          "name": "imageIPFSHash_",
          "type": "string"
        }
      ],
      "name": "setImageIPFSHash",
      "outputs": [],
      "stateMutability": "nonpayable",
      "type": "function"
    },
    {
      "inputs": [
        {
          "internalType": "address",
          "name": "minterAddress_",
          "type": "address"
        }
      ],
      "name": "setMinterAddress",
      "outputs": [],
      "stateMutability": "nonpayable",
      "type": "function"
    },
    {
      "inputs": [
        {
          "internalType": "address",
          "name": "questFactoryAddress_",
          "type": "address"
        }
      ],
      "name": "setQuestFactoryAddress",
      "outputs": [],
      "stateMutability": "nonpayable",
      "type": "function"
    },
    {
      "inputs": [
        {
          "internalType": "uint256",
          "name": "royaltyFee_",
          "type": "uint256"
        }
      ],
      "name": "setRoyaltyFee",
      "outputs": [],
      "stateMutability": "nonpayable",
      "type": "function"
    },
    {
      "inputs": [
        {
          "internalType": "address",
          "name": "royaltyRecipient_",
          "type": "address"
        }
      ],
      "name": "setRoyaltyRecipient",
      "outputs": [],
      "stateMutability": "nonpayable",
      "type": "function"
    },
    {
      "inputs": [
        {
          "internalType": "bytes4",
          "name": "interfaceId_",
          "type": "bytes4"
        }
      ],
      "name": "supportsInterface",
      "outputs": [
        {
          "internalType": "bool",
          "name": "",
          "type": "bool"
        }
      ],
      "stateMutability": "view",
      "type": "function"
    },
    {
      "inputs": [],
      "name": "symbol",
      "outputs": [
        {
          "internalType": "string",
          "name": "",
          "type": "string"
        }
      ],
      "stateMutability": "view",
      "type": "function"
    },
    {
      "inputs": [
        {
          "internalType": "uint256",
          "name": "index",
          "type": "uint256"
        }
      ],
      "name": "tokenByIndex",
      "outputs": [
        {
          "internalType": "uint256",
          "name": "",
          "type": "uint256"
        }
      ],
      "stateMutability": "view",
      "type": "function"
    },
    {
      "inputs": [
        {
          "internalType": "address",
          "name": "owner",
          "type": "address"
        },
        {
          "internalType": "uint256",
          "name": "index",
          "type": "uint256"
        }
      ],
      "name": "tokenOfOwnerByIndex",
      "outputs": [
        {
          "internalType": "uint256",
          "name": "",
          "type": "uint256"
        }
      ],
      "stateMutability": "view",
      "type": "function"
    },
    {
      "inputs": [
        {
          "internalType": "uint256",
          "name": "tokenId_",
          "type": "uint256"
        }
      ],
      "name": "tokenURI",
      "outputs": [
        {
          "internalType": "string",
          "name": "",
          "type": "string"
        }
      ],
      "stateMutability": "view",
      "type": "function"
    },
    {
      "inputs": [],
      "name": "totalSupply",
      "outputs": [
        {
          "internalType": "uint256",
          "name": "",
          "type": "uint256"
        }
      ],
      "stateMutability": "view",
      "type": "function"
    },
    {
      "inputs": [
        {
          "internalType": "address",
          "name": "from",
          "type": "address"
        },
        {
          "internalType": "address",
          "name": "to",
          "type": "address"
        },
        {
          "internalType": "uint256",
          "name": "tokenId",
          "type": "uint256"
        }
      ],
      "name": "transferFrom",
      "outputs": [],
      "stateMutability": "nonpayable",
      "type": "function"
    },
    {
      "inputs": [
        {
          "internalType": "address",
          "name": "newOwner",
          "type": "address"
        }
      ],
      "name": "transferOwnership",
      "outputs": [],
      "stateMutability": "nonpayable",
      "type": "function"
    }
  ],
  "bytecode": {
    "object": "0x60806040523480156200001157600080fd5b506200001c62000022565b620000e4565b600054610100900460ff16156200008f5760405162461bcd60e51b815260206004820152602760248201527f496e697469616c697a61626c653a20636f6e747261637420697320696e697469604482015266616c697a696e6760c81b606482015260840160405180910390fd5b60005460ff9081161015620000e2576000805460ff191660ff9081179091556040519081527f7f26b83ff96e1f2b6a682f133852f6798a09c465da95921460cefb38474024989060200160405180910390a15b565b612dfa80620000f46000396000f3fe608060405234801561001057600080fd5b50600436106102325760003560e01c80637be4274111610130578063b8997a97116100b8578063dcf1621b1161007c578063dcf1621b14610509578063e985e9c51461051c578063ed0cab9b14610558578063f2fde38b1461056b578063fb2e06df1461057e57600080fd5b8063b8997a971461047c578063bae6a69014610486578063c87b56dd146104d0578063d3304314146104e3578063dbcca160146104f657600080fd5b8063a22cb465116100ff578063a22cb4651461041c578063a3106b951461042f578063ac98b21614610442578063ad0be4bd14610456578063b88d4fde1461046957600080fd5b80637be42741146103e85780638da5cb5b146103fb57806394886d8f1461040c57806395d89b411461041457600080fd5b80633d64eb7b116101be5780634f6ccce7116101825780634f6ccce7146103875780634fac7e411461039a5780636352211e146103ba57806370a08231146103cd578063715018a6146103e057600080fd5b80633d64eb7b146103325780633e4086e51461033a57806341e42f301461034d57806342842e0e146103605780634c00de821461037357600080fd5b806318160ddd1161020557806318160ddd146102b457806323b872dd146102c65780632a55205a146102d95780632f745c591461030b57806334d722c91461031e57600080fd5b806301ffc9a71461023757806306fdde031461025f578063081812fc14610274578063095ea7b31461029f575b600080fd5b61024a6102453660046121bc565b610591565b60405190151581526020015b60405180910390f35b6102676105bc565b6040516102569190612230565b610287610282366004612243565b61064e565b6040516001600160a01b039091168152602001610256565b6102b26102ad366004612278565b610675565b005b6099545b604051908152602001610256565b6102b26102d43660046122a2565b61078f565b6102ec6102e73660046122de565b6107c0565b604080516001600160a01b039093168352602083019190915201610256565b6102b8610319366004612278565b610850565b61016154610287906001600160a01b031681565b6102676108e6565b6102b2610348366004612243565b610975565b6102b261035b366004612300565b6109b1565b6102b261036e3660046122a2565b610a04565b61016054610287906001600160a01b031681565b6102b8610395366004612243565b610a1f565b6103ad6103a8366004612300565b610ab2565b604051610256919061231b565b6102876103c8366004612243565b610b54565b6102b86103db366004612300565b610bb4565b6102b2610c3a565b6102b26103f63660046123a6565b610c4e565b60fb546001600160a01b0316610287565b610267610cdd565b610267610ceb565b6102b261042a366004612453565b610cfa565b6102b261043d366004612300565b610d05565b61016254610287906001600160a01b031681565b6102b261046436600461248f565b610d80565b6102b261047736600461251a565b610e29565b6102b86101635481565b6104b5610494366004612243565b6101666020526000908152604090205461ffff808216916201000090041682565b6040805161ffff938416815292909116602083015201610256565b6102676104de366004612243565b610e61565b6102b26104f13660046125b6565b610ea0565b6102b2610504366004612243565b610eb5565b6102b26105173660046125eb565b610f4a565b61024a61052a36600461269b565b6001600160a01b039182166000908152606a6020908152604080832093909416825291909152205460ff1690565b6102b26105663660046125b6565b611122565b6102b2610579366004612300565b611137565b6102b261058c366004612300565b6111b0565b60006001600160e01b0319821663152a902d60e11b14806105b657506105b68261122b565b92915050565b6060606580546105cb906126ce565b80601f01602080910402602001604051908101604052809291908181526020018280546105f7906126ce565b80156106445780601f1061061957610100808354040283529160200191610644565b820191906000526020600020905b81548152906001019060200180831161062757829003601f168201915b5050505050905090565b600061065982611250565b506000908152606960205260409020546001600160a01b031690565b600061068082610b54565b9050806001600160a01b0316836001600160a01b0316036106f25760405162461bcd60e51b815260206004820152602160248201527f4552433732313a20617070726f76616c20746f2063757272656e74206f776e656044820152603960f91b60648201526084015b60405180910390fd5b336001600160a01b038216148061070e575061070e813361052a565b6107805760405162461bcd60e51b815260206004820152603d60248201527f4552433732313a20617070726f76652063616c6c6572206973206e6f7420746f60448201527f6b656e206f776e6572206f7220617070726f76656420666f7220616c6c00000060648201526084016106e9565b61078a83836112af565b505050565b610799338261131d565b6107b55760405162461bcd60e51b81526004016106e990612708565b61078a83838361139c565b60008281526067602052604081205481906001600160a01b031661081a5760405162461bcd60e51b81526020600482015260116024820152702737b732bc34b9ba32b73a103a37b5b2b760791b60448201526064016106e9565b6000612710610163548561082e919061276b565b6108389190612782565b610160546001600160a01b0316969095509350505050565b600061085b83610bb4565b82106108bd5760405162461bcd60e51b815260206004820152602b60248201527f455243373231456e756d657261626c653a206f776e657220696e646578206f7560448201526a74206f6620626f756e647360a81b60648201526084016106e9565b506001600160a01b03919091166000908152609760209081526040808320938352929052205490565b61016580546108f4906126ce565b80601f0160208091040260200160405190810160405280929190818152602001828054610920906126ce565b801561096d5780601f106109425761010080835404028352916020019161096d565b820191906000526020600020905b81548152906001019060200180831161095057829003601f168201915b505050505081565b61097d61150d565b61016381905560405181907fc36422dcc77a5c93a5c48743078f8130c9fcc2a0ff893904ee62a3565688117c90600090a250565b806001600160a01b0381166109d85760405162461bcd60e51b81526004016106e9906127a4565b6109e061150d565b5061016080546001600160a01b0319166001600160a01b0392909216919091179055565b61078a83838360405180602001604052806000815250610e29565b6000610a2a60995490565b8210610a8d5760405162461bcd60e51b815260206004820152602c60248201527f455243373231456e756d657261626c653a20676c6f62616c20696e646578206f60448201526b7574206f6620626f756e647360a01b60648201526084016106e9565b60998281548110610aa057610aa06127ca565b90600052602060002001549050919050565b60606000610abf83610bb4565b905060008167ffffffffffffffff811115610adc57610adc61235f565b604051908082528060200260200182016040528015610b05578160200160208202803683370190505b50905060005b82811015610b4c57610b1d8582610850565b828281518110610b2f57610b2f6127ca565b602090810291909101015280610b44816127e0565b915050610b0b565b509392505050565b6000818152606760205260408120546001600160a01b0316806105b65760405162461bcd60e51b8152602060048201526018602482015277115490cdcc8c4e881a5b9d985b1a59081d1bdad95b88125160421b60448201526064016106e9565b60006001600160a01b038216610c1e5760405162461bcd60e51b815260206004820152602960248201527f4552433732313a2061646472657373207a65726f206973206e6f7420612076616044820152683634b21037bbb732b960b91b60648201526084016106e9565b506001600160a01b031660009081526068602052604090205490565b610c4261150d565b610c4c6000611567565b565b610161546001600160a01b03163314610c975760405162461bcd60e51b815260206004820152600b60248201526a27b7363c9036b4b73a32b960a91b60448201526064016106e9565b60005b8151811015610cd957610cc7828281518110610cb857610cb86127ca565b602002602001015160006115b9565b80610cd1816127e0565b915050610c9a565b5050565b61016480546108f4906126ce565b6060606680546105cb906126ce565b610cd9338383611626565b806001600160a01b038116610d2c5760405162461bcd60e51b81526004016106e9906127a4565b610d3461150d565b61016180546001600160a01b0319166001600160a01b0384169081179091556040517f09e32743122b4d02dc06c38a35ee1587a02854644d47574bb35a6ef75a22fa9890600090a25050565b610161546001600160a01b03163314610dc95760405162461bcd60e51b815260206004820152600b60248201526a27b7363c9036b4b73a32b960a91b60448201526064016106e9565b6127108161ffff161115610e1f5760405162461bcd60e51b815260206004820152601b60248201527f496e76616c696420646973636f756e742070657263656e74616765000000000060448201526064016106e9565b610cd982826115b9565b610e33338361131d565b610e4f5760405162461bcd60e51b81526004016106e990612708565b610e5b848484846116f4565b50505050565b60606000610e6e83611727565b9050610e798161183b565b604051602001610e899190612815565b604051602081830303815290604052915050919050565b610ea861150d565b610165610cd982826128a8565b610162546001600160a01b03163314610f055760405162461bcd60e51b81526020600482015260126024820152714f6e6c7920717565737420666163746f727960701b60448201526064016106e9565b600081815261016660205260409020805462010000900461ffff16906002610f2c83612968565b91906101000a81548161ffff021916908361ffff1602179055505050565b600054610100900460ff1615808015610f6a5750600054600160ff909116105b80610f845750303b158015610f84575060005460ff166001145b610fe75760405162461bcd60e51b815260206004820152602e60248201527f496e697469616c697a61626c653a20636f6e747261637420697320616c72656160448201526d191e481a5b9a5d1a585b1a5e995960921b60648201526084016106e9565b6000805460ff19166001179055801561100a576000805461ff0019166101001790555b6110576040518060400160405280601081526020016f51756573745465726d696e616c4b657960801b8152506040518060400160405280600381526020016251544b60e81b815250611849565b61105f61187a565b611068846118a1565b6110706118d1565b61016080546001600160a01b03808b166001600160a01b03199283161790925561016180548a84169083161790556101628054928916929091169190911790556101638590556101646110c384826128a8565b506101656110d183826128a8565b508015611118576000805461ff0019169055604051600181527f7f26b83ff96e1f2b6a682f133852f6798a09c465da95921460cefb38474024989060200160405180910390a15b5050505050505050565b61112a61150d565b610164610cd982826128a8565b61113f61150d565b6001600160a01b0381166111a45760405162461bcd60e51b815260206004820152602660248201527f4f776e61626c653a206e6577206f776e657220697320746865207a65726f206160448201526564647265737360d01b60648201526084016106e9565b6111ad81611567565b50565b806001600160a01b0381166111d75760405162461bcd60e51b81526004016106e9906127a4565b6111df61150d565b61016280546001600160a01b0319166001600160a01b0384169081179091556040517f1b6281da36fffb8434322a7d44f2246f1d6d61bac579639b08f9f33405c5630e90600090a25050565b60006001600160e01b0319821663780e9d6360e01b14806105b657506105b682611900565b6000818152606760205260409020546001600160a01b03166111ad5760405162461bcd60e51b8152602060048201526018602482015277115490cdcc8c4e881a5b9d985b1a59081d1bdad95b88125160421b60448201526064016106e9565b600081815260696020526040902080546001600160a01b0319166001600160a01b03841690811790915581906112e482610b54565b6001600160a01b03167f8c5be1e5ebec7d5bd14f71427d1e84f3dd0314c0f7b2291e5b200ac8c7c3b92560405160405180910390a45050565b60008061132983610b54565b9050806001600160a01b0316846001600160a01b0316148061137057506001600160a01b038082166000908152606a602090815260408083209388168352929052205460ff165b806113945750836001600160a01b03166113898461064e565b6001600160a01b0316145b949350505050565b826001600160a01b03166113af82610b54565b6001600160a01b0316146113d55760405162461bcd60e51b81526004016106e990612989565b6001600160a01b0382166114375760405162461bcd60e51b8152602060048201526024808201527f4552433732313a207472616e7366657220746f20746865207a65726f206164646044820152637265737360e01b60648201526084016106e9565b6114448383836001611950565b826001600160a01b031661145782610b54565b6001600160a01b03161461147d5760405162461bcd60e51b81526004016106e990612989565b600081815260696020908152604080832080546001600160a01b03199081169091556001600160a01b0387811680865260688552838620805460001901905590871680865283862080546001019055868652606790945282852080549092168417909155905184937fddf252ad1be2c89b69c2b068fc378daa952ba7f163c4a11628f55a4df523b3ef91a4505050565b60fb546001600160a01b03163314610c4c5760405162461bcd60e51b815260206004820181905260248201527f4f776e61626c653a2063616c6c6572206973206e6f7420746865206f776e657260448201526064016106e9565b60fb80546001600160a01b038381166001600160a01b0319831681179093556040519116919082907f8be0079c531659141344cd1fd0a4f28419497f9722a3daafe3b4186f6b6457e090600090a35050565b6115c861015f80546001019055565b60006115d461015f5490565b60408051808201825261ffff8086168252600060208084018281528683526101669091529390209151825493518216620100000263ffffffff19909416911617919091179055905061078a838261195c565b816001600160a01b0316836001600160a01b0316036116875760405162461bcd60e51b815260206004820152601960248201527f4552433732313a20617070726f766520746f2063616c6c65720000000000000060448201526064016106e9565b6001600160a01b038381166000818152606a6020908152604080832094871680845294825291829020805460ff191686151590811790915591519182527f17307eab39ab6107e8899845ad3d59bd9653f200f220920489ca2b5937696c31910160405180910390a3505050565b6116ff84848461139c565b61170b84848484611af5565b610e5b5760405162461bcd60e51b81526004016106e9906129ce565b604080518082018252601781527f446973636f756e742050657263656e746167652042505300000000000000000060208083019190915260008481526101669091529182205460609291611787916117829061ffff16611bf6565b611c3a565b6040805180820182526013815272111a5cd8dbdd5b9d08155cd9590810dbdd5b9d606a1b602080830191909152600087815261016690915291909120546117dc91906117829062010000900461ffff16611bf6565b6040516020016117ed929190612a20565b60405160208183030381529060405290506000611808611c69565b611810611c92565b8360405160200161182393929190612a77565b60408051601f19818403018152919052949350505050565b60606105b682600080611cd1565b600054610100900460ff166118705760405162461bcd60e51b81526004016106e990612bc6565b610cd98282611db8565b600054610100900460ff16610c4c5760405162461bcd60e51b81526004016106e990612bc6565b600054610100900460ff166118c85760405162461bcd60e51b81526004016106e990612bc6565b6111ad81611df8565b600054610100900460ff166118f85760405162461bcd60e51b81526004016106e990612bc6565b610c4c611e1f565b60006001600160e01b031982166380ac58cd60e01b148061193157506001600160e01b03198216635b5e139f60e01b145b806105b657506301ffc9a760e01b6001600160e01b03198316146105b6565b610e5b84848484611e4e565b6001600160a01b0382166119b25760405162461bcd60e51b815260206004820181905260248201527f4552433732313a206d696e7420746f20746865207a65726f206164647265737360448201526064016106e9565b6000818152606760205260409020546001600160a01b031615611a175760405162461bcd60e51b815260206004820152601c60248201527f4552433732313a20746f6b656e20616c7265616479206d696e7465640000000060448201526064016106e9565b611a25600083836001611950565b6000818152606760205260409020546001600160a01b031615611a8a5760405162461bcd60e51b815260206004820152601c60248201527f4552433732313a20746f6b656e20616c7265616479206d696e7465640000000060448201526064016106e9565b6001600160a01b038216600081815260686020908152604080832080546001019055848352606790915280822080546001600160a01b0319168417905551839291907fddf252ad1be2c89b69c2b068fc378daa952ba7f163c4a11628f55a4df523b3ef908290a45050565b60006001600160a01b0384163b15611beb57604051630a85bd0160e11b81526001600160a01b0385169063150b7a0290611b39903390899088908890600401612c11565b6020604051808303816000875af1925050508015611b74575060408051601f3d908101601f19168201909252611b7191810190612c4e565b60015b611bd1573d808015611ba2576040519150601f19603f3d011682016040523d82523d6000602084013e611ba7565b606091505b508051600003611bc95760405162461bcd60e51b81526004016106e9906129ce565b805181602001fd5b6001600160e01b031916630a85bd0160e11b149050611394565b506001949350505050565b60606080604051019050602081016040526000815280600019835b928101926030600a8206018453600a900480611c11575050819003601f19909101908152919050565b606060008383604051602001611c51929190612c6b565b60408051808303601f19018152919052949350505050565b6060610164604051602001611c7e9190612cf9565b604051602081830303815290604052905090565b60606101658054611ca2906126ce565b9050600003611cbe575060408051602081019091526000815290565b610165604051602001611c7e9190612cf9565b606083518015610b4c576003600282010460021b60405192507f4142434445464748494a4b4c4d4e4f505152535455565758595a616263646566601f526102308515027f6768696a6b6c6d6e6f707172737475767778797a303132333435363738392d5f03603f52602083018181015b6003880197508751603f8160121c1651600053603f81600c1c1651600153603f8160061c1651600253603f811651600353506000518252600482019150808210611d4157602001604052613d3d60f01b60038406600204808303919091526000861515909102918290035290038252509392505050565b600054610100900460ff16611ddf5760405162461bcd60e51b81526004016106e990612bc6565b6065611deb83826128a8565b50606661078a82826128a8565b600054610100900460ff166111a45760405162461bcd60e51b81526004016106e990612bc6565b600054610100900460ff16611e465760405162461bcd60e51b81526004016106e990612bc6565b600161012d55565b611e5a84848484611f8e565b6001811115611ec95760405162461bcd60e51b815260206004820152603560248201527f455243373231456e756d657261626c653a20636f6e7365637574697665207472604482015274185b9cd9995c9cc81b9bdd081cdd5c1c1bdc9d1959605a1b60648201526084016106e9565b816001600160a01b038516611f2557611f2081609980546000838152609a60205260408120829055600182018355919091527f72a152ddfb8e864297c917af52ea6c1c68aead0fee1a62673fcc7e0c94979d000155565b611f48565b836001600160a01b0316856001600160a01b031614611f4857611f488582612016565b6001600160a01b038416611f6457611f5f816120b3565b611f87565b846001600160a01b0316846001600160a01b031614611f8757611f878482612162565b5050505050565b6001811115610e5b576001600160a01b03841615611fd4576001600160a01b03841660009081526068602052604081208054839290611fce908490612d88565b90915550505b6001600160a01b03831615610e5b576001600160a01b0383166000908152606860205260408120805483929061200b908490612d9b565b909155505050505050565b6000600161202384610bb4565b61202d9190612d88565b600083815260986020526040902054909150808214612080576001600160a01b03841660009081526097602090815260408083208584528252808320548484528184208190558352609890915290208190555b5060009182526098602090815260408084208490556001600160a01b039094168352609781528383209183525290812055565b6099546000906120c590600190612d88565b6000838152609a6020526040812054609980549394509092849081106120ed576120ed6127ca565b90600052602060002001549050806099838154811061210e5761210e6127ca565b6000918252602080832090910192909255828152609a9091526040808220849055858252812055609980548061214657612146612dae565b6001900381819060005260206000200160009055905550505050565b600061216d83610bb4565b6001600160a01b039093166000908152609760209081526040808320868452825280832085905593825260989052919091209190915550565b6001600160e01b0319811681146111ad57600080fd5b6000602082840312156121ce57600080fd5b81356121d9816121a6565b9392505050565b60005b838110156121fb5781810151838201526020016121e3565b50506000910152565b6000815180845261221c8160208601602086016121e0565b601f01601f19169290920160200192915050565b6020815260006121d96020830184612204565b60006020828403121561225557600080fd5b5035919050565b80356001600160a01b038116811461227357600080fd5b919050565b6000806040838503121561228b57600080fd5b6122948361225c565b946020939093013593505050565b6000806000606084860312156122b757600080fd5b6122c08461225c565b92506122ce6020850161225c565b9150604084013590509250925092565b600080604083850312156122f157600080fd5b50508035926020909101359150565b60006020828403121561231257600080fd5b6121d98261225c565b6020808252825182820181905260009190848201906040850190845b8181101561235357835183529284019291840191600101612337565b50909695505050505050565b634e487b7160e01b600052604160045260246000fd5b604051601f8201601f1916810167ffffffffffffffff8111828210171561239e5761239e61235f565b604052919050565b600060208083850312156123b957600080fd5b823567ffffffffffffffff808211156123d157600080fd5b818501915085601f8301126123e557600080fd5b8135818111156123f7576123f761235f565b8060051b9150612408848301612375565b818152918301840191848101908884111561242257600080fd5b938501935b83851015612447576124388561225c565b82529385019390850190612427565b98975050505050505050565b6000806040838503121561246657600080fd5b61246f8361225c565b91506020830135801515811461248457600080fd5b809150509250929050565b600080604083850312156124a257600080fd5b6124ab8361225c565b9150602083013561ffff8116811461248457600080fd5b600067ffffffffffffffff8311156124dc576124dc61235f565b6124ef601f8401601f1916602001612375565b905082815283838301111561250357600080fd5b828260208301376000602084830101529392505050565b6000806000806080858703121561253057600080fd5b6125398561225c565b93506125476020860161225c565b925060408501359150606085013567ffffffffffffffff81111561256a57600080fd5b8501601f8101871361257b57600080fd5b61258a878235602084016124c2565b91505092959194509250565b600082601f8301126125a757600080fd5b6121d9838335602085016124c2565b6000602082840312156125c857600080fd5b813567ffffffffffffffff8111156125df57600080fd5b61139484828501612596565b600080600080600080600060e0888a03121561260657600080fd5b61260f8861225c565b965061261d6020890161225c565b955061262b6040890161225c565b9450606088013593506126406080890161225c565b925060a088013567ffffffffffffffff8082111561265d57600080fd5b6126698b838c01612596565b935060c08a013591508082111561267f57600080fd5b5061268c8a828b01612596565b91505092959891949750929550565b600080604083850312156126ae57600080fd5b6126b78361225c565b91506126c56020840161225c565b90509250929050565b600181811c908216806126e257607f821691505b60208210810361270257634e487b7160e01b600052602260045260246000fd5b50919050565b6020808252602d908201527f4552433732313a2063616c6c6572206973206e6f7420746f6b656e206f776e6560408201526c1c881bdc88185c1c1c9bdd9959609a1b606082015260800190565b634e487b7160e01b600052601160045260246000fd5b80820281158282048414176105b6576105b6612755565b60008261279f57634e487b7160e01b600052601260045260246000fd5b500490565b6020808252600c908201526b5a65726f206164647265737360a01b604082015260600190565b634e487b7160e01b600052603260045260246000fd5b6000600182016127f2576127f2612755565b5060010190565b6000815161280b8185602086016121e0565b9290920192915050565b7f646174613a6170706c69636174696f6e2f6a736f6e3b6261736536342c00000081526000825161284d81601d8501602087016121e0565b91909101601d0192915050565b601f82111561078a57600081815260208120601f850160051c810160208610156128815750805b601f850160051c820191505b818110156128a05782815560010161288d565b505050505050565b815167ffffffffffffffff8111156128c2576128c261235f565b6128d6816128d084546126ce565b8461285a565b602080601f83116001811461290b57600084156128f35750858301515b600019600386901b1c1916600185901b1785556128a0565b600085815260208120601f198616915b8281101561293a5788860151825594840194600190910190840161291b565b50858210156129585787850151600019600388901b60f8161c191681555b5050505050600190811b01905550565b600061ffff80831681810361297f5761297f612755565b6001019392505050565b60208082526025908201527f4552433732313a207472616e736665722066726f6d20696e636f72726563742060408201526437bbb732b960d91b606082015260800190565b60208082526032908201527f4552433732313a207472616e7366657220746f206e6f6e20455243373231526560408201527131b2b4bb32b91034b6b83632b6b2b73a32b960711b606082015260800190565b605b60f81b815260008351612a3c8160018501602088016121e0565b600b60fa1b6001918401918201528351612a5d8160028401602088016121e0565b605d60f81b60029290910191820152600301949350505050565b607b60f81b81527f226e616d65223a20225175657374205465726d696e616c204b6579222c00000060018201527f226465736372697074696f6e223a202241206b657920746861742063616e2062601e8201527f65207573656420746f206372656174652071756573747320696e207468652051603e8201526e1d595cdd0815195c9b5a5b985b088b608a1b605e820152691134b6b0b3b2911d101160b11b606d8201528351600090612b318160778501602089016121e0565b61088b60f21b607791840191820152711130b734b6b0ba34b7b72fbab936111d101160711b60798201528451612b6e81608b8401602089016121e0565b612bbb612bae612ba8612b8e608b8587010161088b60f21b815260020190565b6d01130ba3a3934b13aba32b9911d160951b8152600e0190565b876127f9565b607d60f81b815260010190565b979650505050505050565b6020808252602b908201527f496e697469616c697a61626c653a20636f6e7472616374206973206e6f74206960408201526a6e697469616c697a696e6760a81b606082015260800190565b6001600160a01b0385811682528416602082015260408101839052608060608201819052600090612c4490830184612204565b9695505050505050565b600060208284031215612c6057600080fd5b81516121d9816121a6565b607b60f81b81526e113a3930b4ba2fba3cb832911d101160891b60018201528251600090612ca08160108501602088016121e0565b61088b60f21b60109184019182015269113b30b63ab2911d101160b11b60128201528351612cd581601c8401602088016121e0565b601160f91b601c9290910191820152607d60f81b601d820152601e01949350505050565b66697066733a2f2f60c81b81526000600760008454612d17816126ce565b60018281168015612d2f5760018114612d4857612d7b565b60ff198416888701528215158302880186019450612d7b565b8860005260208060002060005b85811015612d705781548b82018a0152908401908201612d55565b505050858389010194505b5092979650505050505050565b818103818111156105b6576105b6612755565b808201808211156105b6576105b6612755565b634e487b7160e01b600052603160045260246000fdfea2646970667358221220891825d08d6213633f940afc37272ccb9f4dfcfc3260fc993459287e01c1f5ac64736f6c63430008130033",
    "linkReferences": {}
  },
  "methodIdentifiers": {
    "animationUrlIPFSHash()": "3d64eb7b",
    "approve(address,uint256)": "095ea7b3",
    "balanceOf(address)": "70a08231",
    "bulkMintNoDiscount(address[])": "7be42741",
    "discounts(uint256)": "bae6a690",
    "getApproved(uint256)": "081812fc",
    "getOwnedTokenIds(address)": "4fac7e41",
    "imageIPFSHash()": "94886d8f",
    "incrementUsedCount(uint256)": "dbcca160",
    "initialize(address,address,address,uint256,address,string,string)": "dcf1621b",
    "isApprovedForAll(address,address)": "e985e9c5",
    "mint(address,uint16)": "ad0be4bd",
    "minterAddress()": "34d722c9",
    "name()": "06fdde03",
    "owner()": "8da5cb5b",
    "ownerOf(uint256)": "6352211e",
    "questFactoryAddress()": "ac98b216",
    "renounceOwnership()": "715018a6",
    "royaltyFee()": "b8997a97",
    "royaltyInfo(uint256,uint256)": "2a55205a",
    "royaltyRecipient()": "4c00de82",
    "safeTransferFrom(address,address,uint256)": "42842e0e",
    "safeTransferFrom(address,address,uint256,bytes)": "b88d4fde",
    "setAnimationUrlIPFSHash(string)": "d3304314",
    "setApprovalForAll(address,bool)": "a22cb465",
    "setImageIPFSHash(string)": "ed0cab9b",
    "setMinterAddress(address)": "a3106b95",
    "setQuestFactoryAddress(address)": "fb2e06df",
    "setRoyaltyFee(uint256)": "3e4086e5",
    "setRoyaltyRecipient(address)": "41e42f30",
    "supportsInterface(bytes4)": "01ffc9a7",
    "symbol()": "95d89b41",
    "tokenByIndex(uint256)": "4f6ccce7",
    "tokenOfOwnerByIndex(address,uint256)": "2f745c59",
    "tokenURI(uint256)": "c87b56dd",
    "totalSupply()": "18160ddd",
    "transferFrom(address,address,uint256)": "23b872dd",
    "transferOwnership(address)": "f2fde38b"
  },
  "id": 4
}