{
  "abi": [
    {
      "inputs": [],
      "name": "AccountBalanceOverflow",
      "type": "error"
    },
    {
      "inputs": [],
      "name": "ArrayLengthsMismatch",
      "type": "error"
    },
    {
      "inputs": [],
      "name": "InsufficientBalance",
      "type": "error"
    },
    {
      "inputs": [],
      "name": "NotOwnerNorApproved",
      "type": "error"
    },
    {
      "inputs": [],
      "name": "TransferToNonERC1155ReceiverImplementer",
      "type": "error"
    },
    {
      "inputs": [],
      "name": "TransferToZeroAddress",
      "type": "error"
    },
    {
      "anonymous": false,
      "inputs": [
        {
          "indexed": true,
          "internalType": "address",
          "name": "owner",
          "type": "address"
        },
        {
          "indexed": true,
          "internalType": "address",
          "name": "operator",
          "type": "address"
        },
        {
          "indexed": false,
          "internalType": "bool",
          "name": "isApproved",
          "type": "bool"
        }
      ],
      "name": "ApprovalForAll",
      "type": "event"
    },
    {
      "anonymous": false,
      "inputs": [
        {
          "indexed": true,
          "internalType": "address",
          "name": "operator",
          "type": "address"
        },
        {
          "indexed": true,
          "internalType": "address",
          "name": "from",
          "type": "address"
        },
        {
          "indexed": true,
          "internalType": "address",
          "name": "to",
          "type": "address"
        },
        {
          "indexed": false,
          "internalType": "uint256[]",
          "name": "ids",
          "type": "uint256[]"
        },
        {
          "indexed": false,
          "internalType": "uint256[]",
          "name": "amounts",
          "type": "uint256[]"
        }
      ],
      "name": "TransferBatch",
      "type": "event"
    },
    {
      "anonymous": false,
      "inputs": [
        {
          "indexed": true,
          "internalType": "address",
          "name": "operator",
          "type": "address"
        },
        {
          "indexed": true,
          "internalType": "address",
          "name": "from",
          "type": "address"
        },
        {
          "indexed": true,
          "internalType": "address",
          "name": "to",
          "type": "address"
        },
        {
          "indexed": false,
          "internalType": "uint256",
          "name": "id",
          "type": "uint256"
        },
        {
          "indexed": false,
          "internalType": "uint256",
          "name": "amount",
          "type": "uint256"
        }
      ],
      "name": "TransferSingle",
      "type": "event"
    },
    {
      "anonymous": false,
      "inputs": [
        {
          "indexed": false,
          "internalType": "string",
          "name": "value",
          "type": "string"
        },
        {
          "indexed": true,
          "internalType": "uint256",
          "name": "id",
          "type": "uint256"
        }
      ],
      "name": "URI",
      "type": "event"
    },
    {
      "inputs": [
        {
          "internalType": "address",
          "name": "owner",
          "type": "address"
        },
        {
          "internalType": "uint256",
          "name": "id",
          "type": "uint256"
        }
      ],
      "name": "balanceOf",
      "outputs": [
        {
          "internalType": "uint256",
          "name": "result",
          "type": "uint256"
        }
      ],
      "stateMutability": "view",
      "type": "function"
    },
    {
      "inputs": [
        {
          "internalType": "address[]",
          "name": "owners",
          "type": "address[]"
        },
        {
          "internalType": "uint256[]",
          "name": "ids",
          "type": "uint256[]"
        }
      ],
      "name": "balanceOfBatch",
      "outputs": [
        {
          "internalType": "uint256[]",
          "name": "balances",
          "type": "uint256[]"
        }
      ],
      "stateMutability": "view",
      "type": "function"
    },
    {
      "inputs": [
        {
          "internalType": "address",
          "name": "to",
          "type": "address"
        },
        {
          "internalType": "uint256[]",
          "name": "ids",
          "type": "uint256[]"
        },
        {
          "internalType": "uint256[]",
          "name": "amounts",
          "type": "uint256[]"
        }
      ],
      "name": "batchMint",
      "outputs": [],
      "stateMutability": "nonpayable",
      "type": "function"
    },
    {
      "inputs": [
        {
          "internalType": "address",
          "name": "owner",
          "type": "address"
        },
        {
          "internalType": "address",
          "name": "operator",
          "type": "address"
        }
      ],
      "name": "isApprovedForAll",
      "outputs": [
        {
          "internalType": "bool",
          "name": "result",
          "type": "bool"
        }
      ],
      "stateMutability": "view",
      "type": "function"
    },
    {
      "inputs": [
        {
          "internalType": "address",
          "name": "from",
          "type": "address"
        },
        {
          "internalType": "address",
          "name": "to",
          "type": "address"
        },
        {
          "internalType": "uint256[]",
          "name": "ids",
          "type": "uint256[]"
        },
        {
          "internalType": "uint256[]",
          "name": "amounts",
          "type": "uint256[]"
        },
        {
          "internalType": "bytes",
          "name": "data",
          "type": "bytes"
        }
      ],
      "name": "safeBatchTransferFrom",
      "outputs": [],
      "stateMutability": "nonpayable",
      "type": "function"
    },
    {
      "inputs": [
        {
          "internalType": "address",
          "name": "from",
          "type": "address"
        },
        {
          "internalType": "address",
          "name": "to",
          "type": "address"
        },
        {
          "internalType": "uint256",
          "name": "id",
          "type": "uint256"
        },
        {
          "internalType": "uint256",
          "name": "amount",
          "type": "uint256"
        },
        {
          "internalType": "bytes",
          "name": "data",
          "type": "bytes"
        }
      ],
      "name": "safeTransferFrom",
      "outputs": [],
      "stateMutability": "nonpayable",
      "type": "function"
    },
    {
      "inputs": [
        {
          "internalType": "address",
          "name": "operator",
          "type": "address"
        },
        {
          "internalType": "bool",
          "name": "isApproved",
          "type": "bool"
        }
      ],
      "name": "setApprovalForAll",
      "outputs": [],
      "stateMutability": "nonpayable",
      "type": "function"
    },
    {
      "inputs": [
        {
          "internalType": "bytes4",
          "name": "interfaceId",
          "type": "bytes4"
        }
      ],
      "name": "supportsInterface",
      "outputs": [
        {
          "internalType": "bool",
          "name": "result",
          "type": "bool"
        }
      ],
      "stateMutability": "view",
      "type": "function"
    },
    {
      "inputs": [
        {
          "internalType": "uint256",
          "name": "",
          "type": "uint256"
        }
      ],
      "name": "uri",
      "outputs": [
        {
          "internalType": "string",
          "name": "",
          "type": "string"
        }
      ],
      "stateMutability": "pure",
      "type": "function"
    }
  ],
  "bytecode": {
    "object": "0x608060405234801561001057600080fd5b50610d62806100206000396000f3fe608060405234801561001057600080fd5b50600436106100925760003560e01c80632eb2c2d6116100665780632eb2c2d61461014d5780634e1273f414610160578063a22cb46514610180578063e985e9c514610193578063f242432a146101bf57600080fd5b8062fdd58e1461009757806301ffc9a7146100d75780630ca83480146101175780630e89341c1461012c575b600080fd5b6100c46100a5366004610865565b679a31110384e0b0c96020526014919091526000908152604090205490565b6040519081526020015b60405180910390f35b6101076100e536600461088f565b6301ffc9a760e09190911c90811463d9b67a26821417630e89341c9091141790565b60405190151581526020016100ce565b61012a610125366004610971565b6101d2565b005b61014061013a3660046109e5565b50606090565b6040516100ce91906109fe565b61012a61015b366004610ada565b6101fe565b61017361016e366004610b95565b61042c565b6040516100ce9190610c01565b61012a61018e366004610c45565b61049c565b6101076101a1366004610c81565b679a31110384e0b0c96020526014919091526000526034600c205490565b61012a6101cd366004610cb4565b6104f2565b6101f98383836040518060400160405280600381526020016203078360ec1b815250610662565b505050565b82851461021357633b800a466000526004601cfd5b8760601b679a31110384e0b0c9178760601b679a31110384e0b0c917816020528160601c99508060601c9850886102525763ea553b346000526004601cfd5b89331461027557336000526034600c205461027557634b6e7f186000526004601cfd5b8660051b60005b8181146102e6578088013584602052818b013560005260406000208054808311156102af5763f4d678b86000526004601cfd5b8290039055602084905260406000208054808301818110156102d9576301336cea6000526004601cfd5b909155505060200161027c565b50505050604051604081528560051b602001604082018160208a03823760408201602084810191909152600587901b01910181601f198801823701819003888a337f4a39dc06d4c0dbc64b70af90fd698a233a518aa5d07e595d983b8c0526c8f7fb8486a45050610355600090565b1561036a5761036a8888888888888888610782565b863b156104225760405163bc197c81815233602082015288604082015260a060608201528560051b60200160c082018160208a0382378160a00180608085015282820191508660051b602001925082602089038337820160a084015260208401910181601f198601823701819003601b190160208282601c820160008d5af1610402573d156103fd573d6000803e3d6000fd5b600082525b50805163bc197c8160e01b1461042057639c05499b6000526004601cfd5b505b5050505050505050565b606083821461044357633b800a466000526004601cfd5b6040519050818152602081018260051b81810160405260005b81811461049157679a31110384e0b0c98882013560601b1760209081528682013560009081526040902054848301520161045c565b505050949350505050565b8015159050679a31110384e0b0c96020523360145281600052806034600c2055806000528160601b60601c337f17307eab39ab6107e8899845ad3d59bd9653f200f220920489ca2b5937696c3160206000a35050565b8560601b679a31110384e0b0c9178560601b679a31110384e0b0c917816020528160601c97508060601c9650866105315763ea553b346000526004601cfd5b87331461055457336000526034600c205461055457634b6e7f186000526004601cfd5b85600052604060002091508154808611156105775763f4d678b86000526004601cfd5b85810383555080602052604060002091508154858101818110156105a3576301336cea6000526004601cfd5b909255505060208390528486337fc3d58168c5ae7397731d063d5bbf3d657854427343f4c083240f7aacaa2d0f6260406000a4843b1561065a5760405163f23a6e61815233602082015286604082015284606082015283608082015260a080820152816020016020840360c08301376020818360c401601c840160008a5af161063b573d15610636573d6000803e3d6000fd5b600081525b805163f23a6e6160e01b1461065857639c05499b6000526004601cfd5b505b505050505050565b815183511461067957633b800a466000526004601cfd5b8360601b806106905763ea553b346000526004601cfd5b80679a31110384e0b0c917602052835160051b60005b8181146106e957602081019050808501518187015160005260406000208054828101818110156106de576301336cea6000526004601cfd5b909155506106a69050565b505060405160408152845160051b602001604082018181838960045afa503d60400160208401523d81019050855160051b60200191508181838860045afa50823d8201039150508260601c6000337f4a39dc06d4c0dbc64b70af90fd698a233a518aa5d07e595d983b8c0526c8f7fb8486a4505050610766600090565b50833b1561077c5761077c600085858585610787565b50505050565b610422565b60405163bc197c8181523360208201528560601b60601c604082015260a06060820152835160051b60200160c082018181838860045afa503d60a0018060808501523d82019150855160051b60200192508282848860045afa503d0160a0840152835160200191503d018181818660045afa50601c83013d82010391505060208282601c850160008a5af161082b573d15610826573d6000803e3d6000fd5b600082525b50805163bc197c8160e01b1461065a57639c05499b6000526004601cfd5b80356001600160a01b038116811461086057600080fd5b919050565b6000806040838503121561087857600080fd5b61088183610849565b946020939093013593505050565b6000602082840312156108a157600080fd5b81356001600160e01b0319811681146108b957600080fd5b9392505050565b634e487b7160e01b600052604160045260246000fd5b600082601f8301126108e757600080fd5b8135602067ffffffffffffffff80831115610904576109046108c0565b8260051b604051601f19603f83011681018181108482111715610929576109296108c0565b60405293845285810183019383810192508785111561094757600080fd5b83870191505b848210156109665781358352918301919083019061094d565b979650505050505050565b60008060006060848603121561098657600080fd5b61098f84610849565b9250602084013567ffffffffffffffff808211156109ac57600080fd5b6109b8878388016108d6565b935060408601359150808211156109ce57600080fd5b506109db868287016108d6565b9150509250925092565b6000602082840312156109f757600080fd5b5035919050565b600060208083528351808285015260005b81811015610a2b57858101830151858201604001528201610a0f565b506000604082860101526040601f19601f8301168501019250505092915050565b60008083601f840112610a5e57600080fd5b50813567ffffffffffffffff811115610a7657600080fd5b6020830191508360208260051b8501011115610a9157600080fd5b9250929050565b60008083601f840112610aaa57600080fd5b50813567ffffffffffffffff811115610ac257600080fd5b602083019150836020828501011115610a9157600080fd5b60008060008060008060008060a0898b031215610af657600080fd5b610aff89610849565b9750610b0d60208a01610849565b9650604089013567ffffffffffffffff80821115610b2a57600080fd5b610b368c838d01610a4c565b909850965060608b0135915080821115610b4f57600080fd5b610b5b8c838d01610a4c565b909650945060808b0135915080821115610b7457600080fd5b50610b818b828c01610a98565b999c989b5096995094979396929594505050565b60008060008060408587031215610bab57600080fd5b843567ffffffffffffffff80821115610bc357600080fd5b610bcf88838901610a4c565b90965094506020870135915080821115610be857600080fd5b50610bf587828801610a4c565b95989497509550505050565b6020808252825182820181905260009190848201906040850190845b81811015610c3957835183529284019291840191600101610c1d565b50909695505050505050565b60008060408385031215610c5857600080fd5b610c6183610849565b915060208301358015158114610c7657600080fd5b809150509250929050565b60008060408385031215610c9457600080fd5b610c9d83610849565b9150610cab60208401610849565b90509250929050565b60008060008060008060a08789031215610ccd57600080fd5b610cd687610849565b9550610ce460208801610849565b94506040870135935060608701359250608087013567ffffffffffffffff811115610d0e57600080fd5b610d1a89828a01610a98565b979a969950949750929593949250505056fea264697066735822122085b9c283d6674e10a1ca1b3803a963c9c7ce4596e316b60fc8ca86163a50e8ca64736f6c63430008130033",
    "linkReferences": {}
  },
  "methodIdentifiers": {
    "balanceOf(address,uint256)": "00fdd58e",
    "balanceOfBatch(address[],uint256[])": "4e1273f4",
    "batchMint(address,uint256[],uint256[])": "0ca83480",
    "isApprovedForAll(address,address)": "e985e9c5",
    "safeBatchTransferFrom(address,address,uint256[],uint256[],bytes)": "2eb2c2d6",
    "safeTransferFrom(address,address,uint256,uint256,bytes)": "f242432a",
    "setApprovalForAll(address,bool)": "a22cb465",
    "supportsInterface(bytes4)": "01ffc9a7",
    "uri(uint256)": "0e89341c"
  },
  "id": 11
}