{
  "abi": [
    {
      "inputs": [],
      "stateMutability": "nonpayable",
      "type": "constructor"
    },
    {
      "anonymous": false,
      "inputs": [
        {
          "indexed": true,
          "internalType": "address",
          "name": "owner",
          "type": "address"
        },
        {
          "indexed": true,
          "internalType": "address",
          "name": "approved",
          "type": "address"
        },
        {
          "indexed": true,
          "internalType": "uint256",
          "name": "tokenId",
          "type": "uint256"
        }
      ],
      "name": "Approval",
      "type": "event"
    },
    {
      "anonymous": false,
      "inputs": [
        {
          "indexed": true,
          "internalType": "address",
          "name": "owner",
          "type": "address"
        },
        {
          "indexed": true,
          "internalType": "address",
          "name": "operator",
          "type": "address"
        },
        {
          "indexed": false,
          "internalType": "bool",
          "name": "approved",
          "type": "bool"
        }
      ],
      "name": "ApprovalForAll",
      "type": "event"
    },
    {
      "anonymous": false,
      "inputs": [
        {
          "indexed": false,
          "internalType": "uint8",
          "name": "version",
          "type": "uint8"
        }
      ],
      "name": "Initialized",
      "type": "event"
    },
    {
      "anonymous": false,
      "inputs": [
        {
          "indexed": true,
          "internalType": "address",
          "name": "minterAddress",
          "type": "address"
        }
      ],
      "name": "MinterAddressSet",
      "type": "event"
    },
    {
      "anonymous": false,
      "inputs": [
        {
          "indexed": true,
          "internalType": "address",
          "name": "previousOwner",
          "type": "address"
        },
        {
          "indexed": true,
          "internalType": "address",
          "name": "newOwner",
          "type": "address"
        }
      ],
      "name": "OwnershipTransferred",
      "type": "event"
    },
    {
      "anonymous": false,
      "inputs": [
        {
          "indexed": true,
          "internalType": "uint256",
          "name": "royaltyFee",
          "type": "uint256"
        }
      ],
      "name": "RoyaltyFeeSet",
      "type": "event"
    },
    {
      "anonymous": false,
      "inputs": [
        {
          "indexed": true,
          "internalType": "address",
          "name": "from",
          "type": "address"
        },
        {
          "indexed": true,
          "internalType": "address",
          "name": "to",
          "type": "address"
        },
        {
          "indexed": true,
          "internalType": "uint256",
          "name": "tokenId",
          "type": "uint256"
        }
      ],
      "name": "Transfer",
      "type": "event"
    },
    {
      "inputs": [],
      "name": "QuestFactoryContract",
      "outputs": [
        {
          "internalType": "contract IQuestFactory",
          "name": "",
          "type": "address"
        }
      ],
      "stateMutability": "view",
      "type": "function"
    },
    {
      "inputs": [],
      "name": "ReceiptRendererContract",
      "outputs": [
        {
          "internalType": "contract ReceiptRenderer",
          "name": "",
          "type": "address"
        }
      ],
      "stateMutability": "view",
      "type": "function"
    },
    {
      "inputs": [
        {
          "internalType": "address",
          "name": "to",
          "type": "address"
        },
        {
          "internalType": "uint256",
          "name": "tokenId",
          "type": "uint256"
        }
      ],
      "name": "approve",
      "outputs": [],
      "stateMutability": "nonpayable",
      "type": "function"
    },
    {
      "inputs": [
        {
          "internalType": "address",
          "name": "owner",
          "type": "address"
        }
      ],
      "name": "balanceOf",
      "outputs": [
        {
          "internalType": "uint256",
          "name": "",
          "type": "uint256"
        }
      ],
      "stateMutability": "view",
      "type": "function"
    },
    {
      "inputs": [
        {
          "internalType": "uint256",
          "name": "tokenId",
          "type": "uint256"
        }
      ],
      "name": "getApproved",
      "outputs": [
        {
          "internalType": "address",
          "name": "",
          "type": "address"
        }
      ],
      "stateMutability": "view",
      "type": "function"
    },
    {
      "inputs": [
        {
          "internalType": "string",
          "name": "questId_",
          "type": "string"
        },
        {
          "internalType": "address",
          "name": "claimingAddress_",
          "type": "address"
        }
      ],
      "name": "getOwnedTokenIdsOfQuest",
      "outputs": [
        {
          "internalType": "uint256[]",
          "name": "",
          "type": "uint256[]"
        }
      ],
      "stateMutability": "view",
      "type": "function"
    },
    {
      "inputs": [],
      "name": "getTokenId",
      "outputs": [
        {
          "internalType": "uint256",
          "name": "",
          "type": "uint256"
        }
      ],
      "stateMutability": "view",
      "type": "function"
    },
    {
      "inputs": [
        {
          "internalType": "address",
          "name": "receiptRenderer_",
          "type": "address"
        },
        {
          "internalType": "address",
          "name": "royaltyRecipient_",
          "type": "address"
        },
        {
          "internalType": "address",
          "name": "minterAddress_",
          "type": "address"
        },
        {
          "internalType": "uint256",
          "name": "royaltyFee_",
          "type": "uint256"
        },
        {
          "internalType": "address",
          "name": "owner_",
          "type": "address"
        }
      ],
      "name": "initialize",
      "outputs": [],
      "stateMutability": "nonpayable",
      "type": "function"
    },
    {
      "inputs": [
        {
          "internalType": "address",
          "name": "owner",
          "type": "address"
        },
        {
          "internalType": "address",
          "name": "operator",
          "type": "address"
        }
      ],
      "name": "isApprovedForAll",
      "outputs": [
        {
          "internalType": "bool",
          "name": "",
          "type": "bool"
        }
      ],
      "stateMutability": "view",
      "type": "function"
    },
    {
      "inputs": [
        {
          "internalType": "address",
          "name": "to_",
          "type": "address"
        },
        {
          "internalType": "string",
          "name": "questId_",
          "type": "string"
        }
      ],
      "name": "mint",
      "outputs": [],
      "stateMutability": "nonpayable",
      "type": "function"
    },
    {
      "inputs": [],
      "name": "minterAddress",
      "outputs": [
        {
          "internalType": "address",
          "name": "",
          "type": "address"
        }
      ],
      "stateMutability": "view",
      "type": "function"
    },
    {
      "inputs": [],
      "name": "name",
      "outputs": [
        {
          "internalType": "string",
          "name": "",
          "type": "string"
        }
      ],
      "stateMutability": "view",
      "type": "function"
    },
    {
      "inputs": [],
      "name": "owner",
      "outputs": [
        {
          "internalType": "address",
          "name": "",
          "type": "address"
        }
      ],
      "stateMutability": "view",
      "type": "function"
    },
    {
      "inputs": [
        {
          "internalType": "uint256",
          "name": "tokenId",
          "type": "uint256"
        }
      ],
      "name": "ownerOf",
      "outputs": [
        {
          "internalType": "address",
          "name": "",
          "type": "address"
        }
      ],
      "stateMutability": "view",
      "type": "function"
    },
    {
      "inputs": [
        {
          "internalType": "uint256",
          "name": "",
          "type": "uint256"
        }
      ],
      "name": "questIdForTokenId",
      "outputs": [
        {
          "internalType": "string",
          "name": "",
          "type": "string"
        }
      ],
      "stateMutability": "view",
      "type": "function"
    },
    {
      "inputs": [],
      "name": "renounceOwnership",
      "outputs": [],
      "stateMutability": "nonpayable",
      "type": "function"
    },
    {
      "inputs": [],
      "name": "royaltyFee",
      "outputs": [
        {
          "internalType": "uint256",
          "name": "",
          "type": "uint256"
        }
      ],
      "stateMutability": "view",
      "type": "function"
    },
    {
      "inputs": [
        {
          "internalType": "uint256",
          "name": "tokenId_",
          "type": "uint256"
        },
        {
          "internalType": "uint256",
          "name": "salePrice_",
          "type": "uint256"
        }
      ],
      "name": "royaltyInfo",
      "outputs": [
        {
          "internalType": "address",
          "name": "receiver",
          "type": "address"
        },
        {
          "internalType": "uint256",
          "name": "royaltyAmount",
          "type": "uint256"
        }
      ],
      "stateMutability": "view",
      "type": "function"
    },
    {
      "inputs": [],
      "name": "royaltyRecipient",
      "outputs": [
        {
          "internalType": "address",
          "name": "",
          "type": "address"
        }
      ],
      "stateMutability": "view",
      "type": "function"
    },
    {
      "inputs": [
        {
          "internalType": "address",
          "name": "from",
          "type": "address"
        },
        {
          "internalType": "address",
          "name": "to",
          "type": "address"
        },
        {
          "internalType": "uint256",
          "name": "tokenId",
          "type": "uint256"
        }
      ],
      "name": "safeTransferFrom",
      "outputs": [],
      "stateMutability": "nonpayable",
      "type": "function"
    },
    {
      "inputs": [
        {
          "internalType": "address",
          "name": "from",
          "type": "address"
        },
        {
          "internalType": "address",
          "name": "to",
          "type": "address"
        },
        {
          "internalType": "uint256",
          "name": "tokenId",
          "type": "uint256"
        },
        {
          "internalType": "bytes",
          "name": "data",
          "type": "bytes"
        }
      ],
      "name": "safeTransferFrom",
      "outputs": [],
      "stateMutability": "nonpayable",
      "type": "function"
    },
    {
      "inputs": [
        {
          "internalType": "address",
          "name": "operator",
          "type": "address"
        },
        {
          "internalType": "bool",
          "name": "approved",
          "type": "bool"
        }
      ],
      "name": "setApprovalForAll",
      "outputs": [],
      "stateMutability": "nonpayable",
      "type": "function"
    },
    {
      "inputs": [
        {
          "internalType": "address",
          "name": "minterAddress_",
          "type": "address"
        }
      ],
      "name": "setMinterAddress",
      "outputs": [],
      "stateMutability": "nonpayable",
      "type": "function"
    },
    {
      "inputs": [
        {
          "internalType": "address",
          "name": "questFactory_",
          "type": "address"
        }
      ],
      "name": "setQuestFactory",
      "outputs": [],
      "stateMutability": "nonpayable",
      "type": "function"
    },
    {
      "inputs": [
        {
          "internalType": "address",
          "name": "receiptRenderer_",
          "type": "address"
        }
      ],
      "name": "setReceiptRenderer",
      "outputs": [],
      "stateMutability": "nonpayable",
      "type": "function"
    },
    {
      "inputs": [
        {
          "internalType": "uint256",
          "name": "royaltyFee_",
          "type": "uint256"
        }
      ],
      "name": "setRoyaltyFee",
      "outputs": [],
      "stateMutability": "nonpayable",
      "type": "function"
    },
    {
      "inputs": [
        {
          "internalType": "address",
          "name": "royaltyRecipient_",
          "type": "address"
        }
      ],
      "name": "setRoyaltyRecipient",
      "outputs": [],
      "stateMutability": "nonpayable",
      "type": "function"
    },
    {
      "inputs": [
        {
          "internalType": "bytes4",
          "name": "interfaceId_",
          "type": "bytes4"
        }
      ],
      "name": "supportsInterface",
      "outputs": [
        {
          "internalType": "bool",
          "name": "",
          "type": "bool"
        }
      ],
      "stateMutability": "view",
      "type": "function"
    },
    {
      "inputs": [],
      "name": "symbol",
      "outputs": [
        {
          "internalType": "string",
          "name": "",
          "type": "string"
        }
      ],
      "stateMutability": "view",
      "type": "function"
    },
    {
      "inputs": [
        {
          "internalType": "uint256",
          "name": "",
          "type": "uint256"
        }
      ],
      "name": "timestampForTokenId",
      "outputs": [
        {
          "internalType": "uint256",
          "name": "",
          "type": "uint256"
        }
      ],
      "stateMutability": "view",
      "type": "function"
    },
    {
      "inputs": [
        {
          "internalType": "uint256",
          "name": "index",
          "type": "uint256"
        }
      ],
      "name": "tokenByIndex",
      "outputs": [
        {
          "internalType": "uint256",
          "name": "",
          "type": "uint256"
        }
      ],
      "stateMutability": "view",
      "type": "function"
    },
    {
      "inputs": [
        {
          "internalType": "address",
          "name": "owner",
          "type": "address"
        },
        {
          "internalType": "uint256",
          "name": "index",
          "type": "uint256"
        }
      ],
      "name": "tokenOfOwnerByIndex",
      "outputs": [
        {
          "internalType": "uint256",
          "name": "",
          "type": "uint256"
        }
      ],
      "stateMutability": "view",
      "type": "function"
    },
    {
      "inputs": [
        {
          "internalType": "uint256",
          "name": "tokenId_",
          "type": "uint256"
        }
      ],
      "name": "tokenURI",
      "outputs": [
        {
          "internalType": "string",
          "name": "",
          "type": "string"
        }
      ],
      "stateMutability": "view",
      "type": "function"
    },
    {
      "inputs": [],
      "name": "totalSupply",
      "outputs": [
        {
          "internalType": "uint256",
          "name": "",
          "type": "uint256"
        }
      ],
      "stateMutability": "view",
      "type": "function"
    },
    {
      "inputs": [
        {
          "internalType": "address",
          "name": "from",
          "type": "address"
        },
        {
          "internalType": "address",
          "name": "to",
          "type": "address"
        },
        {
          "internalType": "uint256",
          "name": "tokenId",
          "type": "uint256"
        }
      ],
      "name": "transferFrom",
      "outputs": [],
      "stateMutability": "nonpayable",
      "type": "function"
    },
    {
      "inputs": [
        {
          "internalType": "address",
          "name": "newOwner",
          "type": "address"
        }
      ],
      "name": "transferOwnership",
      "outputs": [],
      "stateMutability": "nonpayable",
      "type": "function"
    }
  ],
  "bytecode": {
    "object": "0x60806040523480156200001157600080fd5b506200001c62000022565b620000e4565b600054610100900460ff16156200008f5760405162461bcd60e51b815260206004820152602760248201527f496e697469616c697a61626c653a20636f6e747261637420697320696e697469604482015266616c697a696e6760c81b606482015260840160405180910390fd5b60005460ff9081161015620000e2576000805460ff191660ff9081179091556040519081527f7f26b83ff96e1f2b6a682f133852f6798a09c465da95921460cefb38474024989060200160405180910390a15b565b612a9380620000f46000396000f3fe608060405234801561001057600080fd5b506004361061021c5760003560e01c80634f6ccce711610125578063a3106b95116100ad578063b8d1ebfd1161007c578063b8d1ebfd146104a7578063c87b56dd146104c7578063d0def521146104da578063e985e9c5146104ed578063f2fde38b1461052957600080fd5b8063a3106b9514610463578063a7866a8314610476578063b88d4fde1461048a578063b8997a971461049d57600080fd5b8063715018a6116100f4578063715018a61461041b57806377293cc3146104235780638da5cb5b1461043757806395d89b4114610448578063a22cb4651461045057600080fd5b80634f6ccce7146103cf578063530b97a4146103e25780636352211e146103f557806370a082311461040857600080fd5b806328cf1635116101a85780633c3091a1116101775780633c3091a11461036f5780633e4086e51461038257806341e42f301461039557806342842e0e146103a85780634c00de82146103bb57600080fd5b806328cf1635146102f55780632a55205a146103165780632f745c591461034857806334d722c91461035b57600080fd5b8063095ea7b3116101ef578063095ea7b31461029f57806318160ddd146102b45780631c9fd0c3146102bc57806323b872dd146102cf57806327125e2f146102e257600080fd5b8063010a38f51461022157806301ffc9a71461023c57806306fdde031461025f578063081812fc14610274575b600080fd5b61022961053c565b6040519081526020015b60405180910390f35b61024f61024a3660046120b6565b61054d565b6040519015158152602001610233565b610267610578565b604051610233919061212a565b61028761028236600461213d565b61060a565b6040516001600160a01b039091168152602001610233565b6102b26102ad36600461216b565b610631565b005b609954610229565b6102b26102ca366004612197565b61074b565b6102b26102dd3660046121b4565b610776565b6102676102f036600461213d565b6107a7565b61022961030336600461213d565b6101326020526000908152604090205481565b6103296103243660046121f5565b610842565b604080516001600160a01b039093168352602083019190915201610233565b61022961035636600461216b565b6108d2565b61013054610287906001600160a01b031681565b6102b261037d366004612197565b610968565b6102b261039036600461213d565b610993565b6102b26103a3366004612197565b6109cf565b6102b26103b63660046121b4565b6109fa565b61012f54610287906001600160a01b031681565b6102296103dd36600461213d565b610a15565b6102b26103f0366004612217565b610aa8565b61028761040336600461213d565b610c5b565b610229610416366004612197565b610cbb565b6102b2610d41565b61013354610287906001600160a01b031681565b60fb546001600160a01b0316610287565b610267610d55565b6102b261045e36600461228d565b610d64565b6102b2610471366004612197565b610d73565b61013454610287906001600160a01b031681565b6102b2610498366004612373565b610dc6565b6102296101315481565b6104ba6104b5366004612413565b610dfe565b604051610233919061245a565b6102676104d536600461213d565b610fc0565b6102b26104e836600461249e565b611371565b61024f6104fb3660046124ee565b6001600160a01b039182166000908152606a6020908152604080832093909416825291909152205460ff1690565b6102b2610537366004612197565b61140e565b600061054861012d5490565b905090565b60006001600160e01b0319821663152a902d60e11b1480610572575061057282611487565b92915050565b6060606580546105879061251c565b80601f01602080910402602001604051908101604052809291908181526020018280546105b39061251c565b80156106005780601f106105d557610100808354040283529160200191610600565b820191906000526020600020905b8154815290600101906020018083116105e357829003601f168201915b5050505050905090565b6000610615826114ac565b506000908152606960205260409020546001600160a01b031690565b600061063c82610c5b565b9050806001600160a01b0316836001600160a01b0316036106ae5760405162461bcd60e51b815260206004820152602160248201527f4552433732313a20617070726f76616c20746f2063757272656e74206f776e656044820152603960f91b60648201526084015b60405180910390fd5b336001600160a01b03821614806106ca57506106ca81336104fb565b61073c5760405162461bcd60e51b815260206004820152603d60248201527f4552433732313a20617070726f76652063616c6c6572206973206e6f7420746f60448201527f6b656e206f776e6572206f7220617070726f76656420666f7220616c6c00000060648201526084016106a5565b610746838361150b565b505050565b610753611579565b61013480546001600160a01b0319166001600160a01b0392909216919091179055565b61078033826115d3565b61079c5760405162461bcd60e51b81526004016106a590612556565b610746838383611652565b61012e60205260009081526040902080546107c19061251c565b80601f01602080910402602001604051908101604052809291908181526020018280546107ed9061251c565b801561083a5780601f1061080f5761010080835404028352916020019161083a565b820191906000526020600020905b81548152906001019060200180831161081d57829003601f168201915b505050505081565b60008281526067602052604081205481906001600160a01b031661089c5760405162461bcd60e51b81526020600482015260116024820152702737b732bc34b9ba32b73a103a37b5b2b760791b60448201526064016106a5565b600061271061013154856108b091906125b9565b6108ba91906125d0565b61012f546001600160a01b0316969095509350505050565b60006108dd83610cbb565b821061093f5760405162461bcd60e51b815260206004820152602b60248201527f455243373231456e756d657261626c653a206f776e657220696e646578206f7560448201526a74206f6620626f756e647360a81b60648201526084016106a5565b506001600160a01b03919091166000908152609760209081526040808320938352929052205490565b610970611579565b61013380546001600160a01b0319166001600160a01b0392909216919091179055565b61099b611579565b61013181905560405181907fc36422dcc77a5c93a5c48743078f8130c9fcc2a0ff893904ee62a3565688117c90600090a250565b6109d7611579565b61012f80546001600160a01b0319166001600160a01b0392909216919091179055565b61074683838360405180602001604052806000815250610dc6565b6000610a2060995490565b8210610a835760405162461bcd60e51b815260206004820152602c60248201527f455243373231456e756d657261626c653a20676c6f62616c20696e646578206f60448201526b7574206f6620626f756e647360a01b60648201526084016106a5565b60998281548110610a9657610a966125f2565b90600052602060002001549050919050565b600054610100900460ff1615808015610ac85750600054600160ff909116105b80610ae25750303b158015610ae2575060005460ff166001145b610b455760405162461bcd60e51b815260206004820152602e60248201527f496e697469616c697a61626c653a20636f6e747261637420697320616c72656160448201526d191e481a5b9a5d1a585b1a5e995960921b60648201526084016106a5565b6000805460ff191660011790558015610b68576000805461ff0019166101001790555b610bb660405180604001604052806011815260200170149858989a5d121bdb19549958d95a5c1d607a1b8152506040518060400160405280600381526020016229242960e91b8152506117c3565b610bbe6117f4565b610bc78261181b565b61012f80546001600160a01b038088166001600160a01b03199283161790925561013080548784169083161790556101318590556101338054928916929091169190911790558015610c53576000805461ff0019169055604051600181527f7f26b83ff96e1f2b6a682f133852f6798a09c465da95921460cefb38474024989060200160405180910390a15b505050505050565b6000818152606760205260408120546001600160a01b0316806105725760405162461bcd60e51b8152602060048201526018602482015277115490cdcc8c4e881a5b9d985b1a59081d1bdad95b88125160421b60448201526064016106a5565b60006001600160a01b038216610d255760405162461bcd60e51b815260206004820152602960248201527f4552433732313a2061646472657373207a65726f206973206e6f7420612076616044820152683634b21037bbb732b960b91b60648201526084016106a5565b506001600160a01b031660009081526068602052604090205490565b610d49611579565b610d53600061184b565b565b6060606680546105879061251c565b610d6f33838361189d565b5050565b610d7b611579565b61013080546001600160a01b0319166001600160a01b0383169081179091556040517f09e32743122b4d02dc06c38a35ee1587a02854644d47574bb35a6ef75a22fa9890600090a250565b610dd033836115d3565b610dec5760405162461bcd60e51b81526004016106a590612556565b610df88484848461196b565b50505050565b60606000610e0b83610cbb565b905060008167ffffffffffffffff811115610e2857610e286122c6565b604051908082528060200260200182016040528015610e51578160200160208202803683370190505b5085516020870120909150600090815b84811015610ee5576000610e7588836108d2565b90508261012e6000838152602001908152602001600020604051610e999190612608565b604051809103902003610ed25780858381518110610eb957610eb96125f2565b602090810291909101015283610ece8161267e565b9450505b5080610edd8161267e565b915050610e61565b5060008267ffffffffffffffff811115610f0157610f016122c6565b604051908082528060200260200182016040528015610f2a578160200160208202803683370190505b5090506000805b86811015610fb2576000868281518110610f4d57610f4d6125f2565b60200260200101511115610fa057858181518110610f6d57610f6d6125f2565b6020026020010151838381518110610f8757610f876125f2565b602090810291909101015281610f9c8161267e565b9250505b80610faa8161267e565b915050610f31565b509098975050505050505050565b6000818152606760205260409020546060906001600160a01b03166110415760405162461bcd60e51b815260206004820152603160248201527f45524337323155524953746f726167653a2055524920717565727920666f72206044820152703737b732bc34b9ba32b73a103a37b5b2b760791b60648201526084016106a5565b610134546001600160a01b03166110915760405162461bcd60e51b8152602060048201526014602482015273145d595cdd119858dd1bdc9e481b9bdd081cd95d60621b60448201526064016106a5565b600082815261012e6020526040812080546110ab9061251c565b80601f01602080910402602001604051908101604052809291908181526020018280546110d79061251c565b80156111245780601f106110f957610100808354040283529160200191611124565b820191906000526020600020905b81548152906001019060200180831161110757829003601f168201915b505061013454604051633b1186b160e21b81529495506000948594506001600160a01b03909116925063ec461ac4915061116290869060040161212a565b606060405180830381865afa15801561117f573d6000803e3d6000fd5b505050506040513d601f19601f820116820180604052508101906111a39190612697565b50604051639e34070f60e01b815260048101889052919350915082906000906001600160a01b03831690639e34070f90602401602060405180830381865afa1580156111f3573d6000803e3d6000fd5b505050506040513d601f19601f8201168201806040525081019061121791906126ce565b90506000826001600160a01b03166309a69f576040518163ffffffff1660e01b8152600401602060405180830381865afa158015611259573d6000803e3d6000fd5b505050506040513d601f19601f8201168201806040525081019061127d91906126eb565b90506000836001600160a01b03166369940d796040518163ffffffff1660e01b8152600401602060405180830381865afa1580156112bf573d6000803e3d6000fd5b505050506040513d601f19601f820116820180604052508101906112e39190612704565b6101335460405163ac17338360e01b81529192506001600160a01b03169063ac1733839061131f908c908b908a90899089908990600401612721565b600060405180830381865afa15801561133c573d6000803e3d6000fd5b505050506040513d6000823e601f3d908101601f191682016040526113649190810190612768565b9998505050505050505050565b610130546001600160a01b031633146113ba5760405162461bcd60e51b815260206004820152600b60248201526a27b7363c9036b4b73a32b960a91b60448201526064016106a5565b6113c961012d80546001019055565b60006113d561012d5490565b600081815261012e602052604090209091506113f18382612825565b50600081815261013260205260409020429055610746838261199e565b611416611579565b6001600160a01b03811661147b5760405162461bcd60e51b815260206004820152602660248201527f4f776e61626c653a206e6577206f776e657220697320746865207a65726f206160448201526564647265737360d01b60648201526084016106a5565b6114848161184b565b50565b60006001600160e01b0319821663780e9d6360e01b14806105725750610572826119b8565b6000818152606760205260409020546001600160a01b03166114845760405162461bcd60e51b8152602060048201526018602482015277115490cdcc8c4e881a5b9d985b1a59081d1bdad95b88125160421b60448201526064016106a5565b600081815260696020526040902080546001600160a01b0319166001600160a01b038416908117909155819061154082610c5b565b6001600160a01b03167f8c5be1e5ebec7d5bd14f71427d1e84f3dd0314c0f7b2291e5b200ac8c7c3b92560405160405180910390a45050565b60fb546001600160a01b03163314610d535760405162461bcd60e51b815260206004820181905260248201527f4f776e61626c653a2063616c6c6572206973206e6f7420746865206f776e657260448201526064016106a5565b6000806115df83610c5b565b9050806001600160a01b0316846001600160a01b0316148061162657506001600160a01b038082166000908152606a602090815260408083209388168352929052205460ff165b8061164a5750836001600160a01b031661163f8461060a565b6001600160a01b0316145b949350505050565b826001600160a01b031661166582610c5b565b6001600160a01b03161461168b5760405162461bcd60e51b81526004016106a5906128e5565b6001600160a01b0382166116ed5760405162461bcd60e51b8152602060048201526024808201527f4552433732313a207472616e7366657220746f20746865207a65726f206164646044820152637265737360e01b60648201526084016106a5565b6116fa8383836001611a08565b826001600160a01b031661170d82610c5b565b6001600160a01b0316146117335760405162461bcd60e51b81526004016106a5906128e5565b600081815260696020908152604080832080546001600160a01b03199081169091556001600160a01b0387811680865260688552838620805460001901905590871680865283862080546001019055868652606790945282852080549092168417909155905184937fddf252ad1be2c89b69c2b068fc378daa952ba7f163c4a11628f55a4df523b3ef91a4505050565b600054610100900460ff166117ea5760405162461bcd60e51b81526004016106a59061292a565b610d6f8282611a14565b600054610100900460ff16610d535760405162461bcd60e51b81526004016106a59061292a565b600054610100900460ff166118425760405162461bcd60e51b81526004016106a59061292a565b61148481611a54565b60fb80546001600160a01b038381166001600160a01b0319831681179093556040519116919082907f8be0079c531659141344cd1fd0a4f28419497f9722a3daafe3b4186f6b6457e090600090a35050565b816001600160a01b0316836001600160a01b0316036118fe5760405162461bcd60e51b815260206004820152601960248201527f4552433732313a20617070726f766520746f2063616c6c65720000000000000060448201526064016106a5565b6001600160a01b038381166000818152606a6020908152604080832094871680845294825291829020805460ff191686151590811790915591519182527f17307eab39ab6107e8899845ad3d59bd9653f200f220920489ca2b5937696c31910160405180910390a3505050565b611976848484611652565b61198284848484611a7b565b610df85760405162461bcd60e51b81526004016106a590612975565b610d6f828260405180602001604052806000815250611b7c565b60006001600160e01b031982166380ac58cd60e01b14806119e957506001600160e01b03198216635b5e139f60e01b145b8061057257506301ffc9a760e01b6001600160e01b0319831614610572565b610df884848484611baf565b600054610100900460ff16611a3b5760405162461bcd60e51b81526004016106a59061292a565b6065611a478382612825565b5060666107468282612825565b600054610100900460ff1661147b5760405162461bcd60e51b81526004016106a59061292a565b60006001600160a01b0384163b15611b7157604051630a85bd0160e11b81526001600160a01b0385169063150b7a0290611abf9033908990889088906004016129c7565b6020604051808303816000875af1925050508015611afa575060408051601f3d908101601f19168201909252611af791810190612a04565b60015b611b57573d808015611b28576040519150601f19603f3d011682016040523d82523d6000602084013e611b2d565b606091505b508051600003611b4f5760405162461bcd60e51b81526004016106a590612975565b805181602001fd5b6001600160e01b031916630a85bd0160e11b14905061164a565b506001949350505050565b611b868383611cef565b611b936000848484611a7b565b6107465760405162461bcd60e51b81526004016106a590612975565b611bbb84848484611e88565b6001811115611c2a5760405162461bcd60e51b815260206004820152603560248201527f455243373231456e756d657261626c653a20636f6e7365637574697665207472604482015274185b9cd9995c9cc81b9bdd081cdd5c1c1bdc9d1959605a1b60648201526084016106a5565b816001600160a01b038516611c8657611c8181609980546000838152609a60205260408120829055600182018355919091527f72a152ddfb8e864297c917af52ea6c1c68aead0fee1a62673fcc7e0c94979d000155565b611ca9565b836001600160a01b0316856001600160a01b031614611ca957611ca98582611f10565b6001600160a01b038416611cc557611cc081611fad565b611ce8565b846001600160a01b0316846001600160a01b031614611ce857611ce8848261205c565b5050505050565b6001600160a01b038216611d455760405162461bcd60e51b815260206004820181905260248201527f4552433732313a206d696e7420746f20746865207a65726f206164647265737360448201526064016106a5565b6000818152606760205260409020546001600160a01b031615611daa5760405162461bcd60e51b815260206004820152601c60248201527f4552433732313a20746f6b656e20616c7265616479206d696e7465640000000060448201526064016106a5565b611db8600083836001611a08565b6000818152606760205260409020546001600160a01b031615611e1d5760405162461bcd60e51b815260206004820152601c60248201527f4552433732313a20746f6b656e20616c7265616479206d696e7465640000000060448201526064016106a5565b6001600160a01b038216600081815260686020908152604080832080546001019055848352606790915280822080546001600160a01b0319168417905551839291907fddf252ad1be2c89b69c2b068fc378daa952ba7f163c4a11628f55a4df523b3ef908290a45050565b6001811115610df8576001600160a01b03841615611ece576001600160a01b03841660009081526068602052604081208054839290611ec8908490612a21565b90915550505b6001600160a01b03831615610df8576001600160a01b03831660009081526068602052604081208054839290611f05908490612a34565b909155505050505050565b60006001611f1d84610cbb565b611f279190612a21565b600083815260986020526040902054909150808214611f7a576001600160a01b03841660009081526097602090815260408083208584528252808320548484528184208190558352609890915290208190555b5060009182526098602090815260408084208490556001600160a01b039094168352609781528383209183525290812055565b609954600090611fbf90600190612a21565b6000838152609a602052604081205460998054939450909284908110611fe757611fe76125f2565b906000526020600020015490508060998381548110612008576120086125f2565b6000918252602080832090910192909255828152609a9091526040808220849055858252812055609980548061204057612040612a47565b6001900381819060005260206000200160009055905550505050565b600061206783610cbb565b6001600160a01b039093166000908152609760209081526040808320868452825280832085905593825260989052919091209190915550565b6001600160e01b03198116811461148457600080fd5b6000602082840312156120c857600080fd5b81356120d3816120a0565b9392505050565b60005b838110156120f55781810151838201526020016120dd565b50506000910152565b600081518084526121168160208601602086016120da565b601f01601f19169290920160200192915050565b6020815260006120d360208301846120fe565b60006020828403121561214f57600080fd5b5035919050565b6001600160a01b038116811461148457600080fd5b6000806040838503121561217e57600080fd5b823561218981612156565b946020939093013593505050565b6000602082840312156121a957600080fd5b81356120d381612156565b6000806000606084860312156121c957600080fd5b83356121d481612156565b925060208401356121e481612156565b929592945050506040919091013590565b6000806040838503121561220857600080fd5b50508035926020909101359150565b600080600080600060a0868803121561222f57600080fd5b853561223a81612156565b9450602086013561224a81612156565b9350604086013561225a81612156565b925060608601359150608086013561227181612156565b809150509295509295909350565b801515811461148457600080fd5b600080604083850312156122a057600080fd5b82356122ab81612156565b915060208301356122bb8161227f565b809150509250929050565b634e487b7160e01b600052604160045260246000fd5b604051601f8201601f1916810167ffffffffffffffff81118282101715612305576123056122c6565b604052919050565b600067ffffffffffffffff821115612327576123276122c6565b50601f01601f191660200190565b60006123486123438461230d565b6122dc565b905082815283838301111561235c57600080fd5b828260208301376000602084830101529392505050565b6000806000806080858703121561238957600080fd5b843561239481612156565b935060208501356123a481612156565b925060408501359150606085013567ffffffffffffffff8111156123c757600080fd5b8501601f810187136123d857600080fd5b6123e787823560208401612335565b91505092959194509250565b600082601f83011261240457600080fd5b6120d383833560208501612335565b6000806040838503121561242657600080fd5b823567ffffffffffffffff81111561243d57600080fd5b612449858286016123f3565b92505060208301356122bb81612156565b6020808252825182820181905260009190848201906040850190845b8181101561249257835183529284019291840191600101612476565b50909695505050505050565b600080604083850312156124b157600080fd5b82356124bc81612156565b9150602083013567ffffffffffffffff8111156124d857600080fd5b6124e4858286016123f3565b9150509250929050565b6000806040838503121561250157600080fd5b823561250c81612156565b915060208301356122bb81612156565b600181811c9082168061253057607f821691505b60208210810361255057634e487b7160e01b600052602260045260246000fd5b50919050565b6020808252602d908201527f4552433732313a2063616c6c6572206973206e6f7420746f6b656e206f776e6560408201526c1c881bdc88185c1c1c9bdd9959609a1b606082015260800190565b634e487b7160e01b600052601160045260246000fd5b8082028115828204841417610572576105726125a3565b6000826125ed57634e487b7160e01b600052601260045260246000fd5b500490565b634e487b7160e01b600052603260045260246000fd5b60008083546126168161251c565b6001828116801561262e576001811461264357612672565b60ff1984168752821515830287019450612672565b8760005260208060002060005b858110156126695781548a820152908401908201612650565b50505082870194505b50929695505050505050565b600060018201612690576126906125a3565b5060010190565b6000806000606084860312156126ac57600080fd5b83516126b781612156565b602085015160409095015190969495509392505050565b6000602082840312156126e057600080fd5b81516120d38161227f565b6000602082840312156126fd57600080fd5b5051919050565b60006020828403121561271657600080fd5b81516120d381612156565b86815260c06020820152600061273a60c08301886120fe565b604083019690965250921515606084015260808301919091526001600160a01b031660a09091015292915050565b60006020828403121561277a57600080fd5b815167ffffffffffffffff81111561279157600080fd5b8201601f810184136127a257600080fd5b80516127b06123438261230d565b8181528560208385010111156127c557600080fd5b6127d68260208301602086016120da565b95945050505050565b601f82111561074657600081815260208120601f850160051c810160208610156128065750805b601f850160051c820191505b81811015610c5357828155600101612812565b815167ffffffffffffffff81111561283f5761283f6122c6565b6128538161284d845461251c565b846127df565b602080601f83116001811461288857600084156128705750858301515b600019600386901b1c1916600185901b178555610c53565b600085815260208120601f198616915b828110156128b757888601518255948401946001909101908401612898565b50858210156128d55787850151600019600388901b60f8161c191681555b5050505050600190811b01905550565b60208082526025908201527f4552433732313a207472616e736665722066726f6d20696e636f72726563742060408201526437bbb732b960d91b606082015260800190565b6020808252602b908201527f496e697469616c697a61626c653a20636f6e7472616374206973206e6f74206960408201526a6e697469616c697a696e6760a81b606082015260800190565b60208082526032908201527f4552433732313a207472616e7366657220746f206e6f6e20455243373231526560408201527131b2b4bb32b91034b6b83632b6b2b73a32b960711b606082015260800190565b6001600160a01b03858116825284166020820152604081018390526080606082018190526000906129fa908301846120fe565b9695505050505050565b600060208284031215612a1657600080fd5b81516120d3816120a0565b81810381811115610572576105726125a3565b80820180821115610572576105726125a3565b634e487b7160e01b600052603160045260246000fdfea2646970667358221220de1395e6a0bcdd8c245971038d31e6845af69614982b3a2e315d7b3de85acc2264736f6c63430008130033",
    "linkReferences": {}
  },
  "methodIdentifiers": {
    "QuestFactoryContract()": "a7866a83",
    "ReceiptRendererContract()": "77293cc3",
    "approve(address,uint256)": "095ea7b3",
    "balanceOf(address)": "70a08231",
    "getApproved(uint256)": "081812fc",
    "getOwnedTokenIdsOfQuest(string,address)": "b8d1ebfd",
    "getTokenId()": "010a38f5",
    "initialize(address,address,address,uint256,address)": "530b97a4",
    "isApprovedForAll(address,address)": "e985e9c5",
    "mint(address,string)": "d0def521",
    "minterAddress()": "34d722c9",
    "name()": "06fdde03",
    "owner()": "8da5cb5b",
    "ownerOf(uint256)": "6352211e",
    "questIdForTokenId(uint256)": "27125e2f",
    "renounceOwnership()": "715018a6",
    "royaltyFee()": "b8997a97",
    "royaltyInfo(uint256,uint256)": "2a55205a",
    "royaltyRecipient()": "4c00de82",
    "safeTransferFrom(address,address,uint256)": "42842e0e",
    "safeTransferFrom(address,address,uint256,bytes)": "b88d4fde",
    "setApprovalForAll(address,bool)": "a22cb465",
    "setMinterAddress(address)": "a3106b95",
    "setQuestFactory(address)": "1c9fd0c3",
    "setReceiptRenderer(address)": "3c3091a1",
    "setRoyaltyFee(uint256)": "3e4086e5",
    "setRoyaltyRecipient(address)": "41e42f30",
    "supportsInterface(bytes4)": "01ffc9a7",
    "symbol()": "95d89b41",
    "timestampForTokenId(uint256)": "28cf1635",
    "tokenByIndex(uint256)": "4f6ccce7",
    "tokenOfOwnerByIndex(address,uint256)": "2f745c59",
    "tokenURI(uint256)": "c87b56dd",
    "totalSupply()": "18160ddd",
    "transferFrom(address,address,uint256)": "23b872dd",
    "transferOwnership(address)": "f2fde38b"
  },
  "id": 5
}