{
  "address": "0x20C22cDB1759c13C663deef3ee9b7A66BeFcc855",
  "abi": [
    {
      "inputs": [],
      "stateMutability": "nonpayable",
      "type": "constructor"
    },
    {
      "inputs": [],
      "name": "AddressAlreadyMinted",
      "type": "error"
    },
    {
      "inputs": [],
      "name": "AddressNotSigned",
      "type": "error"
    },
    {
      "inputs": [],
      "name": "AddressZeroNotAllowed",
      "type": "error"
    },
    {
      "inputs": [],
      "name": "Erc20QuestAddressNotSet",
      "type": "error"
    },
    {
      "inputs": [],
      "name": "InvalidHash",
      "type": "error"
    },
    {
      "inputs": [],
      "name": "OnlyOwnerCanCreate1155Quest",
      "type": "error"
    },
    {
      "inputs": [],
      "name": "OverMaxAllowedToMint",
      "type": "error"
    },
    {
      "inputs": [],
      "name": "QuestEnded",
      "type": "error"
    },
    {
      "inputs": [],
      "name": "QuestFeeTooHigh",
      "type": "error"
    },
    {
      "inputs": [],
      "name": "QuestIdUsed",
      "type": "error"
    },
    {
      "inputs": [],
      "name": "QuestNotQueued",
      "type": "error"
    },
    {
      "inputs": [],
      "name": "QuestNotStarted",
      "type": "error"
    },
    {
      "inputs": [],
      "name": "QuestTypeInvalid",
      "type": "error"
    },
    {
      "inputs": [],
      "name": "RewardNotAllowed",
      "type": "error"
    },
    {
      "anonymous": false,
      "inputs": [
        {
          "indexed": true,
          "internalType": "address",
          "name": "recipient",
          "type": "address"
        },
        {
          "indexed": false,
          "internalType": "uint256",
          "name": "amount",
          "type": "uint256"
        }
      ],
      "name": "ExtraMintFeeReturned",
      "type": "event"
    },
    {
      "anonymous": false,
      "inputs": [
        {
          "indexed": false,
          "internalType": "uint8",
          "name": "version",
          "type": "uint8"
        }
      ],
      "name": "Initialized",
      "type": "event"
    },
    {
      "anonymous": false,
      "inputs": [
        {
          "indexed": false,
          "internalType": "uint256",
          "name": "percent",
          "type": "uint256"
        }
      ],
      "name": "MintFeeSet",
      "type": "event"
    },
    {
      "anonymous": false,
      "inputs": [
        {
          "indexed": true,
          "internalType": "address",
          "name": "previousOwner",
          "type": "address"
        },
        {
          "indexed": true,
          "internalType": "address",
          "name": "newOwner",
          "type": "address"
        }
      ],
      "name": "OwnershipTransferred",
      "type": "event"
    },
    {
      "anonymous": false,
      "inputs": [
        {
          "indexed": true,
          "internalType": "address",
          "name": "creator",
          "type": "address"
        },
        {
          "indexed": true,
          "internalType": "address",
          "name": "contractAddress",
          "type": "address"
        },
        {
          "indexed": false,
          "internalType": "string",
          "name": "questId",
          "type": "string"
        },
        {
          "indexed": false,
          "internalType": "string",
          "name": "contractType",
          "type": "string"
        },
        {
          "indexed": false,
          "internalType": "address",
          "name": "rewardTokenAddress",
          "type": "address"
        },
        {
          "indexed": false,
          "internalType": "uint256",
          "name": "endTime",
          "type": "uint256"
        },
        {
          "indexed": false,
          "internalType": "uint256",
          "name": "startTime",
          "type": "uint256"
        },
        {
          "indexed": false,
          "internalType": "uint256",
          "name": "totalParticipants",
          "type": "uint256"
        },
        {
          "indexed": false,
          "internalType": "uint256",
          "name": "rewardAmountOrTokenId",
          "type": "uint256"
        }
      ],
      "name": "QuestCreated",
      "type": "event"
    },
    {
      "anonymous": false,
      "inputs": [
        {
          "indexed": true,
          "internalType": "address",
          "name": "recipient",
          "type": "address"
        },
        {
          "indexed": true,
          "internalType": "address",
          "name": "questAddress",
          "type": "address"
        },
        {
          "indexed": true,
          "internalType": "uint256",
          "name": "tokenId",
          "type": "uint256"
        },
        {
          "indexed": false,
          "internalType": "string",
          "name": "questId",
          "type": "string"
        }
      ],
      "name": "ReceiptMinted",
      "type": "event"
    },
    {
      "anonymous": false,
      "inputs": [
        {
          "indexed": true,
          "internalType": "bytes32",
          "name": "role",
          "type": "bytes32"
        },
        {
          "indexed": true,
          "internalType": "bytes32",
          "name": "previousAdminRole",
          "type": "bytes32"
        },
        {
          "indexed": true,
          "internalType": "bytes32",
          "name": "newAdminRole",
          "type": "bytes32"
        }
      ],
      "name": "RoleAdminChanged",
      "type": "event"
    },
    {
      "anonymous": false,
      "inputs": [
        {
          "indexed": true,
          "internalType": "bytes32",
          "name": "role",
          "type": "bytes32"
        },
        {
          "indexed": true,
          "internalType": "address",
          "name": "account",
          "type": "address"
        },
        {
          "indexed": true,
          "internalType": "address",
          "name": "sender",
          "type": "address"
        }
      ],
      "name": "RoleGranted",
      "type": "event"
    },
    {
      "anonymous": false,
      "inputs": [
        {
          "indexed": true,
          "internalType": "bytes32",
          "name": "role",
          "type": "bytes32"
        },
        {
          "indexed": true,
          "internalType": "address",
          "name": "account",
          "type": "address"
        },
        {
          "indexed": true,
          "internalType": "address",
          "name": "sender",
          "type": "address"
        }
      ],
      "name": "RoleRevoked",
      "type": "event"
    },
    {
      "inputs": [],
      "name": "CREATE_QUEST_ROLE",
      "outputs": [
        {
          "internalType": "bytes32",
          "name": "",
          "type": "bytes32"
        }
      ],
      "stateMutability": "view",
      "type": "function"
    },
    {
      "inputs": [],
      "name": "DEFAULT_ADMIN_ROLE",
      "outputs": [
        {
          "internalType": "bytes32",
          "name": "",
          "type": "bytes32"
        }
      ],
      "stateMutability": "view",
      "type": "function"
    },
    {
      "inputs": [],
      "name": "claimSignerAddress",
      "outputs": [
        {
          "internalType": "address",
          "name": "",
          "type": "address"
        }
      ],
      "stateMutability": "view",
      "type": "function"
    },
    {
      "inputs": [
        {
          "internalType": "address",
          "name": "rewardTokenAddress_",
          "type": "address"
        },
        {
          "internalType": "uint256",
          "name": "endTime_",
          "type": "uint256"
        },
        {
          "internalType": "uint256",
          "name": "startTime_",
          "type": "uint256"
        },
        {
          "internalType": "uint256",
          "name": "totalParticipants_",
          "type": "uint256"
        },
        {
          "internalType": "uint256",
          "name": "rewardAmount_",
          "type": "uint256"
        },
        {
          "internalType": "string",
          "name": "contractType_",
          "type": "string"
        },
        {
          "internalType": "string",
          "name": "questId_",
          "type": "string"
        }
      ],
      "name": "createQuest",
      "outputs": [
        {
          "internalType": "address",
          "name": "",
          "type": "address"
        }
      ],
      "stateMutability": "nonpayable",
      "type": "function"
    },
    {
      "inputs": [
        {
          "internalType": "address",
          "name": "rewardTokenAddress_",
          "type": "address"
        },
        {
          "internalType": "uint256",
          "name": "endTime_",
          "type": "uint256"
        },
        {
          "internalType": "uint256",
          "name": "startTime_",
          "type": "uint256"
        },
        {
          "internalType": "uint256",
          "name": "totalParticipants_",
          "type": "uint256"
        },
        {
          "internalType": "uint256",
          "name": "rewardAmount_",
          "type": "uint256"
        },
        {
          "internalType": "string",
          "name": "questId_",
          "type": "string"
        },
        {
          "internalType": "string",
          "name": "jsonSpecCID",
          "type": "string"
        },
        {
          "internalType": "uint256",
          "name": "discountTokenId_",
          "type": "uint256"
        }
      ],
      "name": "createQuestAndQueue",
      "outputs": [
        {
          "internalType": "address",
          "name": "",
          "type": "address"
        }
      ],
      "stateMutability": "nonpayable",
      "type": "function"
    },
    {
      "inputs": [],
      "name": "erc1155QuestAddress",
      "outputs": [
        {
          "internalType": "address",
          "name": "",
          "type": "address"
        }
      ],
      "stateMutability": "view",
      "type": "function"
    },
    {
      "inputs": [],
      "name": "erc20QuestAddress",
      "outputs": [
        {
          "internalType": "address",
          "name": "",
          "type": "address"
        }
      ],
      "stateMutability": "view",
      "type": "function"
    },
    {
      "inputs": [
        {
          "internalType": "string",
          "name": "questId_",
          "type": "string"
        },
        {
          "internalType": "address",
          "name": "address_",
          "type": "address"
        }
      ],
      "name": "getAddressMinted",
      "outputs": [
        {
          "internalType": "bool",
          "name": "",
          "type": "bool"
        }
      ],
      "stateMutability": "view",
      "type": "function"
    },
    {
      "inputs": [],
      "name": "getMintFeeRecipient",
      "outputs": [
        {
          "internalType": "address",
          "name": "",
          "type": "address"
        }
      ],
      "stateMutability": "view",
      "type": "function"
    },
    {
      "inputs": [
        {
          "internalType": "string",
          "name": "questId_",
          "type": "string"
        }
      ],
      "name": "getNumberMinted",
      "outputs": [
        {
          "internalType": "uint256",
          "name": "",
          "type": "uint256"
        }
      ],
      "stateMutability": "view",
      "type": "function"
    },
    {
      "inputs": [
        {
          "internalType": "bytes32",
          "name": "role",
          "type": "bytes32"
        }
      ],
      "name": "getRoleAdmin",
      "outputs": [
        {
          "internalType": "bytes32",
          "name": "",
          "type": "bytes32"
        }
      ],
      "stateMutability": "view",
      "type": "function"
    },
    {
      "inputs": [
        {
          "internalType": "bytes32",
          "name": "role",
          "type": "bytes32"
        },
        {
          "internalType": "address",
          "name": "account",
          "type": "address"
        }
      ],
      "name": "grantRole",
      "outputs": [],
      "stateMutability": "nonpayable",
      "type": "function"
    },
    {
      "inputs": [
        {
          "internalType": "bytes32",
          "name": "role",
          "type": "bytes32"
        },
        {
          "internalType": "address",
          "name": "account",
          "type": "address"
        }
      ],
      "name": "hasRole",
      "outputs": [
        {
          "internalType": "bool",
          "name": "",
          "type": "bool"
        }
      ],
      "stateMutability": "view",
      "type": "function"
    },
    {
      "inputs": [
        {
          "internalType": "address",
          "name": "claimSignerAddress_",
          "type": "address"
        },
        {
          "internalType": "address",
          "name": "rabbitHoleReceiptContract_",
          "type": "address"
        },
        {
          "internalType": "address",
          "name": "protocolFeeRecipient_",
          "type": "address"
        },
        {
          "internalType": "address",
          "name": "erc20QuestAddress_",
          "type": "address"
        },
        {
          "internalType": "address",
          "name": "ownerAddress_",
          "type": "address"
        },
        {
          "internalType": "address",
          "name": "questTerminalKeyAddress_",
          "type": "address"
        }
      ],
      "name": "initialize",
      "outputs": [],
      "stateMutability": "nonpayable",
      "type": "function"
    },
    {
      "inputs": [],
      "name": "mintFee",
      "outputs": [
        {
          "internalType": "uint256",
          "name": "",
          "type": "uint256"
        }
      ],
      "stateMutability": "view",
      "type": "function"
    },
    {
      "inputs": [],
      "name": "mintFeeRecipient",
      "outputs": [
        {
          "internalType": "address",
          "name": "",
          "type": "address"
        }
      ],
      "stateMutability": "view",
      "type": "function"
    },
    {
      "inputs": [
        {
          "internalType": "string",
          "name": "questId_",
          "type": "string"
        },
        {
          "internalType": "bytes32",
          "name": "hash_",
          "type": "bytes32"
        },
        {
          "internalType": "bytes",
          "name": "signature_",
          "type": "bytes"
        }
      ],
      "name": "mintReceipt",
      "outputs": [],
      "stateMutability": "payable",
      "type": "function"
    },
    {
      "inputs": [],
      "name": "owner",
      "outputs": [
        {
          "internalType": "address",
          "name": "",
          "type": "address"
        }
      ],
      "stateMutability": "view",
      "type": "function"
    },
    {
      "inputs": [],
      "name": "protocolFeeRecipient",
      "outputs": [
        {
          "internalType": "address",
          "name": "",
          "type": "address"
        }
      ],
      "stateMutability": "view",
      "type": "function"
    },
    {
      "inputs": [],
      "name": "questFee",
      "outputs": [
        {
          "internalType": "uint16",
          "name": "",
          "type": "uint16"
        }
      ],
      "stateMutability": "view",
      "type": "function"
    },
    {
      "inputs": [
        {
          "internalType": "string",
          "name": "questId_",
          "type": "string"
        }
      ],
      "name": "questInfo",
      "outputs": [
        {
          "internalType": "address",
          "name": "",
          "type": "address"
        },
        {
          "internalType": "uint256",
          "name": "",
          "type": "uint256"
        },
        {
          "internalType": "uint256",
          "name": "",
          "type": "uint256"
        }
      ],
      "stateMutability": "view",
      "type": "function"
    },
    {
      "inputs": [
        {
          "internalType": "string",
          "name": "",
          "type": "string"
        }
      ],
      "name": "quests",
      "outputs": [
        {
          "internalType": "address",
          "name": "questAddress",
          "type": "address"
        },
        {
          "internalType": "uint256",
          "name": "totalParticipants",
          "type": "uint256"
        },
        {
          "internalType": "uint256",
          "name": "numberMinted",
          "type": "uint256"
        }
      ],
      "stateMutability": "view",
      "type": "function"
    },
    {
      "inputs": [],
      "name": "rabbitHoleReceiptContract",
      "outputs": [
        {
          "internalType": "contract RabbitHoleReceipt",
          "name": "",
          "type": "address"
        }
      ],
      "stateMutability": "view",
      "type": "function"
    },
    {
      "inputs": [],
      "name": "rabbitHoleTicketsContract",
      "outputs": [
        {
          "internalType": "address",
          "name": "",
          "type": "address"
        }
      ],
      "stateMutability": "view",
      "type": "function"
    },
    {
      "inputs": [
        {
          "internalType": "bytes32",
          "name": "hash_",
          "type": "bytes32"
        },
        {
          "internalType": "bytes",
          "name": "signature_",
          "type": "bytes"
        }
      ],
      "name": "recoverSigner",
      "outputs": [
        {
          "internalType": "address",
          "name": "",
          "type": "address"
        }
      ],
      "stateMutability": "pure",
      "type": "function"
    },
    {
      "inputs": [],
      "name": "renounceOwnership",
      "outputs": [],
      "stateMutability": "nonpayable",
      "type": "function"
    },
    {
      "inputs": [
        {
          "internalType": "bytes32",
          "name": "role",
          "type": "bytes32"
        },
        {
          "internalType": "address",
          "name": "account",
          "type": "address"
        }
      ],
      "name": "renounceRole",
      "outputs": [],
      "stateMutability": "nonpayable",
      "type": "function"
    },
    {
      "inputs": [
        {
          "internalType": "bytes32",
          "name": "role",
          "type": "bytes32"
        },
        {
          "internalType": "address",
          "name": "account",
          "type": "address"
        }
      ],
      "name": "revokeRole",
      "outputs": [],
      "stateMutability": "nonpayable",
      "type": "function"
    },
    {
      "inputs": [
        {
          "internalType": "address",
          "name": "",
          "type": "address"
        }
      ],
      "name": "rewardAllowlist",
      "outputs": [
        {
          "internalType": "bool",
          "name": "",
          "type": "bool"
        }
      ],
      "stateMutability": "view",
      "type": "function"
    },
    {
      "inputs": [
        {
          "internalType": "address",
          "name": "claimSignerAddress_",
          "type": "address"
        }
      ],
      "name": "setClaimSignerAddress",
      "outputs": [],
      "stateMutability": "nonpayable",
      "type": "function"
    },
    {
      "inputs": [
        {
          "internalType": "address",
          "name": "erc20QuestAddress_",
          "type": "address"
        }
      ],
      "name": "setErc20QuestAddress",
      "outputs": [],
      "stateMutability": "nonpayable",
      "type": "function"
    },
    {
      "inputs": [
        {
          "internalType": "uint256",
          "name": "mintFee_",
          "type": "uint256"
        }
      ],
      "name": "setMintFee",
      "outputs": [],
      "stateMutability": "nonpayable",
      "type": "function"
    },
    {
      "inputs": [
        {
          "internalType": "address",
          "name": "mintFeeRecipient_",
          "type": "address"
        }
      ],
      "name": "setMintFeeRecipient",
      "outputs": [],
      "stateMutability": "nonpayable",
      "type": "function"
    },
    {
      "inputs": [
        {
          "internalType": "address",
          "name": "protocolFeeRecipient_",
          "type": "address"
        }
      ],
      "name": "setProtocolFeeRecipient",
      "outputs": [],
      "stateMutability": "nonpayable",
      "type": "function"
    },
    {
      "inputs": [
        {
          "internalType": "uint16",
          "name": "questFee_",
          "type": "uint16"
        }
      ],
      "name": "setQuestFee",
      "outputs": [],
      "stateMutability": "nonpayable",
      "type": "function"
    },
    {
      "inputs": [
        {
          "internalType": "address",
          "name": "questTerminalKeyContract_",
          "type": "address"
        }
      ],
      "name": "setQuestTerminalKeyContract",
      "outputs": [],
      "stateMutability": "nonpayable",
      "type": "function"
    },
    {
      "inputs": [
        {
          "internalType": "address",
          "name": "rabbitholeReceiptContract_",
          "type": "address"
        }
      ],
      "name": "setRabbitHoleReceiptContract",
      "outputs": [],
      "stateMutability": "nonpayable",
      "type": "function"
    },
    {
      "inputs": [
        {
          "internalType": "address",
          "name": "rewardAddress_",
          "type": "address"
        },
        {
          "internalType": "bool",
          "name": "allowed_",
          "type": "bool"
        }
      ],
      "name": "setRewardAllowlistAddress",
      "outputs": [],
      "stateMutability": "nonpayable",
      "type": "function"
    },
    {
      "inputs": [
        {
          "internalType": "bytes4",
          "name": "interfaceId",
          "type": "bytes4"
        }
      ],
      "name": "supportsInterface",
      "outputs": [
        {
          "internalType": "bool",
          "name": "",
          "type": "bool"
        }
      ],
      "stateMutability": "view",
      "type": "function"
    },
    {
      "inputs": [
        {
          "internalType": "address",
          "name": "newOwner",
          "type": "address"
        }
      ],
      "name": "transferOwnership",
      "outputs": [],
      "stateMutability": "nonpayable",
      "type": "function"
    }
  ],
  "transactionHash": "0xce47b47b4cc7472fe781b7af910c60a921164f39ebc78ae3e107c8a47e9ee314",
  "args": [],
  "numDeployments": 2,
  "solcInputHash": "33fdcb3ba078a5142b38778234c6ac4a",
  "bytecode": "0x60806040523480156200001157600080fd5b50600054610100900460ff1615808015620000335750600054600160ff909116105b8062000063575062000050306200013d60201b62001c331760201c565b15801562000063575060005460ff166001145b620000cb5760405162461bcd60e51b815260206004820152602e60248201527f496e697469616c697a61626c653a20636f6e747261637420697320616c72656160448201526d191e481a5b9a5d1a585b1a5e995960921b606482015260840160405180910390fd5b6000805460ff191660011790558015620000ef576000805461ff0019166101001790555b801562000136576000805461ff0019169055604051600181527f7f26b83ff96e1f2b6a682f133852f6798a09c465da95921460cefb38474024989060200160405180910390a15b506200014c565b6001600160a01b03163b151590565b613635806200015c6000396000f3fe6080604052600436106102bb5760003560e01c80637c93f9ee1161016e578063d4faaa17116100cb578063ec461ac41161007f578063f27e757b11610064578063f27e757b14610810578063f2fde38b14610830578063fb41808a1461085057600080fd5b8063ec461ac4146107d0578063eddd0d9c146107f057600080fd5b8063d693e8d3116100b0578063d693e8d314610770578063e1bc3aba14610790578063e521cb92146107b057600080fd5b8063d4faaa1714610730578063d547741f1461075057600080fd5b806397aba7f911610122578063a217fddf11610107578063a217fddf146106db578063b4cbdd8b146106f0578063cc2a9a5b1461071057600080fd5b806397aba7f91461069b578063a1db1ba4146106bb57600080fd5b806381589b1f1161015357806381589b1f146106175780638da5cb5b1461063757806391d148541461065557600080fd5b80637c93f9ee1461057e5780637e4176e31461059e57600080fd5b806343ff27d11161021c578063715018a6116101d057806376319ee0116101b557806376319ee01461052b578063765b0c361461053e57806378077f8d1461055e57600080fd5b8063715018a614610501578063751eaf771461051657600080fd5b806364df049e1161020157806364df049e1461048357806367dfa3e7146104a3578063695ef19f146104d157600080fd5b806343ff27d11461044357806361ab146b1461046357600080fd5b80632f2ff15d116102735780633788fb6a116102585780633788fb6a146103e35780633ef17b171461040357806343f8bc6f1461042357600080fd5b80632f2ff15d146103a157806336568abe146103c357600080fd5b806313966db5116102a457806313966db51461032d578063248a9ca31461035157806327b0655f1461038157600080fd5b806301ffc9a7146102c05780630b6fc163146102f5575b600080fd5b3480156102cc57600080fd5b506102e06102db366004612d17565b610884565b60405190151581526020015b60405180910390f35b34801561030157600080fd5b5060c954610315906001600160a01b031681565b6040516001600160a01b0390911681526020016102ec565b34801561033957600080fd5b5061034360d25481565b6040519081526020016102ec565b34801561035d57600080fd5b5061034361036c366004612d59565b60009081526097602052604090206001015490565b34801561038d57600080fd5b506102e061039c366004612e43565b61091d565b3480156103ad57600080fd5b506103c16103bc366004612e95565b61095f565b005b3480156103cf57600080fd5b506103c16103de366004612e95565b610989565b3480156103ef57600080fd5b506103c16103fe366004612eba565b610a1a565b34801561040f57600080fd5b5060ce54610315906001600160a01b031681565b34801561042f57600080fd5b5061031561043e366004612ed7565b610a91565b34801561044f57600080fd5b5061034361045e366004612f74565b610c54565b34801561046f57600080fd5b506103c161047e366004612eba565b610c7f565b34801561048f57600080fd5b5060ca54610315906001600160a01b031681565b3480156104af57600080fd5b5060d1546104be9061ffff1681565b60405161ffff90911681526020016102ec565b3480156104dd57600080fd5b506102e06104ec366004612eba565b60d06020526000908152604090205460ff1681565b34801561050d57600080fd5b506103c1610cb6565b34801561052257600080fd5b50610315610cca565b6103c1610539366004612fa9565b610cfd565b34801561054a57600080fd5b5060d354610315906001600160a01b031681565b34801561056a57600080fd5b5060cf54610315906001600160a01b031681565b34801561058a57600080fd5b506103c1610599366004612eba565b61146b565b3480156105aa57600080fd5b506105f26105b9366004612f74565b805160208183018101805160cd825292820191909301209152600181015460028201546003909201546001600160a01b03909116919083565b604080516001600160a01b0390941684526020840192909252908201526060016102ec565b34801561062357600080fd5b50610315610632366004613016565b6114a2565b34801561064357600080fd5b506033546001600160a01b0316610315565b34801561066157600080fd5b506102e0610670366004612e95565b60009182526097602090815260408084206001600160a01b0393909316845291905290205460ff1690565b3480156106a757600080fd5b506103156106b63660046130bd565b6116ee565b3480156106c757600080fd5b5060cb54610315906001600160a01b031681565b3480156106e757600080fd5b50610343600081565b3480156106fc57600080fd5b506103c161070b366004612eba565b611750565b34801561071c57600080fd5b506103c161072b366004613104565b611787565b34801561073c57600080fd5b5060cc54610315906001600160a01b031681565b34801561075c57600080fd5b506103c161076b366004612e95565b61198e565b34801561077c57600080fd5b506103c161078b366004613194565b6119b3565b34801561079c57600080fd5b506103c16107ab3660046131d2565b6119e6565b3480156107bc57600080fd5b506103c16107cb366004612eba565b611a63565b3480156107dc57600080fd5b506105f26107eb366004612f74565b611ada565b3480156107fc57600080fd5b506103c161080b366004612d59565b611b29565b34801561081c57600080fd5b506103c161082b366004612eba565b611b6c565b34801561083c57600080fd5b506103c161084b366004612eba565b611ba3565b34801561085c57600080fd5b506103437ff9ca453be4e83785e69957dffc5e557020ebe7df32422c6d32ccad977982cadd81565b60007fffffffff0000000000000000000000000000000000000000000000000000000082167f7965db0b00000000000000000000000000000000000000000000000000000000148061091757507f01ffc9a7000000000000000000000000000000000000000000000000000000007fffffffff000000000000000000000000000000000000000000000000000000008316145b92915050565b600060cd8360405161092f9190613213565b90815260408051602092819003830190206001600160a01b0385166000908152925290205460ff16905092915050565b60008281526097602052604090206001015461097a81611c42565b6109848383611c4c565b505050565b6001600160a01b0381163314610a0c5760405162461bcd60e51b815260206004820152602f60248201527f416363657373436f6e74726f6c3a2063616e206f6e6c792072656e6f756e636560448201527f20726f6c657320666f722073656c66000000000000000000000000000000000060648201526084015b60405180910390fd5b610a168282611cee565b5050565b610a22611d71565b6001600160a01b038116610a62576040517f0855380c00000000000000000000000000000000000000000000000000000000815260040160405180910390fd5b60d3805473ffffffffffffffffffffffffffffffffffffffff19166001600160a01b0392909216919091179055565b60007ff9ca453be4e83785e69957dffc5e557020ebe7df32422c6d32ccad977982cadd610abd81611c42565b8289600060cd83604051610ad19190613213565b90815260405190819003602001902060018101549091506001600160a01b031615610b28576040517fb2431b6100000000000000000000000000000000000000000000000000000000815260040160405180910390fd5b6001600160a01b038216600090815260d0602052604090205460ff16610b7a576040517f9f7fdf3100000000000000000000000000000000000000000000000000000000815260040160405180910390fd5b60cb546001600160a01b0316610bbc576040517fdb2505de00000000000000000000000000000000000000000000000000000000815260040160405180910390fd5b6000610bce8d8d8d8d8d8c6000611dcb565b6040517ff2fde38b0000000000000000000000000000000000000000000000000000000081523360048201529091506001600160a01b0382169063f2fde38b90602401600060405180830381600087803b158015610c2b57600080fd5b505af1158015610c3f573d6000803e3d6000fd5b50929f9e505050505050505050505050505050565b600060cd82604051610c669190613213565b9081526020016040518091039020600301549050919050565b610c87611d71565b60ce805473ffffffffffffffffffffffffffffffffffffffff19166001600160a01b0392909216919091179055565b610cbe611d71565b610cc86000611f81565b565b60d3546000906001600160a01b0316610ced575060ca546001600160a01b031690565b5060d3546001600160a01b031690565b60d454600003610d0d57600160d4555b60d454600114610d5f5760405162461bcd60e51b815260206004820152600a60248201527f5245454e5452414e4359000000000000000000000000000000000000000000006044820152606401610a03565b600260d45560d254341015610db65760405162461bcd60e51b815260206004820152601560248201527f496e73756666696369656e74206d696e742066656500000000000000000000006044820152606401610a03565b600060cd84604051610dc89190613213565b90815260200160405180910390209050806002015481600301546001610dee919061325e565b1115610e26576040517f571e5b1800000000000000000000000000000000000000000000000000000000815260040160405180910390fd5b3360009081526020829052604090205460ff1615610e70576040517ff5f915f000000000000000000000000000000000000000000000000000000000815260040160405180910390fd5b8060010160009054906101000a90046001600160a01b03166001600160a01b03166316049ddf6040518163ffffffff1660e01b8152600401602060405180830381865afa158015610ec5573d6000803e3d6000fd5b505050506040513d601f19601f82011682018060405250810190610ee99190613271565b610f1f576040517fe5ec6b0400000000000000000000000000000000000000000000000000000000815260040160405180910390fd5b8060010160009054906101000a90046001600160a01b03166001600160a01b03166378e979256040518163ffffffff1660e01b8152600401602060405180830381865afa158015610f74573d6000803e3d6000fd5b505050506040513d601f19601f82011682018060405250810190610f98919061328e565b421015610fd1576040517f5971011300000000000000000000000000000000000000000000000000000000815260040160405180910390fd5b8060010160009054906101000a90046001600160a01b03166001600160a01b0316633197cbb66040518163ffffffff1660e01b8152600401602060405180830381865afa158015611026573d6000803e3d6000fd5b505050506040513d601f19601f8201168201806040525081019061104a919061328e565b421115611083576040517f8b602a4200000000000000000000000000000000000000000000000000000000815260040160405180910390fd5b8233856040516020016110979291906132a7565b60405160208183030381529060405280519060200120146110e4576040517f0af806e000000000000000000000000000000000000000000000000000000000815260040160405180910390fd5b60c9546001600160a01b03166110fa84846116ee565b6001600160a01b03161461113a576040517f05d0fdda00000000000000000000000000000000000000000000000000000000815260040160405180910390fd5b336000908152602082905260408120805460ff19166001179055600382018054909190611166906132f2565b9091555060ce546040517fd0def5210000000000000000000000000000000000000000000000000000000081526001600160a01b039091169063d0def521906111b59033908890600401613338565b600060405180830381600087803b1580156111cf57600080fd5b505af11580156111e3573d6000803e3d6000fd5b5050505060ce60009054906101000a90046001600160a01b03166001600160a01b031663010a38f56040518163ffffffff1660e01b8152600401602060405180830381865afa15801561123a573d6000803e3d6000fd5b505050506040513d601f19601f8201168201806040525081019061125e919061328e565b60cd8560405161126e9190613213565b908152604051908190036020018120600101546001600160a01b03169033907fa9e09a39b54248cb5161a8bad4e544f88b8aa2da99e7c425846bece6703cc1fc906112ba90899061335a565b60405180910390a460d2541561146057600060d254346112da919061336d565b905080156113b157604051600090339083908381818185875af1925050503d8060008114611324576040519150601f19603f3d011682016040523d82523d6000602084013e611329565b606091505b505090508061137a5760405162461bcd60e51b815260206004820152601760248201527f4661696c656420746f2072657475726e206368616e67650000000000000000006044820152606401610a03565b60405182815233907fa460cf400fb0d3a1ca6caa7a08fc3474317aa3f31e2b6744210d97f6405074069060200160405180910390a2505b60006113bb610cca565b6001600160a01b031660d25460405160006040518083038185875af1925050503d8060008114611407576040519150601f19603f3d011682016040523d82523d6000602084013e61140c565b606091505b505090508061145d5760405162461bcd60e51b815260206004820152601760248201527f4661696c656420746f2073656e64206d696e74206665650000000000000000006044820152606401610a03565b50505b5050600160d4555050565b611473611d71565b60cb805473ffffffffffffffffffffffffffffffffffffffff19166001600160a01b0392909216919091179055565b60007ff9ca453be4e83785e69957dffc5e557020ebe7df32422c6d32ccad977982cadd6114ce81611c42565b848a600060cd836040516114e29190613213565b90815260405190819003602001902060018101549091506001600160a01b031615611539576040517fb2431b6100000000000000000000000000000000000000000000000000000000815260040160405180910390fd5b6001600160a01b038216600090815260d0602052604090205460ff1661158b576040517f9f7fdf3100000000000000000000000000000000000000000000000000000000815260040160405180910390fd5b60cb546001600160a01b03166115cd576040517fdb2505de00000000000000000000000000000000000000000000000000000000815260040160405180910390fd5b60006115de8e8e8e8e8e8e8d611dcb565b90506115ea818f611fe0565b875115611669576040517f1f2829e00000000000000000000000000000000000000000000000000000000081526001600160a01b03821690631f2829e090611636908b9060040161335a565b600060405180830381600087803b15801561165057600080fd5b505af1158015611664573d6000803e3d6000fd5b505050505b6040517ff2fde38b0000000000000000000000000000000000000000000000000000000081523360048201526001600160a01b0382169063f2fde38b90602401600060405180830381600087803b1580156116c357600080fd5b505af11580156116d7573d6000803e3d6000fd5b509297505050505050505098975050505050505050565b6040517f19457468657265756d205369676e6564204d6573736167653a0a3332000000006020820152603c81018390526000908190605c0160405160208183030381529060405280519060200120905061174881846120b0565b949350505050565b611758611d71565b60c9805473ffffffffffffffffffffffffffffffffffffffff19166001600160a01b0392909216919091179055565b600054610100900460ff16158080156117a75750600054600160ff909116105b806117c15750303b1580156117c1575060005460ff166001145b6118335760405162461bcd60e51b815260206004820152602e60248201527f496e697469616c697a61626c653a20636f6e747261637420697320616c72656160448201527f647920696e697469616c697a65640000000000000000000000000000000000006064820152608401610a03565b6000805460ff19166001179055801561187357600080547fffffffffffffffffffffffffffffffffffffffffffffffffffffffffffff00ff166101001790555b61187c836120d4565b61188461215a565b61188d836121d7565b60c980546001600160a01b03808a1673ffffffffffffffffffffffffffffffffffffffff199283161790925560ce805489841690831617905560ca805488841690831617905560d180547fffffffffffffffffffffffffffffffffffffffffffffffffffffffffffff0000166107d017905560cb8054878416908316179055600160d45560d5805492851692909116919091179055801561198557600080547fffffffffffffffffffffffffffffffffffffffffffffffffffffffffffff00ff169055604051600181527f7f26b83ff96e1f2b6a682f133852f6798a09c465da95921460cefb38474024989060200160405180910390a15b50505050505050565b6000828152609760205260409020600101546119a981611c42565b6109848383611cee565b6119bb611d71565b6001600160a01b0391909116600090815260d060205260409020805460ff1916911515919091179055565b6119ee611d71565b6127108161ffff161115611a2e576040517f4ae19ab600000000000000000000000000000000000000000000000000000000815260040160405180910390fd5b60d180547fffffffffffffffffffffffffffffffffffffffffffffffffffffffffffff00001661ffff92909216919091179055565b611a6b611d71565b6001600160a01b038116611aab576040517f0855380c00000000000000000000000000000000000000000000000000000000815260040160405180910390fd5b60ca805473ffffffffffffffffffffffffffffffffffffffff19166001600160a01b0392909216919091179055565b60008060008060cd85604051611af09190613213565b908152604051908190036020019020600181015460028201546003909201546001600160a01b0390911695509093509150509193909250565b611b31611d71565b60d28190556040518181527f97aee230ba41961438e908e115df76fa8113f85a0586d85b19ba5be50e6a22749060200160405180910390a150565b611b74611d71565b60d5805473ffffffffffffffffffffffffffffffffffffffff19166001600160a01b0392909216919091179055565b611bab611d71565b6001600160a01b038116611c275760405162461bcd60e51b815260206004820152602660248201527f4f776e61626c653a206e6577206f776e657220697320746865207a65726f206160448201527f64647265737300000000000000000000000000000000000000000000000000006064820152608401610a03565b611c3081611f81565b50565b6001600160a01b03163b151590565b611c30813361220c565b60008281526097602090815260408083206001600160a01b038516845290915290205460ff16610a165760008281526097602090815260408083206001600160a01b03851684529091529020805460ff19166001179055611caa3390565b6001600160a01b0316816001600160a01b0316837f2f8788117e7eff1d82e926ec794901d17c78024a50270940304540a733656f0d60405160405180910390a45050565b60008281526097602090815260408083206001600160a01b038516845290915290205460ff1615610a165760008281526097602090815260408083206001600160a01b0385168085529252808320805460ff1916905551339285917ff6391f5c32d9c69d2a47ea670b442974b53935d1edc7fd64eb21e047a839171b9190a45050565b6033546001600160a01b03163314610cc85760405162461bcd60e51b815260206004820181905260248201527f4f776e61626c653a2063616c6c6572206973206e6f7420746865206f776e65726044820152606401610a03565b60008060cd84604051611dde9190613213565b9081526040516020918190038201812060cb54909350600092611e30926001600160a01b0390921691611e159133918a91016132a7565b60405160208183030381529060405280519060200120612281565b9050806001600160a01b0316336001600160a01b03167f7ffd904b9426b92270b251e237818b61230a9c7dc857d7e6130dddc21b761937878d8d8d8d8d604051611e7f96959493929190613380565b60405180910390a360018201805473ffffffffffffffffffffffffffffffffffffffff19166001600160a01b038316179055600282018790556000848103611ece575060d15461ffff16611eda565b611ed78561231e565b90505b816001600160a01b031663938299b68c8c8c8c8c8c60ce60009054906101000a90046001600160a01b03168960ca60009054906101000a90046001600160a01b03166040518a63ffffffff1660e01b8152600401611f40999897969594939291906133fe565b600060405180830381600087803b158015611f5a57600080fd5b505af1158015611f6e573d6000803e3d6000fd5b50939d9c50505050505050505050505050565b603380546001600160a01b0383811673ffffffffffffffffffffffffffffffffffffffff19831681179093556040519116919082907f8be0079c531659141344cd1fd0a4f28419497f9722a3daafe3b4186f6b6457e090600090a35050565b6120593383846001600160a01b0316633dd4d94f6040518163ffffffff1660e01b8152600401602060405180830381865afa158015612023573d6000803e3d6000fd5b505050506040513d601f19601f82011682018060405250810190612047919061328e565b6001600160a01b03851692919061255b565b816001600160a01b031663e10d29ee6040518163ffffffff1660e01b8152600401600060405180830381600087803b15801561209457600080fd5b505af11580156120a8573d6000803e3d6000fd5b505050505050565b60008060006120bf85856125e9565b915091506120cc8161262e565b509392505050565b600054610100900460ff166121515760405162461bcd60e51b815260206004820152602b60248201527f496e697469616c697a61626c653a20636f6e7472616374206973206e6f74206960448201527f6e697469616c697a696e670000000000000000000000000000000000000000006064820152608401610a03565b611c3081612793565b600054610100900460ff16610cc85760405162461bcd60e51b815260206004820152602b60248201527f496e697469616c697a61626c653a20636f6e7472616374206973206e6f74206960448201527f6e697469616c697a696e670000000000000000000000000000000000000000006064820152608401610a03565b6121e2600082611c4c565b611c307ff9ca453be4e83785e69957dffc5e557020ebe7df32422c6d32ccad977982cadd82611c4c565b60008281526097602090815260408083206001600160a01b038516845290915290205460ff16610a165761223f81612810565b61224a836020612822565b60405160200161225b929190613463565b60408051601f198184030181529082905262461bcd60e51b8252610a039160040161335a565b6000763d602d80600a3d3981f3363d3d373d3d3d363d730000008360601b60e81c176000526e5af43d82803e903d91602b57fd5bf38360781b1760205281603760096000f590506001600160a01b0381166109175760405162461bcd60e51b815260206004820152601760248201527f455243313136373a2063726561746532206661696c65640000000000000000006044820152606401610a03565b60d5546040517f6352211e0000000000000000000000000000000000000000000000000000000081526004810183905260009133916001600160a01b0390911690636352211e90602401602060405180830381865afa158015612385573d6000803e3d6000fd5b505050506040513d601f19601f820116820180604052508101906123a991906134e4565b6001600160a01b0316146124255760405162461bcd60e51b815260206004820152603360248201527f5175657374466163746f72793a2063616c6c6572206973206e6f74206f776e6560448201527f72206f6620646973636f756e7420746f6b656e000000000000000000000000006064820152608401610a03565b60d5546040517fbae6a690000000000000000000000000000000000000000000000000000000008152600481018490526000916001600160a01b03169063bae6a690906024016040805180830381865afa158015612487573d6000803e3d6000fd5b505050506040513d601f19601f820116820180604052508101906124ab9190613501565b5060d5546040517fdbcca160000000000000000000000000000000000000000000000000000000008152600481018690529192506001600160a01b03169063dbcca16090602401600060405180830381600087803b15801561250c57600080fd5b505af1158015612520573d6000803e3d6000fd5b505050506127108161ffff16612710612539919061336d565b60d15461254a919061ffff16613530565b612554919061354f565b9392505050565b604080516001600160a01b0385811660248301528416604482015260648082018490528251808303909101815260849091019091526020810180517bffffffffffffffffffffffffffffffffffffffffffffffffffffffff167f23b872dd000000000000000000000000000000000000000000000000000000001790526125e3908590612a4b565b50505050565b600080825160410361261f5760208301516040840151606085015160001a61261387828585612b30565b94509450505050612627565b506000905060025b9250929050565b60008160048111156126425761264261358a565b0361264a5750565b600181600481111561265e5761265e61358a565b036126ab5760405162461bcd60e51b815260206004820152601860248201527f45434453413a20696e76616c6964207369676e617475726500000000000000006044820152606401610a03565b60028160048111156126bf576126bf61358a565b0361270c5760405162461bcd60e51b815260206004820152601f60248201527f45434453413a20696e76616c6964207369676e6174757265206c656e677468006044820152606401610a03565b60038160048111156127205761272061358a565b03611c305760405162461bcd60e51b815260206004820152602260248201527f45434453413a20696e76616c6964207369676e6174757265202773272076616c60448201527f75650000000000000000000000000000000000000000000000000000000000006064820152608401610a03565b600054610100900460ff16611c275760405162461bcd60e51b815260206004820152602b60248201527f496e697469616c697a61626c653a20636f6e7472616374206973206e6f74206960448201527f6e697469616c697a696e670000000000000000000000000000000000000000006064820152608401610a03565b60606109176001600160a01b03831660145b60606000612831836002613530565b61283c90600261325e565b67ffffffffffffffff81111561285457612854612d72565b6040519080825280601f01601f19166020018201604052801561287e576020820181803683370190505b5090507f3000000000000000000000000000000000000000000000000000000000000000816000815181106128b5576128b56135b9565b60200101907effffffffffffffffffffffffffffffffffffffffffffffffffffffffffffff1916908160001a9053507f780000000000000000000000000000000000000000000000000000000000000081600181518110612918576129186135b9565b60200101907effffffffffffffffffffffffffffffffffffffffffffffffffffffffffffff1916908160001a9053506000612954846002613530565b61295f90600161325e565b90505b60018111156129fc577f303132333435363738396162636465660000000000000000000000000000000085600f16601081106129a0576129a06135b9565b1a60f81b8282815181106129b6576129b66135b9565b60200101907effffffffffffffffffffffffffffffffffffffffffffffffffffffffffffff1916908160001a90535060049490941c936129f5816135e8565b9050612962565b5083156125545760405162461bcd60e51b815260206004820181905260248201527f537472696e67733a20686578206c656e67746820696e73756666696369656e746044820152606401610a03565b6000612aa0826040518060400160405280602081526020017f5361666545524332303a206c6f772d6c6576656c2063616c6c206661696c6564815250856001600160a01b0316612bf49092919063ffffffff16565b8051909150156109845780806020019051810190612abe9190613271565b6109845760405162461bcd60e51b815260206004820152602a60248201527f5361666545524332303a204552433230206f7065726174696f6e20646964206e60448201527f6f742073756363656564000000000000000000000000000000000000000000006064820152608401610a03565b6000807f7fffffffffffffffffffffffffffffff5d576e7357a4501ddfe92f46681b20a0831115612b675750600090506003612beb565b6040805160008082526020820180845289905260ff881692820192909252606081018690526080810185905260019060a0016020604051602081039080840390855afa158015612bbb573d6000803e3d6000fd5b5050604051601f1901519150506001600160a01b038116612be457600060019250925050612beb565b9150600090505b94509492505050565b6060611748848460008585600080866001600160a01b03168587604051612c1b9190613213565b60006040518083038185875af1925050503d8060008114612c58576040519150601f19603f3d011682016040523d82523d6000602084013e612c5d565b606091505b5091509150612c6e87838387612c79565b979650505050505050565b60608315612ce8578251600003612ce1576001600160a01b0385163b612ce15760405162461bcd60e51b815260206004820152601d60248201527f416464726573733a2063616c6c20746f206e6f6e2d636f6e74726163740000006044820152606401610a03565b5081611748565b6117488383815115612cfd5781518083602001fd5b8060405162461bcd60e51b8152600401610a03919061335a565b600060208284031215612d2957600080fd5b81357fffffffff000000000000000000000000000000000000000000000000000000008116811461255457600080fd5b600060208284031215612d6b57600080fd5b5035919050565b7f4e487b7100000000000000000000000000000000000000000000000000000000600052604160045260246000fd5b600082601f830112612db257600080fd5b813567ffffffffffffffff80821115612dcd57612dcd612d72565b604051601f8301601f19908116603f01168101908282118183101715612df557612df5612d72565b81604052838152866020858801011115612e0e57600080fd5b836020870160208301376000602085830101528094505050505092915050565b6001600160a01b0381168114611c3057600080fd5b60008060408385031215612e5657600080fd5b823567ffffffffffffffff811115612e6d57600080fd5b612e7985828601612da1565b9250506020830135612e8a81612e2e565b809150509250929050565b60008060408385031215612ea857600080fd5b823591506020830135612e8a81612e2e565b600060208284031215612ecc57600080fd5b813561255481612e2e565b600080600080600080600060e0888a031215612ef257600080fd5b8735612efd81612e2e565b96506020880135955060408801359450606088013593506080880135925060a088013567ffffffffffffffff80821115612f3657600080fd5b612f428b838c01612da1565b935060c08a0135915080821115612f5857600080fd5b50612f658a828b01612da1565b91505092959891949750929550565b600060208284031215612f8657600080fd5b813567ffffffffffffffff811115612f9d57600080fd5b61174884828501612da1565b600080600060608486031215612fbe57600080fd5b833567ffffffffffffffff80821115612fd657600080fd5b612fe287838801612da1565b9450602086013593506040860135915080821115612fff57600080fd5b5061300c86828701612da1565b9150509250925092565b600080600080600080600080610100898b03121561303357600080fd5b883561303e81612e2e565b97506020890135965060408901359550606089013594506080890135935060a089013567ffffffffffffffff8082111561307757600080fd5b6130838c838d01612da1565b945060c08b013591508082111561309957600080fd5b506130a68b828c01612da1565b92505060e089013590509295985092959890939650565b600080604083850312156130d057600080fd5b82359150602083013567ffffffffffffffff8111156130ee57600080fd5b6130fa85828601612da1565b9150509250929050565b60008060008060008060c0878903121561311d57600080fd5b863561312881612e2e565b9550602087013561313881612e2e565b9450604087013561314881612e2e565b9350606087013561315881612e2e565b9250608087013561316881612e2e565b915060a087013561317881612e2e565b809150509295509295509295565b8015158114611c3057600080fd5b600080604083850312156131a757600080fd5b82356131b281612e2e565b91506020830135612e8a81613186565b61ffff81168114611c3057600080fd5b6000602082840312156131e457600080fd5b8135612554816131c2565b60005b8381101561320a5781810151838201526020016131f2565b50506000910152565b600082516132258184602087016131ef565b9190910192915050565b7f4e487b7100000000000000000000000000000000000000000000000000000000600052601160045260246000fd5b808201808211156109175761091761322f565b60006020828403121561328357600080fd5b815161255481613186565b6000602082840312156132a057600080fd5b5051919050565b7fffffffffffffffffffffffffffffffffffffffff0000000000000000000000008360601b168152600082516132e48160148501602087016131ef565b919091016014019392505050565b600060001982036133055761330561322f565b5060010190565b600081518084526133248160208601602086016131ef565b601f01601f19169290920160200192915050565b6001600160a01b0383168152604060208201526000611748604083018461330c565b602081526000612554602083018461330c565b818103818111156109175761091761322f565b60e08152600061339360e083018961330c565b8281036020840152600581527f65726332300000000000000000000000000000000000000000000000000000006020820152604081019150506001600160a01b03871660408301528560608301528460808301528360a08301528260c0830152979650505050505050565b60006101206001600160a01b03808d1684528b60208501528a60408501528960608501528860808501528160a085015261343a8285018961330c565b96811660c085015261ffff9590951660e084015250509116610100909101529695505050505050565b7f416363657373436f6e74726f6c3a206163636f756e742000000000000000000081526000835161349b8160178501602088016131ef565b7f206973206d697373696e6720726f6c652000000000000000000000000000000060179184019182015283516134d88160288401602088016131ef565b01602801949350505050565b6000602082840312156134f657600080fd5b815161255481612e2e565b6000806040838503121561351457600080fd5b825161351f816131c2565b6020840151909250612e8a816131c2565b600081600019048311821515161561354a5761354a61322f565b500290565b600082613585577f4e487b7100000000000000000000000000000000000000000000000000000000600052601260045260246000fd5b500490565b7f4e487b7100000000000000000000000000000000000000000000000000000000600052602160045260246000fd5b7f4e487b7100000000000000000000000000000000000000000000000000000000600052603260045260246000fd5b6000816135f7576135f761322f565b50600019019056fea26469706673582212205a168a0c3b5678f73f969feda9b4dc49ffe437b995a7df194fa78ecd6723771e64736f6c63430008100033",
  "devdoc": {
    "author": "RabbitHole.gg",
    "details": "This contract is used to create quests and mint receipts",
    "kind": "dev",
    "methods": {
      "constructor": {
        "custom:oz-upgrades-unsafe-allow": "constructor"
      },
      "createQuest(address,uint256,uint256,uint256,uint256,string,string)": {
        "details": "Create an erc20 quest, only accounts with the CREATE_QUEST_ROLE can create quests",
        "params": {
          "contractType_": "Deprecated, it was used when we had 1155 reward support",
          "endTime_": "The end time of the quest",
          "questId_": "The id of the quest",
          "rewardAmount_": "The reward amount for an erc20 quest",
          "rewardTokenAddress_": "The contract address of the reward token",
          "startTime_": "The start time of the quest",
          "totalParticipants_": "The total amount of participants (accounts) the quest will have"
        },
        "returns": {
          "_0": "address the quest contract address"
        }
      },
      "createQuestAndQueue(address,uint256,uint256,uint256,uint256,string,string,uint256)": {
        "details": "Create an erc20 quest and start it at the same time. The function will transfer the reward amount to the quest contractonly accounts with the CREATE_QUEST_ROLE can create quests",
        "params": {
          "discountTokenId_": "The id of the discount token",
          "endTime_": "The end time of the quest",
          "jsonSpecCID": "The CID of the JSON spec for the quest",
          "questId_": "The id of the quest",
          "rewardAmount_": "The reward amount for an erc20 quest",
          "rewardTokenAddress_": "The contract address of the reward token",
          "startTime_": "The start time of the quest",
          "totalParticipants_": "The total amount of participants (accounts) the quest will have"
        },
        "returns": {
          "_0": "address the quest contract address"
        }
      },
      "getAddressMinted(string,address)": {
        "details": "return status of whether an address has minted a receipt for a quest",
        "params": {
          "address_": "The address to check",
          "questId_": "The id of the quest"
        },
        "returns": {
          "_0": "Minted status"
        }
      },
      "getMintFeeRecipient()": {
        "details": "get the mintFeeRecipient return the protocol fee recipient if the mint fee recipient is not set",
        "returns": {
          "_0": "address the mint fee recipient"
        }
      },
      "getNumberMinted(string)": {
        "details": "return the number of minted receipts for a quest",
        "params": {
          "questId_": "The id of the quest"
        }
      },
      "getRoleAdmin(bytes32)": {
        "details": "Returns the admin role that controls `role`. See {grantRole} and {revokeRole}. To change a role's admin, use {_setRoleAdmin}."
      },
      "grantRole(bytes32,address)": {
        "details": "Grants `role` to `account`. If `account` had not been already granted `role`, emits a {RoleGranted} event. Requirements: - the caller must have ``role``'s admin role. May emit a {RoleGranted} event."
      },
      "hasRole(bytes32,address)": {
        "details": "Returns `true` if `account` has been granted `role`."
      },
      "mintReceipt(string,bytes32,bytes)": {
        "details": "mint a RabbitHole Receipt. Note: this contract must be set as Minter on the receipt contract",
        "params": {
          "hash_": "The hash of the message",
          "questId_": "The id of the quest",
          "signature_": "The signature of the hash"
        }
      },
      "owner()": {
        "details": "Returns the address of the current owner."
      },
      "questInfo(string)": {
        "details": "return data in the quest struct for a questId",
        "params": {
          "questId_": "The id of the quest"
        }
      },
      "recoverSigner(bytes32,bytes)": {
        "details": "recover the signer from a hash and signature",
        "params": {
          "hash_": "The hash of the message",
          "signature_": "The signature of the hash"
        }
      },
      "renounceOwnership()": {
        "details": "Leaves the contract without owner. It will not be possible to call `onlyOwner` functions anymore. Can only be called by the current owner. NOTE: Renouncing ownership will leave the contract without an owner, thereby removing any functionality that is only available to the owner."
      },
      "renounceRole(bytes32,address)": {
        "details": "Revokes `role` from the calling account. Roles are often managed via {grantRole} and {revokeRole}: this function's purpose is to provide a mechanism for accounts to lose their privileges if they are compromised (such as when a trusted device is misplaced). If the calling account had been revoked `role`, emits a {RoleRevoked} event. Requirements: - the caller must be `account`. May emit a {RoleRevoked} event."
      },
      "revokeRole(bytes32,address)": {
        "details": "Revokes `role` from `account`. If `account` had been granted `role`, emits a {RoleRevoked} event. Requirements: - the caller must have ``role``'s admin role. May emit a {RoleRevoked} event."
      },
      "setClaimSignerAddress(address)": {
        "details": "set the claim signer address",
        "params": {
          "claimSignerAddress_": "The address of the claim signer"
        }
      },
      "setErc20QuestAddress(address)": {
        "details": "set erc20QuestAddress",
        "params": {
          "erc20QuestAddress_": "The address of the erc20 quest"
        }
      },
      "setMintFee(uint256)": {
        "details": "set the mint fee",
        "params": {
          "mintFee_": "The mint fee value"
        }
      },
      "setMintFeeRecipient(address)": {
        "details": "set the mintFeeRecipient",
        "params": {
          "mintFeeRecipient_": "The address of the mint fee recipient"
        }
      },
      "setProtocolFeeRecipient(address)": {
        "details": "set the protocol fee recipient",
        "params": {
          "protocolFeeRecipient_": "The address of the protocol fee recipient"
        }
      },
      "setQuestFee(uint16)": {
        "details": "set the quest fee",
        "params": {
          "questFee_": "The quest fee value"
        }
      },
      "setQuestTerminalKeyContract(address)": {
        "details": "set questTerminalKeyContract address",
        "params": {
          "questTerminalKeyContract_": "The address of the questTerminalKeyContract"
        }
      },
      "setRabbitHoleReceiptContract(address)": {
        "details": "set the rabbithole receipt contract",
        "params": {
          "rabbitholeReceiptContract_": "The address of the rabbithole receipt contract"
        }
      },
      "setRewardAllowlistAddress(address,bool)": {
        "details": "set or remave a contract address to be used as a reward",
        "params": {
          "allowed_": "Whether the contract address is allowed or not",
          "rewardAddress_": "The contract address to set"
        }
      },
      "supportsInterface(bytes4)": {
        "details": "See {IERC165-supportsInterface}."
      },
      "transferOwnership(address)": {
        "details": "Transfers ownership of the contract to a new account (`newOwner`). Can only be called by the current owner."
      }
    },
    "title": "QuestFactory",
    "version": 1
  },
  "userdoc": {
    "kind": "user",
    "methods": {
      "setMintFee(uint256)": {
        "notice": "the mint fee in ether"
      },
      "setQuestFee(uint16)": {
        "notice": "the quest fee should be in Basis Point units"
      }
    },
    "version": 1
  },
  "storageLayout": {
    "storage": [
      {
        "astId": 566,
        "contract": "contracts/QuestFactory.sol:QuestFactory",
        "label": "_initialized",
        "offset": 0,
        "slot": "0",
        "type": "t_uint8"
      },
      {
        "astId": 569,
        "contract": "contracts/QuestFactory.sol:QuestFactory",
        "label": "_initializing",
        "offset": 1,
        "slot": "0",
        "type": "t_bool"
      },
      {
        "astId": 2934,
        "contract": "contracts/QuestFactory.sol:QuestFactory",
        "label": "__gap",
        "offset": 0,
        "slot": "1",
        "type": "t_array(t_uint256)50_storage"
      },
      {
        "astId": 7364,
        "contract": "contracts/QuestFactory.sol:QuestFactory",
        "label": "_owner",
        "offset": 0,
        "slot": "51",
        "type": "t_address"
      },
      {
        "astId": 7488,
        "contract": "contracts/QuestFactory.sol:QuestFactory",
        "label": "__gap",
        "offset": 0,
        "slot": "52",
        "type": "t_array(t_uint256)49_storage"
      },
      {
        "astId": 3588,
        "contract": "contracts/QuestFactory.sol:QuestFactory",
        "label": "__gap",
        "offset": 0,
        "slot": "101",
        "type": "t_array(t_uint256)50_storage"
      },
      {
        "astId": 39,
        "contract": "contracts/QuestFactory.sol:QuestFactory",
        "label": "_roles",
        "offset": 0,
        "slot": "151",
        "type": "t_mapping(t_bytes32,t_struct(RoleData)34_storage)"
      },
      {
        "astId": 334,
        "contract": "contracts/QuestFactory.sol:QuestFactory",
        "label": "__gap",
        "offset": 0,
        "slot": "152",
        "type": "t_array(t_uint256)49_storage"
      },
      {
        "astId": 8264,
        "contract": "contracts/QuestFactory.sol:QuestFactory",
        "label": "claimSignerAddress",
        "offset": 0,
        "slot": "201",
        "type": "t_address"
      },
      {
        "astId": 8266,
        "contract": "contracts/QuestFactory.sol:QuestFactory",
        "label": "protocolFeeRecipient",
        "offset": 0,
        "slot": "202",
        "type": "t_address"
      },
      {
        "astId": 8268,
        "contract": "contracts/QuestFactory.sol:QuestFactory",
        "label": "erc20QuestAddress",
        "offset": 0,
        "slot": "203",
        "type": "t_address"
      },
      {
        "astId": 8270,
        "contract": "contracts/QuestFactory.sol:QuestFactory",
        "label": "erc1155QuestAddress",
        "offset": 0,
        "slot": "204",
        "type": "t_address"
      },
      {
        "astId": 8275,
        "contract": "contracts/QuestFactory.sol:QuestFactory",
        "label": "quests",
        "offset": 0,
        "slot": "205",
        "type": "t_mapping(t_string_memory_ptr,t_struct(Quest)8262_storage)"
      },
      {
        "astId": 8278,
        "contract": "contracts/QuestFactory.sol:QuestFactory",
        "label": "rabbitHoleReceiptContract",
        "offset": 0,
        "slot": "206",
        "type": "t_contract(RabbitHoleReceipt)10391"
      },
      {
        "astId": 8280,
        "contract": "contracts/QuestFactory.sol:QuestFactory",
        "label": "rabbitHoleTicketsContract",
        "offset": 0,
        "slot": "207",
        "type": "t_address"
      },
      {
        "astId": 8284,
        "contract": "contracts/QuestFactory.sol:QuestFactory",
        "label": "rewardAllowlist",
        "offset": 0,
        "slot": "208",
        "type": "t_mapping(t_address,t_bool)"
      },
      {
        "astId": 8286,
        "contract": "contracts/QuestFactory.sol:QuestFactory",
        "label": "questFee",
        "offset": 0,
        "slot": "209",
        "type": "t_uint16"
      },
      {
        "astId": 8288,
        "contract": "contracts/QuestFactory.sol:QuestFactory",
        "label": "mintFee",
        "offset": 0,
        "slot": "210",
        "type": "t_uint256"
      },
      {
        "astId": 8290,
        "contract": "contracts/QuestFactory.sol:QuestFactory",
        "label": "mintFeeRecipient",
        "offset": 0,
        "slot": "211",
        "type": "t_address"
      },
      {
        "astId": 8292,
        "contract": "contracts/QuestFactory.sol:QuestFactory",
        "label": "locked",
        "offset": 0,
        "slot": "212",
        "type": "t_uint256"
      },
      {
        "astId": 8295,
        "contract": "contracts/QuestFactory.sol:QuestFactory",
        "label": "questTerminalKeyContract",
        "offset": 0,
        "slot": "213",
        "type": "t_contract(QuestTerminalKey)9825"
      }
    ],
    "types": {
      "t_address": {
        "encoding": "inplace",
        "label": "address",
        "numberOfBytes": "20"
      },
      "t_array(t_uint256)49_storage": {
        "base": "t_uint256",
        "encoding": "inplace",
        "label": "uint256[49]",
        "numberOfBytes": "1568"
      },
      "t_array(t_uint256)50_storage": {
        "base": "t_uint256",
        "encoding": "inplace",
        "label": "uint256[50]",
        "numberOfBytes": "1600"
      },
      "t_bool": {
        "encoding": "inplace",
        "label": "bool",
        "numberOfBytes": "1"
      },
      "t_bytes32": {
        "encoding": "inplace",
        "label": "bytes32",
        "numberOfBytes": "32"
      },
      "t_contract(QuestTerminalKey)9825": {
        "encoding": "inplace",
        "label": "contract QuestTerminalKey",
        "numberOfBytes": "20"
      },
      "t_contract(RabbitHoleReceipt)10391": {
        "encoding": "inplace",
        "label": "contract RabbitHoleReceipt",
        "numberOfBytes": "20"
      },
      "t_mapping(t_address,t_bool)": {
        "encoding": "mapping",
        "key": "t_address",
        "label": "mapping(address => bool)",
        "numberOfBytes": "32",
        "value": "t_bool"
      },
      "t_mapping(t_bytes32,t_struct(RoleData)34_storage)": {
        "encoding": "mapping",
        "key": "t_bytes32",
        "label": "mapping(bytes32 => struct AccessControlUpgradeable.RoleData)",
        "numberOfBytes": "32",
        "value": "t_struct(RoleData)34_storage"
      },
      "t_mapping(t_string_memory_ptr,t_struct(Quest)8262_storage)": {
        "encoding": "mapping",
        "key": "t_string_memory_ptr",
        "label": "mapping(string => struct QuestFactory.Quest)",
        "numberOfBytes": "32",
        "value": "t_struct(Quest)8262_storage"
      },
      "t_string_memory_ptr": {
        "encoding": "bytes",
        "label": "string",
        "numberOfBytes": "32"
      },
      "t_struct(Quest)8262_storage": {
        "encoding": "inplace",
        "label": "struct QuestFactory.Quest",
        "members": [
          {
            "astId": 8255,
            "contract": "contracts/QuestFactory.sol:QuestFactory",
            "label": "addressMinted",
            "offset": 0,
            "slot": "0",
            "type": "t_mapping(t_address,t_bool)"
          },
          {
            "astId": 8257,
            "contract": "contracts/QuestFactory.sol:QuestFactory",
            "label": "questAddress",
            "offset": 0,
            "slot": "1",
            "type": "t_address"
          },
          {
            "astId": 8259,
            "contract": "contracts/QuestFactory.sol:QuestFactory",
            "label": "totalParticipants",
            "offset": 0,
            "slot": "2",
            "type": "t_uint256"
          },
          {
            "astId": 8261,
            "contract": "contracts/QuestFactory.sol:QuestFactory",
            "label": "numberMinted",
            "offset": 0,
            "slot": "3",
            "type": "t_uint256"
          }
        ],
        "numberOfBytes": "128"
      },
      "t_struct(RoleData)34_storage": {
        "encoding": "inplace",
        "label": "struct AccessControlUpgradeable.RoleData",
        "members": [
          {
            "astId": 31,
            "contract": "contracts/QuestFactory.sol:QuestFactory",
            "label": "members",
            "offset": 0,
            "slot": "0",
            "type": "t_mapping(t_address,t_bool)"
          },
          {
            "astId": 33,
            "contract": "contracts/QuestFactory.sol:QuestFactory",
            "label": "adminRole",
            "offset": 0,
            "slot": "1",
            "type": "t_bytes32"
          }
        ],
        "numberOfBytes": "64"
      },
      "t_uint16": {
        "encoding": "inplace",
        "label": "uint16",
        "numberOfBytes": "2"
      },
      "t_uint256": {
        "encoding": "inplace",
        "label": "uint256",
        "numberOfBytes": "32"
      },
      "t_uint8": {
        "encoding": "inplace",
        "label": "uint8",
        "numberOfBytes": "1"
      }
    }
  }
}