{
  "address": "0xb7a10231B968ee4fD13200F7B8dC7b5Cc37436C0",
  "abi": [
    {
      "inputs": [],
      "stateMutability": "nonpayable",
      "type": "constructor"
    },
    {
      "inputs": [],
      "name": "AccountBalanceOverflow",
      "type": "error"
    },
    {
      "inputs": [],
      "name": "ArrayLengthsMismatch",
      "type": "error"
    },
    {
      "inputs": [],
      "name": "InsufficientBalance",
      "type": "error"
    },
    {
      "inputs": [],
      "name": "NewOwnerIsZeroAddress",
      "type": "error"
    },
    {
      "inputs": [],
      "name": "NoHandoverRequest",
      "type": "error"
    },
    {
      "inputs": [],
      "name": "NotOwnerNorApproved",
      "type": "error"
    },
    {
      "inputs": [],
      "name": "OnlyMinter",
      "type": "error"
    },
    {
      "inputs": [],
      "name": "TransferToNonERC1155ReceiverImplementer",
      "type": "error"
    },
    {
      "inputs": [],
      "name": "TransferToZeroAddress",
      "type": "error"
    },
    {
      "inputs": [],
      "name": "Unauthorized",
      "type": "error"
    },
    {
      "anonymous": false,
      "inputs": [
        {
          "indexed": true,
          "internalType": "address",
          "name": "owner",
          "type": "address"
        },
        {
          "indexed": true,
          "internalType": "address",
          "name": "operator",
          "type": "address"
        },
        {
          "indexed": false,
          "internalType": "bool",
          "name": "isApproved",
          "type": "bool"
        }
      ],
      "name": "ApprovalForAll",
      "type": "event"
    },
    {
      "anonymous": false,
      "inputs": [
        {
          "indexed": false,
          "internalType": "uint8",
          "name": "version",
          "type": "uint8"
        }
      ],
      "name": "Initialized",
      "type": "event"
    },
    {
      "anonymous": false,
      "inputs": [
        {
          "indexed": true,
          "internalType": "address",
          "name": "minterAddress",
          "type": "address"
        }
      ],
      "name": "MinterAddressSet",
      "type": "event"
    },
    {
      "anonymous": false,
      "inputs": [
        {
          "indexed": true,
          "internalType": "address",
          "name": "pendingOwner",
          "type": "address"
        }
      ],
      "name": "OwnershipHandoverCanceled",
      "type": "event"
    },
    {
      "anonymous": false,
      "inputs": [
        {
          "indexed": true,
          "internalType": "address",
          "name": "pendingOwner",
          "type": "address"
        }
      ],
      "name": "OwnershipHandoverRequested",
      "type": "event"
    },
    {
      "anonymous": false,
      "inputs": [
        {
          "indexed": true,
          "internalType": "address",
          "name": "oldOwner",
          "type": "address"
        },
        {
          "indexed": true,
          "internalType": "address",
          "name": "newOwner",
          "type": "address"
        }
      ],
      "name": "OwnershipTransferred",
      "type": "event"
    },
    {
      "anonymous": false,
      "inputs": [
        {
          "indexed": true,
          "internalType": "uint256",
          "name": "royaltyFee",
          "type": "uint256"
        }
      ],
      "name": "RoyaltyFeeSet",
      "type": "event"
    },
    {
      "anonymous": false,
      "inputs": [
        {
          "indexed": true,
          "internalType": "address",
          "name": "operator",
          "type": "address"
        },
        {
          "indexed": true,
          "internalType": "address",
          "name": "from",
          "type": "address"
        },
        {
          "indexed": true,
          "internalType": "address",
          "name": "to",
          "type": "address"
        },
        {
          "indexed": false,
          "internalType": "uint256[]",
          "name": "ids",
          "type": "uint256[]"
        },
        {
          "indexed": false,
          "internalType": "uint256[]",
          "name": "amounts",
          "type": "uint256[]"
        }
      ],
      "name": "TransferBatch",
      "type": "event"
    },
    {
      "anonymous": false,
      "inputs": [
        {
          "indexed": true,
          "internalType": "address",
          "name": "operator",
          "type": "address"
        },
        {
          "indexed": true,
          "internalType": "address",
          "name": "from",
          "type": "address"
        },
        {
          "indexed": true,
          "internalType": "address",
          "name": "to",
          "type": "address"
        },
        {
          "indexed": false,
          "internalType": "uint256",
          "name": "id",
          "type": "uint256"
        },
        {
          "indexed": false,
          "internalType": "uint256",
          "name": "amount",
          "type": "uint256"
        }
      ],
      "name": "TransferSingle",
      "type": "event"
    },
    {
      "anonymous": false,
      "inputs": [
        {
          "indexed": false,
          "internalType": "string",
          "name": "value",
          "type": "string"
        },
        {
          "indexed": true,
          "internalType": "uint256",
          "name": "id",
          "type": "uint256"
        }
      ],
      "name": "URI",
      "type": "event"
    },
    {
      "inputs": [
        {
          "internalType": "address",
          "name": "owner",
          "type": "address"
        },
        {
          "internalType": "uint256",
          "name": "id",
          "type": "uint256"
        }
      ],
      "name": "balanceOf",
      "outputs": [
        {
          "internalType": "uint256",
          "name": "result",
          "type": "uint256"
        }
      ],
      "stateMutability": "view",
      "type": "function"
    },
    {
      "inputs": [
        {
          "internalType": "address[]",
          "name": "owners",
          "type": "address[]"
        },
        {
          "internalType": "uint256[]",
          "name": "ids",
          "type": "uint256[]"
        }
      ],
      "name": "balanceOfBatch",
      "outputs": [
        {
          "internalType": "uint256[]",
          "name": "balances",
          "type": "uint256[]"
        }
      ],
      "stateMutability": "view",
      "type": "function"
    },
    {
      "inputs": [],
      "name": "cancelOwnershipHandover",
      "outputs": [],
      "stateMutability": "payable",
      "type": "function"
    },
    {
      "inputs": [
        {
          "internalType": "address",
          "name": "pendingOwner",
          "type": "address"
        }
      ],
      "name": "completeOwnershipHandover",
      "outputs": [],
      "stateMutability": "payable",
      "type": "function"
    },
    {
      "inputs": [],
      "name": "imageIPFSCID",
      "outputs": [
        {
          "internalType": "string",
          "name": "",
          "type": "string"
        }
      ],
      "stateMutability": "view",
      "type": "function"
    },
    {
      "inputs": [
        {
          "internalType": "address",
          "name": "royaltyRecipient_",
          "type": "address"
        },
        {
          "internalType": "address",
          "name": "minterAddress_",
          "type": "address"
        },
        {
          "internalType": "uint256",
          "name": "royaltyFee_",
          "type": "uint256"
        },
        {
          "internalType": "address",
          "name": "owner_",
          "type": "address"
        },
        {
          "internalType": "string",
          "name": "imageIPFSCID_",
          "type": "string"
        }
      ],
      "name": "initialize",
      "outputs": [],
      "stateMutability": "nonpayable",
      "type": "function"
    },
    {
      "inputs": [
        {
          "internalType": "address",
          "name": "owner",
          "type": "address"
        },
        {
          "internalType": "address",
          "name": "operator",
          "type": "address"
        }
      ],
      "name": "isApprovedForAll",
      "outputs": [
        {
          "internalType": "bool",
          "name": "result",
          "type": "bool"
        }
      ],
      "stateMutability": "view",
      "type": "function"
    },
    {
      "inputs": [
        {
          "internalType": "address",
          "name": "to_",
          "type": "address"
        },
        {
          "internalType": "uint256",
          "name": "id_",
          "type": "uint256"
        },
        {
          "internalType": "uint256",
          "name": "amount_",
          "type": "uint256"
        },
        {
          "internalType": "bytes",
          "name": "data_",
          "type": "bytes"
        }
      ],
      "name": "mint",
      "outputs": [],
      "stateMutability": "nonpayable",
      "type": "function"
    },
    {
      "inputs": [
        {
          "internalType": "address",
          "name": "to_",
          "type": "address"
        },
        {
          "internalType": "uint256[]",
          "name": "ids_",
          "type": "uint256[]"
        },
        {
          "internalType": "uint256[]",
          "name": "amounts_",
          "type": "uint256[]"
        },
        {
          "internalType": "bytes",
          "name": "data_",
          "type": "bytes"
        }
      ],
      "name": "mintBatch",
      "outputs": [],
      "stateMutability": "nonpayable",
      "type": "function"
    },
    {
      "inputs": [],
      "name": "minterAddress",
      "outputs": [
        {
          "internalType": "address",
          "name": "",
          "type": "address"
        }
      ],
      "stateMutability": "view",
      "type": "function"
    },
    {
      "inputs": [],
      "name": "owner",
      "outputs": [
        {
          "internalType": "address",
          "name": "result",
          "type": "address"
        }
      ],
      "stateMutability": "view",
      "type": "function"
    },
    {
      "inputs": [
        {
          "internalType": "address",
          "name": "pendingOwner",
          "type": "address"
        }
      ],
      "name": "ownershipHandoverExpiresAt",
      "outputs": [
        {
          "internalType": "uint256",
          "name": "result",
          "type": "uint256"
        }
      ],
      "stateMutability": "view",
      "type": "function"
    },
    {
      "inputs": [],
      "name": "ownershipHandoverValidFor",
      "outputs": [
        {
          "internalType": "uint64",
          "name": "",
          "type": "uint64"
        }
      ],
      "stateMutability": "view",
      "type": "function"
    },
    {
      "inputs": [],
      "name": "renounceOwnership",
      "outputs": [],
      "stateMutability": "payable",
      "type": "function"
    },
    {
      "inputs": [],
      "name": "requestOwnershipHandover",
      "outputs": [],
      "stateMutability": "payable",
      "type": "function"
    },
    {
      "inputs": [],
      "name": "royaltyFee",
      "outputs": [
        {
          "internalType": "uint256",
          "name": "",
          "type": "uint256"
        }
      ],
      "stateMutability": "view",
      "type": "function"
    },
    {
      "inputs": [
        {
          "internalType": "uint256",
          "name": "",
          "type": "uint256"
        },
        {
          "internalType": "uint256",
          "name": "salePrice_",
          "type": "uint256"
        }
      ],
      "name": "royaltyInfo",
      "outputs": [
        {
          "internalType": "address",
          "name": "receiver",
          "type": "address"
        },
        {
          "internalType": "uint256",
          "name": "royaltyAmount",
          "type": "uint256"
        }
      ],
      "stateMutability": "view",
      "type": "function"
    },
    {
      "inputs": [],
      "name": "royaltyRecipient",
      "outputs": [
        {
          "internalType": "address",
          "name": "",
          "type": "address"
        }
      ],
      "stateMutability": "view",
      "type": "function"
    },
    {
      "inputs": [
        {
          "internalType": "address",
          "name": "from",
          "type": "address"
        },
        {
          "internalType": "address",
          "name": "to",
          "type": "address"
        },
        {
          "internalType": "uint256[]",
          "name": "ids",
          "type": "uint256[]"
        },
        {
          "internalType": "uint256[]",
          "name": "amounts",
          "type": "uint256[]"
        },
        {
          "internalType": "bytes",
          "name": "data",
          "type": "bytes"
        }
      ],
      "name": "safeBatchTransferFrom",
      "outputs": [],
      "stateMutability": "nonpayable",
      "type": "function"
    },
    {
      "inputs": [
        {
          "internalType": "address",
          "name": "from",
          "type": "address"
        },
        {
          "internalType": "address",
          "name": "to",
          "type": "address"
        },
        {
          "internalType": "uint256",
          "name": "id",
          "type": "uint256"
        },
        {
          "internalType": "uint256",
          "name": "amount",
          "type": "uint256"
        },
        {
          "internalType": "bytes",
          "name": "data",
          "type": "bytes"
        }
      ],
      "name": "safeTransferFrom",
      "outputs": [],
      "stateMutability": "nonpayable",
      "type": "function"
    },
    {
      "inputs": [
        {
          "internalType": "address",
          "name": "operator",
          "type": "address"
        },
        {
          "internalType": "bool",
          "name": "isApproved",
          "type": "bool"
        }
      ],
      "name": "setApprovalForAll",
      "outputs": [],
      "stateMutability": "nonpayable",
      "type": "function"
    },
    {
      "inputs": [
        {
          "internalType": "string",
          "name": "imageIPFSCID_",
          "type": "string"
        }
      ],
      "name": "setImageIPFSCID",
      "outputs": [],
      "stateMutability": "nonpayable",
      "type": "function"
    },
    {
      "inputs": [
        {
          "internalType": "address",
          "name": "minterAddress_",
          "type": "address"
        }
      ],
      "name": "setMinterAddress",
      "outputs": [],
      "stateMutability": "nonpayable",
      "type": "function"
    },
    {
      "inputs": [
        {
          "internalType": "uint256",
          "name": "royaltyFee_",
          "type": "uint256"
        }
      ],
      "name": "setRoyaltyFee",
      "outputs": [],
      "stateMutability": "nonpayable",
      "type": "function"
    },
    {
      "inputs": [
        {
          "internalType": "address",
          "name": "royaltyRecipient_",
          "type": "address"
        }
      ],
      "name": "setRoyaltyRecipient",
      "outputs": [],
      "stateMutability": "nonpayable",
      "type": "function"
    },
    {
      "inputs": [
        {
          "internalType": "bytes4",
          "name": "interfaceId_",
          "type": "bytes4"
        }
      ],
      "name": "supportsInterface",
      "outputs": [
        {
          "internalType": "bool",
          "name": "",
          "type": "bool"
        }
      ],
      "stateMutability": "view",
      "type": "function"
    },
    {
      "inputs": [
        {
          "internalType": "address",
          "name": "newOwner",
          "type": "address"
        }
      ],
      "name": "transferOwnership",
      "outputs": [],
      "stateMutability": "payable",
      "type": "function"
    },
    {
      "inputs": [
        {
          "internalType": "uint256",
          "name": "tokenId_",
          "type": "uint256"
        }
      ],
      "name": "uri",
      "outputs": [
        {
          "internalType": "string",
          "name": "",
          "type": "string"
        }
      ],
      "stateMutability": "view",
      "type": "function"
    }
  ],
  "transactionHash": "0xb0991f841e05119d0f93797092171a82c661ace51dc88cc314cbb0d40028b553",
  "args": [],
  "numDeployments": 2,
  "solcInputHash": "15d310e06733a1cf603dcb43236dcc91",
  "bytecode": "0x608060405234801561001057600080fd5b5061001961001e565b6100de565b600054610100900460ff161561008a5760405162461bcd60e51b815260206004820152602760248201527f496e697469616c697a61626c653a20636f6e747261637420697320696e697469604482015266616c697a696e6760c81b606482015260840160405180910390fd5b60005460ff90811610156100dc576000805460ff191660ff9081179091556040519081527f7f26b83ff96e1f2b6a682f133852f6798a09c465da95921460cefb38474024989060200160405180910390a15b565b61225680620000ee6000396000f3fe6080604052600436106101b65760003560e01c80635ea3af4c116100ec578063b8997a971161008a578063f04e283e11610064578063f04e283e14610538578063f242432a1461054b578063f2fde38b1461056b578063fee81cf41461057e57600080fd5b8063b8997a97146104cb578063d7533f02146104e1578063e985e9c5146104ff57600080fd5b80638da5cb5b116100c65780638da5cb5b14610452578063a22cb4651461046b578063a3106b951461048b578063a4a53539146104ab57600080fd5b80635ea3af4c1461040a578063715018a61461042a578063731133e91461043257600080fd5b806334d722c911610159578063498719bc11610133578063498719bc1461038d5780634c00de82146103a25780634e1273f4146103d557806354d1f13d1461040257600080fd5b806334d722c9146102fb5780633e4086e51461034d57806341e42f301461036d57600080fd5b80631f7fdffa116101955780631f7fdffa1461026557806325692962146102875780632a55205a1461028f5780632eb2c2d6146102db57600080fd5b8062fdd58e146101bb57806301ffc9a7146102085780630e89341c14610238575b600080fd5b3480156101c757600080fd5b506101f56101d6366004611718565b679a31110384e0b0c96020526014919091526000908152604090205490565b6040519081526020015b60405180910390f35b34801561021457600080fd5b50610228610223366004611742565b6105b1565b60405190151581526020016101ff565b34801561024457600080fd5b5061025861025336600461178b565b61062a565b6040516101ff91906117c8565b34801561027157600080fd5b5061028561028036600461194b565b610669565b005b6102856106cc565b34801561029b57600080fd5b506102af6102aa3660046119e4565b61071c565b6040805173ffffffffffffffffffffffffffffffffffffffff90931683526020830191909152016101ff565b3480156102e757600080fd5b506102856102f6366004611a8d565b610768565b34801561030757600080fd5b506001546103289073ffffffffffffffffffffffffffffffffffffffff1681565b60405173ffffffffffffffffffffffffffffffffffffffff90911681526020016101ff565b34801561035957600080fd5b5061028561036836600461178b565b6109cd565b34801561037957600080fd5b50610285610388366004611b48565b610a08565b34801561039957600080fd5b50610258610a5d565b3480156103ae57600080fd5b506000546103289062010000900473ffffffffffffffffffffffffffffffffffffffff1681565b3480156103e157600080fd5b506103f56103f0366004611b63565b610aeb565b6040516101ff9190611bcf565b610285610b5b565b34801561041657600080fd5b50610285610425366004611c13565b610b97565b610285610dc1565b34801561043e57600080fd5b5061028561044d366004611c8c565b610dd5565b34801561045e57600080fd5b50638b78c6d81954610328565b34801561047757600080fd5b50610285610486366004611ce1565b610e32565b34801561049757600080fd5b506102856104a6366004611b48565b610e88565b3480156104b757600080fd5b506102856104c6366004611d1d565b610eff565b3480156104d757600080fd5b506101f560025481565b3480156104ed57600080fd5b506040516202a30081526020016101ff565b34801561050b57600080fd5b5061022861051a366004611d5a565b679a31110384e0b0c96020526014919091526000526034600c205490565b610285610546366004611b48565b610f17565b34801561055757600080fd5b50610285610566366004611d8d565b610f57565b610285610579366004611b48565b6110df565b34801561058a57600080fd5b506101f5610599366004611b48565b63389a75e1600c908152600091909152602090205490565b60007fffffffff0000000000000000000000000000000000000000000000000000000082167f2a55205a0000000000000000000000000000000000000000000000000000000014806106245750610624826301ffc9a760e09190911c90811463d9b67a26821417630e89341c9091141790565b92915050565b6060600061063783611106565b9050610642816111c4565b6040516020016106529190611e05565b604051602081830303815290604052915050919050565b60015473ffffffffffffffffffffffffffffffffffffffff1633146106ba576040517f9cdc2ed500000000000000000000000000000000000000000000000000000000815260040160405180910390fd5b6106c6848484846111d2565b50505050565b60006202a30067ffffffffffffffff164201905063389a75e1600c5233600052806020600c2055337fdbf36a107da19e49527a7176a1babf963b4b0ff8cde35ee35d6cd8f1f9ac7e1d600080a250565b6000806000612710600254856107329190611e4a565b61073c9190611e88565b60005462010000900473ffffffffffffffffffffffffffffffffffffffff1693509150505b9250929050565b82851461077d57633b800a466000526004601cfd5b8760601b679a31110384e0b0c9178760601b679a31110384e0b0c917816020528160601c99508060601c9850886107bc5763ea553b346000526004601cfd5b8933146107df57336000526034600c20546107df57634b6e7f186000526004601cfd5b8660051b60005b818114610850578088013584602052818b013560005260406000208054808311156108195763f4d678b86000526004601cfd5b829003905560208490526040600020805480830181811015610843576301336cea6000526004601cfd5b90915550506020016107e6565b50505050604051604081528560051b602001604082018160208a03823760408201602084810191909152600587901b01910181601f198801823701819003888a337f4a39dc06d4c0dbc64b70af90fd698a233a518aa5d07e595d983b8c0526c8f7fb8486a450506108bf600090565b156108d4576108d488888888888888886112ec565b863b156109c35760405163bc197c81815233602082015288604082015260a060608201528560051b60200160c082018160208a0382378160a00180608085015282820191508660051b602001925082602089038337820160a084015260208401910181601f1986018237018190037fffffffffffffffffffffffffffffffffffffffffffffffffffffffffffffffe40160208282601c820160008d5af161098a573d15610985573d6000803e3d6000fd5b600082525b5080517fbc197c8100000000000000000000000000000000000000000000000000000000146109c157639c05499b6000526004601cfd5b505b5050505050505050565b6109d56112f1565b600281905560405181907fc36422dcc77a5c93a5c48743078f8130c9fcc2a0ff893904ee62a3565688117c90600090a250565b610a106112f1565b6000805473ffffffffffffffffffffffffffffffffffffffff90921662010000027fffffffffffffffffffff0000000000000000000000000000000000000000ffff909216919091179055565b60038054610a6a90611ec3565b80601f0160208091040260200160405190810160405280929190818152602001828054610a9690611ec3565b8015610ae35780601f10610ab857610100808354040283529160200191610ae3565b820191906000526020600020905b815481529060010190602001808311610ac657829003601f168201915b505050505081565b6060838214610b0257633b800a466000526004601cfd5b6040519050818152602081018260051b81810160405260005b818114610b5057679a31110384e0b0c98882013560601b17602090815286820135600090815260409020548483015201610b1b565b505050949350505050565b63389a75e1600c523360005260006020600c2055337ffa7b8eab7da67f412cc9575ed43464468f9bfbae89d1675917346ca6d8fe3c92600080a2565b600054610100900460ff1615808015610bb75750600054600160ff909116105b80610bd15750303b158015610bd1575060005460ff166001145b610c61576040517f08c379a000000000000000000000000000000000000000000000000000000000815260206004820152602e60248201527f496e697469616c697a61626c653a20636f6e747261637420697320616c72656160448201527f647920696e697469616c697a6564000000000000000000000000000000000000606482015260840160405180910390fd5b600080547fffffffffffffffffffffffffffffffffffffffffffffffffffffffffffffff001660011790558015610cbf57600080547fffffffffffffffffffffffffffffffffffffffffffffffffffffffffffff00ff166101001790555b610cc88361130c565b600080547fffffffffffffffffffff0000000000000000000000000000000000000000ffff166201000073ffffffffffffffffffffffffffffffffffffffff8981169190910291909117909155600180547fffffffffffffffffffffffff00000000000000000000000000000000000000001691871691909117905560028490556003610d558382611f61565b508015610db957600080547fffffffffffffffffffffffffffffffffffffffffffffffffffffffffffff00ff169055604051600181527f7f26b83ff96e1f2b6a682f133852f6798a09c465da95921460cefb38474024989060200160405180910390a15b505050505050565b610dc96112f1565b610dd36000611355565b565b60015473ffffffffffffffffffffffffffffffffffffffff163314610e26576040517f9cdc2ed500000000000000000000000000000000000000000000000000000000815260040160405180910390fd5b6106c6848484846113a0565b8015159050679a31110384e0b0c96020523360145281600052806034600c2055806000528160601b60601c337f17307eab39ab6107e8899845ad3d59bd9653f200f220920489ca2b5937696c3160206000a35050565b610e906112f1565b600180547fffffffffffffffffffffffff00000000000000000000000000000000000000001673ffffffffffffffffffffffffffffffffffffffff83169081179091556040517f09e32743122b4d02dc06c38a35ee1587a02854644d47574bb35a6ef75a22fa9890600090a250565b610f076112f1565b6003610f138282611f61565b5050565b610f1f6112f1565b63389a75e1600c52806000526020600c208054421115610f4757636f5e88186000526004601cfd5b60009055610f5481611355565b50565b8560601b679a31110384e0b0c9178560601b679a31110384e0b0c917816020528160601c97508060601c965086610f965763ea553b346000526004601cfd5b873314610fb957336000526034600c2054610fb957634b6e7f186000526004601cfd5b8560005260406000209150815480861115610fdc5763f4d678b86000526004601cfd5b8581038355508060205260406000209150815485810181811015611008576301336cea6000526004601cfd5b909255505060208390528486337fc3d58168c5ae7397731d063d5bbf3d657854427343f4c083240f7aacaa2d0f6260406000a4843b15610db95760405163f23a6e61815233602082015286604082015284606082015283608082015260a080820152816020016020840360c08301376020818360c401601c840160008a5af16110a0573d1561109b573d6000803e3d6000fd5b600081525b80517ff23a6e6100000000000000000000000000000000000000000000000000000000146110d657639c05499b6000526004601cfd5b50505050505050565b6110e76112f1565b8060601b6110fd57637448fbae6000526004601cfd5b610f5481611355565b6060600061119d6003805461111a90611ec3565b80601f016020809104026020016040519081016040528092919081815260200182805461114690611ec3565b80156111935780601f1061116857610100808354040283529160200191611193565b820191906000526020600020905b81548152906001019060200180831161117657829003601f168201915b505050505061143c565b6040516020016111ad919061205d565b60408051601f198184030181529190529392505050565b606061062482600080611465565b81518351146111e957633b800a466000526004601cfd5b8360601b806112005763ea553b346000526004601cfd5b80679a31110384e0b0c917602052835160051b60005b818114611259576020810190508085015181870151600052604060002080548281018181101561124e576301336cea6000526004601cfd5b909155506112169050565b505060405160408152845160051b602001604082018181838960045afa503d60400160208401523d81019050855160051b60200191508181838860045afa50823d8201039150508260601c6000337f4a39dc06d4c0dbc64b70af90fd698a233a518aa5d07e595d983b8c0526c8f7fb8486a45050506112d6600090565b50833b156106c6576106c6600085858585611568565b6109c3565b638b78c6d819543314610dd3576382b429006000526004601cfd5b73ffffffffffffffffffffffffffffffffffffffff16638b78c6d8198190558060007f8be0079c531659141344cd1fd0a4f28419497f9722a3daafe3b4186f6b6457e08180a350565b638b78c6d819805473ffffffffffffffffffffffffffffffffffffffff9092169182907f8be0079c531659141344cd1fd0a4f28419497f9722a3daafe3b4186f6b6457e0600080a355565b8360601b806113b75763ea553b346000526004601cfd5b679a31110384e0b0c9602052846014528360005260406000208054848101818110156113eb576301336cea6000526004601cfd5b80835550505083600052826020528060601c6000337fc3d58168c5ae7397731d063d5bbf3d657854427343f4c083240f7aacaa2d0f6260406000a450833b156106c6576106c6600085858585611643565b60608160405160200161144f91906121db565b6040516020818303038152906040529050919050565b606083518015611560576003600282010460021b60405192507f4142434445464748494a4b4c4d4e4f505152535455565758595a616263646566601f526102308515027f6768696a6b6c6d6e6f707172737475767778797a303132333435363738392d5f03603f52602083018181015b6003880197508751603f8160121c1651600053603f81600c1c1651600153603f8160061c1651600253603f8116516003535060005182526004820191508082106114d5576020016040527f3d3d000000000000000000000000000000000000000000000000000000000000600384066002048083039190915260008615159091029182900352900382525b509392505050565b60405163bc197c8181523360208201528560601b60601c604082015260a06060820152835160051b60200160c082018181838860045afa503d60a0018060808501523d82019150855160051b60200192508282848860045afa503d0160a0840152835160200191503d018181818660045afa50601c83013d82010391505060208282601c850160008a5af161160c573d15611607573d6000803e3d6000fd5b600082525b5080517fbc197c810000000000000000000000000000000000000000000000000000000014610db957639c05499b6000526004601cfd5b60405163f23a6e6181523360208201528560601b60601c604082015283606082015282608082015260a08082015281518060c0830152801561168f578060e08301826020860160045afa505b6020828260c401601c850160008a5af16116b8573d156116b3573d6000803e3d6000fd5b600082525b5080517ff23a6e610000000000000000000000000000000000000000000000000000000014610db957639c05499b6000526004601cfd5b803573ffffffffffffffffffffffffffffffffffffffff8116811461171357600080fd5b919050565b6000806040838503121561172b57600080fd5b611734836116ef565b946020939093013593505050565b60006020828403121561175457600080fd5b81357fffffffff000000000000000000000000000000000000000000000000000000008116811461178457600080fd5b9392505050565b60006020828403121561179d57600080fd5b5035919050565b60005b838110156117bf5781810151838201526020016117a7565b50506000910152565b60208152600082518060208401526117e78160408501602087016117a4565b601f01601f19169190910160400192915050565b7f4e487b7100000000000000000000000000000000000000000000000000000000600052604160045260246000fd5b604051601f8201601f1916810167ffffffffffffffff81118282101715611853576118536117fb565b604052919050565b600082601f83011261186c57600080fd5b8135602067ffffffffffffffff821115611888576118886117fb565b8160051b61189782820161182a565b92835284810182019282810190878511156118b157600080fd5b83870192505b848310156118d0578235825291830191908301906118b7565b979650505050505050565b600082601f8301126118ec57600080fd5b813567ffffffffffffffff811115611906576119066117fb565b6119196020601f19601f8401160161182a565b81815284602083860101111561192e57600080fd5b816020850160208301376000918101602001919091529392505050565b6000806000806080858703121561196157600080fd5b61196a856116ef565b9350602085013567ffffffffffffffff8082111561198757600080fd5b6119938883890161185b565b945060408701359150808211156119a957600080fd5b6119b58883890161185b565b935060608701359150808211156119cb57600080fd5b506119d8878288016118db565b91505092959194509250565b600080604083850312156119f757600080fd5b50508035926020909101359150565b60008083601f840112611a1857600080fd5b50813567ffffffffffffffff811115611a3057600080fd5b6020830191508360208260051b850101111561076157600080fd5b60008083601f840112611a5d57600080fd5b50813567ffffffffffffffff811115611a7557600080fd5b60208301915083602082850101111561076157600080fd5b60008060008060008060008060a0898b031215611aa957600080fd5b611ab2896116ef565b9750611ac060208a016116ef565b9650604089013567ffffffffffffffff80821115611add57600080fd5b611ae98c838d01611a06565b909850965060608b0135915080821115611b0257600080fd5b611b0e8c838d01611a06565b909650945060808b0135915080821115611b2757600080fd5b50611b348b828c01611a4b565b999c989b5096995094979396929594505050565b600060208284031215611b5a57600080fd5b611784826116ef565b60008060008060408587031215611b7957600080fd5b843567ffffffffffffffff80821115611b9157600080fd5b611b9d88838901611a06565b90965094506020870135915080821115611bb657600080fd5b50611bc387828801611a06565b95989497509550505050565b6020808252825182820181905260009190848201906040850190845b81811015611c0757835183529284019291840191600101611beb565b50909695505050505050565b600080600080600060a08688031215611c2b57600080fd5b611c34866116ef565b9450611c42602087016116ef565b935060408601359250611c57606087016116ef565b9150608086013567ffffffffffffffff811115611c7357600080fd5b611c7f888289016118db565b9150509295509295909350565b60008060008060808587031215611ca257600080fd5b611cab856116ef565b93506020850135925060408501359150606085013567ffffffffffffffff811115611cd557600080fd5b6119d8878288016118db565b60008060408385031215611cf457600080fd5b611cfd836116ef565b915060208301358015158114611d1257600080fd5b809150509250929050565b600060208284031215611d2f57600080fd5b813567ffffffffffffffff811115611d4657600080fd5b611d52848285016118db565b949350505050565b60008060408385031215611d6d57600080fd5b611d76836116ef565b9150611d84602084016116ef565b90509250929050565b60008060008060008060a08789031215611da657600080fd5b611daf876116ef565b9550611dbd602088016116ef565b94506040870135935060608701359250608087013567ffffffffffffffff811115611de757600080fd5b611df389828a01611a4b565b979a9699509497509295939492505050565b7f646174613a6170706c69636174696f6e2f6a736f6e3b6261736536342c000000815260008251611e3d81601d8501602087016117a4565b91909101601d0192915050565b8082028115828204841417610624577f4e487b7100000000000000000000000000000000000000000000000000000000600052601160045260246000fd5b600082611ebe577f4e487b7100000000000000000000000000000000000000000000000000000000600052601260045260246000fd5b500490565b600181811c90821680611ed757607f821691505b602082108103611f10577f4e487b7100000000000000000000000000000000000000000000000000000000600052602260045260246000fd5b50919050565b601f821115611f5c57600081815260208120601f850160051c81016020861015611f3d5750805b601f850160051c820191505b81811015610db957828155600101611f49565b505050565b815167ffffffffffffffff811115611f7b57611f7b6117fb565b611f8f81611f898454611ec3565b84611f16565b602080601f831160018114611fe25760008415611fac5750858301515b7fffffffffffffffffffffffffffffffffffffffffffffffffffffffffffffffff600386901b1c1916600185901b178555610db9565b600085815260208120601f198616915b8281101561201157888601518255948401946001909101908401611ff2565b508582101561204d57878501517fffffffffffffffffffffffffffffffffffffffffffffffffffffffffffffffff600388901b60f8161c191681555b5050505050600190811b01905550565b7f7b0000000000000000000000000000000000000000000000000000000000000081527f226e616d65223a2022000000000000000000000000000000000000000000000060018201527f526162626974486f6c65205469636b6574000000000000000000000000000000600a82015260007f222c00000000000000000000000000000000000000000000000000000000000080601b8401527f226465736372697074696f6e223a202200000000000000000000000000000000601d8401527f526162626974486f6c65205469636b6574730000000000000000000000000000602d84015280603f840152507f22696d616765223a2022000000000000000000000000000000000000000000006041830152825161218181604b8501602087016117a4565b7f2200000000000000000000000000000000000000000000000000000000000000604b9390910192830152507f7d00000000000000000000000000000000000000000000000000000000000000604c820152604d01919050565b7f697066733a2f2f000000000000000000000000000000000000000000000000008152600082516122138160078501602087016117a4565b919091016007019291505056fea26469706673582212204c6042b571ae3d42b322cda85fd087f6da29470efd7eefda583009a1e93c23eb64736f6c63430008120033",
  "devdoc": {
    "errors": {
      "AccountBalanceOverflow()": [
        {
          "details": "The recipient's balance has overflowed."
        }
      ],
      "ArrayLengthsMismatch()": [
        {
          "details": "The lengths of the input arrays are not the same."
        }
      ],
      "InsufficientBalance()": [
        {
          "details": "Insufficient balance."
        }
      ],
      "NewOwnerIsZeroAddress()": [
        {
          "details": "The `newOwner` cannot be the zero address."
        }
      ],
      "NoHandoverRequest()": [
        {
          "details": "The `pendingOwner` does not have a valid handover request."
        }
      ],
      "NotOwnerNorApproved()": [
        {
          "details": "Only the token owner or an approved account can manage the tokens."
        }
      ],
      "TransferToNonERC1155ReceiverImplementer()": [
        {
          "details": "Cannot safely transfer to a contract that does not implement the ERC1155Receiver interface."
        }
      ],
      "TransferToZeroAddress()": [
        {
          "details": "Cannot mint or transfer to the zero address."
        }
      ],
      "Unauthorized()": [
        {
          "details": "The caller is not authorized to call the function."
        }
      ]
    },
    "events": {
      "ApprovalForAll(address,address,bool)": {
        "details": "Emitted when `owner` enables or disables `operator` to manage all of their tokens."
      },
      "Initialized(uint8)": {
        "details": "Triggered when the contract has been initialized or reinitialized."
      },
      "OwnershipHandoverCanceled(address)": {
        "details": "The ownership handover to `pendingOwner` has been canceled."
      },
      "OwnershipHandoverRequested(address)": {
        "details": "An ownership handover to `pendingOwner` has been requested."
      },
      "OwnershipTransferred(address,address)": {
        "details": "The ownership is transferred from `oldOwner` to `newOwner`. This event is intentionally kept the same as OpenZeppelin's Ownable to be compatible with indexers and [EIP-173](https://eips.ethereum.org/EIPS/eip-173), despite it not being as lightweight as a single argument event."
      },
      "TransferBatch(address,address,address,uint256[],uint256[])": {
        "details": "Emitted when `amounts` of token `ids` are transferred from `from` to `to` by `operator`."
      },
      "TransferSingle(address,address,address,uint256,uint256)": {
        "details": "Emitted when `amount` of token `id` is transferred from `from` to `to` by `operator`."
      },
      "URI(string,uint256)": {
        "details": "Emitted when the Uniform Resource Identifier (URI) for token `id` is updated to `value`. This event is not used in the base contract. You may need to emit this event depending on your URI logic. See: https://eips.ethereum.org/EIPS/eip-1155#metadata"
      }
    },
    "kind": "dev",
    "methods": {
      "balanceOf(address,uint256)": {
        "details": "Returns the amount of `id` owned by `owner`."
      },
      "balanceOfBatch(address[],uint256[])": {
        "details": "Returns the amounts of `ids` for `owners. Requirements: - `owners` and `ids` must have the same length."
      },
      "cancelOwnershipHandover()": {
        "details": "Cancels the two-step ownership handover to the caller, if any."
      },
      "completeOwnershipHandover(address)": {
        "details": "Allows the owner to complete the two-step ownership handover to `pendingOwner`. Reverts if there is no existing ownership handover requested by `pendingOwner`."
      },
      "constructor": {
        "custom:oz-upgrades-unsafe-allow": "constructor"
      },
      "isApprovedForAll(address,address)": {
        "details": "Returns whether `operator` is approved to manage the tokens of `owner`."
      },
      "mint(address,uint256,uint256,bytes)": {
        "details": "mint a single ticket, only callable by the allowed minter",
        "params": {
          "amount_": "the amount of the ticket to mint",
          "data_": "the data to pass to the mint function",
          "id_": "the id of the ticket to mint",
          "to_": "the address to mint the ticket to"
        }
      },
      "mintBatch(address,uint256[],uint256[],bytes)": {
        "details": "mint a batch of tickets, only callable by the allowed minter",
        "params": {
          "amounts_": "the amounts of the tickets to mint",
          "data_": "the data to pass to the mint function",
          "ids_": "the ids of the tickets to mint",
          "to_": "the address to mint the tickets to"
        }
      },
      "owner()": {
        "details": "Returns the owner of the contract."
      },
      "ownershipHandoverExpiresAt(address)": {
        "details": "Returns the expiry timestamp for the two-step ownership handover to `pendingOwner`."
      },
      "ownershipHandoverValidFor()": {
        "details": "Returns how long a two-step ownership handover is valid for in seconds."
      },
      "renounceOwnership()": {
        "details": "Allows the owner to renounce their ownership."
      },
      "requestOwnershipHandover()": {
        "details": "Request a two-step ownership handover to the caller. The request will be automatically expire in 48 hours (172800 seconds) by default."
      },
      "royaltyInfo(uint256,uint256)": {
        "details": "See {IERC165-royaltyInfo}",
        "params": {
          "salePrice_": "the sale price"
        }
      },
      "safeBatchTransferFrom(address,address,uint256[],uint256[],bytes)": {
        "details": "Transfers `amounts` of `ids` from `from` to `to`. Requirements: - `to` cannot be the zero address. - `from` must have at least `amount` of `id`. - `ids` and `amounts` must have the same length. - If the caller is not `from`,   it must be approved to manage the tokens of `from`. - If `to` refers to a smart contract, it must implement   {ERC1155-onERC1155BatchReveived}, which is called upon a batch transfer. Emits a {TransferBatch} event."
      },
      "safeTransferFrom(address,address,uint256,uint256,bytes)": {
        "details": "Transfers `amount` of `id` from `from` to `to`. Requirements: - `to` cannot be the zero address. - `from` must have at least `amount` of `id`. - If the caller is not `from`,   it must be approved to manage the tokens of `from`. - If `to` refers to a smart contract, it must implement   {ERC1155-onERC1155Reveived}, which is called upon a batch transfer. Emits a {Transfer} event."
      },
      "setApprovalForAll(address,bool)": {
        "details": "Sets whether `operator` is approved to manage the tokens of the caller. Emits a {ApprovalForAll} event."
      },
      "setImageIPFSCID(string)": {
        "details": "set the image IPFS CID",
        "params": {
          "imageIPFSCID_": "the image IPFS CID"
        }
      },
      "setMinterAddress(address)": {
        "details": "set the minter address",
        "params": {
          "minterAddress_": "the address of the minter"
        }
      },
      "setRoyaltyFee(uint256)": {
        "details": "set the royalty fee",
        "params": {
          "royaltyFee_": "the royalty fee"
        }
      },
      "setRoyaltyRecipient(address)": {
        "details": "set the royalty recipient",
        "params": {
          "royaltyRecipient_": "the address of the royalty recipient"
        }
      },
      "supportsInterface(bytes4)": {
        "details": "returns true if the supplied interface id is supported",
        "params": {
          "interfaceId_": "the interface id"
        }
      },
      "transferOwnership(address)": {
        "details": "Allows the owner to transfer the ownership to `newOwner`."
      },
      "uri(uint256)": {
        "details": "returns the token uri",
        "params": {
          "tokenId_": "the token id"
        }
      }
    },
    "version": 1
  },
  "userdoc": {
    "kind": "user",
    "methods": {},
    "version": 1
  },
  "storageLayout": {
    "storage": [
      {
        "astId": 434,
        "contract": "contracts/RabbitHoleTickets.sol:RabbitHoleTickets",
        "label": "_initialized",
        "offset": 0,
        "slot": "0",
        "type": "t_uint8"
      },
      {
        "astId": 437,
        "contract": "contracts/RabbitHoleTickets.sol:RabbitHoleTickets",
        "label": "_initializing",
        "offset": 1,
        "slot": "0",
        "type": "t_bool"
      },
      {
        "astId": 9047,
        "contract": "contracts/RabbitHoleTickets.sol:RabbitHoleTickets",
        "label": "royaltyRecipient",
        "offset": 2,
        "slot": "0",
        "type": "t_address"
      },
      {
        "astId": 9049,
        "contract": "contracts/RabbitHoleTickets.sol:RabbitHoleTickets",
        "label": "minterAddress",
        "offset": 0,
        "slot": "1",
        "type": "t_address"
      },
      {
        "astId": 9051,
        "contract": "contracts/RabbitHoleTickets.sol:RabbitHoleTickets",
        "label": "royaltyFee",
        "offset": 0,
        "slot": "2",
        "type": "t_uint256"
      },
      {
        "astId": 9053,
        "contract": "contracts/RabbitHoleTickets.sol:RabbitHoleTickets",
        "label": "imageIPFSCID",
        "offset": 0,
        "slot": "3",
        "type": "t_string_storage"
      }
    ],
    "types": {
      "t_address": {
        "encoding": "inplace",
        "label": "address",
        "numberOfBytes": "20"
      },
      "t_bool": {
        "encoding": "inplace",
        "label": "bool",
        "numberOfBytes": "1"
      },
      "t_string_storage": {
        "encoding": "bytes",
        "label": "string",
        "numberOfBytes": "32"
      },
      "t_uint256": {
        "encoding": "inplace",
        "label": "uint256",
        "numberOfBytes": "32"
      },
      "t_uint8": {
        "encoding": "inplace",
        "label": "uint8",
        "numberOfBytes": "1"
      }
    }
  }
}