{
  "address": "0xb7d86a00f1fa52DC39646467A4CeFec215de41a3",
  "abi": [
    {
      "inputs": [],
      "stateMutability": "nonpayable",
      "type": "constructor"
    },
    {
      "anonymous": false,
      "inputs": [
        {
          "indexed": true,
          "internalType": "address",
          "name": "owner",
          "type": "address"
        },
        {
          "indexed": true,
          "internalType": "address",
          "name": "approved",
          "type": "address"
        },
        {
          "indexed": true,
          "internalType": "uint256",
          "name": "tokenId",
          "type": "uint256"
        }
      ],
      "name": "Approval",
      "type": "event"
    },
    {
      "anonymous": false,
      "inputs": [
        {
          "indexed": true,
          "internalType": "address",
          "name": "owner",
          "type": "address"
        },
        {
          "indexed": true,
          "internalType": "address",
          "name": "operator",
          "type": "address"
        },
        {
          "indexed": false,
          "internalType": "bool",
          "name": "approved",
          "type": "bool"
        }
      ],
      "name": "ApprovalForAll",
      "type": "event"
    },
    {
      "anonymous": false,
      "inputs": [
        {
          "indexed": false,
          "internalType": "uint8",
          "name": "version",
          "type": "uint8"
        }
      ],
      "name": "Initialized",
      "type": "event"
    },
    {
      "anonymous": false,
      "inputs": [
        {
          "indexed": true,
          "internalType": "address",
          "name": "minterAddress",
          "type": "address"
        }
      ],
      "name": "MinterAddressSet",
      "type": "event"
    },
    {
      "anonymous": false,
      "inputs": [
        {
          "indexed": true,
          "internalType": "address",
          "name": "previousOwner",
          "type": "address"
        },
        {
          "indexed": true,
          "internalType": "address",
          "name": "newOwner",
          "type": "address"
        }
      ],
      "name": "OwnershipTransferred",
      "type": "event"
    },
    {
      "anonymous": false,
      "inputs": [
        {
          "indexed": true,
          "internalType": "uint256",
          "name": "royaltyFee",
          "type": "uint256"
        }
      ],
      "name": "RoyaltyFeeSet",
      "type": "event"
    },
    {
      "anonymous": false,
      "inputs": [
        {
          "indexed": true,
          "internalType": "address",
          "name": "from",
          "type": "address"
        },
        {
          "indexed": true,
          "internalType": "address",
          "name": "to",
          "type": "address"
        },
        {
          "indexed": true,
          "internalType": "uint256",
          "name": "tokenId",
          "type": "uint256"
        }
      ],
      "name": "Transfer",
      "type": "event"
    },
    {
      "inputs": [],
      "name": "QuestFactoryContract",
      "outputs": [
        {
          "internalType": "contract IQuestFactory",
          "name": "",
          "type": "address"
        }
      ],
      "stateMutability": "view",
      "type": "function"
    },
    {
      "inputs": [],
      "name": "ReceiptRendererContract",
      "outputs": [
        {
          "internalType": "contract ReceiptRenderer",
          "name": "",
          "type": "address"
        }
      ],
      "stateMutability": "view",
      "type": "function"
    },
    {
      "inputs": [
        {
          "internalType": "address",
          "name": "to",
          "type": "address"
        },
        {
          "internalType": "uint256",
          "name": "tokenId",
          "type": "uint256"
        }
      ],
      "name": "approve",
      "outputs": [],
      "stateMutability": "nonpayable",
      "type": "function"
    },
    {
      "inputs": [
        {
          "internalType": "address",
          "name": "owner",
          "type": "address"
        }
      ],
      "name": "balanceOf",
      "outputs": [
        {
          "internalType": "uint256",
          "name": "",
          "type": "uint256"
        }
      ],
      "stateMutability": "view",
      "type": "function"
    },
    {
      "inputs": [
        {
          "internalType": "uint256",
          "name": "tokenId",
          "type": "uint256"
        }
      ],
      "name": "getApproved",
      "outputs": [
        {
          "internalType": "address",
          "name": "",
          "type": "address"
        }
      ],
      "stateMutability": "view",
      "type": "function"
    },
    {
      "inputs": [
        {
          "internalType": "string",
          "name": "questId_",
          "type": "string"
        },
        {
          "internalType": "address",
          "name": "claimingAddress_",
          "type": "address"
        }
      ],
      "name": "getOwnedTokenIdsOfQuest",
      "outputs": [
        {
          "internalType": "uint256[]",
          "name": "",
          "type": "uint256[]"
        }
      ],
      "stateMutability": "view",
      "type": "function"
    },
    {
      "inputs": [],
      "name": "getTokenId",
      "outputs": [
        {
          "internalType": "uint256",
          "name": "",
          "type": "uint256"
        }
      ],
      "stateMutability": "view",
      "type": "function"
    },
    {
      "inputs": [
        {
          "internalType": "address",
          "name": "receiptRenderer_",
          "type": "address"
        },
        {
          "internalType": "address",
          "name": "royaltyRecipient_",
          "type": "address"
        },
        {
          "internalType": "address",
          "name": "minterAddress_",
          "type": "address"
        },
        {
          "internalType": "uint256",
          "name": "royaltyFee_",
          "type": "uint256"
        },
        {
          "internalType": "address",
          "name": "owner_",
          "type": "address"
        }
      ],
      "name": "initialize",
      "outputs": [],
      "stateMutability": "nonpayable",
      "type": "function"
    },
    {
      "inputs": [
        {
          "internalType": "address",
          "name": "owner",
          "type": "address"
        },
        {
          "internalType": "address",
          "name": "operator",
          "type": "address"
        }
      ],
      "name": "isApprovedForAll",
      "outputs": [
        {
          "internalType": "bool",
          "name": "",
          "type": "bool"
        }
      ],
      "stateMutability": "view",
      "type": "function"
    },
    {
      "inputs": [
        {
          "internalType": "address",
          "name": "to_",
          "type": "address"
        },
        {
          "internalType": "string",
          "name": "questId_",
          "type": "string"
        }
      ],
      "name": "mint",
      "outputs": [],
      "stateMutability": "nonpayable",
      "type": "function"
    },
    {
      "inputs": [],
      "name": "minterAddress",
      "outputs": [
        {
          "internalType": "address",
          "name": "",
          "type": "address"
        }
      ],
      "stateMutability": "view",
      "type": "function"
    },
    {
      "inputs": [],
      "name": "name",
      "outputs": [
        {
          "internalType": "string",
          "name": "",
          "type": "string"
        }
      ],
      "stateMutability": "view",
      "type": "function"
    },
    {
      "inputs": [],
      "name": "owner",
      "outputs": [
        {
          "internalType": "address",
          "name": "",
          "type": "address"
        }
      ],
      "stateMutability": "view",
      "type": "function"
    },
    {
      "inputs": [
        {
          "internalType": "uint256",
          "name": "tokenId",
          "type": "uint256"
        }
      ],
      "name": "ownerOf",
      "outputs": [
        {
          "internalType": "address",
          "name": "",
          "type": "address"
        }
      ],
      "stateMutability": "view",
      "type": "function"
    },
    {
      "inputs": [
        {
          "internalType": "uint256",
          "name": "",
          "type": "uint256"
        }
      ],
      "name": "questIdForTokenId",
      "outputs": [
        {
          "internalType": "string",
          "name": "",
          "type": "string"
        }
      ],
      "stateMutability": "view",
      "type": "function"
    },
    {
      "inputs": [],
      "name": "renounceOwnership",
      "outputs": [],
      "stateMutability": "nonpayable",
      "type": "function"
    },
    {
      "inputs": [],
      "name": "royaltyFee",
      "outputs": [
        {
          "internalType": "uint256",
          "name": "",
          "type": "uint256"
        }
      ],
      "stateMutability": "view",
      "type": "function"
    },
    {
      "inputs": [
        {
          "internalType": "uint256",
          "name": "tokenId_",
          "type": "uint256"
        },
        {
          "internalType": "uint256",
          "name": "salePrice_",
          "type": "uint256"
        }
      ],
      "name": "royaltyInfo",
      "outputs": [
        {
          "internalType": "address",
          "name": "receiver",
          "type": "address"
        },
        {
          "internalType": "uint256",
          "name": "royaltyAmount",
          "type": "uint256"
        }
      ],
      "stateMutability": "view",
      "type": "function"
    },
    {
      "inputs": [],
      "name": "royaltyRecipient",
      "outputs": [
        {
          "internalType": "address",
          "name": "",
          "type": "address"
        }
      ],
      "stateMutability": "view",
      "type": "function"
    },
    {
      "inputs": [
        {
          "internalType": "address",
          "name": "from",
          "type": "address"
        },
        {
          "internalType": "address",
          "name": "to",
          "type": "address"
        },
        {
          "internalType": "uint256",
          "name": "tokenId",
          "type": "uint256"
        }
      ],
      "name": "safeTransferFrom",
      "outputs": [],
      "stateMutability": "nonpayable",
      "type": "function"
    },
    {
      "inputs": [
        {
          "internalType": "address",
          "name": "from",
          "type": "address"
        },
        {
          "internalType": "address",
          "name": "to",
          "type": "address"
        },
        {
          "internalType": "uint256",
          "name": "tokenId",
          "type": "uint256"
        },
        {
          "internalType": "bytes",
          "name": "data",
          "type": "bytes"
        }
      ],
      "name": "safeTransferFrom",
      "outputs": [],
      "stateMutability": "nonpayable",
      "type": "function"
    },
    {
      "inputs": [
        {
          "internalType": "address",
          "name": "operator",
          "type": "address"
        },
        {
          "internalType": "bool",
          "name": "approved",
          "type": "bool"
        }
      ],
      "name": "setApprovalForAll",
      "outputs": [],
      "stateMutability": "nonpayable",
      "type": "function"
    },
    {
      "inputs": [
        {
          "internalType": "address",
          "name": "minterAddress_",
          "type": "address"
        }
      ],
      "name": "setMinterAddress",
      "outputs": [],
      "stateMutability": "nonpayable",
      "type": "function"
    },
    {
      "inputs": [
        {
          "internalType": "address",
          "name": "questFactory_",
          "type": "address"
        }
      ],
      "name": "setQuestFactory",
      "outputs": [],
      "stateMutability": "nonpayable",
      "type": "function"
    },
    {
      "inputs": [
        {
          "internalType": "address",
          "name": "receiptRenderer_",
          "type": "address"
        }
      ],
      "name": "setReceiptRenderer",
      "outputs": [],
      "stateMutability": "nonpayable",
      "type": "function"
    },
    {
      "inputs": [
        {
          "internalType": "uint256",
          "name": "royaltyFee_",
          "type": "uint256"
        }
      ],
      "name": "setRoyaltyFee",
      "outputs": [],
      "stateMutability": "nonpayable",
      "type": "function"
    },
    {
      "inputs": [
        {
          "internalType": "address",
          "name": "royaltyRecipient_",
          "type": "address"
        }
      ],
      "name": "setRoyaltyRecipient",
      "outputs": [],
      "stateMutability": "nonpayable",
      "type": "function"
    },
    {
      "inputs": [
        {
          "internalType": "bytes4",
          "name": "interfaceId_",
          "type": "bytes4"
        }
      ],
      "name": "supportsInterface",
      "outputs": [
        {
          "internalType": "bool",
          "name": "",
          "type": "bool"
        }
      ],
      "stateMutability": "view",
      "type": "function"
    },
    {
      "inputs": [],
      "name": "symbol",
      "outputs": [
        {
          "internalType": "string",
          "name": "",
          "type": "string"
        }
      ],
      "stateMutability": "view",
      "type": "function"
    },
    {
      "inputs": [
        {
          "internalType": "uint256",
          "name": "",
          "type": "uint256"
        }
      ],
      "name": "timestampForTokenId",
      "outputs": [
        {
          "internalType": "uint256",
          "name": "",
          "type": "uint256"
        }
      ],
      "stateMutability": "view",
      "type": "function"
    },
    {
      "inputs": [
        {
          "internalType": "uint256",
          "name": "index",
          "type": "uint256"
        }
      ],
      "name": "tokenByIndex",
      "outputs": [
        {
          "internalType": "uint256",
          "name": "",
          "type": "uint256"
        }
      ],
      "stateMutability": "view",
      "type": "function"
    },
    {
      "inputs": [
        {
          "internalType": "address",
          "name": "owner",
          "type": "address"
        },
        {
          "internalType": "uint256",
          "name": "index",
          "type": "uint256"
        }
      ],
      "name": "tokenOfOwnerByIndex",
      "outputs": [
        {
          "internalType": "uint256",
          "name": "",
          "type": "uint256"
        }
      ],
      "stateMutability": "view",
      "type": "function"
    },
    {
      "inputs": [
        {
          "internalType": "uint256",
          "name": "tokenId_",
          "type": "uint256"
        }
      ],
      "name": "tokenURI",
      "outputs": [
        {
          "internalType": "string",
          "name": "",
          "type": "string"
        }
      ],
      "stateMutability": "view",
      "type": "function"
    },
    {
      "inputs": [],
      "name": "totalSupply",
      "outputs": [
        {
          "internalType": "uint256",
          "name": "",
          "type": "uint256"
        }
      ],
      "stateMutability": "view",
      "type": "function"
    },
    {
      "inputs": [
        {
          "internalType": "address",
          "name": "from",
          "type": "address"
        },
        {
          "internalType": "address",
          "name": "to",
          "type": "address"
        },
        {
          "internalType": "uint256",
          "name": "tokenId",
          "type": "uint256"
        }
      ],
      "name": "transferFrom",
      "outputs": [],
      "stateMutability": "nonpayable",
      "type": "function"
    },
    {
      "inputs": [
        {
          "internalType": "address",
          "name": "newOwner",
          "type": "address"
        }
      ],
      "name": "transferOwnership",
      "outputs": [],
      "stateMutability": "nonpayable",
      "type": "function"
    }
  ],
  "args": [],
  "numDeployments": 1,
  "solcInputHash": "8616fb14f43007f4bcdb14a0afb765ef",
  "bytecode": "0x60806040523480156200001157600080fd5b506200001c62000022565b620000e4565b600054610100900460ff16156200008f5760405162461bcd60e51b815260206004820152602760248201527f496e697469616c697a61626c653a20636f6e747261637420697320696e697469604482015266616c697a696e6760c81b606482015260840160405180910390fd5b60005460ff9081161015620000e2576000805460ff191660ff9081179091556040519081527f7f26b83ff96e1f2b6a682f133852f6798a09c465da95921460cefb38474024989060200160405180910390a15b565b61319880620000f46000396000f3fe608060405234801561001057600080fd5b506004361061025c5760003560e01c80634f6ccce711610145578063a3106b95116100bd578063b8d1ebfd1161008c578063d0def52111610071578063d0def5211461051a578063e985e9c51461052d578063f2fde38b1461056957600080fd5b8063b8d1ebfd146104e7578063c87b56dd1461050757600080fd5b8063a3106b95146104a3578063a7866a83146104b6578063b88d4fde146104ca578063b8997a97146104dd57600080fd5b8063715018a6116101145780638da5cb5b116100f95780638da5cb5b1461047757806395d89b4114610488578063a22cb4651461049057600080fd5b8063715018a61461045b57806377293cc31461046357600080fd5b80634f6ccce71461040f578063530b97a4146104225780636352211e1461043557806370a082311461044857600080fd5b806328cf1635116101d85780633c3091a1116101a757806341e42f301161018c57806341e42f30146103d557806342842e0e146103e85780634c00de82146103fb57600080fd5b80633c3091a1146103af5780633e4086e5146103c257600080fd5b806328cf1635146103355780632a55205a146103565780632f745c591461038857806334d722c91461039b57600080fd5b8063095ea7b31161022f5780631c9fd0c3116102145780631c9fd0c3146102fc57806323b872dd1461030f57806327125e2f1461032257600080fd5b8063095ea7b3146102df57806318160ddd146102f457600080fd5b8063010a38f51461026157806301ffc9a71461027c57806306fdde031461029f578063081812fc146102b4575b600080fd5b61026961057c565b6040519081526020015b60405180910390f35b61028f61028a36600461284c565b61058d565b6040519015158152602001610273565b6102a76105e9565b60405161027391906128c0565b6102c76102c23660046128d3565b61067b565b6040516001600160a01b039091168152602001610273565b6102f26102ed366004612901565b6106a2565b005b609954610269565b6102f261030a36600461292d565b6107d8565b6102f261031d36600461294a565b610810565b6102a76103303660046128d3565b610897565b6102696103433660046128d3565b6101326020526000908152604090205481565b61036961036436600461298b565b610932565b604080516001600160a01b039093168352602083019190915201610273565b610269610396366004612901565b6109ce565b610130546102c7906001600160a01b031681565b6102f26103bd36600461292d565b610a76565b6102f26103d03660046128d3565b610aae565b6102f26103e336600461292d565b610aea565b6102f26103f636600461294a565b610b22565b61012f546102c7906001600160a01b031681565b61026961041d3660046128d3565b610b3d565b6102f26104303660046129ad565b610be1565b6102c76104433660046128d3565b610e10565b61026961045636600461292d565b610e75565b6102f2610f0f565b610133546102c7906001600160a01b031681565b60fb546001600160a01b03166102c7565b6102a7610f23565b6102f261049e366004612a23565b610f32565b6102f26104b136600461292d565b610f41565b610134546102c7906001600160a01b031681565b6102f26104d8366004612b22565b610fa1565b6102696101315481565b6104fa6104f5366004612bc2565b61102f565b6040516102739190612c09565b6102a76105153660046128d3565b6111f1565b6102f2610528366004612c4d565b611602565b61028f61053b366004612c9d565b6001600160a01b039182166000908152606a6020908152604080832093909416825291909152205460ff1690565b6102f261057736600461292d565b6116b1565b600061058861012d5490565b905090565b60007fffffffff0000000000000000000000000000000000000000000000000000000082167f2a55205a0000000000000000000000000000000000000000000000000000000014806105e357506105e382611741565b92915050565b6060606580546105f890612ccb565b80601f016020809104026020016040519081016040528092919081815260200182805461062490612ccb565b80156106715780601f1061064657610100808354040283529160200191610671565b820191906000526020600020905b81548152906001019060200180831161065457829003601f168201915b5050505050905090565b600061068682611797565b506000908152606960205260409020546001600160a01b031690565b60006106ad82610e10565b9050806001600160a01b0316836001600160a01b03160361073b5760405162461bcd60e51b815260206004820152602160248201527f4552433732313a20617070726f76616c20746f2063757272656e74206f776e6560448201527f720000000000000000000000000000000000000000000000000000000000000060648201526084015b60405180910390fd5b336001600160a01b03821614806107575750610757813361053b565b6107c95760405162461bcd60e51b815260206004820152603d60248201527f4552433732313a20617070726f76652063616c6c6572206973206e6f7420746f60448201527f6b656e206f776e6572206f7220617070726f76656420666f7220616c6c0000006064820152608401610732565b6107d383836117fb565b505050565b6107e0611876565b610134805473ffffffffffffffffffffffffffffffffffffffff19166001600160a01b0392909216919091179055565b61081a33826118d0565b61088c5760405162461bcd60e51b815260206004820152602d60248201527f4552433732313a2063616c6c6572206973206e6f7420746f6b656e206f776e6560448201527f72206f7220617070726f766564000000000000000000000000000000000000006064820152608401610732565b6107d383838361194f565b61012e60205260009081526040902080546108b190612ccb565b80601f01602080910402602001604051908101604052809291908181526020018280546108dd90612ccb565b801561092a5780601f106108ff5761010080835404028352916020019161092a565b820191906000526020600020905b81548152906001019060200180831161090d57829003601f168201915b505050505081565b60008281526067602052604081205481906001600160a01b03166109985760405162461bcd60e51b815260206004820152601160248201527f4e6f6e6578697374656e7420746f6b656e0000000000000000000000000000006044820152606401610732565b600061271061013154856109ac9190612d4d565b6109b69190612d6c565b61012f546001600160a01b0316969095509350505050565b60006109d983610e75565b8210610a4d5760405162461bcd60e51b815260206004820152602b60248201527f455243373231456e756d657261626c653a206f776e657220696e646578206f7560448201527f74206f6620626f756e64730000000000000000000000000000000000000000006064820152608401610732565b506001600160a01b03919091166000908152609760209081526040808320938352929052205490565b610a7e611876565b610133805473ffffffffffffffffffffffffffffffffffffffff19166001600160a01b0392909216919091179055565b610ab6611876565b61013181905560405181907fc36422dcc77a5c93a5c48743078f8130c9fcc2a0ff893904ee62a3565688117c90600090a250565b610af2611876565b61012f805473ffffffffffffffffffffffffffffffffffffffff19166001600160a01b0392909216919091179055565b6107d383838360405180602001604052806000815250610fa1565b6000610b4860995490565b8210610bbc5760405162461bcd60e51b815260206004820152602c60248201527f455243373231456e756d657261626c653a20676c6f62616c20696e646578206f60448201527f7574206f6620626f756e647300000000000000000000000000000000000000006064820152608401610732565b60998281548110610bcf57610bcf612da7565b90600052602060002001549050919050565b600054610100900460ff1615808015610c015750600054600160ff909116105b80610c1b5750303b158015610c1b575060005460ff166001145b610c8d5760405162461bcd60e51b815260206004820152602e60248201527f496e697469616c697a61626c653a20636f6e747261637420697320616c72656160448201527f647920696e697469616c697a65640000000000000000000000000000000000006064820152608401610732565b6000805460ff191660011790558015610ccd57600080547fffffffffffffffffffffffffffffffffffffffffffffffffffffffffffff00ff166101001790555b610d416040518060400160405280601181526020017f526162626974486f6c65526563656970740000000000000000000000000000008152506040518060400160405280600381526020017f5248520000000000000000000000000000000000000000000000000000000000815250611b92565b610d49611c19565b610d5282611c96565b61012f80546001600160a01b0380881673ffffffffffffffffffffffffffffffffffffffff199283161790925561013080548784169083161790556101318590556101338054928916929091169190911790558015610e0857600080547fffffffffffffffffffffffffffffffffffffffffffffffffffffffffffff00ff169055604051600181527f7f26b83ff96e1f2b6a682f133852f6798a09c465da95921460cefb38474024989060200160405180910390a15b505050505050565b6000818152606760205260408120546001600160a01b0316806105e35760405162461bcd60e51b815260206004820152601860248201527f4552433732313a20696e76616c696420746f6b656e20494400000000000000006044820152606401610732565b60006001600160a01b038216610ef35760405162461bcd60e51b815260206004820152602960248201527f4552433732313a2061646472657373207a65726f206973206e6f74206120766160448201527f6c6964206f776e657200000000000000000000000000000000000000000000006064820152608401610732565b506001600160a01b031660009081526068602052604090205490565b610f17611876565b610f216000611d1c565b565b6060606680546105f890612ccb565b610f3d338383611d7b565b5050565b610f49611876565b610130805473ffffffffffffffffffffffffffffffffffffffff19166001600160a01b0383169081179091556040517f09e32743122b4d02dc06c38a35ee1587a02854644d47574bb35a6ef75a22fa9890600090a250565b610fab33836118d0565b61101d5760405162461bcd60e51b815260206004820152602d60248201527f4552433732313a2063616c6c6572206973206e6f7420746f6b656e206f776e6560448201527f72206f7220617070726f766564000000000000000000000000000000000000006064820152608401610732565b61102984848484611e49565b50505050565b6060600061103c83610e75565b905060008167ffffffffffffffff81111561105957611059612a5c565b604051908082528060200260200182016040528015611082578160200160208202803683370190505b5085516020870120909150600090815b848110156111165760006110a688836109ce565b90508261012e60008381526020019081526020016000206040516110ca9190612dd6565b60405180910390200361110357808583815181106110ea576110ea612da7565b6020908102919091010152836110ff81612e4c565b9450505b508061110e81612e4c565b915050611092565b5060008267ffffffffffffffff81111561113257611132612a5c565b60405190808252806020026020018201604052801561115b578160200160208202803683370190505b5090506000805b868110156111e357600086828151811061117e5761117e612da7565b602002602001015111156111d15785818151811061119e5761119e612da7565b60200260200101518383815181106111b8576111b8612da7565b6020908102919091010152816111cd81612e4c565b9250505b806111db81612e4c565b915050611162565b509098975050505050505050565b6000818152606760205260409020546060906001600160a01b031661127e5760405162461bcd60e51b815260206004820152603160248201527f45524337323155524953746f726167653a2055524920717565727920666f722060448201527f6e6f6e6578697374656e7420746f6b656e0000000000000000000000000000006064820152608401610732565b610134546001600160a01b03166112d75760405162461bcd60e51b815260206004820152601460248201527f5175657374466163746f7279206e6f74207365740000000000000000000000006044820152606401610732565b600082815261012e6020526040812080546112f190612ccb565b80601f016020809104026020016040519081016040528092919081815260200182805461131d90612ccb565b801561136a5780601f1061133f5761010080835404028352916020019161136a565b820191906000526020600020905b81548152906001019060200180831161134d57829003601f168201915b5050610134546040517fec461ac40000000000000000000000000000000000000000000000000000000081529495506000948594506001600160a01b03909116925063ec461ac491506113c19086906004016128c0565b606060405180830381865afa1580156113de573d6000803e3d6000fd5b505050506040513d601f19601f820116820180604052508101906114029190612e66565b506040517f9e34070f00000000000000000000000000000000000000000000000000000000815260048101889052919350915082906000906001600160a01b03831690639e34070f90602401602060405180830381865afa15801561146b573d6000803e3d6000fd5b505050506040513d601f19601f8201168201806040525081019061148f9190612e9d565b90506000826001600160a01b03166309a69f576040518163ffffffff1660e01b8152600401602060405180830381865afa1580156114d1573d6000803e3d6000fd5b505050506040513d601f19601f820116820180604052508101906114f59190612eba565b90506000836001600160a01b03166369940d796040518163ffffffff1660e01b8152600401602060405180830381865afa158015611537573d6000803e3d6000fd5b505050506040513d601f19601f8201168201806040525081019061155b9190612ed3565b610133546040517fac1733830000000000000000000000000000000000000000000000000000000081529192506001600160a01b03169063ac173383906115b0908c908b908a90899089908990600401612ef0565b600060405180830381865afa1580156115cd573d6000803e3d6000fd5b505050506040513d6000823e601f3d908101601f191682016040526115f59190810190612f37565b9998505050505050505050565b610130546001600160a01b0316331461165d5760405162461bcd60e51b815260206004820152600b60248201527f4f6e6c79206d696e7465720000000000000000000000000000000000000000006044820152606401610732565b61166c61012d80546001019055565b600061167861012d5490565b600081815261012e602052604090209091506116948382612ff4565b506000818152610132602052604090204290556107d38382611ed2565b6116b9611876565b6001600160a01b0381166117355760405162461bcd60e51b815260206004820152602660248201527f4f776e61626c653a206e6577206f776e657220697320746865207a65726f206160448201527f64647265737300000000000000000000000000000000000000000000000000006064820152608401610732565b61173e81611d1c565b50565b60007fffffffff0000000000000000000000000000000000000000000000000000000082167f780e9d630000000000000000000000000000000000000000000000000000000014806105e357506105e382611eec565b6000818152606760205260409020546001600160a01b031661173e5760405162461bcd60e51b815260206004820152601860248201527f4552433732313a20696e76616c696420746f6b656e20494400000000000000006044820152606401610732565b6000818152606960205260409020805473ffffffffffffffffffffffffffffffffffffffff19166001600160a01b038416908117909155819061183d82610e10565b6001600160a01b03167f8c5be1e5ebec7d5bd14f71427d1e84f3dd0314c0f7b2291e5b200ac8c7c3b92560405160405180910390a45050565b60fb546001600160a01b03163314610f215760405162461bcd60e51b815260206004820181905260248201527f4f776e61626c653a2063616c6c6572206973206e6f7420746865206f776e65726044820152606401610732565b6000806118dc83610e10565b9050806001600160a01b0316846001600160a01b0316148061192357506001600160a01b038082166000908152606a602090815260408083209388168352929052205460ff165b806119475750836001600160a01b031661193c8461067b565b6001600160a01b0316145b949350505050565b826001600160a01b031661196282610e10565b6001600160a01b0316146119de5760405162461bcd60e51b815260206004820152602560248201527f4552433732313a207472616e736665722066726f6d20696e636f72726563742060448201527f6f776e65720000000000000000000000000000000000000000000000000000006064820152608401610732565b6001600160a01b038216611a595760405162461bcd60e51b8152602060048201526024808201527f4552433732313a207472616e7366657220746f20746865207a65726f2061646460448201527f72657373000000000000000000000000000000000000000000000000000000006064820152608401610732565b611a668383836001611fcf565b826001600160a01b0316611a7982610e10565b6001600160a01b031614611af55760405162461bcd60e51b815260206004820152602560248201527f4552433732313a207472616e736665722066726f6d20696e636f72726563742060448201527f6f776e65720000000000000000000000000000000000000000000000000000006064820152608401610732565b6000818152606960209081526040808320805473ffffffffffffffffffffffffffffffffffffffff199081169091556001600160a01b0387811680865260688552838620805460001901905590871680865283862080546001019055868652606790945282852080549092168417909155905184937fddf252ad1be2c89b69c2b068fc378daa952ba7f163c4a11628f55a4df523b3ef91a4505050565b600054610100900460ff16611c0f5760405162461bcd60e51b815260206004820152602b60248201527f496e697469616c697a61626c653a20636f6e7472616374206973206e6f74206960448201527f6e697469616c697a696e670000000000000000000000000000000000000000006064820152608401610732565b610f3d8282611fdb565b600054610100900460ff16610f215760405162461bcd60e51b815260206004820152602b60248201527f496e697469616c697a61626c653a20636f6e7472616374206973206e6f74206960448201527f6e697469616c697a696e670000000000000000000000000000000000000000006064820152608401610732565b600054610100900460ff16611d135760405162461bcd60e51b815260206004820152602b60248201527f496e697469616c697a61626c653a20636f6e7472616374206973206e6f74206960448201527f6e697469616c697a696e670000000000000000000000000000000000000000006064820152608401610732565b61173e81612071565b60fb80546001600160a01b0383811673ffffffffffffffffffffffffffffffffffffffff19831681179093556040519116919082907f8be0079c531659141344cd1fd0a4f28419497f9722a3daafe3b4186f6b6457e090600090a35050565b816001600160a01b0316836001600160a01b031603611ddc5760405162461bcd60e51b815260206004820152601960248201527f4552433732313a20617070726f766520746f2063616c6c6572000000000000006044820152606401610732565b6001600160a01b038381166000818152606a6020908152604080832094871680845294825291829020805460ff191686151590811790915591519182527f17307eab39ab6107e8899845ad3d59bd9653f200f220920489ca2b5937696c31910160405180910390a3505050565b611e5484848461194f565b611e60848484846120ee565b6110295760405162461bcd60e51b815260206004820152603260248201527f4552433732313a207472616e7366657220746f206e6f6e20455243373231526560448201527f63656976657220696d706c656d656e74657200000000000000000000000000006064820152608401610732565b610f3d82826040518060200160405280600081525061228f565b60007fffffffff0000000000000000000000000000000000000000000000000000000082167f80ac58cd000000000000000000000000000000000000000000000000000000001480611f7f57507fffffffff0000000000000000000000000000000000000000000000000000000082167f5b5e139f00000000000000000000000000000000000000000000000000000000145b806105e357507f01ffc9a7000000000000000000000000000000000000000000000000000000007fffffffff000000000000000000000000000000000000000000000000000000008316146105e3565b61102984848484612318565b600054610100900460ff166120585760405162461bcd60e51b815260206004820152602b60248201527f496e697469616c697a61626c653a20636f6e7472616374206973206e6f74206960448201527f6e697469616c697a696e670000000000000000000000000000000000000000006064820152608401610732565b60656120648382612ff4565b5060666107d38282612ff4565b600054610100900460ff166117355760405162461bcd60e51b815260206004820152602b60248201527f496e697469616c697a61626c653a20636f6e7472616374206973206e6f74206960448201527f6e697469616c697a696e670000000000000000000000000000000000000000006064820152608401610732565b60006001600160a01b0384163b15612284576040517f150b7a020000000000000000000000000000000000000000000000000000000081526001600160a01b0385169063150b7a029061214b9033908990889088906004016130b4565b6020604051808303816000875af1925050508015612186575060408051601f3d908101601f19168201909252612183918101906130f0565b60015b612239573d8080156121b4576040519150601f19603f3d011682016040523d82523d6000602084013e6121b9565b606091505b5080516000036122315760405162461bcd60e51b815260206004820152603260248201527f4552433732313a207472616e7366657220746f206e6f6e20455243373231526560448201527f63656976657220696d706c656d656e74657200000000000000000000000000006064820152608401610732565b805181602001fd5b7fffffffff00000000000000000000000000000000000000000000000000000000167f150b7a0200000000000000000000000000000000000000000000000000000000149050611947565b506001949350505050565b6122998383612460565b6122a660008484846120ee565b6107d35760405162461bcd60e51b815260206004820152603260248201527f4552433732313a207472616e7366657220746f206e6f6e20455243373231526560448201527f63656976657220696d706c656d656e74657200000000000000000000000000006064820152608401610732565b61232484848484612606565b600181111561239b5760405162461bcd60e51b815260206004820152603560248201527f455243373231456e756d657261626c653a20636f6e736563757469766520747260448201527f616e7366657273206e6f7420737570706f7274656400000000000000000000006064820152608401610732565b816001600160a01b0385166123f7576123f281609980546000838152609a60205260408120829055600182018355919091527f72a152ddfb8e864297c917af52ea6c1c68aead0fee1a62673fcc7e0c94979d000155565b61241a565b836001600160a01b0316856001600160a01b03161461241a5761241a858261268e565b6001600160a01b038416612436576124318161272b565b612459565b846001600160a01b0316846001600160a01b0316146124595761245984826127da565b5050505050565b6001600160a01b0382166124b65760405162461bcd60e51b815260206004820181905260248201527f4552433732313a206d696e7420746f20746865207a65726f20616464726573736044820152606401610732565b6000818152606760205260409020546001600160a01b03161561251b5760405162461bcd60e51b815260206004820152601c60248201527f4552433732313a20746f6b656e20616c7265616479206d696e746564000000006044820152606401610732565b612529600083836001611fcf565b6000818152606760205260409020546001600160a01b03161561258e5760405162461bcd60e51b815260206004820152601c60248201527f4552433732313a20746f6b656e20616c7265616479206d696e746564000000006044820152606401610732565b6001600160a01b0382166000818152606860209081526040808320805460010190558483526067909152808220805473ffffffffffffffffffffffffffffffffffffffff19168417905551839291907fddf252ad1be2c89b69c2b068fc378daa952ba7f163c4a11628f55a4df523b3ef908290a45050565b6001811115611029576001600160a01b0384161561264c576001600160a01b0384166000908152606860205260408120805483929061264690849061310d565b90915550505b6001600160a01b03831615611029576001600160a01b03831660009081526068602052604081208054839290612683908490613120565b909155505050505050565b6000600161269b84610e75565b6126a5919061310d565b6000838152609860205260409020549091508082146126f8576001600160a01b03841660009081526097602090815260408083208584528252808320548484528184208190558352609890915290208190555b5060009182526098602090815260408084208490556001600160a01b039094168352609781528383209183525290812055565b60995460009061273d9060019061310d565b6000838152609a60205260408120546099805493945090928490811061276557612765612da7565b90600052602060002001549050806099838154811061278657612786612da7565b6000918252602080832090910192909255828152609a909152604080822084905585825281205560998054806127be576127be613133565b6001900381819060005260206000200160009055905550505050565b60006127e583610e75565b6001600160a01b039093166000908152609760209081526040808320868452825280832085905593825260989052919091209190915550565b7fffffffff000000000000000000000000000000000000000000000000000000008116811461173e57600080fd5b60006020828403121561285e57600080fd5b81356128698161281e565b9392505050565b60005b8381101561288b578181015183820152602001612873565b50506000910152565b600081518084526128ac816020860160208601612870565b601f01601f19169290920160200192915050565b6020815260006128696020830184612894565b6000602082840312156128e557600080fd5b5035919050565b6001600160a01b038116811461173e57600080fd5b6000806040838503121561291457600080fd5b823561291f816128ec565b946020939093013593505050565b60006020828403121561293f57600080fd5b8135612869816128ec565b60008060006060848603121561295f57600080fd5b833561296a816128ec565b9250602084013561297a816128ec565b929592945050506040919091013590565b6000806040838503121561299e57600080fd5b50508035926020909101359150565b600080600080600060a086880312156129c557600080fd5b85356129d0816128ec565b945060208601356129e0816128ec565b935060408601356129f0816128ec565b9250606086013591506080860135612a07816128ec565b809150509295509295909350565b801515811461173e57600080fd5b60008060408385031215612a3657600080fd5b8235612a41816128ec565b91506020830135612a5181612a15565b809150509250929050565b7f4e487b7100000000000000000000000000000000000000000000000000000000600052604160045260246000fd5b604051601f8201601f1916810167ffffffffffffffff81118282101715612ab457612ab4612a5c565b604052919050565b600067ffffffffffffffff821115612ad657612ad6612a5c565b50601f01601f191660200190565b6000612af7612af284612abc565b612a8b565b9050828152838383011115612b0b57600080fd5b828260208301376000602084830101529392505050565b60008060008060808587031215612b3857600080fd5b8435612b43816128ec565b93506020850135612b53816128ec565b925060408501359150606085013567ffffffffffffffff811115612b7657600080fd5b8501601f81018713612b8757600080fd5b612b9687823560208401612ae4565b91505092959194509250565b600082601f830112612bb357600080fd5b61286983833560208501612ae4565b60008060408385031215612bd557600080fd5b823567ffffffffffffffff811115612bec57600080fd5b612bf885828601612ba2565b9250506020830135612a51816128ec565b6020808252825182820181905260009190848201906040850190845b81811015612c4157835183529284019291840191600101612c25565b50909695505050505050565b60008060408385031215612c6057600080fd5b8235612c6b816128ec565b9150602083013567ffffffffffffffff811115612c8757600080fd5b612c9385828601612ba2565b9150509250929050565b60008060408385031215612cb057600080fd5b8235612cbb816128ec565b91506020830135612a51816128ec565b600181811c90821680612cdf57607f821691505b602082108103612d18577f4e487b7100000000000000000000000000000000000000000000000000000000600052602260045260246000fd5b50919050565b7f4e487b7100000000000000000000000000000000000000000000000000000000600052601160045260246000fd5b6000816000190483118215151615612d6757612d67612d1e565b500290565b600082612da2577f4e487b7100000000000000000000000000000000000000000000000000000000600052601260045260246000fd5b500490565b7f4e487b7100000000000000000000000000000000000000000000000000000000600052603260045260246000fd5b6000808354612de481612ccb565b60018281168015612dfc5760018114612e1157612e40565b60ff1984168752821515830287019450612e40565b8760005260208060002060005b85811015612e375781548a820152908401908201612e1e565b50505082870194505b50929695505050505050565b60006000198203612e5f57612e5f612d1e565b5060010190565b600080600060608486031215612e7b57600080fd5b8351612e86816128ec565b602085015160409095015190969495509392505050565b600060208284031215612eaf57600080fd5b815161286981612a15565b600060208284031215612ecc57600080fd5b5051919050565b600060208284031215612ee557600080fd5b8151612869816128ec565b86815260c060208201526000612f0960c0830188612894565b604083019690965250921515606084015260808301919091526001600160a01b031660a09091015292915050565b600060208284031215612f4957600080fd5b815167ffffffffffffffff811115612f6057600080fd5b8201601f81018413612f7157600080fd5b8051612f7f612af282612abc565b818152856020838501011115612f9457600080fd5b612fa5826020830160208601612870565b95945050505050565b601f8211156107d357600081815260208120601f850160051c81016020861015612fd55750805b601f850160051c820191505b81811015610e0857828155600101612fe1565b815167ffffffffffffffff81111561300e5761300e612a5c565b6130228161301c8454612ccb565b84612fae565b602080601f831160018114613057576000841561303f5750858301515b600019600386901b1c1916600185901b178555610e08565b600085815260208120601f198616915b8281101561308657888601518255948401946001909101908401613067565b50858210156130a45787850151600019600388901b60f8161c191681555b5050505050600190811b01905550565b60006001600160a01b038087168352808616602084015250836040830152608060608301526130e66080830184612894565b9695505050505050565b60006020828403121561310257600080fd5b81516128698161281e565b818103818111156105e3576105e3612d1e565b808201808211156105e3576105e3612d1e565b7f4e487b7100000000000000000000000000000000000000000000000000000000600052603160045260246000fdfea26469706673582212201b19854c2f1fda735b6925f13656cd219f4eca2ba50fe21b742c13927be7fcb064736f6c63430008100033",
  "devdoc": {
    "kind": "dev",
    "methods": {
      "approve(address,uint256)": {
        "details": "See {IERC721-approve}."
      },
      "balanceOf(address)": {
        "details": "See {IERC721-balanceOf}."
      },
      "constructor": {
        "custom:oz-upgrades-unsafe-allow": "constructor"
      },
      "getApproved(uint256)": {
        "details": "See {IERC721-getApproved}."
      },
      "getOwnedTokenIdsOfQuest(string,address)": {
        "details": "get the token ids for a quest owned by an address",
        "params": {
          "claimingAddress_": "the address claiming to own the tokens",
          "questId_": "the quest id"
        }
      },
      "getTokenId()": {
        "details": "get the current token id"
      },
      "isApprovedForAll(address,address)": {
        "details": "See {IERC721-isApprovedForAll}."
      },
      "mint(address,string)": {
        "details": "mint a receipt",
        "params": {
          "questId_": "the quest id",
          "to_": "the address to mint to"
        }
      },
      "name()": {
        "details": "See {IERC721Metadata-name}."
      },
      "owner()": {
        "details": "Returns the address of the current owner."
      },
      "ownerOf(uint256)": {
        "details": "See {IERC721-ownerOf}."
      },
      "renounceOwnership()": {
        "details": "Leaves the contract without owner. It will not be possible to call `onlyOwner` functions anymore. Can only be called by the current owner. NOTE: Renouncing ownership will leave the contract without an owner, thereby removing any functionality that is only available to the owner."
      },
      "royaltyInfo(uint256,uint256)": {
        "details": "See {IERC165-royaltyInfo}",
        "params": {
          "salePrice_": "the sale price",
          "tokenId_": "the token id"
        }
      },
      "safeTransferFrom(address,address,uint256)": {
        "details": "See {IERC721-safeTransferFrom}."
      },
      "safeTransferFrom(address,address,uint256,bytes)": {
        "details": "See {IERC721-safeTransferFrom}."
      },
      "setApprovalForAll(address,bool)": {
        "details": "See {IERC721-setApprovalForAll}."
      },
      "setMinterAddress(address)": {
        "details": "set the minter address",
        "params": {
          "minterAddress_": "the address of the minter"
        }
      },
      "setQuestFactory(address)": {
        "details": "set the quest factory contract",
        "params": {
          "questFactory_": "the address of the quest factory contract"
        }
      },
      "setReceiptRenderer(address)": {
        "details": "set the receipt renderer contract",
        "params": {
          "receiptRenderer_": "the address of the receipt renderer contract"
        }
      },
      "setRoyaltyFee(uint256)": {
        "details": "set the royalty fee",
        "params": {
          "royaltyFee_": "the royalty fee"
        }
      },
      "setRoyaltyRecipient(address)": {
        "details": "set the royalty recipient",
        "params": {
          "royaltyRecipient_": "the address of the royalty recipient"
        }
      },
      "supportsInterface(bytes4)": {
        "details": "returns true if the supplied interface id is supported",
        "params": {
          "interfaceId_": "the interface id"
        }
      },
      "symbol()": {
        "details": "See {IERC721Metadata-symbol}."
      },
      "tokenByIndex(uint256)": {
        "details": "See {IERC721Enumerable-tokenByIndex}."
      },
      "tokenOfOwnerByIndex(address,uint256)": {
        "details": "See {IERC721Enumerable-tokenOfOwnerByIndex}."
      },
      "tokenURI(uint256)": {
        "details": "return the token uri, this delegates to the receipt renderer contract"
      },
      "totalSupply()": {
        "details": "See {IERC721Enumerable-totalSupply}."
      },
      "transferFrom(address,address,uint256)": {
        "details": "See {IERC721-transferFrom}."
      },
      "transferOwnership(address)": {
        "details": "Transfers ownership of the contract to a new account (`newOwner`). Can only be called by the current owner."
      }
    },
    "version": 1
  },
  "userdoc": {
    "kind": "user",
    "methods": {},
    "version": 1
  },
  "storageLayout": {
    "storage": [
      {
        "astId": 566,
        "contract": "contracts/RabbitHoleReceipt.sol:RabbitHoleReceipt",
        "label": "_initialized",
        "offset": 0,
        "slot": "0",
        "type": "t_uint8"
      },
      {
        "astId": 569,
        "contract": "contracts/RabbitHoleReceipt.sol:RabbitHoleReceipt",
        "label": "_initializing",
        "offset": 1,
        "slot": "0",
        "type": "t_bool"
      },
      {
        "astId": 4373,
        "contract": "contracts/RabbitHoleReceipt.sol:RabbitHoleReceipt",
        "label": "__gap",
        "offset": 0,
        "slot": "1",
        "type": "t_array(t_uint256)50_storage"
      },
      {
        "astId": 5027,
        "contract": "contracts/RabbitHoleReceipt.sol:RabbitHoleReceipt",
        "label": "__gap",
        "offset": 0,
        "slot": "51",
        "type": "t_array(t_uint256)50_storage"
      },
      {
        "astId": 2396,
        "contract": "contracts/RabbitHoleReceipt.sol:RabbitHoleReceipt",
        "label": "_name",
        "offset": 0,
        "slot": "101",
        "type": "t_string_storage"
      },
      {
        "astId": 2398,
        "contract": "contracts/RabbitHoleReceipt.sol:RabbitHoleReceipt",
        "label": "_symbol",
        "offset": 0,
        "slot": "102",
        "type": "t_string_storage"
      },
      {
        "astId": 2402,
        "contract": "contracts/RabbitHoleReceipt.sol:RabbitHoleReceipt",
        "label": "_owners",
        "offset": 0,
        "slot": "103",
        "type": "t_mapping(t_uint256,t_address)"
      },
      {
        "astId": 2406,
        "contract": "contracts/RabbitHoleReceipt.sol:RabbitHoleReceipt",
        "label": "_balances",
        "offset": 0,
        "slot": "104",
        "type": "t_mapping(t_address,t_uint256)"
      },
      {
        "astId": 2410,
        "contract": "contracts/RabbitHoleReceipt.sol:RabbitHoleReceipt",
        "label": "_tokenApprovals",
        "offset": 0,
        "slot": "105",
        "type": "t_mapping(t_uint256,t_address)"
      },
      {
        "astId": 2416,
        "contract": "contracts/RabbitHoleReceipt.sol:RabbitHoleReceipt",
        "label": "_operatorApprovals",
        "offset": 0,
        "slot": "106",
        "type": "t_mapping(t_address,t_mapping(t_address,t_bool))"
      },
      {
        "astId": 3336,
        "contract": "contracts/RabbitHoleReceipt.sol:RabbitHoleReceipt",
        "label": "__gap",
        "offset": 0,
        "slot": "107",
        "type": "t_array(t_uint256)44_storage"
      },
      {
        "astId": 3501,
        "contract": "contracts/RabbitHoleReceipt.sol:RabbitHoleReceipt",
        "label": "_ownedTokens",
        "offset": 0,
        "slot": "151",
        "type": "t_mapping(t_address,t_mapping(t_uint256,t_uint256))"
      },
      {
        "astId": 3505,
        "contract": "contracts/RabbitHoleReceipt.sol:RabbitHoleReceipt",
        "label": "_ownedTokensIndex",
        "offset": 0,
        "slot": "152",
        "type": "t_mapping(t_uint256,t_uint256)"
      },
      {
        "astId": 3508,
        "contract": "contracts/RabbitHoleReceipt.sol:RabbitHoleReceipt",
        "label": "_allTokens",
        "offset": 0,
        "slot": "153",
        "type": "t_array(t_uint256)dyn_storage"
      },
      {
        "astId": 3512,
        "contract": "contracts/RabbitHoleReceipt.sol:RabbitHoleReceipt",
        "label": "_allTokensIndex",
        "offset": 0,
        "slot": "154",
        "type": "t_mapping(t_uint256,t_uint256)"
      },
      {
        "astId": 3844,
        "contract": "contracts/RabbitHoleReceipt.sol:RabbitHoleReceipt",
        "label": "__gap",
        "offset": 0,
        "slot": "155",
        "type": "t_array(t_uint256)46_storage"
      },
      {
        "astId": 3873,
        "contract": "contracts/RabbitHoleReceipt.sol:RabbitHoleReceipt",
        "label": "_tokenURIs",
        "offset": 0,
        "slot": "201",
        "type": "t_mapping(t_uint256,t_string_storage)"
      },
      {
        "astId": 3989,
        "contract": "contracts/RabbitHoleReceipt.sol:RabbitHoleReceipt",
        "label": "__gap",
        "offset": 0,
        "slot": "202",
        "type": "t_array(t_uint256)49_storage"
      },
      {
        "astId": 10816,
        "contract": "contracts/RabbitHoleReceipt.sol:RabbitHoleReceipt",
        "label": "_owner",
        "offset": 0,
        "slot": "251",
        "type": "t_address"
      },
      {
        "astId": 10940,
        "contract": "contracts/RabbitHoleReceipt.sol:RabbitHoleReceipt",
        "label": "__gap",
        "offset": 0,
        "slot": "252",
        "type": "t_array(t_uint256)49_storage"
      },
      {
        "astId": 12222,
        "contract": "contracts/RabbitHoleReceipt.sol:RabbitHoleReceipt",
        "label": "_tokenIds",
        "offset": 0,
        "slot": "301",
        "type": "t_struct(Counter)4380_storage"
      },
      {
        "astId": 12226,
        "contract": "contracts/RabbitHoleReceipt.sol:RabbitHoleReceipt",
        "label": "questIdForTokenId",
        "offset": 0,
        "slot": "302",
        "type": "t_mapping(t_uint256,t_string_storage)"
      },
      {
        "astId": 12228,
        "contract": "contracts/RabbitHoleReceipt.sol:RabbitHoleReceipt",
        "label": "royaltyRecipient",
        "offset": 0,
        "slot": "303",
        "type": "t_address"
      },
      {
        "astId": 12230,
        "contract": "contracts/RabbitHoleReceipt.sol:RabbitHoleReceipt",
        "label": "minterAddress",
        "offset": 0,
        "slot": "304",
        "type": "t_address"
      },
      {
        "astId": 12232,
        "contract": "contracts/RabbitHoleReceipt.sol:RabbitHoleReceipt",
        "label": "royaltyFee",
        "offset": 0,
        "slot": "305",
        "type": "t_uint256"
      },
      {
        "astId": 12236,
        "contract": "contracts/RabbitHoleReceipt.sol:RabbitHoleReceipt",
        "label": "timestampForTokenId",
        "offset": 0,
        "slot": "306",
        "type": "t_mapping(t_uint256,t_uint256)"
      },
      {
        "astId": 12239,
        "contract": "contracts/RabbitHoleReceipt.sol:RabbitHoleReceipt",
        "label": "ReceiptRendererContract",
        "offset": 0,
        "slot": "307",
        "type": "t_contract(ReceiptRenderer)13737"
      },
      {
        "astId": 12242,
        "contract": "contracts/RabbitHoleReceipt.sol:RabbitHoleReceipt",
        "label": "QuestFactoryContract",
        "offset": 0,
        "slot": "308",
        "type": "t_contract(IQuestFactory)13946"
      }
    ],
    "types": {
      "t_address": {
        "encoding": "inplace",
        "label": "address",
        "numberOfBytes": "20"
      },
      "t_array(t_uint256)44_storage": {
        "base": "t_uint256",
        "encoding": "inplace",
        "label": "uint256[44]",
        "numberOfBytes": "1408"
      },
      "t_array(t_uint256)46_storage": {
        "base": "t_uint256",
        "encoding": "inplace",
        "label": "uint256[46]",
        "numberOfBytes": "1472"
      },
      "t_array(t_uint256)49_storage": {
        "base": "t_uint256",
        "encoding": "inplace",
        "label": "uint256[49]",
        "numberOfBytes": "1568"
      },
      "t_array(t_uint256)50_storage": {
        "base": "t_uint256",
        "encoding": "inplace",
        "label": "uint256[50]",
        "numberOfBytes": "1600"
      },
      "t_array(t_uint256)dyn_storage": {
        "base": "t_uint256",
        "encoding": "dynamic_array",
        "label": "uint256[]",
        "numberOfBytes": "32"
      },
      "t_bool": {
        "encoding": "inplace",
        "label": "bool",
        "numberOfBytes": "1"
      },
      "t_contract(IQuestFactory)13946": {
        "encoding": "inplace",
        "label": "contract IQuestFactory",
        "numberOfBytes": "20"
      },
      "t_contract(ReceiptRenderer)13737": {
        "encoding": "inplace",
        "label": "contract ReceiptRenderer",
        "numberOfBytes": "20"
      },
      "t_mapping(t_address,t_bool)": {
        "encoding": "mapping",
        "key": "t_address",
        "label": "mapping(address => bool)",
        "numberOfBytes": "32",
        "value": "t_bool"
      },
      "t_mapping(t_address,t_mapping(t_address,t_bool))": {
        "encoding": "mapping",
        "key": "t_address",
        "label": "mapping(address => mapping(address => bool))",
        "numberOfBytes": "32",
        "value": "t_mapping(t_address,t_bool)"
      },
      "t_mapping(t_address,t_mapping(t_uint256,t_uint256))": {
        "encoding": "mapping",
        "key": "t_address",
        "label": "mapping(address => mapping(uint256 => uint256))",
        "numberOfBytes": "32",
        "value": "t_mapping(t_uint256,t_uint256)"
      },
      "t_mapping(t_address,t_uint256)": {
        "encoding": "mapping",
        "key": "t_address",
        "label": "mapping(address => uint256)",
        "numberOfBytes": "32",
        "value": "t_uint256"
      },
      "t_mapping(t_uint256,t_address)": {
        "encoding": "mapping",
        "key": "t_uint256",
        "label": "mapping(uint256 => address)",
        "numberOfBytes": "32",
        "value": "t_address"
      },
      "t_mapping(t_uint256,t_string_storage)": {
        "encoding": "mapping",
        "key": "t_uint256",
        "label": "mapping(uint256 => string)",
        "numberOfBytes": "32",
        "value": "t_string_storage"
      },
      "t_mapping(t_uint256,t_uint256)": {
        "encoding": "mapping",
        "key": "t_uint256",
        "label": "mapping(uint256 => uint256)",
        "numberOfBytes": "32",
        "value": "t_uint256"
      },
      "t_string_storage": {
        "encoding": "bytes",
        "label": "string",
        "numberOfBytes": "32"
      },
      "t_struct(Counter)4380_storage": {
        "encoding": "inplace",
        "label": "struct CountersUpgradeable.Counter",
        "members": [
          {
            "astId": 4379,
            "contract": "contracts/RabbitHoleReceipt.sol:RabbitHoleReceipt",
            "label": "_value",
            "offset": 0,
            "slot": "0",
            "type": "t_uint256"
          }
        ],
        "numberOfBytes": "32"
      },
      "t_uint256": {
        "encoding": "inplace",
        "label": "uint256",
        "numberOfBytes": "32"
      },
      "t_uint8": {
        "encoding": "inplace",
        "label": "uint8",
        "numberOfBytes": "1"
      }
    }
  }
}