{
  "address": "0xD574fAE75dEDbbB6697077BB39186B12BA384895",
  "abi": [
    {
      "inputs": [
        {
          "internalType": "uint256",
          "name": "tokenId_",
          "type": "uint256"
        },
        {
          "internalType": "string",
          "name": "questId_",
          "type": "string"
        },
        {
          "internalType": "uint256",
          "name": "totalParticipants_",
          "type": "uint256"
        },
        {
          "internalType": "bool",
          "name": "claimed_",
          "type": "bool"
        },
        {
          "internalType": "uint256",
          "name": "rewardAmount_",
          "type": "uint256"
        },
        {
          "internalType": "address",
          "name": "rewardAddress_",
          "type": "address"
        }
      ],
      "name": "generateTokenURI",
      "outputs": [
        {
          "internalType": "string",
          "name": "",
          "type": "string"
        }
      ],
      "stateMutability": "view",
      "type": "function"
    },
    {
      "inputs": [
        {
          "internalType": "uint256",
          "name": "rewardAmount_",
          "type": "uint256"
        },
        {
          "internalType": "address",
          "name": "rewardAddress_",
          "type": "address"
        }
      ],
      "name": "humanRewardAmount",
      "outputs": [
        {
          "internalType": "string",
          "name": "",
          "type": "string"
        }
      ],
      "stateMutability": "view",
      "type": "function"
    },
    {
      "inputs": [
        {
          "internalType": "address",
          "name": "tokenAddress_",
          "type": "address"
        }
      ],
      "name": "symbolForAddress",
      "outputs": [
        {
          "internalType": "string",
          "name": "",
          "type": "string"
        }
      ],
      "stateMutability": "view",
      "type": "function"
    }
  ],
  "transactionHash": "0x8de84e5ebaf9fce8f46656f45910828164ffc3a91cea2a9ccbac5bc8802feb9a",
  "args": [],
  "numDeployments": 1,
  "solcInputHash": "c8adf721c36c1029371a44d89d5816e2",
  "bytecode": "0x608060405234801561001057600080fd5b5061565d806100206000396000f3fe608060405234801561001057600080fd5b50600436106100415760003560e01c8063499b98d31461004657806385487f841461006f578063ac17338314610082575b600080fd5b61005961005436600461116f565b610095565b60405161006691906111b5565b60405180910390f35b61005961007d3660046111e8565b610169565b6100596100903660046112ac565b610216565b60608073ffffffffffffffffffffffffffffffffffffffff83166100ed575060408051808201909152600381527f45544800000000000000000000000000000000000000000000000000000000006020820152610163565b8273ffffffffffffffffffffffffffffffffffffffff166395d89b416040518163ffffffff1660e01b8152600401600060405180830381865afa158015610138573d6000803e3d6000fd5b505050506040513d6000823e601f3d908101601f191682016040526101609190810190611369565b90505b92915050565b6060600073ffffffffffffffffffffffffffffffffffffffff831661019057506012610202565b8273ffffffffffffffffffffffffffffffffffffffff1663313ce5676040518163ffffffff1660e01b8152600401602060405180830381865afa1580156101db573d6000803e3d6000fd5b505050506040513d601f19601f820116820180604052508101906101ff91906113e0565b90505b61020e8482600061025f565b949350505050565b60606000610228888888888888610459565b90506102338161081a565b604051602001610243919061141f565b6040516020818303038152906040529150509695505050505050565b606060008261026f576000610272565b60015b9050600061028185600a611577565b9050856000805b82156102e75760ff8116156102a957806102a181611586565b9150506102c7565b6102b4600a846115d4565b156102c757806102c381611586565b9150505b816102d181611586565b92506102e09050600a846115e8565b9250610288565b6040805161010081018252600080825260208201819052918101829052606081018290526080810182905260a0810182905260c081019190915287151560e082015260ff891661033783856115fc565b60ff161061037757610349858b6115e8565b815261035589846115fc565b60ff166040820181905261036a908790611615565b60ff16602082015261042a565b61038182846115fc565b61038c90600a611577565b610396908b6115e8565b8152898511156103f957600260808201526103b1838a6115fc565b6103bc906002611615565b60ff1660a082018190526103d09083611615565b60ff16604082018190526103e5908790611615565b60ff166020820152600160c082015261042a565b610404826001611615565b60ff16604082015261041689846115fc565b610421906001611615565b60ff1660608201525b85816040015161043a9190611615565b60ff16602082015261044b8161096d565b9a9950505050505050505050565b6060600061046688610cb0565b6040517f85487f840000000000000000000000000000000000000000000000000000000081526004810186905273ffffffffffffffffffffffffffffffffffffffff8516602482015290915060009030906385487f8490604401600060405180830381865afa1580156104dd573d6000803e3d6000fd5b505050506040513d6000823e601f3d908101601f191682016040526105059190810190611369565b6040517f499b98d300000000000000000000000000000000000000000000000000000000815273ffffffffffffffffffffffffffffffffffffffff86166004820152909150600090309063499b98d390602401600060405180830381865afa158015610575573d6000803e3d6000fd5b505050506040513d6000823e601f3d908101601f1916820160405261059d9190810190611369565b905060006105e06040518060400160405280600881526020017f51756573742049440000000000000000000000000000000000000000000000008152508b610d50565b61061f6040518060400160405280600881526020017f546f6b656e20494400000000000000000000000000000000000000000000000081525086610d50565b6106666040518060400160405280601281526020017f546f74616c205061727469636970616e747300000000000000000000000000008152506106618d610cb0565b610d50565b61071a6040518060400160405280600781526020017f436c61696d6564000000000000000000000000000000000000000000000000008152508c6106df576040518060400160405280600581526020017f66616c7365000000000000000000000000000000000000000000000000000000815250610d50565b6040518060400160405280600481526020017f7472756500000000000000000000000000000000000000000000000000000000815250610d50565b6107596040518060400160405280600d81526020017f52657761726420416d6f756e740000000000000000000000000000000000000081525088610d50565b6107b36040518060400160405280600e81526020017f52657761726420416464726573730000000000000000000000000000000000008152506106618d73ffffffffffffffffffffffffffffffffffffffff166014610d7f565b6040516020016107c89695949392919061162e565b60405160208183030381529060405290506000846107e78a8686610fc6565b836040516020016107fa93929190611761565b60408051808303601f190181529190529c9b505050505050505050505050565b6060815160000361083957505060408051602081019091526000815290565b600060405180606001604052806040815260200161393260409139905060006003845160026108689190611907565b61087291906115e8565b61087d90600461191a565b67ffffffffffffffff81111561089557610895611214565b6040519080825280601f01601f1916602001820160405280156108bf576020820181803683370190505b509050600182016020820185865187015b8082101561092b576003820191508151603f8160121c168501518453600184019350603f81600c1c168501518453600184019350603f8160061c168501518453600184019350603f81168501518453506001830192506108d0565b5050600386510660018114610947576002811461095a57610962565b603d6001830353603d6002830353610962565b603d60018303535b509195945050505050565b60606000826020015160ff1667ffffffffffffffff81111561099157610991611214565b6040519080825280601f01601f1916602001820160405280156109bb576020820181803683370190505b5090508260e0015115610a38577f250000000000000000000000000000000000000000000000000000000000000081600183516109f89190611939565b81518110610a0857610a0861194c565b60200101907effffffffffffffffffffffffffffffffffffffffffffffffffffffffffffff1916908160001a9053505b8260c0015115610b09577f300000000000000000000000000000000000000000000000000000000000000081600081518110610a7657610a7661194c565b60200101907effffffffffffffffffffffffffffffffffffffffffffffffffffffffffffff1916908160001a9053507f2e0000000000000000000000000000000000000000000000000000000000000081600181518110610ad957610ad961194c565b60200101907effffffffffffffffffffffffffffffffffffffffffffffffffffffffffffff1916908160001a9053505b608083015160ff165b8360a0015160ff16811015610b7957603060f81b828281518110610b3857610b3861194c565b60200101907effffffffffffffffffffffffffffffffffffffffffffffffffffffffffffff1916908160001a90535080610b718161197b565b915050610b12565b505b825115610163576000836060015160ff16118015610ba65750826060015160ff16836040015160ff16145b15610c23577f2e0000000000000000000000000000000000000000000000000000000000000081846040018051610bdc90611995565b60ff169081905281518110610bf357610bf361194c565b60200101907effffffffffffffffffffffffffffffffffffffffffffffffffffffffffffff1916908160001a9053505b8251610c3190600a906115d4565b610c3c906030611907565b60f81b81846040018051610c4f90611995565b60ff169081905281518110610c6657610c6661194c565b60200101907effffffffffffffffffffffffffffffffffffffffffffffffffffffffffffff1916908160001a905350600a83600001818151610ca891906115e8565b905250610b7b565b60606000610cbd83611064565b600101905060008167ffffffffffffffff811115610cdd57610cdd611214565b6040519080825280601f01601f191660200182016040528015610d07576020820181803683370190505b5090508181016020015b600019017f3031323334353637383961626364656600000000000000000000000000000000600a86061a8153600a8504945084610d1157509392505050565b606060008383604051602001610d679291906119b2565b60408051808303601f19018152919052949350505050565b60606000610d8e83600261191a565b610d99906002611907565b67ffffffffffffffff811115610db157610db1611214565b6040519080825280601f01601f191660200182016040528015610ddb576020820181803683370190505b5090507f300000000000000000000000000000000000000000000000000000000000000081600081518110610e1257610e1261194c565b60200101907effffffffffffffffffffffffffffffffffffffffffffffffffffffffffffff1916908160001a9053507f780000000000000000000000000000000000000000000000000000000000000081600181518110610e7557610e7561194c565b60200101907effffffffffffffffffffffffffffffffffffffffffffffffffffffffffffff1916908160001a9053506000610eb184600261191a565b610ebc906001611907565b90505b6001811115610f59577f303132333435363738396162636465660000000000000000000000000000000085600f1660108110610efd57610efd61194c565b1a60f81b828281518110610f1357610f1361194c565b60200101907effffffffffffffffffffffffffffffffffffffffffffffffffffffffffffff1916908160001a90535060049490941c93610f5281611acf565b9050610ebf565b508315610160576040517f08c379a000000000000000000000000000000000000000000000000000000000815260206004820181905260248201527f537472696e67733a20686578206c656e67746820696e73756666696369656e74604482015260640160405180910390fd5b6060600084610ff05760405180611ce00160405280611cb68152602001613972611cb6913961100d565b60405180611da00160405280611d708152602001611bc2611d7091395b848460405160200161102193929190611ae6565b604051602081830303815290604052905061103b8161081a565b60405160200161104b9190611b7c565b6040516020818303038152906040529150509392505050565b6000807a184f03e93ff9f4daa797ed6e38ed64bf6a1f01000000000000000083106110ad577a184f03e93ff9f4daa797ed6e38ed64bf6a1f010000000000000000830492506040015b6d04ee2d6d415b85acef810000000083106110d9576d04ee2d6d415b85acef8100000000830492506020015b662386f26fc1000083106110f757662386f26fc10000830492506010015b6305f5e100831061110f576305f5e100830492506008015b612710831061112357612710830492506004015b60648310611135576064830492506002015b600a83106101635760010192915050565b803573ffffffffffffffffffffffffffffffffffffffff8116811461116a57600080fd5b919050565b60006020828403121561118157600080fd5b61118a82611146565b9392505050565b60005b838110156111ac578181015183820152602001611194565b50506000910152565b60208152600082518060208401526111d4816040850160208701611191565b601f01601f19169190910160400192915050565b600080604083850312156111fb57600080fd5b8235915061120b60208401611146565b90509250929050565b7f4e487b7100000000000000000000000000000000000000000000000000000000600052604160045260246000fd5b604051601f8201601f1916810167ffffffffffffffff8111828210171561126c5761126c611214565b604052919050565b600067ffffffffffffffff82111561128e5761128e611214565b50601f01601f191660200190565b8035801515811461116a57600080fd5b60008060008060008060c087890312156112c557600080fd5b86359550602087013567ffffffffffffffff8111156112e357600080fd5b8701601f810189136112f457600080fd5b803561130761130282611274565b611243565b8181528a602083850101111561131c57600080fd5b81602084016020830137600060208383010152809750505050604087013593506113486060880161129c565b92506080870135915061135d60a08801611146565b90509295509295509295565b60006020828403121561137b57600080fd5b815167ffffffffffffffff81111561139257600080fd5b8201601f810184136113a357600080fd5b80516113b161130282611274565b8181528560208385010111156113c657600080fd5b6113d7826020830160208601611191565b95945050505050565b6000602082840312156113f257600080fd5b815160ff8116811461016057600080fd5b60008151611415818560208601611191565b9290920192915050565b7f646174613a6170706c69636174696f6e2f6a736f6e3b6261736536342c00000081526000825161145781601d850160208701611191565b91909101601d0192915050565b7f4e487b7100000000000000000000000000000000000000000000000000000000600052601160045260246000fd5b600181815b808511156114ce5781600019048211156114b4576114b4611464565b808516156114c157918102915b93841c9390800290611498565b509250929050565b6000826114e557506001610163565b816114f257506000610163565b816001811461150857600281146115125761152e565b6001915050610163565b60ff84111561152357611523611464565b50506001821b610163565b5060208310610133831016604e8410600b8410161715611551575081810a610163565b61155b8383611493565b806000190482111561156f5761156f611464565b029392505050565b600061118a60ff8416836114d6565b600060ff821660ff810361159c5761159c611464565b60010192915050565b7f4e487b7100000000000000000000000000000000000000000000000000000000600052601260045260246000fd5b6000826115e3576115e36115a5565b500690565b6000826115f7576115f76115a5565b500490565b60ff828116828216039081111561016357610163611464565b60ff818116838216019081111561016357610163611464565b7f5b00000000000000000000000000000000000000000000000000000000000000815260008751611666816001850160208c01611191565b80830190507f2c0000000000000000000000000000000000000000000000000000000000000080600183015288516116a5816002850160208d01611191565b6002920191820181905287516116c2816003850160208c01611191565b6003920191820181905286516116df816004850160208b01611191565b600492019182015284516116fa816005840160208901611191565b61044b6117386117326005848601017f2c00000000000000000000000000000000000000000000000000000000000000815260010190565b87611403565b7f5d00000000000000000000000000000000000000000000000000000000000000815260010190565b7f7b0000000000000000000000000000000000000000000000000000000000000081527f226e616d65223a2022526162626974486f6c652e6767205265636569707420236001820152600084516117bf816021850160208901611191565b80830190507f222c0000000000000000000000000000000000000000000000000000000000008060218301527f226465736372697074696f6e223a2022526162626974486f6c652e676720526560238301527f63656970747320617265207573656420746f20636c61696d207265776172647360438301527f2066726f6d20636f6d706c65746564207175657374732e222c0000000000000060638301527f22696d616765223a202200000000000000000000000000000000000000000000607c8301528551611896816086850160208a01611191565b60869201918201527f2261747472696275746573223a2000000000000000000000000000000000000060888201526118fd6118d46096830186611403565b7f7d00000000000000000000000000000000000000000000000000000000000000815260010190565b9695505050505050565b8082018082111561016357610163611464565b600081600019048311821515161561193457611934611464565b500290565b8181038181111561016357610163611464565b7f4e487b7100000000000000000000000000000000000000000000000000000000600052603260045260246000fd5b6000600019820361198e5761198e611464565b5060010190565b600060ff8216806119a8576119a8611464565b6000190192915050565b7f7b0000000000000000000000000000000000000000000000000000000000000081527f2274726169745f74797065223a20220000000000000000000000000000000000600182015260008351611a10816010850160208801611191565b7f222c0000000000000000000000000000000000000000000000000000000000006010918401918201527f2276616c7565223a20220000000000000000000000000000000000000000000060128201528351611a7381601c840160208801611191565b7f2200000000000000000000000000000000000000000000000000000000000000601c92909101918201527f7d00000000000000000000000000000000000000000000000000000000000000601d820152601e01949350505050565b600081611ade57611ade611464565b506000190190565b60008451611af8818460208901611191565b845190830190611b0c818360208901611191565b7f200000000000000000000000000000000000000000000000000000000000000091019081528351611b45816001840160208801611191565b7f3c2f746578743e3c2f7376673e0000000000000000000000000000000000000060019290910191820152600e0195945050505050565b7f646174613a696d6167652f7376672b786d6c3b6261736536342c000000000000815260008251611bb481601a850160208701611191565b91909101601a019291505056fe3c73766720786d6c6e733d22687474703a2f2f7777772e77332e6f72672f323030302f7376672220786d6c6e733a786c696e6b3d22687474703a2f2f7777772e77332e6f72672f313939392f786c696e6b222077696474683d2236323322206865696768743d223834382220786d6c6e733a763d2268747470733a2f2f76656374612e696f2f6e616e6f223e3c646566733e3c72616469616c4772616469656e742069643d2241222063783d2231382e3033222063793d222d32332e38352220723d223122206772616469656e745472616e73666f726d3d226d6174726978282d3737382e343420302030202d3735352e35392031343334312e3932202d31373635352e3234292220786c696e6b3a687265663d222347223e3c73746f70206f66667365743d222e3031222073746f702d636f6c6f723d2223646538306666222073746f702d6f7061636974793d222e3339222f3e3c73746f70206f66667365743d222e3134222073746f702d636f6c6f723d2223656337626666222073746f702d6f7061636974793d222e3232222f3e3c73746f70206f66667365743d222e3237222073746f702d636f6c6f723d2223663235616666222073746f702d6f7061636974793d222e3438222f3e3c73746f70206f66667365743d2231222073746f702d636f6c6f723d2223316332333162222073746f702d6f7061636974793d2230222f3e3c2f72616469616c4772616469656e743e3c72616469616c4772616469656e742069643d2242222063783d2231372e3931222063793d222d32332e38362220723d223122206772616469656e745472616e73666f726d3d226d617472697828382c3333332c2d3537392e35392c31332e39322c2d31333636392e30352c2d353538312e3034292220786c696e6b3a687265663d222347223e3c73746f70206f66667365743d2230222073746f702d636f6c6f723d2223386630306666222073746f702d6f7061636974793d222e3531222f3e3c73746f70206f66667365743d2231222073746f702d636f6c6f723d2223316332333162222073746f702d6f7061636974793d2230222f3e3c2f72616469616c4772616469656e743e3c72616469616c4772616469656e742069643d2243222063783d2231382e3039222063793d222d32332e39312220723d223122206772616469656e745472616e73666f726d3d226d617472697828302c2d3334352c3837372e37372c302c32313330352e32372c373034352e35292220786c696e6b3a687265663d222347223e3c73746f70206f66667365743d2230222073746f702d636f6c6f723d2223633133666666222f3e3c73746f70206f66667365743d2231222073746f702d636f6c6f723d2223316332333162222073746f702d6f7061636974793d2230222f3e3c2f72616469616c4772616469656e743e3c72616469616c4772616469656e742069643d2244222063783d2231372e3933222063793d222d32332e39312220723d223122206772616469656e745472616e73666f726d3d226d6174726978283236382c2d322c382e35372c313134382e36352c2d343534382e39392c32373837392e36292220786c696e6b3a687265663d222347223e3c73746f70206f66667365743d2230222073746f702d636f6c6f723d2223623934366666222f3e3c73746f70206f66667365743d2231222073746f702d636f6c6f723d2223316332333162222073746f702d6f7061636974793d2230222f3e3c2f72616469616c4772616469656e743e3c72616469616c4772616469656e742069643d2245222063783d2231382e3037222063793d222d32332e38372220723d223122206772616469656e745472616e73666f726d3d226d6174726978282d3234322c302c302c2d313237372e34332c343933342e352c2d33303131352e3836292220786c696e6b3a687265663d222347223e3c73746f70206f66667365743d2230222073746f702d636f6c6f723d2223646430666666222073746f702d6f7061636974793d222e3931222f3e3c73746f70206f66667365743d2231222073746f702d636f6c6f723d2223316332333162222073746f702d6f7061636974793d2230222f3e3c2f72616469616c4772616469656e743e3c706174682069643d22462220643d224d3339392e36203636483232352e3441323220323220302030203120323034203833682d33396132322032322030203020312d32312e342d3137682d34344c36362039392e3656373831683435332e356c33362e352d33362e35762d3634314c3531382e35203636682d33372e3141323220323220302030203120343630203833682d33396132322032322030203020312d32312e342d31375a222f3e3c6c696e6561724772616469656e742069643d224722206772616469656e74556e6974733d227573657253706163654f6e557365222f3e3c2f646566733e3c7061746820643d224d2e352e356836323276383437482e357a22207374726f6b653d222330303022207374726f6b652d6d697465726c696d69743d223130222f3e3c672066696c6c2d72756c653d226576656e6f6464223e3c7061746820643d224d3430302036362e35483232352e386132322032322030203020312d32312e34203137682d33396132322032322030203020312d32312e342d3137682d34346c2d33332e362033332e36763638312e34683435332e356c33362e352d33362e35563130346c2d33372e352d33372e35682d33372e316132322032322030203020312d32312e34203137682d33396132322032322030203020312d32312e342d31377a222066696c6c3d2223306330623066222066696c6c2d6f7061636974793d222e3236222f3e3c67207472616e73666f726d3d227472616e736c617465282e34202e3529223e3c75736520786c696e6b3a687265663d222346222066696c6c2d6f7061636974793d222e3939222066696c6c3d2275726c28234129222f3e3c75736520786c696e6b3a687265663d222346222066696c6c2d6f7061636974793d222e35222066696c6c3d2275726c28234229222f3e3c75736520786c696e6b3a687265663d222346222066696c6c2d6f7061636974793d222e35222066696c6c3d2275726c28234329222f3e3c75736520786c696e6b3a687265663d222346222066696c6c2d6f7061636974793d222e35222066696c6c3d2275726c28234429222f3e3c75736520786c696e6b3a687265663d222346222066696c6c2d6f7061636974793d222e35222066696c6c3d2275726c28234529222f3e3c2f673e3c2f673e3c672066696c6c3d226e6f6e6522207374726f6b653d222361643836666622207374726f6b652d77696474683d2232223e3c7061746820643d224d3230342e342038342e356132332032332030203020302032322e322d3137683137322e366132332032332030203020302032322e322031376833396132332032332030203020302032322e322d31376833352e396c33362e392033362e39763634302e326c2d33352e392033352e394836372e34762d3638306c33332d33336834322e386132332032332030203020302032322e322031377a222f3e3c7061746820643d224d3331312e39203330352e335636382e356d2d372e35203233362e335638362e326c2d31382e352d31382e376d33332e35203233372e335638362e326c31382e352d31382e374d3239372e34203330355638392e376c2d32322d32322e326d3532203233372e33762d3231356c32322d32322e336d2d33362e35203333312e37763137302e366d372e352d3137302e36763135322e396c31382e352031382e376d2d33332e352d3137312e36763135322e396c2d31382e352031382e376d34302e352d3137312e33763134396c32322032322e326d2d35322d3137312e37763134392e356c2d32322032322e324d3230382e392036303263302d31372e3339372031342e3130332d33312e352033312e352d33312e35683134306331372e33393720302033312e352031342e3130332033312e352033312e35732d31342e3130332033312e352d33312e352033312e35682d313430632d31372e33393720302d33312e352d31342e3130332d33312e352d33312e357a6d3237362e382d3236302e377631326d3020307631326d302d3132682d31326d313220306831326d2d313220376137203720302031203120302d31342037203720302031203120302031347a6d2d3335332d31397631326d3020307631326d302d3132682d31326d313220306831326d2d313220376137203720302031203120302d31342037203720302031203120302031347a6d333533203233377631326d3020307631326d302d3132682d31326d313220306831326d2d313220376137203720302031203120302d31342037203720302031203120302031347a6d2d3335332d31397631326d3020307631326d302d3132682d31326d313220306831326d2d313220376137203720302031203120302d31342037203720302031203120302031347a222f3e3c2f673e3c7061746820643d224d3234322e37203731342e357632316834762d392e3168332e3663312e33203020312e3920312e3320312e39203476352e3168332e39762d362e3661332e3720332e372030203020302d322e382d3463322d2e3820322e372d322e3520322e372d342e3620302d342e312d312e352d352e382d342e372d352e387a6d3420322e3668332e3763312e32203020312e3920312e3320312e3920332e34732d2e3720332e332d312e3920332e33682d332e377a6d31342d322e367632316831322e38762d322e36682d382e37762d362e3768362e34762d322e35682d362e34762d362e3668382e37762d322e367a6d31372e34203076323168392e3563322e34203020332e392d322e3520332e392d352e37762d392e3563302d332e332d312e362d352e382d332e392d352e387a6d342e3120322e3668332e3763312e31203020312e3820312e3520312e3820332e3276392e35633020312e362d2e3720332e312d312e3820332e31682d332e377a6d31332e392d322e3676323148333039762d322e36682d382e38762d362e3768362e34762d322e35682d362e34762d362e3668382e38762d322e367a6d31372e3720307632316831322e39762d322e36682d382e38762d362e3768362e34762d322e35682d362e34762d362e3668382e38762d322e367a6d31372e3420307632316833762d31332e326c322e312031332e3268332e326c322e332d31332e337631332e3368322e39762d3231682d346c2d322e372031362d322e382d31367a6d313820307632316831322e39762d322e36682d382e38762d362e3768362e34762d322e35682d362e34762d362e3668382e38762d322e367a6d31372e35203076323168392e3463322e34203020342d322e3520342d352e37762d392e3563302d332e332d312e362d352e382d342d352e387a6d3420322e3668332e3763312e32203020312e3920312e3520312e3920332e3276392e35633020312e362d2e3720332e312d312e3920332e31682d332e377a4d3234352e35203630342e3776372e35682d332e36762d32302e3168382e3361382e363720382e363720302030203120352e3420312e3620362e313120362e313120302030203120312e3820342e3720352e3720352e372030203020312d342e3120352e376c342e3920382e31682d346c2d342e342d372e357a6d302d392e3676362e3668342e3361342e3620342e3620302030203020332e312d2e3820332e353920332e353920302030203020302d3520342e3620342e362030203020302d332e312d2e387a6d32362e362031372e31682d332e3463302d2e342d2e312d2e382d2e312d312e3261332e3720332e372030203020312d2e312d312e3120332e383920332e38392030203020312d312e3720312e3920362e313220362e31322030203020312d322e392e3720342e353120342e35312030203020312d332e332d312e3220332e3520332e352030203020312d312e332d3320332e3720332e3720302030203120312e322d322e3920362e363520362e363520302030203120332e382d312e346c342e312d2e35762d2e3761322e343920322e34392030203020302d2e372d312e3920322e373220322e37322030203020302d312e392d2e3720322e333720322e33372030203020302d312e382e3620322e3320322e332030203020302d2e3820312e36682d332e3361342e343920342e343920302030203120312e382d332e3520362e333520362e333520302030203120342e322d312e332036203620302030203120342e3420312e3420352e323920352e323920302030203120312e3520342e3176372e357a6d2d392e342d342e3161312e3720312e37203020302030202e3620312e3420322e3520322e3520302030203020312e362e3520332e363820332e363820302030203020322e352d2e3920332e323220332e323220302030203020312d322e35762d2e386c2d332e312e3361352e303920352e30392030203020302d32202e3720312e343920312e34392030203020302d2e3620312e337a6d32302e3220342e3461352e323120352e32312030203020312d322e372d2e3720342e343120342e34312030203020312d312e372d312e3976322e33682d332e34762d32302e3768332e3576382e3761332e383920332e383920302030203120312e372d312e3920342e353920342e353920302030203120322e362d2e3720352e363120352e363120302030203120342e34203220392e343220392e343220302030203120302031302e3820352e3420352e342030203020312d342e3420322e317a6d2d312d31322e33613320332030203020302d322e3520312e3220352e363820352e36382030203020302d2e3920332e34762e3561352e393220352e3932203020302030202e3920332e342033203320302030203020322e3520312e3220332e333920332e333920302030203020322e372d312e3320362e3420362e34203020302030202e392d332e3620362e303820362e30382030203020302d2e392d332e3520332e3120332e312030203020302d322e372d312e337a6d31372e342031322e33613520352030203020312d322e372d2e3720342e343120342e34312030203020312d312e372d312e3976322e33682d332e34762d32302e3768332e3576382e3761332e383920332e383920302030203120312e372d312e3920342e353920342e353920302030203120322e362d2e3720352e363120352e363120302030203120342e34203220392e343220392e343220302030203120302031302e3820352e3420352e342030203020312d342e3420322e317a6d2d312d31322e33613320332030203020302d322e3520312e3220352e363820352e36382030203020302d2e3920332e34762e3561352e393220352e3932203020302030202e3920332e342033203320302030203020322e3520312e3220332e3520332e3520302030203020322e372d312e3320362e3420362e34203020302030202e392d332e3620362e303820362e30382030203020302d2e392d332e3520332e323120332e32312030203020302d322e372d312e337a6d31332e322d342e37682d332e375635393268332e377a6d2d2e322031362e37682d332e34762d31342e3368332e347a6d392d322e37682e396c2e392d2e3276322e386c2d312e342e33682d312e3461342e343120342e34312030203020312d332e322d3120342e323120342e32312030203020312d312e312d332e31762d372e38682d312e39762d322e3668312e39762d332e3668332e3576332e3668332e3376322e36682d332e3376372e3261322032203020302030202e3420312e3420312e383220312e383220302030203020312e342e347a6d372e3920322e37682d332e36762d32302e3168332e3676382e34683130762d382e3468332e357632302e31682d332e35762d382e37682d31307a6d32332e312d31342e3661362e343820362e34382030203020312035203220382e373720382e373720302030203120302031302e3920362e363920362e36392030203020312d35203220362e383920362e38392030203020312d352e312d3220382e373720382e373720302030203120302d31302e3920362e363320362e363320302030203120352e312d327a6d3020322e3661332e323220332e32322030203020302d322e3620312e3320352e373720352e37372030203020302d2e3920332e3520362e3420362e34203020302030202e3920332e3620332e3120332e3120302030203020322e3620312e3220322e3920322e3920302030203020322e352d312e3220352e363820352e363820302030203020312d332e3620352e3420352e342030203020302d312d332e35203320332030203020302d322e352d312e337a6d31322e392d382e377632302e37682d332e35762d32302e377a6d31322e352031362e3268332e3261352e313920352e31392030203020312d322e3220332e3520362e303720362e30372030203020312d342e3120312e3320362e383820362e38382030203020312d352d3220382e373720382e373720302030203120302d31302e3920362e363920362e363920302030203120352d3220352e343920352e343920302030203120342e36203220372e323920372e323920302030203120312e3720352e3276312e314833373061342e363220342e363220302030203020312e3120322e3920332e333220332e333220302030203020322e3520312e3120322e3920322e3920302030203020312e392d2e3620332e343120332e343120302030203020312e322d312e367a6d2d332e312d372e35613320332030203020302d322e332e3920342e353520342e35352030203020302d312e3220322e3568362e3561332e363120332e36312030203020302d2e382d322e3420322e3720322e372030203020302d322e322d317a6d3132312e312d3433312e366331322e3536352d342e3930342032302e3133362d31372e3737352031382e3331372d33312e3134732d31322e3535352d32332e3734342d32352e3937332d32352e3131322d32362e30323720362e3633342d33302e3530342031392e3335372e3334332032362e3835372031312e3636312033342e31393461332e3220332e3220302030203120322e382d312e37632e322030202e352d2e332e342d2e356132312e34372032312e34372030203020312d2e372d352e3163302d31302e3720382e312d31392e332031382e312d31392e3361312e393220312e393220302030203020312e362d312e31762d2e3261322e3620322e362030203020302d312e362d332e332031382e39312031382e39312030203020312d31332e372d31342e312e38312e383120302030203120312e342d2e386c32362e342032302e3161312e303820312e3038203020302031202e342e392031382e32352031382e3235203020302030202e3120372e312e37392e37392030203020312d2e332e3920382e3120382e312030203020312d382e362e3520312e333820312e33382030203020302d312e312d2e3220312e353120312e35312030203020302d312e3120312e347631322e32612e392e392030203020312d2e392e39682d312e36612e392e392030203020312d2e392d2e3920382e3420382e342030203020302d382e312d372e34682d2e38612e362e36203020312030202e3120312e3220372e3320372e33203020302031203620372e3320372e353220372e35322030203020312d2e3220312e352e392e39203020302030202e363820312e303868372e303261312e323120312e3231203020302031202e352e3520322e353820322e3538203020302031202e3620312e37327a4d3436372e3320313337612e362e36203020302031202e342d312e316831362e36632e3330342d2e3133382e3636322d2e3030342e382e33732e3030342e3636322d2e332e386131342e35362031342e35362030203020312d382e3820332e312031342031342030203020312d382e372d332e317a6d33312e3520352e3361312e3620312e362030203020312d332e3139372d2e31333120312e3620312e3620302030203120312e3539372d312e35363920312e3720312e3720302030203120312e3620312e377a222066696c6c3d2223646165306666222f3e3c7465787420616c69676e6d656e742d626173656c696e653d226d6964646c652220746578742d616e63686f723d226d6964646c6522207472616e73666f726d3d227472616e736c61746528333131203337302e39292220666f6e742d73697a653d223434222066696c6c3d22236666662220666f6e742d66616d696c793d22417269616c4d542c20417269616c223e4142434445464748494a4b4c4d4e4f505152535455565758595a6162636465666768696a6b6c6d6e6f707172737475767778797a303132333435363738392b2f3c73766720786d6c6e733d22687474703a2f2f7777772e77332e6f72672f323030302f7376672220786d6c6e733a786c696e6b3d22687474703a2f2f7777772e77332e6f72672f313939392f786c696e6b222077696474683d2236323322206865696768743d22383438223e3c646566733e3c72616469616c4772616469656e742069643d2241222063783d2231382e3033222063793d222d32332e38352220723d223122206772616469656e745472616e73666f726d3d226d6174726978282d37353020342e3031202d332e3839202d3732372e39392031333733382e3735202d31373036332e35312922206772616469656e74556e6974733d227573657253706163654f6e557365223e3c73746f70206f66667365743d222e3031222073746f702d636f6c6f723d2223366166663637222073746f702d6f7061636974793d222e3339222f3e3c73746f70206f66667365743d222e3134222073746f702d636f6c6f723d2223353966663365222073746f702d6f7061636974793d222e3232222f3e3c73746f70206f66667365743d222e33222073746f702d636f6c6f723d2223346164343333222073746f702d6f7061636974793d222e3532222f3e3c73746f70206f66667365743d222e34222073746f702d636f6c6f723d2223336562343262222073746f702d6f7061636974793d2230222f3e3c73746f70206f66667365743d2231222073746f702d6f7061636974793d2230222f3e3c2f72616469616c4772616469656e743e3c72616469616c4772616469656e742069643d2242222063783d2231372e3931222063793d222d32332e38362220723d223122206772616469656e745472616e73666f726d3d226d617472697828382c3333332c2d3537392e35392c31332e39322c2d31333636392e30352c2d353538312e30342922206772616469656e74556e6974733d227573657253706163654f6e557365223e3c73746f70206f66667365743d2230222073746f702d636f6c6f723d2223353966663365222073746f702d6f7061636974793d222e3335222f3e3c73746f70206f66667365743d2231222073746f702d6f7061636974793d2230222f3e3c2f72616469616c4772616469656e743e3c72616469616c4772616469656e7420786c696e6b3a687265663d222342222069643d2243222063783d2231382e3039222063793d222d32332e393122206772616469656e745472616e73666f726d3d226d617472697828302c2d3334352c3837372e37372c302c32313330352e32372c373034352e3529222f3e3c72616469616c4772616469656e7420786c696e6b3a687265663d222342222069643d2244222063783d2231372e3933222063793d222d32332e393122206772616469656e745472616e73666f726d3d226d6174726978283236382c2d322c382e35372c313134382e36352c2d343534382e39392c32373837392e3629222f3e3c72616469616c4772616469656e742069643d2245222063783d2231382e3037222063793d222d32332e38372220723d223122206772616469656e745472616e73666f726d3d226d6174726978282d3234322c302c302c2d313237372e34332c343933342e352c2d33303131352e38362922206772616469656e74556e6974733d227573657253706163654f6e557365223e3c73746f70206f66667365743d2230222073746f702d636f6c6f723d2223353966663365222073746f702d6f7061636974793d222e3432222f3e3c73746f70206f66667365743d2231222073746f702d6f7061636974793d2230222f3e3c2f72616469616c4772616469656e743e3c706174682069643d22462220643d224d3339392e36203636483232352e3441323220323220302030203120323034203833682d33396132322032322030203020312d32312e342d3137682d34344c36362039392e3656373831683435332e356c33362e352d33362e35762d3634314c3531382e35203636682d33372e3141323220323220302030203120343630203833682d33396132322032322030203020312d32312e342d31375a222f3e3c2f646566733e3c7061746820643d224d2e352e356836323276383437482e357a22207374726f6b653d222330303022207374726f6b652d6d697465726c696d69743d223130222f3e3c7061746820643d224d3430302e312036362e35483232352e396132322032322030203020312d32312e34203137682d33396132322032322030203020312d32312e342d3137682d34346c2d33332e362033332e36763638312e34483532306c33362e352d33362e35563130344c3531392036362e35682d33372e316132322032322030203020312d32312e34203137682d33396132322032322030203020312d32312e342d31377a222066696c6c2d6f7061636974793d222e32222f3e3c67207472616e73666f726d3d227472616e736c617465282e35202e3529223e3c75736520786c696e6b3a687265663d222346222066696c6c3d2275726c28234129222f3e3c75736520786c696e6b3a687265663d222346222066696c6c3d2275726c28234229222f3e3c75736520786c696e6b3a687265663d222346222066696c6c3d2275726c28234329222f3e3c75736520786c696e6b3a687265663d222346222066696c6c3d2275726c28234429222f3e3c75736520786c696e6b3a687265663d222346222066696c6c3d2275726c28234529222f3e3c2f673e3c672066696c6c3d226e6f6e6522207374726f6b653d222334326666303022207374726f6b652d77696474683d2232223e3c7061746820643d224d3230342e352038342e356132332032332030203020302032322e322d3137683137322e366132332032332030203020302032322e322031376833396132332032332030203020302032322e322d31376833352e396c33362e392033362e39763634302e326c2d33352e392033352e394836372e35762d3638306c33332d33336834322e386132332032332030203020302032322e322031377a22207374726f6b652d6f7061636974793d222e3937222f3e3c7061746820643d224d333132203330352e335636382e356d2d372e35203233362e335638362e324c3238362036372e356d33332e35203233372e335638362e324c3333382036372e354d3239372e35203330355638392e376c2d32322d32322e326d3532203233372e33762d3231356c32322d32322e334d333133203339392e32763137302e366d372e352d3137302e36763135322e396c31382e352031382e376d2d33332e352d3137312e36763135322e394c323837203537302e386d34302e352d3137312e33763134396c32322032322e326d2d35322d3137312e37763134392e356c2d32322032322e324d3230392036303263302d31372e3339372031342e3130332d33312e352033312e352d33312e35683134306331372e33393720302033312e352031342e3130332033312e352033312e35732d31342e3130332033312e352d33312e352033312e35682d313430632d31372e33393720302d33312e352d31342e3130332d33312e352d33312e357a6d3237362e332d3236302e377631326d3020307631326d302d3132682d31326d313220306831326d2d313220376137203720302031203120302d31342037203720302031203120302031347a6d2d3335332d31397631326d3020307631326d302d3132682d31326d313220306831326d2d313220376137203720302031203120302d31342037203720302031203120302031347a6d333533203233377631326d3020307631326d302d3132682d31326d313220306831326d2d313220376137203720302031203120302d31342037203720302031203120302031347a6d2d3335332d31397631326d3020307631326d302d3132682d31326d313220306831326d2d313220376137203720302031203120302d31342037203720302031203120302031347a22207374726f6b652d6f7061636974793d222e3937222f3e3c2f673e3c7061746820643d224d3232352e32203732302e3376323168342e31762d392e3168332e3663312e32203020312e3920312e3320312e39203476352e3168332e38762d362e3663302d322e342d312d332e342d322e372d3420312e392d2e3820322e362d322e3520322e362d342e3620302d342e312d312e342d352e382d342e372d352e387a6d342e3120322e3668332e3663312e32203020312e3920312e3320312e3920332e34732d2e3720332e332d312e3920332e33682d332e367a6d31332e392d322e367632316831322e39762d322e36682d382e385637333268362e34762d322e35682d362e34762d362e3668382e38762d322e367a6d31372e35203076323168392e3463322e34203020342d322e3520342d352e37762d392e3563302d332e332d312e372d352e382d342d352e387a6d3420322e3668332e3763312e31203020312e3820312e3520312e3820332e3276392e35633020312e362d2e3720332e312d312e3820332e31682d332e377a6d31332e392d322e367632316831322e39762d322e36682d382e385637333268362e34762d322e35682d362e34762d362e3668382e38762d322e367a6d31372e3720307632316831322e39762d322e36682d382e385637333268362e34762d322e35682d362e34762d362e3668382e38762d322e367a6d31372e34203076323168332e31762d31332e326c322e312031332e3268332e316c322e332d31332e337631332e3368322e39762d3231682d346c2d322e372031362d322e372d31367a6d32372e3520323168346c2d342e342d3231682d352e336c2d342e3320323168342e316c2e362d342e3468342e367a6d2d332e322d31382e34682e346c312e372031312e34682d332e387a6d31312d322e3676323168392e3863322e34203020342d322e3620342d352e39732d2e392d342e322d322e312d3563312e322d2e3920312e372d322e3320312e372d342e33732d312e362d352e382d342d352e387a6d342e3120322e3668332e3663312e32203020312e3920312e3220312e3920332e33732d2e3720332e312d312e3920332e31682d332e367a6d302039683463312e31203020312e3820312e3520312e3820332e34732d2e3720332e342d312e3820332e34682d347a6d31332e382d31312e367632316831332e34762d322e3648333731762d31382e347a6d313820307632316831322e39762d322e36483338395637333268362e34762d322e3548333839762d362e3668382e38762d322e367a222066696c6c3d2223663266326632222f3e3c7061746820643d224d3234352e36203630342e3776372e3548323432762d32302e3168382e3361382e363720382e363720302030203120352e3420312e3620362e313120362e313120302030203120312e3820342e3720352e3720352e372030203020312d342e3120352e376c342e3920382e31682d346c2d342e342d372e357a6d302d392e3676362e3668342e3361342e3620342e3620302030203020332e312d2e3820332e353920332e353920302030203020302d3520342e3620342e362030203020302d332e312d2e387a6d32362e362031372e31682d332e3463302d2e342d2e312d2e382d2e312d312e3261332e3720332e372030203020312d2e312d312e3120332e383920332e38392030203020312d312e3720312e3920362e313220362e31322030203020312d322e392e3720342e353120342e35312030203020312d332e332d312e3220332e3520332e352030203020312d312e332d3320332e3720332e3720302030203120312e322d322e3920362e363520362e363520302030203120332e382d312e346c342e312d2e35762d2e3761322e343920322e34392030203020302d2e372d312e3920322e373220322e37322030203020302d312e392d2e3720322e333720322e33372030203020302d312e382e3620322e3320322e332030203020302d2e3820312e364832363061342e343920342e343920302030203120312e382d332e3520362e333520362e333520302030203120342e322d312e332036203620302030203120342e3420312e3420352e323920352e323920302030203120312e3520342e3176372e357a6d2d392e342d342e3161312e3720312e37203020302030202e3620312e3420322e3520322e3520302030203020312e362e3520332e363820332e363820302030203020322e352d2e3920332e323220332e323220302030203020312d322e35762d2e386c2d332e312e3361352e303920352e30392030203020302d32202e3720312e343920312e34392030203020302d2e3620312e337a6d32302e3220342e3461352e323120352e32312030203020312d322e372d2e3720342e343120342e34312030203020312d312e372d312e3976322e33682d332e34762d32302e3768332e3576382e3761332e383920332e383920302030203120312e372d312e3920342e353920342e353920302030203120322e362d2e3720352e363120352e363120302030203120342e34203220392e343220392e343220302030203120302031302e3820352e3420352e342030203020312d342e3420322e317a6d2d312d31322e33613320332030203020302d322e3520312e3220352e363820352e36382030203020302d2e3920332e34762e3561352e393220352e3932203020302030202e3920332e342033203320302030203020322e3520312e3220332e333920332e333920302030203020322e372d312e3320362e3420362e34203020302030202e392d332e3620362e303820362e30382030203020302d2e392d332e3520332e3120332e312030203020302d322e372d312e337a6d31372e342031322e33613520352030203020312d322e372d2e3720342e343120342e34312030203020312d312e372d312e3976322e33682d332e34762d32302e3768332e3576382e3761332e383920332e383920302030203120312e372d312e3920342e353920342e353920302030203120322e362d2e3720352e363120352e363120302030203120342e34203220392e343220392e343220302030203120302031302e3820352e3420352e342030203020312d342e3420322e317a6d2d312d31322e33613320332030203020302d322e3520312e3220352e363820352e36382030203020302d2e3920332e34762e3561352e393220352e3932203020302030202e3920332e342033203320302030203020322e3520312e3220332e3520332e3520302030203020322e372d312e3320362e3420362e34203020302030202e392d332e3620362e303820362e30382030203020302d2e392d332e3520332e323120332e32312030203020302d322e372d312e337a6d31332e322d342e37682d332e375635393268332e377a6d2d2e322031362e3748333038762d31342e3368332e347a6d392d322e37682e396c2e392d2e3276322e386c2d312e342e33682d312e3461342e343120342e34312030203020312d332e322d3120342e323120342e32312030203020312d312e312d332e31762d372e38682d312e39762d322e3668312e39762d332e3668332e3576332e3668332e3376322e36682d332e3376372e3261322032203020302030202e3420312e3420312e383220312e383220302030203020312e342e347a6d372e3920322e37682d332e36762d32302e3168332e3676382e34683130762d382e3468332e357632302e31682d332e35762d382e37682d31307a6d32332e312d31342e3661362e343820362e34382030203020312035203220382e373720382e373720302030203120302031302e3920362e363920362e36392030203020312d35203220362e383920362e38392030203020312d352e312d3220382e373720382e373720302030203120302d31302e3920362e363320362e363320302030203120352e312d327a6d3020322e3661332e323220332e32322030203020302d322e3620312e3320352e373720352e37372030203020302d2e3920332e3520362e3420362e34203020302030202e3920332e3620332e3120332e3120302030203020322e3620312e3220322e3920322e3920302030203020322e352d312e3220352e363820352e363820302030203020312d332e3620352e3420352e342030203020302d312d332e35203320332030203020302d322e352d312e337a6d31322e392d382e377632302e37682d332e35762d32302e377a6d31322e352031362e3268332e3261352e313920352e31392030203020312d322e3220332e3520362e303720362e30372030203020312d342e3120312e3320362e383820362e38382030203020312d352d3220382e373720382e373720302030203120302d31302e3920362e363920362e363920302030203120352d3220352e343920352e343920302030203120342e36203220372e323920372e323920302030203120312e3720352e3276312e31682d392e3961342e363220342e363220302030203020312e3120322e3920332e333220332e333220302030203020322e3520312e3120322e3920322e3920302030203020312e392d2e3620332e343120332e343120302030203020312e322d312e367a6d2d332e312d372e35613320332030203020302d322e332e3920342e353520342e35352030203020302d312e3220322e3568362e3561332e363120332e36312030203020302d2e382d322e3420322e3720322e372030203020302d322e322d317a6d3132312e312d3433312e366331322e3536352d342e3930342032302e3133362d31372e3737352031382e3331372d33312e3134732d31322e3535352d32332e3734342d32352e3937332d32352e3131322d32362e30323720362e3633342d33302e3530342031392e3335372e3334332032362e3835372031312e3636312033342e31393461332e3220332e3220302030203120322e382d312e37632e322030202e352d2e332e342d2e356132312e34372032312e34372030203020312d2e372d352e3163302d31302e3720382e312d31392e332031382e312d31392e3361312e393220312e393220302030203020312e362d312e31762d2e3261322e3620322e362030203020302d312e362d332e332031382e39312031382e39312030203020312d31332e372d31342e312e38312e383120302030203120312e342d2e386c32362e342032302e3161312e303820312e3038203020302031202e342e392031382e32352031382e3235203020302030202e3120372e312e37392e37392030203020312d2e332e3920382e3120382e312030203020312d382e362e3520312e333820312e33382030203020302d312e312d2e3220312e353120312e35312030203020302d312e3120312e347631322e32612e392e392030203020312d2e392e39682d312e36612e392e392030203020312d2e392d2e3920382e3420382e342030203020302d382e312d372e34682d2e38612e362e36203020312030202e3120312e3220372e3320372e33203020302031203620372e3320372e353220372e35322030203020312d2e3220312e352e392e39203020302030202e363820312e303868372e303261312e323120312e3231203020302031202e352e3520322e353820322e3538203020302031202e3620312e37327a4d3436372e3420313337612e362e36203020302031202e342d312e316831362e36632e3330342d2e3133382e3636322d2e3030342e382e33732e3030342e3636322d2e332e386131342e35362031342e35362030203020312d382e3820332e312031342031342030203020312d382e372d332e317a6d33312e3520352e3361312e3620312e362030203020312d332e3139372d2e31333120312e3620312e3620302030203120312e3539372d312e35363920312e3720312e3720302030203120312e3620312e377a222066696c6c3d2223646165306666222f3e3c7465787420616c69676e6d656e742d626173656c696e653d226d6964646c652220746578742d616e63686f723d226d6964646c6522207472616e73666f726d3d227472616e736c61746528333131203337302e39292220666f6e742d73697a653d223434222066696c6c3d22236666662220666f6e742d66616d696c793d22417269616c4d542c20417269616c223ea26469706673582212200806478b0281c48ee9044d333fc66eb78f102d884388739e9c70cc71aab765e864736f6c63430008100033",
  "devdoc": {
    "author": "RabbitHole.gg",
    "details": "This contract is used to render on-chain data for RabbitHole Receipts (ERC-721 standard)",
    "kind": "dev",
    "methods": {
      "generateTokenURI(uint256,string,uint256,bool,uint256,address)": {
        "details": "generates the tokenURI for a given ERC-721 token ID",
        "params": {
          "claimed_": "Whether or not the token has been claimed",
          "questId_": "The questId tied to the tokenId",
          "rewardAddress_": "The address of the reward token",
          "rewardAmount_": "The amount of reward tokens that the user is eligible for",
          "tokenId_": "The token id to generate the URI for",
          "totalParticipants_": "The total number of participants in the quest"
        },
        "returns": {
          "_0": "encoded JSON following the generic OpenSea metadata standard"
        }
      },
      "humanRewardAmount(uint256,address)": {
        "details": "Returns a human readable reward amount",
        "params": {
          "rewardAddress_": "The reward address",
          "rewardAmount_": "The reward amount"
        }
      },
      "symbolForAddress(address)": {
        "details": "Returns the symbol for a token address",
        "params": {
          "tokenAddress_": "The reward address"
        }
      }
    },
    "title": "ReceiptRenderer",
    "version": 1
  },
  "userdoc": {
    "kind": "user",
    "methods": {},
    "version": 1
  },
  "storageLayout": {
    "storage": [],
    "types": null
  }
}