{
  "_format": "hh-sol-artifact-1",
  "contractName": "MerkleDistributorRH",
  "sourceName": "contracts/MerkleDistributorRH.sol",
  "abi": [
    {
      "inputs": [
        {
          "internalType": "address",
          "name": "token_",
          "type": "address"
        },
        {
          "internalType": "uint256",
          "name": "endTime_",
          "type": "uint256"
        }
      ],
      "stateMutability": "nonpayable",
      "type": "constructor"
    },
    {
      "inputs": [],
      "name": "AlreadyClaimed",
      "type": "error"
    },
    {
      "inputs": [],
      "name": "ClaimWindowFinished",
      "type": "error"
    },
    {
      "inputs": [],
      "name": "EndTimeInPast",
      "type": "error"
    },
    {
      "inputs": [],
      "name": "InvalidProof",
      "type": "error"
    },
    {
      "inputs": [],
      "name": "NoWithdrawDuringClaim",
      "type": "error"
    },
    {
      "anonymous": false,
      "inputs": [
        {
          "indexed": false,
          "internalType": "uint256",
          "name": "index",
          "type": "uint256"
        },
        {
          "indexed": false,
          "internalType": "address",
          "name": "account",
          "type": "address"
        },
        {
          "indexed": false,
          "internalType": "uint256",
          "name": "amount",
          "type": "uint256"
        }
      ],
      "name": "Claimed",
      "type": "event"
    },
    {
      "anonymous": false,
      "inputs": [
        {
          "indexed": false,
          "internalType": "uint8",
          "name": "version",
          "type": "uint8"
        }
      ],
      "name": "Initialized",
      "type": "event"
    },
    {
      "anonymous": false,
      "inputs": [
        {
          "indexed": true,
          "internalType": "address",
          "name": "previousOwner",
          "type": "address"
        },
        {
          "indexed": true,
          "internalType": "address",
          "name": "newOwner",
          "type": "address"
        }
      ],
      "name": "OwnershipTransferred",
      "type": "event"
    },
    {
      "inputs": [
        {
          "internalType": "uint256",
          "name": "index",
          "type": "uint256"
        },
        {
          "internalType": "address",
          "name": "account",
          "type": "address"
        },
        {
          "internalType": "uint256",
          "name": "amount",
          "type": "uint256"
        },
        {
          "internalType": "bytes32[]",
          "name": "merkleProof",
          "type": "bytes32[]"
        }
      ],
      "name": "claim",
      "outputs": [],
      "stateMutability": "nonpayable",
      "type": "function"
    },
    {
      "inputs": [],
      "name": "endTime",
      "outputs": [
        {
          "internalType": "uint256",
          "name": "",
          "type": "uint256"
        }
      ],
      "stateMutability": "view",
      "type": "function"
    },
    {
      "inputs": [
        {
          "internalType": "uint256",
          "name": "index",
          "type": "uint256"
        }
      ],
      "name": "isClaimed",
      "outputs": [
        {
          "internalType": "bool",
          "name": "",
          "type": "bool"
        }
      ],
      "stateMutability": "view",
      "type": "function"
    },
    {
      "inputs": [],
      "name": "merkleRoot",
      "outputs": [
        {
          "internalType": "bytes32",
          "name": "",
          "type": "bytes32"
        }
      ],
      "stateMutability": "view",
      "type": "function"
    },
    {
      "inputs": [],
      "name": "owner",
      "outputs": [
        {
          "internalType": "address",
          "name": "",
          "type": "address"
        }
      ],
      "stateMutability": "view",
      "type": "function"
    },
    {
      "inputs": [],
      "name": "renounceOwnership",
      "outputs": [],
      "stateMutability": "nonpayable",
      "type": "function"
    },
    {
      "inputs": [
        {
          "internalType": "bytes32",
          "name": "merkleRoot_",
          "type": "bytes32"
        }
      ],
      "name": "setMerkleRoot",
      "outputs": [],
      "stateMutability": "nonpayable",
      "type": "function"
    },
    {
      "inputs": [],
      "name": "token",
      "outputs": [
        {
          "internalType": "address",
          "name": "",
          "type": "address"
        }
      ],
      "stateMutability": "view",
      "type": "function"
    },
    {
      "inputs": [
        {
          "internalType": "address",
          "name": "newOwner",
          "type": "address"
        }
      ],
      "name": "transferOwnership",
      "outputs": [],
      "stateMutability": "nonpayable",
      "type": "function"
    },
    {
      "inputs": [],
      "name": "withdraw",
      "outputs": [],
      "stateMutability": "nonpayable",
      "type": "function"
    }
  ],
  "bytecode": "0x60c060405234801561001057600080fd5b50604051610f64380380610f6483398101604081905261002f916100be565b816100393361006e565b6001600160a01b0316608052428111610065576040516372e54d4d60e01b815260040160405180910390fd5b60a052506100f8565b600080546001600160a01b038381166001600160a01b0319831681178455604051919092169283917f8be0079c531659141344cd1fd0a4f28419497f9722a3daafe3b4186f6b6457e09190a35050565b600080604083850312156100d157600080fd5b82516001600160a01b03811681146100e857600080fd5b6020939093015192949293505050565b60805160a051610e2561013f6000396000818160f9015281816101dc01526102520152600081816101b8015281816102f30152818161037501526105d80152610e256000f3fe608060405234801561001057600080fd5b50600436106100be5760003560e01c80637cb64759116100765780639e34070f1161005b5780639e34070f1461017d578063f2fde38b146101a0578063fc0c546a146101b357600080fd5b80637cb647591461012b5780638da5cb5b1461013e57600080fd5b80633197cbb6116100a75780633197cbb6146100f45780633ccfd60b1461011b578063715018a61461012357600080fd5b80632e7ba6ef146100c35780632eb4a7ab146100d8575b600080fd5b6100d66100d1366004610b67565b6101da565b005b6100e160015481565b6040519081526020015b60405180910390f35b6100e17f000000000000000000000000000000000000000000000000000000000000000081565b6100d6610248565b6100d661039e565b6100d6610139366004610bfe565b6103b0565b60005473ffffffffffffffffffffffffffffffffffffffff165b60405173ffffffffffffffffffffffffffffffffffffffff90911681526020016100eb565b61019061018b366004610bfe565b6103bd565b60405190151581526020016100eb565b6100d66101ae366004610c17565b6103fe565b6101587f000000000000000000000000000000000000000000000000000000000000000081565b7f0000000000000000000000000000000000000000000000000000000000000000421115610234576040517fd365f61100000000000000000000000000000000000000000000000000000000815260040160405180910390fd5b61024185858585856104a0565b5050505050565b61025061065d565b7f00000000000000000000000000000000000000000000000000000000000000004210156102aa576040517fee56a2b000000000000000000000000000000000000000000000000000000000815260040160405180910390fd5b6040517f70a0823100000000000000000000000000000000000000000000000000000000815230600482015261039c90339073ffffffffffffffffffffffffffffffffffffffff7f000000000000000000000000000000000000000000000000000000000000000016906370a0823190602401602060405180830381865afa15801561033a573d6000803e3d6000fd5b505050506040513d601f19601f8201168201806040525081019061035e9190610c32565b73ffffffffffffffffffffffffffffffffffffffff7f00000000000000000000000000000000000000000000000000000000000000001691906106c4565b565b6103a661065d565b61039c6000610756565b6103b861065d565b600155565b6000806103cc61010084610c7a565b905060006103dc61010085610c8e565b60009283526002602052604090922054600190921b9182169091149392505050565b61040661065d565b73ffffffffffffffffffffffffffffffffffffffff81166104945760405162461bcd60e51b815260206004820152602660248201527f4f776e61626c653a206e6577206f776e657220697320746865207a65726f206160448201527f646472657373000000000000000000000000000000000000000000000000000060648201526084015b60405180910390fd5b61049d81610756565b50565b6104a9856103bd565b156104e0576040517f646cf55800000000000000000000000000000000000000000000000000000000815260040160405180910390fd5b60408051602081018790527fffffffffffffffffffffffffffffffffffffffff000000000000000000000000606087901b16918101919091526054810184905260009060740160405160208183030381529060405280519060200120905061057f8383808060200260200160405190810160405280939291908181526020018383602002808284376000920191909152505060015491508490506107cb565b6105b5576040517f09bde33900000000000000000000000000000000000000000000000000000000815260040160405180910390fd5b6105be866107e3565b6105ff73ffffffffffffffffffffffffffffffffffffffff7f00000000000000000000000000000000000000000000000000000000000000001686866106c4565b6040805187815273ffffffffffffffffffffffffffffffffffffffff871660208201529081018590527f4ec90e965519d92681267467f775ada5bd214aa92c0dc93d90a5e880ce9ed0269060600160405180910390a1505050505050565b60005473ffffffffffffffffffffffffffffffffffffffff16331461039c5760405162461bcd60e51b815260206004820181905260248201527f4f776e61626c653a2063616c6c6572206973206e6f7420746865206f776e6572604482015260640161048b565b6040805173ffffffffffffffffffffffffffffffffffffffff8416602482015260448082018490528251808303909101815260649091019091526020810180517bffffffffffffffffffffffffffffffffffffffffffffffffffffffff167fa9059cbb00000000000000000000000000000000000000000000000000000000179052610751908490610821565b505050565b6000805473ffffffffffffffffffffffffffffffffffffffff8381167fffffffffffffffffffffffff0000000000000000000000000000000000000000831681178455604051919092169283917f8be0079c531659141344cd1fd0a4f28419497f9722a3daafe3b4186f6b6457e09190a35050565b6000826107d88584610913565b1490505b9392505050565b60006107f161010083610c7a565b9050600061080161010084610c8e565b6000928352600260205260409092208054600190931b9092179091555050565b6000610883826040518060400160405280602081526020017f5361666545524332303a206c6f772d6c6576656c2063616c6c206661696c65648152508573ffffffffffffffffffffffffffffffffffffffff166109609092919063ffffffff16565b80519091501561075157808060200190518101906108a19190610ca2565b6107515760405162461bcd60e51b815260206004820152602a60248201527f5361666545524332303a204552433230206f7065726174696f6e20646964206e60448201527f6f74207375636365656400000000000000000000000000000000000000000000606482015260840161048b565b600081815b8451811015610958576109448286838151811061093757610937610cc4565b6020026020010151610977565b91508061095081610cf3565b915050610918565b509392505050565b606061096f84846000856109a3565b949350505050565b60008183106109935760008281526020849052604090206107dc565b5060009182526020526040902090565b606082471015610a1b5760405162461bcd60e51b815260206004820152602660248201527f416464726573733a20696e73756666696369656e742062616c616e636520666f60448201527f722063616c6c0000000000000000000000000000000000000000000000000000606482015260840161048b565b73ffffffffffffffffffffffffffffffffffffffff85163b610a7f5760405162461bcd60e51b815260206004820152601d60248201527f416464726573733a2063616c6c20746f206e6f6e2d636f6e7472616374000000604482015260640161048b565b6000808673ffffffffffffffffffffffffffffffffffffffff168587604051610aa89190610d82565b60006040518083038185875af1925050503d8060008114610ae5576040519150601f19603f3d011682016040523d82523d6000602084013e610aea565b606091505b5091509150610afa828286610b05565b979650505050505050565b60608315610b145750816107dc565b825115610b245782518084602001fd5b8160405162461bcd60e51b815260040161048b9190610d9e565b803573ffffffffffffffffffffffffffffffffffffffff81168114610b6257600080fd5b919050565b600080600080600060808688031215610b7f57600080fd5b85359450610b8f60208701610b3e565b935060408601359250606086013567ffffffffffffffff80821115610bb357600080fd5b818801915088601f830112610bc757600080fd5b813581811115610bd657600080fd5b8960208260051b8501011115610beb57600080fd5b9699959850939650602001949392505050565b600060208284031215610c1057600080fd5b5035919050565b600060208284031215610c2957600080fd5b6107dc82610b3e565b600060208284031215610c4457600080fd5b5051919050565b7f4e487b7100000000000000000000000000000000000000000000000000000000600052601260045260246000fd5b600082610c8957610c89610c4b565b500490565b600082610c9d57610c9d610c4b565b500690565b600060208284031215610cb457600080fd5b815180151581146107dc57600080fd5b7f4e487b7100000000000000000000000000000000000000000000000000000000600052603260045260246000fd5b60007fffffffffffffffffffffffffffffffffffffffffffffffffffffffffffffffff8203610d4b577f4e487b7100000000000000000000000000000000000000000000000000000000600052601160045260246000fd5b5060010190565b60005b83811015610d6d578181015183820152602001610d55565b83811115610d7c576000848401525b50505050565b60008251610d94818460208701610d52565b9190910192915050565b6020815260008251806020840152610dbd816040850160208701610d52565b601f017fffffffffffffffffffffffffffffffffffffffffffffffffffffffffffffffe016919091016040019291505056fea2646970667358221220bdb66dcf6e7a37cf9c0fbc37488eda64eb3d793b11d64963a57dad292f40b1a164736f6c634300080f0033",
  "linkReferences": {},
  "deployedLinkReferences": {}
}