{
  "_format": "hh-sol-artifact-1",
  "contractName": "MerkleDistributorRH",
  "sourceName": "contracts/MerkleDistributorRH.sol",
  "abi": [
    {
      "inputs": [
        {
          "internalType": "address",
          "name": "token_",
          "type": "address"
        },
        {
          "internalType": "bytes32",
          "name": "merkleRoot_",
          "type": "bytes32"
        },
        {
          "internalType": "uint256",
          "name": "endTime_",
          "type": "uint256"
        }
      ],
      "stateMutability": "nonpayable",
      "type": "constructor"
    },
    {
      "inputs": [],
      "name": "AlreadyClaimed",
      "type": "error"
    },
    {
      "inputs": [],
      "name": "ClaimWindowFinished",
      "type": "error"
    },
    {
      "inputs": [],
      "name": "EndTimeInPast",
      "type": "error"
    },
    {
      "inputs": [],
      "name": "InvalidProof",
      "type": "error"
    },
    {
      "inputs": [],
      "name": "NoWithdrawDuringClaim",
      "type": "error"
    },
    {
      "anonymous": false,
      "inputs": [
        {
          "indexed": false,
          "internalType": "uint256",
          "name": "index",
          "type": "uint256"
        },
        {
          "indexed": false,
          "internalType": "address",
          "name": "account",
          "type": "address"
        },
        {
          "indexed": false,
          "internalType": "uint256",
          "name": "amount",
          "type": "uint256"
        }
      ],
      "name": "Claimed",
      "type": "event"
    },
    {
      "anonymous": false,
      "inputs": [
        {
          "indexed": true,
          "internalType": "address",
          "name": "previousOwner",
          "type": "address"
        },
        {
          "indexed": true,
          "internalType": "address",
          "name": "newOwner",
          "type": "address"
        }
      ],
      "name": "OwnershipTransferred",
      "type": "event"
    },
    {
      "inputs": [
        {
          "internalType": "uint256",
          "name": "index",
          "type": "uint256"
        },
        {
          "internalType": "address",
          "name": "account",
          "type": "address"
        },
        {
          "internalType": "uint256",
          "name": "amount",
          "type": "uint256"
        },
        {
          "internalType": "bytes32[]",
          "name": "merkleProof",
          "type": "bytes32[]"
        }
      ],
      "name": "claim",
      "outputs": [],
      "stateMutability": "nonpayable",
      "type": "function"
    },
    {
      "inputs": [],
      "name": "endTime",
      "outputs": [
        {
          "internalType": "uint256",
          "name": "",
          "type": "uint256"
        }
      ],
      "stateMutability": "view",
      "type": "function"
    },
    {
      "inputs": [
        {
          "internalType": "uint256",
          "name": "index",
          "type": "uint256"
        }
      ],
      "name": "isClaimed",
      "outputs": [
        {
          "internalType": "bool",
          "name": "",
          "type": "bool"
        }
      ],
      "stateMutability": "view",
      "type": "function"
    },
    {
      "inputs": [],
      "name": "merkleRoot",
      "outputs": [
        {
          "internalType": "bytes32",
          "name": "",
          "type": "bytes32"
        }
      ],
      "stateMutability": "view",
      "type": "function"
    },
    {
      "inputs": [],
      "name": "owner",
      "outputs": [
        {
          "internalType": "address",
          "name": "",
          "type": "address"
        }
      ],
      "stateMutability": "view",
      "type": "function"
    },
    {
      "inputs": [],
      "name": "renounceOwnership",
      "outputs": [],
      "stateMutability": "nonpayable",
      "type": "function"
    },
    {
      "inputs": [],
      "name": "token",
      "outputs": [
        {
          "internalType": "address",
          "name": "",
          "type": "address"
        }
      ],
      "stateMutability": "view",
      "type": "function"
    },
    {
      "inputs": [
        {
          "internalType": "address",
          "name": "newOwner",
          "type": "address"
        }
      ],
      "name": "transferOwnership",
      "outputs": [],
      "stateMutability": "nonpayable",
      "type": "function"
    },
    {
      "inputs": [],
      "name": "withdraw",
      "outputs": [],
      "stateMutability": "nonpayable",
      "type": "function"
    }
  ],
  "bytecode": "0x60e060405234801561001057600080fd5b50604051610f8a380380610f8a83398101604081905261002f916100c7565b6001600160a01b03831660805260a082905261004a33610075565b42811161006a576040516372e54d4d60e01b815260040160405180910390fd5b60c0525061010a9050565b600180546001600160a01b038381166001600160a01b0319831681179093556040519116919082907f8be0079c531659141344cd1fd0a4f28419497f9722a3daafe3b4186f6b6457e090600090a35050565b6000806000606084860312156100dc57600080fd5b83516001600160a01b03811681146100f357600080fd5b602085015160409095015190969495509392505050565b60805160a05160c051610e296101616000396000818160fc015281816101cc015261024201526000818160c201526105560152600081816101a8015281816102e30152818161036501526105da0152610e296000f3fe608060405234801561001057600080fd5b50600436106100a35760003560e01c8063715018a6116100765780639e34070f1161005b5780639e34070f1461016d578063f2fde38b14610190578063fc0c546a146101a357600080fd5b8063715018a6146101265780638da5cb5b1461012e57600080fd5b80632e7ba6ef146100a85780632eb4a7ab146100bd5780633197cbb6146100f75780633ccfd60b1461011e575b600080fd5b6100bb6100b6366004610b6b565b6101ca565b005b6100e47f000000000000000000000000000000000000000000000000000000000000000081565b6040519081526020015b60405180910390f35b6100e47f000000000000000000000000000000000000000000000000000000000000000081565b6100bb610238565b6100bb61038e565b60015473ffffffffffffffffffffffffffffffffffffffff165b60405173ffffffffffffffffffffffffffffffffffffffff90911681526020016100ee565b61018061017b366004610c02565b6103a0565b60405190151581526020016100ee565b6100bb61019e366004610c1b565b6103e1565b6101487f000000000000000000000000000000000000000000000000000000000000000081565b7f0000000000000000000000000000000000000000000000000000000000000000421115610224576040517fd365f61100000000000000000000000000000000000000000000000000000000815260040160405180910390fd5b6102318585858585610483565b5050505050565b61024061065f565b7f000000000000000000000000000000000000000000000000000000000000000042101561029a576040517fee56a2b000000000000000000000000000000000000000000000000000000000815260040160405180910390fd5b6040517f70a0823100000000000000000000000000000000000000000000000000000000815230600482015261038c90339073ffffffffffffffffffffffffffffffffffffffff7f000000000000000000000000000000000000000000000000000000000000000016906370a0823190602401602060405180830381865afa15801561032a573d6000803e3d6000fd5b505050506040513d601f19601f8201168201806040525081019061034e9190610c36565b73ffffffffffffffffffffffffffffffffffffffff7f00000000000000000000000000000000000000000000000000000000000000001691906106c6565b565b61039661065f565b61038c6000610758565b6000806103af61010084610c7e565b905060006103bf61010085610c92565b60009283526020839052604090922054600190921b9182169091149392505050565b6103e961065f565b73ffffffffffffffffffffffffffffffffffffffff81166104775760405162461bcd60e51b815260206004820152602660248201527f4f776e61626c653a206e6577206f776e657220697320746865207a65726f206160448201527f646472657373000000000000000000000000000000000000000000000000000060648201526084015b60405180910390fd5b61048081610758565b50565b61048c856103a0565b156104c3576040517f646cf55800000000000000000000000000000000000000000000000000000000815260040160405180910390fd5b60408051602081018790527fffffffffffffffffffffffffffffffffffffffff000000000000000000000000606087901b1691810191909152605481018490526000906074016040516020818303038152906040528051906020012090506105818383808060200260200160405190810160405280939291908181526020018383602002808284376000920191909152507f000000000000000000000000000000000000000000000000000000000000000092508591506107cf9050565b6105b7576040517f09bde33900000000000000000000000000000000000000000000000000000000815260040160405180910390fd5b6105c0866107e7565b61060173ffffffffffffffffffffffffffffffffffffffff7f00000000000000000000000000000000000000000000000000000000000000001686866106c6565b6040805187815273ffffffffffffffffffffffffffffffffffffffff871660208201529081018590527f4ec90e965519d92681267467f775ada5bd214aa92c0dc93d90a5e880ce9ed0269060600160405180910390a1505050505050565b60015473ffffffffffffffffffffffffffffffffffffffff16331461038c5760405162461bcd60e51b815260206004820181905260248201527f4f776e61626c653a2063616c6c6572206973206e6f7420746865206f776e6572604482015260640161046e565b6040805173ffffffffffffffffffffffffffffffffffffffff8416602482015260448082018490528251808303909101815260649091019091526020810180517bffffffffffffffffffffffffffffffffffffffffffffffffffffffff167fa9059cbb00000000000000000000000000000000000000000000000000000000179052610753908490610825565b505050565b6001805473ffffffffffffffffffffffffffffffffffffffff8381167fffffffffffffffffffffffff0000000000000000000000000000000000000000831681179093556040519116919082907f8be0079c531659141344cd1fd0a4f28419497f9722a3daafe3b4186f6b6457e090600090a35050565b6000826107dc8584610917565b1490505b9392505050565b60006107f561010083610c7e565b9050600061080561010084610c92565b6000928352602083905260409092208054600190931b9092179091555050565b6000610887826040518060400160405280602081526020017f5361666545524332303a206c6f772d6c6576656c2063616c6c206661696c65648152508573ffffffffffffffffffffffffffffffffffffffff166109649092919063ffffffff16565b80519091501561075357808060200190518101906108a59190610ca6565b6107535760405162461bcd60e51b815260206004820152602a60248201527f5361666545524332303a204552433230206f7065726174696f6e20646964206e60448201527f6f74207375636365656400000000000000000000000000000000000000000000606482015260840161046e565b600081815b845181101561095c576109488286838151811061093b5761093b610cc8565b602002602001015161097b565b91508061095481610cf7565b91505061091c565b509392505050565b606061097384846000856109a7565b949350505050565b60008183106109975760008281526020849052604090206107e0565b5060009182526020526040902090565b606082471015610a1f5760405162461bcd60e51b815260206004820152602660248201527f416464726573733a20696e73756666696369656e742062616c616e636520666f60448201527f722063616c6c0000000000000000000000000000000000000000000000000000606482015260840161046e565b73ffffffffffffffffffffffffffffffffffffffff85163b610a835760405162461bcd60e51b815260206004820152601d60248201527f416464726573733a2063616c6c20746f206e6f6e2d636f6e7472616374000000604482015260640161046e565b6000808673ffffffffffffffffffffffffffffffffffffffff168587604051610aac9190610d86565b60006040518083038185875af1925050503d8060008114610ae9576040519150601f19603f3d011682016040523d82523d6000602084013e610aee565b606091505b5091509150610afe828286610b09565b979650505050505050565b60608315610b185750816107e0565b825115610b285782518084602001fd5b8160405162461bcd60e51b815260040161046e9190610da2565b803573ffffffffffffffffffffffffffffffffffffffff81168114610b6657600080fd5b919050565b600080600080600060808688031215610b8357600080fd5b85359450610b9360208701610b42565b935060408601359250606086013567ffffffffffffffff80821115610bb757600080fd5b818801915088601f830112610bcb57600080fd5b813581811115610bda57600080fd5b8960208260051b8501011115610bef57600080fd5b9699959850939650602001949392505050565b600060208284031215610c1457600080fd5b5035919050565b600060208284031215610c2d57600080fd5b6107e082610b42565b600060208284031215610c4857600080fd5b5051919050565b7f4e487b7100000000000000000000000000000000000000000000000000000000600052601260045260246000fd5b600082610c8d57610c8d610c4f565b500490565b600082610ca157610ca1610c4f565b500690565b600060208284031215610cb857600080fd5b815180151581146107e057600080fd5b7f4e487b7100000000000000000000000000000000000000000000000000000000600052603260045260246000fd5b60007fffffffffffffffffffffffffffffffffffffffffffffffffffffffffffffffff8203610d4f577f4e487b7100000000000000000000000000000000000000000000000000000000600052601160045260246000fd5b5060010190565b60005b83811015610d71578181015183820152602001610d59565b83811115610d80576000848401525b50505050565b60008251610d98818460208701610d56565b9190910192915050565b6020815260008251806020840152610dc1816040850160208701610d56565b601f017fffffffffffffffffffffffffffffffffffffffffffffffffffffffffffffffe016919091016040019291505056fea26469706673582212206a65ffc436cc7eab4068c3b4888f8a4ecb3000efdf7c854d6a2db15d28a3abe764736f6c634300080f0033",
  "linkReferences": {},
  "deployedLinkReferences": {}
}