{
  "_format": "hh-sol-artifact-1",
  "contractName": "MerkleDistributorRH",
  "sourceName": "contracts/MerkleDistributorRH.sol",
  "abi": [
    {
      "inputs": [
        {
          "internalType": "address",
          "name": "token_",
          "type": "address"
        },
        {
          "internalType": "uint256",
          "name": "endTime_",
          "type": "uint256"
        }
      ],
      "stateMutability": "nonpayable",
      "type": "constructor"
    },
    {
      "inputs": [],
      "name": "AlreadyClaimed",
      "type": "error"
    },
    {
      "inputs": [],
      "name": "ClaimWindowFinished",
      "type": "error"
    },
    {
      "inputs": [],
      "name": "EndTimeInPast",
      "type": "error"
    },
    {
      "inputs": [],
      "name": "InvalidProof",
      "type": "error"
    },
    {
      "inputs": [],
      "name": "NoWithdrawDuringClaim",
      "type": "error"
    },
    {
      "anonymous": false,
      "inputs": [
        {
          "indexed": false,
          "internalType": "uint256",
          "name": "index",
          "type": "uint256"
        },
        {
          "indexed": false,
          "internalType": "address",
          "name": "account",
          "type": "address"
        },
        {
          "indexed": false,
          "internalType": "uint256",
          "name": "amount",
          "type": "uint256"
        }
      ],
      "name": "Claimed",
      "type": "event"
    },
    {
      "anonymous": false,
      "inputs": [
        {
          "indexed": false,
          "internalType": "uint8",
          "name": "version",
          "type": "uint8"
        }
      ],
      "name": "Initialized",
      "type": "event"
    },
    {
      "anonymous": false,
      "inputs": [
        {
          "indexed": true,
          "internalType": "address",
          "name": "previousOwner",
          "type": "address"
        },
        {
          "indexed": true,
          "internalType": "address",
          "name": "newOwner",
          "type": "address"
        }
      ],
      "name": "OwnershipTransferred",
      "type": "event"
    },
    {
      "inputs": [
        {
          "internalType": "uint256",
          "name": "index",
          "type": "uint256"
        },
        {
          "internalType": "address",
          "name": "account",
          "type": "address"
        },
        {
          "internalType": "uint256",
          "name": "amount",
          "type": "uint256"
        },
        {
          "internalType": "bytes32[]",
          "name": "merkleProof",
          "type": "bytes32[]"
        }
      ],
      "name": "claim",
      "outputs": [],
      "stateMutability": "nonpayable",
      "type": "function"
    },
    {
      "inputs": [],
      "name": "endTime",
      "outputs": [
        {
          "internalType": "uint256",
          "name": "",
          "type": "uint256"
        }
      ],
      "stateMutability": "view",
      "type": "function"
    },
    {
      "inputs": [
        {
          "internalType": "address",
          "name": "account",
          "type": "address"
        }
      ],
      "name": "isClaimed",
      "outputs": [
        {
          "internalType": "bool",
          "name": "",
          "type": "bool"
        }
      ],
      "stateMutability": "view",
      "type": "function"
    },
    {
      "inputs": [],
      "name": "merkleRoot",
      "outputs": [
        {
          "internalType": "bytes32",
          "name": "",
          "type": "bytes32"
        }
      ],
      "stateMutability": "view",
      "type": "function"
    },
    {
      "inputs": [],
      "name": "owner",
      "outputs": [
        {
          "internalType": "address",
          "name": "",
          "type": "address"
        }
      ],
      "stateMutability": "view",
      "type": "function"
    },
    {
      "inputs": [],
      "name": "renounceOwnership",
      "outputs": [],
      "stateMutability": "nonpayable",
      "type": "function"
    },
    {
      "inputs": [
        {
          "internalType": "bytes32",
          "name": "merkleRoot_",
          "type": "bytes32"
        }
      ],
      "name": "setMerkleRoot",
      "outputs": [],
      "stateMutability": "nonpayable",
      "type": "function"
    },
    {
      "inputs": [],
      "name": "token",
      "outputs": [
        {
          "internalType": "address",
          "name": "",
          "type": "address"
        }
      ],
      "stateMutability": "view",
      "type": "function"
    },
    {
      "inputs": [
        {
          "internalType": "address",
          "name": "newOwner",
          "type": "address"
        }
      ],
      "name": "transferOwnership",
      "outputs": [],
      "stateMutability": "nonpayable",
      "type": "function"
    },
    {
      "inputs": [],
      "name": "withdraw",
      "outputs": [],
      "stateMutability": "nonpayable",
      "type": "function"
    }
  ],
  "bytecode": "0x60c060405234801561001057600080fd5b50604051610f3d380380610f3d83398101604081905261002f916100be565b816100393361006e565b6001600160a01b0316608052428111610065576040516372e54d4d60e01b815260040160405180910390fd5b60a052506100f8565b600080546001600160a01b038381166001600160a01b0319831681178455604051919092169283917f8be0079c531659141344cd1fd0a4f28419497f9722a3daafe3b4186f6b6457e09190a35050565b600080604083850312156100d157600080fd5b82516001600160a01b03811681146100e857600080fd5b6020939093015192949293505050565b60805160a051610dfe61013f6000396000818160f9015281816101dc01526102520152600081816101b8015281816102f30152818161037501526106460152610dfe6000f3fe608060405234801561001057600080fd5b50600436106100be5760003560e01c80637cb64759116100765780638da5cb5b1161005b5780638da5cb5b14610161578063f2fde38b146101a0578063fc0c546a146101b357600080fd5b80637cb647591461012b5780638cc080251461013e57600080fd5b80633197cbb6116100a75780633197cbb6146100f45780633ccfd60b1461011b578063715018a61461012357600080fd5b80632e7ba6ef146100c35780632eb4a7ab146100d8575b600080fd5b6100d66100d1366004610b97565b6101da565b005b6100e160015481565b6040519081526020015b60405180910390f35b6100e17f000000000000000000000000000000000000000000000000000000000000000081565b6100d6610248565b6100d661039e565b6100d6610139366004610c2e565b6103b0565b61015161014c366004610c47565b6103bd565b60405190151581526020016100eb565b60005473ffffffffffffffffffffffffffffffffffffffff165b60405173ffffffffffffffffffffffffffffffffffffffff90911681526020016100eb565b6100d66101ae366004610c47565b610422565b61017b7f000000000000000000000000000000000000000000000000000000000000000081565b7f0000000000000000000000000000000000000000000000000000000000000000421115610234576040517fd365f61100000000000000000000000000000000000000000000000000000000815260040160405180910390fd5b61024185858585856104c4565b5050505050565b6102506106cb565b7f00000000000000000000000000000000000000000000000000000000000000004210156102aa576040517fee56a2b000000000000000000000000000000000000000000000000000000000815260040160405180910390fd5b6040517f70a0823100000000000000000000000000000000000000000000000000000000815230600482015261039c90339073ffffffffffffffffffffffffffffffffffffffff7f000000000000000000000000000000000000000000000000000000000000000016906370a0823190602401602060405180830381865afa15801561033a573d6000803e3d6000fd5b505050506040513d601f19601f8201168201806040525081019061035e9190610c62565b73ffffffffffffffffffffffffffffffffffffffff7f0000000000000000000000000000000000000000000000000000000000000000169190610732565b565b6103a66106cb565b61039c60006107c4565b6103b86106cb565b600155565b73ffffffffffffffffffffffffffffffffffffffff811660009081526002602052604081205460ff16801561041c575073ffffffffffffffffffffffffffffffffffffffff821660009081526002602052604090205460ff1615156001145b92915050565b61042a6106cb565b73ffffffffffffffffffffffffffffffffffffffff81166104b85760405162461bcd60e51b815260206004820152602660248201527f4f776e61626c653a206e6577206f776e657220697320746865207a65726f206160448201527f646472657373000000000000000000000000000000000000000000000000000060648201526084015b60405180910390fd5b6104c1816107c4565b50565b6104cd846103bd565b15610504576040517f646cf55800000000000000000000000000000000000000000000000000000000815260040160405180910390fd5b60408051602081018790527fffffffffffffffffffffffffffffffffffffffff000000000000000000000000606087901b1691810191909152605481018490526000906074016040516020818303038152906040528051906020012090506105a3838380806020026020016040519081016040528093929190818152602001838360200280828437600092019190915250506001549150849050610839565b6105d9576040517f09bde33900000000000000000000000000000000000000000000000000000000815260040160405180910390fd5b61062c8573ffffffffffffffffffffffffffffffffffffffff16600090815260026020526040902080547fffffffffffffffffffffffffffffffffffffffffffffffffffffffffffffff00166001179055565b61066d73ffffffffffffffffffffffffffffffffffffffff7f0000000000000000000000000000000000000000000000000000000000000000168686610732565b6040805187815273ffffffffffffffffffffffffffffffffffffffff871660208201529081018590527f4ec90e965519d92681267467f775ada5bd214aa92c0dc93d90a5e880ce9ed0269060600160405180910390a1505050505050565b60005473ffffffffffffffffffffffffffffffffffffffff16331461039c5760405162461bcd60e51b815260206004820181905260248201527f4f776e61626c653a2063616c6c6572206973206e6f7420746865206f776e657260448201526064016104af565b6040805173ffffffffffffffffffffffffffffffffffffffff8416602482015260448082018490528251808303909101815260649091019091526020810180517bffffffffffffffffffffffffffffffffffffffffffffffffffffffff167fa9059cbb000000000000000000000000000000000000000000000000000000001790526107bf908490610851565b505050565b6000805473ffffffffffffffffffffffffffffffffffffffff8381167fffffffffffffffffffffffff0000000000000000000000000000000000000000831681178455604051919092169283917f8be0079c531659141344cd1fd0a4f28419497f9722a3daafe3b4186f6b6457e09190a35050565b6000826108468584610943565b1490505b9392505050565b60006108b3826040518060400160405280602081526020017f5361666545524332303a206c6f772d6c6576656c2063616c6c206661696c65648152508573ffffffffffffffffffffffffffffffffffffffff166109909092919063ffffffff16565b8051909150156107bf57808060200190518101906108d19190610c7b565b6107bf5760405162461bcd60e51b815260206004820152602a60248201527f5361666545524332303a204552433230206f7065726174696f6e20646964206e60448201527f6f7420737563636565640000000000000000000000000000000000000000000060648201526084016104af565b600081815b8451811015610988576109748286838151811061096757610967610c9d565b60200260200101516109a7565b91508061098081610ccc565b915050610948565b509392505050565b606061099f84846000856109d3565b949350505050565b60008183106109c357600082815260208490526040902061084a565b5060009182526020526040902090565b606082471015610a4b5760405162461bcd60e51b815260206004820152602660248201527f416464726573733a20696e73756666696369656e742062616c616e636520666f60448201527f722063616c6c000000000000000000000000000000000000000000000000000060648201526084016104af565b73ffffffffffffffffffffffffffffffffffffffff85163b610aaf5760405162461bcd60e51b815260206004820152601d60248201527f416464726573733a2063616c6c20746f206e6f6e2d636f6e747261637400000060448201526064016104af565b6000808673ffffffffffffffffffffffffffffffffffffffff168587604051610ad89190610d5b565b60006040518083038185875af1925050503d8060008114610b15576040519150601f19603f3d011682016040523d82523d6000602084013e610b1a565b606091505b5091509150610b2a828286610b35565b979650505050505050565b60608315610b4457508161084a565b825115610b545782518084602001fd5b8160405162461bcd60e51b81526004016104af9190610d77565b803573ffffffffffffffffffffffffffffffffffffffff81168114610b9257600080fd5b919050565b600080600080600060808688031215610baf57600080fd5b85359450610bbf60208701610b6e565b935060408601359250606086013567ffffffffffffffff80821115610be357600080fd5b818801915088601f830112610bf757600080fd5b813581811115610c0657600080fd5b8960208260051b8501011115610c1b57600080fd5b9699959850939650602001949392505050565b600060208284031215610c4057600080fd5b5035919050565b600060208284031215610c5957600080fd5b61084a82610b6e565b600060208284031215610c7457600080fd5b5051919050565b600060208284031215610c8d57600080fd5b8151801515811461084a57600080fd5b7f4e487b7100000000000000000000000000000000000000000000000000000000600052603260045260246000fd5b60007fffffffffffffffffffffffffffffffffffffffffffffffffffffffffffffffff8203610d24577f4e487b7100000000000000000000000000000000000000000000000000000000600052601160045260246000fd5b5060010190565b60005b83811015610d46578181015183820152602001610d2e565b83811115610d55576000848401525b50505050565b60008251610d6d818460208701610d2b565b9190910192915050565b6020815260008251806020840152610d96816040850160208701610d2b565b601f017fffffffffffffffffffffffffffffffffffffffffffffffffffffffffffffffe016919091016040019291505056fea2646970667358221220663d260b0b133d2afed7fd16a14d404580e373f3898c133f685a664f4f569e9d64736f6c634300080f0033",
  "linkReferences": {},
  "deployedLinkReferences": {}
}