{
  "address": "0xec19785FBf688D953918d899Dd9Ba7F0AFeA5b96",
  "abi": [
    {
      "inputs": [],
      "stateMutability": "nonpayable",
      "type": "constructor"
    },
    {
      "anonymous": false,
      "inputs": [
        {
          "indexed": true,
          "internalType": "address",
          "name": "account",
          "type": "address"
        },
        {
          "indexed": true,
          "internalType": "address",
          "name": "operator",
          "type": "address"
        },
        {
          "indexed": false,
          "internalType": "bool",
          "name": "approved",
          "type": "bool"
        }
      ],
      "name": "ApprovalForAll",
      "type": "event"
    },
    {
      "anonymous": false,
      "inputs": [
        {
          "indexed": false,
          "internalType": "uint8",
          "name": "version",
          "type": "uint8"
        }
      ],
      "name": "Initialized",
      "type": "event"
    },
    {
      "anonymous": false,
      "inputs": [
        {
          "indexed": true,
          "internalType": "address",
          "name": "minterAddress",
          "type": "address"
        }
      ],
      "name": "MinterAddressSet",
      "type": "event"
    },
    {
      "anonymous": false,
      "inputs": [
        {
          "indexed": true,
          "internalType": "address",
          "name": "previousOwner",
          "type": "address"
        },
        {
          "indexed": true,
          "internalType": "address",
          "name": "newOwner",
          "type": "address"
        }
      ],
      "name": "OwnershipTransferred",
      "type": "event"
    },
    {
      "anonymous": false,
      "inputs": [
        {
          "indexed": true,
          "internalType": "uint256",
          "name": "royaltyFee",
          "type": "uint256"
        }
      ],
      "name": "RoyaltyFeeSet",
      "type": "event"
    },
    {
      "anonymous": false,
      "inputs": [
        {
          "indexed": true,
          "internalType": "address",
          "name": "operator",
          "type": "address"
        },
        {
          "indexed": true,
          "internalType": "address",
          "name": "from",
          "type": "address"
        },
        {
          "indexed": true,
          "internalType": "address",
          "name": "to",
          "type": "address"
        },
        {
          "indexed": false,
          "internalType": "uint256[]",
          "name": "ids",
          "type": "uint256[]"
        },
        {
          "indexed": false,
          "internalType": "uint256[]",
          "name": "values",
          "type": "uint256[]"
        }
      ],
      "name": "TransferBatch",
      "type": "event"
    },
    {
      "anonymous": false,
      "inputs": [
        {
          "indexed": true,
          "internalType": "address",
          "name": "operator",
          "type": "address"
        },
        {
          "indexed": true,
          "internalType": "address",
          "name": "from",
          "type": "address"
        },
        {
          "indexed": true,
          "internalType": "address",
          "name": "to",
          "type": "address"
        },
        {
          "indexed": false,
          "internalType": "uint256",
          "name": "id",
          "type": "uint256"
        },
        {
          "indexed": false,
          "internalType": "uint256",
          "name": "value",
          "type": "uint256"
        }
      ],
      "name": "TransferSingle",
      "type": "event"
    },
    {
      "anonymous": false,
      "inputs": [
        {
          "indexed": false,
          "internalType": "string",
          "name": "value",
          "type": "string"
        },
        {
          "indexed": true,
          "internalType": "uint256",
          "name": "id",
          "type": "uint256"
        }
      ],
      "name": "URI",
      "type": "event"
    },
    {
      "inputs": [],
      "name": "TicketRendererContract",
      "outputs": [
        {
          "internalType": "contract TicketRenderer",
          "name": "",
          "type": "address"
        }
      ],
      "stateMutability": "view",
      "type": "function"
    },
    {
      "inputs": [
        {
          "internalType": "address",
          "name": "account",
          "type": "address"
        },
        {
          "internalType": "uint256",
          "name": "id",
          "type": "uint256"
        }
      ],
      "name": "balanceOf",
      "outputs": [
        {
          "internalType": "uint256",
          "name": "",
          "type": "uint256"
        }
      ],
      "stateMutability": "view",
      "type": "function"
    },
    {
      "inputs": [
        {
          "internalType": "address[]",
          "name": "accounts",
          "type": "address[]"
        },
        {
          "internalType": "uint256[]",
          "name": "ids",
          "type": "uint256[]"
        }
      ],
      "name": "balanceOfBatch",
      "outputs": [
        {
          "internalType": "uint256[]",
          "name": "",
          "type": "uint256[]"
        }
      ],
      "stateMutability": "view",
      "type": "function"
    },
    {
      "inputs": [
        {
          "internalType": "address",
          "name": "account",
          "type": "address"
        },
        {
          "internalType": "uint256",
          "name": "id",
          "type": "uint256"
        },
        {
          "internalType": "uint256",
          "name": "value",
          "type": "uint256"
        }
      ],
      "name": "burn",
      "outputs": [],
      "stateMutability": "nonpayable",
      "type": "function"
    },
    {
      "inputs": [
        {
          "internalType": "address",
          "name": "account",
          "type": "address"
        },
        {
          "internalType": "uint256[]",
          "name": "ids",
          "type": "uint256[]"
        },
        {
          "internalType": "uint256[]",
          "name": "values",
          "type": "uint256[]"
        }
      ],
      "name": "burnBatch",
      "outputs": [],
      "stateMutability": "nonpayable",
      "type": "function"
    },
    {
      "inputs": [
        {
          "internalType": "address",
          "name": "ticketRenderer_",
          "type": "address"
        },
        {
          "internalType": "address",
          "name": "royaltyRecipient_",
          "type": "address"
        },
        {
          "internalType": "address",
          "name": "minterAddress_",
          "type": "address"
        },
        {
          "internalType": "uint256",
          "name": "royaltyFee_",
          "type": "uint256"
        },
        {
          "internalType": "address",
          "name": "owner_",
          "type": "address"
        }
      ],
      "name": "initialize",
      "outputs": [],
      "stateMutability": "nonpayable",
      "type": "function"
    },
    {
      "inputs": [
        {
          "internalType": "address",
          "name": "account",
          "type": "address"
        },
        {
          "internalType": "address",
          "name": "operator",
          "type": "address"
        }
      ],
      "name": "isApprovedForAll",
      "outputs": [
        {
          "internalType": "bool",
          "name": "",
          "type": "bool"
        }
      ],
      "stateMutability": "view",
      "type": "function"
    },
    {
      "inputs": [
        {
          "internalType": "address",
          "name": "to_",
          "type": "address"
        },
        {
          "internalType": "uint256",
          "name": "id_",
          "type": "uint256"
        },
        {
          "internalType": "uint256",
          "name": "amount_",
          "type": "uint256"
        },
        {
          "internalType": "bytes",
          "name": "data_",
          "type": "bytes"
        }
      ],
      "name": "mint",
      "outputs": [],
      "stateMutability": "nonpayable",
      "type": "function"
    },
    {
      "inputs": [
        {
          "internalType": "address",
          "name": "to_",
          "type": "address"
        },
        {
          "internalType": "uint256[]",
          "name": "ids_",
          "type": "uint256[]"
        },
        {
          "internalType": "uint256[]",
          "name": "amounts_",
          "type": "uint256[]"
        },
        {
          "internalType": "bytes",
          "name": "data_",
          "type": "bytes"
        }
      ],
      "name": "mintBatch",
      "outputs": [],
      "stateMutability": "nonpayable",
      "type": "function"
    },
    {
      "inputs": [],
      "name": "minterAddress",
      "outputs": [
        {
          "internalType": "address",
          "name": "",
          "type": "address"
        }
      ],
      "stateMutability": "view",
      "type": "function"
    },
    {
      "inputs": [],
      "name": "owner",
      "outputs": [
        {
          "internalType": "address",
          "name": "",
          "type": "address"
        }
      ],
      "stateMutability": "view",
      "type": "function"
    },
    {
      "inputs": [],
      "name": "renounceOwnership",
      "outputs": [],
      "stateMutability": "nonpayable",
      "type": "function"
    },
    {
      "inputs": [],
      "name": "royaltyFee",
      "outputs": [
        {
          "internalType": "uint256",
          "name": "",
          "type": "uint256"
        }
      ],
      "stateMutability": "view",
      "type": "function"
    },
    {
      "inputs": [
        {
          "internalType": "uint256",
          "name": "tokenId_",
          "type": "uint256"
        },
        {
          "internalType": "uint256",
          "name": "salePrice_",
          "type": "uint256"
        }
      ],
      "name": "royaltyInfo",
      "outputs": [
        {
          "internalType": "address",
          "name": "receiver",
          "type": "address"
        },
        {
          "internalType": "uint256",
          "name": "royaltyAmount",
          "type": "uint256"
        }
      ],
      "stateMutability": "view",
      "type": "function"
    },
    {
      "inputs": [],
      "name": "royaltyRecipient",
      "outputs": [
        {
          "internalType": "address",
          "name": "",
          "type": "address"
        }
      ],
      "stateMutability": "view",
      "type": "function"
    },
    {
      "inputs": [
        {
          "internalType": "address",
          "name": "from",
          "type": "address"
        },
        {
          "internalType": "address",
          "name": "to",
          "type": "address"
        },
        {
          "internalType": "uint256[]",
          "name": "ids",
          "type": "uint256[]"
        },
        {
          "internalType": "uint256[]",
          "name": "amounts",
          "type": "uint256[]"
        },
        {
          "internalType": "bytes",
          "name": "data",
          "type": "bytes"
        }
      ],
      "name": "safeBatchTransferFrom",
      "outputs": [],
      "stateMutability": "nonpayable",
      "type": "function"
    },
    {
      "inputs": [
        {
          "internalType": "address",
          "name": "from",
          "type": "address"
        },
        {
          "internalType": "address",
          "name": "to",
          "type": "address"
        },
        {
          "internalType": "uint256",
          "name": "id",
          "type": "uint256"
        },
        {
          "internalType": "uint256",
          "name": "amount",
          "type": "uint256"
        },
        {
          "internalType": "bytes",
          "name": "data",
          "type": "bytes"
        }
      ],
      "name": "safeTransferFrom",
      "outputs": [],
      "stateMutability": "nonpayable",
      "type": "function"
    },
    {
      "inputs": [
        {
          "internalType": "address",
          "name": "operator",
          "type": "address"
        },
        {
          "internalType": "bool",
          "name": "approved",
          "type": "bool"
        }
      ],
      "name": "setApprovalForAll",
      "outputs": [],
      "stateMutability": "nonpayable",
      "type": "function"
    },
    {
      "inputs": [
        {
          "internalType": "address",
          "name": "minterAddress_",
          "type": "address"
        }
      ],
      "name": "setMinterAddress",
      "outputs": [],
      "stateMutability": "nonpayable",
      "type": "function"
    },
    {
      "inputs": [
        {
          "internalType": "uint256",
          "name": "royaltyFee_",
          "type": "uint256"
        }
      ],
      "name": "setRoyaltyFee",
      "outputs": [],
      "stateMutability": "nonpayable",
      "type": "function"
    },
    {
      "inputs": [
        {
          "internalType": "address",
          "name": "royaltyRecipient_",
          "type": "address"
        }
      ],
      "name": "setRoyaltyRecipient",
      "outputs": [],
      "stateMutability": "nonpayable",
      "type": "function"
    },
    {
      "inputs": [
        {
          "internalType": "address",
          "name": "ticketRenderer_",
          "type": "address"
        }
      ],
      "name": "setTicketRenderer",
      "outputs": [],
      "stateMutability": "nonpayable",
      "type": "function"
    },
    {
      "inputs": [
        {
          "internalType": "bytes4",
          "name": "interfaceId_",
          "type": "bytes4"
        }
      ],
      "name": "supportsInterface",
      "outputs": [
        {
          "internalType": "bool",
          "name": "",
          "type": "bool"
        }
      ],
      "stateMutability": "view",
      "type": "function"
    },
    {
      "inputs": [
        {
          "internalType": "address",
          "name": "newOwner",
          "type": "address"
        }
      ],
      "name": "transferOwnership",
      "outputs": [],
      "stateMutability": "nonpayable",
      "type": "function"
    },
    {
      "inputs": [
        {
          "internalType": "uint256",
          "name": "tokenId_",
          "type": "uint256"
        }
      ],
      "name": "uri",
      "outputs": [
        {
          "internalType": "string",
          "name": "",
          "type": "string"
        }
      ],
      "stateMutability": "view",
      "type": "function"
    }
  ],
  "transactionHash": "0xb5aa4402698c5dff63b9692e657f91c1d4b0ec92281b939299ecf7b75fe89be6",
  "args": [],
  "numDeployments": 1,
  "solcInputHash": "b3264e2ea64b2880e837019ad0a8060d",
  "bytecode": "0x60806040523480156200001157600080fd5b506200001c62000022565b620000e4565b600054610100900460ff16156200008f5760405162461bcd60e51b815260206004820152602760248201527f496e697469616c697a61626c653a20636f6e747261637420697320696e697469604482015266616c697a696e6760c81b606482015260840160405180910390fd5b60005460ff9081161015620000e2576000805460ff191660ff9081179091556040519081527f7f26b83ff96e1f2b6a682f133852f6798a09c465da95921460cefb38474024989060200160405180910390a15b565b612ef680620000f46000396000f3fe608060405234801561001057600080fd5b50600436106101a25760003560e01c80634e1273f4116100ee578063a22cb46511610097578063e985e9c511610071578063e985e9c514610395578063f242432a146103d1578063f2fde38b146103e4578063f5298aca146103f757600080fd5b8063a22cb46514610366578063a3106b9514610379578063b8997a971461038c57600080fd5b8063715018a6116100c8578063715018a61461033a578063731133e9146103425780638da5cb5b1461035557600080fd5b80634e1273f4146102f4578063530b97a4146103145780636b20c4541461032757600080fd5b80632eb2c2d61161015057806341e42f301161012a57806341e42f30146102bb57806343b94361146102ce5780634c00de82146102e157600080fd5b80632eb2c2d61461028257806334d722c9146102955780633e4086e5146102a857600080fd5b80631092eef0116101815780631092eef0146102105780631f7fdffa1461023b5780632a55205a1461025057600080fd5b8062fdd58e146101a757806301ffc9a7146101cd5780630e89341c146101f0575b600080fd5b6101ba6101b536600461231c565b61040a565b6040519081526020015b60405180910390f35b6101e06101db366004612374565b6104b8565b60405190151581526020016101c4565b6102036101fe366004612398565b61050e565b6040516101c49190612401565b60fe54610223906001600160a01b031681565b6040516001600160a01b0390911681526020016101c4565b61024e610249366004612589565b610599565b005b61026361025e366004612622565b610605565b604080516001600160a01b0390931683526020830191909152016101c4565b61024e610290366004612644565b61063c565b60fc54610223906001600160a01b031681565b61024e6102b6366004612398565b6106de565b61024e6102c93660046126ee565b610719565b61024e6102dc3660046126ee565b61075b565b60fb54610223906001600160a01b031681565b610307610302366004612709565b61079d565b6040516101c4919061280f565b61024e610322366004612822565b6108db565b61024e610335366004612880565b610ad3565b61024e610b71565b61024e6103503660046128f4565b610b85565b6097546001600160a01b0316610223565b61024e610374366004612949565b610beb565b61024e6103873660046126ee565b610bfa565b6101ba60fd5481565b6101e06103a3366004612985565b6001600160a01b03918216600090815260666020908152604080832093909416825291909152205460ff1690565b61024e6103df3660046129b8565b610c64565b61024e6103f23660046126ee565b610cff565b61024e610405366004612a1d565b610d8f565b60006001600160a01b03831661048d5760405162461bcd60e51b815260206004820152602a60248201527f455243313135353a2061646472657373207a65726f206973206e6f742061207660448201527f616c6964206f776e65720000000000000000000000000000000000000000000060648201526084015b60405180910390fd5b5060008181526065602090815260408083206001600160a01b03861684529091529020545b92915050565b60007fffffffff0000000000000000000000000000000000000000000000000000000082167f2a55205a0000000000000000000000000000000000000000000000000000000014806104b257506104b282610e28565b60fe546040517f210fa96b000000000000000000000000000000000000000000000000000000008152600481018390526060916001600160a01b03169063210fa96b90602401600060405180830381865afa158015610571573d6000803e3d6000fd5b505050506040513d6000823e601f3d908101601f191682016040526104b29190810190612a50565b60fc546001600160a01b031633146105f35760405162461bcd60e51b815260206004820152600b60248201527f4f6e6c79206d696e7465720000000000000000000000000000000000000000006044820152606401610484565b6105ff84848484610f0b565b50505050565b600080600061271060fd548561061b9190612b01565b6106259190612b20565b60fb546001600160a01b0316969095509350505050565b6001600160a01b038516331480610658575061065885336103a3565b6106ca5760405162461bcd60e51b815260206004820152602e60248201527f455243313135353a2063616c6c6572206973206e6f7420746f6b656e206f776e60448201527f6572206f7220617070726f7665640000000000000000000000000000000000006064820152608401610484565b6106d78585858585611103565b5050505050565b6106e661139c565b60fd81905560405181907fc36422dcc77a5c93a5c48743078f8130c9fcc2a0ff893904ee62a3565688117c90600090a250565b61072161139c565b60fb80547fffffffffffffffffffffffff0000000000000000000000000000000000000000166001600160a01b0392909216919091179055565b61076361139c565b60fe80547fffffffffffffffffffffffff0000000000000000000000000000000000000000166001600160a01b0392909216919091179055565b606081518351146108165760405162461bcd60e51b815260206004820152602960248201527f455243313135353a206163636f756e747320616e6420696473206c656e67746860448201527f206d69736d6174636800000000000000000000000000000000000000000000006064820152608401610484565b6000835167ffffffffffffffff81111561083257610832612414565b60405190808252806020026020018201604052801561085b578160200160208202803683370190505b50905060005b84518110156108d3576108a685828151811061087f5761087f612b5b565b602002602001015185838151811061089957610899612b5b565b602002602001015161040a565b8282815181106108b8576108b8612b5b565b60209081029190910101526108cc81612b8a565b9050610861565b509392505050565b600054610100900460ff16158080156108fb5750600054600160ff909116105b806109155750303b158015610915575060005460ff166001145b6109875760405162461bcd60e51b815260206004820152602e60248201527f496e697469616c697a61626c653a20636f6e747261637420697320616c72656160448201527f647920696e697469616c697a65640000000000000000000000000000000000006064820152608401610484565b600080547fffffffffffffffffffffffffffffffffffffffffffffffffffffffffffffff0016600117905580156109e557600080547fffffffffffffffffffffffffffffffffffffffffffffffffffffffffffff00ff166101001790555b6109fd604051806020016040528060008152506113f6565b610a0561147c565b610a0e826114f9565b60fb80546001600160a01b038088167fffffffffffffffffffffffff00000000000000000000000000000000000000009283161790925560fc805487841690831617905560fd85905560fe8054928916929091169190911790558015610acb57600080547fffffffffffffffffffffffffffffffffffffffffffffffffffffffffffff00ff169055604051600181527f7f26b83ff96e1f2b6a682f133852f6798a09c465da95921460cefb38474024989060200160405180910390a15b505050505050565b6001600160a01b038316331480610aef5750610aef83336103a3565b610b615760405162461bcd60e51b815260206004820152602e60248201527f455243313135353a2063616c6c6572206973206e6f7420746f6b656e206f776e60448201527f6572206f7220617070726f7665640000000000000000000000000000000000006064820152608401610484565b610b6c83838361157f565b505050565b610b7961139c565b610b83600061180d565b565b60fc546001600160a01b03163314610bdf5760405162461bcd60e51b815260206004820152600b60248201527f4f6e6c79206d696e7465720000000000000000000000000000000000000000006044820152606401610484565b6105ff84848484611877565b610bf63383836119a9565b5050565b610c0261139c565b60fc80547fffffffffffffffffffffffff0000000000000000000000000000000000000000166001600160a01b0383169081179091556040517f09e32743122b4d02dc06c38a35ee1587a02854644d47574bb35a6ef75a22fa9890600090a250565b6001600160a01b038516331480610c805750610c8085336103a3565b610cf25760405162461bcd60e51b815260206004820152602e60248201527f455243313135353a2063616c6c6572206973206e6f7420746f6b656e206f776e60448201527f6572206f7220617070726f7665640000000000000000000000000000000000006064820152608401610484565b6106d78585858585611abb565b610d0761139c565b6001600160a01b038116610d835760405162461bcd60e51b815260206004820152602660248201527f4f776e61626c653a206e6577206f776e657220697320746865207a65726f206160448201527f64647265737300000000000000000000000000000000000000000000000000006064820152608401610484565b610d8c8161180d565b50565b6001600160a01b038316331480610dab5750610dab83336103a3565b610e1d5760405162461bcd60e51b815260206004820152602e60248201527f455243313135353a2063616c6c6572206973206e6f7420746f6b656e206f776e60448201527f6572206f7220617070726f7665640000000000000000000000000000000000006064820152608401610484565b610b6c838383611c95565b60007fffffffff0000000000000000000000000000000000000000000000000000000082167fd9b67a26000000000000000000000000000000000000000000000000000000001480610ebb57507fffffffff0000000000000000000000000000000000000000000000000000000082167f0e89341c00000000000000000000000000000000000000000000000000000000145b806104b257507f01ffc9a7000000000000000000000000000000000000000000000000000000007fffffffff000000000000000000000000000000000000000000000000000000008316146104b2565b6001600160a01b038416610f875760405162461bcd60e51b815260206004820152602160248201527f455243313135353a206d696e7420746f20746865207a65726f2061646472657360448201527f73000000000000000000000000000000000000000000000000000000000000006064820152608401610484565b8151835114610ffe5760405162461bcd60e51b815260206004820152602860248201527f455243313135353a2069647320616e6420616d6f756e7473206c656e6774682060448201527f6d69736d617463680000000000000000000000000000000000000000000000006064820152608401610484565b3360005b845181101561109b5783818151811061101d5761101d612b5b565b60200260200101516065600087848151811061103b5761103b612b5b565b602002602001015181526020019081526020016000206000886001600160a01b03166001600160a01b0316815260200190815260200160002060008282546110839190612ba4565b9091555081905061109381612b8a565b915050611002565b50846001600160a01b031660006001600160a01b0316826001600160a01b03167f4a39dc06d4c0dbc64b70af90fd698a233a518aa5d07e595d983b8c0526c8f7fb87876040516110ec929190612bb7565b60405180910390a46106d781600087878787611e47565b815183511461117a5760405162461bcd60e51b815260206004820152602860248201527f455243313135353a2069647320616e6420616d6f756e7473206c656e6774682060448201527f6d69736d617463680000000000000000000000000000000000000000000000006064820152608401610484565b6001600160a01b0384166111f65760405162461bcd60e51b815260206004820152602560248201527f455243313135353a207472616e7366657220746f20746865207a65726f20616460448201527f64726573730000000000000000000000000000000000000000000000000000006064820152608401610484565b3360005b845181101561133657600085828151811061121757611217612b5b565b60200260200101519050600085838151811061123557611235612b5b565b60209081029190910181015160008481526065835260408082206001600160a01b038e1683529093529190912054909150818110156112dc5760405162461bcd60e51b815260206004820152602a60248201527f455243313135353a20696e73756666696369656e742062616c616e636520666f60448201527f72207472616e73666572000000000000000000000000000000000000000000006064820152608401610484565b60008381526065602090815260408083206001600160a01b038e8116855292528083208585039055908b1682528120805484929061131b908490612ba4565b925050819055505050508061132f90612b8a565b90506111fa565b50846001600160a01b0316866001600160a01b0316826001600160a01b03167f4a39dc06d4c0dbc64b70af90fd698a233a518aa5d07e595d983b8c0526c8f7fb8787604051611386929190612bb7565b60405180910390a4610acb818787878787611e47565b6097546001600160a01b03163314610b835760405162461bcd60e51b815260206004820181905260248201527f4f776e61626c653a2063616c6c6572206973206e6f7420746865206f776e65726044820152606401610484565b600054610100900460ff166114735760405162461bcd60e51b815260206004820152602b60248201527f496e697469616c697a61626c653a20636f6e7472616374206973206e6f74206960448201527f6e697469616c697a696e670000000000000000000000000000000000000000006064820152608401610484565b610d8c8161204b565b600054610100900460ff16610b835760405162461bcd60e51b815260206004820152602b60248201527f496e697469616c697a61626c653a20636f6e7472616374206973206e6f74206960448201527f6e697469616c697a696e670000000000000000000000000000000000000000006064820152608401610484565b600054610100900460ff166115765760405162461bcd60e51b815260206004820152602b60248201527f496e697469616c697a61626c653a20636f6e7472616374206973206e6f74206960448201527f6e697469616c697a696e670000000000000000000000000000000000000000006064820152608401610484565b610d8c816120d1565b6001600160a01b0383166115fb5760405162461bcd60e51b815260206004820152602360248201527f455243313135353a206275726e2066726f6d20746865207a65726f206164647260448201527f65737300000000000000000000000000000000000000000000000000000000006064820152608401610484565b80518251146116725760405162461bcd60e51b815260206004820152602860248201527f455243313135353a2069647320616e6420616d6f756e7473206c656e6774682060448201527f6d69736d617463680000000000000000000000000000000000000000000000006064820152608401610484565b604080516020810190915260009081905233905b83518110156117a05760008482815181106116a3576116a3612b5b565b6020026020010151905060008483815181106116c1576116c1612b5b565b60209081029190910181015160008481526065835260408082206001600160a01b038c1683529093529190912054909150818110156117675760405162461bcd60e51b8152602060048201526024808201527f455243313135353a206275726e20616d6f756e7420657863656564732062616c60448201527f616e6365000000000000000000000000000000000000000000000000000000006064820152608401610484565b60009283526065602090815260408085206001600160a01b038b168652909152909220910390558061179881612b8a565b915050611686565b5060006001600160a01b0316846001600160a01b0316826001600160a01b03167f4a39dc06d4c0dbc64b70af90fd698a233a518aa5d07e595d983b8c0526c8f7fb86866040516117f1929190612bb7565b60405180910390a46040805160208101909152600090526105ff565b609780546001600160a01b038381167fffffffffffffffffffffffff0000000000000000000000000000000000000000831681179093556040519116919082907f8be0079c531659141344cd1fd0a4f28419497f9722a3daafe3b4186f6b6457e090600090a35050565b6001600160a01b0384166118f35760405162461bcd60e51b815260206004820152602160248201527f455243313135353a206d696e7420746f20746865207a65726f2061646472657360448201527f73000000000000000000000000000000000000000000000000000000000000006064820152608401610484565b3360006118ff8561214e565b9050600061190c8561214e565b905060008681526065602090815260408083206001600160a01b038b16845290915281208054879290611940908490612ba4565b909155505060408051878152602081018790526001600160a01b03808a1692600092918716917fc3d58168c5ae7397731d063d5bbf3d657854427343f4c083240f7aacaa2d0f62910160405180910390a46119a083600089898989612199565b50505050505050565b816001600160a01b0316836001600160a01b031603611a305760405162461bcd60e51b815260206004820152602960248201527f455243313135353a2073657474696e6720617070726f76616c2073746174757360448201527f20666f722073656c6600000000000000000000000000000000000000000000006064820152608401610484565b6001600160a01b0383811660008181526066602090815260408083209487168084529482529182902080547fffffffffffffffffffffffffffffffffffffffffffffffffffffffffffffff001686151590811790915591519182527f17307eab39ab6107e8899845ad3d59bd9653f200f220920489ca2b5937696c31910160405180910390a3505050565b6001600160a01b038416611b375760405162461bcd60e51b815260206004820152602560248201527f455243313135353a207472616e7366657220746f20746865207a65726f20616460448201527f64726573730000000000000000000000000000000000000000000000000000006064820152608401610484565b336000611b438561214e565b90506000611b508561214e565b905060008681526065602090815260408083206001600160a01b038c16845290915290205485811015611beb5760405162461bcd60e51b815260206004820152602a60248201527f455243313135353a20696e73756666696369656e742062616c616e636520666f60448201527f72207472616e73666572000000000000000000000000000000000000000000006064820152608401610484565b60008781526065602090815260408083206001600160a01b038d8116855292528083208985039055908a16825281208054889290611c2a908490612ba4565b909155505060408051888152602081018890526001600160a01b03808b16928c821692918816917fc3d58168c5ae7397731d063d5bbf3d657854427343f4c083240f7aacaa2d0f62910160405180910390a4611c8a848a8a8a8a8a612199565b505050505050505050565b6001600160a01b038316611d115760405162461bcd60e51b815260206004820152602360248201527f455243313135353a206275726e2066726f6d20746865207a65726f206164647260448201527f65737300000000000000000000000000000000000000000000000000000000006064820152608401610484565b336000611d1d8461214e565b90506000611d2a8461214e565b6040805160208082018352600091829052888252606581528282206001600160a01b038b1683529052205490915084811015611dcd5760405162461bcd60e51b8152602060048201526024808201527f455243313135353a206275726e20616d6f756e7420657863656564732062616c60448201527f616e6365000000000000000000000000000000000000000000000000000000006064820152608401610484565b60008681526065602090815260408083206001600160a01b038b81168086529184528285208a8703905582518b81529384018a90529092908816917fc3d58168c5ae7397731d063d5bbf3d657854427343f4c083240f7aacaa2d0f62910160405180910390a46040805160208101909152600090526119a0565b6001600160a01b0384163b15610acb576040517fbc197c810000000000000000000000000000000000000000000000000000000081526001600160a01b0385169063bc197c8190611ea49089908990889088908890600401612be5565b6020604051808303816000875af1925050508015611edf575060408051601f3d908101601f19168201909252611edc91810190612c43565b60015b611f9457611eeb612c60565b806308c379a003611f245750611eff612c7c565b80611f0a5750611f26565b8060405162461bcd60e51b81526004016104849190612401565b505b60405162461bcd60e51b815260206004820152603460248201527f455243313135353a207472616e7366657220746f206e6f6e2d4552433131353560448201527f526563656976657220696d706c656d656e7465720000000000000000000000006064820152608401610484565b7fffffffff0000000000000000000000000000000000000000000000000000000081167fbc197c8100000000000000000000000000000000000000000000000000000000146119a05760405162461bcd60e51b815260206004820152602860248201527f455243313135353a204552433131353552656365697665722072656a6563746560448201527f6420746f6b656e730000000000000000000000000000000000000000000000006064820152608401610484565b600054610100900460ff166120c85760405162461bcd60e51b815260206004820152602b60248201527f496e697469616c697a61626c653a20636f6e7472616374206973206e6f74206960448201527f6e697469616c697a696e670000000000000000000000000000000000000000006064820152608401610484565b610d8c816122f4565b600054610100900460ff16610d835760405162461bcd60e51b815260206004820152602b60248201527f496e697469616c697a61626c653a20636f6e7472616374206973206e6f74206960448201527f6e697469616c697a696e670000000000000000000000000000000000000000006064820152608401610484565b6040805160018082528183019092526060916000919060208083019080368337019050509050828160008151811061218857612188612b5b565b602090810291909101015292915050565b6001600160a01b0384163b15610acb576040517ff23a6e610000000000000000000000000000000000000000000000000000000081526001600160a01b0385169063f23a6e61906121f69089908990889088908890600401612d24565b6020604051808303816000875af1925050508015612231575060408051601f3d908101601f1916820190925261222e91810190612c43565b60015b61223d57611eeb612c60565b7fffffffff0000000000000000000000000000000000000000000000000000000081167ff23a6e6100000000000000000000000000000000000000000000000000000000146119a05760405162461bcd60e51b815260206004820152602860248201527f455243313135353a204552433131353552656365697665722072656a6563746560448201527f6420746f6b656e730000000000000000000000000000000000000000000000006064820152608401610484565b6067610bf68282612e00565b80356001600160a01b038116811461231757600080fd5b919050565b6000806040838503121561232f57600080fd5b61233883612300565b946020939093013593505050565b7fffffffff0000000000000000000000000000000000000000000000000000000081168114610d8c57600080fd5b60006020828403121561238657600080fd5b813561239181612346565b9392505050565b6000602082840312156123aa57600080fd5b5035919050565b60005b838110156123cc5781810151838201526020016123b4565b50506000910152565b600081518084526123ed8160208601602086016123b1565b601f01601f19169290920160200192915050565b60208152600061239160208301846123d5565b7f4e487b7100000000000000000000000000000000000000000000000000000000600052604160045260246000fd5b601f19601f830116810181811067ffffffffffffffff8211171561246957612469612414565b6040525050565b600067ffffffffffffffff82111561248a5761248a612414565b5060051b60200190565b600082601f8301126124a557600080fd5b813560206124b282612470565b6040516124bf8282612443565b83815260059390931b85018201928281019150868411156124df57600080fd5b8286015b848110156124fa57803583529183019183016124e3565b509695505050505050565b600067ffffffffffffffff82111561251f5761251f612414565b50601f01601f191660200190565b600082601f83011261253e57600080fd5b813561254981612505565b6040516125568282612443565b82815285602084870101111561256b57600080fd5b82602086016020830137600092810160200192909252509392505050565b6000806000806080858703121561259f57600080fd5b6125a885612300565b9350602085013567ffffffffffffffff808211156125c557600080fd5b6125d188838901612494565b945060408701359150808211156125e757600080fd5b6125f388838901612494565b9350606087013591508082111561260957600080fd5b506126168782880161252d565b91505092959194509250565b6000806040838503121561263557600080fd5b50508035926020909101359150565b600080600080600060a0868803121561265c57600080fd5b61266586612300565b945061267360208701612300565b9350604086013567ffffffffffffffff8082111561269057600080fd5b61269c89838a01612494565b945060608801359150808211156126b257600080fd5b6126be89838a01612494565b935060808801359150808211156126d457600080fd5b506126e18882890161252d565b9150509295509295909350565b60006020828403121561270057600080fd5b61239182612300565b6000806040838503121561271c57600080fd5b823567ffffffffffffffff8082111561273457600080fd5b818501915085601f83011261274857600080fd5b8135602061275582612470565b6040516127628282612443565b83815260059390931b850182019282810191508984111561278257600080fd5b948201945b838610156127a75761279886612300565b82529482019490820190612787565b965050860135925050808211156127bd57600080fd5b506127ca85828601612494565b9150509250929050565b600081518084526020808501945080840160005b83811015612804578151875295820195908201906001016127e8565b509495945050505050565b60208152600061239160208301846127d4565b600080600080600060a0868803121561283a57600080fd5b61284386612300565b945061285160208701612300565b935061285f60408701612300565b92506060860135915061287460808701612300565b90509295509295909350565b60008060006060848603121561289557600080fd5b61289e84612300565b9250602084013567ffffffffffffffff808211156128bb57600080fd5b6128c787838801612494565b935060408601359150808211156128dd57600080fd5b506128ea86828701612494565b9150509250925092565b6000806000806080858703121561290a57600080fd5b61291385612300565b93506020850135925060408501359150606085013567ffffffffffffffff81111561293d57600080fd5b6126168782880161252d565b6000806040838503121561295c57600080fd5b61296583612300565b91506020830135801515811461297a57600080fd5b809150509250929050565b6000806040838503121561299857600080fd5b6129a183612300565b91506129af60208401612300565b90509250929050565b600080600080600060a086880312156129d057600080fd5b6129d986612300565b94506129e760208701612300565b93506040860135925060608601359150608086013567ffffffffffffffff811115612a1157600080fd5b6126e18882890161252d565b600080600060608486031215612a3257600080fd5b612a3b84612300565b95602085013595506040909401359392505050565b600060208284031215612a6257600080fd5b815167ffffffffffffffff811115612a7957600080fd5b8201601f81018413612a8a57600080fd5b8051612a9581612505565b604051612aa28282612443565b828152866020848601011115612ab757600080fd5b612ac88360208301602087016123b1565b9695505050505050565b7f4e487b7100000000000000000000000000000000000000000000000000000000600052601160045260246000fd5b6000816000190483118215151615612b1b57612b1b612ad2565b500290565b600082612b56577f4e487b7100000000000000000000000000000000000000000000000000000000600052601260045260246000fd5b500490565b7f4e487b7100000000000000000000000000000000000000000000000000000000600052603260045260246000fd5b60006000198203612b9d57612b9d612ad2565b5060010190565b808201808211156104b2576104b2612ad2565b604081526000612bca60408301856127d4565b8281036020840152612bdc81856127d4565b95945050505050565b60006001600160a01b03808816835280871660208401525060a06040830152612c1160a08301866127d4565b8281036060840152612c2381866127d4565b90508281036080840152612c3781856123d5565b98975050505050505050565b600060208284031215612c5557600080fd5b815161239181612346565b600060033d1115612c795760046000803e5060005160e01c5b90565b600060443d1015612c8a5790565b6040517ffffffffffffffffffffffffffffffffffffffffffffffffffffffffffffffffc803d016004833e81513d67ffffffffffffffff8160248401118184111715612cd857505050505090565b8285019150815181811115612cf05750505050505090565b843d8701016020828501011115612d0a5750505050505090565b612d1960208286010187612443565b509095945050505050565b60006001600160a01b03808816835280871660208401525084604083015283606083015260a06080830152612d5c60a08301846123d5565b979650505050505050565b600181811c90821680612d7b57607f821691505b602082108103612db4577f4e487b7100000000000000000000000000000000000000000000000000000000600052602260045260246000fd5b50919050565b601f821115610b6c57600081815260208120601f850160051c81016020861015612de15750805b601f850160051c820191505b81811015610acb57828155600101612ded565b815167ffffffffffffffff811115612e1a57612e1a612414565b612e2e81612e288454612d67565b84612dba565b602080601f831160018114612e635760008415612e4b5750858301515b600019600386901b1c1916600185901b178555610acb565b600085815260208120601f198616915b82811015612e9257888601518255948401946001909101908401612e73565b5085821015612eb05787850151600019600388901b60f8161c191681555b5050505050600190811b0190555056fea26469706673582212200f256bc2a7ecc6bf047ad6f64489a5fa2daecbc2546bb8315c6374172348293f64736f6c63430008100033",
  "devdoc": {
    "kind": "dev",
    "methods": {
      "balanceOf(address,uint256)": {
        "details": "See {IERC1155-balanceOf}. Requirements: - `account` cannot be the zero address."
      },
      "balanceOfBatch(address[],uint256[])": {
        "details": "See {IERC1155-balanceOfBatch}. Requirements: - `accounts` and `ids` must have the same length."
      },
      "constructor": {
        "custom:oz-upgrades-unsafe-allow": "constructor"
      },
      "isApprovedForAll(address,address)": {
        "details": "See {IERC1155-isApprovedForAll}."
      },
      "mint(address,uint256,uint256,bytes)": {
        "details": "mint a single ticket, only callable by the allowed minter",
        "params": {
          "amount_": "the amount of the ticket to mint",
          "data_": "the data to pass to the mint function",
          "id_": "the id of the ticket to mint",
          "to_": "the address to mint the ticket to"
        }
      },
      "mintBatch(address,uint256[],uint256[],bytes)": {
        "details": "mint a batch of tickets, only callable by the allowed minter",
        "params": {
          "amounts_": "the amounts of the tickets to mint",
          "data_": "the data to pass to the mint function",
          "ids_": "the ids of the tickets to mint",
          "to_": "the address to mint the tickets to"
        }
      },
      "owner()": {
        "details": "Returns the address of the current owner."
      },
      "renounceOwnership()": {
        "details": "Leaves the contract without owner. It will not be possible to call `onlyOwner` functions anymore. Can only be called by the current owner. NOTE: Renouncing ownership will leave the contract without an owner, thereby removing any functionality that is only available to the owner."
      },
      "royaltyInfo(uint256,uint256)": {
        "details": "See {IERC165-royaltyInfo}",
        "params": {
          "salePrice_": "the sale price",
          "tokenId_": "the token id"
        }
      },
      "safeBatchTransferFrom(address,address,uint256[],uint256[],bytes)": {
        "details": "See {IERC1155-safeBatchTransferFrom}."
      },
      "safeTransferFrom(address,address,uint256,uint256,bytes)": {
        "details": "See {IERC1155-safeTransferFrom}."
      },
      "setApprovalForAll(address,bool)": {
        "details": "See {IERC1155-setApprovalForAll}."
      },
      "setMinterAddress(address)": {
        "details": "set the minter address",
        "params": {
          "minterAddress_": "the address of the minter"
        }
      },
      "setRoyaltyFee(uint256)": {
        "details": "set the royalty fee",
        "params": {
          "royaltyFee_": "the royalty fee"
        }
      },
      "setRoyaltyRecipient(address)": {
        "details": "set the royalty recipient",
        "params": {
          "royaltyRecipient_": "the address of the royalty recipient"
        }
      },
      "setTicketRenderer(address)": {
        "details": "set the ticket renderer contract",
        "params": {
          "ticketRenderer_": "the address of the ticket renderer contract"
        }
      },
      "supportsInterface(bytes4)": {
        "details": "returns true if the supplied interface id is supported",
        "params": {
          "interfaceId_": "the interface id"
        }
      },
      "transferOwnership(address)": {
        "details": "Transfers ownership of the contract to a new account (`newOwner`). Can only be called by the current owner."
      },
      "uri(uint256)": {
        "details": "return the uri, this delegates to the ticket renderer contract"
      }
    },
    "version": 1
  },
  "userdoc": {
    "kind": "user",
    "methods": {},
    "version": 1
  },
  "storageLayout": {
    "storage": [
      {
        "astId": 566,
        "contract": "contracts/RabbitHoleTickets.sol:RabbitHoleTickets",
        "label": "_initialized",
        "offset": 0,
        "slot": "0",
        "type": "t_uint8"
      },
      {
        "astId": 569,
        "contract": "contracts/RabbitHoleTickets.sol:RabbitHoleTickets",
        "label": "_initializing",
        "offset": 1,
        "slot": "0",
        "type": "t_bool"
      },
      {
        "astId": 4373,
        "contract": "contracts/RabbitHoleTickets.sol:RabbitHoleTickets",
        "label": "__gap",
        "offset": 0,
        "slot": "1",
        "type": "t_array(t_uint256)50_storage"
      },
      {
        "astId": 5027,
        "contract": "contracts/RabbitHoleTickets.sol:RabbitHoleTickets",
        "label": "__gap",
        "offset": 0,
        "slot": "51",
        "type": "t_array(t_uint256)50_storage"
      },
      {
        "astId": 884,
        "contract": "contracts/RabbitHoleTickets.sol:RabbitHoleTickets",
        "label": "_balances",
        "offset": 0,
        "slot": "101",
        "type": "t_mapping(t_uint256,t_mapping(t_address,t_uint256))"
      },
      {
        "astId": 890,
        "contract": "contracts/RabbitHoleTickets.sol:RabbitHoleTickets",
        "label": "_operatorApprovals",
        "offset": 0,
        "slot": "102",
        "type": "t_mapping(t_address,t_mapping(t_address,t_bool))"
      },
      {
        "astId": 892,
        "contract": "contracts/RabbitHoleTickets.sol:RabbitHoleTickets",
        "label": "_uri",
        "offset": 0,
        "slot": "103",
        "type": "t_string_storage"
      },
      {
        "astId": 2099,
        "contract": "contracts/RabbitHoleTickets.sol:RabbitHoleTickets",
        "label": "__gap",
        "offset": 0,
        "slot": "104",
        "type": "t_array(t_uint256)47_storage"
      },
      {
        "astId": 10816,
        "contract": "contracts/RabbitHoleTickets.sol:RabbitHoleTickets",
        "label": "_owner",
        "offset": 0,
        "slot": "151",
        "type": "t_address"
      },
      {
        "astId": 10940,
        "contract": "contracts/RabbitHoleTickets.sol:RabbitHoleTickets",
        "label": "__gap",
        "offset": 0,
        "slot": "152",
        "type": "t_array(t_uint256)49_storage"
      },
      {
        "astId": 2351,
        "contract": "contracts/RabbitHoleTickets.sol:RabbitHoleTickets",
        "label": "__gap",
        "offset": 0,
        "slot": "201",
        "type": "t_array(t_uint256)50_storage"
      },
      {
        "astId": 12782,
        "contract": "contracts/RabbitHoleTickets.sol:RabbitHoleTickets",
        "label": "royaltyRecipient",
        "offset": 0,
        "slot": "251",
        "type": "t_address"
      },
      {
        "astId": 12784,
        "contract": "contracts/RabbitHoleTickets.sol:RabbitHoleTickets",
        "label": "minterAddress",
        "offset": 0,
        "slot": "252",
        "type": "t_address"
      },
      {
        "astId": 12786,
        "contract": "contracts/RabbitHoleTickets.sol:RabbitHoleTickets",
        "label": "royaltyFee",
        "offset": 0,
        "slot": "253",
        "type": "t_uint256"
      },
      {
        "astId": 12789,
        "contract": "contracts/RabbitHoleTickets.sol:RabbitHoleTickets",
        "label": "TicketRendererContract",
        "offset": 0,
        "slot": "254",
        "type": "t_contract(TicketRenderer)13781"
      },
      {
        "astId": 12792,
        "contract": "contracts/RabbitHoleTickets.sol:RabbitHoleTickets",
        "label": "_tokenIds",
        "offset": 0,
        "slot": "255",
        "type": "t_struct(Counter)4380_storage"
      }
    ],
    "types": {
      "t_address": {
        "encoding": "inplace",
        "label": "address",
        "numberOfBytes": "20"
      },
      "t_array(t_uint256)47_storage": {
        "base": "t_uint256",
        "encoding": "inplace",
        "label": "uint256[47]",
        "numberOfBytes": "1504"
      },
      "t_array(t_uint256)49_storage": {
        "base": "t_uint256",
        "encoding": "inplace",
        "label": "uint256[49]",
        "numberOfBytes": "1568"
      },
      "t_array(t_uint256)50_storage": {
        "base": "t_uint256",
        "encoding": "inplace",
        "label": "uint256[50]",
        "numberOfBytes": "1600"
      },
      "t_bool": {
        "encoding": "inplace",
        "label": "bool",
        "numberOfBytes": "1"
      },
      "t_contract(TicketRenderer)13781": {
        "encoding": "inplace",
        "label": "contract TicketRenderer",
        "numberOfBytes": "20"
      },
      "t_mapping(t_address,t_bool)": {
        "encoding": "mapping",
        "key": "t_address",
        "label": "mapping(address => bool)",
        "numberOfBytes": "32",
        "value": "t_bool"
      },
      "t_mapping(t_address,t_mapping(t_address,t_bool))": {
        "encoding": "mapping",
        "key": "t_address",
        "label": "mapping(address => mapping(address => bool))",
        "numberOfBytes": "32",
        "value": "t_mapping(t_address,t_bool)"
      },
      "t_mapping(t_address,t_uint256)": {
        "encoding": "mapping",
        "key": "t_address",
        "label": "mapping(address => uint256)",
        "numberOfBytes": "32",
        "value": "t_uint256"
      },
      "t_mapping(t_uint256,t_mapping(t_address,t_uint256))": {
        "encoding": "mapping",
        "key": "t_uint256",
        "label": "mapping(uint256 => mapping(address => uint256))",
        "numberOfBytes": "32",
        "value": "t_mapping(t_address,t_uint256)"
      },
      "t_string_storage": {
        "encoding": "bytes",
        "label": "string",
        "numberOfBytes": "32"
      },
      "t_struct(Counter)4380_storage": {
        "encoding": "inplace",
        "label": "struct CountersUpgradeable.Counter",
        "members": [
          {
            "astId": 4379,
            "contract": "contracts/RabbitHoleTickets.sol:RabbitHoleTickets",
            "label": "_value",
            "offset": 0,
            "slot": "0",
            "type": "t_uint256"
          }
        ],
        "numberOfBytes": "32"
      },
      "t_uint256": {
        "encoding": "inplace",
        "label": "uint256",
        "numberOfBytes": "32"
      },
      "t_uint8": {
        "encoding": "inplace",
        "label": "uint8",
        "numberOfBytes": "1"
      }
    }
  }
}