{
  "abi": [
    {
      "inputs": [],
      "stateMutability": "nonpayable",
      "type": "constructor"
    },
    {
      "inputs": [],
      "name": "AddressAlreadyMinted",
      "type": "error"
    },
    {
      "inputs": [],
      "name": "AddressNotSigned",
      "type": "error"
    },
    {
      "inputs": [],
      "name": "AddressZeroNotAllowed",
      "type": "error"
    },
    {
      "inputs": [],
      "name": "Deprecated",
      "type": "error"
    },
    {
      "inputs": [],
      "name": "Erc20QuestAddressNotSet",
      "type": "error"
    },
    {
      "inputs": [],
      "name": "InvalidHash",
      "type": "error"
    },
    {
      "inputs": [],
      "name": "MsgValueLessThanQuestNFTFee",
      "type": "error"
    },
    {
      "inputs": [],
      "name": "OnlyOwnerCanCreate1155Quest",
      "type": "error"
    },
    {
      "inputs": [],
      "name": "OverMaxAllowedToMint",
      "type": "error"
    },
    {
      "inputs": [],
      "name": "QuestEnded",
      "type": "error"
    },
    {
      "inputs": [],
      "name": "QuestFeeTooHigh",
      "type": "error"
    },
    {
      "inputs": [],
      "name": "QuestIdUsed",
      "type": "error"
    },
    {
      "inputs": [],
      "name": "QuestNotQueued",
      "type": "error"
    },
    {
      "inputs": [],
      "name": "QuestNotStarted",
      "type": "error"
    },
    {
      "inputs": [],
      "name": "QuestTypeInvalid",
      "type": "error"
    },
    {
      "inputs": [],
      "name": "QuestTypeNotSupported",
      "type": "error"
    },
    {
      "inputs": [],
      "name": "ReferralFeeTooHigh",
      "type": "error"
    },
    {
      "inputs": [],
      "name": "RewardNotAllowed",
      "type": "error"
    },
    {
      "inputs": [],
      "name": "ZeroAddressNotAllowed",
      "type": "error"
    },
    {
      "anonymous": false,
      "inputs": [
        {
          "indexed": true,
          "internalType": "address",
          "name": "recipient",
          "type": "address"
        },
        {
          "indexed": false,
          "internalType": "uint256",
          "name": "amount",
          "type": "uint256"
        }
      ],
      "name": "ExtraMintFeeReturned",
      "type": "event"
    },
    {
      "anonymous": false,
      "inputs": [
        {
          "indexed": false,
          "internalType": "uint8",
          "name": "version",
          "type": "uint8"
        }
      ],
      "name": "Initialized",
      "type": "event"
    },
    {
      "anonymous": false,
      "inputs": [
        {
          "indexed": false,
          "internalType": "uint256",
          "name": "amount",
          "type": "uint256"
        }
      ],
      "name": "MintFeeSet",
      "type": "event"
    },
    {
      "anonymous": false,
      "inputs": [
        {
          "indexed": false,
          "internalType": "address[]",
          "name": "addresses",
          "type": "address[]"
        },
        {
          "indexed": false,
          "internalType": "uint256[]",
          "name": "fees",
          "type": "uint256[]"
        }
      ],
      "name": "NftQuestFeeListSet",
      "type": "event"
    },
    {
      "anonymous": false,
      "inputs": [
        {
          "indexed": false,
          "internalType": "uint256",
          "name": "fee",
          "type": "uint256"
        }
      ],
      "name": "NftQuestFeeSet",
      "type": "event"
    },
    {
      "anonymous": false,
      "inputs": [
        {
          "indexed": true,
          "internalType": "address",
          "name": "previousOwner",
          "type": "address"
        },
        {
          "indexed": true,
          "internalType": "address",
          "name": "newOwner",
          "type": "address"
        }
      ],
      "name": "OwnershipTransferred",
      "type": "event"
    },
    {
      "anonymous": false,
      "inputs": [
        {
          "indexed": true,
          "internalType": "address",
          "name": "recipient",
          "type": "address"
        },
        {
          "indexed": true,
          "internalType": "address",
          "name": "questAddress",
          "type": "address"
        },
        {
          "indexed": false,
          "internalType": "string",
          "name": "questId",
          "type": "string"
        },
        {
          "indexed": false,
          "internalType": "address",
          "name": "rewardToken",
          "type": "address"
        },
        {
          "indexed": false,
          "internalType": "uint256",
          "name": "tokenId",
          "type": "uint256"
        }
      ],
      "name": "Quest1155Claimed",
      "type": "event"
    },
    {
      "anonymous": false,
      "inputs": [
        {
          "indexed": true,
          "internalType": "address",
          "name": "creator",
          "type": "address"
        },
        {
          "indexed": true,
          "internalType": "address",
          "name": "contractAddress",
          "type": "address"
        },
        {
          "indexed": false,
          "internalType": "string",
          "name": "questId",
          "type": "string"
        },
        {
          "indexed": false,
          "internalType": "string",
          "name": "contractType",
          "type": "string"
        },
        {
          "indexed": false,
          "internalType": "address",
          "name": "rewardTokenAddress",
          "type": "address"
        },
        {
          "indexed": false,
          "internalType": "uint256",
          "name": "endTime",
          "type": "uint256"
        },
        {
          "indexed": false,
          "internalType": "uint256",
          "name": "startTime",
          "type": "uint256"
        },
        {
          "indexed": false,
          "internalType": "uint256",
          "name": "totalParticipants",
          "type": "uint256"
        },
        {
          "indexed": false,
          "internalType": "uint256",
          "name": "rewardAmountOrTokenId",
          "type": "uint256"
        }
      ],
      "name": "Quest1155Created",
      "type": "event"
    },
    {
      "anonymous": false,
      "inputs": [
        {
          "indexed": true,
          "internalType": "address",
          "name": "recipient",
          "type": "address"
        },
        {
          "indexed": true,
          "internalType": "address",
          "name": "questAddress",
          "type": "address"
        },
        {
          "indexed": false,
          "internalType": "string",
          "name": "questId",
          "type": "string"
        },
        {
          "indexed": false,
          "internalType": "address",
          "name": "rewardToken",
          "type": "address"
        },
        {
          "indexed": false,
          "internalType": "uint256",
          "name": "rewardAmountInWei",
          "type": "uint256"
        }
      ],
      "name": "QuestClaimed",
      "type": "event"
    },
    {
      "anonymous": false,
      "inputs": [
        {
          "indexed": true,
          "internalType": "address",
          "name": "recipient",
          "type": "address"
        },
        {
          "indexed": true,
          "internalType": "address",
          "name": "questAddress",
          "type": "address"
        },
        {
          "indexed": false,
          "internalType": "string",
          "name": "questId",
          "type": "string"
        },
        {
          "indexed": false,
          "internalType": "address",
          "name": "rewardToken",
          "type": "address"
        },
        {
          "indexed": false,
          "internalType": "uint256",
          "name": "rewardAmountInWeiOrTokenId",
          "type": "uint256"
        },
        {
          "indexed": false,
          "internalType": "address",
          "name": "referrer",
          "type": "address"
        },
        {
          "indexed": false,
          "internalType": "uint16",
          "name": "referralFee",
          "type": "uint16"
        },
        {
          "indexed": false,
          "internalType": "uint256",
          "name": "mintFeeEthWei",
          "type": "uint256"
        }
      ],
      "name": "QuestClaimedReferred",
      "type": "event"
    },
    {
      "anonymous": false,
      "inputs": [
        {
          "indexed": true,
          "internalType": "address",
          "name": "creator",
          "type": "address"
        },
        {
          "indexed": true,
          "internalType": "address",
          "name": "contractAddress",
          "type": "address"
        },
        {
          "indexed": false,
          "internalType": "string",
          "name": "questId",
          "type": "string"
        },
        {
          "indexed": false,
          "internalType": "string",
          "name": "contractType",
          "type": "string"
        },
        {
          "indexed": false,
          "internalType": "address",
          "name": "rewardTokenAddress",
          "type": "address"
        },
        {
          "indexed": false,
          "internalType": "uint256",
          "name": "endTime",
          "type": "uint256"
        },
        {
          "indexed": false,
          "internalType": "uint256",
          "name": "startTime",
          "type": "uint256"
        },
        {
          "indexed": false,
          "internalType": "uint256",
          "name": "totalParticipants",
          "type": "uint256"
        },
        {
          "indexed": false,
          "internalType": "uint256",
          "name": "rewardAmountOrTokenId",
          "type": "uint256"
        }
      ],
      "name": "QuestCreated",
      "type": "event"
    },
    {
      "anonymous": false,
      "inputs": [
        {
          "indexed": true,
          "internalType": "address",
          "name": "creator",
          "type": "address"
        },
        {
          "indexed": true,
          "internalType": "address",
          "name": "contractAddress",
          "type": "address"
        },
        {
          "indexed": false,
          "internalType": "string",
          "name": "questId",
          "type": "string"
        },
        {
          "indexed": false,
          "internalType": "string",
          "name": "contractType",
          "type": "string"
        },
        {
          "indexed": false,
          "internalType": "address",
          "name": "rewardTokenAddress",
          "type": "address"
        },
        {
          "indexed": false,
          "internalType": "uint256",
          "name": "endTime",
          "type": "uint256"
        },
        {
          "indexed": false,
          "internalType": "uint256",
          "name": "startTime",
          "type": "uint256"
        },
        {
          "indexed": false,
          "internalType": "uint256",
          "name": "totalParticipants",
          "type": "uint256"
        },
        {
          "indexed": false,
          "internalType": "uint256",
          "name": "rewardAmountOrTokenId",
          "type": "uint256"
        },
        {
          "indexed": false,
          "internalType": "string",
          "name": "actionSpec",
          "type": "string"
        }
      ],
      "name": "QuestCreatedWithAction",
      "type": "event"
    },
    {
      "anonymous": false,
      "inputs": [
        {
          "indexed": true,
          "internalType": "address",
          "name": "newQuestNFT",
          "type": "address"
        },
        {
          "indexed": false,
          "internalType": "address",
          "name": "questCreator",
          "type": "address"
        },
        {
          "indexed": false,
          "internalType": "string",
          "name": "collectionName",
          "type": "string"
        }
      ],
      "name": "QuestNFTCreated",
      "type": "event"
    },
    {
      "anonymous": false,
      "inputs": [
        {
          "indexed": true,
          "internalType": "address",
          "name": "recipient",
          "type": "address"
        },
        {
          "indexed": true,
          "internalType": "address",
          "name": "questAddress",
          "type": "address"
        },
        {
          "indexed": true,
          "internalType": "uint256",
          "name": "tokenId",
          "type": "uint256"
        },
        {
          "indexed": false,
          "internalType": "string",
          "name": "questId",
          "type": "string"
        }
      ],
      "name": "QuestNFTMinted",
      "type": "event"
    },
    {
      "anonymous": false,
      "inputs": [
        {
          "indexed": true,
          "internalType": "address",
          "name": "recipient",
          "type": "address"
        },
        {
          "indexed": true,
          "internalType": "address",
          "name": "questAddress",
          "type": "address"
        },
        {
          "indexed": true,
          "internalType": "uint256",
          "name": "tokenId",
          "type": "uint256"
        },
        {
          "indexed": false,
          "internalType": "string",
          "name": "questId",
          "type": "string"
        }
      ],
      "name": "ReceiptMinted",
      "type": "event"
    },
    {
      "anonymous": false,
      "inputs": [
        {
          "indexed": false,
          "internalType": "uint16",
          "name": "percent",
          "type": "uint16"
        }
      ],
      "name": "ReferralFeeSet",
      "type": "event"
    },
    {
      "anonymous": false,
      "inputs": [
        {
          "indexed": true,
          "internalType": "bytes32",
          "name": "role",
          "type": "bytes32"
        },
        {
          "indexed": true,
          "internalType": "bytes32",
          "name": "previousAdminRole",
          "type": "bytes32"
        },
        {
          "indexed": true,
          "internalType": "bytes32",
          "name": "newAdminRole",
          "type": "bytes32"
        }
      ],
      "name": "RoleAdminChanged",
      "type": "event"
    },
    {
      "anonymous": false,
      "inputs": [
        {
          "indexed": true,
          "internalType": "bytes32",
          "name": "role",
          "type": "bytes32"
        },
        {
          "indexed": true,
          "internalType": "address",
          "name": "account",
          "type": "address"
        },
        {
          "indexed": true,
          "internalType": "address",
          "name": "sender",
          "type": "address"
        }
      ],
      "name": "RoleGranted",
      "type": "event"
    },
    {
      "anonymous": false,
      "inputs": [
        {
          "indexed": true,
          "internalType": "bytes32",
          "name": "role",
          "type": "bytes32"
        },
        {
          "indexed": true,
          "internalType": "address",
          "name": "account",
          "type": "address"
        },
        {
          "indexed": true,
          "internalType": "address",
          "name": "sender",
          "type": "address"
        }
      ],
      "name": "RoleRevoked",
      "type": "event"
    },
    {
      "stateMutability": "payable",
      "type": "fallback"
    },
    {
      "inputs": [],
      "name": "DEFAULT_ADMIN_ROLE",
      "outputs": [
        {
          "internalType": "bytes32",
          "name": "",
          "type": "bytes32"
        }
      ],
      "stateMutability": "view",
      "type": "function"
    },
    {
      "inputs": [
        {
          "internalType": "string",
          "name": "questId_",
          "type": "string"
        },
        {
          "internalType": "bytes32",
          "name": "hash_",
          "type": "bytes32"
        },
        {
          "internalType": "bytes",
          "name": "signature_",
          "type": "bytes"
        },
        {
          "internalType": "address",
          "name": "ref_",
          "type": "address"
        }
      ],
      "name": "claim",
      "outputs": [],
      "stateMutability": "payable",
      "type": "function"
    },
    {
      "inputs": [
        {
          "internalType": "string",
          "name": "questId_",
          "type": "string"
        },
        {
          "internalType": "bytes32",
          "name": "hash_",
          "type": "bytes32"
        },
        {
          "internalType": "bytes",
          "name": "signature_",
          "type": "bytes"
        }
      ],
      "name": "claim1155Rewards",
      "outputs": [],
      "stateMutability": "payable",
      "type": "function"
    },
    {
      "inputs": [
        {
          "internalType": "string",
          "name": "questId_",
          "type": "string"
        },
        {
          "internalType": "bytes32",
          "name": "hash_",
          "type": "bytes32"
        },
        {
          "internalType": "bytes",
          "name": "signature_",
          "type": "bytes"
        }
      ],
      "name": "claimRewards",
      "outputs": [],
      "stateMutability": "payable",
      "type": "function"
    },
    {
      "inputs": [],
      "name": "claimSignerAddress",
      "outputs": [
        {
          "internalType": "address",
          "name": "",
          "type": "address"
        }
      ],
      "stateMutability": "view",
      "type": "function"
    },
    {
      "inputs": [
        {
          "internalType": "address",
          "name": "rewardTokenAddress_",
          "type": "address"
        },
        {
          "internalType": "uint256",
          "name": "endTime_",
          "type": "uint256"
        },
        {
          "internalType": "uint256",
          "name": "startTime_",
          "type": "uint256"
        },
        {
          "internalType": "uint256",
          "name": "totalParticipants_",
          "type": "uint256"
        },
        {
          "internalType": "uint256",
          "name": "tokenId_",
          "type": "uint256"
        },
        {
          "internalType": "string",
          "name": "questId_",
          "type": "string"
        },
        {
          "internalType": "string",
          "name": "actionSpec_",
          "type": "string"
        }
      ],
      "name": "create1155QuestAndQueue",
      "outputs": [
        {
          "internalType": "address",
          "name": "",
          "type": "address"
        }
      ],
      "stateMutability": "payable",
      "type": "function"
    },
    {
      "inputs": [
        {
          "internalType": "address",
          "name": "rewardTokenAddress_",
          "type": "address"
        },
        {
          "internalType": "uint256",
          "name": "endTime_",
          "type": "uint256"
        },
        {
          "internalType": "uint256",
          "name": "startTime_",
          "type": "uint256"
        },
        {
          "internalType": "uint256",
          "name": "totalParticipants_",
          "type": "uint256"
        },
        {
          "internalType": "uint256",
          "name": "rewardAmount_",
          "type": "uint256"
        },
        {
          "internalType": "string",
          "name": "",
          "type": "string"
        },
        {
          "internalType": "string",
          "name": "questId_",
          "type": "string"
        }
      ],
      "name": "createQuest",
      "outputs": [
        {
          "internalType": "address",
          "name": "",
          "type": "address"
        }
      ],
      "stateMutability": "nonpayable",
      "type": "function"
    },
    {
      "inputs": [
        {
          "internalType": "address",
          "name": "rewardTokenAddress_",
          "type": "address"
        },
        {
          "internalType": "uint256",
          "name": "endTime_",
          "type": "uint256"
        },
        {
          "internalType": "uint256",
          "name": "startTime_",
          "type": "uint256"
        },
        {
          "internalType": "uint256",
          "name": "totalParticipants_",
          "type": "uint256"
        },
        {
          "internalType": "uint256",
          "name": "rewardAmount_",
          "type": "uint256"
        },
        {
          "internalType": "string",
          "name": "questId_",
          "type": "string"
        },
        {
          "internalType": "string",
          "name": "actionSpec_",
          "type": "string"
        },
        {
          "internalType": "uint256",
          "name": "discountTokenId_",
          "type": "uint256"
        }
      ],
      "name": "createQuestAndQueue",
      "outputs": [
        {
          "internalType": "address",
          "name": "",
          "type": "address"
        }
      ],
      "stateMutability": "nonpayable",
      "type": "function"
    },
    {
      "inputs": [
        {
          "internalType": "address",
          "name": "rewardTokenAddress_",
          "type": "address"
        },
        {
          "internalType": "uint256",
          "name": "endTime_",
          "type": "uint256"
        },
        {
          "internalType": "uint256",
          "name": "startTime_",
          "type": "uint256"
        },
        {
          "internalType": "uint256",
          "name": "totalParticipants_",
          "type": "uint256"
        },
        {
          "internalType": "uint256",
          "name": "rewardAmount_",
          "type": "uint256"
        },
        {
          "internalType": "string",
          "name": "questId_",
          "type": "string"
        },
        {
          "internalType": "string",
          "name": "actionSpec_",
          "type": "string"
        },
        {
          "internalType": "uint256",
          "name": "discountTokenId_",
          "type": "uint256"
        },
        {
          "internalType": "uint40",
          "name": "durationTotal_",
          "type": "uint40"
        }
      ],
      "name": "createSablierQuest",
      "outputs": [
        {
          "internalType": "address",
          "name": "",
          "type": "address"
        }
      ],
      "stateMutability": "nonpayable",
      "type": "function"
    },
    {
      "inputs": [],
      "name": "erc1155QuestAddress",
      "outputs": [
        {
          "internalType": "address",
          "name": "",
          "type": "address"
        }
      ],
      "stateMutability": "view",
      "type": "function"
    },
    {
      "inputs": [],
      "name": "erc20QuestAddress",
      "outputs": [
        {
          "internalType": "address",
          "name": "",
          "type": "address"
        }
      ],
      "stateMutability": "view",
      "type": "function"
    },
    {
      "inputs": [
        {
          "internalType": "string",
          "name": "questId_",
          "type": "string"
        },
        {
          "internalType": "address",
          "name": "address_",
          "type": "address"
        }
      ],
      "name": "getAddressMinted",
      "outputs": [
        {
          "internalType": "bool",
          "name": "",
          "type": "bool"
        }
      ],
      "stateMutability": "view",
      "type": "function"
    },
    {
      "inputs": [],
      "name": "getMintFeeRecipient",
      "outputs": [
        {
          "internalType": "address",
          "name": "",
          "type": "address"
        }
      ],
      "stateMutability": "view",
      "type": "function"
    },
    {
      "inputs": [
        {
          "internalType": "address",
          "name": "address_",
          "type": "address"
        }
      ],
      "name": "getNftQuestFee",
      "outputs": [
        {
          "internalType": "uint256",
          "name": "",
          "type": "uint256"
        }
      ],
      "stateMutability": "view",
      "type": "function"
    },
    {
      "inputs": [
        {
          "internalType": "string",
          "name": "questId_",
          "type": "string"
        }
      ],
      "name": "getNumberMinted",
      "outputs": [
        {
          "internalType": "uint256",
          "name": "",
          "type": "uint256"
        }
      ],
      "stateMutability": "view",
      "type": "function"
    },
    {
      "inputs": [
        {
          "internalType": "bytes32",
          "name": "role",
          "type": "bytes32"
        }
      ],
      "name": "getRoleAdmin",
      "outputs": [
        {
          "internalType": "bytes32",
          "name": "",
          "type": "bytes32"
        }
      ],
      "stateMutability": "view",
      "type": "function"
    },
    {
      "inputs": [
        {
          "internalType": "bytes32",
          "name": "role",
          "type": "bytes32"
        },
        {
          "internalType": "address",
          "name": "account",
          "type": "address"
        }
      ],
      "name": "grantRole",
      "outputs": [],
      "stateMutability": "nonpayable",
      "type": "function"
    },
    {
      "inputs": [
        {
          "internalType": "bytes32",
          "name": "role",
          "type": "bytes32"
        },
        {
          "internalType": "address",
          "name": "account",
          "type": "address"
        }
      ],
      "name": "hasRole",
      "outputs": [
        {
          "internalType": "bool",
          "name": "",
          "type": "bool"
        }
      ],
      "stateMutability": "view",
      "type": "function"
    },
    {
      "inputs": [
        {
          "internalType": "address",
          "name": "claimSignerAddress_",
          "type": "address"
        },
        {
          "internalType": "address",
          "name": "rabbitHoleReceiptContract_",
          "type": "address"
        },
        {
          "internalType": "address",
          "name": "protocolFeeRecipient_",
          "type": "address"
        },
        {
          "internalType": "address",
          "name": "erc20QuestAddress_",
          "type": "address"
        },
        {
          "internalType": "address payable",
          "name": "erc1155QuestAddress_",
          "type": "address"
        },
        {
          "internalType": "address",
          "name": "ownerAddress_",
          "type": "address"
        },
        {
          "internalType": "address",
          "name": "questTerminalKeyAddress_",
          "type": "address"
        },
        {
          "internalType": "uint256",
          "name": "nftQuestFee_",
          "type": "uint256"
        },
        {
          "internalType": "uint16",
          "name": "referralFee_",
          "type": "uint16"
        }
      ],
      "name": "initialize",
      "outputs": [],
      "stateMutability": "nonpayable",
      "type": "function"
    },
    {
      "inputs": [],
      "name": "mintFee",
      "outputs": [
        {
          "internalType": "uint256",
          "name": "",
          "type": "uint256"
        }
      ],
      "stateMutability": "view",
      "type": "function"
    },
    {
      "inputs": [],
      "name": "mintFeeRecipient",
      "outputs": [
        {
          "internalType": "address",
          "name": "",
          "type": "address"
        }
      ],
      "stateMutability": "view",
      "type": "function"
    },
    {
      "inputs": [
        {
          "internalType": "string",
          "name": "",
          "type": "string"
        },
        {
          "internalType": "bytes32",
          "name": "",
          "type": "bytes32"
        },
        {
          "internalType": "bytes",
          "name": "",
          "type": "bytes"
        }
      ],
      "name": "mintReceipt",
      "outputs": [],
      "stateMutability": "pure",
      "type": "function"
    },
    {
      "inputs": [],
      "name": "nftQuestFee",
      "outputs": [
        {
          "internalType": "uint256",
          "name": "",
          "type": "uint256"
        }
      ],
      "stateMutability": "view",
      "type": "function"
    },
    {
      "inputs": [
        {
          "internalType": "address",
          "name": "",
          "type": "address"
        }
      ],
      "name": "nftQuestFeeList",
      "outputs": [
        {
          "internalType": "uint256",
          "name": "fee",
          "type": "uint256"
        },
        {
          "internalType": "bool",
          "name": "exists",
          "type": "bool"
        }
      ],
      "stateMutability": "view",
      "type": "function"
    },
    {
      "inputs": [],
      "name": "owner",
      "outputs": [
        {
          "internalType": "address",
          "name": "",
          "type": "address"
        }
      ],
      "stateMutability": "view",
      "type": "function"
    },
    {
      "inputs": [
        {
          "internalType": "address",
          "name": "",
          "type": "address"
        },
        {
          "internalType": "uint256",
          "name": "",
          "type": "uint256"
        }
      ],
      "name": "ownerCollections",
      "outputs": [
        {
          "internalType": "address",
          "name": "",
          "type": "address"
        }
      ],
      "stateMutability": "view",
      "type": "function"
    },
    {
      "inputs": [],
      "name": "protocolFeeRecipient",
      "outputs": [
        {
          "internalType": "address",
          "name": "",
          "type": "address"
        }
      ],
      "stateMutability": "view",
      "type": "function"
    },
    {
      "inputs": [
        {
          "internalType": "string",
          "name": "questId_",
          "type": "string"
        }
      ],
      "name": "questData",
      "outputs": [
        {
          "components": [
            {
              "internalType": "address",
              "name": "questAddress",
              "type": "address"
            },
            {
              "internalType": "address",
              "name": "rewardToken",
              "type": "address"
            },
            {
              "internalType": "bool",
              "name": "queued",
              "type": "bool"
            },
            {
              "internalType": "uint16",
              "name": "questFee",
              "type": "uint16"
            },
            {
              "internalType": "uint256",
              "name": "startTime",
              "type": "uint256"
            },
            {
              "internalType": "uint256",
              "name": "endTime",
              "type": "uint256"
            },
            {
              "internalType": "uint256",
              "name": "totalParticipants",
              "type": "uint256"
            },
            {
              "internalType": "uint256",
              "name": "numberMinted",
              "type": "uint256"
            },
            {
              "internalType": "uint256",
              "name": "redeemedTokens",
              "type": "uint256"
            },
            {
              "internalType": "uint256",
              "name": "rewardAmountOrTokenId",
              "type": "uint256"
            },
            {
              "internalType": "bool",
              "name": "hasWithdrawn",
              "type": "bool"
            }
          ],
          "internalType": "struct QuestFactory.QuestData",
          "name": "",
          "type": "tuple"
        }
      ],
      "stateMutability": "view",
      "type": "function"
    },
    {
      "inputs": [],
      "name": "questFee",
      "outputs": [
        {
          "internalType": "uint16",
          "name": "",
          "type": "uint16"
        }
      ],
      "stateMutability": "view",
      "type": "function"
    },
    {
      "inputs": [
        {
          "internalType": "string",
          "name": "questId_",
          "type": "string"
        }
      ],
      "name": "questInfo",
      "outputs": [
        {
          "internalType": "address",
          "name": "",
          "type": "address"
        },
        {
          "internalType": "uint256",
          "name": "",
          "type": "uint256"
        },
        {
          "internalType": "uint256",
          "name": "",
          "type": "uint256"
        }
      ],
      "stateMutability": "view",
      "type": "function"
    },
    {
      "inputs": [],
      "name": "questNFTAddress",
      "outputs": [
        {
          "internalType": "address",
          "name": "",
          "type": "address"
        }
      ],
      "stateMutability": "view",
      "type": "function"
    },
    {
      "inputs": [
        {
          "internalType": "string",
          "name": "",
          "type": "string"
        }
      ],
      "name": "quests",
      "outputs": [
        {
          "internalType": "address",
          "name": "questAddress",
          "type": "address"
        },
        {
          "internalType": "uint256",
          "name": "totalParticipants",
          "type": "uint256"
        },
        {
          "internalType": "uint256",
          "name": "numberMinted",
          "type": "uint256"
        },
        {
          "internalType": "string",
          "name": "questType",
          "type": "string"
        },
        {
          "internalType": "uint40",
          "name": "durationTotal",
          "type": "uint40"
        }
      ],
      "stateMutability": "view",
      "type": "function"
    },
    {
      "inputs": [],
      "name": "rabbitHoleReceiptContract",
      "outputs": [
        {
          "internalType": "contract RabbitHoleReceipt",
          "name": "",
          "type": "address"
        }
      ],
      "stateMutability": "view",
      "type": "function"
    },
    {
      "inputs": [],
      "name": "rabbitHoleTicketsContract",
      "outputs": [
        {
          "internalType": "address",
          "name": "",
          "type": "address"
        }
      ],
      "stateMutability": "view",
      "type": "function"
    },
    {
      "inputs": [
        {
          "internalType": "bytes32",
          "name": "hash_",
          "type": "bytes32"
        },
        {
          "internalType": "bytes",
          "name": "signature_",
          "type": "bytes"
        }
      ],
      "name": "recoverSigner",
      "outputs": [
        {
          "internalType": "address",
          "name": "",
          "type": "address"
        }
      ],
      "stateMutability": "view",
      "type": "function"
    },
    {
      "inputs": [],
      "name": "referralFee",
      "outputs": [
        {
          "internalType": "uint16",
          "name": "",
          "type": "uint16"
        }
      ],
      "stateMutability": "view",
      "type": "function"
    },
    {
      "inputs": [],
      "name": "renounceOwnership",
      "outputs": [],
      "stateMutability": "nonpayable",
      "type": "function"
    },
    {
      "inputs": [
        {
          "internalType": "bytes32",
          "name": "role",
          "type": "bytes32"
        },
        {
          "internalType": "address",
          "name": "account",
          "type": "address"
        }
      ],
      "name": "renounceRole",
      "outputs": [],
      "stateMutability": "nonpayable",
      "type": "function"
    },
    {
      "inputs": [
        {
          "internalType": "bytes32",
          "name": "role",
          "type": "bytes32"
        },
        {
          "internalType": "address",
          "name": "account",
          "type": "address"
        }
      ],
      "name": "revokeRole",
      "outputs": [],
      "stateMutability": "nonpayable",
      "type": "function"
    },
    {
      "inputs": [
        {
          "internalType": "address",
          "name": "",
          "type": "address"
        }
      ],
      "name": "rewardAllowlist",
      "outputs": [
        {
          "internalType": "bool",
          "name": "",
          "type": "bool"
        }
      ],
      "stateMutability": "view",
      "type": "function"
    },
    {
      "inputs": [
        {
          "internalType": "address",
          "name": "claimSignerAddress_",
          "type": "address"
        }
      ],
      "name": "setClaimSignerAddress",
      "outputs": [],
      "stateMutability": "nonpayable",
      "type": "function"
    },
    {
      "inputs": [
        {
          "internalType": "address",
          "name": "erc1155QuestAddress_",
          "type": "address"
        }
      ],
      "name": "setErc1155QuestAddress",
      "outputs": [],
      "stateMutability": "nonpayable",
      "type": "function"
    },
    {
      "inputs": [
        {
          "internalType": "address",
          "name": "erc20QuestAddress_",
          "type": "address"
        }
      ],
      "name": "setErc20QuestAddress",
      "outputs": [],
      "stateMutability": "nonpayable",
      "type": "function"
    },
    {
      "inputs": [
        {
          "internalType": "uint256",
          "name": "mintFee_",
          "type": "uint256"
        }
      ],
      "name": "setMintFee",
      "outputs": [],
      "stateMutability": "nonpayable",
      "type": "function"
    },
    {
      "inputs": [
        {
          "internalType": "address",
          "name": "mintFeeRecipient_",
          "type": "address"
        }
      ],
      "name": "setMintFeeRecipient",
      "outputs": [],
      "stateMutability": "nonpayable",
      "type": "function"
    },
    {
      "inputs": [
        {
          "internalType": "uint256",
          "name": "nftQuestFee_",
          "type": "uint256"
        }
      ],
      "name": "setNftQuestFee",
      "outputs": [],
      "stateMutability": "nonpayable",
      "type": "function"
    },
    {
      "inputs": [
        {
          "internalType": "address[]",
          "name": "toAddAddresses_",
          "type": "address[]"
        },
        {
          "internalType": "uint256[]",
          "name": "fees_",
          "type": "uint256[]"
        }
      ],
      "name": "setNftQuestFeeList",
      "outputs": [],
      "stateMutability": "nonpayable",
      "type": "function"
    },
    {
      "inputs": [
        {
          "internalType": "address",
          "name": "protocolFeeRecipient_",
          "type": "address"
        }
      ],
      "name": "setProtocolFeeRecipient",
      "outputs": [],
      "stateMutability": "nonpayable",
      "type": "function"
    },
    {
      "inputs": [
        {
          "internalType": "uint16",
          "name": "questFee_",
          "type": "uint16"
        }
      ],
      "name": "setQuestFee",
      "outputs": [],
      "stateMutability": "nonpayable",
      "type": "function"
    },
    {
      "inputs": [
        {
          "internalType": "address",
          "name": "questTerminalKeyContract_",
          "type": "address"
        }
      ],
      "name": "setQuestTerminalKeyContract",
      "outputs": [],
      "stateMutability": "nonpayable",
      "type": "function"
    },
    {
      "inputs": [
        {
          "internalType": "address",
          "name": "rabbitholeReceiptContract_",
          "type": "address"
        }
      ],
      "name": "setRabbitHoleReceiptContract",
      "outputs": [],
      "stateMutability": "nonpayable",
      "type": "function"
    },
    {
      "inputs": [
        {
          "internalType": "uint16",
          "name": "referralFee_",
          "type": "uint16"
        }
      ],
      "name": "setReferralFee",
      "outputs": [],
      "stateMutability": "nonpayable",
      "type": "function"
    },
    {
      "inputs": [
        {
          "internalType": "address",
          "name": "rewardAddress_",
          "type": "address"
        },
        {
          "internalType": "bool",
          "name": "allowed_",
          "type": "bool"
        }
      ],
      "name": "setRewardAllowlistAddress",
      "outputs": [],
      "stateMutability": "nonpayable",
      "type": "function"
    },
    {
      "inputs": [
        {
          "internalType": "bytes4",
          "name": "interfaceId",
          "type": "bytes4"
        }
      ],
      "name": "supportsInterface",
      "outputs": [
        {
          "internalType": "bool",
          "name": "",
          "type": "bool"
        }
      ],
      "stateMutability": "view",
      "type": "function"
    },
    {
      "inputs": [
        {
          "internalType": "uint256",
          "name": "totalParticipants_",
          "type": "uint256"
        }
      ],
      "name": "totalQuestNFTFee",
      "outputs": [
        {
          "internalType": "uint256",
          "name": "",
          "type": "uint256"
        }
      ],
      "stateMutability": "view",
      "type": "function"
    },
    {
      "inputs": [
        {
          "internalType": "address",
          "name": "newOwner",
          "type": "address"
        }
      ],
      "name": "transferOwnership",
      "outputs": [],
      "stateMutability": "nonpayable",
      "type": "function"
    },
    {
      "stateMutability": "payable",
      "type": "receive"
    }
  ],
  "bytecode": {
    "object": "0x60806040523480156200001157600080fd5b50600054610100900460ff1615808015620000335750600054600160ff909116105b806200004f5750303b1580156200004f575060005460ff166001145b620000b75760405162461bcd60e51b815260206004820152602e60248201527f496e697469616c697a61626c653a20636f6e747261637420697320616c72656160448201526d191e481a5b9a5d1a585b1a5e995960921b606482015260840160405180910390fd5b6000805460ff191660011790558015620000db576000805461ff0019166101001790555b801562000122576000805461ff0019169055604051600181527f7f26b83ff96e1f2b6a682f133852f6798a09c465da95921460cefb38474024989060200160405180910390a15b50614b4a80620001336000396000f3fe60806040526004361061033f5760003560e01c80637f7c0ef7116101ae578063c42fe718116100eb578063ec461ac41161008f578063f27e757b1161006c578063f27e757b14610a30578063f2fde38b14610a50578063f6cf3d5714610a70578063f8565efd14610a9057005b8063ec461ac4146109ab578063eddd0d9c146109f0578063f18cb78414610a1057005b8063d547741f116100c8578063d547741f1461092b578063d693e8d31461094b578063e1bc3aba1461096b578063e521cb921461098b57005b8063c42fe718146108cb578063c476dbcc146108eb578063d4faaa171461090b57005b806397aba7f911610152578063a1db1ba41161012f578063a1db1ba414610863578063a217fddf14610883578063b4cbdd8b14610898578063b6c22d6b146108b857005b806397aba7f91461080d578063994f3bd21461082d5780639b86630d1461084d57005b806384ae2bc61161018b57806384ae2bc61461079457806387c4d47d146107af5780638da5cb5b146107cf57806391d14854146107ed57005b80637f7c0ef7146107275780637fceecd61461075457806381589b1f1461077457005b80635f12f74d1161027c578063751eaf771161022057806378077f8d116101fd57806378077f8d1461066a5780637afc44691461068a5780637c93f9ee146106d65780637e4176e3146106f657005b8063751eaf771461061557806376319ee01461062a578063765b0c361461064a57005b806367dfa3e71161025957806367dfa3e71461058f578063695ef19f146105bd57806370dfd40a146105ed578063715018a61461060057005b80635f12f74d1461053c57806361ab146b1461054f57806364df049e1461056f57005b806336568abe116102e35780633ef17b17116102c05780633ef17b17146104bc57806343f8bc6f146104dc57806343ff27d1146104fc57806344b0c5191461051c57005b806336568abe1461045c5780633788fb6a1461047c57806339b5f8301461049c57005b806314b12e761161031c57806314b12e76146103d9578063248a9ca3146103ec57806327b0655f1461041c5780632f2ff15d1461043c57005b806301ffc9a7146103485780630b6fc1631461037d57806313966db5146103b557005b3661034657005b005b34801561035457600080fd5b50610368610363366004613be5565b610ab0565b60405190151581526020015b60405180910390f35b34801561038957600080fd5b5060c95461039d906001600160a01b031681565b6040516001600160a01b039091168152602001610374565b3480156103c157600080fd5b506103cb60d25481565b604051908152602001610374565b6103466103e7366004613cb1565b610ae7565b3480156103f857600080fd5b506103cb610407366004613d1d565b60009081526097602052604090206001015490565b34801561042857600080fd5b50610368610437366004613d4b565b610af9565b34801561044857600080fd5b50610346610457366004613d9c565b610b3b565b34801561046857600080fd5b50610346610477366004613d9c565b610b60565b34801561048857600080fd5b50610346610497366004613dc1565b610be3565b3480156104a857600080fd5b5061039d6104b7366004613dde565b610c34565b3480156104c857600080fd5b5060ce5461039d906001600160a01b031681565b3480156104e857600080fd5b5061039d6104f7366004613e0a565b610c6c565b34801561050857600080fd5b506103cb610517366004613ea6565b610db2565b34801561052857600080fd5b5061039d610537366004613ee2565b610ddd565b61034661054a366004613cb1565b610f1e565b34801561055b57600080fd5b5061034661056a366004613dc1565b610f2b565b34801561057b57600080fd5b5060ca5461039d906001600160a01b031681565b34801561059b57600080fd5b5060d1546105aa9061ffff1681565b60405161ffff9091168152602001610374565b3480156105c957600080fd5b506103686105d8366004613dc1565b60d06020526000908152604090205460ff1681565b61039d6105fb366004613e0a565b610f55565b34801561060c57600080fd5b50610346611358565b34801561062157600080fd5b5061039d61136c565b34801561063657600080fd5b50610346610645366004613cb1565b61139f565b34801561065657600080fd5b5060d35461039d906001600160a01b031681565b34801561067657600080fd5b5060cf5461039d906001600160a01b031681565b34801561069657600080fd5b506106c16106a5366004613dc1565b60d9602052600090815260409020805460019091015460ff1682565b60408051928352901515602083015201610374565b3480156106e257600080fd5b506103466106f1366004613dc1565b6113b8565b34801561070257600080fd5b50610716610711366004613ea6565b6113e2565b604051610374959493929190613ff7565b34801561073357600080fd5b50610747610742366004613ea6565b6114ba565b604051610374919061403d565b34801561076057600080fd5b506103cb61076f366004613dc1565b611a9e565b34801561078057600080fd5b5061039d61078f3660046140f0565b611ae5565b3480156107a057600080fd5b5060da546105aa9061ffff1681565b3480156107bb57600080fd5b506103466107ca3660046141e1565b611c25565b3480156107db57600080fd5b506033546001600160a01b031661039d565b3480156107f957600080fd5b50610368610808366004613d9c565b611d1e565b34801561081957600080fd5b5061039d61082836600461424c565b611d49565b34801561083957600080fd5b5060d75461039d906001600160a01b031681565b34801561085957600080fd5b506103cb60d65481565b34801561086f57600080fd5b5060cb5461039d906001600160a01b031681565b34801561088f57600080fd5b506103cb600081565b3480156108a457600080fd5b506103466108b3366004613dc1565b611d8a565b6103466108c6366004614292565b611db4565b3480156108d757600080fd5b506103466108e6366004614321565b611e7a565b3480156108f757600080fd5b506103cb610906366004613d1d565b611ef4565b34801561091757600080fd5b5060cc5461039d906001600160a01b031681565b34801561093757600080fd5b50610346610946366004613d9c565b611f09565b34801561095757600080fd5b5061034661096636600461434c565b611f2e565b34801561097757600080fd5b50610346610986366004614321565b611f61565b34801561099757600080fd5b506103466109a6366004613dc1565b611fa8565b3480156109b757600080fd5b506109cb6109c6366004613ea6565b611ff9565b604080516001600160a01b039094168452602084019290925290820152606001610374565b3480156109fc57600080fd5b50610346610a0b366004613d1d565b612048565b348015610a1c57600080fd5b50610346610a2b366004613d1d565b612085565b348015610a3c57600080fd5b50610346610a4b366004613dc1565b6120c2565b348015610a5c57600080fd5b50610346610a6b366004613dc1565b6120ec565b348015610a7c57600080fd5b50610346610a8b36600461437a565b612165565b348015610a9c57600080fd5b50610346610aab366004613dc1565b612315565b60006001600160e01b03198216637965db0b60e01b1480610ae157506301ffc9a760e01b6001600160e01b03198316145b92915050565b610af4838383600061233f565b505050565b600060cd83604051610b0b919061441c565b90815260408051602092819003830190206001600160a01b0385166000908152925290205460ff16905092915050565b600082815260976020526040902060010154610b56816129ef565b610af483836129f9565b6001600160a01b0381163314610bd55760405162461bcd60e51b815260206004820152602f60248201527f416363657373436f6e74726f6c3a2063616e206f6e6c792072656e6f756e636560448201526e103937b632b9903337b91039b2b63360891b60648201526084015b60405180910390fd5b610bdf8282612a7f565b5050565b610beb612ae6565b6001600160a01b038116610c12576040516302154e0360e21b815260040160405180910390fd5b60d380546001600160a01b0319166001600160a01b0392909216919091179055565b60d86020528160005260406000208181548110610c5057600080fd5b6000918252602090912001546001600160a01b03169150829050565b60008188600060cd83604051610c82919061441c565b90815260405190819003602001902060018101549091506001600160a01b031615610cc05760405163b2431b6160e01b815260040160405180910390fd5b6001600160a01b038216600090815260d0602052604090205460ff16610cf957604051639f7fdf3160e01b815260040160405180910390fd5b60cb546001600160a01b0316610d2257604051636d9282ef60e11b815260040160405180910390fd5b6000610d468c8c8c8c8c8b6000604051806020016040528060008152506000612b40565b60405163f2fde38b60e01b81523360048201529091506001600160a01b0382169063f2fde38b90602401600060405180830381600087803b158015610d8a57600080fd5b505af1158015610d9e573d6000803e3d6000fd5b50929e9d5050505050505050505050505050565b600060cd82604051610dc4919061441c565b9081526020016040518091039020600301549050919050565b6000848a600060cd83604051610df3919061441c565b90815260405190819003602001902060018101549091506001600160a01b031615610e315760405163b2431b6160e01b815260040160405180910390fd5b6001600160a01b038216600090815260d0602052604090205460ff16610e6a57604051639f7fdf3160e01b815260040160405180910390fd5b60cb546001600160a01b0316610e9357604051636d9282ef60e11b815260040160405180910390fd5b6000610ea68e8e8e8e8e8e8d8f8e612b40565b9050610eb2818f612dde565b60405163f2fde38b60e01b81523360048201526001600160a01b0382169063f2fde38b90602401600060405180830381600087803b158015610ef357600080fd5b505af1158015610f07573d6000803e3d6000fd5b509296505050505050509998505050505050505050565b610af48383836000612eae565b610f33612ae6565b60ce80546001600160a01b0319166001600160a01b0392909216919091179055565b600060d454600003610f6757600160d4555b60d454600114610f895760405162461bcd60e51b8152600401610bcc90614438565b600260d45560405160009060cd90610fa290869061441c565b90815260200160405180910390209050610fbb86611ef4565b341015610fdb576040516325f8ac8f60e21b815260040160405180910390fd5b60018101546001600160a01b0316156110075760405163b2431b6160e01b815260040160405180910390fd5b6000611049338660405160200161101f92919061445c565b60408051601f19818403018152919052805160209091012060cc546001600160a01b0316906134f7565b6001830180546001600160a01b0319166001600160a01b0383169081179091556002840189905590915061107d9034613548565b6040805180820190915260078152666572633131353560c81b602082015260048301906110aa9082614514565b50806001600160a01b03166339b6e72c8b8b8b8b8b6110c833611a9e565b60ca5460405160e089901b6001600160e01b03191681526001600160a01b039788166004820152602481019690965260448601949094526064850192909252608484015260a48301529190911660c482015260e401600060405180830381600087803b15801561113757600080fd5b505af115801561114b573d6000803e3d6000fd5b5050604051637921219560e11b8152336004808301919091526001600160a01b038581166024840152604483018b9052606483018c905260a0608484015260a4830191909152630307830360e41b60c48301528d16925063f242432a915060e401600060405180830381600087803b1580156111c657600080fd5b505af11580156111da573d6000803e3d6000fd5b50505050806001600160a01b031663e10d29ee6040518163ffffffff1660e01b8152600401600060405180830381600087803b15801561121957600080fd5b505af115801561122d573d6000803e3d6000fd5b505060405163f2fde38b60e01b81523360048201526001600160a01b038416925063f2fde38b9150602401600060405180830381600087803b15801561127257600080fd5b505af1158015611286573d6000803e3d6000fd5b505050506000845111156112f057806001600160a01b0316336001600160a01b03167f37e7622b8f2f0ab15e4e56620571dd35e2c14114a492bf49fad3580861d9d02e878d8d8d8d8d8c6040516112e397969594939291906145d3565b60405180910390a3611346565b806001600160a01b0316336001600160a01b03167f7ffd904b9426b92270b251e237818b61230a9c7dc857d7e6130dddc21b761937878d8d8d8d8d60405161133d96959493929190614657565b60405180910390a35b600160d4559998505050505050505050565b611360612ae6565b61136a6000613564565b565b60d3546000906001600160a01b031661138f575060ca546001600160a01b031690565b5060d3546001600160a01b031690565b6040516331cee75f60e21b815260040160405180910390fd5b6113c0612ae6565b60cb80546001600160a01b0319166001600160a01b0392909216919091179055565b805160208183018101805160cd8252928201919093012091526001810154600282015460038301546004840180546001600160a01b0390941694929391929161142a90614494565b80601f016020809104026020016040519081016040528092919081815260200182805461145690614494565b80156114a35780601f10611478576101008083540402835291602001916114a3565b820191906000526020600020905b81548152906001019060200180831161148657829003601f168201915b5050506005909301549192505064ffffffffff1685565b61153160405180610160016040528060006001600160a01b0316815260200160006001600160a01b03168152602001600015158152602001600061ffff1681526020016000815260200160008152602001600081526020016000815260200160008152602001600081526020016000151581525090565b600060cd83604051611543919061441c565b9081526020016040518091039020905060008160010160009054906101000a90046001600160a01b03169050600080611630604051806040016040528060078152602001666572633131353560c81b8152508560040180546115a490614494565b80601f01602080910402602001604051908101604052809291908181526020018280546115d090614494565b801561161d5780601f106115f25761010080835404028352916020019161161d565b820191906000526020600020905b81548152906001019060200180831161160057829003601f168201915b50505050506135b690919063ffffffff16565b156116b5578360010160009054906101000a90046001600160a01b03166001600160a01b03166317d70f7c6040518163ffffffff1660e01b8152600401602060405180830381865afa15801561168a573d6000803e3d6000fd5b505050506040513d601f19601f820116820180604052508101906116ae91906146c3565b915061177e565b826001600160a01b03166369d2dc056040518163ffffffff1660e01b8152600401602060405180830381865afa1580156116f3573d6000803e3d6000fd5b505050506040513d601f19601f8201168201806040525081019061171791906146c3565b9150826001600160a01b03166367dfa3e76040518163ffffffff1660e01b8152600401602060405180830381865afa158015611757573d6000803e3d6000fd5b505050506040513d601f19601f8201168201806040525081019061177b91906146dc565b90505b604080516101608101825260018601546001600160a01b039081168252825163f7c618c160e01b8152925160009360208085019389169263f7c618c19260048082019392918290030181865afa1580156117dc573d6000803e3d6000fd5b505050506040513d601f19601f8201168201806040525081019061180091906146f9565b6001600160a01b03168152602001856001600160a01b03166316049ddf6040518163ffffffff1660e01b8152600401602060405180830381865afa15801561184c573d6000803e3d6000fd5b505050506040513d601f19601f820116820180604052508101906118709190614716565b151581526020018361ffff168152602001856001600160a01b03166378e979256040518163ffffffff1660e01b8152600401602060405180830381865afa1580156118bf573d6000803e3d6000fd5b505050506040513d601f19601f820116820180604052508101906118e391906146c3565b8152602001856001600160a01b0316633197cbb66040518163ffffffff1660e01b8152600401602060405180830381865afa158015611926573d6000803e3d6000fd5b505050506040513d601f19601f8201168201806040525081019061194a91906146c3565b8152602001856001600160a01b031663a26dbf266040518163ffffffff1660e01b8152600401602060405180830381865afa15801561198d573d6000803e3d6000fd5b505050506040513d601f19601f820116820180604052508101906119b191906146c3565b815260200186600301548152602001856001600160a01b031663d86b87396040518163ffffffff1660e01b8152600401602060405180830381865afa1580156119fe573d6000803e3d6000fd5b505050506040513d601f19601f82011682018060405250810190611a2291906146c3565b8152602001848152602001856001600160a01b0316636cb4e6116040518163ffffffff1660e01b8152600401602060405180830381865afa158015611a6b573d6000803e3d6000fd5b505050506040513d601f19601f82011682018060405250810190611a8f9190614716565b15159052979650505050505050565b6001600160a01b038116600090815260d9602052604081206001015460ff16611ac95760d654610ae1565b506001600160a01b0316600090815260d9602052604090205490565b60008389600060cd83604051611afb919061441c565b90815260405190819003602001902060018101549091506001600160a01b031615611b395760405163b2431b6160e01b815260040160405180910390fd5b6001600160a01b038216600090815260d0602052604090205460ff16611b7257604051639f7fdf3160e01b815260040160405180910390fd5b60cb546001600160a01b0316611b9b57604051636d9282ef60e11b815260040160405180910390fd5b6000611baf8d8d8d8d8d8d8c8e6000612b40565b9050611bbb818e612dde565b60405163f2fde38b60e01b81523360048201526001600160a01b0382169063f2fde38b90602401600060405180830381600087803b158015611bfc57600080fd5b505af1158015611c10573d6000803e3d6000fd5b50929f9e505050505050505050505050505050565b611c2d612ae6565b60005b83811015611cda576040518060400160405280848484818110611c5557611c55614733565b9050602002013581526020016001151581525060d96000878785818110611c7e57611c7e614733565b9050602002016020810190611c939190613dc1565b6001600160a01b03168152602080820192909252604001600020825181559101516001909101805460ff191691151591909117905580611cd28161475f565b915050611c30565b507f7412a73f7b9b8b4a2fa22f3cb493a2e3008eb96b92abf7f5b06a18ca796eaa3184848484604051611d109493929190614778565b60405180910390a150505050565b60009182526097602090815260408084206001600160a01b0393909316845291905290205460ff1690565b6000611d83611d7d846020527b19457468657265756d205369676e6564204d6573736167653a0a3332600052603c60042090565b836135cc565b9392505050565b611d92612ae6565b60c980546001600160a01b0319166001600160a01b0392909216919091179055565b611e0160405180604001604052806005815260200164065726332360dc1b81525060cd86604051611de5919061441c565b908152602001604051809103902060040180546115a490614494565b15611e1757611e128484848461233f565b611e74565b611e4a604051806040016040528060078152602001666572633131353560c81b81525060cd86604051611de5919061441c565b15611e5b57611e1284848484612eae565b60405163efe6f92160e01b815260040160405180910390fd5b50505050565b611e82612ae6565b6127108161ffff161115611ea957604051635537108960e11b815260040160405180910390fd5b60da805461ffff191661ffff83169081179091556040519081527fa7bf2cb2b95a425df48655de4071d888fbb2d429d265bb008a4cea1dc8a89548906020015b60405180910390a150565b6000611eff33611a9e565b610ae190836147f6565b600082815260976020526040902060010154611f24816129ef565b610af48383612a7f565b611f36612ae6565b6001600160a01b0391909116600090815260d060205260409020805460ff1916911515919091179055565b611f69612ae6565b6127108161ffff161115611f9057604051632570cd5b60e11b815260040160405180910390fd5b60d1805461ffff191661ffff92909216919091179055565b611fb0612ae6565b6001600160a01b038116611fd7576040516302154e0360e21b815260040160405180910390fd5b60ca80546001600160a01b0319166001600160a01b0392909216919091179055565b60008060008060cd8560405161200f919061441c565b908152604051908190036020019020600181015460028201546003909201546001600160a01b0390911695509093509150509193909250565b612050612ae6565b60d28190556040518181527f97aee230ba41961438e908e115df76fa8113f85a0586d85b19ba5be50e6a227490602001611ee9565b61208d612ae6565b60d68190556040518181527facfc857f5247cf27fd46d9d8774f59e409be9b50fe1412825bec5c648863f03690602001611ee9565b6120ca612ae6565b60d580546001600160a01b0319166001600160a01b0392909216919091179055565b6120f4612ae6565b6001600160a01b0381166121595760405162461bcd60e51b815260206004820152602660248201527f4f776e61626c653a206e6577206f776e657220697320746865207a65726f206160448201526564647265737360d01b6064820152608401610bcc565b61216281613564565b50565b600054610100900460ff16158080156121855750600054600160ff909116105b8061219f5750303b15801561219f575060005460ff166001145b6122025760405162461bcd60e51b815260206004820152602e60248201527f496e697469616c697a61626c653a20636f6e747261637420697320616c72656160448201526d191e481a5b9a5d1a585b1a5e995960921b6064820152608401610bcc565b6000805460ff191660011790558015612225576000805461ff0019166101001790555b61222e8561364c565b61223661367c565b60d180546107d061ffff1991821617909155600160d45560c980546001600160a01b03199081166001600160a01b038e81169190911790925560ce805482168d841617905560ca805482168c841617905560cb805482168b841617905560cc805482168a841617905560d5805490911691871691909117905560d684905560da805490911661ffff84161790558015612309576000805461ff0019169055604051600181527f7f26b83ff96e1f2b6a682f133852f6798a09c465da95921460cefb38474024989060200160405180910390a15b50505050505050505050565b61231d612ae6565b60cc80546001600160a01b0319166001600160a01b0392909216919091179055565b60d45460000361234f57600160d4555b60d4546001146123715760405162461bcd60e51b8152600401610bcc90614438565b600260d45560d2543410156123c05760405162461bcd60e51b8152602060048201526015602482015274496e73756666696369656e74206d696e742066656560581b6044820152606401610bcc565b83838383600060cd856040516123d6919061441c565b908152604051908190036020019020905060006001600160a01b03831661242757338660405160200161240a92919061445c565b604051602081830303815290604052805190602001209050612455565b33868460405160200161243c9392919061480d565b6040516020818303038152906040528051906020012090505b6002820154600383015461246a906001614855565b111561248957604051630ae3cb6360e31b815260040160405180910390fd5b3360009081526020839052604090205460ff16156124ba57604051630f5f915f60e41b815260040160405180910390fd5b8481146124d9576040516257c03760e51b815260040160405180910390fd5b60c9546001600160a01b03166124ef8686611d49565b6001600160a01b031614612516576040516302e87eed60e11b815260040160405180910390fd5b600060cd8b604051612528919061441c565b908152604080516020928190038301812060018101546316049ddf60e01b835292519094506001600160a01b039092169283926316049ddf9260048082019392918290030181865afa158015612582573d6000803e3d6000fd5b505050506040513d601f19601f820116820180604052508101906125a69190614716565b6125c35760405163397b1ac160e21b815260040160405180910390fd5b806001600160a01b03166378e979256040518163ffffffff1660e01b8152600401602060405180830381865afa158015612601573d6000803e3d6000fd5b505050506040513d601f19601f8201168201806040525081019061262591906146c3565b42101561264557604051635971011360e01b815260040160405180910390fd5b806001600160a01b0316633197cbb66040518163ffffffff1660e01b8152600401602060405180830381865afa158015612683573d6000803e3d6000fd5b505050506040513d601f19601f820116820180604052508101906126a791906146c3565b4211156126c7576040516345b0152160e11b815260040160405180910390fd5b336000908152602083905260408120805460ff191660011790556003830180549091906126f39061475f565b90915550604051633941525560e11b81523360048201526001600160a01b03821690637282a4aa90602401600060405180830381600087803b15801561273857600080fd5b505af115801561274c573d6000803e3d6000fd5b50505050600060d254111561276457612764896136a3565b8160010160009054906101000a90046001600160a01b03166001600160a01b0316336001600160a01b03167fd35f2250d08242f6e4e2bfe3dac8b5887040ea7223991b25a628b415c3265be98e846001600160a01b031663f7c618c16040518163ffffffff1660e01b8152600401602060405180830381865afa1580156127ef573d6000803e3d6000fd5b505050506040513d601f19601f8201168201806040525081019061281391906146f9565b856001600160a01b03166369d2dc056040518163ffffffff1660e01b8152600401602060405180830381865afa158015612851573d6000803e3d6000fd5b505050506040513d601f19601f8201168201806040525081019061287591906146c3565b60405161288493929190614868565b60405180910390a36001600160a01b038916156129dc578160010160009054906101000a90046001600160a01b03166001600160a01b0316336001600160a01b03167f9c503975322622df0e05ce3ba5b99b1eace4b358cc8c0af4ddf1610f9ce58bbc8e846001600160a01b031663f7c618c16040518163ffffffff1660e01b8152600401602060405180830381865afa158015612926573d6000803e3d6000fd5b505050506040513d601f19601f8201168201806040525081019061294a91906146f9565b856001600160a01b03166369d2dc056040518163ffffffff1660e01b8152600401602060405180830381865afa158015612988573d6000803e3d6000fd5b505050506040513d601f19601f820116820180604052508101906129ac91906146c3565b8e60da60009054906101000a900461ffff1660d2546040516129d396959493929190614896565b60405180910390a35b5050600160d45550505050505050505050565b6121628133613729565b612a038282611d1e565b610bdf5760008281526097602090815260408083206001600160a01b03851684529091529020805460ff19166001179055612a3b3390565b6001600160a01b0316816001600160a01b0316837f2f8788117e7eff1d82e926ec794901d17c78024a50270940304540a733656f0d60405160405180910390a45050565b612a898282611d1e565b15610bdf5760008281526097602090815260408083206001600160a01b0385168085529252808320805460ff1916905551339285917ff6391f5c32d9c69d2a47ea670b442974b53935d1edc7fd64eb21e047a839171b9190a45050565b6033546001600160a01b0316331461136a5760405162461bcd60e51b815260206004820181905260248201527f4f776e61626c653a2063616c6c6572206973206e6f7420746865206f776e65726044820152606401610bcc565b60008060cd86604051612b53919061441c565b908152602001604051809103902090506000612ba53388604051602001612b7b92919061445c565b60408051601f19818403018152919052805160209091012060cb546001600160a01b0316906134f7565b855190915015612c0b57806001600160a01b0316336001600160a01b03167f37e7622b8f2f0ab15e4e56620571dd35e2c14114a492bf49fad3580861d9d02e898f8f8f8f8f8d604051612bfe97969594939291906148e0565b60405180910390a3612c61565b806001600160a01b0316336001600160a01b03167f7ffd904b9426b92270b251e237818b61230a9c7dc857d7e6130dddc21b761937898f8f8f8f8f604051612c589695949392919061491a565b60405180910390a35b6001820180546001600160a01b0319166001600160a01b03831617905560028201899055600064ffffffffff851615612ce55760058301805464ffffffffff191664ffffffffff871617905560408051808201909152600c81526b65726332305f73747265616d60a01b60208201526004840190612cdf9082614514565b50612d12565b604080518082019091526005815264065726332360dc1b60208201526004840190612d109082614514565b505b86600003612d27575060d15461ffff16612d33565b612d3087613782565b90505b816001600160a01b03166369cda6df8e8e8e8e8e8e60ce60009054906101000a90046001600160a01b03168960ca60009054906101000a90046001600160a01b03168f6040518b63ffffffff1660e01b8152600401612d9b9a99989796959493929190614951565b600060405180830381600087803b158015612db557600080fd5b505af1158015612dc9573d6000803e3d6000fd5b50939f9e505050505050505050505050505050565b612e573383846001600160a01b0316633dd4d94f6040518163ffffffff1660e01b8152600401602060405180830381865afa158015612e21573d6000803e3d6000fd5b505050506040513d601f19601f82011682018060405250810190612e4591906146c3565b6001600160a01b038516929190613963565b816001600160a01b031663e10d29ee6040518163ffffffff1660e01b8152600401600060405180830381600087803b158015612e9257600080fd5b505af1158015612ea6573d6000803e3d6000fd5b505050505050565b60d454600003612ebe57600160d4555b60d454600114612ee05760405162461bcd60e51b8152600401610bcc90614438565b600260d45560d254341015612f2f5760405162461bcd60e51b8152602060048201526015602482015274496e73756666696369656e74206d696e742066656560581b6044820152606401610bcc565b83838383600060cd85604051612f45919061441c565b908152604051908190036020019020905060006001600160a01b038316612f96573386604051602001612f7992919061445c565b604051602081830303815290604052805190602001209050612fc4565b338684604051602001612fab9392919061480d565b6040516020818303038152906040528051906020012090505b60028201546003830154612fd9906001614855565b1115612ff857604051630ae3cb6360e31b815260040160405180910390fd5b3360009081526020839052604090205460ff161561302957604051630f5f915f60e41b815260040160405180910390fd5b848114613048576040516257c03760e51b815260040160405180910390fd5b60c9546001600160a01b031661305e8686611d49565b6001600160a01b031614613085576040516302e87eed60e11b815260040160405180910390fd5b600060cd8b604051613097919061441c565b908152604080516020928190038301812060018101546316049ddf60e01b835292519094506001600160a01b039092169283926316049ddf9260048082019392918290030181865afa1580156130f1573d6000803e3d6000fd5b505050506040513d601f19601f820116820180604052508101906131159190614716565b6131325760405163397b1ac160e21b815260040160405180910390fd5b806001600160a01b03166378e979256040518163ffffffff1660e01b8152600401602060405180830381865afa158015613170573d6000803e3d6000fd5b505050506040513d601f19601f8201168201806040525081019061319491906146c3565b4210156131b457604051635971011360e01b815260040160405180910390fd5b806001600160a01b0316633197cbb66040518163ffffffff1660e01b8152600401602060405180830381865afa1580156131f2573d6000803e3d6000fd5b505050506040513d601f19601f8201168201806040525081019061321691906146c3565b421115613236576040516345b0152160e11b815260040160405180910390fd5b336000908152602083905260408120805460ff191660011790556003830180549091906132629061475f565b90915550604051633941525560e11b81523360048201526001600160a01b03821690637282a4aa90602401600060405180830381600087803b1580156132a757600080fd5b505af11580156132bb573d6000803e3d6000fd5b50505050600060d25411156132d3576132d3896136a3565b8160010160009054906101000a90046001600160a01b03166001600160a01b0316336001600160a01b03167f10301d5d7c155e8a5269fc62b7841a3fd101266acc5768d5df29b6e8d82343318e846001600160a01b031663f7c618c16040518163ffffffff1660e01b8152600401602060405180830381865afa15801561335e573d6000803e3d6000fd5b505050506040513d601f19601f8201168201806040525081019061338291906146f9565b856001600160a01b03166317d70f7c6040518163ffffffff1660e01b8152600401602060405180830381865afa1580156133c0573d6000803e3d6000fd5b505050506040513d601f19601f820116820180604052508101906133e491906146c3565b6040516133f393929190614868565b60405180910390a36001600160a01b038916156129dc578160010160009054906101000a90046001600160a01b03166001600160a01b0316336001600160a01b03167f9c503975322622df0e05ce3ba5b99b1eace4b358cc8c0af4ddf1610f9ce58bbc8e846001600160a01b031663f7c618c16040518163ffffffff1660e01b8152600401602060405180830381865afa158015613495573d6000803e3d6000fd5b505050506040513d601f19601f820116820180604052508101906134b991906146f9565b856001600160a01b03166317d70f7c6040518163ffffffff1660e01b8152600401602060405180830381865afa158015612988573d6000803e3d6000fd5b60006c5af43d3d93803e602a57fd5bf36021528260145273602c3d8160093d39f33d3d3d3d363d3d37363d73600052816035600c6000f59050600060215280610ae15763301164256000526004601cfd5b60008060008084865af1610bdf5763b12d13eb6000526004601cfd5b603380546001600160a01b038381166001600160a01b0319831681179093556040519116919082907f8be0079c531659141344cd1fd0a4f28419497f9722a3daafe3b4186f6b6457e090600090a35050565b8051602091820120825192909101919091201490565b600060405183600052606083015160001a6020526020830151604052604083015160605260206000608060007f7fffffffffffffffffffffffffffffff5d576e7357a4501ddfe92f46681b20a1606051106041885114165afa5060005191503d61363e57638baa579f6000526004601cfd5b600060605260405292915050565b600054610100900460ff166136735760405162461bcd60e51b8152600401610bcc906149c6565b612162816139b7565b600054610100900460ff1661136a5760405162461bcd60e51b8152600401610bcc906149c6565b6136ab6139de565b6001600160a01b0381166136d65761216260d2546136c761136c565b6001600160a01b031690613548565b60da5460d254600091612710916136f19161ffff16906147f6565b6136fb9190614a11565b90506137106001600160a01b03831682613548565b610bdf8160d2546137219190614a33565b6136c761136c565b6137338282611d1e565b610bdf5761374081613a38565b61374b836020613a4a565b60405160200161375c929190614a46565b60408051601f198184030181529082905262461bcd60e51b8252610bcc91600401614abb565b60d5546040516331a9108f60e11b81526004810183905260009133916001600160a01b0390911690636352211e90602401602060405180830381865afa1580156137d0573d6000803e3d6000fd5b505050506040513d601f19601f820116820180604052508101906137f491906146f9565b6001600160a01b0316146138665760405162461bcd60e51b815260206004820152603360248201527f5175657374466163746f72793a2063616c6c6572206973206e6f74206f776e65604482015272391037b3103234b9b1b7bab73a103a37b5b2b760691b6064820152608401610bcc565b60d554604051630bae6a6960e41b8152600481018490526000916001600160a01b03169063bae6a690906024016040805180830381865afa1580156138af573d6000803e3d6000fd5b505050506040513d601f19601f820116820180604052508101906138d39190614ace565b5060d5546040516306de650b60e51b8152600481018690529192506001600160a01b03169063dbcca16090602401600060405180830381600087803b15801561391b57600080fd5b505af115801561392f573d6000803e3d6000fd5b505050506127108161ffff166127106139489190614a33565b60d154613959919061ffff166147f6565b611d839190614a11565b60405181606052826040528360601b602c526323b872dd60601b600c52602060006064601c6000895af13d1560016000511417166139a957637939f4246000526004601cfd5b600060605260405250505050565b600054610100900460ff166121595760405162461bcd60e51b8152600401610bcc906149c6565b600060d254346139ee9190614a33565b9050801561216257613a003382613548565b60405181815233907fa460cf400fb0d3a1ca6caa7a08fc3474317aa3f31e2b6744210d97f6405074069060200160405180910390a250565b6060610ae16001600160a01b03831660145b60606000613a598360026147f6565b613a64906002614855565b6001600160401b03811115613a7b57613a7b613c0f565b6040519080825280601f01601f191660200182016040528015613aa5576020820181803683370190505b509050600360fc1b81600081518110613ac057613ac0614733565b60200101906001600160f81b031916908160001a905350600f60fb1b81600181518110613aef57613aef614733565b60200101906001600160f81b031916908160001a9053506000613b138460026147f6565b613b1e906001614855565b90505b6001811115613b96576f181899199a1a9b1b9c1cb0b131b232b360811b85600f1660108110613b5257613b52614733565b1a60f81b828281518110613b6857613b68614733565b60200101906001600160f81b031916908160001a90535060049490941c93613b8f81614afd565b9050613b21565b508315611d835760405162461bcd60e51b815260206004820181905260248201527f537472696e67733a20686578206c656e67746820696e73756666696369656e746044820152606401610bcc565b600060208284031215613bf757600080fd5b81356001600160e01b031981168114611d8357600080fd5b634e487b7160e01b600052604160045260246000fd5b600082601f830112613c3657600080fd5b81356001600160401b0380821115613c5057613c50613c0f565b604051601f8301601f19908116603f01168101908282118183101715613c7857613c78613c0f565b81604052838152866020858801011115613c9157600080fd5b836020870160208301376000602085830101528094505050505092915050565b600080600060608486031215613cc657600080fd5b83356001600160401b0380821115613cdd57600080fd5b613ce987838801613c25565b9450602086013593506040860135915080821115613d0657600080fd5b50613d1386828701613c25565b9150509250925092565b600060208284031215613d2f57600080fd5b5035919050565b6001600160a01b038116811461216257600080fd5b60008060408385031215613d5e57600080fd5b82356001600160401b03811115613d7457600080fd5b613d8085828601613c25565b9250506020830135613d9181613d36565b809150509250929050565b60008060408385031215613daf57600080fd5b823591506020830135613d9181613d36565b600060208284031215613dd357600080fd5b8135611d8381613d36565b60008060408385031215613df157600080fd5b8235613dfc81613d36565b946020939093013593505050565b600080600080600080600060e0888a031215613e2557600080fd5b8735613e3081613d36565b96506020880135955060408801359450606088013593506080880135925060a08801356001600160401b0380821115613e6857600080fd5b613e748b838c01613c25565b935060c08a0135915080821115613e8a57600080fd5b50613e978a828b01613c25565b91505092959891949750929550565b600060208284031215613eb857600080fd5b81356001600160401b03811115613ece57600080fd5b613eda84828501613c25565b949350505050565b60008060008060008060008060006101208a8c031215613f0157600080fd5b8935613f0c81613d36565b985060208a0135975060408a0135965060608a0135955060808a0135945060a08a01356001600160401b0380821115613f4457600080fd5b613f508d838e01613c25565b955060c08c0135915080821115613f6657600080fd5b50613f738c828d01613c25565b93505060e08a013591506101008a013564ffffffffff81168114613f9657600080fd5b809150509295985092959850929598565b60005b83811015613fc2578181015183820152602001613faa565b50506000910152565b60008151808452613fe3816020860160208601613fa7565b601f01601f19169290920160200192915050565b60018060a01b038616815284602082015283604082015260a06060820152600061402460a0830185613fcb565b905064ffffffffff831660808301529695505050505050565b81516001600160a01b031681526101608101602083015161406960208401826001600160a01b03169052565b50604083015161407d604084018215159052565b506060830151614093606084018261ffff169052565b506080830151608083015260a083015160a083015260c083015160c083015260e083015160e0830152610100808401518184015250610120808401518184015250610140808401516140e88285018215159052565b505092915050565b600080600080600080600080610100898b03121561410d57600080fd5b883561411881613d36565b97506020890135965060408901359550606089013594506080890135935060a08901356001600160401b038082111561415057600080fd5b61415c8c838d01613c25565b945060c08b013591508082111561417257600080fd5b5061417f8b828c01613c25565b92505060e089013590509295985092959890939650565b60008083601f8401126141a857600080fd5b5081356001600160401b038111156141bf57600080fd5b6020830191508360208260051b85010111156141da57600080fd5b9250929050565b600080600080604085870312156141f757600080fd5b84356001600160401b038082111561420e57600080fd5b61421a88838901614196565b9096509450602087013591508082111561423357600080fd5b5061424087828801614196565b95989497509550505050565b6000806040838503121561425f57600080fd5b8235915060208301356001600160401b0381111561427c57600080fd5b61428885828601613c25565b9150509250929050565b600080600080608085870312156142a857600080fd5b84356001600160401b03808211156142bf57600080fd5b6142cb88838901613c25565b95506020870135945060408701359150808211156142e857600080fd5b506142f587828801613c25565b925050606085013561430681613d36565b939692955090935050565b61ffff8116811461216257600080fd5b60006020828403121561433357600080fd5b8135611d8381614311565b801515811461216257600080fd5b6000806040838503121561435f57600080fd5b823561436a81613d36565b91506020830135613d918161433e565b60008060008060008060008060006101208a8c03121561439957600080fd5b89356143a481613d36565b985060208a01356143b481613d36565b975060408a01356143c481613d36565b965060608a01356143d481613d36565b955060808a01356143e481613d36565b945060a08a01356143f481613d36565b935060c08a013561440481613d36565b925060e08a013591506101008a0135613f9681614311565b6000825161442e818460208701613fa7565b9190910192915050565b6020808252600a90820152695245454e5452414e435960b01b604082015260600190565b6bffffffffffffffffffffffff198360601b16815260008251614486816014850160208701613fa7565b919091016014019392505050565b600181811c908216806144a857607f821691505b6020821081036144c857634e487b7160e01b600052602260045260246000fd5b50919050565b601f821115610af457600081815260208120601f850160051c810160208610156144f55750805b601f850160051c820191505b81811015612ea657828155600101614501565b81516001600160401b0381111561452d5761452d613c0f565b6145418161453b8454614494565b846144ce565b602080601f831160018114614576576000841561455e5750858301515b600019600386901b1c1916600185901b178555612ea6565b600085815260208120601f198616915b828110156145a557888601518255948401946001909101908401614586565b50858210156145c35787850151600019600388901b60f8161c191681555b5050505050600190811b01905550565b60006101008083526145e78184018b613fcb565b9050828103602084015261460f8160078152666572633131353560c81b602082015260400190565b905060018060a01b03891660408401528760608401528660808401528560a08401528460c084015282810360e08401526146498185613fcb565b9a9950505050505050505050565b60e08152600061466a60e0830189613fcb565b82810360208401526146908160078152666572633131353560c81b602082015260400190565b6001600160a01b0398909816604084015250506060810194909452608084019290925260a083015260c090910152919050565b6000602082840312156146d557600080fd5b5051919050565b6000602082840312156146ee57600080fd5b8151611d8381614311565b60006020828403121561470b57600080fd5b8151611d8381613d36565b60006020828403121561472857600080fd5b8151611d838161433e565b634e487b7160e01b600052603260045260246000fd5b634e487b7160e01b600052601160045260246000fd5b60006001820161477157614771614749565b5060010190565b6040808252810184905260008560608301825b878110156147bb57823561479e81613d36565b6001600160a01b031682526020928301929091019060010161478b565b5083810360208501528481526001600160fb1b038511156147db57600080fd5b8460051b915081866020830137016020019695505050505050565b8082028115828204841417610ae157610ae1614749565b60006bffffffffffffffffffffffff19808660601b1683528451614838816014860160208901613fa7565b60609490941b169190920160148101919091526028019392505050565b80820180821115610ae157610ae1614749565b60608152600061487b6060830186613fcb565b6001600160a01b039490941660208301525060400152919050565b60c0815260006148a960c0830189613fcb565b6001600160a01b03978816602084015260408301969096525092909416606083015261ffff16608082015260a00191909152919050565b60006101008083526148f48184018b613fcb565b9050828103602084015261460f816005815264065726332360dc1b602082015260400190565b60e08152600061492d60e0830189613fcb565b8281036020840152614690816005815264065726332360dc1b602082015260400190565b600061014060018060a01b03808e1684528c60208501528b60408501528a60608501528960808501528160a085015261498c8285018a613fcb565b97811660c085015261ffff9690961660e084015250509190921661010082015264ffffffffff909116610120909101529695505050505050565b6020808252602b908201527f496e697469616c697a61626c653a20636f6e7472616374206973206e6f74206960408201526a6e697469616c697a696e6760a81b606082015260800190565b600082614a2e57634e487b7160e01b600052601260045260246000fd5b500490565b81810381811115610ae157610ae1614749565b7f416363657373436f6e74726f6c3a206163636f756e7420000000000000000000815260008351614a7e816017850160208801613fa7565b7001034b99036b4b9b9b4b733903937b6329607d1b6017918401918201528351614aaf816028840160208801613fa7565b01602801949350505050565b602081526000611d836020830184613fcb565b60008060408385031215614ae157600080fd5b8251614aec81614311565b6020840151909250613d9181614311565b600081614b0c57614b0c614749565b50600019019056fea2646970667358221220289fd0895957ebfaf31fe045005af20bb5d082fbac4b2c6814bf113a79aa59ae64736f6c63430008130033",
    "linkReferences": {}
  },
  "methodIdentifiers": {
    "DEFAULT_ADMIN_ROLE()": "a217fddf",
    "claim(string,bytes32,bytes,address)": "b6c22d6b",
    "claim1155Rewards(string,bytes32,bytes)": "5f12f74d",
    "claimRewards(string,bytes32,bytes)": "14b12e76",
    "claimSignerAddress()": "0b6fc163",
    "create1155QuestAndQueue(address,uint256,uint256,uint256,uint256,string,string)": "70dfd40a",
    "createQuest(address,uint256,uint256,uint256,uint256,string,string)": "43f8bc6f",
    "createQuestAndQueue(address,uint256,uint256,uint256,uint256,string,string,uint256)": "81589b1f",
    "createSablierQuest(address,uint256,uint256,uint256,uint256,string,string,uint256,uint40)": "44b0c519",
    "erc1155QuestAddress()": "d4faaa17",
    "erc20QuestAddress()": "a1db1ba4",
    "getAddressMinted(string,address)": "27b0655f",
    "getMintFeeRecipient()": "751eaf77",
    "getNftQuestFee(address)": "7fceecd6",
    "getNumberMinted(string)": "43ff27d1",
    "getRoleAdmin(bytes32)": "248a9ca3",
    "grantRole(bytes32,address)": "2f2ff15d",
    "hasRole(bytes32,address)": "91d14854",
    "initialize(address,address,address,address,address,address,address,uint256,uint16)": "f6cf3d57",
    "mintFee()": "13966db5",
    "mintFeeRecipient()": "765b0c36",
    "mintReceipt(string,bytes32,bytes)": "76319ee0",
    "nftQuestFee()": "9b86630d",
    "nftQuestFeeList(address)": "7afc4469",
    "owner()": "8da5cb5b",
    "ownerCollections(address,uint256)": "39b5f830",
    "protocolFeeRecipient()": "64df049e",
    "questData(string)": "7f7c0ef7",
    "questFee()": "67dfa3e7",
    "questInfo(string)": "ec461ac4",
    "questNFTAddress()": "994f3bd2",
    "quests(string)": "7e4176e3",
    "rabbitHoleReceiptContract()": "3ef17b17",
    "rabbitHoleTicketsContract()": "78077f8d",
    "recoverSigner(bytes32,bytes)": "97aba7f9",
    "referralFee()": "84ae2bc6",
    "renounceOwnership()": "715018a6",
    "renounceRole(bytes32,address)": "36568abe",
    "revokeRole(bytes32,address)": "d547741f",
    "rewardAllowlist(address)": "695ef19f",
    "setClaimSignerAddress(address)": "b4cbdd8b",
    "setErc1155QuestAddress(address)": "f8565efd",
    "setErc20QuestAddress(address)": "7c93f9ee",
    "setMintFee(uint256)": "eddd0d9c",
    "setMintFeeRecipient(address)": "3788fb6a",
    "setNftQuestFee(uint256)": "f18cb784",
    "setNftQuestFeeList(address[],uint256[])": "87c4d47d",
    "setProtocolFeeRecipient(address)": "e521cb92",
    "setQuestFee(uint16)": "e1bc3aba",
    "setQuestTerminalKeyContract(address)": "f27e757b",
    "setRabbitHoleReceiptContract(address)": "61ab146b",
    "setReferralFee(uint16)": "c42fe718",
    "setRewardAllowlistAddress(address,bool)": "d693e8d3",
    "supportsInterface(bytes4)": "01ffc9a7",
    "totalQuestNFTFee(uint256)": "c476dbcc",
    "transferOwnership(address)": "f2fde38b"
  },
  "id": 3
}