{
  "_format": "hh-sol-artifact-1",
  "contractName": "MerkleDistributor",
  "sourceName": "contracts/MerkleDistributor.sol",
  "abi": [
    {
      "inputs": [
        {
          "internalType": "address",
          "name": "token_",
          "type": "address"
        }
      ],
      "stateMutability": "nonpayable",
      "type": "constructor"
    },
    {
      "inputs": [],
      "name": "AlreadyClaimed",
      "type": "error"
    },
    {
      "inputs": [],
      "name": "InvalidProof",
      "type": "error"
    },
    {
      "anonymous": false,
      "inputs": [
        {
          "indexed": false,
          "internalType": "uint256",
          "name": "index",
          "type": "uint256"
        },
        {
          "indexed": false,
          "internalType": "address",
          "name": "account",
          "type": "address"
        },
        {
          "indexed": false,
          "internalType": "uint256",
          "name": "amount",
          "type": "uint256"
        }
      ],
      "name": "Claimed",
      "type": "event"
    },
    {
      "anonymous": false,
      "inputs": [
        {
          "indexed": false,
          "internalType": "uint8",
          "name": "version",
          "type": "uint8"
        }
      ],
      "name": "Initialized",
      "type": "event"
    },
    {
      "anonymous": false,
      "inputs": [
        {
          "indexed": true,
          "internalType": "address",
          "name": "previousOwner",
          "type": "address"
        },
        {
          "indexed": true,
          "internalType": "address",
          "name": "newOwner",
          "type": "address"
        }
      ],
      "name": "OwnershipTransferred",
      "type": "event"
    },
    {
      "inputs": [
        {
          "internalType": "uint256",
          "name": "index",
          "type": "uint256"
        },
        {
          "internalType": "address",
          "name": "account",
          "type": "address"
        },
        {
          "internalType": "uint256",
          "name": "amount",
          "type": "uint256"
        },
        {
          "internalType": "bytes32[]",
          "name": "merkleProof",
          "type": "bytes32[]"
        }
      ],
      "name": "claim",
      "outputs": [],
      "stateMutability": "nonpayable",
      "type": "function"
    },
    {
      "inputs": [
        {
          "internalType": "uint256",
          "name": "index",
          "type": "uint256"
        }
      ],
      "name": "isClaimed",
      "outputs": [
        {
          "internalType": "bool",
          "name": "",
          "type": "bool"
        }
      ],
      "stateMutability": "view",
      "type": "function"
    },
    {
      "inputs": [],
      "name": "merkleRoot",
      "outputs": [
        {
          "internalType": "bytes32",
          "name": "",
          "type": "bytes32"
        }
      ],
      "stateMutability": "view",
      "type": "function"
    },
    {
      "inputs": [],
      "name": "owner",
      "outputs": [
        {
          "internalType": "address",
          "name": "",
          "type": "address"
        }
      ],
      "stateMutability": "view",
      "type": "function"
    },
    {
      "inputs": [],
      "name": "renounceOwnership",
      "outputs": [],
      "stateMutability": "nonpayable",
      "type": "function"
    },
    {
      "inputs": [
        {
          "internalType": "bytes32",
          "name": "merkleRoot_",
          "type": "bytes32"
        }
      ],
      "name": "setMerkleRoot",
      "outputs": [],
      "stateMutability": "nonpayable",
      "type": "function"
    },
    {
      "inputs": [],
      "name": "token",
      "outputs": [
        {
          "internalType": "address",
          "name": "",
          "type": "address"
        }
      ],
      "stateMutability": "view",
      "type": "function"
    },
    {
      "inputs": [
        {
          "internalType": "address",
          "name": "newOwner",
          "type": "address"
        }
      ],
      "name": "transferOwnership",
      "outputs": [],
      "stateMutability": "nonpayable",
      "type": "function"
    }
  ],
  "bytecode": "0x60a060405234801561001057600080fd5b50604051610cd0380380610cd083398101604081905261002f91610099565b61003833610049565b6001600160a01b03166080526100c9565b600080546001600160a01b038381166001600160a01b0319831681178455604051919092169283917f8be0079c531659141344cd1fd0a4f28419497f9722a3daafe3b4186f6b6457e09190a35050565b6000602082840312156100ab57600080fd5b81516001600160a01b03811681146100c257600080fd5b9392505050565b608051610be56100eb6000396000818161015301526102ad0152610be56000f3fe608060405234801561001057600080fd5b50600436106100885760003560e01c80638da5cb5b1161005b5780638da5cb5b146100d95780639e34070f14610118578063f2fde38b1461013b578063fc0c546a1461014e57600080fd5b80632e7ba6ef1461008d5780632eb4a7ab146100a2578063715018a6146100be5780637cb64759146100c6575b600080fd5b6100a061009b366004610940565b610175565b005b6100ab60015481565b6040519081526020015b60405180910390f35b6100a0610332565b6100a06100d43660046109d7565b610346565b60005473ffffffffffffffffffffffffffffffffffffffff165b60405173ffffffffffffffffffffffffffffffffffffffff90911681526020016100b5565b61012b6101263660046109d7565b610353565b60405190151581526020016100b5565b6100a06101493660046109f0565b610394565b6100f37f000000000000000000000000000000000000000000000000000000000000000081565b61017e85610353565b156101b5576040517f646cf55800000000000000000000000000000000000000000000000000000000815260040160405180910390fd5b60408051602081018790527fffffffffffffffffffffffffffffffffffffffff000000000000000000000000606087901b169181019190915260548101849052600090607401604051602081830303815290604052805190602001209050610254838380806020026020016040519081016040528093929190818152602001838360200280828437600092019190915250506001549150849050610436565b61028a576040517f09bde33900000000000000000000000000000000000000000000000000000000815260040160405180910390fd5b6102938661044e565b6102d473ffffffffffffffffffffffffffffffffffffffff7f000000000000000000000000000000000000000000000000000000000000000016868661048c565b6040805187815273ffffffffffffffffffffffffffffffffffffffff871660208201529081018590527f4ec90e965519d92681267467f775ada5bd214aa92c0dc93d90a5e880ce9ed0269060600160405180910390a1505050505050565b61033a61051e565b6103446000610585565b565b61034e61051e565b600155565b60008061036261010084610a3a565b9050600061037261010085610a4e565b60009283526002602052604090922054600190921b9182169091149392505050565b61039c61051e565b73ffffffffffffffffffffffffffffffffffffffff811661042a5760405162461bcd60e51b815260206004820152602660248201527f4f776e61626c653a206e6577206f776e657220697320746865207a65726f206160448201527f646472657373000000000000000000000000000000000000000000000000000060648201526084015b60405180910390fd5b61043381610585565b50565b60008261044385846105fa565b1490505b9392505050565b600061045c61010083610a3a565b9050600061046c61010084610a4e565b6000928352600260205260409092208054600190931b9092179091555050565b6040805173ffffffffffffffffffffffffffffffffffffffff8416602482015260448082018490528251808303909101815260649091019091526020810180517bffffffffffffffffffffffffffffffffffffffffffffffffffffffff167fa9059cbb00000000000000000000000000000000000000000000000000000000179052610519908490610647565b505050565b60005473ffffffffffffffffffffffffffffffffffffffff1633146103445760405162461bcd60e51b815260206004820181905260248201527f4f776e61626c653a2063616c6c6572206973206e6f7420746865206f776e65726044820152606401610421565b6000805473ffffffffffffffffffffffffffffffffffffffff8381167fffffffffffffffffffffffff0000000000000000000000000000000000000000831681178455604051919092169283917f8be0079c531659141344cd1fd0a4f28419497f9722a3daafe3b4186f6b6457e09190a35050565b600081815b845181101561063f5761062b8286838151811061061e5761061e610a62565b6020026020010151610739565b91508061063781610a91565b9150506105ff565b509392505050565b60006106a9826040518060400160405280602081526020017f5361666545524332303a206c6f772d6c6576656c2063616c6c206661696c65648152508573ffffffffffffffffffffffffffffffffffffffff166107659092919063ffffffff16565b80519091501561051957808060200190518101906106c79190610af0565b6105195760405162461bcd60e51b815260206004820152602a60248201527f5361666545524332303a204552433230206f7065726174696f6e20646964206e60448201527f6f742073756363656564000000000000000000000000000000000000000000006064820152608401610421565b6000818310610755576000828152602084905260409020610447565b5060009182526020526040902090565b6060610774848460008561077c565b949350505050565b6060824710156107f45760405162461bcd60e51b815260206004820152602660248201527f416464726573733a20696e73756666696369656e742062616c616e636520666f60448201527f722063616c6c00000000000000000000000000000000000000000000000000006064820152608401610421565b73ffffffffffffffffffffffffffffffffffffffff85163b6108585760405162461bcd60e51b815260206004820152601d60248201527f416464726573733a2063616c6c20746f206e6f6e2d636f6e74726163740000006044820152606401610421565b6000808673ffffffffffffffffffffffffffffffffffffffff1685876040516108819190610b42565b60006040518083038185875af1925050503d80600081146108be576040519150601f19603f3d011682016040523d82523d6000602084013e6108c3565b606091505b50915091506108d38282866108de565b979650505050505050565b606083156108ed575081610447565b8251156108fd5782518084602001fd5b8160405162461bcd60e51b81526004016104219190610b5e565b803573ffffffffffffffffffffffffffffffffffffffff8116811461093b57600080fd5b919050565b60008060008060006080868803121561095857600080fd5b8535945061096860208701610917565b935060408601359250606086013567ffffffffffffffff8082111561098c57600080fd5b818801915088601f8301126109a057600080fd5b8135818111156109af57600080fd5b8960208260051b85010111156109c457600080fd5b9699959850939650602001949392505050565b6000602082840312156109e957600080fd5b5035919050565b600060208284031215610a0257600080fd5b61044782610917565b7f4e487b7100000000000000000000000000000000000000000000000000000000600052601260045260246000fd5b600082610a4957610a49610a0b565b500490565b600082610a5d57610a5d610a0b565b500690565b7f4e487b7100000000000000000000000000000000000000000000000000000000600052603260045260246000fd5b60007fffffffffffffffffffffffffffffffffffffffffffffffffffffffffffffffff8203610ae9577f4e487b7100000000000000000000000000000000000000000000000000000000600052601160045260246000fd5b5060010190565b600060208284031215610b0257600080fd5b8151801515811461044757600080fd5b60005b83811015610b2d578181015183820152602001610b15565b83811115610b3c576000848401525b50505050565b60008251610b54818460208701610b12565b9190910192915050565b6020815260008251806020840152610b7d816040850160208701610b12565b601f017fffffffffffffffffffffffffffffffffffffffffffffffffffffffffffffffe016919091016040019291505056fea26469706673582212201a28e700275372ca23153c2996445ab8999cf2dabae13c285cb117b0064d7e0964736f6c634300080f0033",
  "linkReferences": {},
  "deployedLinkReferences": {}
}