{
  "_format": "hh-sol-artifact-1",
  "contractName": "MerkleDistributor",
  "sourceName": "contracts/MerkleDistributor.sol",
  "abi": [
    {
      "inputs": [
        {
          "internalType": "address",
          "name": "token_",
          "type": "address"
        }
      ],
      "stateMutability": "nonpayable",
      "type": "constructor"
    },
    {
      "inputs": [],
      "name": "AlreadyClaimed",
      "type": "error"
    },
    {
      "inputs": [],
      "name": "InvalidProof",
      "type": "error"
    },
    {
      "anonymous": false,
      "inputs": [
        {
          "indexed": false,
          "internalType": "uint256",
          "name": "index",
          "type": "uint256"
        },
        {
          "indexed": false,
          "internalType": "address",
          "name": "account",
          "type": "address"
        },
        {
          "indexed": false,
          "internalType": "uint256",
          "name": "amount",
          "type": "uint256"
        }
      ],
      "name": "Claimed",
      "type": "event"
    },
    {
      "anonymous": false,
      "inputs": [
        {
          "indexed": false,
          "internalType": "uint8",
          "name": "version",
          "type": "uint8"
        }
      ],
      "name": "Initialized",
      "type": "event"
    },
    {
      "anonymous": false,
      "inputs": [
        {
          "indexed": true,
          "internalType": "address",
          "name": "previousOwner",
          "type": "address"
        },
        {
          "indexed": true,
          "internalType": "address",
          "name": "newOwner",
          "type": "address"
        }
      ],
      "name": "OwnershipTransferred",
      "type": "event"
    },
    {
      "inputs": [
        {
          "internalType": "uint256",
          "name": "index",
          "type": "uint256"
        },
        {
          "internalType": "address",
          "name": "account",
          "type": "address"
        },
        {
          "internalType": "uint256",
          "name": "amount",
          "type": "uint256"
        },
        {
          "internalType": "bytes32[]",
          "name": "merkleProof",
          "type": "bytes32[]"
        }
      ],
      "name": "claim",
      "outputs": [],
      "stateMutability": "nonpayable",
      "type": "function"
    },
    {
      "inputs": [
        {
          "internalType": "address",
          "name": "account",
          "type": "address"
        }
      ],
      "name": "isClaimed",
      "outputs": [
        {
          "internalType": "bool",
          "name": "",
          "type": "bool"
        }
      ],
      "stateMutability": "view",
      "type": "function"
    },
    {
      "inputs": [],
      "name": "merkleRoot",
      "outputs": [
        {
          "internalType": "bytes32",
          "name": "",
          "type": "bytes32"
        }
      ],
      "stateMutability": "view",
      "type": "function"
    },
    {
      "inputs": [],
      "name": "owner",
      "outputs": [
        {
          "internalType": "address",
          "name": "",
          "type": "address"
        }
      ],
      "stateMutability": "view",
      "type": "function"
    },
    {
      "inputs": [],
      "name": "renounceOwnership",
      "outputs": [],
      "stateMutability": "nonpayable",
      "type": "function"
    },
    {
      "inputs": [
        {
          "internalType": "bytes32",
          "name": "merkleRoot_",
          "type": "bytes32"
        }
      ],
      "name": "setMerkleRoot",
      "outputs": [],
      "stateMutability": "nonpayable",
      "type": "function"
    },
    {
      "inputs": [],
      "name": "token",
      "outputs": [
        {
          "internalType": "address",
          "name": "",
          "type": "address"
        }
      ],
      "stateMutability": "view",
      "type": "function"
    },
    {
      "inputs": [
        {
          "internalType": "address",
          "name": "newOwner",
          "type": "address"
        }
      ],
      "name": "transferOwnership",
      "outputs": [],
      "stateMutability": "nonpayable",
      "type": "function"
    }
  ],
  "bytecode": "0x60a060405234801561001057600080fd5b50604051610ca9380380610ca983398101604081905261002f91610099565b61003833610049565b6001600160a01b03166080526100c9565b600080546001600160a01b038381166001600160a01b0319831681178455604051919092169283917f8be0079c531659141344cd1fd0a4f28419497f9722a3daafe3b4186f6b6457e09190a35050565b6000602082840312156100ab57600080fd5b81516001600160a01b03811681146100c257600080fd5b9392505050565b608051610bbe6100eb6000396000818161015301526102f70152610bbe6000f3fe608060405234801561001057600080fd5b50600436106100885760003560e01c80638cc080251161005b5780638cc08025146100d95780638da5cb5b146100fc578063f2fde38b1461013b578063fc0c546a1461014e57600080fd5b80632e7ba6ef1461008d5780632eb4a7ab146100a2578063715018a6146100be5780637cb64759146100c6575b600080fd5b6100a061009b366004610970565b610175565b005b6100ab60015481565b6040519081526020015b60405180910390f35b6100a061037c565b6100a06100d4366004610a07565b610390565b6100ec6100e7366004610a20565b61039d565b60405190151581526020016100b5565b60005473ffffffffffffffffffffffffffffffffffffffff165b60405173ffffffffffffffffffffffffffffffffffffffff90911681526020016100b5565b6100a0610149366004610a20565b610402565b6101167f000000000000000000000000000000000000000000000000000000000000000081565b61017e8461039d565b156101b5576040517f646cf55800000000000000000000000000000000000000000000000000000000815260040160405180910390fd5b60408051602081018790527fffffffffffffffffffffffffffffffffffffffff000000000000000000000000606087901b1691810191909152605481018490526000906074016040516020818303038152906040528051906020012090506102548383808060200260200160405190810160405280939291908181526020018383602002808284376000920191909152505060015491508490506104a4565b61028a576040517f09bde33900000000000000000000000000000000000000000000000000000000815260040160405180910390fd5b6102dd8573ffffffffffffffffffffffffffffffffffffffff16600090815260026020526040902080547fffffffffffffffffffffffffffffffffffffffffffffffffffffffffffffff00166001179055565b61031e73ffffffffffffffffffffffffffffffffffffffff7f00000000000000000000000000000000000000000000000000000000000000001686866104bc565b6040805187815273ffffffffffffffffffffffffffffffffffffffff871660208201529081018590527f4ec90e965519d92681267467f775ada5bd214aa92c0dc93d90a5e880ce9ed0269060600160405180910390a1505050505050565b61038461054e565b61038e60006105b5565b565b61039861054e565b600155565b73ffffffffffffffffffffffffffffffffffffffff811660009081526002602052604081205460ff1680156103fc575073ffffffffffffffffffffffffffffffffffffffff821660009081526002602052604090205460ff1615156001145b92915050565b61040a61054e565b73ffffffffffffffffffffffffffffffffffffffff81166104985760405162461bcd60e51b815260206004820152602660248201527f4f776e61626c653a206e6577206f776e657220697320746865207a65726f206160448201527f646472657373000000000000000000000000000000000000000000000000000060648201526084015b60405180910390fd5b6104a1816105b5565b50565b6000826104b1858461062a565b1490505b9392505050565b6040805173ffffffffffffffffffffffffffffffffffffffff8416602482015260448082018490528251808303909101815260649091019091526020810180517bffffffffffffffffffffffffffffffffffffffffffffffffffffffff167fa9059cbb00000000000000000000000000000000000000000000000000000000179052610549908490610677565b505050565b60005473ffffffffffffffffffffffffffffffffffffffff16331461038e5760405162461bcd60e51b815260206004820181905260248201527f4f776e61626c653a2063616c6c6572206973206e6f7420746865206f776e6572604482015260640161048f565b6000805473ffffffffffffffffffffffffffffffffffffffff8381167fffffffffffffffffffffffff0000000000000000000000000000000000000000831681178455604051919092169283917f8be0079c531659141344cd1fd0a4f28419497f9722a3daafe3b4186f6b6457e09190a35050565b600081815b845181101561066f5761065b8286838151811061064e5761064e610a3b565b6020026020010151610769565b91508061066781610a6a565b91505061062f565b509392505050565b60006106d9826040518060400160405280602081526020017f5361666545524332303a206c6f772d6c6576656c2063616c6c206661696c65648152508573ffffffffffffffffffffffffffffffffffffffff166107959092919063ffffffff16565b80519091501561054957808060200190518101906106f79190610ac9565b6105495760405162461bcd60e51b815260206004820152602a60248201527f5361666545524332303a204552433230206f7065726174696f6e20646964206e60448201527f6f74207375636365656400000000000000000000000000000000000000000000606482015260840161048f565b60008183106107855760008281526020849052604090206104b5565b5060009182526020526040902090565b60606107a484846000856107ac565b949350505050565b6060824710156108245760405162461bcd60e51b815260206004820152602660248201527f416464726573733a20696e73756666696369656e742062616c616e636520666f60448201527f722063616c6c0000000000000000000000000000000000000000000000000000606482015260840161048f565b73ffffffffffffffffffffffffffffffffffffffff85163b6108885760405162461bcd60e51b815260206004820152601d60248201527f416464726573733a2063616c6c20746f206e6f6e2d636f6e7472616374000000604482015260640161048f565b6000808673ffffffffffffffffffffffffffffffffffffffff1685876040516108b19190610b1b565b60006040518083038185875af1925050503d80600081146108ee576040519150601f19603f3d011682016040523d82523d6000602084013e6108f3565b606091505b509150915061090382828661090e565b979650505050505050565b6060831561091d5750816104b5565b82511561092d5782518084602001fd5b8160405162461bcd60e51b815260040161048f9190610b37565b803573ffffffffffffffffffffffffffffffffffffffff8116811461096b57600080fd5b919050565b60008060008060006080868803121561098857600080fd5b8535945061099860208701610947565b935060408601359250606086013567ffffffffffffffff808211156109bc57600080fd5b818801915088601f8301126109d057600080fd5b8135818111156109df57600080fd5b8960208260051b85010111156109f457600080fd5b9699959850939650602001949392505050565b600060208284031215610a1957600080fd5b5035919050565b600060208284031215610a3257600080fd5b6104b582610947565b7f4e487b7100000000000000000000000000000000000000000000000000000000600052603260045260246000fd5b60007fffffffffffffffffffffffffffffffffffffffffffffffffffffffffffffffff8203610ac2577f4e487b7100000000000000000000000000000000000000000000000000000000600052601160045260246000fd5b5060010190565b600060208284031215610adb57600080fd5b815180151581146104b557600080fd5b60005b83811015610b06578181015183820152602001610aee565b83811115610b15576000848401525b50505050565b60008251610b2d818460208701610aeb565b9190910192915050565b6020815260008251806020840152610b56816040850160208701610aeb565b601f017fffffffffffffffffffffffffffffffffffffffffffffffffffffffffffffffe016919091016040019291505056fea2646970667358221220a39b4efdc6b7b3f0b8955ad864ec35afd8b84441ecf4917168ab7d912bd3ad0964736f6c634300080f0033",
  "linkReferences": {},
  "deployedLinkReferences": {}
}