{
  "abi": [
    {
      "inputs": [],
      "stateMutability": "nonpayable",
      "type": "constructor"
    },
    {
      "inputs": [],
      "name": "AlreadyWithdrawn",
      "type": "error"
    },
    {
      "inputs": [],
      "name": "EndTimeInPast",
      "type": "error"
    },
    {
      "inputs": [],
      "name": "EndTimeLessThanOrEqualToStartTime",
      "type": "error"
    },
    {
      "inputs": [],
      "name": "InsufficientETHBalance",
      "type": "error"
    },
    {
      "inputs": [],
      "name": "InsufficientTokenBalance",
      "type": "error"
    },
    {
      "inputs": [],
      "name": "NewOwnerIsZeroAddress",
      "type": "error"
    },
    {
      "inputs": [],
      "name": "NoHandoverRequest",
      "type": "error"
    },
    {
      "inputs": [],
      "name": "NotEnded",
      "type": "error"
    },
    {
      "inputs": [],
      "name": "NotQuestFactory",
      "type": "error"
    },
    {
      "inputs": [],
      "name": "NotQueued",
      "type": "error"
    },
    {
      "inputs": [],
      "name": "NotStarted",
      "type": "error"
    },
    {
      "inputs": [],
      "name": "QuestEnded",
      "type": "error"
    },
    {
      "inputs": [],
      "name": "Unauthorized",
      "type": "error"
    },
    {
      "anonymous": false,
      "inputs": [
        {
          "indexed": true,
          "internalType": "address",
          "name": "account",
          "type": "address"
        },
        {
          "indexed": false,
          "internalType": "address",
          "name": "rewardAddress",
          "type": "address"
        },
        {
          "indexed": false,
          "internalType": "uint256",
          "name": "amount",
          "type": "uint256"
        }
      ],
      "name": "ClaimedSingle",
      "type": "event"
    },
    {
      "anonymous": false,
      "inputs": [
        {
          "indexed": false,
          "internalType": "uint8",
          "name": "version",
          "type": "uint8"
        }
      ],
      "name": "Initialized",
      "type": "event"
    },
    {
      "anonymous": false,
      "inputs": [
        {
          "indexed": true,
          "internalType": "address",
          "name": "pendingOwner",
          "type": "address"
        }
      ],
      "name": "OwnershipHandoverCanceled",
      "type": "event"
    },
    {
      "anonymous": false,
      "inputs": [
        {
          "indexed": true,
          "internalType": "address",
          "name": "pendingOwner",
          "type": "address"
        }
      ],
      "name": "OwnershipHandoverRequested",
      "type": "event"
    },
    {
      "anonymous": false,
      "inputs": [
        {
          "indexed": true,
          "internalType": "address",
          "name": "oldOwner",
          "type": "address"
        },
        {
          "indexed": true,
          "internalType": "address",
          "name": "newOwner",
          "type": "address"
        }
      ],
      "name": "OwnershipTransferred",
      "type": "event"
    },
    {
      "anonymous": false,
      "inputs": [
        {
          "indexed": false,
          "internalType": "address",
          "name": "account",
          "type": "address"
        }
      ],
      "name": "Paused",
      "type": "event"
    },
    {
      "anonymous": false,
      "inputs": [
        {
          "indexed": false,
          "internalType": "uint256",
          "name": "timestamp",
          "type": "uint256"
        }
      ],
      "name": "Queued",
      "type": "event"
    },
    {
      "anonymous": false,
      "inputs": [
        {
          "indexed": false,
          "internalType": "address",
          "name": "account",
          "type": "address"
        }
      ],
      "name": "Unpaused",
      "type": "event"
    },
    {
      "stateMutability": "payable",
      "type": "fallback"
    },
    {
      "inputs": [],
      "name": "cancelOwnershipHandover",
      "outputs": [],
      "stateMutability": "payable",
      "type": "function"
    },
    {
      "inputs": [
        {
          "internalType": "address",
          "name": "pendingOwner",
          "type": "address"
        }
      ],
      "name": "completeOwnershipHandover",
      "outputs": [],
      "stateMutability": "payable",
      "type": "function"
    },
    {
      "inputs": [],
      "name": "endTime",
      "outputs": [
        {
          "internalType": "uint256",
          "name": "",
          "type": "uint256"
        }
      ],
      "stateMutability": "view",
      "type": "function"
    },
    {
      "inputs": [],
      "name": "hasWithdrawn",
      "outputs": [
        {
          "internalType": "bool",
          "name": "",
          "type": "bool"
        }
      ],
      "stateMutability": "view",
      "type": "function"
    },
    {
      "inputs": [
        {
          "internalType": "address",
          "name": "rewardTokenAddress_",
          "type": "address"
        },
        {
          "internalType": "uint256",
          "name": "endTime_",
          "type": "uint256"
        },
        {
          "internalType": "uint256",
          "name": "startTime_",
          "type": "uint256"
        },
        {
          "internalType": "uint256",
          "name": "totalParticipants_",
          "type": "uint256"
        },
        {
          "internalType": "uint256",
          "name": "tokenId_",
          "type": "uint256"
        },
        {
          "internalType": "uint256",
          "name": "questFee_",
          "type": "uint256"
        },
        {
          "internalType": "address",
          "name": "protocolFeeRecipient_",
          "type": "address"
        }
      ],
      "name": "initialize",
      "outputs": [],
      "stateMutability": "nonpayable",
      "type": "function"
    },
    {
      "inputs": [],
      "name": "maxProtocolReward",
      "outputs": [
        {
          "internalType": "uint256",
          "name": "",
          "type": "uint256"
        }
      ],
      "stateMutability": "view",
      "type": "function"
    },
    {
      "inputs": [
        {
          "internalType": "address",
          "name": "",
          "type": "address"
        },
        {
          "internalType": "address",
          "name": "",
          "type": "address"
        },
        {
          "internalType": "uint256[]",
          "name": "",
          "type": "uint256[]"
        },
        {
          "internalType": "uint256[]",
          "name": "",
          "type": "uint256[]"
        },
        {
          "internalType": "bytes",
          "name": "",
          "type": "bytes"
        }
      ],
      "name": "onERC1155BatchReceived",
      "outputs": [
        {
          "internalType": "bytes4",
          "name": "",
          "type": "bytes4"
        }
      ],
      "stateMutability": "nonpayable",
      "type": "function"
    },
    {
      "inputs": [
        {
          "internalType": "address",
          "name": "",
          "type": "address"
        },
        {
          "internalType": "address",
          "name": "",
          "type": "address"
        },
        {
          "internalType": "uint256",
          "name": "",
          "type": "uint256"
        },
        {
          "internalType": "uint256",
          "name": "",
          "type": "uint256"
        },
        {
          "internalType": "bytes",
          "name": "",
          "type": "bytes"
        }
      ],
      "name": "onERC1155Received",
      "outputs": [
        {
          "internalType": "bytes4",
          "name": "",
          "type": "bytes4"
        }
      ],
      "stateMutability": "nonpayable",
      "type": "function"
    },
    {
      "inputs": [],
      "name": "owner",
      "outputs": [
        {
          "internalType": "address",
          "name": "result",
          "type": "address"
        }
      ],
      "stateMutability": "view",
      "type": "function"
    },
    {
      "inputs": [
        {
          "internalType": "address",
          "name": "pendingOwner",
          "type": "address"
        }
      ],
      "name": "ownershipHandoverExpiresAt",
      "outputs": [
        {
          "internalType": "uint256",
          "name": "result",
          "type": "uint256"
        }
      ],
      "stateMutability": "view",
      "type": "function"
    },
    {
      "inputs": [],
      "name": "ownershipHandoverValidFor",
      "outputs": [
        {
          "internalType": "uint64",
          "name": "",
          "type": "uint64"
        }
      ],
      "stateMutability": "view",
      "type": "function"
    },
    {
      "inputs": [],
      "name": "pause",
      "outputs": [],
      "stateMutability": "nonpayable",
      "type": "function"
    },
    {
      "inputs": [],
      "name": "paused",
      "outputs": [
        {
          "internalType": "bool",
          "name": "",
          "type": "bool"
        }
      ],
      "stateMutability": "view",
      "type": "function"
    },
    {
      "inputs": [],
      "name": "protocolFeeRecipient",
      "outputs": [
        {
          "internalType": "address",
          "name": "",
          "type": "address"
        }
      ],
      "stateMutability": "view",
      "type": "function"
    },
    {
      "inputs": [],
      "name": "questFactoryContract",
      "outputs": [
        {
          "internalType": "contract QuestFactory",
          "name": "",
          "type": "address"
        }
      ],
      "stateMutability": "view",
      "type": "function"
    },
    {
      "inputs": [],
      "name": "questFee",
      "outputs": [
        {
          "internalType": "uint256",
          "name": "",
          "type": "uint256"
        }
      ],
      "stateMutability": "view",
      "type": "function"
    },
    {
      "inputs": [],
      "name": "queue",
      "outputs": [],
      "stateMutability": "nonpayable",
      "type": "function"
    },
    {
      "inputs": [],
      "name": "queued",
      "outputs": [
        {
          "internalType": "bool",
          "name": "",
          "type": "bool"
        }
      ],
      "stateMutability": "view",
      "type": "function"
    },
    {
      "inputs": [],
      "name": "redeemedTokens",
      "outputs": [
        {
          "internalType": "uint256",
          "name": "",
          "type": "uint256"
        }
      ],
      "stateMutability": "view",
      "type": "function"
    },
    {
      "inputs": [],
      "name": "renounceOwnership",
      "outputs": [],
      "stateMutability": "payable",
      "type": "function"
    },
    {
      "inputs": [],
      "name": "requestOwnershipHandover",
      "outputs": [],
      "stateMutability": "payable",
      "type": "function"
    },
    {
      "inputs": [],
      "name": "rewardToken",
      "outputs": [
        {
          "internalType": "address",
          "name": "",
          "type": "address"
        }
      ],
      "stateMutability": "view",
      "type": "function"
    },
    {
      "inputs": [
        {
          "internalType": "address",
          "name": "account_",
          "type": "address"
        }
      ],
      "name": "singleClaim",
      "outputs": [],
      "stateMutability": "nonpayable",
      "type": "function"
    },
    {
      "inputs": [],
      "name": "startTime",
      "outputs": [
        {
          "internalType": "uint256",
          "name": "",
          "type": "uint256"
        }
      ],
      "stateMutability": "view",
      "type": "function"
    },
    {
      "inputs": [
        {
          "internalType": "bytes4",
          "name": "interfaceId",
          "type": "bytes4"
        }
      ],
      "name": "supportsInterface",
      "outputs": [
        {
          "internalType": "bool",
          "name": "",
          "type": "bool"
        }
      ],
      "stateMutability": "view",
      "type": "function"
    },
    {
      "inputs": [],
      "name": "tokenId",
      "outputs": [
        {
          "internalType": "uint256",
          "name": "",
          "type": "uint256"
        }
      ],
      "stateMutability": "view",
      "type": "function"
    },
    {
      "inputs": [],
      "name": "totalParticipants",
      "outputs": [
        {
          "internalType": "uint256",
          "name": "",
          "type": "uint256"
        }
      ],
      "stateMutability": "view",
      "type": "function"
    },
    {
      "inputs": [
        {
          "internalType": "address",
          "name": "newOwner",
          "type": "address"
        }
      ],
      "name": "transferOwnership",
      "outputs": [],
      "stateMutability": "payable",
      "type": "function"
    },
    {
      "inputs": [],
      "name": "unPause",
      "outputs": [],
      "stateMutability": "nonpayable",
      "type": "function"
    },
    {
      "inputs": [],
      "name": "withdrawRemainingTokens",
      "outputs": [],
      "stateMutability": "nonpayable",
      "type": "function"
    },
    {
      "stateMutability": "payable",
      "type": "receive"
    }
  ],
  "bytecode": {
    "object": "0x608060405234801561001057600080fd5b5061001961001e565b6100de565b600054610100900460ff161561008a5760405162461bcd60e51b815260206004820152602760248201527f496e697469616c697a61626c653a20636f6e747261637420697320696e697469604482015266616c697a696e6760c81b606482015260840160405180910390fd5b60005460ff90811610156100dc576000805460ff191660ff9081179091556040519081527f7f26b83ff96e1f2b6a682f133852f6798a09c465da95921460cefb38474024989060200160405180910390a15b565b6113fa806100ed6000396000f3fe6080604052600436106101b95760003560e01c80638456cb59116100eb578063e10d29ee1161008f578063f4c17a6b11610061578063f4c17a6b146104a0578063f7b188a5146104b5578063f7c618c1146104ca578063fee81cf4146104ea57005b8063e10d29ee14610439578063f04e283e1461044e578063f23a6e6114610461578063f2fde38b1461048d57005b8063a26dbf26116100c8578063a26dbf26146103aa578063bc197c81146103c0578063d7533f0214610405578063d86b87391461042357005b80638456cb59146103675780638afbf6691461037c5780638da5cb5b1461039157005b80635c975abb1161015d578063715018a61161012f578063715018a6146103095780637282a4aa1461031157806378e97925146103315780637b16e4291461034757005b80635c975abb1461028257806364df049e1461029a57806367dfa3e7146102d25780636cb4e611146102e857005b80632569296211610196578063256929621461023c5780633197cbb61461024457806339b6e72c1461025a57806354d1f13d1461027a57005b806301ffc9a7146101c257806316049ddf146101f757806317d70f7c1461021857005b366101c057005b005b3480156101ce57600080fd5b506101e26101dd36600461100f565b61051d565b60405190151581526020015b60405180910390f35b34801561020357600080fd5b506097546101e290600160a01b900460ff1681565b34801561022457600080fd5b5061022e609d5481565b6040519081526020016101ee565b6101c0610554565b34801561025057600080fd5b5061022e609a5481565b34801561026657600080fd5b506101c061027536600461105c565b6105a4565b6101c0610768565b34801561028e57600080fd5b5060655460ff166101e2565b3480156102a657600080fd5b506098546102ba906001600160a01b031681565b6040516001600160a01b0390911681526020016101ee565b3480156102de57600080fd5b5061022e609f5481565b3480156102f457600080fd5b506097546101e290600160a81b900460ff1681565b6101c06107a4565b34801561031d57600080fd5b506101c061032c3660046110bf565b6107b8565b34801561033d57600080fd5b5061022e609b5481565b34801561035357600080fd5b506097546102ba906001600160a01b031681565b34801561037357600080fd5b506101c06108f8565b34801561038857600080fd5b506101c061092b565b34801561039d57600080fd5b50638b78c6d819546102ba565b3480156103b657600080fd5b5061022e609c5481565b3480156103cc57600080fd5b506103ec6103db366004611211565b63bc197c8160e01b95945050505050565b6040516001600160e01b031990911681526020016101ee565b34801561041157600080fd5b506040516202a30081526020016101ee565b34801561042f57600080fd5b5061022e609e5481565b34801561044557600080fd5b506101c0610a71565b6101c061045c3660046110bf565b610be1565b34801561046d57600080fd5b506103ec61047c3660046112bb565b63f23a6e6160e01b95945050505050565b6101c061049b3660046110bf565b610c1e565b3480156104ac57600080fd5b5061022e610c45565b3480156104c157600080fd5b506101c0610c5c565b3480156104d657600080fd5b506099546102ba906001600160a01b031681565b3480156104f657600080fd5b5061022e6105053660046110bf565b63389a75e1600c908152600091909152602090205490565b60006001600160e01b03198216630271189760e51b148061054e57506301ffc9a760e01b6001600160e01b03198316145b92915050565b60006202a30067ffffffffffffffff164201905063389a75e1600c5233600052806020600c2055337fdbf36a107da19e49527a7176a1babf963b4b0ff8cde35ee35d6cd8f1f9ac7e1d600080a250565b600054610100900460ff16158080156105c45750600054600160ff909116105b806105de5750303b1580156105de575060005460ff166001145b6106465760405162461bcd60e51b815260206004820152602e60248201527f496e697469616c697a61626c653a20636f6e747261637420697320616c72656160448201526d191e481a5b9a5d1a585b1a5e995960921b60648201526084015b60405180910390fd5b6000805460ff191660011790558015610669576000805461ff0019166101001790555b428711610689576040516372e54d4d60e01b815260040160405180910390fd5b8587116106a9576040516301a4e51360e61b815260040160405180910390fd5b609a879055609b869055609980546001600160a01b03808b166001600160a01b031992831617909255609c879055609d86905560978054821633908117909155609f869055609880549386169390921692909217905561070890610c8f565b610710610ccb565b610718610cfa565b801561075e576000805461ff0019169055604051600181527f7f26b83ff96e1f2b6a682f133852f6798a09c465da95921460cefb38474024989060200160405180910390a15b5050505050505050565b63389a75e1600c523360005260006020600c2055337ffa7b8eab7da67f412cc9575ed43464468f9bfbae89d1675917346ca6d8fe3c92600080a2565b6107ac610d29565b6107b66000610d44565b565b6107c0610d82565b6107c8610ddb565b609a544211156107eb576040516345b0152160e11b815260040160405180910390fd5b609b5442101561080e57604051636f312cbd60e01b815260040160405180910390fd5b609754600160a01b900460ff166108385760405163ccbc0d7160e01b815260040160405180910390fd5b6097546001600160a01b031633146108635760405163ce3f000560e01b815260040160405180910390fd5b609e54610871906001611336565b609e5561087f816001610e21565b609f54156108a257609f546098546108a2916001600160a01b0390911690610eb8565b609954604080516001600160a01b03928316815260016020820152918316917fb436a00ffcb828bdee3eba840ca0936b461b32cbc7a7fc65fd3c85e4843d83ed910160405180910390a26108f560018055565b50565b610900610d29565b609b5442101561092357604051636f312cbd60e01b815260040160405180910390fd5b6107b6610ede565b610933610d82565b609754600160a01b900460ff1661095d5760405163ccbc0d7160e01b815260040160405180910390fd5b609a5442101561098057604051631a6031a360e31b815260040160405180910390fd5b609754600160a81b900460ff16156109ab57604051636507689f60e01b815260040160405180910390fd5b6097805460ff60a81b1916600160a81b1790556109de476109cf638b78c6d8195490565b6001600160a01b031690610eb8565b610a686109ee638b78c6d8195490565b609954609d54604051627eeac760e11b815230600482015260248101919091526001600160a01b039091169062fdd58e90604401602060405180830381865afa158015610a3f573d6000803e3d6000fd5b505050506040513d601f19601f82011682018060405250810190610a639190611349565b610e21565b6107b660018055565b610a79610d29565b609c54609954609d54604051627eeac760e11b815230600482015260248101919091526001600160a01b039091169062fdd58e90604401602060405180830381865afa158015610acd573d6000803e3d6000fd5b505050506040513d601f19601f82011682018060405250810190610af19190611349565b1015610b1057604051637222ae5760e11b815260040160405180910390fd5b306001600160a01b031663f4c17a6b6040518163ffffffff1660e01b8152600401602060405180830381865afa158015610b4e573d6000803e3d6000fd5b505050506040513d601f19601f82011682018060405250810190610b729190611349565b471015610b9257604051635dd9055760e11b815260040160405180910390fd5b6097805460ff60a01b1916600160a01b1790556040517f2dba1d9e78f3192742fc9d510383d669fe8a4fa03d039bd7382ef67119078af790610bd79042815260200190565b60405180910390a1565b610be9610d29565b63389a75e1600c52806000526020600c208054421115610c1157636f5e88186000526004601cfd5b600090556108f581610d44565b610c26610d29565b8060601b610c3c57637448fbae6000526004601cfd5b6108f581610d44565b6000609f54609c54610c579190611362565b905090565b610c64610d29565b609b54421015610c8757604051636f312cbd60e01b815260040160405180910390fd5b6107b6610f33565b6001600160a01b0316638b78c6d8198190558060007f8be0079c531659141344cd1fd0a4f28419497f9722a3daafe3b4186f6b6457e08180a350565b600054610100900460ff16610cf25760405162461bcd60e51b815260040161063d90611379565b6107b6610f6c565b600054610100900460ff16610d215760405162461bcd60e51b815260040161063d90611379565b6107b6610f9f565b638b78c6d8195433146107b6576382b429006000526004601cfd5b638b78c6d81980546001600160a01b039092169182907f8be0079c531659141344cd1fd0a4f28419497f9722a3daafe3b4186f6b6457e0600080a355565b600260015403610dd45760405162461bcd60e51b815260206004820152601f60248201527f5265656e7472616e637947756172643a207265656e7472616e742063616c6c00604482015260640161063d565b6002600155565b60655460ff16156107b65760405162461bcd60e51b815260206004820152601060248201526f14185d5cd8589b194e881c185d5cd95960821b604482015260640161063d565b609954609d54604051637921219560e11b8152306004808301919091526001600160a01b03868116602484015260448301939093526064820185905260a0608483015260a4820152630307830360e41b60c482015291169063f242432a9060e401600060405180830381600087803b158015610e9c57600080fd5b505af1158015610eb0573d6000803e3d6000fd5b505050505050565b60008060008084865af1610ed45763b12d13eb6000526004601cfd5b5050565b60018055565b610ee6610ddb565b6065805460ff191660011790557f62e78cea01bee320cd4e420270b5ea74000d11b0c9f74754ebdbfc544b05a258610f1b3390565b6040516001600160a01b039091168152602001610bd7565b610f3b610fc6565b6065805460ff191690557f5db9ee0a495bf2e6ff9c91a7834c1ba4fdd244a5e8aa4e537bd38aeae4b073aa33610f1b565b600054610100900460ff16610f935760405162461bcd60e51b815260040161063d90611379565b6065805460ff19169055565b600054610100900460ff16610ed85760405162461bcd60e51b815260040161063d90611379565b60655460ff166107b65760405162461bcd60e51b815260206004820152601460248201527314185d5cd8589b194e881b9bdd081c185d5cd95960621b604482015260640161063d565b60006020828403121561102157600080fd5b81356001600160e01b03198116811461103957600080fd5b9392505050565b80356001600160a01b038116811461105757600080fd5b919050565b600080600080600080600060e0888a03121561107757600080fd5b61108088611040565b96506020880135955060408801359450606088013593506080880135925060a088013591506110b160c08901611040565b905092959891949750929550565b6000602082840312156110d157600080fd5b61103982611040565b634e487b7160e01b600052604160045260246000fd5b604051601f8201601f1916810167ffffffffffffffff81118282101715611119576111196110da565b604052919050565b600082601f83011261113257600080fd5b8135602067ffffffffffffffff82111561114e5761114e6110da565b8160051b61115d8282016110f0565b928352848101820192828101908785111561117757600080fd5b83870192505b848310156111965782358252918301919083019061117d565b979650505050505050565b600082601f8301126111b257600080fd5b813567ffffffffffffffff8111156111cc576111cc6110da565b6111df601f8201601f19166020016110f0565b8181528460208386010111156111f457600080fd5b816020850160208301376000918101602001919091529392505050565b600080600080600060a0868803121561122957600080fd5b61123286611040565b945061124060208701611040565b9350604086013567ffffffffffffffff8082111561125d57600080fd5b61126989838a01611121565b9450606088013591508082111561127f57600080fd5b61128b89838a01611121565b935060808801359150808211156112a157600080fd5b506112ae888289016111a1565b9150509295509295909350565b600080600080600060a086880312156112d357600080fd5b6112dc86611040565b94506112ea60208701611040565b93506040860135925060608601359150608086013567ffffffffffffffff81111561131457600080fd5b6112ae888289016111a1565b634e487b7160e01b600052601160045260246000fd5b8082018082111561054e5761054e611320565b60006020828403121561135b57600080fd5b5051919050565b808202811582820484141761054e5761054e611320565b6020808252602b908201527f496e697469616c697a61626c653a20636f6e7472616374206973206e6f74206960408201526a6e697469616c697a696e6760a81b60608201526080019056fea26469706673582212207696738dec5e6a54d4c00690bc7130e2c5ede5f172198037c8684bf6bba82c5d64736f6c63430008130033",
    "linkReferences": {}
  },
  "methodIdentifiers": {
    "cancelOwnershipHandover()": "54d1f13d",
    "completeOwnershipHandover(address)": "f04e283e",
    "endTime()": "3197cbb6",
    "hasWithdrawn()": "6cb4e611",
    "initialize(address,uint256,uint256,uint256,uint256,uint256,address)": "39b6e72c",
    "maxProtocolReward()": "f4c17a6b",
    "onERC1155BatchReceived(address,address,uint256[],uint256[],bytes)": "bc197c81",
    "onERC1155Received(address,address,uint256,uint256,bytes)": "f23a6e61",
    "owner()": "8da5cb5b",
    "ownershipHandoverExpiresAt(address)": "fee81cf4",
    "ownershipHandoverValidFor()": "d7533f02",
    "pause()": "8456cb59",
    "paused()": "5c975abb",
    "protocolFeeRecipient()": "64df049e",
    "questFactoryContract()": "7b16e429",
    "questFee()": "67dfa3e7",
    "queue()": "e10d29ee",
    "queued()": "16049ddf",
    "redeemedTokens()": "d86b8739",
    "renounceOwnership()": "715018a6",
    "requestOwnershipHandover()": "25692962",
    "rewardToken()": "f7c618c1",
    "singleClaim(address)": "7282a4aa",
    "startTime()": "78e97925",
    "supportsInterface(bytes4)": "01ffc9a7",
    "tokenId()": "17d70f7c",
    "totalParticipants()": "a26dbf26",
    "transferOwnership(address)": "f2fde38b",
    "unPause()": "f7b188a5",
    "withdrawRemainingTokens()": "8afbf669"
  },
  "id": 2
}