{
  "address": "0xb871C52E68076e62b3cBD4E88Bfb3d4C1FC860c4",
  "abi": [
    {
      "inputs": [],
      "stateMutability": "nonpayable",
      "type": "constructor"
    },
    {
      "anonymous": false,
      "inputs": [
        {
          "indexed": true,
          "internalType": "address",
          "name": "owner",
          "type": "address"
        },
        {
          "indexed": true,
          "internalType": "address",
          "name": "approved",
          "type": "address"
        },
        {
          "indexed": true,
          "internalType": "uint256",
          "name": "tokenId",
          "type": "uint256"
        }
      ],
      "name": "Approval",
      "type": "event"
    },
    {
      "anonymous": false,
      "inputs": [
        {
          "indexed": true,
          "internalType": "address",
          "name": "owner",
          "type": "address"
        },
        {
          "indexed": true,
          "internalType": "address",
          "name": "operator",
          "type": "address"
        },
        {
          "indexed": false,
          "internalType": "bool",
          "name": "approved",
          "type": "bool"
        }
      ],
      "name": "ApprovalForAll",
      "type": "event"
    },
    {
      "anonymous": false,
      "inputs": [
        {
          "indexed": false,
          "internalType": "uint8",
          "name": "version",
          "type": "uint8"
        }
      ],
      "name": "Initialized",
      "type": "event"
    },
    {
      "anonymous": false,
      "inputs": [
        {
          "indexed": true,
          "internalType": "address",
          "name": "minterAddress",
          "type": "address"
        }
      ],
      "name": "MinterAddressSet",
      "type": "event"
    },
    {
      "anonymous": false,
      "inputs": [
        {
          "indexed": true,
          "internalType": "address",
          "name": "previousOwner",
          "type": "address"
        },
        {
          "indexed": true,
          "internalType": "address",
          "name": "newOwner",
          "type": "address"
        }
      ],
      "name": "OwnershipTransferred",
      "type": "event"
    },
    {
      "anonymous": false,
      "inputs": [
        {
          "indexed": true,
          "internalType": "address",
          "name": "questFactoryAddress",
          "type": "address"
        }
      ],
      "name": "QuestFactoryAddressSet",
      "type": "event"
    },
    {
      "anonymous": false,
      "inputs": [
        {
          "indexed": true,
          "internalType": "uint256",
          "name": "royaltyFee",
          "type": "uint256"
        }
      ],
      "name": "RoyaltyFeeSet",
      "type": "event"
    },
    {
      "anonymous": false,
      "inputs": [
        {
          "indexed": true,
          "internalType": "address",
          "name": "from",
          "type": "address"
        },
        {
          "indexed": true,
          "internalType": "address",
          "name": "to",
          "type": "address"
        },
        {
          "indexed": true,
          "internalType": "uint256",
          "name": "tokenId",
          "type": "uint256"
        }
      ],
      "name": "Transfer",
      "type": "event"
    },
    {
      "inputs": [],
      "name": "animationUrlIPFSHash",
      "outputs": [
        {
          "internalType": "string",
          "name": "",
          "type": "string"
        }
      ],
      "stateMutability": "view",
      "type": "function"
    },
    {
      "inputs": [
        {
          "internalType": "address",
          "name": "to",
          "type": "address"
        },
        {
          "internalType": "uint256",
          "name": "tokenId",
          "type": "uint256"
        }
      ],
      "name": "approve",
      "outputs": [],
      "stateMutability": "nonpayable",
      "type": "function"
    },
    {
      "inputs": [
        {
          "internalType": "address",
          "name": "owner",
          "type": "address"
        }
      ],
      "name": "balanceOf",
      "outputs": [
        {
          "internalType": "uint256",
          "name": "",
          "type": "uint256"
        }
      ],
      "stateMutability": "view",
      "type": "function"
    },
    {
      "inputs": [
        {
          "internalType": "uint256",
          "name": "",
          "type": "uint256"
        }
      ],
      "name": "discounts",
      "outputs": [
        {
          "internalType": "uint16",
          "name": "percentage",
          "type": "uint16"
        },
        {
          "internalType": "uint16",
          "name": "usedCount",
          "type": "uint16"
        }
      ],
      "stateMutability": "view",
      "type": "function"
    },
    {
      "inputs": [
        {
          "internalType": "uint256",
          "name": "tokenId",
          "type": "uint256"
        }
      ],
      "name": "getApproved",
      "outputs": [
        {
          "internalType": "address",
          "name": "",
          "type": "address"
        }
      ],
      "stateMutability": "view",
      "type": "function"
    },
    {
      "inputs": [
        {
          "internalType": "address",
          "name": "owner_",
          "type": "address"
        }
      ],
      "name": "getOwnedTokenIds",
      "outputs": [
        {
          "internalType": "uint256[]",
          "name": "",
          "type": "uint256[]"
        }
      ],
      "stateMutability": "view",
      "type": "function"
    },
    {
      "inputs": [],
      "name": "imageIPFSHash",
      "outputs": [
        {
          "internalType": "string",
          "name": "",
          "type": "string"
        }
      ],
      "stateMutability": "view",
      "type": "function"
    },
    {
      "inputs": [
        {
          "internalType": "uint256",
          "name": "tokenId_",
          "type": "uint256"
        }
      ],
      "name": "incrementUsedCount",
      "outputs": [],
      "stateMutability": "nonpayable",
      "type": "function"
    },
    {
      "inputs": [
        {
          "internalType": "address",
          "name": "royaltyRecipient_",
          "type": "address"
        },
        {
          "internalType": "address",
          "name": "minterAddress_",
          "type": "address"
        },
        {
          "internalType": "address",
          "name": "questFactoryAddress_",
          "type": "address"
        },
        {
          "internalType": "uint256",
          "name": "royaltyFee_",
          "type": "uint256"
        },
        {
          "internalType": "address",
          "name": "owner_",
          "type": "address"
        },
        {
          "internalType": "string",
          "name": "imageIPFSHash_",
          "type": "string"
        },
        {
          "internalType": "string",
          "name": "animationUrlIPFSHash_",
          "type": "string"
        }
      ],
      "name": "initialize",
      "outputs": [],
      "stateMutability": "nonpayable",
      "type": "function"
    },
    {
      "inputs": [
        {
          "internalType": "address",
          "name": "owner",
          "type": "address"
        },
        {
          "internalType": "address",
          "name": "operator",
          "type": "address"
        }
      ],
      "name": "isApprovedForAll",
      "outputs": [
        {
          "internalType": "bool",
          "name": "",
          "type": "bool"
        }
      ],
      "stateMutability": "view",
      "type": "function"
    },
    {
      "inputs": [
        {
          "internalType": "address",
          "name": "to_",
          "type": "address"
        },
        {
          "internalType": "uint16",
          "name": "discountPercentage_",
          "type": "uint16"
        }
      ],
      "name": "mint",
      "outputs": [],
      "stateMutability": "nonpayable",
      "type": "function"
    },
    {
      "inputs": [],
      "name": "minterAddress",
      "outputs": [
        {
          "internalType": "address",
          "name": "",
          "type": "address"
        }
      ],
      "stateMutability": "view",
      "type": "function"
    },
    {
      "inputs": [],
      "name": "name",
      "outputs": [
        {
          "internalType": "string",
          "name": "",
          "type": "string"
        }
      ],
      "stateMutability": "view",
      "type": "function"
    },
    {
      "inputs": [],
      "name": "owner",
      "outputs": [
        {
          "internalType": "address",
          "name": "",
          "type": "address"
        }
      ],
      "stateMutability": "view",
      "type": "function"
    },
    {
      "inputs": [
        {
          "internalType": "uint256",
          "name": "tokenId",
          "type": "uint256"
        }
      ],
      "name": "ownerOf",
      "outputs": [
        {
          "internalType": "address",
          "name": "",
          "type": "address"
        }
      ],
      "stateMutability": "view",
      "type": "function"
    },
    {
      "inputs": [],
      "name": "questFactoryAddress",
      "outputs": [
        {
          "internalType": "address",
          "name": "",
          "type": "address"
        }
      ],
      "stateMutability": "view",
      "type": "function"
    },
    {
      "inputs": [],
      "name": "renounceOwnership",
      "outputs": [],
      "stateMutability": "nonpayable",
      "type": "function"
    },
    {
      "inputs": [],
      "name": "royaltyFee",
      "outputs": [
        {
          "internalType": "uint256",
          "name": "",
          "type": "uint256"
        }
      ],
      "stateMutability": "view",
      "type": "function"
    },
    {
      "inputs": [
        {
          "internalType": "uint256",
          "name": "tokenId_",
          "type": "uint256"
        },
        {
          "internalType": "uint256",
          "name": "salePrice_",
          "type": "uint256"
        }
      ],
      "name": "royaltyInfo",
      "outputs": [
        {
          "internalType": "address",
          "name": "receiver",
          "type": "address"
        },
        {
          "internalType": "uint256",
          "name": "royaltyAmount",
          "type": "uint256"
        }
      ],
      "stateMutability": "view",
      "type": "function"
    },
    {
      "inputs": [],
      "name": "royaltyRecipient",
      "outputs": [
        {
          "internalType": "address",
          "name": "",
          "type": "address"
        }
      ],
      "stateMutability": "view",
      "type": "function"
    },
    {
      "inputs": [
        {
          "internalType": "address",
          "name": "from",
          "type": "address"
        },
        {
          "internalType": "address",
          "name": "to",
          "type": "address"
        },
        {
          "internalType": "uint256",
          "name": "tokenId",
          "type": "uint256"
        }
      ],
      "name": "safeTransferFrom",
      "outputs": [],
      "stateMutability": "nonpayable",
      "type": "function"
    },
    {
      "inputs": [
        {
          "internalType": "address",
          "name": "from",
          "type": "address"
        },
        {
          "internalType": "address",
          "name": "to",
          "type": "address"
        },
        {
          "internalType": "uint256",
          "name": "tokenId",
          "type": "uint256"
        },
        {
          "internalType": "bytes",
          "name": "data",
          "type": "bytes"
        }
      ],
      "name": "safeTransferFrom",
      "outputs": [],
      "stateMutability": "nonpayable",
      "type": "function"
    },
    {
      "inputs": [
        {
          "internalType": "string",
          "name": "animationUrlIPFSHash_",
          "type": "string"
        }
      ],
      "name": "setAnimationUrlIPFSHash",
      "outputs": [],
      "stateMutability": "nonpayable",
      "type": "function"
    },
    {
      "inputs": [
        {
          "internalType": "address",
          "name": "operator",
          "type": "address"
        },
        {
          "internalType": "bool",
          "name": "approved",
          "type": "bool"
        }
      ],
      "name": "setApprovalForAll",
      "outputs": [],
      "stateMutability": "nonpayable",
      "type": "function"
    },
    {
      "inputs": [
        {
          "internalType": "string",
          "name": "imageIPFSHash_",
          "type": "string"
        }
      ],
      "name": "setImageIPFSHash",
      "outputs": [],
      "stateMutability": "nonpayable",
      "type": "function"
    },
    {
      "inputs": [
        {
          "internalType": "address",
          "name": "minterAddress_",
          "type": "address"
        }
      ],
      "name": "setMinterAddress",
      "outputs": [],
      "stateMutability": "nonpayable",
      "type": "function"
    },
    {
      "inputs": [
        {
          "internalType": "address",
          "name": "questFactoryAddress_",
          "type": "address"
        }
      ],
      "name": "setQuestFactoryAddress",
      "outputs": [],
      "stateMutability": "nonpayable",
      "type": "function"
    },
    {
      "inputs": [
        {
          "internalType": "uint256",
          "name": "royaltyFee_",
          "type": "uint256"
        }
      ],
      "name": "setRoyaltyFee",
      "outputs": [],
      "stateMutability": "nonpayable",
      "type": "function"
    },
    {
      "inputs": [
        {
          "internalType": "address",
          "name": "royaltyRecipient_",
          "type": "address"
        }
      ],
      "name": "setRoyaltyRecipient",
      "outputs": [],
      "stateMutability": "nonpayable",
      "type": "function"
    },
    {
      "inputs": [
        {
          "internalType": "bytes4",
          "name": "interfaceId_",
          "type": "bytes4"
        }
      ],
      "name": "supportsInterface",
      "outputs": [
        {
          "internalType": "bool",
          "name": "",
          "type": "bool"
        }
      ],
      "stateMutability": "view",
      "type": "function"
    },
    {
      "inputs": [],
      "name": "symbol",
      "outputs": [
        {
          "internalType": "string",
          "name": "",
          "type": "string"
        }
      ],
      "stateMutability": "view",
      "type": "function"
    },
    {
      "inputs": [
        {
          "internalType": "uint256",
          "name": "index",
          "type": "uint256"
        }
      ],
      "name": "tokenByIndex",
      "outputs": [
        {
          "internalType": "uint256",
          "name": "",
          "type": "uint256"
        }
      ],
      "stateMutability": "view",
      "type": "function"
    },
    {
      "inputs": [
        {
          "internalType": "address",
          "name": "owner",
          "type": "address"
        },
        {
          "internalType": "uint256",
          "name": "index",
          "type": "uint256"
        }
      ],
      "name": "tokenOfOwnerByIndex",
      "outputs": [
        {
          "internalType": "uint256",
          "name": "",
          "type": "uint256"
        }
      ],
      "stateMutability": "view",
      "type": "function"
    },
    {
      "inputs": [
        {
          "internalType": "uint256",
          "name": "tokenId_",
          "type": "uint256"
        }
      ],
      "name": "tokenURI",
      "outputs": [
        {
          "internalType": "string",
          "name": "",
          "type": "string"
        }
      ],
      "stateMutability": "view",
      "type": "function"
    },
    {
      "inputs": [],
      "name": "totalSupply",
      "outputs": [
        {
          "internalType": "uint256",
          "name": "",
          "type": "uint256"
        }
      ],
      "stateMutability": "view",
      "type": "function"
    },
    {
      "inputs": [
        {
          "internalType": "address",
          "name": "from",
          "type": "address"
        },
        {
          "internalType": "address",
          "name": "to",
          "type": "address"
        },
        {
          "internalType": "uint256",
          "name": "tokenId",
          "type": "uint256"
        }
      ],
      "name": "transferFrom",
      "outputs": [],
      "stateMutability": "nonpayable",
      "type": "function"
    },
    {
      "inputs": [
        {
          "internalType": "address",
          "name": "newOwner",
          "type": "address"
        }
      ],
      "name": "transferOwnership",
      "outputs": [],
      "stateMutability": "nonpayable",
      "type": "function"
    }
  ],
  "transactionHash": "0xf264e1ed8755ec6fe94996cc91643442eab2469fe63a96390704c4c190fea010",
  "args": [],
  "numDeployments": 1,
  "solcInputHash": "0ccb43bd5e93535431d60e4adf760f7e",
  "bytecode": "0x60806040523480156200001157600080fd5b506200001c62000022565b620000e4565b600054610100900460ff16156200008f5760405162461bcd60e51b815260206004820152602760248201527f496e697469616c697a61626c653a20636f6e747261637420697320696e697469604482015266616c697a696e6760c81b606482015260840160405180910390fd5b60005460ff9081161015620000e2576000805460ff191660ff9081179091556040519081527f7f26b83ff96e1f2b6a682f133852f6798a09c465da95921460cefb38474024989060200160405180910390a15b565b61373e80620000f46000396000f3fe608060405234801561001057600080fd5b50600436106102775760003560e01c8063715018a611610160578063b8997a97116100d8578063dcf1621b1161008c578063ed0cab9b11610071578063ed0cab9b1461058a578063f2fde38b1461059d578063fb2e06df146105b057600080fd5b8063dcf1621b1461053b578063e985e9c51461054e57600080fd5b8063c87b56dd116100bd578063c87b56dd14610502578063d330431414610515578063dbcca1601461052857600080fd5b8063b8997a97146104ae578063bae6a690146104b857600080fd5b8063a22cb4651161012f578063ac98b21611610114578063ac98b21614610474578063ad0be4bd14610488578063b88d4fde1461049b57600080fd5b8063a22cb4651461044e578063a3106b951461046157600080fd5b8063715018a6146104255780638da5cb5b1461042d57806394886d8f1461043e57806395d89b411461044657600080fd5b80633d64eb7b116101f35780634c00de82116101c25780634fac7e41116101a75780634fac7e41146103df5780636352211e146103ff57806370a082311461041257600080fd5b80634c00de82146103b85780634f6ccce7146103cc57600080fd5b80633d64eb7b146103775780633e4086e51461037f57806341e42f301461039257806342842e0e146103a557600080fd5b806318160ddd1161024a5780632a55205a1161022f5780632a55205a1461031e5780632f745c591461035057806334d722c91461036357600080fd5b806318160ddd146102f957806323b872dd1461030b57600080fd5b806301ffc9a71461027c57806306fdde03146102a4578063081812fc146102b9578063095ea7b3146102e4575b600080fd5b61028f61028a366004612a96565b6105c3565b60405190151581526020015b60405180910390f35b6102ac61061f565b60405161029b9190612b0a565b6102cc6102c7366004612b1d565b6106b1565b6040516001600160a01b03909116815260200161029b565b6102f76102f2366004612b52565b6106d8565b005b6099545b60405190815260200161029b565b6102f7610319366004612b7c565b61080e565b61033161032c366004612bb8565b610895565b604080516001600160a01b03909316835260208301919091520161029b565b6102fd61035e366004612b52565b610931565b61012f546102cc906001600160a01b031681565b6102ac6109d9565b6102f761038d366004612b1d565b610a68565b6102f76103a0366004612bda565b610aa4565b6102f76103b3366004612b7c565b610b34565b61012e546102cc906001600160a01b031681565b6102fd6103da366004612b1d565b610b4f565b6103f26103ed366004612bda565b610bf3565b60405161029b9190612bf5565b6102cc61040d366004612b1d565b610c95565b6102fd610420366004612bda565b610cfa565b6102f7610d94565b60fb546001600160a01b03166102cc565b6102ac610da8565b6102ac610db6565b6102f761045c366004612c39565b610dc5565b6102f761046f366004612bda565b610dd4565b610130546102cc906001600160a01b031681565b6102f7610496366004612c75565b610e8c565b6102f76104a9366004612d4d565b610fc5565b6102fd6101315481565b6104e76104c6366004612b1d565b6101346020526000908152604090205461ffff808216916201000090041682565b6040805161ffff93841681529290911660208301520161029b565b6102ac610510366004612b1d565b611053565b6102f7610523366004612de9565b611092565b6102f7610536366004612b1d565b6110a7565b6102f7610549366004612e1e565b611147565b61028f61055c366004612ece565b6001600160a01b039182166000908152606a6020908152604080832093909416825291909152205460ff1690565b6102f7610598366004612de9565b611394565b6102f76105ab366004612bda565b6113a9565b6102f76105be366004612bda565b611439565b60007fffffffff0000000000000000000000000000000000000000000000000000000082167f2a55205a0000000000000000000000000000000000000000000000000000000014806106195750610619826114f1565b92915050565b60606065805461062e90612f01565b80601f016020809104026020016040519081016040528092919081815260200182805461065a90612f01565b80156106a75780601f1061067c576101008083540402835291602001916106a7565b820191906000526020600020905b81548152906001019060200180831161068a57829003601f168201915b5050505050905090565b60006106bc82611547565b506000908152606960205260409020546001600160a01b031690565b60006106e382610c95565b9050806001600160a01b0316836001600160a01b0316036107715760405162461bcd60e51b815260206004820152602160248201527f4552433732313a20617070726f76616c20746f2063757272656e74206f776e6560448201527f720000000000000000000000000000000000000000000000000000000000000060648201526084015b60405180910390fd5b336001600160a01b038216148061078d575061078d813361055c565b6107ff5760405162461bcd60e51b815260206004820152603d60248201527f4552433732313a20617070726f76652063616c6c6572206973206e6f7420746f60448201527f6b656e206f776e6572206f7220617070726f76656420666f7220616c6c0000006064820152608401610768565b61080983836115ab565b505050565b6108183382611626565b61088a5760405162461bcd60e51b815260206004820152602d60248201527f4552433732313a2063616c6c6572206973206e6f7420746f6b656e206f776e6560448201527f72206f7220617070726f766564000000000000000000000000000000000000006064820152608401610768565b6108098383836116a5565b60008281526067602052604081205481906001600160a01b03166108fb5760405162461bcd60e51b815260206004820152601160248201527f4e6f6e6578697374656e7420746f6b656e0000000000000000000000000000006044820152606401610768565b6000612710610131548561090f9190612f83565b6109199190612fa2565b61012e546001600160a01b0316969095509350505050565b600061093c83610cfa565b82106109b05760405162461bcd60e51b815260206004820152602b60248201527f455243373231456e756d657261626c653a206f776e657220696e646578206f7560448201527f74206f6620626f756e64730000000000000000000000000000000000000000006064820152608401610768565b506001600160a01b03919091166000908152609760209081526040808320938352929052205490565b61013380546109e790612f01565b80601f0160208091040260200160405190810160405280929190818152602001828054610a1390612f01565b8015610a605780601f10610a3557610100808354040283529160200191610a60565b820191906000526020600020905b815481529060010190602001808311610a4357829003601f168201915b505050505081565b610a706118e8565b61013181905560405181907fc36422dcc77a5c93a5c48743078f8130c9fcc2a0ff893904ee62a3565688117c90600090a250565b806001600160a01b038116610afb5760405162461bcd60e51b815260206004820152600c60248201527f5a65726f206164647265737300000000000000000000000000000000000000006044820152606401610768565b610b036118e8565b5061012e805473ffffffffffffffffffffffffffffffffffffffff19166001600160a01b0392909216919091179055565b61080983838360405180602001604052806000815250610fc5565b6000610b5a60995490565b8210610bce5760405162461bcd60e51b815260206004820152602c60248201527f455243373231456e756d657261626c653a20676c6f62616c20696e646578206f60448201527f7574206f6620626f756e647300000000000000000000000000000000000000006064820152608401610768565b60998281548110610be157610be1612fdd565b90600052602060002001549050919050565b60606000610c0083610cfa565b905060008167ffffffffffffffff811115610c1d57610c1d612ca8565b604051908082528060200260200182016040528015610c46578160200160208202803683370190505b50905060005b82811015610c8d57610c5e8582610931565b828281518110610c7057610c70612fdd565b602090810291909101015280610c858161300c565b915050610c4c565b509392505050565b6000818152606760205260408120546001600160a01b0316806106195760405162461bcd60e51b815260206004820152601860248201527f4552433732313a20696e76616c696420746f6b656e20494400000000000000006044820152606401610768565b60006001600160a01b038216610d785760405162461bcd60e51b815260206004820152602960248201527f4552433732313a2061646472657373207a65726f206973206e6f74206120766160448201527f6c6964206f776e657200000000000000000000000000000000000000000000006064820152608401610768565b506001600160a01b031660009081526068602052604090205490565b610d9c6118e8565b610da66000611942565b565b61013280546109e790612f01565b60606066805461062e90612f01565b610dd03383836119a1565b5050565b806001600160a01b038116610e2b5760405162461bcd60e51b815260206004820152600c60248201527f5a65726f206164647265737300000000000000000000000000000000000000006044820152606401610768565b610e336118e8565b61012f805473ffffffffffffffffffffffffffffffffffffffff19166001600160a01b0384169081179091556040517f09e32743122b4d02dc06c38a35ee1587a02854644d47574bb35a6ef75a22fa9890600090a25050565b61012f546001600160a01b03163314610ee75760405162461bcd60e51b815260206004820152600b60248201527f4f6e6c79206d696e7465720000000000000000000000000000000000000000006044820152606401610768565b6127108161ffff161115610f3d5760405162461bcd60e51b815260206004820152601b60248201527f496e76616c696420646973636f756e742070657263656e7461676500000000006044820152606401610768565b610f4c61012d80546001019055565b6000610f5861012d5490565b60408051808201825261ffff808616825260006020808401828152868352610134909152939020915182549351821662010000027fffffffffffffffffffffffffffffffffffffffffffffffffffffffff0000000090941691161791909117905590506108098382611a6f565b610fcf3383611626565b6110415760405162461bcd60e51b815260206004820152602d60248201527f4552433732313a2063616c6c6572206973206e6f7420746f6b656e206f776e6560448201527f72206f7220617070726f766564000000000000000000000000000000000000006064820152608401610768565b61104d84848484611a89565b50505050565b6060600061106083611b12565b905061106b81611c40565b60405160200161107b9190613042565b604051602081830303815290604052915050919050565b61109a6118e8565b610133610dd082826130d5565b610130546001600160a01b031633146111025760405162461bcd60e51b815260206004820152601260248201527f4f6e6c7920717565737420666163746f727900000000000000000000000000006044820152606401610768565b600081815261013460205260409020805462010000900461ffff1690600261112983613195565b91906101000a81548161ffff021916908361ffff1602179055505050565b600054610100900460ff16158080156111675750600054600160ff909116105b806111815750303b158015611181575060005460ff166001145b6111f35760405162461bcd60e51b815260206004820152602e60248201527f496e697469616c697a61626c653a20636f6e747261637420697320616c72656160448201527f647920696e697469616c697a65640000000000000000000000000000000000006064820152608401610768565b6000805460ff19166001179055801561123357600080547fffffffffffffffffffffffffffffffffffffffffffffffffffffffffffff00ff166101001790555b6112a76040518060400160405280601081526020017f51756573745465726d696e616c4b6579000000000000000000000000000000008152506040518060400160405280600381526020017f51544b0000000000000000000000000000000000000000000000000000000000815250611d93565b6112af611e1a565b6112b884611e97565b61012e80546001600160a01b03808b1673ffffffffffffffffffffffffffffffffffffffff199283161790925561012f80548a841690831617905561013080549289169290911691909117905561013185905561013261131884826130d5565b5061013361132683826130d5565b50801561138a57600080547fffffffffffffffffffffffffffffffffffffffffffffffffffffffffffff00ff169055604051600181527f7f26b83ff96e1f2b6a682f133852f6798a09c465da95921460cefb38474024989060200160405180910390a15b5050505050505050565b61139c6118e8565b610132610dd082826130d5565b6113b16118e8565b6001600160a01b03811661142d5760405162461bcd60e51b815260206004820152602660248201527f4f776e61626c653a206e6577206f776e657220697320746865207a65726f206160448201527f64647265737300000000000000000000000000000000000000000000000000006064820152608401610768565b61143681611942565b50565b806001600160a01b0381166114905760405162461bcd60e51b815260206004820152600c60248201527f5a65726f206164647265737300000000000000000000000000000000000000006044820152606401610768565b6114986118e8565b610130805473ffffffffffffffffffffffffffffffffffffffff19166001600160a01b0384169081179091556040517f1b6281da36fffb8434322a7d44f2246f1d6d61bac579639b08f9f33405c5630e90600090a25050565b60007fffffffff0000000000000000000000000000000000000000000000000000000082167f780e9d63000000000000000000000000000000000000000000000000000000001480610619575061061982611f1d565b6000818152606760205260409020546001600160a01b03166114365760405162461bcd60e51b815260206004820152601860248201527f4552433732313a20696e76616c696420746f6b656e20494400000000000000006044820152606401610768565b6000818152606960205260409020805473ffffffffffffffffffffffffffffffffffffffff19166001600160a01b03841690811790915581906115ed82610c95565b6001600160a01b03167f8c5be1e5ebec7d5bd14f71427d1e84f3dd0314c0f7b2291e5b200ac8c7c3b92560405160405180910390a45050565b60008061163283610c95565b9050806001600160a01b0316846001600160a01b0316148061167957506001600160a01b038082166000908152606a602090815260408083209388168352929052205460ff165b8061169d5750836001600160a01b0316611692846106b1565b6001600160a01b0316145b949350505050565b826001600160a01b03166116b882610c95565b6001600160a01b0316146117345760405162461bcd60e51b815260206004820152602560248201527f4552433732313a207472616e736665722066726f6d20696e636f72726563742060448201527f6f776e65720000000000000000000000000000000000000000000000000000006064820152608401610768565b6001600160a01b0382166117af5760405162461bcd60e51b8152602060048201526024808201527f4552433732313a207472616e7366657220746f20746865207a65726f2061646460448201527f72657373000000000000000000000000000000000000000000000000000000006064820152608401610768565b6117bc8383836001612000565b826001600160a01b03166117cf82610c95565b6001600160a01b03161461184b5760405162461bcd60e51b815260206004820152602560248201527f4552433732313a207472616e736665722066726f6d20696e636f72726563742060448201527f6f776e65720000000000000000000000000000000000000000000000000000006064820152608401610768565b6000818152606960209081526040808320805473ffffffffffffffffffffffffffffffffffffffff199081169091556001600160a01b0387811680865260688552838620805460001901905590871680865283862080546001019055868652606790945282852080549092168417909155905184937fddf252ad1be2c89b69c2b068fc378daa952ba7f163c4a11628f55a4df523b3ef91a4505050565b60fb546001600160a01b03163314610da65760405162461bcd60e51b815260206004820181905260248201527f4f776e61626c653a2063616c6c6572206973206e6f7420746865206f776e65726044820152606401610768565b60fb80546001600160a01b0383811673ffffffffffffffffffffffffffffffffffffffff19831681179093556040519116919082907f8be0079c531659141344cd1fd0a4f28419497f9722a3daafe3b4186f6b6457e090600090a35050565b816001600160a01b0316836001600160a01b031603611a025760405162461bcd60e51b815260206004820152601960248201527f4552433732313a20617070726f766520746f2063616c6c6572000000000000006044820152606401610768565b6001600160a01b038381166000818152606a6020908152604080832094871680845294825291829020805460ff191686151590811790915591519182527f17307eab39ab6107e8899845ad3d59bd9653f200f220920489ca2b5937696c31910160405180910390a3505050565b610dd082826040518060200160405280600081525061200c565b611a948484846116a5565b611aa084848484612095565b61104d5760405162461bcd60e51b815260206004820152603260248201527f4552433732313a207472616e7366657220746f206e6f6e20455243373231526560448201527f63656976657220696d706c656d656e74657200000000000000000000000000006064820152608401610768565b60606000611b1f83612236565b604080518082018252601781527f446973636f756e742050657263656e74616765204250530000000000000000006020808301919091526000878152610134909152918220549293509091611b819190611b7c9061ffff16612236565b6122d6565b604080518082018252601381527f446973636f756e74205573656420436f756e740000000000000000000000000060208083019190915260008881526101349091529190912054611be09190611b7c9062010000900461ffff16612236565b604051602001611bf19291906131b6565b60405160208183030381529060405290506000611c0c612305565b611c1461232e565b83604051602001611c2793929190613261565b60408051601f1981840301815291905295945050505050565b60608151600003611c5f57505060408051602081019091526000815290565b60006040518060600160405280604081526020016136c96040913990506000600384516002611c8e9190613458565b611c989190612fa2565b611ca3906004612f83565b67ffffffffffffffff811115611cbb57611cbb612ca8565b6040519080825280601f01601f191660200182016040528015611ce5576020820181803683370190505b509050600182016020820185865187015b80821015611d51576003820191508151603f8160121c168501518453600184019350603f81600c1c168501518453600184019350603f8160061c168501518453600184019350603f8116850151845350600183019250611cf6565b5050600386510660018114611d6d5760028114611d8057611d88565b603d6001830353603d6002830353611d88565b603d60018303535b509195945050505050565b600054610100900460ff16611e105760405162461bcd60e51b815260206004820152602b60248201527f496e697469616c697a61626c653a20636f6e7472616374206973206e6f74206960448201527f6e697469616c697a696e670000000000000000000000000000000000000000006064820152608401610768565b610dd0828261236d565b600054610100900460ff16610da65760405162461bcd60e51b815260206004820152602b60248201527f496e697469616c697a61626c653a20636f6e7472616374206973206e6f74206960448201527f6e697469616c697a696e670000000000000000000000000000000000000000006064820152608401610768565b600054610100900460ff16611f145760405162461bcd60e51b815260206004820152602b60248201527f496e697469616c697a61626c653a20636f6e7472616374206973206e6f74206960448201527f6e697469616c697a696e670000000000000000000000000000000000000000006064820152608401610768565b61143681612403565b60007fffffffff0000000000000000000000000000000000000000000000000000000082167f80ac58cd000000000000000000000000000000000000000000000000000000001480611fb057507fffffffff0000000000000000000000000000000000000000000000000000000082167f5b5e139f00000000000000000000000000000000000000000000000000000000145b8061061957507f01ffc9a7000000000000000000000000000000000000000000000000000000007fffffffff00000000000000000000000000000000000000000000000000000000831614610619565b61104d84848484612480565b61201683836125c8565b6120236000848484612095565b6108095760405162461bcd60e51b815260206004820152603260248201527f4552433732313a207472616e7366657220746f206e6f6e20455243373231526560448201527f63656976657220696d706c656d656e74657200000000000000000000000000006064820152608401610768565b60006001600160a01b0384163b1561222b576040517f150b7a020000000000000000000000000000000000000000000000000000000081526001600160a01b0385169063150b7a02906120f290339089908890889060040161346b565b6020604051808303816000875af192505050801561212d575060408051601f3d908101601f1916820190925261212a918101906134a7565b60015b6121e0573d80801561215b576040519150601f19603f3d011682016040523d82523d6000602084013e612160565b606091505b5080516000036121d85760405162461bcd60e51b815260206004820152603260248201527f4552433732313a207472616e7366657220746f206e6f6e20455243373231526560448201527f63656976657220696d706c656d656e74657200000000000000000000000000006064820152608401610768565b805181602001fd5b7fffffffff00000000000000000000000000000000000000000000000000000000167f150b7a020000000000000000000000000000000000000000000000000000000014905061169d565b506001949350505050565b606060006122438361276e565b600101905060008167ffffffffffffffff81111561226357612263612ca8565b6040519080825280601f01601f19166020018201604052801561228d576020820181803683370190505b5090508181016020015b600019017f3031323334353637383961626364656600000000000000000000000000000000600a86061a8153600a850494508461229757509392505050565b6060600083836040516020016122ed9291906134c4565b60408051808303601f19018152919052949350505050565b606061013260405160200161231a91906135e1565b604051602081830303815290604052905090565b6060610133805461233e90612f01565b905060000361235a575060408051602081019091526000815290565b61013360405160200161231a91906135e1565b600054610100900460ff166123ea5760405162461bcd60e51b815260206004820152602b60248201527f496e697469616c697a61626c653a20636f6e7472616374206973206e6f74206960448201527f6e697469616c697a696e670000000000000000000000000000000000000000006064820152608401610768565b60656123f683826130d5565b50606661080982826130d5565b600054610100900460ff1661142d5760405162461bcd60e51b815260206004820152602b60248201527f496e697469616c697a61626c653a20636f6e7472616374206973206e6f74206960448201527f6e697469616c697a696e670000000000000000000000000000000000000000006064820152608401610768565b61248c84848484612850565b60018111156125035760405162461bcd60e51b815260206004820152603560248201527f455243373231456e756d657261626c653a20636f6e736563757469766520747260448201527f616e7366657273206e6f7420737570706f7274656400000000000000000000006064820152608401610768565b816001600160a01b03851661255f5761255a81609980546000838152609a60205260408120829055600182018355919091527f72a152ddfb8e864297c917af52ea6c1c68aead0fee1a62673fcc7e0c94979d000155565b612582565b836001600160a01b0316856001600160a01b0316146125825761258285826128d8565b6001600160a01b03841661259e5761259981612975565b6125c1565b846001600160a01b0316846001600160a01b0316146125c1576125c18482612a24565b5050505050565b6001600160a01b03821661261e5760405162461bcd60e51b815260206004820181905260248201527f4552433732313a206d696e7420746f20746865207a65726f20616464726573736044820152606401610768565b6000818152606760205260409020546001600160a01b0316156126835760405162461bcd60e51b815260206004820152601c60248201527f4552433732313a20746f6b656e20616c7265616479206d696e746564000000006044820152606401610768565b612691600083836001612000565b6000818152606760205260409020546001600160a01b0316156126f65760405162461bcd60e51b815260206004820152601c60248201527f4552433732313a20746f6b656e20616c7265616479206d696e746564000000006044820152606401610768565b6001600160a01b0382166000818152606860209081526040808320805460010190558483526067909152808220805473ffffffffffffffffffffffffffffffffffffffff19168417905551839291907fddf252ad1be2c89b69c2b068fc378daa952ba7f163c4a11628f55a4df523b3ef908290a45050565b6000807a184f03e93ff9f4daa797ed6e38ed64bf6a1f01000000000000000083106127b7577a184f03e93ff9f4daa797ed6e38ed64bf6a1f010000000000000000830492506040015b6d04ee2d6d415b85acef810000000083106127e3576d04ee2d6d415b85acef8100000000830492506020015b662386f26fc10000831061280157662386f26fc10000830492506010015b6305f5e1008310612819576305f5e100830492506008015b612710831061282d57612710830492506004015b6064831061283f576064830492506002015b600a83106106195760010192915050565b600181111561104d576001600160a01b03841615612896576001600160a01b03841660009081526068602052604081208054839290612890908490613686565b90915550505b6001600160a01b0383161561104d576001600160a01b038316600090815260686020526040812080548392906128cd908490613458565b909155505050505050565b600060016128e584610cfa565b6128ef9190613686565b600083815260986020526040902054909150808214612942576001600160a01b03841660009081526097602090815260408083208584528252808320548484528184208190558352609890915290208190555b5060009182526098602090815260408084208490556001600160a01b039094168352609781528383209183525290812055565b60995460009061298790600190613686565b6000838152609a6020526040812054609980549394509092849081106129af576129af612fdd565b9060005260206000200154905080609983815481106129d0576129d0612fdd565b6000918252602080832090910192909255828152609a90915260408082208490558582528120556099805480612a0857612a08613699565b6001900381819060005260206000200160009055905550505050565b6000612a2f83610cfa565b6001600160a01b039093166000908152609760209081526040808320868452825280832085905593825260989052919091209190915550565b7fffffffff000000000000000000000000000000000000000000000000000000008116811461143657600080fd5b600060208284031215612aa857600080fd5b8135612ab381612a68565b9392505050565b60005b83811015612ad5578181015183820152602001612abd565b50506000910152565b60008151808452612af6816020860160208601612aba565b601f01601f19169290920160200192915050565b602081526000612ab36020830184612ade565b600060208284031215612b2f57600080fd5b5035919050565b80356001600160a01b0381168114612b4d57600080fd5b919050565b60008060408385031215612b6557600080fd5b612b6e83612b36565b946020939093013593505050565b600080600060608486031215612b9157600080fd5b612b9a84612b36565b9250612ba860208501612b36565b9150604084013590509250925092565b60008060408385031215612bcb57600080fd5b50508035926020909101359150565b600060208284031215612bec57600080fd5b612ab382612b36565b6020808252825182820181905260009190848201906040850190845b81811015612c2d57835183529284019291840191600101612c11565b50909695505050505050565b60008060408385031215612c4c57600080fd5b612c5583612b36565b915060208301358015158114612c6a57600080fd5b809150509250929050565b60008060408385031215612c8857600080fd5b612c9183612b36565b9150602083013561ffff81168114612c6a57600080fd5b7f4e487b7100000000000000000000000000000000000000000000000000000000600052604160045260246000fd5b600067ffffffffffffffff80841115612cf257612cf2612ca8565b604051601f8501601f19908116603f01168101908282118183101715612d1a57612d1a612ca8565b81604052809350858152868686011115612d3357600080fd5b858560208301376000602087830101525050509392505050565b60008060008060808587031215612d6357600080fd5b612d6c85612b36565b9350612d7a60208601612b36565b925060408501359150606085013567ffffffffffffffff811115612d9d57600080fd5b8501601f81018713612dae57600080fd5b612dbd87823560208401612cd7565b91505092959194509250565b600082601f830112612dda57600080fd5b612ab383833560208501612cd7565b600060208284031215612dfb57600080fd5b813567ffffffffffffffff811115612e1257600080fd5b61169d84828501612dc9565b600080600080600080600060e0888a031215612e3957600080fd5b612e4288612b36565b9650612e5060208901612b36565b9550612e5e60408901612b36565b945060608801359350612e7360808901612b36565b925060a088013567ffffffffffffffff80821115612e9057600080fd5b612e9c8b838c01612dc9565b935060c08a0135915080821115612eb257600080fd5b50612ebf8a828b01612dc9565b91505092959891949750929550565b60008060408385031215612ee157600080fd5b612eea83612b36565b9150612ef860208401612b36565b90509250929050565b600181811c90821680612f1557607f821691505b602082108103612f4e577f4e487b7100000000000000000000000000000000000000000000000000000000600052602260045260246000fd5b50919050565b7f4e487b7100000000000000000000000000000000000000000000000000000000600052601160045260246000fd5b6000816000190483118215151615612f9d57612f9d612f54565b500290565b600082612fd8577f4e487b7100000000000000000000000000000000000000000000000000000000600052601260045260246000fd5b500490565b7f4e487b7100000000000000000000000000000000000000000000000000000000600052603260045260246000fd5b6000600019820361301f5761301f612f54565b5060010190565b60008151613038818560208601612aba565b9290920192915050565b7f646174613a6170706c69636174696f6e2f6a736f6e3b6261736536342c00000081526000825161307a81601d850160208701612aba565b91909101601d0192915050565b601f82111561080957600081815260208120601f850160051c810160208610156130ae5750805b601f850160051c820191505b818110156130cd578281556001016130ba565b505050505050565b815167ffffffffffffffff8111156130ef576130ef612ca8565b613103816130fd8454612f01565b84613087565b602080601f83116001811461313857600084156131205750858301515b600019600386901b1c1916600185901b1785556130cd565b600085815260208120601f198616915b8281101561316757888601518255948401946001909101908401613148565b50858210156131855787850151600019600388901b60f8161c191681555b5050505050600190811b01905550565b600061ffff8083168181036131ac576131ac612f54565b6001019392505050565b7f5b000000000000000000000000000000000000000000000000000000000000008152600083516131ee816001850160208801612aba565b7f2c00000000000000000000000000000000000000000000000000000000000000600191840191820152835161322b816002840160208801612aba565b7f5d0000000000000000000000000000000000000000000000000000000000000060029290910191820152600301949350505050565b7f7b0000000000000000000000000000000000000000000000000000000000000081527f226e616d65223a20225175657374205465726d696e616c204b6579222c00000060018201527f226465736372697074696f6e223a202241206b657920746861742063616e2062601e8201527f65207573656420746f206372656174652071756573747320696e207468652051603e8201527f75657374205465726d696e616c222c0000000000000000000000000000000000605e8201527f22696d616765223a202200000000000000000000000000000000000000000000606d82015260008451613357816077850160208901612aba565b7f222c0000000000000000000000000000000000000000000000000000000000006077918401918201527f22616e696d6174696f6e5f75726c223a20220000000000000000000000000000607982015284516133ba81608b840160208901612aba565b61344d61342461341e6133f5608b858701017f222c000000000000000000000000000000000000000000000000000000000000815260020190565b7f2261747472696275746573223a200000000000000000000000000000000000008152600e0190565b87613026565b7f7d00000000000000000000000000000000000000000000000000000000000000815260010190565b979650505050505050565b8082018082111561061957610619612f54565b60006001600160a01b0380871683528086166020840152508360408301526080606083015261349d6080830184612ade565b9695505050505050565b6000602082840312156134b957600080fd5b8151612ab381612a68565b7f7b0000000000000000000000000000000000000000000000000000000000000081527f2274726169745f74797065223a20220000000000000000000000000000000000600182015260008351613522816010850160208801612aba565b7f222c0000000000000000000000000000000000000000000000000000000000006010918401918201527f2276616c7565223a2022000000000000000000000000000000000000000000006012820152835161358581601c840160208801612aba565b7f2200000000000000000000000000000000000000000000000000000000000000601c92909101918201527f7d00000000000000000000000000000000000000000000000000000000000000601d820152601e01949350505050565b7f697066733a2f2f000000000000000000000000000000000000000000000000008152600060076000845461361581612f01565b6001828116801561362d576001811461364657613679565b60ff198416868901528583151584028901019450613679565b8860005260208060002060005b8581101561366e5781548b82018a0152908401908201613653565b505050858389010194505b5092979650505050505050565b8181038181111561061957610619612f54565b7f4e487b7100000000000000000000000000000000000000000000000000000000600052603160045260246000fdfe4142434445464748494a4b4c4d4e4f505152535455565758595a6162636465666768696a6b6c6d6e6f707172737475767778797a303132333435363738392b2fa26469706673582212201e3d476725c8d6767ebb0f6a5f93c193ed1c73178a788bd4e96ae46cc4fb342a64736f6c63430008100033",
  "devdoc": {
    "kind": "dev",
    "methods": {
      "approve(address,uint256)": {
        "details": "See {IERC721-approve}."
      },
      "balanceOf(address)": {
        "details": "See {IERC721-balanceOf}."
      },
      "constructor": {
        "custom:oz-upgrades-unsafe-allow": "constructor"
      },
      "getApproved(uint256)": {
        "details": "See {IERC721-getApproved}."
      },
      "getOwnedTokenIds(address)": {
        "details": "get the owned token ids of an address",
        "params": {
          "owner_": "the address to get the token ids of"
        }
      },
      "incrementUsedCount(uint256)": {
        "details": "increment used count",
        "params": {
          "tokenId_": "the token id"
        }
      },
      "isApprovedForAll(address,address)": {
        "details": "See {IERC721-isApprovedForAll}."
      },
      "mint(address,uint16)": {
        "details": "mint a QuestTerminalKey NFT",
        "params": {
          "discountPercentage_": "the discount percentage",
          "to_": "the address to mint to"
        }
      },
      "name()": {
        "details": "See {IERC721Metadata-name}."
      },
      "owner()": {
        "details": "Returns the address of the current owner."
      },
      "ownerOf(uint256)": {
        "details": "See {IERC721-ownerOf}."
      },
      "renounceOwnership()": {
        "details": "Leaves the contract without owner. It will not be possible to call `onlyOwner` functions anymore. Can only be called by the current owner. NOTE: Renouncing ownership will leave the contract without an owner, thereby removing any functionality that is only available to the owner."
      },
      "royaltyInfo(uint256,uint256)": {
        "details": "See {IERC165-royaltyInfo}",
        "params": {
          "salePrice_": "the sale price",
          "tokenId_": "the token id"
        }
      },
      "safeTransferFrom(address,address,uint256)": {
        "details": "See {IERC721-safeTransferFrom}."
      },
      "safeTransferFrom(address,address,uint256,bytes)": {
        "details": "See {IERC721-safeTransferFrom}."
      },
      "setAnimationUrlIPFSHash(string)": {
        "details": "set the animation URL IPFS hash",
        "params": {
          "animationUrlIPFSHash_": "the animation URL IPFS hash"
        }
      },
      "setApprovalForAll(address,bool)": {
        "details": "See {IERC721-setApprovalForAll}."
      },
      "setImageIPFSHash(string)": {
        "details": "set the image IPFS hash",
        "params": {
          "imageIPFSHash_": "the image IPFS hash"
        }
      },
      "setMinterAddress(address)": {
        "details": "set the minter address",
        "params": {
          "minterAddress_": "the address of the minter"
        }
      },
      "setQuestFactoryAddress(address)": {
        "details": "set the quest factory address",
        "params": {
          "questFactoryAddress_": "the address of the quest factory"
        }
      },
      "setRoyaltyFee(uint256)": {
        "details": "set the royalty fee",
        "params": {
          "royaltyFee_": "the royalty fee"
        }
      },
      "setRoyaltyRecipient(address)": {
        "details": "set the royalty recipient",
        "params": {
          "royaltyRecipient_": "the address of the royalty recipient"
        }
      },
      "supportsInterface(bytes4)": {
        "details": "returns true if the supplied interface id is supported",
        "params": {
          "interfaceId_": "the interface id"
        }
      },
      "symbol()": {
        "details": "See {IERC721Metadata-symbol}."
      },
      "tokenByIndex(uint256)": {
        "details": "See {IERC721Enumerable-tokenByIndex}."
      },
      "tokenOfOwnerByIndex(address,uint256)": {
        "details": "See {IERC721Enumerable-tokenOfOwnerByIndex}."
      },
      "tokenURI(uint256)": {
        "details": "returns the token uri",
        "params": {
          "tokenId_": "the token id"
        }
      },
      "totalSupply()": {
        "details": "See {IERC721Enumerable-totalSupply}."
      },
      "transferFrom(address,address,uint256)": {
        "details": "See {IERC721-transferFrom}."
      },
      "transferOwnership(address)": {
        "details": "Transfers ownership of the contract to a new account (`newOwner`). Can only be called by the current owner."
      }
    },
    "version": 1
  },
  "userdoc": {
    "kind": "user",
    "methods": {},
    "version": 1
  },
  "storageLayout": {
    "storage": [
      {
        "astId": 566,
        "contract": "contracts/QuestTerminalKey.sol:QuestTerminalKey",
        "label": "_initialized",
        "offset": 0,
        "slot": "0",
        "type": "t_uint8"
      },
      {
        "astId": 569,
        "contract": "contracts/QuestTerminalKey.sol:QuestTerminalKey",
        "label": "_initializing",
        "offset": 1,
        "slot": "0",
        "type": "t_bool"
      },
      {
        "astId": 2934,
        "contract": "contracts/QuestTerminalKey.sol:QuestTerminalKey",
        "label": "__gap",
        "offset": 0,
        "slot": "1",
        "type": "t_array(t_uint256)50_storage"
      },
      {
        "astId": 3588,
        "contract": "contracts/QuestTerminalKey.sol:QuestTerminalKey",
        "label": "__gap",
        "offset": 0,
        "slot": "51",
        "type": "t_array(t_uint256)50_storage"
      },
      {
        "astId": 957,
        "contract": "contracts/QuestTerminalKey.sol:QuestTerminalKey",
        "label": "_name",
        "offset": 0,
        "slot": "101",
        "type": "t_string_storage"
      },
      {
        "astId": 959,
        "contract": "contracts/QuestTerminalKey.sol:QuestTerminalKey",
        "label": "_symbol",
        "offset": 0,
        "slot": "102",
        "type": "t_string_storage"
      },
      {
        "astId": 963,
        "contract": "contracts/QuestTerminalKey.sol:QuestTerminalKey",
        "label": "_owners",
        "offset": 0,
        "slot": "103",
        "type": "t_mapping(t_uint256,t_address)"
      },
      {
        "astId": 967,
        "contract": "contracts/QuestTerminalKey.sol:QuestTerminalKey",
        "label": "_balances",
        "offset": 0,
        "slot": "104",
        "type": "t_mapping(t_address,t_uint256)"
      },
      {
        "astId": 971,
        "contract": "contracts/QuestTerminalKey.sol:QuestTerminalKey",
        "label": "_tokenApprovals",
        "offset": 0,
        "slot": "105",
        "type": "t_mapping(t_uint256,t_address)"
      },
      {
        "astId": 977,
        "contract": "contracts/QuestTerminalKey.sol:QuestTerminalKey",
        "label": "_operatorApprovals",
        "offset": 0,
        "slot": "106",
        "type": "t_mapping(t_address,t_mapping(t_address,t_bool))"
      },
      {
        "astId": 1897,
        "contract": "contracts/QuestTerminalKey.sol:QuestTerminalKey",
        "label": "__gap",
        "offset": 0,
        "slot": "107",
        "type": "t_array(t_uint256)44_storage"
      },
      {
        "astId": 2062,
        "contract": "contracts/QuestTerminalKey.sol:QuestTerminalKey",
        "label": "_ownedTokens",
        "offset": 0,
        "slot": "151",
        "type": "t_mapping(t_address,t_mapping(t_uint256,t_uint256))"
      },
      {
        "astId": 2066,
        "contract": "contracts/QuestTerminalKey.sol:QuestTerminalKey",
        "label": "_ownedTokensIndex",
        "offset": 0,
        "slot": "152",
        "type": "t_mapping(t_uint256,t_uint256)"
      },
      {
        "astId": 2069,
        "contract": "contracts/QuestTerminalKey.sol:QuestTerminalKey",
        "label": "_allTokens",
        "offset": 0,
        "slot": "153",
        "type": "t_array(t_uint256)dyn_storage"
      },
      {
        "astId": 2073,
        "contract": "contracts/QuestTerminalKey.sol:QuestTerminalKey",
        "label": "_allTokensIndex",
        "offset": 0,
        "slot": "154",
        "type": "t_mapping(t_uint256,t_uint256)"
      },
      {
        "astId": 2405,
        "contract": "contracts/QuestTerminalKey.sol:QuestTerminalKey",
        "label": "__gap",
        "offset": 0,
        "slot": "155",
        "type": "t_array(t_uint256)46_storage"
      },
      {
        "astId": 2434,
        "contract": "contracts/QuestTerminalKey.sol:QuestTerminalKey",
        "label": "_tokenURIs",
        "offset": 0,
        "slot": "201",
        "type": "t_mapping(t_uint256,t_string_storage)"
      },
      {
        "astId": 2550,
        "contract": "contracts/QuestTerminalKey.sol:QuestTerminalKey",
        "label": "__gap",
        "offset": 0,
        "slot": "202",
        "type": "t_array(t_uint256)49_storage"
      },
      {
        "astId": 7364,
        "contract": "contracts/QuestTerminalKey.sol:QuestTerminalKey",
        "label": "_owner",
        "offset": 0,
        "slot": "251",
        "type": "t_address"
      },
      {
        "astId": 7488,
        "contract": "contracts/QuestTerminalKey.sol:QuestTerminalKey",
        "label": "__gap",
        "offset": 0,
        "slot": "252",
        "type": "t_array(t_uint256)49_storage"
      },
      {
        "astId": 9234,
        "contract": "contracts/QuestTerminalKey.sol:QuestTerminalKey",
        "label": "_tokenIds",
        "offset": 0,
        "slot": "301",
        "type": "t_struct(Counter)2941_storage"
      },
      {
        "astId": 9236,
        "contract": "contracts/QuestTerminalKey.sol:QuestTerminalKey",
        "label": "royaltyRecipient",
        "offset": 0,
        "slot": "302",
        "type": "t_address"
      },
      {
        "astId": 9238,
        "contract": "contracts/QuestTerminalKey.sol:QuestTerminalKey",
        "label": "minterAddress",
        "offset": 0,
        "slot": "303",
        "type": "t_address"
      },
      {
        "astId": 9240,
        "contract": "contracts/QuestTerminalKey.sol:QuestTerminalKey",
        "label": "questFactoryAddress",
        "offset": 0,
        "slot": "304",
        "type": "t_address"
      },
      {
        "astId": 9242,
        "contract": "contracts/QuestTerminalKey.sol:QuestTerminalKey",
        "label": "royaltyFee",
        "offset": 0,
        "slot": "305",
        "type": "t_uint256"
      },
      {
        "astId": 9244,
        "contract": "contracts/QuestTerminalKey.sol:QuestTerminalKey",
        "label": "imageIPFSHash",
        "offset": 0,
        "slot": "306",
        "type": "t_string_storage"
      },
      {
        "astId": 9246,
        "contract": "contracts/QuestTerminalKey.sol:QuestTerminalKey",
        "label": "animationUrlIPFSHash",
        "offset": 0,
        "slot": "307",
        "type": "t_string_storage"
      },
      {
        "astId": 9251,
        "contract": "contracts/QuestTerminalKey.sol:QuestTerminalKey",
        "label": "discounts",
        "offset": 0,
        "slot": "308",
        "type": "t_mapping(t_uint256,t_struct(Discount)9256_storage)"
      }
    ],
    "types": {
      "t_address": {
        "encoding": "inplace",
        "label": "address",
        "numberOfBytes": "20"
      },
      "t_array(t_uint256)44_storage": {
        "base": "t_uint256",
        "encoding": "inplace",
        "label": "uint256[44]",
        "numberOfBytes": "1408"
      },
      "t_array(t_uint256)46_storage": {
        "base": "t_uint256",
        "encoding": "inplace",
        "label": "uint256[46]",
        "numberOfBytes": "1472"
      },
      "t_array(t_uint256)49_storage": {
        "base": "t_uint256",
        "encoding": "inplace",
        "label": "uint256[49]",
        "numberOfBytes": "1568"
      },
      "t_array(t_uint256)50_storage": {
        "base": "t_uint256",
        "encoding": "inplace",
        "label": "uint256[50]",
        "numberOfBytes": "1600"
      },
      "t_array(t_uint256)dyn_storage": {
        "base": "t_uint256",
        "encoding": "dynamic_array",
        "label": "uint256[]",
        "numberOfBytes": "32"
      },
      "t_bool": {
        "encoding": "inplace",
        "label": "bool",
        "numberOfBytes": "1"
      },
      "t_mapping(t_address,t_bool)": {
        "encoding": "mapping",
        "key": "t_address",
        "label": "mapping(address => bool)",
        "numberOfBytes": "32",
        "value": "t_bool"
      },
      "t_mapping(t_address,t_mapping(t_address,t_bool))": {
        "encoding": "mapping",
        "key": "t_address",
        "label": "mapping(address => mapping(address => bool))",
        "numberOfBytes": "32",
        "value": "t_mapping(t_address,t_bool)"
      },
      "t_mapping(t_address,t_mapping(t_uint256,t_uint256))": {
        "encoding": "mapping",
        "key": "t_address",
        "label": "mapping(address => mapping(uint256 => uint256))",
        "numberOfBytes": "32",
        "value": "t_mapping(t_uint256,t_uint256)"
      },
      "t_mapping(t_address,t_uint256)": {
        "encoding": "mapping",
        "key": "t_address",
        "label": "mapping(address => uint256)",
        "numberOfBytes": "32",
        "value": "t_uint256"
      },
      "t_mapping(t_uint256,t_address)": {
        "encoding": "mapping",
        "key": "t_uint256",
        "label": "mapping(uint256 => address)",
        "numberOfBytes": "32",
        "value": "t_address"
      },
      "t_mapping(t_uint256,t_string_storage)": {
        "encoding": "mapping",
        "key": "t_uint256",
        "label": "mapping(uint256 => string)",
        "numberOfBytes": "32",
        "value": "t_string_storage"
      },
      "t_mapping(t_uint256,t_struct(Discount)9256_storage)": {
        "encoding": "mapping",
        "key": "t_uint256",
        "label": "mapping(uint256 => struct QuestTerminalKey.Discount)",
        "numberOfBytes": "32",
        "value": "t_struct(Discount)9256_storage"
      },
      "t_mapping(t_uint256,t_uint256)": {
        "encoding": "mapping",
        "key": "t_uint256",
        "label": "mapping(uint256 => uint256)",
        "numberOfBytes": "32",
        "value": "t_uint256"
      },
      "t_string_storage": {
        "encoding": "bytes",
        "label": "string",
        "numberOfBytes": "32"
      },
      "t_struct(Counter)2941_storage": {
        "encoding": "inplace",
        "label": "struct CountersUpgradeable.Counter",
        "members": [
          {
            "astId": 2940,
            "contract": "contracts/QuestTerminalKey.sol:QuestTerminalKey",
            "label": "_value",
            "offset": 0,
            "slot": "0",
            "type": "t_uint256"
          }
        ],
        "numberOfBytes": "32"
      },
      "t_struct(Discount)9256_storage": {
        "encoding": "inplace",
        "label": "struct QuestTerminalKey.Discount",
        "members": [
          {
            "astId": 9253,
            "contract": "contracts/QuestTerminalKey.sol:QuestTerminalKey",
            "label": "percentage",
            "offset": 0,
            "slot": "0",
            "type": "t_uint16"
          },
          {
            "astId": 9255,
            "contract": "contracts/QuestTerminalKey.sol:QuestTerminalKey",
            "label": "usedCount",
            "offset": 2,
            "slot": "0",
            "type": "t_uint16"
          }
        ],
        "numberOfBytes": "32"
      },
      "t_uint16": {
        "encoding": "inplace",
        "label": "uint16",
        "numberOfBytes": "2"
      },
      "t_uint256": {
        "encoding": "inplace",
        "label": "uint256",
        "numberOfBytes": "32"
      },
      "t_uint8": {
        "encoding": "inplace",
        "label": "uint8",
        "numberOfBytes": "1"
      }
    }
  }
}