{
  "address": "0xD730Aef2379E8E0E5aD44A1D2e836bF7eC5e33b9",
  "abi": [
    {
      "inputs": [],
      "stateMutability": "nonpayable",
      "type": "constructor"
    },
    {
      "inputs": [],
      "name": "AlreadyClaimed",
      "type": "error"
    },
    {
      "inputs": [],
      "name": "AmountExceedsBalance",
      "type": "error"
    },
    {
      "inputs": [],
      "name": "ClaimWindowNotStarted",
      "type": "error"
    },
    {
      "inputs": [],
      "name": "EndTimeInPast",
      "type": "error"
    },
    {
      "inputs": [],
      "name": "EndTimeLessThanOrEqualToStartTime",
      "type": "error"
    },
    {
      "inputs": [],
      "name": "MustImplementInChild",
      "type": "error"
    },
    {
      "inputs": [],
      "name": "NoTokensToClaim",
      "type": "error"
    },
    {
      "inputs": [],
      "name": "NoWithdrawDuringClaim",
      "type": "error"
    },
    {
      "inputs": [],
      "name": "NotStarted",
      "type": "error"
    },
    {
      "inputs": [],
      "name": "StartTimeInPast",
      "type": "error"
    },
    {
      "inputs": [],
      "name": "TotalAmountExceedsBalance",
      "type": "error"
    },
    {
      "anonymous": false,
      "inputs": [
        {
          "indexed": true,
          "internalType": "address",
          "name": "account",
          "type": "address"
        },
        {
          "indexed": false,
          "internalType": "address",
          "name": "rewardAddress",
          "type": "address"
        },
        {
          "indexed": false,
          "internalType": "uint256",
          "name": "amount",
          "type": "uint256"
        }
      ],
      "name": "Claimed",
      "type": "event"
    },
    {
      "anonymous": false,
      "inputs": [
        {
          "indexed": false,
          "internalType": "uint8",
          "name": "version",
          "type": "uint8"
        }
      ],
      "name": "Initialized",
      "type": "event"
    },
    {
      "anonymous": false,
      "inputs": [
        {
          "indexed": true,
          "internalType": "address",
          "name": "previousOwner",
          "type": "address"
        },
        {
          "indexed": true,
          "internalType": "address",
          "name": "newOwner",
          "type": "address"
        }
      ],
      "name": "OwnershipTransferred",
      "type": "event"
    },
    {
      "anonymous": false,
      "inputs": [
        {
          "indexed": false,
          "internalType": "address",
          "name": "account",
          "type": "address"
        }
      ],
      "name": "Paused",
      "type": "event"
    },
    {
      "anonymous": false,
      "inputs": [
        {
          "indexed": false,
          "internalType": "uint256",
          "name": "timestamp",
          "type": "uint256"
        }
      ],
      "name": "Queued",
      "type": "event"
    },
    {
      "anonymous": false,
      "inputs": [
        {
          "indexed": false,
          "internalType": "address",
          "name": "account",
          "type": "address"
        }
      ],
      "name": "Unpaused",
      "type": "event"
    },
    {
      "inputs": [],
      "name": "claim",
      "outputs": [],
      "stateMutability": "nonpayable",
      "type": "function"
    },
    {
      "inputs": [],
      "name": "endTime",
      "outputs": [
        {
          "internalType": "uint256",
          "name": "",
          "type": "uint256"
        }
      ],
      "stateMutability": "view",
      "type": "function"
    },
    {
      "inputs": [],
      "name": "getRewardAmount",
      "outputs": [
        {
          "internalType": "uint256",
          "name": "",
          "type": "uint256"
        }
      ],
      "stateMutability": "view",
      "type": "function"
    },
    {
      "inputs": [],
      "name": "getRewardToken",
      "outputs": [
        {
          "internalType": "address",
          "name": "",
          "type": "address"
        }
      ],
      "stateMutability": "view",
      "type": "function"
    },
    {
      "inputs": [],
      "name": "hasWithdrawn",
      "outputs": [
        {
          "internalType": "bool",
          "name": "",
          "type": "bool"
        }
      ],
      "stateMutability": "view",
      "type": "function"
    },
    {
      "inputs": [
        {
          "internalType": "address",
          "name": "rewardTokenAddress_",
          "type": "address"
        },
        {
          "internalType": "uint256",
          "name": "endTime_",
          "type": "uint256"
        },
        {
          "internalType": "uint256",
          "name": "startTime_",
          "type": "uint256"
        },
        {
          "internalType": "uint256",
          "name": "totalParticipants_",
          "type": "uint256"
        },
        {
          "internalType": "uint256",
          "name": "rewardAmountInWeiOrTokenId_",
          "type": "uint256"
        },
        {
          "internalType": "string",
          "name": "questId_",
          "type": "string"
        },
        {
          "internalType": "address",
          "name": "receiptContractAddress_",
          "type": "address"
        },
        {
          "internalType": "uint16",
          "name": "questFee_",
          "type": "uint16"
        },
        {
          "internalType": "address",
          "name": "protocolFeeRecipient_",
          "type": "address"
        }
      ],
      "name": "initialize",
      "outputs": [],
      "stateMutability": "nonpayable",
      "type": "function"
    },
    {
      "inputs": [
        {
          "internalType": "uint256",
          "name": "tokenId_",
          "type": "uint256"
        }
      ],
      "name": "isClaimed",
      "outputs": [
        {
          "internalType": "bool",
          "name": "",
          "type": "bool"
        }
      ],
      "stateMutability": "view",
      "type": "function"
    },
    {
      "inputs": [],
      "name": "maxProtocolReward",
      "outputs": [
        {
          "internalType": "uint256",
          "name": "",
          "type": "uint256"
        }
      ],
      "stateMutability": "view",
      "type": "function"
    },
    {
      "inputs": [],
      "name": "maxTotalRewards",
      "outputs": [
        {
          "internalType": "uint256",
          "name": "",
          "type": "uint256"
        }
      ],
      "stateMutability": "view",
      "type": "function"
    },
    {
      "inputs": [],
      "name": "owner",
      "outputs": [
        {
          "internalType": "address",
          "name": "",
          "type": "address"
        }
      ],
      "stateMutability": "view",
      "type": "function"
    },
    {
      "inputs": [],
      "name": "pause",
      "outputs": [],
      "stateMutability": "nonpayable",
      "type": "function"
    },
    {
      "inputs": [],
      "name": "paused",
      "outputs": [
        {
          "internalType": "bool",
          "name": "",
          "type": "bool"
        }
      ],
      "stateMutability": "view",
      "type": "function"
    },
    {
      "inputs": [],
      "name": "protocolFee",
      "outputs": [
        {
          "internalType": "uint256",
          "name": "",
          "type": "uint256"
        }
      ],
      "stateMutability": "view",
      "type": "function"
    },
    {
      "inputs": [],
      "name": "protocolFeeRecipient",
      "outputs": [
        {
          "internalType": "address",
          "name": "",
          "type": "address"
        }
      ],
      "stateMutability": "view",
      "type": "function"
    },
    {
      "inputs": [],
      "name": "questFactoryContract",
      "outputs": [
        {
          "internalType": "contract QuestFactory",
          "name": "",
          "type": "address"
        }
      ],
      "stateMutability": "view",
      "type": "function"
    },
    {
      "inputs": [],
      "name": "questFee",
      "outputs": [
        {
          "internalType": "uint16",
          "name": "",
          "type": "uint16"
        }
      ],
      "stateMutability": "view",
      "type": "function"
    },
    {
      "inputs": [],
      "name": "questId",
      "outputs": [
        {
          "internalType": "string",
          "name": "",
          "type": "string"
        }
      ],
      "stateMutability": "view",
      "type": "function"
    },
    {
      "inputs": [
        {
          "internalType": "address",
          "name": "rewardTokenAddress_",
          "type": "address"
        },
        {
          "internalType": "uint256",
          "name": "endTime_",
          "type": "uint256"
        },
        {
          "internalType": "uint256",
          "name": "startTime_",
          "type": "uint256"
        },
        {
          "internalType": "uint256",
          "name": "totalParticipants_",
          "type": "uint256"
        },
        {
          "internalType": "uint256",
          "name": "rewardAmountInWeiOrTokenId_",
          "type": "uint256"
        },
        {
          "internalType": "string",
          "name": "questId_",
          "type": "string"
        },
        {
          "internalType": "address",
          "name": "receiptContractAddress_",
          "type": "address"
        }
      ],
      "name": "questInit",
      "outputs": [],
      "stateMutability": "nonpayable",
      "type": "function"
    },
    {
      "inputs": [],
      "name": "queue",
      "outputs": [],
      "stateMutability": "nonpayable",
      "type": "function"
    },
    {
      "inputs": [],
      "name": "queued",
      "outputs": [
        {
          "internalType": "bool",
          "name": "",
          "type": "bool"
        }
      ],
      "stateMutability": "view",
      "type": "function"
    },
    {
      "inputs": [],
      "name": "rabbitHoleReceiptContract",
      "outputs": [
        {
          "internalType": "contract RabbitHoleReceipt",
          "name": "",
          "type": "address"
        }
      ],
      "stateMutability": "view",
      "type": "function"
    },
    {
      "inputs": [],
      "name": "receiptRedeemers",
      "outputs": [
        {
          "internalType": "uint256",
          "name": "",
          "type": "uint256"
        }
      ],
      "stateMutability": "view",
      "type": "function"
    },
    {
      "inputs": [],
      "name": "redeemedTokens",
      "outputs": [
        {
          "internalType": "uint256",
          "name": "",
          "type": "uint256"
        }
      ],
      "stateMutability": "view",
      "type": "function"
    },
    {
      "inputs": [
        {
          "internalType": "address",
          "name": "erc20Address_",
          "type": "address"
        }
      ],
      "name": "refund",
      "outputs": [],
      "stateMutability": "nonpayable",
      "type": "function"
    },
    {
      "inputs": [],
      "name": "renounceOwnership",
      "outputs": [],
      "stateMutability": "nonpayable",
      "type": "function"
    },
    {
      "inputs": [],
      "name": "rewardAmountInWeiOrTokenId",
      "outputs": [
        {
          "internalType": "uint256",
          "name": "",
          "type": "uint256"
        }
      ],
      "stateMutability": "view",
      "type": "function"
    },
    {
      "inputs": [],
      "name": "rewardToken",
      "outputs": [
        {
          "internalType": "address",
          "name": "",
          "type": "address"
        }
      ],
      "stateMutability": "view",
      "type": "function"
    },
    {
      "inputs": [],
      "name": "startTime",
      "outputs": [
        {
          "internalType": "uint256",
          "name": "",
          "type": "uint256"
        }
      ],
      "stateMutability": "view",
      "type": "function"
    },
    {
      "inputs": [],
      "name": "totalParticipants",
      "outputs": [
        {
          "internalType": "uint256",
          "name": "",
          "type": "uint256"
        }
      ],
      "stateMutability": "view",
      "type": "function"
    },
    {
      "inputs": [
        {
          "internalType": "address",
          "name": "newOwner",
          "type": "address"
        }
      ],
      "name": "transferOwnership",
      "outputs": [],
      "stateMutability": "nonpayable",
      "type": "function"
    },
    {
      "inputs": [],
      "name": "unPause",
      "outputs": [],
      "stateMutability": "nonpayable",
      "type": "function"
    },
    {
      "inputs": [],
      "name": "withdrawRemainingTokens",
      "outputs": [],
      "stateMutability": "nonpayable",
      "type": "function"
    }
  ],
  "transactionHash": "0x2be79560832ccb4a9efef9bbdab8d340535f9feab091be72e8c9babf16f9b753",
  "args": [],
  "numDeployments": 1,
  "solcInputHash": "b3264e2ea64b2880e837019ad0a8060d",
  "bytecode": "0x608060405234801561001057600080fd5b50600160005561001e610023565b6100e3565b600154610100900460ff161561008f5760405162461bcd60e51b815260206004820152602760248201527f496e697469616c697a61626c653a20636f6e747261637420697320696e697469604482015266616c697a696e6760c81b606482015260840160405180910390fd5b60015460ff90811610156100e1576001805460ff191660ff9081179091556040519081527f7f26b83ff96e1f2b6a682f133852f6798a09c465da95921460cefb38474024989060200160405180910390a15b565b61235980620000f36000396000f3fe608060405234801561001057600080fd5b50600436106101f05760003560e01c80637b16e4291161010f578063d5229093116100a2578063f4c17a6b11610071578063f4c17a6b146103cb578063f7b188a5146103d3578063f7c618c1146103db578063fa89401a146103ee57600080fd5b8063d522909314610394578063d86b8739146103a7578063e10d29ee146103b0578063f2fde38b146103b857600080fd5b8063938299b6116100de578063938299b6146103485780639e34070f1461035b578063a26dbf2614610383578063b0e21e8a1461038c57600080fd5b80637b16e429146103145780638456cb59146103275780638afbf6691461032f5780638da5cb5b1461033757600080fd5b80635215153b1161018757806369940d791161015657806369940d79146102df5780636cb4e611146102f0578063715018a61461030357806378e979251461030b57600080fd5b80635215153b146102915780635c975abb1461029957806364df049e146102a457806367dfa3e7146102be57600080fd5b80633ef17b17116101c35780633ef17b171461023f57806344a22c361461026a5780634e71d92d1461027f5780634f51407c1461028957600080fd5b8063078cb26b146101f557806309a69f571461021157806316049ddf146102195780633197cbb614610236575b600080fd5b6101fe609e5481565b6040519081526020015b60405180910390f35b609e546101fe565b609f546102269060ff1681565b6040519015158152602001610208565b6101fe609b5481565b609854610252906001600160a01b031681565b6040516001600160a01b039091168152602001610208565b610272610401565b6040516102089190611c9d565b61028761048f565b005b6101fe610750565b6101fe610767565b60345460ff16610226565b60a35461025290630100000090046001600160a01b031681565b60a3546102cc9061ffff1681565b60405161ffff9091168152602001610208565b609a546001600160a01b0316610252565b60a3546102269062010000900460ff1681565b6102876107f3565b6101fe609c5481565b609954610252906001600160a01b031681565b610287610805565b610287610851565b6066546001600160a01b0316610252565b610287610356366004611dbc565b610bee565b610226610369366004611e6c565b600090815260a2602052604090205460ff16151560011490565b6101fe609d5481565b6101fe610d93565b6102876103a2366004611e85565b610e30565b6101fe60a15481565b610287611006565b6102876103c6366004611f0a565b611199565b6101fe611229565b6102876112a5565b609a54610252906001600160a01b031681565b6102876103fc366004611f0a565b6112f1565b60a0805461040e90611f2c565b80601f016020809104026020016040519081016040528092919081815260200182805461043a90611f2c565b80156104875780601f1061045c57610100808354040283529160200191610487565b820191906000526020600020905b81548152906001019060200180831161046a57829003601f168201915b505050505081565b610497611435565b609f5460ff166104d3576040517f6f312cbd00000000000000000000000000000000000000000000000000000000815260040160405180910390fd5b609c5442101561050f576040517fdd8133e600000000000000000000000000000000000000000000000000000000815260040160405180910390fd5b61051761148e565b6098546040517fb8d1ebfd0000000000000000000000000000000000000000000000000000000081526000916001600160a01b03169063b8d1ebfd906105649060a0903390600401611ffc565b600060405180830381865afa158015610581573d6000803e3d6000fd5b505050506040513d6000823e601f3d908101601f191682016040526105a99190810190612027565b905080516000036105e6576040517f0f3f861000000000000000000000000000000000000000000000000000000000815260040160405180910390fd5b6000805b825181101561068e57306001600160a01b0316639e34070f848381518110610614576106146120cd565b60200260200101516040518263ffffffff1660e01b815260040161063a91815260200190565b602060405180830381865afa158015610657573d6000803e3d6000fd5b505050506040513d601f19601f8201168201806040525081019061067b91906120fc565b610686576001909101905b6001016105ea565b50806000036106c9576040517f646cf55800000000000000000000000000000000000000000000000000000000815260040160405180910390fd5b60006106d4826114e1565b90506106df836114f7565b6106e88161154c565b8160a1546106f6919061214d565b60a155609a54604080516001600160a01b0390921682526020820183905233917ff7a40077ff7a04c7e61f6f26fb13774259ddf1b6bce9ecf26a8276cdd3992683910160405180910390a250505061074e6001600055565b565b6000609e54609d546107629190612160565b905090565b6099546040517f43ff27d10000000000000000000000000000000000000000000000000000000081526000916001600160a01b0316906343ff27d1906107b29060a09060040161217f565b602060405180830381865afa1580156107cf573d6000803e3d6000fd5b505050506040513d601f19601f820116820180604052508101906107629190612192565b6107fb611563565b61074e60006115bd565b61080d611563565b609f5460ff16610849576040517f6f312cbd00000000000000000000000000000000000000000000000000000000815260040160405180910390fd5b61074e611627565b60a354630100000090046001600160a01b031633148061087b57506066546001600160a01b031633145b6108f25760405162461bcd60e51b815260206004820152602360248201527f4e6f742070726f746f636f6c2066656520726563697069656e74206f72206f7760448201527f6e6572000000000000000000000000000000000000000000000000000000000060648201526084015b60405180910390fd5b609b5442101561092e576040517fee56a2b000000000000000000000000000000000000000000000000000000000815260040160405180910390fd5b60a35462010000900460ff16156109875760405162461bcd60e51b815260206004820152601160248201527f416c72656164792077697468647261776e00000000000000000000000000000060448201526064016108e9565b6000609e5460a154306001600160a01b0316635215153b6040518163ffffffff1660e01b8152600401602060405180830381865afa1580156109cd573d6000803e3d6000fd5b505050506040513d601f19601f820116820180604052508101906109f19190612192565b6109fb91906121ab565b610a059190612160565b9050600081306001600160a01b031663b0e21e8a6040518163ffffffff1660e01b8152600401602060405180830381865afa158015610a48573d6000803e3d6000fd5b505050506040513d601f19601f82011682018060405250810190610a6c9190612192565b609a546040517f70a082310000000000000000000000000000000000000000000000000000000081523060048201526001600160a01b03909116906370a0823190602401602060405180830381865afa158015610acd573d6000803e3d6000fd5b505050506040513d601f19601f82011682018060405250810190610af19190612192565b610afb91906121ab565b610b0591906121ab565b60a380547fffffffffffffffffffffffffffffffffffffffffffffffffffffffffff00ffff16620100001790559050610b5c610b496066546001600160a01b031690565b609a546001600160a01b03169083611682565b610bea60a360039054906101000a90046001600160a01b0316306001600160a01b031663b0e21e8a6040518163ffffffff1660e01b8152600401602060405180830381865afa158015610bb3573d6000803e3d6000fd5b505050506040513d601f19601f82011682018060405250810190610bd79190612192565b609a546001600160a01b03169190611682565b5050565b600154610100900460ff1615808015610c0b57506001805460ff16105b80610c245750303b158015610c2457506001805460ff16145b610c965760405162461bcd60e51b815260206004820152602e60248201527f496e697469616c697a61626c653a20636f6e747261637420697320616c72656160448201527f647920696e697469616c697a656400000000000000000000000000000000000060648201526084016108e9565b6001805460ff1916811790558015610cd557600180547fffffffffffffffffffffffffffffffffffffffffffffffffffffffffffff00ff166101001790555b610ce48a8a8a8a8a8a8a610e30565b60a380546001600160a01b0384166301000000027fffffffffffffffffff000000000000000000000000000000000000000000000090911661ffff8616171790558015610d8757600180547fffffffffffffffffffffffffffffffffffffffffffffffffffffffffffff00ff1681556040519081527f7f26b83ff96e1f2b6a682f133852f6798a09c465da95921460cefb38474024989060200160405180910390a15b50505050505050505050565b600061271060a360009054906101000a900461ffff1661ffff16609e54306001600160a01b0316635215153b6040518163ffffffff1660e01b8152600401602060405180830381865afa158015610dee573d6000803e3d6000fd5b505050506040513d601f19601f82011682018060405250810190610e129190612192565b610e1c9190612160565b610e269190612160565b61076291906121be565b600154610100900460ff16610ead5760405162461bcd60e51b815260206004820152602b60248201527f496e697469616c697a61626c653a20636f6e7472616374206973206e6f74206960448201527f6e697469616c697a696e6700000000000000000000000000000000000000000060648201526084016108e9565b428611610ee6576040517f72e54d4d00000000000000000000000000000000000000000000000000000000815260040160405180910390fd5b428511610f1f576040517f26e687eb00000000000000000000000000000000000000000000000000000000815260040160405180910390fd5b848611610f58576040517f693944c000000000000000000000000000000000000000000000000000000000815260040160405180910390fd5b609b869055609c859055609a80547fffffffffffffffffffffffff0000000000000000000000000000000000000000166001600160a01b038916179055609d849055609e83905560a0610fab8382612247565b5060998054337fffffffffffffffffffffffff000000000000000000000000000000000000000091821617909155609880549091166001600160a01b038316179055610ff5611702565b610ffd611787565b50505050505050565b306001600160a01b031663f4c17a6b6040518163ffffffff1660e01b8152600401602060405180830381865afa158015611044573d6000803e3d6000fd5b505050506040513d601f19601f820116820180604052508101906110689190612192565b306001600160a01b0316634f51407c6040518163ffffffff1660e01b8152600401602060405180830381865afa1580156110a6573d6000803e3d6000fd5b505050506040513d601f19601f820116820180604052508101906110ca9190612192565b6110d4919061214d565b609a546040517f70a082310000000000000000000000000000000000000000000000000000000081523060048201526001600160a01b03909116906370a0823190602401602060405180830381865afa158015611135573d6000803e3d6000fd5b505050506040513d601f19601f820116820180604052508101906111599190612192565b1015611191576040517fdfae425d00000000000000000000000000000000000000000000000000000000815260040160405180910390fd5b61074e61180c565b6111a1611563565b6001600160a01b03811661121d5760405162461bcd60e51b815260206004820152602660248201527f4f776e61626c653a206e6577206f776e657220697320746865207a65726f206160448201527f646472657373000000000000000000000000000000000000000000000000000060648201526084016108e9565b611226816115bd565b50565b600061271060a360009054906101000a900461ffff1661ffff16306001600160a01b0316634f51407c6040518163ffffffff1660e01b8152600401602060405180830381865afa158015611281573d6000803e3d6000fd5b505050506040513d601f19601f82011682018060405250810190610e1c9190612192565b6112ad611563565b609f5460ff166112e9576040517f6f312cbd00000000000000000000000000000000000000000000000000000000815260040160405180910390fd5b61074e611853565b6112f9611563565b609a546001600160a01b03908116908216036113575760405162461bcd60e51b815260206004820152601a60248201527f43616e6e6f7420726566756e642072657761726420746f6b656e00000000000060448201526064016108e9565b47801561138d57604051339082156108fc029083906000818181858888f1935050505015801561138b573d6000803e3d6000fd5b505b6040517f70a082310000000000000000000000000000000000000000000000000000000081523060048201526000906001600160a01b038416906370a0823190602401602060405180830381865afa1580156113ed573d6000803e3d6000fd5b505050506040513d601f19601f820116820180604052508101906114119190612192565b9050801561143057609a54611430906001600160a01b03163383611682565b505050565b6002600054036114875760405162461bcd60e51b815260206004820152601f60248201527f5265656e7472616e637947756172643a207265656e7472616e742063616c6c0060448201526064016108e9565b6002600055565b60345460ff161561074e5760405162461bcd60e51b815260206004820152601060248201527f5061757361626c653a207061757365640000000000000000000000000000000060448201526064016108e9565b6000609e54826114f19190612160565b92915050565b60005b8151811015610bea57600160a2600084848151811061151b5761151b6120cd565b6020908102919091018101518252810191909152604001600020805460ff19169115159190911790556001016114fa565b609a54611226906001600160a01b03163383611682565b6066546001600160a01b0316331461074e5760405162461bcd60e51b815260206004820181905260248201527f4f776e61626c653a2063616c6c6572206973206e6f7420746865206f776e657260448201526064016108e9565b606680546001600160a01b038381167fffffffffffffffffffffffff0000000000000000000000000000000000000000831681179093556040519116919082907f8be0079c531659141344cd1fd0a4f28419497f9722a3daafe3b4186f6b6457e090600090a35050565b61162f61148e565b6034805460ff191660011790557f62e78cea01bee320cd4e420270b5ea74000d11b0c9f74754ebdbfc544b05a2586116643390565b6040516001600160a01b0390911681526020015b60405180910390a1565b604080516001600160a01b038416602482015260448082018490528251808303909101815260649091019091526020810180517bffffffffffffffffffffffffffffffffffffffffffffffffffffffff167fa9059cbb0000000000000000000000000000000000000000000000000000000017905261143090849061188c565b600154610100900460ff1661177f5760405162461bcd60e51b815260206004820152602b60248201527f496e697469616c697a61626c653a20636f6e7472616374206973206e6f74206960448201527f6e697469616c697a696e6700000000000000000000000000000000000000000060648201526084016108e9565b61074e611971565b600154610100900460ff166118045760405162461bcd60e51b815260206004820152602b60248201527f496e697469616c697a61626c653a20636f6e7472616374206973206e6f74206960448201527f6e697469616c697a696e6700000000000000000000000000000000000000000060648201526084016108e9565b61074e6119f7565b611814611563565b609f805460ff191660011790556040517f2dba1d9e78f3192742fc9d510383d669fe8a4fa03d039bd7382ef67119078af7906116789042815260200190565b61185b611a80565b6034805460ff191690557f5db9ee0a495bf2e6ff9c91a7834c1ba4fdd244a5e8aa4e537bd38aeae4b073aa33611664565b60006118e1826040518060400160405280602081526020017f5361666545524332303a206c6f772d6c6576656c2063616c6c206661696c6564815250856001600160a01b0316611ad29092919063ffffffff16565b80519091501561143057808060200190518101906118ff91906120fc565b6114305760405162461bcd60e51b815260206004820152602a60248201527f5361666545524332303a204552433230206f7065726174696f6e20646964206e60448201527f6f7420737563636565640000000000000000000000000000000000000000000060648201526084016108e9565b600154610100900460ff166119ee5760405162461bcd60e51b815260206004820152602b60248201527f496e697469616c697a61626c653a20636f6e7472616374206973206e6f74206960448201527f6e697469616c697a696e6700000000000000000000000000000000000000000060648201526084016108e9565b61074e336115bd565b600154610100900460ff16611a745760405162461bcd60e51b815260206004820152602b60248201527f496e697469616c697a61626c653a20636f6e7472616374206973206e6f74206960448201527f6e697469616c697a696e6700000000000000000000000000000000000000000060648201526084016108e9565b6034805460ff19169055565b60345460ff1661074e5760405162461bcd60e51b815260206004820152601460248201527f5061757361626c653a206e6f742070617573656400000000000000000000000060448201526064016108e9565b6060611ae18484600085611ae9565b949350505050565b606082471015611b615760405162461bcd60e51b815260206004820152602660248201527f416464726573733a20696e73756666696369656e742062616c616e636520666f60448201527f722063616c6c000000000000000000000000000000000000000000000000000060648201526084016108e9565b600080866001600160a01b03168587604051611b7d9190612307565b60006040518083038185875af1925050503d8060008114611bba576040519150601f19603f3d011682016040523d82523d6000602084013e611bbf565b606091505b5091509150611bd087838387611bdb565b979650505050505050565b60608315611c4a578251600003611c43576001600160a01b0385163b611c435760405162461bcd60e51b815260206004820152601d60248201527f416464726573733a2063616c6c20746f206e6f6e2d636f6e747261637400000060448201526064016108e9565b5081611ae1565b611ae18383815115611c5f5781518083602001fd5b8060405162461bcd60e51b81526004016108e99190611c9d565b60005b83811015611c94578181015183820152602001611c7c565b50506000910152565b6020815260008251806020840152611cbc816040850160208701611c79565b601f01601f19169190910160400192915050565b80356001600160a01b0381168114611ce757600080fd5b919050565b7f4e487b7100000000000000000000000000000000000000000000000000000000600052604160045260246000fd5b604051601f8201601f1916810167ffffffffffffffff81118282101715611d4457611d44611cec565b604052919050565b600082601f830112611d5d57600080fd5b813567ffffffffffffffff811115611d7757611d77611cec565b611d8a6020601f19601f84011601611d1b565b818152846020838601011115611d9f57600080fd5b816020850160208301376000918101602001919091529392505050565b60008060008060008060008060006101208a8c031215611ddb57600080fd5b611de48a611cd0565b985060208a0135975060408a0135965060608a0135955060808a0135945060a08a013567ffffffffffffffff811115611e1c57600080fd5b611e288c828d01611d4c565b945050611e3760c08b01611cd0565b925060e08a013561ffff81168114611e4e57600080fd5b9150611e5d6101008b01611cd0565b90509295985092959850929598565b600060208284031215611e7e57600080fd5b5035919050565b600080600080600080600060e0888a031215611ea057600080fd5b611ea988611cd0565b96506020880135955060408801359450606088013593506080880135925060a088013567ffffffffffffffff811115611ee157600080fd5b611eed8a828b01611d4c565b925050611efc60c08901611cd0565b905092959891949750929550565b600060208284031215611f1c57600080fd5b611f2582611cd0565b9392505050565b600181811c90821680611f4057607f821691505b602082108103611f79577f4e487b7100000000000000000000000000000000000000000000000000000000600052602260045260246000fd5b50919050565b60008154611f8c81611f2c565b808552602060018381168015611fa95760018114611fc357611ff1565b60ff198516838901528284151560051b8901019550611ff1565b866000528260002060005b85811015611fe95781548a8201860152908301908401611fce565b890184019650505b505050505092915050565b60408152600061200f6040830185611f7f565b90506001600160a01b03831660208301529392505050565b6000602080838503121561203a57600080fd5b825167ffffffffffffffff8082111561205257600080fd5b818501915085601f83011261206657600080fd5b81518181111561207857612078611cec565b8060051b9150612089848301611d1b565b81815291830184019184810190888411156120a357600080fd5b938501935b838510156120c1578451825293850193908501906120a8565b98975050505050505050565b7f4e487b7100000000000000000000000000000000000000000000000000000000600052603260045260246000fd5b60006020828403121561210e57600080fd5b81518015158114611f2557600080fd5b7f4e487b7100000000000000000000000000000000000000000000000000000000600052601160045260246000fd5b808201808211156114f1576114f161211e565b600081600019048311821515161561217a5761217a61211e565b500290565b602081526000611f256020830184611f7f565b6000602082840312156121a457600080fd5b5051919050565b818103818111156114f1576114f161211e565b6000826121f4577f4e487b7100000000000000000000000000000000000000000000000000000000600052601260045260246000fd5b500490565b601f82111561143057600081815260208120601f850160051c810160208610156122205750805b601f850160051c820191505b8181101561223f5782815560010161222c565b505050505050565b815167ffffffffffffffff81111561226157612261611cec565b6122758161226f8454611f2c565b846121f9565b602080601f8311600181146122aa57600084156122925750858301515b600019600386901b1c1916600185901b17855561223f565b600085815260208120601f198616915b828110156122d9578886015182559484019460019091019084016122ba565b50858210156122f75787850151600019600388901b60f8161c191681555b5050505050600190811b01905550565b60008251612319818460208701611c79565b919091019291505056fea2646970667358221220f411272048fb6788dd0efe1479e413150de60502c20d91994797dafb986674f964736f6c63430008100033",
  "devdoc": {
    "author": "RabbitHole.gg",
    "kind": "dev",
    "methods": {
      "claim()": {
        "details": "User can claim based on the (unclaimed) number of tokens they own of the Quest"
      },
      "constructor": {
        "custom:oz-upgrades-unsafe-allow": "constructor"
      },
      "getRewardAmount()": {
        "details": "Returns the reward amount"
      },
      "getRewardToken()": {
        "details": "Returns the reward token address"
      },
      "isClaimed(uint256)": {
        "params": {
          "tokenId_": "The token id to check"
        }
      },
      "maxProtocolReward()": {
        "details": "The 10_000 comes from Basis Points: https://www.investopedia.com/terms/b/basispoint.asp",
        "returns": {
          "_0": "The maximum amount of rewards that can be claimed by the protocol or the quest deployer"
        }
      },
      "maxTotalRewards()": {
        "details": "Function that gets the maximum amount of rewards that can be claimed by all users. It does not include the protocol fee",
        "returns": {
          "_0": "The maximum amount of rewards that can be claimed by all users"
        }
      },
      "owner()": {
        "details": "Returns the address of the current owner."
      },
      "pause()": {
        "details": "Only the owner of the Quest can call this function. Also requires that the Quest has started (not by date, but by calling the start function)"
      },
      "paused()": {
        "details": "Returns true if the contract is paused, and false otherwise."
      },
      "queue()": {
        "details": "Requires that the balance of the rewards in the contract is greater than or equal to the maximum amount of rewards that can be claimed by all users and the protocol"
      },
      "receiptRedeemers()": {
        "returns": {
          "_0": "The amount of receipts that have been minted for the given quest"
        }
      },
      "refund(address)": {
        "details": "transfer all coins and tokens that is not the rewardToken to the contract owner.",
        "params": {
          "erc20Address_": "The address of the ERC20 token to refund"
        }
      },
      "renounceOwnership()": {
        "details": "Leaves the contract without owner. It will not be possible to call `onlyOwner` functions anymore. Can only be called by the current owner. NOTE: Renouncing ownership will leave the contract without an owner, thereby removing any functionality that is only available to the owner."
      },
      "transferOwnership(address)": {
        "details": "Transfers ownership of the contract to a new account (`newOwner`). Can only be called by the current owner."
      },
      "unPause()": {
        "details": "Only the owner of the Quest can call this function. Also requires that the Quest has started (not by date, but by calling the start function)"
      },
      "withdrawRemainingTokens()": {
        "details": "Every receipt minted should still be able to claim rewards (and cannot be withdrawn). This function can only be called after the quest end time"
      }
    },
    "title": "Erc20Quest",
    "version": 1
  },
  "userdoc": {
    "kind": "user",
    "methods": {
      "claim()": {
        "notice": "Allows user to claim the rewards entitled to them"
      },
      "isClaimed(uint256)": {
        "notice": "Checks if a Receipt token id has been used to claim a reward"
      },
      "maxProtocolReward()": {
        "notice": "Function that gets the maximum amount of rewards that can be claimed by the protocol or the quest deployer"
      },
      "pause()": {
        "notice": "Pauses the Quest"
      },
      "protocolFee()": {
        "notice": "Function that calculates the protocol fee"
      },
      "queue()": {
        "notice": "Queues the quest by marking it ready to start at the contract level. Marking a quest as queued does not mean that it is live. It also requires that the start time has passed"
      },
      "unPause()": {
        "notice": "Unpauses the Quest"
      },
      "withdrawRemainingTokens()": {
        "notice": "Function that allows either the protocol fee recipient or the owner to withdraw the remaining tokens in the contract"
      }
    },
    "notice": "This contract is used to create a quest that rewards ERC20 tokens.",
    "version": 1
  },
  "storageLayout": {
    "storage": [
      {
        "astId": 5996,
        "contract": "contracts/Erc20Quest.sol:Erc20Quest",
        "label": "_status",
        "offset": 0,
        "slot": "0",
        "type": "t_uint256"
      },
      {
        "astId": 566,
        "contract": "contracts/Erc20Quest.sol:Erc20Quest",
        "label": "_initialized",
        "offset": 0,
        "slot": "1",
        "type": "t_uint8"
      },
      {
        "astId": 569,
        "contract": "contracts/Erc20Quest.sol:Erc20Quest",
        "label": "_initializing",
        "offset": 1,
        "slot": "1",
        "type": "t_bool"
      },
      {
        "astId": 4373,
        "contract": "contracts/Erc20Quest.sol:Erc20Quest",
        "label": "__gap",
        "offset": 0,
        "slot": "2",
        "type": "t_array(t_uint256)50_storage"
      },
      {
        "astId": 749,
        "contract": "contracts/Erc20Quest.sol:Erc20Quest",
        "label": "_paused",
        "offset": 0,
        "slot": "52",
        "type": "t_bool"
      },
      {
        "astId": 854,
        "contract": "contracts/Erc20Quest.sol:Erc20Quest",
        "label": "__gap",
        "offset": 0,
        "slot": "53",
        "type": "t_array(t_uint256)49_storage"
      },
      {
        "astId": 419,
        "contract": "contracts/Erc20Quest.sol:Erc20Quest",
        "label": "_owner",
        "offset": 0,
        "slot": "102",
        "type": "t_address"
      },
      {
        "astId": 539,
        "contract": "contracts/Erc20Quest.sol:Erc20Quest",
        "label": "__gap",
        "offset": 0,
        "slot": "103",
        "type": "t_array(t_uint256)49_storage"
      },
      {
        "astId": 10976,
        "contract": "contracts/Erc20Quest.sol:Erc20Quest",
        "label": "rabbitHoleReceiptContract",
        "offset": 0,
        "slot": "152",
        "type": "t_contract(RabbitHoleReceipt)12748"
      },
      {
        "astId": 10979,
        "contract": "contracts/Erc20Quest.sol:Erc20Quest",
        "label": "questFactoryContract",
        "offset": 0,
        "slot": "153",
        "type": "t_contract(QuestFactory)12182"
      },
      {
        "astId": 10981,
        "contract": "contracts/Erc20Quest.sol:Erc20Quest",
        "label": "rewardToken",
        "offset": 0,
        "slot": "154",
        "type": "t_address"
      },
      {
        "astId": 10983,
        "contract": "contracts/Erc20Quest.sol:Erc20Quest",
        "label": "endTime",
        "offset": 0,
        "slot": "155",
        "type": "t_uint256"
      },
      {
        "astId": 10985,
        "contract": "contracts/Erc20Quest.sol:Erc20Quest",
        "label": "startTime",
        "offset": 0,
        "slot": "156",
        "type": "t_uint256"
      },
      {
        "astId": 10987,
        "contract": "contracts/Erc20Quest.sol:Erc20Quest",
        "label": "totalParticipants",
        "offset": 0,
        "slot": "157",
        "type": "t_uint256"
      },
      {
        "astId": 10989,
        "contract": "contracts/Erc20Quest.sol:Erc20Quest",
        "label": "rewardAmountInWeiOrTokenId",
        "offset": 0,
        "slot": "158",
        "type": "t_uint256"
      },
      {
        "astId": 10991,
        "contract": "contracts/Erc20Quest.sol:Erc20Quest",
        "label": "queued",
        "offset": 0,
        "slot": "159",
        "type": "t_bool"
      },
      {
        "astId": 10993,
        "contract": "contracts/Erc20Quest.sol:Erc20Quest",
        "label": "questId",
        "offset": 0,
        "slot": "160",
        "type": "t_string_storage"
      },
      {
        "astId": 10995,
        "contract": "contracts/Erc20Quest.sol:Erc20Quest",
        "label": "redeemedTokens",
        "offset": 0,
        "slot": "161",
        "type": "t_uint256"
      },
      {
        "astId": 10999,
        "contract": "contracts/Erc20Quest.sol:Erc20Quest",
        "label": "claimedList",
        "offset": 0,
        "slot": "162",
        "type": "t_mapping(t_uint256,t_bool)"
      },
      {
        "astId": 10551,
        "contract": "contracts/Erc20Quest.sol:Erc20Quest",
        "label": "questFee",
        "offset": 0,
        "slot": "163",
        "type": "t_uint16"
      },
      {
        "astId": 10553,
        "contract": "contracts/Erc20Quest.sol:Erc20Quest",
        "label": "hasWithdrawn",
        "offset": 2,
        "slot": "163",
        "type": "t_bool"
      },
      {
        "astId": 10555,
        "contract": "contracts/Erc20Quest.sol:Erc20Quest",
        "label": "protocolFeeRecipient",
        "offset": 3,
        "slot": "163",
        "type": "t_address"
      }
    ],
    "types": {
      "t_address": {
        "encoding": "inplace",
        "label": "address",
        "numberOfBytes": "20"
      },
      "t_array(t_uint256)49_storage": {
        "base": "t_uint256",
        "encoding": "inplace",
        "label": "uint256[49]",
        "numberOfBytes": "1568"
      },
      "t_array(t_uint256)50_storage": {
        "base": "t_uint256",
        "encoding": "inplace",
        "label": "uint256[50]",
        "numberOfBytes": "1600"
      },
      "t_bool": {
        "encoding": "inplace",
        "label": "bool",
        "numberOfBytes": "1"
      },
      "t_contract(QuestFactory)12182": {
        "encoding": "inplace",
        "label": "contract QuestFactory",
        "numberOfBytes": "20"
      },
      "t_contract(RabbitHoleReceipt)12748": {
        "encoding": "inplace",
        "label": "contract RabbitHoleReceipt",
        "numberOfBytes": "20"
      },
      "t_mapping(t_uint256,t_bool)": {
        "encoding": "mapping",
        "key": "t_uint256",
        "label": "mapping(uint256 => bool)",
        "numberOfBytes": "32",
        "value": "t_bool"
      },
      "t_string_storage": {
        "encoding": "bytes",
        "label": "string",
        "numberOfBytes": "32"
      },
      "t_uint16": {
        "encoding": "inplace",
        "label": "uint16",
        "numberOfBytes": "2"
      },
      "t_uint256": {
        "encoding": "inplace",
        "label": "uint256",
        "numberOfBytes": "32"
      },
      "t_uint8": {
        "encoding": "inplace",
        "label": "uint8",
        "numberOfBytes": "1"
      }
    }
  }
}