{
	"contractName": "QuestFactory",
	"address": "0xf0cEe4D873F44Ed0165e33DC84f0E93DA349FfE4",
	"abi": [
		{
			"inputs": [],
			"name": "AddressAlreadyMinted",
			"type": "error"
		},
		{
			"inputs": [],
			"name": "AddressNotSigned",
			"type": "error"
		},
		{
			"inputs": [],
			"name": "AddressZeroNotAllowed",
			"type": "error"
		},
		{
			"inputs": [],
			"name": "InvalidHash",
			"type": "error"
		},
		{
			"inputs": [],
			"name": "OnlyOwnerCanCreate1155Quest",
			"type": "error"
		},
		{
			"inputs": [],
			"name": "OverMaxAllowedToMint",
			"type": "error"
		},
		{
			"inputs": [],
			"name": "QuestEnded",
			"type": "error"
		},
		{
			"inputs": [],
			"name": "QuestFeeTooHigh",
			"type": "error"
		},
		{
			"inputs": [],
			"name": "QuestIdUsed",
			"type": "error"
		},
		{
			"inputs": [],
			"name": "QuestNotStarted",
			"type": "error"
		},
		{
			"inputs": [],
			"name": "QuestTypeInvalid",
			"type": "error"
		},
		{
			"inputs": [],
			"name": "RewardNotAllowed",
			"type": "error"
		},
		{
			"anonymous": false,
			"inputs": [
				{
					"indexed": false,
					"internalType": "uint8",
					"name": "version",
					"type": "uint8"
				}
			],
			"name": "Initialized",
			"type": "event"
		},
		{
			"anonymous": false,
			"inputs": [
				{
					"indexed": true,
					"internalType": "address",
					"name": "previousOwner",
					"type": "address"
				},
				{
					"indexed": true,
					"internalType": "address",
					"name": "newOwner",
					"type": "address"
				}
			],
			"name": "OwnershipTransferred",
			"type": "event"
		},
		{
			"anonymous": false,
			"inputs": [
				{
					"indexed": true,
					"internalType": "address",
					"name": "creator",
					"type": "address"
				},
				{
					"indexed": true,
					"internalType": "address",
					"name": "contractAddress",
					"type": "address"
				},
				{
					"indexed": false,
					"internalType": "string",
					"name": "questId",
					"type": "string"
				},
				{
					"indexed": false,
					"internalType": "string",
					"name": "contractType",
					"type": "string"
				},
				{
					"indexed": false,
					"internalType": "address",
					"name": "rewardTokenAddress",
					"type": "address"
				},
				{
					"indexed": false,
					"internalType": "uint256",
					"name": "endTime",
					"type": "uint256"
				},
				{
					"indexed": false,
					"internalType": "uint256",
					"name": "startTime",
					"type": "uint256"
				},
				{
					"indexed": false,
					"internalType": "uint256",
					"name": "totalParticipants",
					"type": "uint256"
				},
				{
					"indexed": false,
					"internalType": "uint256",
					"name": "rewardAmountOrTokenId",
					"type": "uint256"
				}
			],
			"name": "QuestCreated",
			"type": "event"
		},
		{
			"anonymous": false,
			"inputs": [
				{
					"indexed": true,
					"internalType": "address",
					"name": "recipient",
					"type": "address"
				},
				{
					"indexed": true,
					"internalType": "address",
					"name": "questAddress",
					"type": "address"
				},
				{
					"indexed": true,
					"internalType": "uint256",
					"name": "tokenId",
					"type": "uint256"
				},
				{
					"indexed": false,
					"internalType": "string",
					"name": "questId",
					"type": "string"
				}
			],
			"name": "ReceiptMinted",
			"type": "event"
		},
		{
			"anonymous": false,
			"inputs": [
				{
					"indexed": true,
					"internalType": "bytes32",
					"name": "role",
					"type": "bytes32"
				},
				{
					"indexed": true,
					"internalType": "bytes32",
					"name": "previousAdminRole",
					"type": "bytes32"
				},
				{
					"indexed": true,
					"internalType": "bytes32",
					"name": "newAdminRole",
					"type": "bytes32"
				}
			],
			"name": "RoleAdminChanged",
			"type": "event"
		},
		{
			"anonymous": false,
			"inputs": [
				{
					"indexed": true,
					"internalType": "bytes32",
					"name": "role",
					"type": "bytes32"
				},
				{
					"indexed": true,
					"internalType": "address",
					"name": "account",
					"type": "address"
				},
				{
					"indexed": true,
					"internalType": "address",
					"name": "sender",
					"type": "address"
				}
			],
			"name": "RoleGranted",
			"type": "event"
		},
		{
			"anonymous": false,
			"inputs": [
				{
					"indexed": true,
					"internalType": "bytes32",
					"name": "role",
					"type": "bytes32"
				},
				{
					"indexed": true,
					"internalType": "address",
					"name": "account",
					"type": "address"
				},
				{
					"indexed": true,
					"internalType": "address",
					"name": "sender",
					"type": "address"
				}
			],
			"name": "RoleRevoked",
			"type": "event"
		},
		{
			"inputs": [],
			"name": "CREATE_QUEST_ROLE",
			"outputs": [
				{
					"internalType": "bytes32",
					"name": "",
					"type": "bytes32"
				}
			],
			"stateMutability": "view",
			"type": "function"
		},
		{
			"inputs": [],
			"name": "DEFAULT_ADMIN_ROLE",
			"outputs": [
				{
					"internalType": "bytes32",
					"name": "",
					"type": "bytes32"
				}
			],
			"stateMutability": "view",
			"type": "function"
		},
		{
			"inputs": [],
			"name": "ERC1155",
			"outputs": [
				{
					"internalType": "bytes32",
					"name": "",
					"type": "bytes32"
				}
			],
			"stateMutability": "view",
			"type": "function"
		},
		{
			"inputs": [],
			"name": "ERC20",
			"outputs": [
				{
					"internalType": "bytes32",
					"name": "",
					"type": "bytes32"
				}
			],
			"stateMutability": "view",
			"type": "function"
		},
		{
			"inputs": [],
			"name": "claimSignerAddress",
			"outputs": [
				{
					"internalType": "address",
					"name": "",
					"type": "address"
				}
			],
			"stateMutability": "view",
			"type": "function"
		},
		{
			"inputs": [
				{
					"internalType": "address",
					"name": "rewardTokenAddress_",
					"type": "address"
				},
				{
					"internalType": "uint256",
					"name": "endTime_",
					"type": "uint256"
				},
				{
					"internalType": "uint256",
					"name": "startTime_",
					"type": "uint256"
				},
				{
					"internalType": "uint256",
					"name": "totalParticipants_",
					"type": "uint256"
				},
				{
					"internalType": "uint256",
					"name": "rewardAmountOrTokenId_",
					"type": "uint256"
				},
				{
					"internalType": "string",
					"name": "contractType_",
					"type": "string"
				},
				{
					"internalType": "string",
					"name": "questId_",
					"type": "string"
				}
			],
			"name": "createQuest",
			"outputs": [
				{
					"internalType": "address",
					"name": "",
					"type": "address"
				}
			],
			"stateMutability": "nonpayable",
			"type": "function"
		},
		{
			"inputs": [],
			"name": "erc1155QuestAddress",
			"outputs": [
				{
					"internalType": "address",
					"name": "",
					"type": "address"
				}
			],
			"stateMutability": "view",
			"type": "function"
		},
		{
			"inputs": [],
			"name": "erc20QuestAddress",
			"outputs": [
				{
					"internalType": "address",
					"name": "",
					"type": "address"
				}
			],
			"stateMutability": "view",
			"type": "function"
		},
		{
			"inputs": [
				{
					"internalType": "string",
					"name": "questId_",
					"type": "string"
				},
				{
					"internalType": "address",
					"name": "address_",
					"type": "address"
				}
			],
			"name": "getAddressMinted",
			"outputs": [
				{
					"internalType": "bool",
					"name": "",
					"type": "bool"
				}
			],
			"stateMutability": "view",
			"type": "function"
		},
		{
			"inputs": [
				{
					"internalType": "string",
					"name": "questId_",
					"type": "string"
				}
			],
			"name": "getNumberMinted",
			"outputs": [
				{
					"internalType": "uint256",
					"name": "",
					"type": "uint256"
				}
			],
			"stateMutability": "view",
			"type": "function"
		},
		{
			"inputs": [
				{
					"internalType": "bytes32",
					"name": "role",
					"type": "bytes32"
				}
			],
			"name": "getRoleAdmin",
			"outputs": [
				{
					"internalType": "bytes32",
					"name": "",
					"type": "bytes32"
				}
			],
			"stateMutability": "view",
			"type": "function"
		},
		{
			"inputs": [
				{
					"internalType": "bytes32",
					"name": "role",
					"type": "bytes32"
				},
				{
					"internalType": "address",
					"name": "account",
					"type": "address"
				}
			],
			"name": "grantRole",
			"outputs": [],
			"stateMutability": "nonpayable",
			"type": "function"
		},
		{
			"inputs": [
				{
					"internalType": "bytes32",
					"name": "role",
					"type": "bytes32"
				},
				{
					"internalType": "address",
					"name": "account",
					"type": "address"
				}
			],
			"name": "hasRole",
			"outputs": [
				{
					"internalType": "bool",
					"name": "",
					"type": "bool"
				}
			],
			"stateMutability": "view",
			"type": "function"
		},
		{
			"inputs": [
				{
					"internalType": "string",
					"name": "questId_",
					"type": "string"
				},
				{
					"internalType": "bytes32",
					"name": "hash_",
					"type": "bytes32"
				},
				{
					"internalType": "bytes",
					"name": "signature_",
					"type": "bytes"
				}
			],
			"name": "mintReceipt",
			"outputs": [],
			"stateMutability": "nonpayable",
			"type": "function"
		},
		{
			"inputs": [],
			"name": "owner",
			"outputs": [
				{
					"internalType": "address",
					"name": "",
					"type": "address"
				}
			],
			"stateMutability": "view",
			"type": "function"
		},
		{
			"inputs": [],
			"name": "protocolFeeRecipient",
			"outputs": [
				{
					"internalType": "address",
					"name": "",
					"type": "address"
				}
			],
			"stateMutability": "view",
			"type": "function"
		},
		{
			"inputs": [],
			"name": "questFee",
			"outputs": [
				{
					"internalType": "uint16",
					"name": "",
					"type": "uint16"
				}
			],
			"stateMutability": "view",
			"type": "function"
		},
		{
			"inputs": [
				{
					"internalType": "string",
					"name": "questId_",
					"type": "string"
				}
			],
			"name": "questInfo",
			"outputs": [
				{
					"internalType": "address",
					"name": "",
					"type": "address"
				},
				{
					"internalType": "uint256",
					"name": "",
					"type": "uint256"
				},
				{
					"internalType": "uint256",
					"name": "",
					"type": "uint256"
				}
			],
			"stateMutability": "view",
			"type": "function"
		},
		{
			"inputs": [
				{
					"internalType": "string",
					"name": "",
					"type": "string"
				}
			],
			"name": "quests",
			"outputs": [
				{
					"internalType": "address",
					"name": "questAddress",
					"type": "address"
				},
				{
					"internalType": "uint256",
					"name": "totalParticipants",
					"type": "uint256"
				},
				{
					"internalType": "uint256",
					"name": "numberMinted",
					"type": "uint256"
				}
			],
			"stateMutability": "view",
			"type": "function"
		},
		{
			"inputs": [],
			"name": "rabbitHoleReceiptContract",
			"outputs": [
				{
					"internalType": "contract RabbitHoleReceipt",
					"name": "",
					"type": "address"
				}
			],
			"stateMutability": "view",
			"type": "function"
		},
		{
			"inputs": [],
			"name": "rabbitHoleTicketsContract",
			"outputs": [
				{
					"internalType": "contract RabbitHoleTickets",
					"name": "",
					"type": "address"
				}
			],
			"stateMutability": "view",
			"type": "function"
		},
		{
			"inputs": [
				{
					"internalType": "bytes32",
					"name": "hash_",
					"type": "bytes32"
				},
				{
					"internalType": "bytes",
					"name": "signature_",
					"type": "bytes"
				}
			],
			"name": "recoverSigner",
			"outputs": [
				{
					"internalType": "address",
					"name": "",
					"type": "address"
				}
			],
			"stateMutability": "pure",
			"type": "function"
		},
		{
			"inputs": [],
			"name": "renounceOwnership",
			"outputs": [],
			"stateMutability": "nonpayable",
			"type": "function"
		},
		{
			"inputs": [
				{
					"internalType": "bytes32",
					"name": "role",
					"type": "bytes32"
				},
				{
					"internalType": "address",
					"name": "account",
					"type": "address"
				}
			],
			"name": "renounceRole",
			"outputs": [],
			"stateMutability": "nonpayable",
			"type": "function"
		},
		{
			"inputs": [
				{
					"internalType": "bytes32",
					"name": "role",
					"type": "bytes32"
				},
				{
					"internalType": "address",
					"name": "account",
					"type": "address"
				}
			],
			"name": "revokeRole",
			"outputs": [],
			"stateMutability": "nonpayable",
			"type": "function"
		},
		{
			"inputs": [
				{
					"internalType": "address",
					"name": "",
					"type": "address"
				}
			],
			"name": "rewardAllowlist",
			"outputs": [
				{
					"internalType": "bool",
					"name": "",
					"type": "bool"
				}
			],
			"stateMutability": "view",
			"type": "function"
		},
		{
			"inputs": [
				{
					"internalType": "address",
					"name": "claimSignerAddress_",
					"type": "address"
				}
			],
			"name": "setClaimSignerAddress",
			"outputs": [],
			"stateMutability": "nonpayable",
			"type": "function"
		},
		{
			"inputs": [
				{
					"internalType": "address",
					"name": "erc1155QuestAddress_",
					"type": "address"
				}
			],
			"name": "setErc1155QuestAddress",
			"outputs": [],
			"stateMutability": "nonpayable",
			"type": "function"
		},
		{
			"inputs": [
				{
					"internalType": "address",
					"name": "erc20QuestAddress_",
					"type": "address"
				}
			],
			"name": "setErc20QuestAddress",
			"outputs": [],
			"stateMutability": "nonpayable",
			"type": "function"
		},
		{
			"inputs": [
				{
					"internalType": "address",
					"name": "protocolFeeRecipient_",
					"type": "address"
				}
			],
			"name": "setProtocolFeeRecipient",
			"outputs": [],
			"stateMutability": "nonpayable",
			"type": "function"
		},
		{
			"inputs": [
				{
					"internalType": "uint16",
					"name": "questFee_",
					"type": "uint16"
				}
			],
			"name": "setQuestFee",
			"outputs": [],
			"stateMutability": "nonpayable",
			"type": "function"
		},
		{
			"inputs": [
				{
					"internalType": "address",
					"name": "rabbitholeReceiptContract_",
					"type": "address"
				}
			],
			"name": "setRabbitHoleReceiptContract",
			"outputs": [],
			"stateMutability": "nonpayable",
			"type": "function"
		},
		{
			"inputs": [
				{
					"internalType": "address",
					"name": "rabbitholeTicketsContract_",
					"type": "address"
				}
			],
			"name": "setRabbitHoleTicketsContract",
			"outputs": [],
			"stateMutability": "nonpayable",
			"type": "function"
		},
		{
			"inputs": [
				{
					"internalType": "address",
					"name": "rewardAddress_",
					"type": "address"
				},
				{
					"internalType": "bool",
					"name": "allowed_",
					"type": "bool"
				}
			],
			"name": "setRewardAllowlistAddress",
			"outputs": [],
			"stateMutability": "nonpayable",
			"type": "function"
		},
		{
			"inputs": [
				{
					"internalType": "bytes4",
					"name": "interfaceId",
					"type": "bytes4"
				}
			],
			"name": "supportsInterface",
			"outputs": [
				{
					"internalType": "bool",
					"name": "",
					"type": "bool"
				}
			],
			"stateMutability": "view",
			"type": "function"
		},
		{
			"inputs": [
				{
					"internalType": "address",
					"name": "newOwner",
					"type": "address"
				}
			],
			"name": "transferOwnership",
			"outputs": [],
			"stateMutability": "nonpayable",
			"type": "function"
		}
	],
	"transactionHash": "0x145a7b9ed25cfd678966574aba8e1394d55354671ddf965b265bd4e5e48e9ae8",
	"solcInputHash": "d3be8d60b40734148e5937d6b7b890ef",
	"numDeployments": 1,
	"args": [],
	"bytecode": "0x608060405234801561001057600080fd5b506126e5806100206000396000f3fe608060405234801561001057600080fd5b506004361061025c5760003560e01c80637e4176e311610145578063d4faaa17116100bd578063e521cb921161008c578063f2fde38b11610071578063f2fde38b14610596578063f8565efd146105a9578063fb41808a146105bc57600080fd5b8063e521cb9214610570578063ec461ac41461058357600080fd5b8063d4faaa1714610524578063d547741f14610537578063d693e8d31461054a578063e1bc3aba1461055d57600080fd5b8063a1db1ba411610114578063a96a1cb0116100f9578063a96a1cb0146104f6578063b4cbdd8b14610509578063cc4aa2041461051c57600080fd5b8063a1db1ba4146104d5578063a217fddf146104ee57600080fd5b80637e4176e31461040c5780638da5cb5b1461047857806391d148541461048957806397aba7f9146104c257600080fd5b806343ff27d1116101d8578063695ef19f116101a757806376319ee01161018c57806376319ee0146103d357806378077f8d146103e65780637c93f9ee146103f957600080fd5b8063695ef19f146103a8578063715018a6146103cb57600080fd5b806343ff27d11461034e57806361ab146b1461036157806364df049e1461037457806367dfa3e71461038757600080fd5b80632d2554711161022f57806336568abe1161021457806336568abe146103155780633ef17b171461032857806343f8bc6f1461033b57600080fd5b80632d255471146102f85780632f2ff15d1461030057600080fd5b806301ffc9a7146102615780630b6fc16314610289578063248a9ca3146102b457806327b0655f146102e5575b600080fd5b61027461026f366004611f65565b6105e3565b60405190151581526020015b60405180910390f35b60c95461029c906001600160a01b031681565b6040516001600160a01b039091168152602001610280565b6102d76102c2366004611fa7565b60009081526097602052604090206001015490565b604051908152602001610280565b6102746102f3366004612093565b61067c565b6102d76106be565b61031361030e3660046120e1565b610704565b005b6103136103233660046120e1565b61072e565b60cc5461029c906001600160a01b031681565b61029c610349366004612104565b6107bf565b6102d761035c36600461219f565b610e1a565b61031361036f3660046121d4565b610e45565b60ca5461029c906001600160a01b031681565b60cf546103959061ffff1681565b60405161ffff9091168152602001610280565b6102746103b63660046121d4565b60ce6020526000908152604090205460ff1681565b610313610e87565b6103136103e13660046121ef565b610e9b565b60cd5461029c906001600160a01b031681565b6103136104073660046121d4565b6113b1565b61045361041a36600461219f565b805160208183018101805160cb825292820191909301209152600181015460028201546003909201546001600160a01b03909116919083565b604080516001600160a01b039094168452602084019290925290820152606001610280565b6033546001600160a01b031661029c565b6102746104973660046120e1565b60009182526097602090815260408084206001600160a01b0393909316845291905290205460ff1690565b61029c6104d036600461225c565b6113f9565b60cf5461029c906201000090046001600160a01b031681565b6102d7600081565b6103136105043660046121d4565b61145b565b6103136105173660046121d4565b61149d565b6102d76114df565b60d05461029c906001600160a01b031681565b6103136105453660046120e1565b611510565b6103136105583660046122b1565b611535565b61031361056b3660046122e8565b611568565b61031361057e3660046121d4565b6115e5565b61045361059136600461219f565b611667565b6103136105a43660046121d4565b6116b6565b6103136105b73660046121d4565b611746565b6102d77ff9ca453be4e83785e69957dffc5e557020ebe7df32422c6d32ccad977982cadd81565b60007fffffffff0000000000000000000000000000000000000000000000000000000082167f7965db0b00000000000000000000000000000000000000000000000000000000148061067657507f01ffc9a7000000000000000000000000000000000000000000000000000000007fffffffff000000000000000000000000000000000000000000000000000000008316145b92915050565b600060cb8360405161068e9190612330565b90815260408051602092819003830190206001600160a01b0385166000908152925290205460ff16905092915050565b6040517f657263313135350000000000000000000000000000000000000000000000000060208201526027015b6040516020818303038152906040528051906020012081565b60008281526097602052604090206001015461071f81611788565b6107298383611792565b505050565b6001600160a01b03811633146107b15760405162461bcd60e51b815260206004820152602f60248201527f416363657373436f6e74726f6c3a2063616e206f6e6c792072656e6f756e636560448201527f20726f6c657320666f722073656c66000000000000000000000000000000000060648201526084015b60405180910390fd5b6107bb8282611834565b5050565b60007ff9ca453be4e83785e69957dffc5e557020ebe7df32422c6d32ccad977982cadd6107eb81611788565b600060cb846040516107fd9190612330565b90815260405190819003602001902060018101549091506001600160a01b031615610854576040517fb2431b6100000000000000000000000000000000000000000000000000000000815260040160405180910390fd5b6040517f6572633230000000000000000000000000000000000000000000000000000000602082015260250160405160208183030381529060405280519060200120856040516020016108a79190612330565b6040516020818303038152906040528051906020012003610ae6576001600160a01b038a16600090815260ce602052604081205460ff1615159003610918576040517f9f7fdf3100000000000000000000000000000000000000000000000000000000815260040160405180910390fd5b60cf54600090610936906201000090046001600160a01b03166118b7565b9050806001600160a01b0316336001600160a01b03167f7ffd904b9426b92270b251e237818b61230a9c7dc857d7e6130dddc21b76193787898f8f8f8f8f6040516109879796959493929190612378565b60405180910390a3808260010160006101000a8154816001600160a01b0302191690836001600160a01b03160217905550878260020181905550806001600160a01b031663938299b68c8c8c8c8c8b60cc60009054906101000a90046001600160a01b031660cf60009054906101000a900461ffff1660ca60009054906101000a90046001600160a01b03166040518a63ffffffff1660e01b8152600401610a37999897969594939291906123d1565b600060405180830381600087803b158015610a5157600080fd5b505af1158015610a65573d6000803e3d6000fd5b50506040517ff2fde38b0000000000000000000000000000000000000000000000000000000081523360048201526001600160a01b038416925063f2fde38b91506024015b600060405180830381600087803b158015610ac457600080fd5b505af1158015610ad8573d6000803e3d6000fd5b505050508093505050610e0e565b6040517f657263313135350000000000000000000000000000000000000000000000000060208201526027016040516020818303038152906040528051906020012085604051602001610b399190612330565b6040516020818303038152906040528051906020012003610ddc576033546001600160a01b03163314610b98576040517f764a7c5000000000000000000000000000000000000000000000000000000000815260040160405180910390fd5b60d054600090610bb0906001600160a01b03166118b7565b9050806001600160a01b0316336001600160a01b03167f7ffd904b9426b92270b251e237818b61230a9c7dc857d7e6130dddc21b76193787898f8f8f8f8f604051610c019796959493929190612378565b60405180910390a3808260010160006101000a8154816001600160a01b0302191690836001600160a01b03160217905550878260020181905550806001600160a01b031663b7af306e8c8c8c8c8c8b60cc60009054906101000a90046001600160a01b03166040518863ffffffff1660e01b8152600401610c889796959493929190612436565b600060405180830381600087803b158015610ca257600080fd5b505af1158015610cb6573d6000803e3d6000fd5b50506040517ff2fde38b0000000000000000000000000000000000000000000000000000000081523360048201526001600160a01b038416925063f2fde38b9150602401600060405180830381600087803b158015610d1457600080fd5b505af1158015610d28573d6000803e3d6000fd5b505060cd546001600160a01b03908116908e16039150610dd390505760cd546040517f731133e90000000000000000000000000000000000000000000000000000000081526001600160a01b03838116600480840191909152602483018b9052604483018c90526080606484015260848301527f307830300000000000000000000000000000000000000000000000000000000060a48301529091169063731133e99060c401610aaa565b9250610e0e9050565b6040517fd5fde11d00000000000000000000000000000000000000000000000000000000815260040160405180910390fd5b50979650505050505050565b600060cb82604051610e2c9190612330565b9081526020016040518091039020600301549050919050565b610e4d611958565b60cc80547fffffffffffffffffffffffff0000000000000000000000000000000000000000166001600160a01b0392909216919091179055565b610e8f611958565b610e9960006119b2565b565b600060cb84604051610ead9190612330565b90815260200160405180910390209050806002015481600301546001610ed391906124b7565b1115610f0b576040517f571e5b1800000000000000000000000000000000000000000000000000000000815260040160405180910390fd5b3360009081526020829052604090205460ff161515600103610f59576040517ff5f915f000000000000000000000000000000000000000000000000000000000815260040160405180910390fd5b8060010160009054906101000a90046001600160a01b03166001600160a01b03166344691f7e6040518163ffffffff1660e01b8152600401602060405180830381865afa158015610fae573d6000803e3d6000fd5b505050506040513d601f19601f82011682018060405250810190610fd291906124ca565b611008576040517f5971011300000000000000000000000000000000000000000000000000000000815260040160405180910390fd5b8060010160009054906101000a90046001600160a01b03166001600160a01b03166378e979256040518163ffffffff1660e01b8152600401602060405180830381865afa15801561105d573d6000803e3d6000fd5b505050506040513d601f19601f8201168201806040525081019061108191906124e7565b4210156110ba576040517f5971011300000000000000000000000000000000000000000000000000000000815260040160405180910390fd5b8060010160009054906101000a90046001600160a01b03166001600160a01b0316633197cbb66040518163ffffffff1660e01b8152600401602060405180830381865afa15801561110f573d6000803e3d6000fd5b505050506040513d601f19601f8201168201806040525081019061113391906124e7565b42111561116c576040517f8b602a4200000000000000000000000000000000000000000000000000000000815260040160405180910390fd5b823385604051602001611180929190612500565b60405160208183030381529060405280519060200120146111cd576040517f0af806e000000000000000000000000000000000000000000000000000000000815260040160405180910390fd5b60c9546001600160a01b03166111e384846113f9565b6001600160a01b031614611223576040517f05d0fdda00000000000000000000000000000000000000000000000000000000815260040160405180910390fd5b336000908152602082905260408120805460ff1916600117905560038201805490919061124f9061254b565b9091555060cc546040517fd0def5210000000000000000000000000000000000000000000000000000000081526001600160a01b039091169063d0def5219061129e9033908890600401612565565b600060405180830381600087803b1580156112b857600080fd5b505af11580156112cc573d6000803e3d6000fd5b5050505060cc60009054906101000a90046001600160a01b03166001600160a01b031663010a38f56040518163ffffffff1660e01b8152600401602060405180830381865afa158015611323573d6000803e3d6000fd5b505050506040513d601f19601f8201168201806040525081019061134791906124e7565b60cb856040516113579190612330565b908152604051908190036020018120600101546001600160a01b03169033907fa9e09a39b54248cb5161a8bad4e544f88b8aa2da99e7c425846bece6703cc1fc906113a3908990612587565b60405180910390a450505050565b6113b9611958565b60cf80546001600160a01b0390921662010000027fffffffffffffffffffff0000000000000000000000000000000000000000ffff909216919091179055565b6040517f19457468657265756d205369676e6564204d6573736167653a0a3332000000006020820152603c81018390526000908190605c016040516020818303038152906040528051906020012090506114538184611a1c565b949350505050565b611463611958565b60cd80547fffffffffffffffffffffffff0000000000000000000000000000000000000000166001600160a01b0392909216919091179055565b6114a5611958565b60c980547fffffffffffffffffffffffff0000000000000000000000000000000000000000166001600160a01b0392909216919091179055565b6040517f657263323000000000000000000000000000000000000000000000000000000060208201526025016106eb565b60008281526097602052604090206001015461152b81611788565b6107298383611834565b61153d611958565b6001600160a01b0391909116600090815260ce60205260409020805460ff1916911515919091179055565b611570611958565b6127108161ffff1611156115b0576040517f4ae19ab600000000000000000000000000000000000000000000000000000000815260040160405180910390fd5b60cf80547fffffffffffffffffffffffffffffffffffffffffffffffffffffffffffff00001661ffff92909216919091179055565b6115ed611958565b6001600160a01b03811661162d576040517f0855380c00000000000000000000000000000000000000000000000000000000815260040160405180910390fd5b60ca80547fffffffffffffffffffffffff0000000000000000000000000000000000000000166001600160a01b0392909216919091179055565b60008060008060cb8560405161167d9190612330565b908152604051908190036020019020600181015460028201546003909201546001600160a01b0390911695509093509150509193909250565b6116be611958565b6001600160a01b03811661173a5760405162461bcd60e51b815260206004820152602660248201527f4f776e61626c653a206e6577206f776e657220697320746865207a65726f206160448201527f646472657373000000000000000000000000000000000000000000000000000060648201526084016107a8565b611743816119b2565b50565b61174e611958565b60d080547fffffffffffffffffffffffff0000000000000000000000000000000000000000166001600160a01b0392909216919091179055565b6117438133611a40565b60008281526097602090815260408083206001600160a01b038516845290915290205460ff166107bb5760008281526097602090815260408083206001600160a01b03851684529091529020805460ff191660011790556117f03390565b6001600160a01b0316816001600160a01b0316837f2f8788117e7eff1d82e926ec794901d17c78024a50270940304540a733656f0d60405160405180910390a45050565b60008281526097602090815260408083206001600160a01b038516845290915290205460ff16156107bb5760008281526097602090815260408083206001600160a01b0385168085529252808320805460ff1916905551339285917ff6391f5c32d9c69d2a47ea670b442974b53935d1edc7fd64eb21e047a839171b9190a45050565b6000763d602d80600a3d3981f3363d3d373d3d3d363d730000008260601b60e81c176000526e5af43d82803e903d91602b57fd5bf38260781b17602052603760096000f090506001600160a01b0381166119535760405162461bcd60e51b815260206004820152601660248201527f455243313136373a20637265617465206661696c65640000000000000000000060448201526064016107a8565b919050565b6033546001600160a01b03163314610e995760405162461bcd60e51b815260206004820181905260248201527f4f776e61626c653a2063616c6c6572206973206e6f7420746865206f776e657260448201526064016107a8565b603380546001600160a01b038381167fffffffffffffffffffffffff0000000000000000000000000000000000000000831681179093556040519116919082907f8be0079c531659141344cd1fd0a4f28419497f9722a3daafe3b4186f6b6457e090600090a35050565b6000806000611a2b8585611ab5565b91509150611a3881611afa565b509392505050565b60008281526097602090815260408083206001600160a01b038516845290915290205460ff166107bb57611a7381611c5f565b611a7e836020611c71565b604051602001611a8f92919061259a565b60408051601f198184030181529082905262461bcd60e51b82526107a891600401612587565b6000808251604103611aeb5760208301516040840151606085015160001a611adf87828585611ea1565b94509450505050611af3565b506000905060025b9250929050565b6000816004811115611b0e57611b0e61261b565b03611b165750565b6001816004811115611b2a57611b2a61261b565b03611b775760405162461bcd60e51b815260206004820152601860248201527f45434453413a20696e76616c6964207369676e6174757265000000000000000060448201526064016107a8565b6002816004811115611b8b57611b8b61261b565b03611bd85760405162461bcd60e51b815260206004820152601f60248201527f45434453413a20696e76616c6964207369676e6174757265206c656e6774680060448201526064016107a8565b6003816004811115611bec57611bec61261b565b036117435760405162461bcd60e51b815260206004820152602260248201527f45434453413a20696e76616c6964207369676e6174757265202773272076616c60448201527f756500000000000000000000000000000000000000000000000000000000000060648201526084016107a8565b60606106766001600160a01b03831660145b60606000611c8083600261264a565b611c8b9060026124b7565b67ffffffffffffffff811115611ca357611ca3611fc0565b6040519080825280601f01601f191660200182016040528015611ccd576020820181803683370190505b5090507f300000000000000000000000000000000000000000000000000000000000000081600081518110611d0457611d04612669565b60200101907effffffffffffffffffffffffffffffffffffffffffffffffffffffffffffff1916908160001a9053507f780000000000000000000000000000000000000000000000000000000000000081600181518110611d6757611d67612669565b60200101907effffffffffffffffffffffffffffffffffffffffffffffffffffffffffffff1916908160001a9053506000611da384600261264a565b611dae9060016124b7565b90505b6001811115611e4b577f303132333435363738396162636465660000000000000000000000000000000085600f1660108110611def57611def612669565b1a60f81b828281518110611e0557611e05612669565b60200101907effffffffffffffffffffffffffffffffffffffffffffffffffffffffffffff1916908160001a90535060049490941c93611e4481612698565b9050611db1565b508315611e9a5760405162461bcd60e51b815260206004820181905260248201527f537472696e67733a20686578206c656e67746820696e73756666696369656e7460448201526064016107a8565b9392505050565b6000807f7fffffffffffffffffffffffffffffff5d576e7357a4501ddfe92f46681b20a0831115611ed85750600090506003611f5c565b6040805160008082526020820180845289905260ff881692820192909252606081018690526080810185905260019060a0016020604051602081039080840390855afa158015611f2c573d6000803e3d6000fd5b5050604051601f1901519150506001600160a01b038116611f5557600060019250925050611f5c565b9150600090505b94509492505050565b600060208284031215611f7757600080fd5b81357fffffffff0000000000000000000000000000000000000000000000000000000081168114611e9a57600080fd5b600060208284031215611fb957600080fd5b5035919050565b7f4e487b7100000000000000000000000000000000000000000000000000000000600052604160045260246000fd5b600082601f83011261200057600080fd5b813567ffffffffffffffff8082111561201b5761201b611fc0565b604051601f8301601f19908116603f0116810190828211818310171561204357612043611fc0565b8160405283815286602085880101111561205c57600080fd5b836020870160208301376000602085830101528094505050505092915050565b80356001600160a01b038116811461195357600080fd5b600080604083850312156120a657600080fd5b823567ffffffffffffffff8111156120bd57600080fd5b6120c985828601611fef565b9250506120d86020840161207c565b90509250929050565b600080604083850312156120f457600080fd5b823591506120d86020840161207c565b600080600080600080600060e0888a03121561211f57600080fd5b6121288861207c565b96506020880135955060408801359450606088013593506080880135925060a088013567ffffffffffffffff8082111561216157600080fd5b61216d8b838c01611fef565b935060c08a013591508082111561218357600080fd5b506121908a828b01611fef565b91505092959891949750929550565b6000602082840312156121b157600080fd5b813567ffffffffffffffff8111156121c857600080fd5b61145384828501611fef565b6000602082840312156121e657600080fd5b611e9a8261207c565b60008060006060848603121561220457600080fd5b833567ffffffffffffffff8082111561221c57600080fd5b61222887838801611fef565b945060208601359350604086013591508082111561224557600080fd5b5061225286828701611fef565b9150509250925092565b6000806040838503121561226f57600080fd5b82359150602083013567ffffffffffffffff81111561228d57600080fd5b61229985828601611fef565b9150509250929050565b801515811461174357600080fd5b600080604083850312156122c457600080fd5b6122cd8361207c565b915060208301356122dd816122a3565b809150509250929050565b6000602082840312156122fa57600080fd5b813561ffff81168114611e9a57600080fd5b60005b8381101561232757818101518382015260200161230f565b50506000910152565b6000825161234281846020870161230c565b9190910192915050565b6000815180845261236481602086016020860161230c565b601f01601f19169290920160200192915050565b60e08152600061238b60e083018a61234c565b828103602084015261239d818a61234c565b6001600160a01b0398909816604084015250506060810194909452608084019290925260a083015260c09091015292915050565b60006101206001600160a01b03808d1684528b60208501528a60408501528960608501528860808501528160a085015261240d8285018961234c565b96811660c085015261ffff9590951660e084015250509116610100909101529695505050505050565b60006001600160a01b03808a16835288602084015287604084015286606084015285608084015260e060a084015261247160e084018661234c565b915080841660c08401525098975050505050505050565b7f4e487b7100000000000000000000000000000000000000000000000000000000600052601160045260246000fd5b8082018082111561067657610676612488565b6000602082840312156124dc57600080fd5b8151611e9a816122a3565b6000602082840312156124f957600080fd5b5051919050565b7fffffffffffffffffffffffffffffffffffffffff0000000000000000000000008360601b1681526000825161253d81601485016020870161230c565b919091016014019392505050565b6000600019820361255e5761255e612488565b5060010190565b6001600160a01b0383168152604060208201526000611453604083018461234c565b602081526000611e9a602083018461234c565b7f416363657373436f6e74726f6c3a206163636f756e74200000000000000000008152600083516125d281601785016020880161230c565b7f206973206d697373696e6720726f6c6520000000000000000000000000000000601791840191820152835161260f81602884016020880161230c565b01602801949350505050565b7f4e487b7100000000000000000000000000000000000000000000000000000000600052602160045260246000fd5b600081600019048311821515161561266457612664612488565b500290565b7f4e487b7100000000000000000000000000000000000000000000000000000000600052603260045260246000fd5b6000816126a7576126a7612488565b50600019019056fea2646970667358221220dd44d0d2209a8d296b83d6cc872861aa265742cd6b5f1367427b744ff5572c7664736f6c63430008100033",
	"deployedBytecode": "0x60806040526004361061004e5760003560e01c80633659cfe6146100655780634f1ef286146100855780635c60da1b146100ae5780638f283970146100db578063f851a440146100fb5761005d565b3661005d5761005b610110565b005b61005b610110565b34801561007157600080fd5b5061005b61008036600461051d565b6101c8565b610098610093366004610538565b61020e565b6040516100a591906105bb565b60405180910390f35b3480156100ba57600080fd5b506100c361033e565b6040516001600160a01b0390911681526020016100a5565b3480156100e757600080fd5b5061005b6100f636600461051d565b6103a9565b34801561010757600080fd5b506100c36103e4565b600061013a7f360894a13ba1a3210667c828492db98dca3e2076cc3735a920a3ca505d382bbc5490565b90506001600160a01b0381166101a55760405162461bcd60e51b815260206004820152602560248201527f50726f78793a20696d706c656d656e746174696f6e206e6f7420696e697469616044820152641b1a5e995960da1b60648201526084015b60405180910390fd5b3660008037600080366000845af43d6000803e806101c2573d6000fd5b503d6000f35b600080516020610621833981519152546001600160a01b0316336001600160a01b031614806101f5575033155b156102065761020381610432565b50565b610203610110565b60606102266000805160206106218339815191525490565b6001600160a01b0316336001600160a01b03161480610243575033155b1561032f5761025184610432565b600080856001600160a01b0316858560405161026e929190610610565b600060405180830381855af49150503d80600081146102a9576040519150601f19603f3d011682016040523d82523d6000602084013e6102ae565b606091505b5091509150816103265760405162461bcd60e51b815260206004820152603960248201527f50726f78793a2064656c656761746563616c6c20746f206e657720696d706c6560448201527f6d656e746174696f6e20636f6e7472616374206661696c656400000000000000606482015260840161019c565b91506103379050565b610337610110565b9392505050565b60006103566000805160206106218339815191525490565b6001600160a01b0316336001600160a01b03161480610373575033155b1561039e57507f360894a13ba1a3210667c828492db98dca3e2076cc3735a920a3ca505d382bbc5490565b6103a6610110565b90565b600080516020610621833981519152546001600160a01b0316336001600160a01b031614806103d6575033155b15610206576102038161048d565b60006103fc6000805160206106218339815191525490565b6001600160a01b0316336001600160a01b03161480610419575033155b1561039e57506000805160206106218339815191525490565b7f360894a13ba1a3210667c828492db98dca3e2076cc3735a920a3ca505d382bbc8190556040516001600160a01b038216907fbc7cd75a20ee27fd9adebab32041f755214dbc6bffa90cc0225b39da2e5c2d3b90600090a250565b60006104a56000805160206106218339815191525490565b600080516020610621833981519152839055604080516001600160a01b038084168252851660208201529192507f7e644d79422f17c01e4894b5f4f588d331ebfa28653d42ae832dc59e38c9798f910160405180910390a15050565b80356001600160a01b038116811461051857600080fd5b919050565b60006020828403121561052f57600080fd5b61033782610501565b60008060006040848603121561054d57600080fd5b61055684610501565b9250602084013567ffffffffffffffff8082111561057357600080fd5b818601915086601f83011261058757600080fd5b81358181111561059657600080fd5b8760208285010111156105a857600080fd5b6020830194508093505050509250925092565b600060208083528351808285015260005b818110156105e8578581018301518582016040015282016105cc565b818111156105fa576000604083870101525b50601f01601f1916929092016040019392505050565b818382376000910190815291905056feb53127684a568b3173ae13b9f8a6016e243e63b6e8ee1178d6a717850b5d6103a26469706673582212202bd1f0b5e6fde550b88238730ef8a1aca50c563a9964646d6babc0ad93dbcf3b64736f6c634300080f0033",
	"devdoc": {
		"author": "RabbitHole.gg",
		"details": "This contract is used to create quests and mint receipts",
		"kind": "dev",
		"methods": {
			"createQuest(address,uint256,uint256,uint256,uint256,string,string)": {
				"details": "Create either an erc20 or erc1155 quest, only accounts with the CREATE_QUEST_ROLE can create quests",
				"params": {
					"contractType_": "The type of quest, either erc20 or erc1155",
					"endTime_": "The end time of the quest",
					"questId_": "The id of the quest",
					"rewardAmountOrTokenId_": "The reward amount for an erc20 quest or the token id for an erc1155 quest",
					"rewardTokenAddress_": "The contract address of the reward token",
					"startTime_": "The start time of the quest",
					"totalParticipants_": "The total amount of participants (accounts) the quest will have"
				},
				"returns": {
					"_0": "address the quest contract address"
				}
			},
			"getAddressMinted(string,address)": {
				"details": "return status of whether an address has minted a receipt for a quest",
				"params": {
					"address_": "The address to check",
					"questId_": "The id of the quest"
				},
				"returns": {
					"_0": "Minted status"
				}
			},
			"getNumberMinted(string)": {
				"details": "return the number of minted receipts for a quest",
				"params": {
					"questId_": "The id of the quest"
				}
			},
			"getRoleAdmin(bytes32)": {
				"details": "Returns the admin role that controls `role`. See {grantRole} and {revokeRole}. To change a role's admin, use {_setRoleAdmin}."
			},
			"grantRole(bytes32,address)": {
				"details": "Grants `role` to `account`. If `account` had not been already granted `role`, emits a {RoleGranted} event. Requirements: - the caller must have ``role``'s admin role. May emit a {RoleGranted} event."
			},
			"hasRole(bytes32,address)": {
				"details": "Returns `true` if `account` has been granted `role`."
			},
			"mintReceipt(string,bytes32,bytes)": {
				"details": "mint a RabbitHole Receipt. Note: this contract must be set as Minter on the receipt contract",
				"params": {
					"hash_": "The hash of the message",
					"questId_": "The id of the quest",
					"signature_": "The signature of the hash"
				}
			},
			"owner()": {
				"details": "Returns the address of the current owner."
			},
			"questInfo(string)": {
				"details": "return data in the quest struct for a questId",
				"params": {
					"questId_": "The id of the quest"
				}
			},
			"recoverSigner(bytes32,bytes)": {
				"details": "recover the signer from a hash and signature",
				"params": {
					"hash_": "The hash of the message",
					"signature_": "The signature of the hash"
				}
			},
			"renounceOwnership()": {
				"details": "Leaves the contract without owner. It will not be possible to call `onlyOwner` functions anymore. Can only be called by the current owner. NOTE: Renouncing ownership will leave the contract without an owner, thereby removing any functionality that is only available to the owner."
			},
			"renounceRole(bytes32,address)": {
				"details": "Revokes `role` from the calling account. Roles are often managed via {grantRole} and {revokeRole}: this function's purpose is to provide a mechanism for accounts to lose their privileges if they are compromised (such as when a trusted device is misplaced). If the calling account had been revoked `role`, emits a {RoleRevoked} event. Requirements: - the caller must be `account`. May emit a {RoleRevoked} event."
			},
			"revokeRole(bytes32,address)": {
				"details": "Revokes `role` from `account`. If `account` had been granted `role`, emits a {RoleRevoked} event. Requirements: - the caller must have ``role``'s admin role. May emit a {RoleRevoked} event."
			},
			"setClaimSignerAddress(address)": {
				"details": "set the claim signer address",
				"params": {
					"claimSignerAddress_": "The address of the claim signer"
				}
			},
			"setErc1155QuestAddress(address)": {
				"details": "set erc1155QuestAddress",
				"params": {
					"erc1155QuestAddress_": "The address of the erc1155 quest"
				}
			},
			"setErc20QuestAddress(address)": {
				"details": "set erc20QuestAddress",
				"params": {
					"erc20QuestAddress_": "The address of the erc20 quest"
				}
			},
			"setProtocolFeeRecipient(address)": {
				"details": "set the protocol fee recipient",
				"params": {
					"protocolFeeRecipient_": "The address of the protocol fee recipient"
				}
			},
			"setQuestFee(uint16)": {
				"details": "set the quest fee",
				"params": {
					"questFee_": "The quest fee value"
				}
			},
			"setRabbitHoleReceiptContract(address)": {
				"details": "set the rabbithole receipt contract",
				"params": {
					"rabbitholeReceiptContract_": "The address of the rabbithole receipt contract"
				}
			},
			"setRabbitHoleTicketsContract(address)": {
				"details": "set the rabbithole tickets contract",
				"params": {
					"rabbitholeTicketsContract_": "The address of the rabbithole tickets contract"
				}
			},
			"setRewardAllowlistAddress(address,bool)": {
				"details": "set or remave a contract address to be used as a reward",
				"params": {
					"allowed_": "Whether the contract address is allowed or not",
					"rewardAddress_": "The contract address to set"
				}
			},
			"supportsInterface(bytes4)": {
				"details": "See {IERC165-supportsInterface}."
			},
			"transferOwnership(address)": {
				"details": "Transfers ownership of the contract to a new account (`newOwner`). Can only be called by the current owner."
			}
		},
		"title": "QuestFactory",
		"version": 1
	},
	"userdoc": {
		"kind": "user",
		"methods": {
			"setQuestFee(uint16)": {
				"notice": "the quest fee should be in Basis Point units: https://www.investopedia.com/terms/b/basispoint.asp"
			}
		},
		"version": 1
	},
	"storageLayout": {
		"storage": [
			{
				"astId": 566,
				"contract": "contracts/QuestFactory.sol:QuestFactory",
				"label": "_initialized",
				"offset": 0,
				"slot": "0",
				"type": "t_uint8"
			},
			{
				"astId": 569,
				"contract": "contracts/QuestFactory.sol:QuestFactory",
				"label": "_initializing",
				"offset": 1,
				"slot": "0",
				"type": "t_bool"
			},
			{
				"astId": 4373,
				"contract": "contracts/QuestFactory.sol:QuestFactory",
				"label": "__gap",
				"offset": 0,
				"slot": "1",
				"type": "t_array(t_uint256)50_storage"
			},
			{
				"astId": 419,
				"contract": "contracts/QuestFactory.sol:QuestFactory",
				"label": "_owner",
				"offset": 0,
				"slot": "51",
				"type": "t_address"
			},
			{
				"astId": 539,
				"contract": "contracts/QuestFactory.sol:QuestFactory",
				"label": "__gap",
				"offset": 0,
				"slot": "52",
				"type": "t_array(t_uint256)49_storage"
			},
			{
				"astId": 5027,
				"contract": "contracts/QuestFactory.sol:QuestFactory",
				"label": "__gap",
				"offset": 0,
				"slot": "101",
				"type": "t_array(t_uint256)50_storage"
			},
			{
				"astId": 39,
				"contract": "contracts/QuestFactory.sol:QuestFactory",
				"label": "_roles",
				"offset": 0,
				"slot": "151",
				"type": "t_mapping(t_bytes32,t_struct(RoleData)34_storage)"
			},
			{
				"astId": 334,
				"contract": "contracts/QuestFactory.sol:QuestFactory",
				"label": "__gap",
				"offset": 0,
				"slot": "152",
				"type": "t_array(t_uint256)49_storage"
			},
			{
				"astId": 11267,
				"contract": "contracts/QuestFactory.sol:QuestFactory",
				"label": "claimSignerAddress",
				"offset": 0,
				"slot": "201",
				"type": "t_address"
			},
			{
				"astId": 11269,
				"contract": "contracts/QuestFactory.sol:QuestFactory",
				"label": "protocolFeeRecipient",
				"offset": 0,
				"slot": "202",
				"type": "t_address"
			},
			{
				"astId": 11274,
				"contract": "contracts/QuestFactory.sol:QuestFactory",
				"label": "quests",
				"offset": 0,
				"slot": "203",
				"type": "t_mapping(t_string_memory_ptr,t_struct(Quest)11265_storage)"
			},
			{
				"astId": 11277,
				"contract": "contracts/QuestFactory.sol:QuestFactory",
				"label": "rabbitHoleReceiptContract",
				"offset": 0,
				"slot": "204",
				"type": "t_contract(RabbitHoleReceipt)12400"
			},
			{
				"astId": 11280,
				"contract": "contracts/QuestFactory.sol:QuestFactory",
				"label": "rabbitHoleTicketsContract",
				"offset": 0,
				"slot": "205",
				"type": "t_contract(RabbitHoleTickets)12631"
			},
			{
				"astId": 11284,
				"contract": "contracts/QuestFactory.sol:QuestFactory",
				"label": "rewardAllowlist",
				"offset": 0,
				"slot": "206",
				"type": "t_mapping(t_address,t_bool)"
			},
			{
				"astId": 11286,
				"contract": "contracts/QuestFactory.sol:QuestFactory",
				"label": "questFee",
				"offset": 0,
				"slot": "207",
				"type": "t_uint16"
			},
			{
				"astId": 11288,
				"contract": "contracts/QuestFactory.sol:QuestFactory",
				"label": "erc20QuestAddress",
				"offset": 2,
				"slot": "207",
				"type": "t_address"
			},
			{
				"astId": 11290,
				"contract": "contracts/QuestFactory.sol:QuestFactory",
				"label": "erc1155QuestAddress",
				"offset": 0,
				"slot": "208",
				"type": "t_address"
			}
		],
		"types": {
			"t_address": {
				"encoding": "inplace",
				"label": "address",
				"numberOfBytes": "20"
			},
			"t_array(t_uint256)49_storage": {
				"base": "t_uint256",
				"encoding": "inplace",
				"label": "uint256[49]",
				"numberOfBytes": "1568"
			},
			"t_array(t_uint256)50_storage": {
				"base": "t_uint256",
				"encoding": "inplace",
				"label": "uint256[50]",
				"numberOfBytes": "1600"
			},
			"t_bool": {
				"encoding": "inplace",
				"label": "bool",
				"numberOfBytes": "1"
			},
			"t_bytes32": {
				"encoding": "inplace",
				"label": "bytes32",
				"numberOfBytes": "32"
			},
			"t_contract(RabbitHoleReceipt)12400": {
				"encoding": "inplace",
				"label": "contract RabbitHoleReceipt",
				"numberOfBytes": "20"
			},
			"t_contract(RabbitHoleTickets)12631": {
				"encoding": "inplace",
				"label": "contract RabbitHoleTickets",
				"numberOfBytes": "20"
			},
			"t_mapping(t_address,t_bool)": {
				"encoding": "mapping",
				"key": "t_address",
				"label": "mapping(address => bool)",
				"numberOfBytes": "32",
				"value": "t_bool"
			},
			"t_mapping(t_bytes32,t_struct(RoleData)34_storage)": {
				"encoding": "mapping",
				"key": "t_bytes32",
				"label": "mapping(bytes32 => struct AccessControlUpgradeable.RoleData)",
				"numberOfBytes": "32",
				"value": "t_struct(RoleData)34_storage"
			},
			"t_mapping(t_string_memory_ptr,t_struct(Quest)11265_storage)": {
				"encoding": "mapping",
				"key": "t_string_memory_ptr",
				"label": "mapping(string => struct QuestFactory.Quest)",
				"numberOfBytes": "32",
				"value": "t_struct(Quest)11265_storage"
			},
			"t_string_memory_ptr": {
				"encoding": "bytes",
				"label": "string",
				"numberOfBytes": "32"
			},
			"t_struct(Quest)11265_storage": {
				"encoding": "inplace",
				"label": "struct QuestFactory.Quest",
				"members": [
					{
						"astId": 11258,
						"contract": "contracts/QuestFactory.sol:QuestFactory",
						"label": "addressMinted",
						"offset": 0,
						"slot": "0",
						"type": "t_mapping(t_address,t_bool)"
					},
					{
						"astId": 11260,
						"contract": "contracts/QuestFactory.sol:QuestFactory",
						"label": "questAddress",
						"offset": 0,
						"slot": "1",
						"type": "t_address"
					},
					{
						"astId": 11262,
						"contract": "contracts/QuestFactory.sol:QuestFactory",
						"label": "totalParticipants",
						"offset": 0,
						"slot": "2",
						"type": "t_uint256"
					},
					{
						"astId": 11264,
						"contract": "contracts/QuestFactory.sol:QuestFactory",
						"label": "numberMinted",
						"offset": 0,
						"slot": "3",
						"type": "t_uint256"
					}
				],
				"numberOfBytes": "128"
			},
			"t_struct(RoleData)34_storage": {
				"encoding": "inplace",
				"label": "struct AccessControlUpgradeable.RoleData",
				"members": [
					{
						"astId": 31,
						"contract": "contracts/QuestFactory.sol:QuestFactory",
						"label": "members",
						"offset": 0,
						"slot": "0",
						"type": "t_mapping(t_address,t_bool)"
					},
					{
						"astId": 33,
						"contract": "contracts/QuestFactory.sol:QuestFactory",
						"label": "adminRole",
						"offset": 0,
						"slot": "1",
						"type": "t_bytes32"
					}
				],
				"numberOfBytes": "64"
			},
			"t_uint16": {
				"encoding": "inplace",
				"label": "uint16",
				"numberOfBytes": "2"
			},
			"t_uint256": {
				"encoding": "inplace",
				"label": "uint256",
				"numberOfBytes": "32"
			},
			"t_uint8": {
				"encoding": "inplace",
				"label": "uint8",
				"numberOfBytes": "1"
			}
		}
	}
}