{
	"contractName": "QuestFactory",
	"address": "0x5B421516995D47c6082708614eC1E6a52C6F8EcD",
	"abi": [
		{
			"inputs": [],
			"name": "AddressAlreadyMinted",
			"type": "error"
		},
		{
			"inputs": [],
			"name": "AddressNotSigned",
			"type": "error"
		},
		{
			"inputs": [],
			"name": "AddressZeroNotAllowed",
			"type": "error"
		},
		{
			"inputs": [],
			"name": "InvalidHash",
			"type": "error"
		},
		{
			"inputs": [],
			"name": "OnlyOwnerCanCreate1155Quest",
			"type": "error"
		},
		{
			"inputs": [],
			"name": "OverMaxAllowedToMint",
			"type": "error"
		},
		{
			"inputs": [],
			"name": "QuestFeeTooHigh",
			"type": "error"
		},
		{
			"inputs": [],
			"name": "QuestIdUsed",
			"type": "error"
		},
		{
			"inputs": [],
			"name": "QuestTypeInvalid",
			"type": "error"
		},
		{
			"inputs": [],
			"name": "RewardNotAllowed",
			"type": "error"
		},
		{
			"anonymous": false,
			"inputs": [
				{
					"indexed": false,
					"internalType": "uint8",
					"name": "version",
					"type": "uint8"
				}
			],
			"name": "Initialized",
			"type": "event"
		},
		{
			"anonymous": false,
			"inputs": [
				{
					"indexed": true,
					"internalType": "address",
					"name": "previousOwner",
					"type": "address"
				},
				{
					"indexed": true,
					"internalType": "address",
					"name": "newOwner",
					"type": "address"
				}
			],
			"name": "OwnershipTransferred",
			"type": "event"
		},
		{
			"anonymous": false,
			"inputs": [
				{
					"indexed": true,
					"internalType": "address",
					"name": "creator",
					"type": "address"
				},
				{
					"indexed": true,
					"internalType": "address",
					"name": "contractAddress",
					"type": "address"
				},
				{
					"indexed": true,
					"internalType": "string",
					"name": "questId",
					"type": "string"
				},
				{
					"indexed": false,
					"internalType": "string",
					"name": "contractType",
					"type": "string"
				},
				{
					"indexed": false,
					"internalType": "address",
					"name": "rewardTokenAddress",
					"type": "address"
				},
				{
					"indexed": false,
					"internalType": "uint256",
					"name": "endTime",
					"type": "uint256"
				},
				{
					"indexed": false,
					"internalType": "uint256",
					"name": "startTime",
					"type": "uint256"
				},
				{
					"indexed": false,
					"internalType": "uint256",
					"name": "totalParticipants",
					"type": "uint256"
				},
				{
					"indexed": false,
					"internalType": "uint256",
					"name": "rewardAmountOrTokenId",
					"type": "uint256"
				}
			],
			"name": "QuestCreated",
			"type": "event"
		},
		{
			"anonymous": false,
			"inputs": [
				{
					"indexed": true,
					"internalType": "address",
					"name": "recipient",
					"type": "address"
				},
				{
					"indexed": true,
					"internalType": "string",
					"name": "questId",
					"type": "string"
				}
			],
			"name": "ReceiptMinted",
			"type": "event"
		},
		{
			"anonymous": false,
			"inputs": [
				{
					"indexed": true,
					"internalType": "bytes32",
					"name": "role",
					"type": "bytes32"
				},
				{
					"indexed": true,
					"internalType": "bytes32",
					"name": "previousAdminRole",
					"type": "bytes32"
				},
				{
					"indexed": true,
					"internalType": "bytes32",
					"name": "newAdminRole",
					"type": "bytes32"
				}
			],
			"name": "RoleAdminChanged",
			"type": "event"
		},
		{
			"anonymous": false,
			"inputs": [
				{
					"indexed": true,
					"internalType": "bytes32",
					"name": "role",
					"type": "bytes32"
				},
				{
					"indexed": true,
					"internalType": "address",
					"name": "account",
					"type": "address"
				},
				{
					"indexed": true,
					"internalType": "address",
					"name": "sender",
					"type": "address"
				}
			],
			"name": "RoleGranted",
			"type": "event"
		},
		{
			"anonymous": false,
			"inputs": [
				{
					"indexed": true,
					"internalType": "bytes32",
					"name": "role",
					"type": "bytes32"
				},
				{
					"indexed": true,
					"internalType": "address",
					"name": "account",
					"type": "address"
				},
				{
					"indexed": true,
					"internalType": "address",
					"name": "sender",
					"type": "address"
				}
			],
			"name": "RoleRevoked",
			"type": "event"
		},
		{
			"inputs": [],
			"name": "CREATE_QUEST_ROLE",
			"outputs": [
				{
					"internalType": "bytes32",
					"name": "",
					"type": "bytes32"
				}
			],
			"stateMutability": "view",
			"type": "function"
		},
		{
			"inputs": [],
			"name": "DEFAULT_ADMIN_ROLE",
			"outputs": [
				{
					"internalType": "bytes32",
					"name": "",
					"type": "bytes32"
				}
			],
			"stateMutability": "view",
			"type": "function"
		},
		{
			"inputs": [],
			"name": "claimSignerAddress",
			"outputs": [
				{
					"internalType": "address",
					"name": "",
					"type": "address"
				}
			],
			"stateMutability": "view",
			"type": "function"
		},
		{
			"inputs": [
				{
					"internalType": "address",
					"name": "rewardTokenAddress_",
					"type": "address"
				},
				{
					"internalType": "uint256",
					"name": "endTime_",
					"type": "uint256"
				},
				{
					"internalType": "uint256",
					"name": "startTime_",
					"type": "uint256"
				},
				{
					"internalType": "uint256",
					"name": "totalParticipants_",
					"type": "uint256"
				},
				{
					"internalType": "uint256",
					"name": "rewardAmountOrTokenId_",
					"type": "uint256"
				},
				{
					"internalType": "string",
					"name": "contractType_",
					"type": "string"
				},
				{
					"internalType": "string",
					"name": "questId_",
					"type": "string"
				}
			],
			"name": "createQuest",
			"outputs": [
				{
					"internalType": "address",
					"name": "",
					"type": "address"
				}
			],
			"stateMutability": "nonpayable",
			"type": "function"
		},
		{
			"inputs": [],
			"name": "erc1155QuestAddress",
			"outputs": [
				{
					"internalType": "address",
					"name": "",
					"type": "address"
				}
			],
			"stateMutability": "view",
			"type": "function"
		},
		{
			"inputs": [],
			"name": "erc20QuestAddress",
			"outputs": [
				{
					"internalType": "address",
					"name": "",
					"type": "address"
				}
			],
			"stateMutability": "view",
			"type": "function"
		},
		{
			"inputs": [
				{
					"internalType": "string",
					"name": "questId_",
					"type": "string"
				},
				{
					"internalType": "address",
					"name": "address_",
					"type": "address"
				}
			],
			"name": "getAddressMinted",
			"outputs": [
				{
					"internalType": "bool",
					"name": "",
					"type": "bool"
				}
			],
			"stateMutability": "view",
			"type": "function"
		},
		{
			"inputs": [
				{
					"internalType": "string",
					"name": "questId_",
					"type": "string"
				}
			],
			"name": "getNumberMinted",
			"outputs": [
				{
					"internalType": "uint256",
					"name": "",
					"type": "uint256"
				}
			],
			"stateMutability": "view",
			"type": "function"
		},
		{
			"inputs": [
				{
					"internalType": "bytes32",
					"name": "role",
					"type": "bytes32"
				}
			],
			"name": "getRoleAdmin",
			"outputs": [
				{
					"internalType": "bytes32",
					"name": "",
					"type": "bytes32"
				}
			],
			"stateMutability": "view",
			"type": "function"
		},
		{
			"inputs": [
				{
					"internalType": "bytes32",
					"name": "role",
					"type": "bytes32"
				},
				{
					"internalType": "address",
					"name": "account",
					"type": "address"
				}
			],
			"name": "grantRole",
			"outputs": [],
			"stateMutability": "nonpayable",
			"type": "function"
		},
		{
			"inputs": [
				{
					"internalType": "bytes32",
					"name": "role",
					"type": "bytes32"
				},
				{
					"internalType": "address",
					"name": "account",
					"type": "address"
				}
			],
			"name": "hasRole",
			"outputs": [
				{
					"internalType": "bool",
					"name": "",
					"type": "bool"
				}
			],
			"stateMutability": "view",
			"type": "function"
		},
		{
			"inputs": [
				{
					"internalType": "string",
					"name": "questId_",
					"type": "string"
				},
				{
					"internalType": "bytes32",
					"name": "hash_",
					"type": "bytes32"
				},
				{
					"internalType": "bytes",
					"name": "signature_",
					"type": "bytes"
				}
			],
			"name": "mintReceipt",
			"outputs": [],
			"stateMutability": "nonpayable",
			"type": "function"
		},
		{
			"inputs": [],
			"name": "owner",
			"outputs": [
				{
					"internalType": "address",
					"name": "",
					"type": "address"
				}
			],
			"stateMutability": "view",
			"type": "function"
		},
		{
			"inputs": [],
			"name": "protocolFeeRecipient",
			"outputs": [
				{
					"internalType": "address",
					"name": "",
					"type": "address"
				}
			],
			"stateMutability": "view",
			"type": "function"
		},
		{
			"inputs": [],
			"name": "questFee",
			"outputs": [
				{
					"internalType": "uint256",
					"name": "",
					"type": "uint256"
				}
			],
			"stateMutability": "view",
			"type": "function"
		},
		{
			"inputs": [
				{
					"internalType": "string",
					"name": "questId_",
					"type": "string"
				}
			],
			"name": "questInfo",
			"outputs": [
				{
					"internalType": "address",
					"name": "",
					"type": "address"
				},
				{
					"internalType": "uint256",
					"name": "",
					"type": "uint256"
				},
				{
					"internalType": "uint256",
					"name": "",
					"type": "uint256"
				}
			],
			"stateMutability": "view",
			"type": "function"
		},
		{
			"inputs": [
				{
					"internalType": "string",
					"name": "",
					"type": "string"
				}
			],
			"name": "quests",
			"outputs": [
				{
					"internalType": "address",
					"name": "questAddress",
					"type": "address"
				},
				{
					"internalType": "uint256",
					"name": "totalParticipants",
					"type": "uint256"
				},
				{
					"internalType": "uint256",
					"name": "numberMinted",
					"type": "uint256"
				}
			],
			"stateMutability": "view",
			"type": "function"
		},
		{
			"inputs": [],
			"name": "rabbitholeReceiptContract",
			"outputs": [
				{
					"internalType": "contract RabbitHoleReceipt",
					"name": "",
					"type": "address"
				}
			],
			"stateMutability": "view",
			"type": "function"
		},
		{
			"inputs": [
				{
					"internalType": "bytes32",
					"name": "hash_",
					"type": "bytes32"
				},
				{
					"internalType": "bytes",
					"name": "signature_",
					"type": "bytes"
				}
			],
			"name": "recoverSigner",
			"outputs": [
				{
					"internalType": "address",
					"name": "",
					"type": "address"
				}
			],
			"stateMutability": "pure",
			"type": "function"
		},
		{
			"inputs": [],
			"name": "renounceOwnership",
			"outputs": [],
			"stateMutability": "nonpayable",
			"type": "function"
		},
		{
			"inputs": [
				{
					"internalType": "bytes32",
					"name": "role",
					"type": "bytes32"
				},
				{
					"internalType": "address",
					"name": "account",
					"type": "address"
				}
			],
			"name": "renounceRole",
			"outputs": [],
			"stateMutability": "nonpayable",
			"type": "function"
		},
		{
			"inputs": [
				{
					"internalType": "bytes32",
					"name": "role",
					"type": "bytes32"
				},
				{
					"internalType": "address",
					"name": "account",
					"type": "address"
				}
			],
			"name": "revokeRole",
			"outputs": [],
			"stateMutability": "nonpayable",
			"type": "function"
		},
		{
			"inputs": [
				{
					"internalType": "address",
					"name": "",
					"type": "address"
				}
			],
			"name": "rewardAllowlist",
			"outputs": [
				{
					"internalType": "bool",
					"name": "",
					"type": "bool"
				}
			],
			"stateMutability": "view",
			"type": "function"
		},
		{
			"inputs": [
				{
					"internalType": "address",
					"name": "claimSignerAddress_",
					"type": "address"
				}
			],
			"name": "setClaimSignerAddress",
			"outputs": [],
			"stateMutability": "nonpayable",
			"type": "function"
		},
		{
			"inputs": [
				{
					"internalType": "address",
					"name": "erc1155QuestAddress_",
					"type": "address"
				}
			],
			"name": "setErc1155QuestAddress",
			"outputs": [],
			"stateMutability": "nonpayable",
			"type": "function"
		},
		{
			"inputs": [
				{
					"internalType": "address",
					"name": "erc20QuestAddress_",
					"type": "address"
				}
			],
			"name": "setErc20QuestAddress",
			"outputs": [],
			"stateMutability": "nonpayable",
			"type": "function"
		},
		{
			"inputs": [
				{
					"internalType": "address",
					"name": "protocolFeeRecipient_",
					"type": "address"
				}
			],
			"name": "setProtocolFeeRecipient",
			"outputs": [],
			"stateMutability": "nonpayable",
			"type": "function"
		},
		{
			"inputs": [
				{
					"internalType": "uint256",
					"name": "questFee_",
					"type": "uint256"
				}
			],
			"name": "setQuestFee",
			"outputs": [],
			"stateMutability": "nonpayable",
			"type": "function"
		},
		{
			"inputs": [
				{
					"internalType": "address",
					"name": "rabbitholeReceiptContract_",
					"type": "address"
				}
			],
			"name": "setRabbitHoleReceiptContract",
			"outputs": [],
			"stateMutability": "nonpayable",
			"type": "function"
		},
		{
			"inputs": [
				{
					"internalType": "address",
					"name": "rewardAddress_",
					"type": "address"
				},
				{
					"internalType": "bool",
					"name": "allowed_",
					"type": "bool"
				}
			],
			"name": "setRewardAllowlistAddress",
			"outputs": [],
			"stateMutability": "nonpayable",
			"type": "function"
		},
		{
			"inputs": [
				{
					"internalType": "bytes4",
					"name": "interfaceId",
					"type": "bytes4"
				}
			],
			"name": "supportsInterface",
			"outputs": [
				{
					"internalType": "bool",
					"name": "",
					"type": "bool"
				}
			],
			"stateMutability": "view",
			"type": "function"
		},
		{
			"inputs": [
				{
					"internalType": "address",
					"name": "newOwner",
					"type": "address"
				}
			],
			"name": "transferOwnership",
			"outputs": [],
			"stateMutability": "nonpayable",
			"type": "function"
		}
	],
	"transactionHash": "0xdeee687f88400d9436ca8a4df5da434e914e3a311151d16009a77f84c90d363b",
	"solcInputHash": "1c4d1e3da2f57850d9819851bd5dcc01",
	"numDeployments": 1,
	"args": [],
	"bytecode": "0x608060405234801561001057600080fd5b506121fe806100206000396000f3fe608060405234801561001057600080fd5b50600436106101f05760003560e01c80637c93f9ee1161010f578063d4faaa17116100a2578063ec461ac411610071578063ec461ac4146104c3578063f2fde38b146104d6578063f8565efd146104e9578063fb41808a146104fc57600080fd5b8063d4faaa1714610477578063d547741f1461048a578063d693e8d31461049d578063e521cb92146104b057600080fd5b806397aba7f9116100de57806397aba7f914610436578063a1db1ba414610449578063a217fddf1461045c578063b4cbdd8b1461046457600080fd5b80637c93f9ee1461036d5780637e4176e3146103805780638da5cb5b146103ec57806391d14854146103fd57600080fd5b806343f8bc6f1161018757806367dfa3e71161015657806367dfa3e714610326578063695ef19f1461032f578063715018a61461035257806376319ee01461035a57600080fd5b806343f8bc6f146102da57806343ff27d1146102ed57806361ab146b1461030057806364df049e1461031357600080fd5b8063248a9ca3116101c3578063248a9ca31461027057806327b0655f146102a15780632f2ff15d146102b457806336568abe146102c757600080fd5b806301ffc9a7146101f55780630b6fc1631461021d5780630e197865146102485780631baea8701461025d575b600080fd5b610208610203366004611ae8565b610523565b60405190151581526020015b60405180910390f35b60c954610230906001600160a01b031681565b6040516001600160a01b039091168152602001610214565b61025b610256366004611b2a565b6105bc565b005b60cc54610230906001600160a01b031681565b61029361027e366004611b2a565b60009081526097602052604090206001015490565b604051908152602001610214565b6102086102af366004611c16565b610605565b61025b6102c2366004611c64565b610649565b61025b6102d5366004611c64565b610673565b6102306102e8366004611c87565b610704565b6102936102fb366004611d22565b610c9c565b61025b61030e366004611d57565b610cc7565b60ca54610230906001600160a01b031681565b61029360ce5481565b61020861033d366004611d57565b60cd6020526000908152604090205460ff1681565b61025b610d09565b61025b610368366004611d72565b610d1d565b61025b61037b366004611d57565b610ff8565b6103c761038e366004611d22565b805160208183018101805160cb825292820191909301209152600181015460028201546003909201546001600160a01b03909116919083565b604080516001600160a01b039094168452602084019290925290820152606001610214565b6033546001600160a01b0316610230565b61020861040b366004611c64565b60009182526097602090815260408084206001600160a01b0393909316845291905290205460ff1690565b610230610444366004611ddf565b61103a565b60cf54610230906001600160a01b031681565b610293600081565b61025b610472366004611d57565b61109c565b60d054610230906001600160a01b031681565b61025b610498366004611c64565b6110de565b61025b6104ab366004611e26565b611103565b61025b6104be366004611d57565b611136565b6103c76104d1366004611d22565b6111b8565b61025b6104e4366004611d57565b611239565b61025b6104f7366004611d57565b6112c9565b6102937ff9ca453be4e83785e69957dffc5e557020ebe7df32422c6d32ccad977982cadd81565b60007fffffffff0000000000000000000000000000000000000000000000000000000082167f7965db0b0000000000000000000000000000000000000000000000000000000014806105b657507f01ffc9a7000000000000000000000000000000000000000000000000000000007fffffffff000000000000000000000000000000000000000000000000000000008316145b92915050565b6105c461130b565b612710811115610600576040517f4ae19ab600000000000000000000000000000000000000000000000000000000815260040160405180910390fd5b60ce55565b600060cb836040516106179190611e92565b908152604080519182900360209081019092206001600160a01b0385166000908152925290205460ff16905092915050565b60008281526097602052604090206001015461066481611365565b61066e838361136f565b505050565b6001600160a01b03811633146106f65760405162461bcd60e51b815260206004820152602f60248201527f416363657373436f6e74726f6c3a2063616e206f6e6c792072656e6f756e636560448201527f20726f6c657320666f722073656c66000000000000000000000000000000000060648201526084015b60405180910390fd5b6107008282611411565b5050565b60007ff9ca453be4e83785e69957dffc5e557020ebe7df32422c6d32ccad977982cadd61073081611365565b60006001600160a01b031660cb8460405161074b9190611e92565b908152604051908190036020019020600101546001600160a01b03161461079e576040517fb2431b6100000000000000000000000000000000000000000000000000000000815260040160405180910390fd5b6040517f6572633230000000000000000000000000000000000000000000000000000000602082015260250160405160208183030381529060405280519060200120846040516020016107f19190611e92565b6040516020818303038152906040528051906020012003610a68576001600160a01b038916600090815260cd602052604081205460ff1615159003610862576040517f9f7fdf3100000000000000000000000000000000000000000000000000000000815260040160405180910390fd5b60cf5460009061087a906001600160a01b0316611494565b90508360405161088a9190611e92565b6040518091039020816001600160a01b0316336001600160a01b03167f7ffd904b9426b92270b251e237818b61230a9c7dc857d7e6130dddc21b761937888e8e8e8e8e6040516108df96959493929190611eda565b60405180910390a48060cb856040516108f89190611e92565b908152602001604051809103902060010160006101000a8154816001600160a01b0302191690836001600160a01b031602179055508660cb8560405161093e9190611e92565b908152602001604051809103902060020181905550806001600160a01b03166349ad71088b8b8b8b8b8a60cc60009054906101000a90046001600160a01b031660ce5460ca60009054906101000a90046001600160a01b03166040518a63ffffffff1660e01b81526004016109bb99989796959493929190611f1f565b600060405180830381600087803b1580156109d557600080fd5b505af11580156109e9573d6000803e3d6000fd5b50506040517ff2fde38b0000000000000000000000000000000000000000000000000000000081523360048201526001600160a01b038416925063f2fde38b9150602401600060405180830381600087803b158015610a4757600080fd5b505af1158015610a5b573d6000803e3d6000fd5b5050505080925050610c90565b6040517f657263313135350000000000000000000000000000000000000000000000000060208201526027016040516020818303038152906040528051906020012084604051602001610abb9190611e92565b6040516020818303038152906040528051906020012003610c5e576033546001600160a01b03163314610b1a576040517f764a7c5000000000000000000000000000000000000000000000000000000000815260040160405180910390fd5b60d054600090610b32906001600160a01b0316611494565b905083604051610b429190611e92565b6040518091039020816001600160a01b0316336001600160a01b03167f7ffd904b9426b92270b251e237818b61230a9c7dc857d7e6130dddc21b761937888e8e8e8e8e604051610b9796959493929190611eda565b60405180910390a48060cb85604051610bb09190611e92565b908152602001604051809103902060010160006101000a8154816001600160a01b0302191690836001600160a01b031602179055508660cb85604051610bf69190611e92565b9081526040519081900360200181206002019190915560cc547fb7af306e0000000000000000000000000000000000000000000000000000000082526001600160a01b038084169263b7af306e926109bb928f928f928f928f928f928e921690600401611f80565b6040517fd5fde11d00000000000000000000000000000000000000000000000000000000815260040160405180910390fd5b50979650505050505050565b600060cb82604051610cae9190611e92565b9081526020016040518091039020600301549050919050565b610ccf61130b565b60cc80547fffffffffffffffffffffffff0000000000000000000000000000000000000000166001600160a01b0392909216919091179055565b610d1161130b565b610d1b6000611535565b565b60cb83604051610d2d9190611e92565b90815260200160405180910390206002015460cb84604051610d4f9190611e92565b9081526020016040518091039020600301546001610d6d9190612001565b1115610da5576040517f571e5b1800000000000000000000000000000000000000000000000000000000815260040160405180910390fd5b60cb83604051610db59190611e92565b9081526040805160209281900383019020336000908152925290205460ff161515600103610e0f576040517ff5f915f000000000000000000000000000000000000000000000000000000000815260040160405180910390fd5b813384604051602001610e23929190612019565b6040516020818303038152906040528051906020012014610e70576040517f0af806e000000000000000000000000000000000000000000000000000000000815260040160405180910390fd5b60c9546001600160a01b0316610e86838361103a565b6001600160a01b031614610ec6576040517f05d0fdda00000000000000000000000000000000000000000000000000000000815260040160405180910390fd5b600160cb84604051610ed89190611e92565b908152604080516020928190038301812033600090815293529120805460ff19169215159290921790915560cb90610f11908590611e92565b9081526040519081900360200190206003018054906000610f3183612064565b919050555082604051610f449190611e92565b6040519081900381209033907f5a182001876d81607b650722bf7dc73322f86e5a2723812b51cf40cb53b8fbce90600090a360cc546040517fd0def5210000000000000000000000000000000000000000000000000000000081526001600160a01b039091169063d0def52190610fc1903390879060040161207e565b600060405180830381600087803b158015610fdb57600080fd5b505af1158015610fef573d6000803e3d6000fd5b50505050505050565b61100061130b565b60cf80547fffffffffffffffffffffffff0000000000000000000000000000000000000000166001600160a01b0392909216919091179055565b6040517f19457468657265756d205369676e6564204d6573736167653a0a3332000000006020820152603c81018390526000908190605c01604051602081830303815290604052805190602001209050611094818461159f565b949350505050565b6110a461130b565b60c980547fffffffffffffffffffffffff0000000000000000000000000000000000000000166001600160a01b0392909216919091179055565b6000828152609760205260409020600101546110f981611365565b61066e8383611411565b61110b61130b565b6001600160a01b0391909116600090815260cd60205260409020805460ff1916911515919091179055565b61113e61130b565b6001600160a01b03811661117e576040517f0855380c00000000000000000000000000000000000000000000000000000000815260040160405180910390fd5b60ca80547fffffffffffffffffffffffff0000000000000000000000000000000000000000166001600160a01b0392909216919091179055565b600080600060cb846040516111cd9190611e92565b908152604051908190036020018120600101546001600160a01b03169060cb906111f8908790611e92565b90815260200160405180910390206002015460cb8660405161121a9190611e92565b9081526020016040518091039020600301549250925092509193909250565b61124161130b565b6001600160a01b0381166112bd5760405162461bcd60e51b815260206004820152602660248201527f4f776e61626c653a206e6577206f776e657220697320746865207a65726f206160448201527f646472657373000000000000000000000000000000000000000000000000000060648201526084016106ed565b6112c681611535565b50565b6112d161130b565b60d080547fffffffffffffffffffffffff0000000000000000000000000000000000000000166001600160a01b0392909216919091179055565b6033546001600160a01b03163314610d1b5760405162461bcd60e51b815260206004820181905260248201527f4f776e61626c653a2063616c6c6572206973206e6f7420746865206f776e657260448201526064016106ed565b6112c681336115c3565b60008281526097602090815260408083206001600160a01b038516845290915290205460ff166107005760008281526097602090815260408083206001600160a01b03851684529091529020805460ff191660011790556113cd3390565b6001600160a01b0316816001600160a01b0316837f2f8788117e7eff1d82e926ec794901d17c78024a50270940304540a733656f0d60405160405180910390a45050565b60008281526097602090815260408083206001600160a01b038516845290915290205460ff16156107005760008281526097602090815260408083206001600160a01b0385168085529252808320805460ff1916905551339285917ff6391f5c32d9c69d2a47ea670b442974b53935d1edc7fd64eb21e047a839171b9190a45050565b6000763d602d80600a3d3981f3363d3d373d3d3d363d730000008260601b60e81c176000526e5af43d82803e903d91602b57fd5bf38260781b17602052603760096000f090506001600160a01b0381166115305760405162461bcd60e51b815260206004820152601660248201527f455243313136373a20637265617465206661696c65640000000000000000000060448201526064016106ed565b919050565b603380546001600160a01b038381167fffffffffffffffffffffffff0000000000000000000000000000000000000000831681179093556040519116919082907f8be0079c531659141344cd1fd0a4f28419497f9722a3daafe3b4186f6b6457e090600090a35050565b60008060006115ae8585611638565b915091506115bb8161167d565b509392505050565b60008281526097602090815260408083206001600160a01b038516845290915290205460ff16610700576115f6816117e2565b6116018360206117f4565b6040516020016116129291906120a0565b60408051601f198184030181529082905262461bcd60e51b82526106ed91600401612121565b600080825160410361166e5760208301516040840151606085015160001a61166287828585611a24565b94509450505050611676565b506000905060025b9250929050565b600081600481111561169157611691612134565b036116995750565b60018160048111156116ad576116ad612134565b036116fa5760405162461bcd60e51b815260206004820152601860248201527f45434453413a20696e76616c6964207369676e6174757265000000000000000060448201526064016106ed565b600281600481111561170e5761170e612134565b0361175b5760405162461bcd60e51b815260206004820152601f60248201527f45434453413a20696e76616c6964207369676e6174757265206c656e6774680060448201526064016106ed565b600381600481111561176f5761176f612134565b036112c65760405162461bcd60e51b815260206004820152602260248201527f45434453413a20696e76616c6964207369676e6174757265202773272076616c60448201527f756500000000000000000000000000000000000000000000000000000000000060648201526084016106ed565b60606105b66001600160a01b03831660145b60606000611803836002612163565b61180e906002612001565b67ffffffffffffffff81111561182657611826611b43565b6040519080825280601f01601f191660200182016040528015611850576020820181803683370190505b5090507f30000000000000000000000000000000000000000000000000000000000000008160008151811061188757611887612182565b60200101907effffffffffffffffffffffffffffffffffffffffffffffffffffffffffffff1916908160001a9053507f7800000000000000000000000000000000000000000000000000000000000000816001815181106118ea576118ea612182565b60200101907effffffffffffffffffffffffffffffffffffffffffffffffffffffffffffff1916908160001a9053506000611926846002612163565b611931906001612001565b90505b60018111156119ce577f303132333435363738396162636465660000000000000000000000000000000085600f166010811061197257611972612182565b1a60f81b82828151811061198857611988612182565b60200101907effffffffffffffffffffffffffffffffffffffffffffffffffffffffffffff1916908160001a90535060049490941c936119c7816121b1565b9050611934565b508315611a1d5760405162461bcd60e51b815260206004820181905260248201527f537472696e67733a20686578206c656e67746820696e73756666696369656e7460448201526064016106ed565b9392505050565b6000807f7fffffffffffffffffffffffffffffff5d576e7357a4501ddfe92f46681b20a0831115611a5b5750600090506003611adf565b6040805160008082526020820180845289905260ff881692820192909252606081018690526080810185905260019060a0016020604051602081039080840390855afa158015611aaf573d6000803e3d6000fd5b5050604051601f1901519150506001600160a01b038116611ad857600060019250925050611adf565b9150600090505b94509492505050565b600060208284031215611afa57600080fd5b81357fffffffff0000000000000000000000000000000000000000000000000000000081168114611a1d57600080fd5b600060208284031215611b3c57600080fd5b5035919050565b7f4e487b7100000000000000000000000000000000000000000000000000000000600052604160045260246000fd5b600082601f830112611b8357600080fd5b813567ffffffffffffffff80821115611b9e57611b9e611b43565b604051601f8301601f19908116603f01168101908282118183101715611bc657611bc6611b43565b81604052838152866020858801011115611bdf57600080fd5b836020870160208301376000602085830101528094505050505092915050565b80356001600160a01b038116811461153057600080fd5b60008060408385031215611c2957600080fd5b823567ffffffffffffffff811115611c4057600080fd5b611c4c85828601611b72565b925050611c5b60208401611bff565b90509250929050565b60008060408385031215611c7757600080fd5b82359150611c5b60208401611bff565b600080600080600080600060e0888a031215611ca257600080fd5b611cab88611bff565b96506020880135955060408801359450606088013593506080880135925060a088013567ffffffffffffffff80821115611ce457600080fd5b611cf08b838c01611b72565b935060c08a0135915080821115611d0657600080fd5b50611d138a828b01611b72565b91505092959891949750929550565b600060208284031215611d3457600080fd5b813567ffffffffffffffff811115611d4b57600080fd5b61109484828501611b72565b600060208284031215611d6957600080fd5b611a1d82611bff565b600080600060608486031215611d8757600080fd5b833567ffffffffffffffff80821115611d9f57600080fd5b611dab87838801611b72565b9450602086013593506040860135915080821115611dc857600080fd5b50611dd586828701611b72565b9150509250925092565b60008060408385031215611df257600080fd5b82359150602083013567ffffffffffffffff811115611e1057600080fd5b611e1c85828601611b72565b9150509250929050565b60008060408385031215611e3957600080fd5b611e4283611bff565b915060208301358015158114611e5757600080fd5b809150509250929050565b60005b83811015611e7d578181015183820152602001611e65565b83811115611e8c576000848401525b50505050565b60008251611ea4818460208701611e62565b9190910192915050565b60008151808452611ec6816020860160208601611e62565b601f01601f19169290920160200192915050565b60c081526000611eed60c0830189611eae565b6001600160a01b039790971660208301525060408101949094526060840192909252608083015260a090910152919050565b60006101206001600160a01b03808d1684528b60208501528a60408501528960608501528860808501528160a0850152611f5b82850189611eae565b96811660c085015260e084019590955250509116610100909101529695505050505050565b60006001600160a01b03808a16835288602084015287604084015286606084015285608084015260e060a0840152611fbb60e0840186611eae565b915080841660c08401525098975050505050505050565b7f4e487b7100000000000000000000000000000000000000000000000000000000600052601160045260246000fd5b6000821982111561201457612014611fd2565b500190565b7fffffffffffffffffffffffffffffffffffffffff0000000000000000000000008360601b16815260008251612056816014850160208701611e62565b919091016014019392505050565b6000600019820361207757612077611fd2565b5060010190565b6001600160a01b03831681526040602082015260006110946040830184611eae565b7f416363657373436f6e74726f6c3a206163636f756e74200000000000000000008152600083516120d8816017850160208801611e62565b7f206973206d697373696e6720726f6c65200000000000000000000000000000006017918401918201528351612115816028840160208801611e62565b01602801949350505050565b602081526000611a1d6020830184611eae565b7f4e487b7100000000000000000000000000000000000000000000000000000000600052602160045260246000fd5b600081600019048311821515161561217d5761217d611fd2565b500290565b7f4e487b7100000000000000000000000000000000000000000000000000000000600052603260045260246000fd5b6000816121c0576121c0611fd2565b50600019019056fea2646970667358221220c389e3a96088039389371bbab8d51720ca9775fca863d9c95d3b2aadfeea4e0064736f6c634300080f0033",
	"deployedBytecode": "0x60806040526004361061004e5760003560e01c80633659cfe6146100655780634f1ef286146100855780635c60da1b146100ae5780638f283970146100db578063f851a440146100fb5761005d565b3661005d5761005b610110565b005b61005b610110565b34801561007157600080fd5b5061005b61008036600461051d565b6101c8565b610098610093366004610538565b61020e565b6040516100a591906105bb565b60405180910390f35b3480156100ba57600080fd5b506100c361033e565b6040516001600160a01b0390911681526020016100a5565b3480156100e757600080fd5b5061005b6100f636600461051d565b6103a9565b34801561010757600080fd5b506100c36103e4565b600061013a7f360894a13ba1a3210667c828492db98dca3e2076cc3735a920a3ca505d382bbc5490565b90506001600160a01b0381166101a55760405162461bcd60e51b815260206004820152602560248201527f50726f78793a20696d706c656d656e746174696f6e206e6f7420696e697469616044820152641b1a5e995960da1b60648201526084015b60405180910390fd5b3660008037600080366000845af43d6000803e806101c2573d6000fd5b503d6000f35b600080516020610621833981519152546001600160a01b0316336001600160a01b031614806101f5575033155b156102065761020381610432565b50565b610203610110565b60606102266000805160206106218339815191525490565b6001600160a01b0316336001600160a01b03161480610243575033155b1561032f5761025184610432565b600080856001600160a01b0316858560405161026e929190610610565b600060405180830381855af49150503d80600081146102a9576040519150601f19603f3d011682016040523d82523d6000602084013e6102ae565b606091505b5091509150816103265760405162461bcd60e51b815260206004820152603960248201527f50726f78793a2064656c656761746563616c6c20746f206e657720696d706c6560448201527f6d656e746174696f6e20636f6e7472616374206661696c656400000000000000606482015260840161019c565b91506103379050565b610337610110565b9392505050565b60006103566000805160206106218339815191525490565b6001600160a01b0316336001600160a01b03161480610373575033155b1561039e57507f360894a13ba1a3210667c828492db98dca3e2076cc3735a920a3ca505d382bbc5490565b6103a6610110565b90565b600080516020610621833981519152546001600160a01b0316336001600160a01b031614806103d6575033155b15610206576102038161048d565b60006103fc6000805160206106218339815191525490565b6001600160a01b0316336001600160a01b03161480610419575033155b1561039e57506000805160206106218339815191525490565b7f360894a13ba1a3210667c828492db98dca3e2076cc3735a920a3ca505d382bbc8190556040516001600160a01b038216907fbc7cd75a20ee27fd9adebab32041f755214dbc6bffa90cc0225b39da2e5c2d3b90600090a250565b60006104a56000805160206106218339815191525490565b600080516020610621833981519152839055604080516001600160a01b038084168252851660208201529192507f7e644d79422f17c01e4894b5f4f588d331ebfa28653d42ae832dc59e38c9798f910160405180910390a15050565b80356001600160a01b038116811461051857600080fd5b919050565b60006020828403121561052f57600080fd5b61033782610501565b60008060006040848603121561054d57600080fd5b61055684610501565b9250602084013567ffffffffffffffff8082111561057357600080fd5b818601915086601f83011261058757600080fd5b81358181111561059657600080fd5b8760208285010111156105a857600080fd5b6020830194508093505050509250925092565b600060208083528351808285015260005b818110156105e8578581018301518582016040015282016105cc565b818111156105fa576000604083870101525b50601f01601f1916929092016040019392505050565b818382376000910190815291905056feb53127684a568b3173ae13b9f8a6016e243e63b6e8ee1178d6a717850b5d6103a26469706673582212202bd1f0b5e6fde550b88238730ef8a1aca50c563a9964646d6babc0ad93dbcf3b64736f6c634300080f0033",
	"devdoc": {
		"author": "RabbitHole.gg",
		"details": "This contract is used to create quests and mint receipts",
		"kind": "dev",
		"methods": {
			"createQuest(address,uint256,uint256,uint256,uint256,string,string)": {
				"details": "Create either an erc20 or erc1155 quest, only accounts with the CREATE_QUEST_ROLE can create quests",
				"params": {
					"contractType_": "The type of quest, either erc20 or erc1155",
					"endTime_": "The end time of the quest",
					"questId_": "The id of the quest",
					"rewardAmountOrTokenId_": "The reward amount for an erc20 quest or the token id for an erc1155 quest",
					"rewardTokenAddress_": "The contract address of the reward token",
					"startTime_": "The start time of the quest",
					"totalParticipants_": "The total amount of participants (accounts) the quest will have"
				},
				"returns": {
					"_0": "address the quest contract address"
				}
			},
			"getAddressMinted(string,address)": {
				"details": "return status of whether an address has minted a receipt for a quest",
				"params": {
					"address_": "The address to check",
					"questId_": "The id of the quest"
				},
				"returns": {
					"_0": "Minted status"
				}
			},
			"getNumberMinted(string)": {
				"details": "return the number of minted receipts for a quest",
				"params": {
					"questId_": "The id of the quest"
				}
			},
			"getRoleAdmin(bytes32)": {
				"details": "Returns the admin role that controls `role`. See {grantRole} and {revokeRole}. To change a role's admin, use {_setRoleAdmin}."
			},
			"grantRole(bytes32,address)": {
				"details": "Grants `role` to `account`. If `account` had not been already granted `role`, emits a {RoleGranted} event. Requirements: - the caller must have ``role``'s admin role. May emit a {RoleGranted} event."
			},
			"hasRole(bytes32,address)": {
				"details": "Returns `true` if `account` has been granted `role`."
			},
			"mintReceipt(string,bytes32,bytes)": {
				"details": "mint a RabbitHole Receipt. Note: this contract must be set as Minter on the receipt contract",
				"params": {
					"hash_": "The hash of the message",
					"questId_": "The id of the quest",
					"signature_": "The signature of the hash"
				}
			},
			"owner()": {
				"details": "Returns the address of the current owner."
			},
			"questInfo(string)": {
				"details": "return data in the quest struct for a questId",
				"params": {
					"questId_": "The id of the quest"
				}
			},
			"recoverSigner(bytes32,bytes)": {
				"details": "recover the signer from a hash and signature",
				"params": {
					"hash_": "The hash of the message",
					"signature_": "The signature of the hash"
				}
			},
			"renounceOwnership()": {
				"details": "Leaves the contract without owner. It will not be possible to call `onlyOwner` functions anymore. Can only be called by the current owner. NOTE: Renouncing ownership will leave the contract without an owner, thereby removing any functionality that is only available to the owner."
			},
			"renounceRole(bytes32,address)": {
				"details": "Revokes `role` from the calling account. Roles are often managed via {grantRole} and {revokeRole}: this function's purpose is to provide a mechanism for accounts to lose their privileges if they are compromised (such as when a trusted device is misplaced). If the calling account had been revoked `role`, emits a {RoleRevoked} event. Requirements: - the caller must be `account`. May emit a {RoleRevoked} event."
			},
			"revokeRole(bytes32,address)": {
				"details": "Revokes `role` from `account`. If `account` had been granted `role`, emits a {RoleRevoked} event. Requirements: - the caller must have ``role``'s admin role. May emit a {RoleRevoked} event."
			},
			"setClaimSignerAddress(address)": {
				"details": "set the claim signer address",
				"params": {
					"claimSignerAddress_": "The address of the claim signer"
				}
			},
			"setErc1155QuestAddress(address)": {
				"details": "set erc1155QuestAddress",
				"params": {
					"erc1155QuestAddress_": "The address of the erc1155 quest"
				}
			},
			"setErc20QuestAddress(address)": {
				"details": "set erc20QuestAddress",
				"params": {
					"erc20QuestAddress_": "The address of the erc20 quest"
				}
			},
			"setProtocolFeeRecipient(address)": {
				"details": "set the protocol fee recipient",
				"params": {
					"protocolFeeRecipient_": "The address of the protocol fee recipient"
				}
			},
			"setQuestFee(uint256)": {
				"details": "set the quest fee",
				"params": {
					"questFee_": "The quest fee value"
				}
			},
			"setRabbitHoleReceiptContract(address)": {
				"details": "set the rabbithole receipt contract",
				"params": {
					"rabbitholeReceiptContract_": "The address of the rabbithole receipt contract"
				}
			},
			"setRewardAllowlistAddress(address,bool)": {
				"details": "set or remave a contract address to be used as a reward",
				"params": {
					"allowed_": "Whether the contract address is allowed or not",
					"rewardAddress_": "The contract address to set"
				}
			},
			"supportsInterface(bytes4)": {
				"details": "See {IERC165-supportsInterface}."
			},
			"transferOwnership(address)": {
				"details": "Transfers ownership of the contract to a new account (`newOwner`). Can only be called by the current owner."
			}
		},
		"title": "QuestFactory",
		"version": 1
	},
	"userdoc": {
		"kind": "user",
		"methods": {
			"setQuestFee(uint256)": {
				"notice": "the quest fee should be in Basis Point units: https://www.investopedia.com/terms/b/basispoint.asp"
			}
		},
		"version": 1
	},
	"storageLayout": {
		"storage": [
			{
				"astId": 566,
				"contract": "contracts/QuestFactory.sol:QuestFactory",
				"label": "_initialized",
				"offset": 0,
				"slot": "0",
				"type": "t_uint8"
			},
			{
				"astId": 569,
				"contract": "contracts/QuestFactory.sol:QuestFactory",
				"label": "_initializing",
				"offset": 1,
				"slot": "0",
				"type": "t_bool"
			},
			{
				"astId": 2734,
				"contract": "contracts/QuestFactory.sol:QuestFactory",
				"label": "__gap",
				"offset": 0,
				"slot": "1",
				"type": "t_array(t_uint256)50_storage"
			},
			{
				"astId": 419,
				"contract": "contracts/QuestFactory.sol:QuestFactory",
				"label": "_owner",
				"offset": 0,
				"slot": "51",
				"type": "t_address"
			},
			{
				"astId": 539,
				"contract": "contracts/QuestFactory.sol:QuestFactory",
				"label": "__gap",
				"offset": 0,
				"slot": "52",
				"type": "t_array(t_uint256)49_storage"
			},
			{
				"astId": 3388,
				"contract": "contracts/QuestFactory.sol:QuestFactory",
				"label": "__gap",
				"offset": 0,
				"slot": "101",
				"type": "t_array(t_uint256)50_storage"
			},
			{
				"astId": 39,
				"contract": "contracts/QuestFactory.sol:QuestFactory",
				"label": "_roles",
				"offset": 0,
				"slot": "151",
				"type": "t_mapping(t_bytes32,t_struct(RoleData)34_storage)"
			},
			{
				"astId": 334,
				"contract": "contracts/QuestFactory.sol:QuestFactory",
				"label": "__gap",
				"offset": 0,
				"slot": "152",
				"type": "t_array(t_uint256)49_storage"
			},
			{
				"astId": 9527,
				"contract": "contracts/QuestFactory.sol:QuestFactory",
				"label": "claimSignerAddress",
				"offset": 0,
				"slot": "201",
				"type": "t_address"
			},
			{
				"astId": 9529,
				"contract": "contracts/QuestFactory.sol:QuestFactory",
				"label": "protocolFeeRecipient",
				"offset": 0,
				"slot": "202",
				"type": "t_address"
			},
			{
				"astId": 9534,
				"contract": "contracts/QuestFactory.sol:QuestFactory",
				"label": "quests",
				"offset": 0,
				"slot": "203",
				"type": "t_mapping(t_string_memory_ptr,t_struct(Quest)9525_storage)"
			},
			{
				"astId": 9537,
				"contract": "contracts/QuestFactory.sol:QuestFactory",
				"label": "rabbitholeReceiptContract",
				"offset": 0,
				"slot": "204",
				"type": "t_contract(RabbitHoleReceipt)10573"
			},
			{
				"astId": 9541,
				"contract": "contracts/QuestFactory.sol:QuestFactory",
				"label": "rewardAllowlist",
				"offset": 0,
				"slot": "205",
				"type": "t_mapping(t_address,t_bool)"
			},
			{
				"astId": 9543,
				"contract": "contracts/QuestFactory.sol:QuestFactory",
				"label": "questFee",
				"offset": 0,
				"slot": "206",
				"type": "t_uint256"
			},
			{
				"astId": 9545,
				"contract": "contracts/QuestFactory.sol:QuestFactory",
				"label": "erc20QuestAddress",
				"offset": 0,
				"slot": "207",
				"type": "t_address"
			},
			{
				"astId": 9547,
				"contract": "contracts/QuestFactory.sol:QuestFactory",
				"label": "erc1155QuestAddress",
				"offset": 0,
				"slot": "208",
				"type": "t_address"
			}
		],
		"types": {
			"t_address": {
				"encoding": "inplace",
				"label": "address",
				"numberOfBytes": "20"
			},
			"t_array(t_uint256)49_storage": {
				"base": "t_uint256",
				"encoding": "inplace",
				"label": "uint256[49]",
				"numberOfBytes": "1568"
			},
			"t_array(t_uint256)50_storage": {
				"base": "t_uint256",
				"encoding": "inplace",
				"label": "uint256[50]",
				"numberOfBytes": "1600"
			},
			"t_bool": {
				"encoding": "inplace",
				"label": "bool",
				"numberOfBytes": "1"
			},
			"t_bytes32": {
				"encoding": "inplace",
				"label": "bytes32",
				"numberOfBytes": "32"
			},
			"t_contract(RabbitHoleReceipt)10573": {
				"encoding": "inplace",
				"label": "contract RabbitHoleReceipt",
				"numberOfBytes": "20"
			},
			"t_mapping(t_address,t_bool)": {
				"encoding": "mapping",
				"key": "t_address",
				"label": "mapping(address => bool)",
				"numberOfBytes": "32",
				"value": "t_bool"
			},
			"t_mapping(t_bytes32,t_struct(RoleData)34_storage)": {
				"encoding": "mapping",
				"key": "t_bytes32",
				"label": "mapping(bytes32 => struct AccessControlUpgradeable.RoleData)",
				"numberOfBytes": "32",
				"value": "t_struct(RoleData)34_storage"
			},
			"t_mapping(t_string_memory_ptr,t_struct(Quest)9525_storage)": {
				"encoding": "mapping",
				"key": "t_string_memory_ptr",
				"label": "mapping(string => struct QuestFactory.Quest)",
				"numberOfBytes": "32",
				"value": "t_struct(Quest)9525_storage"
			},
			"t_string_memory_ptr": {
				"encoding": "bytes",
				"label": "string",
				"numberOfBytes": "32"
			},
			"t_struct(Quest)9525_storage": {
				"encoding": "inplace",
				"label": "struct QuestFactory.Quest",
				"members": [
					{
						"astId": 9518,
						"contract": "contracts/QuestFactory.sol:QuestFactory",
						"label": "addressMinted",
						"offset": 0,
						"slot": "0",
						"type": "t_mapping(t_address,t_bool)"
					},
					{
						"astId": 9520,
						"contract": "contracts/QuestFactory.sol:QuestFactory",
						"label": "questAddress",
						"offset": 0,
						"slot": "1",
						"type": "t_address"
					},
					{
						"astId": 9522,
						"contract": "contracts/QuestFactory.sol:QuestFactory",
						"label": "totalParticipants",
						"offset": 0,
						"slot": "2",
						"type": "t_uint256"
					},
					{
						"astId": 9524,
						"contract": "contracts/QuestFactory.sol:QuestFactory",
						"label": "numberMinted",
						"offset": 0,
						"slot": "3",
						"type": "t_uint256"
					}
				],
				"numberOfBytes": "128"
			},
			"t_struct(RoleData)34_storage": {
				"encoding": "inplace",
				"label": "struct AccessControlUpgradeable.RoleData",
				"members": [
					{
						"astId": 31,
						"contract": "contracts/QuestFactory.sol:QuestFactory",
						"label": "members",
						"offset": 0,
						"slot": "0",
						"type": "t_mapping(t_address,t_bool)"
					},
					{
						"astId": 33,
						"contract": "contracts/QuestFactory.sol:QuestFactory",
						"label": "adminRole",
						"offset": 0,
						"slot": "1",
						"type": "t_bytes32"
					}
				],
				"numberOfBytes": "64"
			},
			"t_uint256": {
				"encoding": "inplace",
				"label": "uint256",
				"numberOfBytes": "32"
			},
			"t_uint8": {
				"encoding": "inplace",
				"label": "uint8",
				"numberOfBytes": "1"
			}
		}
	}
}