{
	"contractName": "RabbitHoleTickets",
	"address": "0x70dd3F5f2356fdAeaE5aE517e0fB862b1Ce2F29C",
	"abi": [
		{
			"anonymous": false,
			"inputs": [
				{
					"indexed": true,
					"internalType": "address",
					"name": "account",
					"type": "address"
				},
				{
					"indexed": true,
					"internalType": "address",
					"name": "operator",
					"type": "address"
				},
				{
					"indexed": false,
					"internalType": "bool",
					"name": "approved",
					"type": "bool"
				}
			],
			"name": "ApprovalForAll",
			"type": "event"
		},
		{
			"anonymous": false,
			"inputs": [
				{
					"indexed": false,
					"internalType": "uint8",
					"name": "version",
					"type": "uint8"
				}
			],
			"name": "Initialized",
			"type": "event"
		},
		{
			"anonymous": false,
			"inputs": [
				{
					"indexed": true,
					"internalType": "address",
					"name": "minterAddress",
					"type": "address"
				}
			],
			"name": "MinterAddressSet",
			"type": "event"
		},
		{
			"anonymous": false,
			"inputs": [
				{
					"indexed": true,
					"internalType": "address",
					"name": "previousOwner",
					"type": "address"
				},
				{
					"indexed": true,
					"internalType": "address",
					"name": "newOwner",
					"type": "address"
				}
			],
			"name": "OwnershipTransferred",
			"type": "event"
		},
		{
			"anonymous": false,
			"inputs": [
				{
					"indexed": true,
					"internalType": "uint256",
					"name": "royaltyFee",
					"type": "uint256"
				}
			],
			"name": "RoyaltyFeeSet",
			"type": "event"
		},
		{
			"anonymous": false,
			"inputs": [
				{
					"indexed": true,
					"internalType": "address",
					"name": "operator",
					"type": "address"
				},
				{
					"indexed": true,
					"internalType": "address",
					"name": "from",
					"type": "address"
				},
				{
					"indexed": true,
					"internalType": "address",
					"name": "to",
					"type": "address"
				},
				{
					"indexed": false,
					"internalType": "uint256[]",
					"name": "ids",
					"type": "uint256[]"
				},
				{
					"indexed": false,
					"internalType": "uint256[]",
					"name": "values",
					"type": "uint256[]"
				}
			],
			"name": "TransferBatch",
			"type": "event"
		},
		{
			"anonymous": false,
			"inputs": [
				{
					"indexed": true,
					"internalType": "address",
					"name": "operator",
					"type": "address"
				},
				{
					"indexed": true,
					"internalType": "address",
					"name": "from",
					"type": "address"
				},
				{
					"indexed": true,
					"internalType": "address",
					"name": "to",
					"type": "address"
				},
				{
					"indexed": false,
					"internalType": "uint256",
					"name": "id",
					"type": "uint256"
				},
				{
					"indexed": false,
					"internalType": "uint256",
					"name": "value",
					"type": "uint256"
				}
			],
			"name": "TransferSingle",
			"type": "event"
		},
		{
			"anonymous": false,
			"inputs": [
				{
					"indexed": false,
					"internalType": "string",
					"name": "value",
					"type": "string"
				},
				{
					"indexed": true,
					"internalType": "uint256",
					"name": "id",
					"type": "uint256"
				}
			],
			"name": "URI",
			"type": "event"
		},
		{
			"inputs": [],
			"name": "TicketRendererContract",
			"outputs": [
				{
					"internalType": "contract TicketRenderer",
					"name": "",
					"type": "address"
				}
			],
			"stateMutability": "view",
			"type": "function"
		},
		{
			"inputs": [
				{
					"internalType": "address",
					"name": "account",
					"type": "address"
				},
				{
					"internalType": "uint256",
					"name": "id",
					"type": "uint256"
				}
			],
			"name": "balanceOf",
			"outputs": [
				{
					"internalType": "uint256",
					"name": "",
					"type": "uint256"
				}
			],
			"stateMutability": "view",
			"type": "function"
		},
		{
			"inputs": [
				{
					"internalType": "address[]",
					"name": "accounts",
					"type": "address[]"
				},
				{
					"internalType": "uint256[]",
					"name": "ids",
					"type": "uint256[]"
				}
			],
			"name": "balanceOfBatch",
			"outputs": [
				{
					"internalType": "uint256[]",
					"name": "",
					"type": "uint256[]"
				}
			],
			"stateMutability": "view",
			"type": "function"
		},
		{
			"inputs": [
				{
					"internalType": "address",
					"name": "account",
					"type": "address"
				},
				{
					"internalType": "uint256",
					"name": "id",
					"type": "uint256"
				},
				{
					"internalType": "uint256",
					"name": "value",
					"type": "uint256"
				}
			],
			"name": "burn",
			"outputs": [],
			"stateMutability": "nonpayable",
			"type": "function"
		},
		{
			"inputs": [
				{
					"internalType": "address",
					"name": "account",
					"type": "address"
				},
				{
					"internalType": "uint256[]",
					"name": "ids",
					"type": "uint256[]"
				},
				{
					"internalType": "uint256[]",
					"name": "values",
					"type": "uint256[]"
				}
			],
			"name": "burnBatch",
			"outputs": [],
			"stateMutability": "nonpayable",
			"type": "function"
		},
		{
			"inputs": [
				{
					"internalType": "address",
					"name": "account",
					"type": "address"
				},
				{
					"internalType": "address",
					"name": "operator",
					"type": "address"
				}
			],
			"name": "isApprovedForAll",
			"outputs": [
				{
					"internalType": "bool",
					"name": "",
					"type": "bool"
				}
			],
			"stateMutability": "view",
			"type": "function"
		},
		{
			"inputs": [
				{
					"internalType": "address",
					"name": "to_",
					"type": "address"
				},
				{
					"internalType": "uint256",
					"name": "id_",
					"type": "uint256"
				},
				{
					"internalType": "uint256",
					"name": "amount_",
					"type": "uint256"
				},
				{
					"internalType": "bytes",
					"name": "data_",
					"type": "bytes"
				}
			],
			"name": "mint",
			"outputs": [],
			"stateMutability": "nonpayable",
			"type": "function"
		},
		{
			"inputs": [
				{
					"internalType": "address",
					"name": "to_",
					"type": "address"
				},
				{
					"internalType": "uint256[]",
					"name": "ids_",
					"type": "uint256[]"
				},
				{
					"internalType": "uint256[]",
					"name": "amounts_",
					"type": "uint256[]"
				},
				{
					"internalType": "bytes",
					"name": "data_",
					"type": "bytes"
				}
			],
			"name": "mintBatch",
			"outputs": [],
			"stateMutability": "nonpayable",
			"type": "function"
		},
		{
			"inputs": [],
			"name": "minterAddress",
			"outputs": [
				{
					"internalType": "address",
					"name": "",
					"type": "address"
				}
			],
			"stateMutability": "view",
			"type": "function"
		},
		{
			"inputs": [],
			"name": "owner",
			"outputs": [
				{
					"internalType": "address",
					"name": "",
					"type": "address"
				}
			],
			"stateMutability": "view",
			"type": "function"
		},
		{
			"inputs": [],
			"name": "renounceOwnership",
			"outputs": [],
			"stateMutability": "nonpayable",
			"type": "function"
		},
		{
			"inputs": [],
			"name": "royaltyFee",
			"outputs": [
				{
					"internalType": "uint256",
					"name": "",
					"type": "uint256"
				}
			],
			"stateMutability": "view",
			"type": "function"
		},
		{
			"inputs": [
				{
					"internalType": "uint256",
					"name": "tokenId_",
					"type": "uint256"
				},
				{
					"internalType": "uint256",
					"name": "salePrice_",
					"type": "uint256"
				}
			],
			"name": "royaltyInfo",
			"outputs": [
				{
					"internalType": "address",
					"name": "receiver",
					"type": "address"
				},
				{
					"internalType": "uint256",
					"name": "royaltyAmount",
					"type": "uint256"
				}
			],
			"stateMutability": "view",
			"type": "function"
		},
		{
			"inputs": [],
			"name": "royaltyRecipient",
			"outputs": [
				{
					"internalType": "address",
					"name": "",
					"type": "address"
				}
			],
			"stateMutability": "view",
			"type": "function"
		},
		{
			"inputs": [
				{
					"internalType": "address",
					"name": "from",
					"type": "address"
				},
				{
					"internalType": "address",
					"name": "to",
					"type": "address"
				},
				{
					"internalType": "uint256[]",
					"name": "ids",
					"type": "uint256[]"
				},
				{
					"internalType": "uint256[]",
					"name": "amounts",
					"type": "uint256[]"
				},
				{
					"internalType": "bytes",
					"name": "data",
					"type": "bytes"
				}
			],
			"name": "safeBatchTransferFrom",
			"outputs": [],
			"stateMutability": "nonpayable",
			"type": "function"
		},
		{
			"inputs": [
				{
					"internalType": "address",
					"name": "from",
					"type": "address"
				},
				{
					"internalType": "address",
					"name": "to",
					"type": "address"
				},
				{
					"internalType": "uint256",
					"name": "id",
					"type": "uint256"
				},
				{
					"internalType": "uint256",
					"name": "amount",
					"type": "uint256"
				},
				{
					"internalType": "bytes",
					"name": "data",
					"type": "bytes"
				}
			],
			"name": "safeTransferFrom",
			"outputs": [],
			"stateMutability": "nonpayable",
			"type": "function"
		},
		{
			"inputs": [
				{
					"internalType": "address",
					"name": "operator",
					"type": "address"
				},
				{
					"internalType": "bool",
					"name": "approved",
					"type": "bool"
				}
			],
			"name": "setApprovalForAll",
			"outputs": [],
			"stateMutability": "nonpayable",
			"type": "function"
		},
		{
			"inputs": [
				{
					"internalType": "address",
					"name": "minterAddress_",
					"type": "address"
				}
			],
			"name": "setMinterAddress",
			"outputs": [],
			"stateMutability": "nonpayable",
			"type": "function"
		},
		{
			"inputs": [
				{
					"internalType": "uint256",
					"name": "royaltyFee_",
					"type": "uint256"
				}
			],
			"name": "setRoyaltyFee",
			"outputs": [],
			"stateMutability": "nonpayable",
			"type": "function"
		},
		{
			"inputs": [
				{
					"internalType": "address",
					"name": "royaltyRecipient_",
					"type": "address"
				}
			],
			"name": "setRoyaltyRecipient",
			"outputs": [],
			"stateMutability": "nonpayable",
			"type": "function"
		},
		{
			"inputs": [
				{
					"internalType": "address",
					"name": "ticketRenderer_",
					"type": "address"
				}
			],
			"name": "setTicketRenderer",
			"outputs": [],
			"stateMutability": "nonpayable",
			"type": "function"
		},
		{
			"inputs": [
				{
					"internalType": "bytes4",
					"name": "interfaceId_",
					"type": "bytes4"
				}
			],
			"name": "supportsInterface",
			"outputs": [
				{
					"internalType": "bool",
					"name": "",
					"type": "bool"
				}
			],
			"stateMutability": "view",
			"type": "function"
		},
		{
			"inputs": [
				{
					"internalType": "address",
					"name": "newOwner",
					"type": "address"
				}
			],
			"name": "transferOwnership",
			"outputs": [],
			"stateMutability": "nonpayable",
			"type": "function"
		},
		{
			"inputs": [
				{
					"internalType": "uint256",
					"name": "tokenId_",
					"type": "uint256"
				}
			],
			"name": "uri",
			"outputs": [
				{
					"internalType": "string",
					"name": "",
					"type": "string"
				}
			],
			"stateMutability": "view",
			"type": "function"
		}
	],
	"transactionHash": "0x286e914518e6ae6f91648467115d2c6685ee7c6b1eda90f1ba5263159b040594",
	"solcInputHash": "98406d1eb3523ba0fe5a11cbf41b0cb6",
	"numDeployments": 1,
	"args": [],
	"bytecode": "0x608060405234801561001057600080fd5b50612831806100206000396000f3fe608060405234801561001057600080fd5b50600436106101975760003560e01c80634e1273f4116100e3578063a3106b951161008c578063f242432a11610066578063f242432a146103b3578063f2fde38b146103c6578063f5298aca146103d957600080fd5b8063a3106b951461035b578063b8997a971461036e578063e985e9c51461037757600080fd5b8063731133e9116100bd578063731133e9146103245780638da5cb5b14610337578063a22cb4651461034857600080fd5b80634e1273f4146102e95780636b20c45414610309578063715018a61461031c57600080fd5b80632eb2c2d61161014557806341e42f301161011f57806341e42f30146102b057806343b94361146102c35780634c00de82146102d657600080fd5b80632eb2c2d61461027757806334d722c91461028a5780633e4086e51461029d57600080fd5b80631092eef0116101765780631092eef0146102055780631f7fdffa146102305780632a55205a1461024557600080fd5b8062fdd58e1461019c57806301ffc9a7146101c25780630e89341c146101e5575b600080fd5b6101af6101aa366004611dc5565b6103ec565b6040519081526020015b60405180910390f35b6101d56101d0366004611e1d565b610497565b60405190151581526020016101b9565b6101f86101f3366004611e41565b6104f3565b6040516101b99190611eb2565b60fe54610218906001600160a01b031681565b6040516001600160a01b0390911681526020016101b9565b61024361023e36600461203a565b61057e565b005b6102586102533660046120d3565b610590565b604080516001600160a01b0390931683526020830191909152016101b9565b6102436102853660046120f5565b6105c7565b60fc54610218906001600160a01b031681565b6102436102ab366004611e41565b610669565b6102436102be36600461219f565b6106a4565b6102436102d136600461219f565b6106e6565b60fb54610218906001600160a01b031681565b6102fc6102f73660046121ba565b610728565b6040516101b991906122c0565b6102436103173660046122d3565b610866565b610243610904565b610243610332366004612347565b610918565b6097546001600160a01b0316610218565b61024361035636600461239c565b610924565b61024361036936600461219f565b610933565b6101af60fd5481565b6101d56103853660046123d8565b6001600160a01b03918216600090815260666020908152604080832093909416825291909152205460ff1690565b6102436103c136600461240b565b61099d565b6102436103d436600461219f565b610a38565b6102436103e7366004612470565b610ac8565b60006001600160a01b03831661046f5760405162461bcd60e51b815260206004820152602a60248201527f455243313135353a2061646472657373207a65726f206973206e6f742061207660448201527f616c6964206f776e65720000000000000000000000000000000000000000000060648201526084015b60405180910390fd5b5060009081526065602090815260408083206001600160a01b03949094168352929052205490565b60007fffffffff0000000000000000000000000000000000000000000000000000000082167f2a55205a0000000000000000000000000000000000000000000000000000000014806104ed57506104ed82610b61565b92915050565b60fe546040517f210fa96b000000000000000000000000000000000000000000000000000000008152600481018390526060916001600160a01b03169063210fa96b90602401600060405180830381865afa158015610556573d6000803e3d6000fd5b505050506040513d6000823e601f3d908101601f191682016040526104ed91908101906124a3565b61058a84848484610c44565b50505050565b600080600061271060fd54856105a69190612554565b6105b09190612591565b60fb546001600160a01b0316969095509350505050565b6001600160a01b0385163314806105e357506105e38533610385565b6106555760405162461bcd60e51b815260206004820152602e60248201527f455243313135353a2063616c6c6572206973206e6f7420746f6b656e206f776e60448201527f6572206f7220617070726f7665640000000000000000000000000000000000006064820152608401610466565b6106628585858585610e3c565b5050505050565b6106716110dd565b60fd81905560405181907fc36422dcc77a5c93a5c48743078f8130c9fcc2a0ff893904ee62a3565688117c90600090a250565b6106ac6110dd565b60fb80547fffffffffffffffffffffffff0000000000000000000000000000000000000000166001600160a01b0392909216919091179055565b6106ee6110dd565b60fe80547fffffffffffffffffffffffff0000000000000000000000000000000000000000166001600160a01b0392909216919091179055565b606081518351146107a15760405162461bcd60e51b815260206004820152602960248201527f455243313135353a206163636f756e747320616e6420696473206c656e67746860448201527f206d69736d6174636800000000000000000000000000000000000000000000006064820152608401610466565b6000835167ffffffffffffffff8111156107bd576107bd611ec5565b6040519080825280602002602001820160405280156107e6578160200160208202803683370190505b50905060005b845181101561085e5761083185828151811061080a5761080a6125cc565b6020026020010151858381518110610824576108246125cc565b60200260200101516103ec565b828281518110610843576108436125cc565b6020908102919091010152610857816125fb565b90506107ec565b509392505050565b6001600160a01b03831633148061088257506108828333610385565b6108f45760405162461bcd60e51b815260206004820152602e60248201527f455243313135353a2063616c6c6572206973206e6f7420746f6b656e206f776e60448201527f6572206f7220617070726f7665640000000000000000000000000000000000006064820152608401610466565b6108ff838383611137565b505050565b61090c6110dd565b61091660006113c5565b565b61058a8484848461142f565b61092f338383611561565b5050565b61093b6110dd565b60fc80547fffffffffffffffffffffffff0000000000000000000000000000000000000000166001600160a01b0383169081179091556040517f09e32743122b4d02dc06c38a35ee1587a02854644d47574bb35a6ef75a22fa9890600090a250565b6001600160a01b0385163314806109b957506109b98533610385565b610a2b5760405162461bcd60e51b815260206004820152602e60248201527f455243313135353a2063616c6c6572206973206e6f7420746f6b656e206f776e60448201527f6572206f7220617070726f7665640000000000000000000000000000000000006064820152608401610466565b6106628585858585611673565b610a406110dd565b6001600160a01b038116610abc5760405162461bcd60e51b815260206004820152602660248201527f4f776e61626c653a206e6577206f776e657220697320746865207a65726f206160448201527f64647265737300000000000000000000000000000000000000000000000000006064820152608401610466565b610ac5816113c5565b50565b6001600160a01b038316331480610ae45750610ae48333610385565b610b565760405162461bcd60e51b815260206004820152602e60248201527f455243313135353a2063616c6c6572206973206e6f7420746f6b656e206f776e60448201527f6572206f7220617070726f7665640000000000000000000000000000000000006064820152608401610466565b6108ff83838361184d565b60007fffffffff0000000000000000000000000000000000000000000000000000000082167fd9b67a26000000000000000000000000000000000000000000000000000000001480610bf457507fffffffff0000000000000000000000000000000000000000000000000000000082167f0e89341c00000000000000000000000000000000000000000000000000000000145b806104ed57507f01ffc9a7000000000000000000000000000000000000000000000000000000007fffffffff000000000000000000000000000000000000000000000000000000008316146104ed565b6001600160a01b038416610cc05760405162461bcd60e51b815260206004820152602160248201527f455243313135353a206d696e7420746f20746865207a65726f2061646472657360448201527f73000000000000000000000000000000000000000000000000000000000000006064820152608401610466565b8151835114610d375760405162461bcd60e51b815260206004820152602860248201527f455243313135353a2069647320616e6420616d6f756e7473206c656e6774682060448201527f6d69736d617463680000000000000000000000000000000000000000000000006064820152608401610466565b3360005b8451811015610dd457838181518110610d5657610d566125cc565b602002602001015160656000878481518110610d7457610d746125cc565b602002602001015181526020019081526020016000206000886001600160a01b03166001600160a01b031681526020019081526020016000206000828254610dbc9190612633565b90915550819050610dcc816125fb565b915050610d3b565b50846001600160a01b031660006001600160a01b0316826001600160a01b03167f4a39dc06d4c0dbc64b70af90fd698a233a518aa5d07e595d983b8c0526c8f7fb8787604051610e2592919061264b565b60405180910390a4610662816000878787876119ff565b8151835114610eb35760405162461bcd60e51b815260206004820152602860248201527f455243313135353a2069647320616e6420616d6f756e7473206c656e6774682060448201527f6d69736d617463680000000000000000000000000000000000000000000000006064820152608401610466565b6001600160a01b038416610f2f5760405162461bcd60e51b815260206004820152602560248201527f455243313135353a207472616e7366657220746f20746865207a65726f20616460448201527f64726573730000000000000000000000000000000000000000000000000000006064820152608401610466565b3360005b845181101561106f576000858281518110610f5057610f506125cc565b602002602001015190506000858381518110610f6e57610f6e6125cc565b60209081029190910181015160008481526065835260408082206001600160a01b038e1683529093529190912054909150818110156110155760405162461bcd60e51b815260206004820152602a60248201527f455243313135353a20696e73756666696369656e742062616c616e636520666f60448201527f72207472616e73666572000000000000000000000000000000000000000000006064820152608401610466565b60008381526065602090815260408083206001600160a01b038e8116855292528083208585039055908b16825281208054849290611054908490612633565b9250508190555050505080611068906125fb565b9050610f33565b50846001600160a01b0316866001600160a01b0316826001600160a01b03167f4a39dc06d4c0dbc64b70af90fd698a233a518aa5d07e595d983b8c0526c8f7fb87876040516110bf92919061264b565b60405180910390a46110d58187878787876119ff565b505050505050565b6097546001600160a01b031633146109165760405162461bcd60e51b815260206004820181905260248201527f4f776e61626c653a2063616c6c6572206973206e6f7420746865206f776e65726044820152606401610466565b6001600160a01b0383166111b35760405162461bcd60e51b815260206004820152602360248201527f455243313135353a206275726e2066726f6d20746865207a65726f206164647260448201527f65737300000000000000000000000000000000000000000000000000000000006064820152608401610466565b805182511461122a5760405162461bcd60e51b815260206004820152602860248201527f455243313135353a2069647320616e6420616d6f756e7473206c656e6774682060448201527f6d69736d617463680000000000000000000000000000000000000000000000006064820152608401610466565b604080516020810190915260009081905233905b835181101561135857600084828151811061125b5761125b6125cc565b602002602001015190506000848381518110611279576112796125cc565b60209081029190910181015160008481526065835260408082206001600160a01b038c16835290935291909120549091508181101561131f5760405162461bcd60e51b8152602060048201526024808201527f455243313135353a206275726e20616d6f756e7420657863656564732062616c60448201527f616e6365000000000000000000000000000000000000000000000000000000006064820152608401610466565b60009283526065602090815260408085206001600160a01b038b1686529091529092209103905580611350816125fb565b91505061123e565b5060006001600160a01b0316846001600160a01b0316826001600160a01b03167f4a39dc06d4c0dbc64b70af90fd698a233a518aa5d07e595d983b8c0526c8f7fb86866040516113a992919061264b565b60405180910390a460408051602081019091526000905261058a565b609780546001600160a01b038381167fffffffffffffffffffffffff0000000000000000000000000000000000000000831681179093556040519116919082907f8be0079c531659141344cd1fd0a4f28419497f9722a3daafe3b4186f6b6457e090600090a35050565b6001600160a01b0384166114ab5760405162461bcd60e51b815260206004820152602160248201527f455243313135353a206d696e7420746f20746865207a65726f2061646472657360448201527f73000000000000000000000000000000000000000000000000000000000000006064820152608401610466565b3360006114b785611c03565b905060006114c485611c03565b905060008681526065602090815260408083206001600160a01b038b168452909152812080548792906114f8908490612633565b909155505060408051878152602081018790526001600160a01b03808a1692600092918716917fc3d58168c5ae7397731d063d5bbf3d657854427343f4c083240f7aacaa2d0f62910160405180910390a461155883600089898989611c4e565b50505050505050565b816001600160a01b0316836001600160a01b0316036115e85760405162461bcd60e51b815260206004820152602960248201527f455243313135353a2073657474696e6720617070726f76616c2073746174757360448201527f20666f722073656c6600000000000000000000000000000000000000000000006064820152608401610466565b6001600160a01b0383811660008181526066602090815260408083209487168084529482529182902080547fffffffffffffffffffffffffffffffffffffffffffffffffffffffffffffff001686151590811790915591519182527f17307eab39ab6107e8899845ad3d59bd9653f200f220920489ca2b5937696c31910160405180910390a3505050565b6001600160a01b0384166116ef5760405162461bcd60e51b815260206004820152602560248201527f455243313135353a207472616e7366657220746f20746865207a65726f20616460448201527f64726573730000000000000000000000000000000000000000000000000000006064820152608401610466565b3360006116fb85611c03565b9050600061170885611c03565b905060008681526065602090815260408083206001600160a01b038c168452909152902054858110156117a35760405162461bcd60e51b815260206004820152602a60248201527f455243313135353a20696e73756666696369656e742062616c616e636520666f60448201527f72207472616e73666572000000000000000000000000000000000000000000006064820152608401610466565b60008781526065602090815260408083206001600160a01b038d8116855292528083208985039055908a168252812080548892906117e2908490612633565b909155505060408051888152602081018890526001600160a01b03808b16928c821692918816917fc3d58168c5ae7397731d063d5bbf3d657854427343f4c083240f7aacaa2d0f62910160405180910390a4611842848a8a8a8a8a611c4e565b505050505050505050565b6001600160a01b0383166118c95760405162461bcd60e51b815260206004820152602360248201527f455243313135353a206275726e2066726f6d20746865207a65726f206164647260448201527f65737300000000000000000000000000000000000000000000000000000000006064820152608401610466565b3360006118d584611c03565b905060006118e284611c03565b6040805160208082018352600091829052888252606581528282206001600160a01b038b16835290522054909150848110156119855760405162461bcd60e51b8152602060048201526024808201527f455243313135353a206275726e20616d6f756e7420657863656564732062616c60448201527f616e6365000000000000000000000000000000000000000000000000000000006064820152608401610466565b60008681526065602090815260408083206001600160a01b038b81168086529184528285208a8703905582518b81529384018a90529092908816917fc3d58168c5ae7397731d063d5bbf3d657854427343f4c083240f7aacaa2d0f62910160405180910390a4604080516020810190915260009052611558565b6001600160a01b0384163b156110d5576040517fbc197c810000000000000000000000000000000000000000000000000000000081526001600160a01b0385169063bc197c8190611a5c9089908990889088908890600401612679565b6020604051808303816000875af1925050508015611a97575060408051601f3d908101601f19168201909252611a94918101906126d7565b60015b611b4c57611aa36126f4565b806308c379a003611adc5750611ab7612710565b80611ac25750611ade565b8060405162461bcd60e51b81526004016104669190611eb2565b505b60405162461bcd60e51b815260206004820152603460248201527f455243313135353a207472616e7366657220746f206e6f6e2d4552433131353560448201527f526563656976657220696d706c656d656e7465720000000000000000000000006064820152608401610466565b7fffffffff0000000000000000000000000000000000000000000000000000000081167fbc197c8100000000000000000000000000000000000000000000000000000000146115585760405162461bcd60e51b815260206004820152602860248201527f455243313135353a204552433131353552656365697665722072656a6563746560448201527f6420746f6b656e730000000000000000000000000000000000000000000000006064820152608401610466565b60408051600180825281830190925260609160009190602080830190803683370190505090508281600081518110611c3d57611c3d6125cc565b602090810291909101015292915050565b6001600160a01b0384163b156110d5576040517ff23a6e610000000000000000000000000000000000000000000000000000000081526001600160a01b0385169063f23a6e6190611cab90899089908890889088906004016127b8565b6020604051808303816000875af1925050508015611ce6575060408051601f3d908101601f19168201909252611ce3918101906126d7565b60015b611cf257611aa36126f4565b7fffffffff0000000000000000000000000000000000000000000000000000000081167ff23a6e6100000000000000000000000000000000000000000000000000000000146115585760405162461bcd60e51b815260206004820152602860248201527f455243313135353a204552433131353552656365697665722072656a6563746560448201527f6420746f6b656e730000000000000000000000000000000000000000000000006064820152608401610466565b80356001600160a01b0381168114611dc057600080fd5b919050565b60008060408385031215611dd857600080fd5b611de183611da9565b946020939093013593505050565b7fffffffff0000000000000000000000000000000000000000000000000000000081168114610ac557600080fd5b600060208284031215611e2f57600080fd5b8135611e3a81611def565b9392505050565b600060208284031215611e5357600080fd5b5035919050565b60005b83811015611e75578181015183820152602001611e5d565b8381111561058a5750506000910152565b60008151808452611e9e816020860160208601611e5a565b601f01601f19169290920160200192915050565b602081526000611e3a6020830184611e86565b7f4e487b7100000000000000000000000000000000000000000000000000000000600052604160045260246000fd5b601f19601f830116810181811067ffffffffffffffff82111715611f1a57611f1a611ec5565b6040525050565b600067ffffffffffffffff821115611f3b57611f3b611ec5565b5060051b60200190565b600082601f830112611f5657600080fd5b81356020611f6382611f21565b604051611f708282611ef4565b83815260059390931b8501820192828101915086841115611f9057600080fd5b8286015b84811015611fab5780358352918301918301611f94565b509695505050505050565b600067ffffffffffffffff821115611fd057611fd0611ec5565b50601f01601f191660200190565b600082601f830112611fef57600080fd5b8135611ffa81611fb6565b6040516120078282611ef4565b82815285602084870101111561201c57600080fd5b82602086016020830137600092810160200192909252509392505050565b6000806000806080858703121561205057600080fd5b61205985611da9565b9350602085013567ffffffffffffffff8082111561207657600080fd5b61208288838901611f45565b9450604087013591508082111561209857600080fd5b6120a488838901611f45565b935060608701359150808211156120ba57600080fd5b506120c787828801611fde565b91505092959194509250565b600080604083850312156120e657600080fd5b50508035926020909101359150565b600080600080600060a0868803121561210d57600080fd5b61211686611da9565b945061212460208701611da9565b9350604086013567ffffffffffffffff8082111561214157600080fd5b61214d89838a01611f45565b9450606088013591508082111561216357600080fd5b61216f89838a01611f45565b9350608088013591508082111561218557600080fd5b5061219288828901611fde565b9150509295509295909350565b6000602082840312156121b157600080fd5b611e3a82611da9565b600080604083850312156121cd57600080fd5b823567ffffffffffffffff808211156121e557600080fd5b818501915085601f8301126121f957600080fd5b8135602061220682611f21565b6040516122138282611ef4565b83815260059390931b850182019282810191508984111561223357600080fd5b948201945b838610156122585761224986611da9565b82529482019490820190612238565b9650508601359250508082111561226e57600080fd5b5061227b85828601611f45565b9150509250929050565b600081518084526020808501945080840160005b838110156122b557815187529582019590820190600101612299565b509495945050505050565b602081526000611e3a6020830184612285565b6000806000606084860312156122e857600080fd5b6122f184611da9565b9250602084013567ffffffffffffffff8082111561230e57600080fd5b61231a87838801611f45565b9350604086013591508082111561233057600080fd5b5061233d86828701611f45565b9150509250925092565b6000806000806080858703121561235d57600080fd5b61236685611da9565b93506020850135925060408501359150606085013567ffffffffffffffff81111561239057600080fd5b6120c787828801611fde565b600080604083850312156123af57600080fd5b6123b883611da9565b9150602083013580151581146123cd57600080fd5b809150509250929050565b600080604083850312156123eb57600080fd5b6123f483611da9565b915061240260208401611da9565b90509250929050565b600080600080600060a0868803121561242357600080fd5b61242c86611da9565b945061243a60208701611da9565b93506040860135925060608601359150608086013567ffffffffffffffff81111561246457600080fd5b61219288828901611fde565b60008060006060848603121561248557600080fd5b61248e84611da9565b95602085013595506040909401359392505050565b6000602082840312156124b557600080fd5b815167ffffffffffffffff8111156124cc57600080fd5b8201601f810184136124dd57600080fd5b80516124e881611fb6565b6040516124f58282611ef4565b82815286602084860101111561250a57600080fd5b61251b836020830160208701611e5a565b9695505050505050565b7f4e487b7100000000000000000000000000000000000000000000000000000000600052601160045260246000fd5b6000817fffffffffffffffffffffffffffffffffffffffffffffffffffffffffffffffff048311821515161561258c5761258c612525565b500290565b6000826125c7577f4e487b7100000000000000000000000000000000000000000000000000000000600052601260045260246000fd5b500490565b7f4e487b7100000000000000000000000000000000000000000000000000000000600052603260045260246000fd5b60007fffffffffffffffffffffffffffffffffffffffffffffffffffffffffffffffff820361262c5761262c612525565b5060010190565b6000821982111561264657612646612525565b500190565b60408152600061265e6040830185612285565b82810360208401526126708185612285565b95945050505050565b60006001600160a01b03808816835280871660208401525060a060408301526126a560a0830186612285565b82810360608401526126b78186612285565b905082810360808401526126cb8185611e86565b98975050505050505050565b6000602082840312156126e957600080fd5b8151611e3a81611def565b600060033d111561270d5760046000803e5060005160e01c5b90565b600060443d101561271e5790565b6040517ffffffffffffffffffffffffffffffffffffffffffffffffffffffffffffffffc803d016004833e81513d67ffffffffffffffff816024840111818411171561276c57505050505090565b82850191508151818111156127845750505050505090565b843d870101602082850101111561279e5750505050505090565b6127ad60208286010187611ef4565b509095945050505050565b60006001600160a01b03808816835280871660208401525084604083015283606083015260a060808301526127f060a0830184611e86565b97965050505050505056fea2646970667358221220b17690e38e2c1e490c021e7bcfdd864c5061146e30ae23d888c1ebc19059288064736f6c634300080f0033",
	"deployedBytecode": "0x60806040526004361061004e5760003560e01c80633659cfe6146100655780634f1ef286146100855780635c60da1b146100ae5780638f283970146100db578063f851a440146100fb5761005d565b3661005d5761005b610110565b005b61005b610110565b34801561007157600080fd5b5061005b61008036600461051d565b6101c8565b610098610093366004610538565b61020e565b6040516100a591906105bb565b60405180910390f35b3480156100ba57600080fd5b506100c361033e565b6040516001600160a01b0390911681526020016100a5565b3480156100e757600080fd5b5061005b6100f636600461051d565b6103a9565b34801561010757600080fd5b506100c36103e4565b600061013a7f360894a13ba1a3210667c828492db98dca3e2076cc3735a920a3ca505d382bbc5490565b90506001600160a01b0381166101a55760405162461bcd60e51b815260206004820152602560248201527f50726f78793a20696d706c656d656e746174696f6e206e6f7420696e697469616044820152641b1a5e995960da1b60648201526084015b60405180910390fd5b3660008037600080366000845af43d6000803e806101c2573d6000fd5b503d6000f35b600080516020610621833981519152546001600160a01b0316336001600160a01b031614806101f5575033155b156102065761020381610432565b50565b610203610110565b60606102266000805160206106218339815191525490565b6001600160a01b0316336001600160a01b03161480610243575033155b1561032f5761025184610432565b600080856001600160a01b0316858560405161026e929190610610565b600060405180830381855af49150503d80600081146102a9576040519150601f19603f3d011682016040523d82523d6000602084013e6102ae565b606091505b5091509150816103265760405162461bcd60e51b815260206004820152603960248201527f50726f78793a2064656c656761746563616c6c20746f206e657720696d706c6560448201527f6d656e746174696f6e20636f6e7472616374206661696c656400000000000000606482015260840161019c565b91506103379050565b610337610110565b9392505050565b60006103566000805160206106218339815191525490565b6001600160a01b0316336001600160a01b03161480610373575033155b1561039e57507f360894a13ba1a3210667c828492db98dca3e2076cc3735a920a3ca505d382bbc5490565b6103a6610110565b90565b600080516020610621833981519152546001600160a01b0316336001600160a01b031614806103d6575033155b15610206576102038161048d565b60006103fc6000805160206106218339815191525490565b6001600160a01b0316336001600160a01b03161480610419575033155b1561039e57506000805160206106218339815191525490565b7f360894a13ba1a3210667c828492db98dca3e2076cc3735a920a3ca505d382bbc8190556040516001600160a01b038216907fbc7cd75a20ee27fd9adebab32041f755214dbc6bffa90cc0225b39da2e5c2d3b90600090a250565b60006104a56000805160206106218339815191525490565b600080516020610621833981519152839055604080516001600160a01b038084168252851660208201529192507f7e644d79422f17c01e4894b5f4f588d331ebfa28653d42ae832dc59e38c9798f910160405180910390a15050565b80356001600160a01b038116811461051857600080fd5b919050565b60006020828403121561052f57600080fd5b61033782610501565b60008060006040848603121561054d57600080fd5b61055684610501565b9250602084013567ffffffffffffffff8082111561057357600080fd5b818601915086601f83011261058757600080fd5b81358181111561059657600080fd5b8760208285010111156105a857600080fd5b6020830194508093505050509250925092565b600060208083528351808285015260005b818110156105e8578581018301518582016040015282016105cc565b818111156105fa576000604083870101525b50601f01601f1916929092016040019392505050565b818382376000910190815291905056feb53127684a568b3173ae13b9f8a6016e243e63b6e8ee1178d6a717850b5d6103a26469706673582212202bd1f0b5e6fde550b88238730ef8a1aca50c563a9964646d6babc0ad93dbcf3b64736f6c634300080f0033",
	"devdoc": {
		"kind": "dev",
		"methods": {
			"balanceOf(address,uint256)": {
				"details": "See {IERC1155-balanceOf}. Requirements: - `account` cannot be the zero address."
			},
			"balanceOfBatch(address[],uint256[])": {
				"details": "See {IERC1155-balanceOfBatch}. Requirements: - `accounts` and `ids` must have the same length."
			},
			"isApprovedForAll(address,address)": {
				"details": "See {IERC1155-isApprovedForAll}."
			},
			"mint(address,uint256,uint256,bytes)": {
				"details": "mint a single ticket, only callable by the allowed minter",
				"params": {
					"amount_": "the amount of the ticket to mint",
					"data_": "the data to pass to the mint function",
					"id_": "the id of the ticket to mint",
					"to_": "the address to mint the ticket to"
				}
			},
			"mintBatch(address,uint256[],uint256[],bytes)": {
				"details": "mint a batch of tickets, only callable by the allowed minter",
				"params": {
					"amounts_": "the amounts of the tickets to mint",
					"data_": "the data to pass to the mint function",
					"ids_": "the ids of the tickets to mint",
					"to_": "the address to mint the tickets to"
				}
			},
			"owner()": {
				"details": "Returns the address of the current owner."
			},
			"renounceOwnership()": {
				"details": "Leaves the contract without owner. It will not be possible to call `onlyOwner` functions anymore. Can only be called by the current owner. NOTE: Renouncing ownership will leave the contract without an owner, thereby removing any functionality that is only available to the owner."
			},
			"royaltyInfo(uint256,uint256)": {
				"details": "See {IERC165-royaltyInfo}",
				"params": {
					"salePrice_": "the sale price",
					"tokenId_": "the token id"
				}
			},
			"safeBatchTransferFrom(address,address,uint256[],uint256[],bytes)": {
				"details": "See {IERC1155-safeBatchTransferFrom}."
			},
			"safeTransferFrom(address,address,uint256,uint256,bytes)": {
				"details": "See {IERC1155-safeTransferFrom}."
			},
			"setApprovalForAll(address,bool)": {
				"details": "See {IERC1155-setApprovalForAll}."
			},
			"setMinterAddress(address)": {
				"details": "set the minter address",
				"params": {
					"minterAddress_": "the address of the minter"
				}
			},
			"setRoyaltyFee(uint256)": {
				"details": "set the royalty fee",
				"params": {
					"royaltyFee_": "the royalty fee"
				}
			},
			"setRoyaltyRecipient(address)": {
				"details": "set the royalty recipient",
				"params": {
					"royaltyRecipient_": "the address of the royalty recipient"
				}
			},
			"setTicketRenderer(address)": {
				"details": "set the ticket renderer contract",
				"params": {
					"ticketRenderer_": "the address of the ticket renderer contract"
				}
			},
			"supportsInterface(bytes4)": {
				"details": "returns true if the supplied interface id is supported",
				"params": {
					"interfaceId_": "the interface id"
				}
			},
			"transferOwnership(address)": {
				"details": "Transfers ownership of the contract to a new account (`newOwner`). Can only be called by the current owner."
			},
			"uri(uint256)": {
				"details": "return the uri, this delegates to the ticket renderer contract"
			}
		},
		"version": 1
	},
	"userdoc": {
		"kind": "user",
		"methods": {},
		"version": 1
	},
	"storageLayout": {
		"storage": [
			{
				"astId": 566,
				"contract": "contracts/RabbitHoleTickets.sol:RabbitHoleTickets",
				"label": "_initialized",
				"offset": 0,
				"slot": "0",
				"type": "t_uint8"
			},
			{
				"astId": 569,
				"contract": "contracts/RabbitHoleTickets.sol:RabbitHoleTickets",
				"label": "_initializing",
				"offset": 1,
				"slot": "0",
				"type": "t_bool"
			},
			{
				"astId": 4246,
				"contract": "contracts/RabbitHoleTickets.sol:RabbitHoleTickets",
				"label": "__gap",
				"offset": 0,
				"slot": "1",
				"type": "t_array(t_uint256)50_storage"
			},
			{
				"astId": 4900,
				"contract": "contracts/RabbitHoleTickets.sol:RabbitHoleTickets",
				"label": "__gap",
				"offset": 0,
				"slot": "51",
				"type": "t_array(t_uint256)50_storage"
			},
			{
				"astId": 757,
				"contract": "contracts/RabbitHoleTickets.sol:RabbitHoleTickets",
				"label": "_balances",
				"offset": 0,
				"slot": "101",
				"type": "t_mapping(t_uint256,t_mapping(t_address,t_uint256))"
			},
			{
				"astId": 763,
				"contract": "contracts/RabbitHoleTickets.sol:RabbitHoleTickets",
				"label": "_operatorApprovals",
				"offset": 0,
				"slot": "102",
				"type": "t_mapping(t_address,t_mapping(t_address,t_bool))"
			},
			{
				"astId": 765,
				"contract": "contracts/RabbitHoleTickets.sol:RabbitHoleTickets",
				"label": "_uri",
				"offset": 0,
				"slot": "103",
				"type": "t_string_storage"
			},
			{
				"astId": 1972,
				"contract": "contracts/RabbitHoleTickets.sol:RabbitHoleTickets",
				"label": "__gap",
				"offset": 0,
				"slot": "104",
				"type": "t_array(t_uint256)47_storage"
			},
			{
				"astId": 419,
				"contract": "contracts/RabbitHoleTickets.sol:RabbitHoleTickets",
				"label": "_owner",
				"offset": 0,
				"slot": "151",
				"type": "t_address"
			},
			{
				"astId": 539,
				"contract": "contracts/RabbitHoleTickets.sol:RabbitHoleTickets",
				"label": "__gap",
				"offset": 0,
				"slot": "152",
				"type": "t_array(t_uint256)49_storage"
			},
			{
				"astId": 2224,
				"contract": "contracts/RabbitHoleTickets.sol:RabbitHoleTickets",
				"label": "__gap",
				"offset": 0,
				"slot": "201",
				"type": "t_array(t_uint256)50_storage"
			},
			{
				"astId": 12076,
				"contract": "contracts/RabbitHoleTickets.sol:RabbitHoleTickets",
				"label": "royaltyRecipient",
				"offset": 0,
				"slot": "251",
				"type": "t_address"
			},
			{
				"astId": 12078,
				"contract": "contracts/RabbitHoleTickets.sol:RabbitHoleTickets",
				"label": "minterAddress",
				"offset": 0,
				"slot": "252",
				"type": "t_address"
			},
			{
				"astId": 12080,
				"contract": "contracts/RabbitHoleTickets.sol:RabbitHoleTickets",
				"label": "royaltyFee",
				"offset": 0,
				"slot": "253",
				"type": "t_uint256"
			},
			{
				"astId": 12083,
				"contract": "contracts/RabbitHoleTickets.sol:RabbitHoleTickets",
				"label": "TicketRendererContract",
				"offset": 0,
				"slot": "254",
				"type": "t_contract(TicketRenderer)13028"
			}
		],
		"types": {
			"t_address": {
				"encoding": "inplace",
				"label": "address",
				"numberOfBytes": "20"
			},
			"t_array(t_uint256)47_storage": {
				"base": "t_uint256",
				"encoding": "inplace",
				"label": "uint256[47]",
				"numberOfBytes": "1504"
			},
			"t_array(t_uint256)49_storage": {
				"base": "t_uint256",
				"encoding": "inplace",
				"label": "uint256[49]",
				"numberOfBytes": "1568"
			},
			"t_array(t_uint256)50_storage": {
				"base": "t_uint256",
				"encoding": "inplace",
				"label": "uint256[50]",
				"numberOfBytes": "1600"
			},
			"t_bool": {
				"encoding": "inplace",
				"label": "bool",
				"numberOfBytes": "1"
			},
			"t_contract(TicketRenderer)13028": {
				"encoding": "inplace",
				"label": "contract TicketRenderer",
				"numberOfBytes": "20"
			},
			"t_mapping(t_address,t_bool)": {
				"encoding": "mapping",
				"key": "t_address",
				"label": "mapping(address => bool)",
				"numberOfBytes": "32",
				"value": "t_bool"
			},
			"t_mapping(t_address,t_mapping(t_address,t_bool))": {
				"encoding": "mapping",
				"key": "t_address",
				"label": "mapping(address => mapping(address => bool))",
				"numberOfBytes": "32",
				"value": "t_mapping(t_address,t_bool)"
			},
			"t_mapping(t_address,t_uint256)": {
				"encoding": "mapping",
				"key": "t_address",
				"label": "mapping(address => uint256)",
				"numberOfBytes": "32",
				"value": "t_uint256"
			},
			"t_mapping(t_uint256,t_mapping(t_address,t_uint256))": {
				"encoding": "mapping",
				"key": "t_uint256",
				"label": "mapping(uint256 => mapping(address => uint256))",
				"numberOfBytes": "32",
				"value": "t_mapping(t_address,t_uint256)"
			},
			"t_string_storage": {
				"encoding": "bytes",
				"label": "string",
				"numberOfBytes": "32"
			},
			"t_uint256": {
				"encoding": "inplace",
				"label": "uint256",
				"numberOfBytes": "32"
			},
			"t_uint8": {
				"encoding": "inplace",
				"label": "uint8",
				"numberOfBytes": "1"
			}
		}
	}
}