{
	"contractName": "RabbitHoleReceipt",
	"address": "0x5fa55346fc7979FC521115C4Cf37AECc35B36Ec6",
	"abi": [
		{
			"anonymous": false,
			"inputs": [
				{
					"indexed": true,
					"internalType": "address",
					"name": "owner",
					"type": "address"
				},
				{
					"indexed": true,
					"internalType": "address",
					"name": "approved",
					"type": "address"
				},
				{
					"indexed": true,
					"internalType": "uint256",
					"name": "tokenId",
					"type": "uint256"
				}
			],
			"name": "Approval",
			"type": "event"
		},
		{
			"anonymous": false,
			"inputs": [
				{
					"indexed": true,
					"internalType": "address",
					"name": "owner",
					"type": "address"
				},
				{
					"indexed": true,
					"internalType": "address",
					"name": "operator",
					"type": "address"
				},
				{
					"indexed": false,
					"internalType": "bool",
					"name": "approved",
					"type": "bool"
				}
			],
			"name": "ApprovalForAll",
			"type": "event"
		},
		{
			"anonymous": false,
			"inputs": [
				{
					"indexed": false,
					"internalType": "uint8",
					"name": "version",
					"type": "uint8"
				}
			],
			"name": "Initialized",
			"type": "event"
		},
		{
			"anonymous": false,
			"inputs": [
				{
					"indexed": true,
					"internalType": "address",
					"name": "minterAddress",
					"type": "address"
				}
			],
			"name": "MinterAddressSet",
			"type": "event"
		},
		{
			"anonymous": false,
			"inputs": [
				{
					"indexed": true,
					"internalType": "address",
					"name": "previousOwner",
					"type": "address"
				},
				{
					"indexed": true,
					"internalType": "address",
					"name": "newOwner",
					"type": "address"
				}
			],
			"name": "OwnershipTransferred",
			"type": "event"
		},
		{
			"anonymous": false,
			"inputs": [
				{
					"indexed": true,
					"internalType": "uint256",
					"name": "royaltyFee",
					"type": "uint256"
				}
			],
			"name": "RoyaltyFeeSet",
			"type": "event"
		},
		{
			"anonymous": false,
			"inputs": [
				{
					"indexed": true,
					"internalType": "address",
					"name": "from",
					"type": "address"
				},
				{
					"indexed": true,
					"internalType": "address",
					"name": "to",
					"type": "address"
				},
				{
					"indexed": true,
					"internalType": "uint256",
					"name": "tokenId",
					"type": "uint256"
				}
			],
			"name": "Transfer",
			"type": "event"
		},
		{
			"inputs": [],
			"name": "QuestFactoryContract",
			"outputs": [
				{
					"internalType": "contract IQuestFactory",
					"name": "",
					"type": "address"
				}
			],
			"stateMutability": "view",
			"type": "function"
		},
		{
			"inputs": [],
			"name": "ReceiptRendererContract",
			"outputs": [
				{
					"internalType": "contract ReceiptRenderer",
					"name": "",
					"type": "address"
				}
			],
			"stateMutability": "view",
			"type": "function"
		},
		{
			"inputs": [
				{
					"internalType": "address",
					"name": "to",
					"type": "address"
				},
				{
					"internalType": "uint256",
					"name": "tokenId",
					"type": "uint256"
				}
			],
			"name": "approve",
			"outputs": [],
			"stateMutability": "nonpayable",
			"type": "function"
		},
		{
			"inputs": [
				{
					"internalType": "address",
					"name": "owner",
					"type": "address"
				}
			],
			"name": "balanceOf",
			"outputs": [
				{
					"internalType": "uint256",
					"name": "",
					"type": "uint256"
				}
			],
			"stateMutability": "view",
			"type": "function"
		},
		{
			"inputs": [
				{
					"internalType": "uint256",
					"name": "tokenId",
					"type": "uint256"
				}
			],
			"name": "getApproved",
			"outputs": [
				{
					"internalType": "address",
					"name": "",
					"type": "address"
				}
			],
			"stateMutability": "view",
			"type": "function"
		},
		{
			"inputs": [
				{
					"internalType": "string",
					"name": "questId_",
					"type": "string"
				},
				{
					"internalType": "address",
					"name": "claimingAddress_",
					"type": "address"
				}
			],
			"name": "getOwnedTokenIdsOfQuest",
			"outputs": [
				{
					"internalType": "uint256[]",
					"name": "",
					"type": "uint256[]"
				}
			],
			"stateMutability": "view",
			"type": "function"
		},
		{
			"inputs": [
				{
					"internalType": "address",
					"name": "owner",
					"type": "address"
				},
				{
					"internalType": "address",
					"name": "operator",
					"type": "address"
				}
			],
			"name": "isApprovedForAll",
			"outputs": [
				{
					"internalType": "bool",
					"name": "",
					"type": "bool"
				}
			],
			"stateMutability": "view",
			"type": "function"
		},
		{
			"inputs": [
				{
					"internalType": "address",
					"name": "to_",
					"type": "address"
				},
				{
					"internalType": "string",
					"name": "questId_",
					"type": "string"
				}
			],
			"name": "mint",
			"outputs": [],
			"stateMutability": "nonpayable",
			"type": "function"
		},
		{
			"inputs": [],
			"name": "minterAddress",
			"outputs": [
				{
					"internalType": "address",
					"name": "",
					"type": "address"
				}
			],
			"stateMutability": "view",
			"type": "function"
		},
		{
			"inputs": [],
			"name": "name",
			"outputs": [
				{
					"internalType": "string",
					"name": "",
					"type": "string"
				}
			],
			"stateMutability": "view",
			"type": "function"
		},
		{
			"inputs": [],
			"name": "owner",
			"outputs": [
				{
					"internalType": "address",
					"name": "",
					"type": "address"
				}
			],
			"stateMutability": "view",
			"type": "function"
		},
		{
			"inputs": [
				{
					"internalType": "uint256",
					"name": "tokenId",
					"type": "uint256"
				}
			],
			"name": "ownerOf",
			"outputs": [
				{
					"internalType": "address",
					"name": "",
					"type": "address"
				}
			],
			"stateMutability": "view",
			"type": "function"
		},
		{
			"inputs": [
				{
					"internalType": "uint256",
					"name": "",
					"type": "uint256"
				}
			],
			"name": "questIdForTokenId",
			"outputs": [
				{
					"internalType": "string",
					"name": "",
					"type": "string"
				}
			],
			"stateMutability": "view",
			"type": "function"
		},
		{
			"inputs": [],
			"name": "renounceOwnership",
			"outputs": [],
			"stateMutability": "nonpayable",
			"type": "function"
		},
		{
			"inputs": [],
			"name": "royaltyFee",
			"outputs": [
				{
					"internalType": "uint256",
					"name": "",
					"type": "uint256"
				}
			],
			"stateMutability": "view",
			"type": "function"
		},
		{
			"inputs": [
				{
					"internalType": "uint256",
					"name": "tokenId_",
					"type": "uint256"
				},
				{
					"internalType": "uint256",
					"name": "salePrice_",
					"type": "uint256"
				}
			],
			"name": "royaltyInfo",
			"outputs": [
				{
					"internalType": "address",
					"name": "receiver",
					"type": "address"
				},
				{
					"internalType": "uint256",
					"name": "royaltyAmount",
					"type": "uint256"
				}
			],
			"stateMutability": "view",
			"type": "function"
		},
		{
			"inputs": [],
			"name": "royaltyRecipient",
			"outputs": [
				{
					"internalType": "address",
					"name": "",
					"type": "address"
				}
			],
			"stateMutability": "view",
			"type": "function"
		},
		{
			"inputs": [
				{
					"internalType": "address",
					"name": "from",
					"type": "address"
				},
				{
					"internalType": "address",
					"name": "to",
					"type": "address"
				},
				{
					"internalType": "uint256",
					"name": "tokenId",
					"type": "uint256"
				}
			],
			"name": "safeTransferFrom",
			"outputs": [],
			"stateMutability": "nonpayable",
			"type": "function"
		},
		{
			"inputs": [
				{
					"internalType": "address",
					"name": "from",
					"type": "address"
				},
				{
					"internalType": "address",
					"name": "to",
					"type": "address"
				},
				{
					"internalType": "uint256",
					"name": "tokenId",
					"type": "uint256"
				},
				{
					"internalType": "bytes",
					"name": "data",
					"type": "bytes"
				}
			],
			"name": "safeTransferFrom",
			"outputs": [],
			"stateMutability": "nonpayable",
			"type": "function"
		},
		{
			"inputs": [
				{
					"internalType": "address",
					"name": "operator",
					"type": "address"
				},
				{
					"internalType": "bool",
					"name": "approved",
					"type": "bool"
				}
			],
			"name": "setApprovalForAll",
			"outputs": [],
			"stateMutability": "nonpayable",
			"type": "function"
		},
		{
			"inputs": [
				{
					"internalType": "address",
					"name": "minterAddress_",
					"type": "address"
				}
			],
			"name": "setMinterAddress",
			"outputs": [],
			"stateMutability": "nonpayable",
			"type": "function"
		},
		{
			"inputs": [
				{
					"internalType": "address",
					"name": "questFactory_",
					"type": "address"
				}
			],
			"name": "setQuestFactory",
			"outputs": [],
			"stateMutability": "nonpayable",
			"type": "function"
		},
		{
			"inputs": [
				{
					"internalType": "address",
					"name": "receiptRenderer_",
					"type": "address"
				}
			],
			"name": "setReceiptRenderer",
			"outputs": [],
			"stateMutability": "nonpayable",
			"type": "function"
		},
		{
			"inputs": [
				{
					"internalType": "uint256",
					"name": "royaltyFee_",
					"type": "uint256"
				}
			],
			"name": "setRoyaltyFee",
			"outputs": [],
			"stateMutability": "nonpayable",
			"type": "function"
		},
		{
			"inputs": [
				{
					"internalType": "address",
					"name": "royaltyRecipient_",
					"type": "address"
				}
			],
			"name": "setRoyaltyRecipient",
			"outputs": [],
			"stateMutability": "nonpayable",
			"type": "function"
		},
		{
			"inputs": [
				{
					"internalType": "bytes4",
					"name": "interfaceId_",
					"type": "bytes4"
				}
			],
			"name": "supportsInterface",
			"outputs": [
				{
					"internalType": "bool",
					"name": "",
					"type": "bool"
				}
			],
			"stateMutability": "view",
			"type": "function"
		},
		{
			"inputs": [],
			"name": "symbol",
			"outputs": [
				{
					"internalType": "string",
					"name": "",
					"type": "string"
				}
			],
			"stateMutability": "view",
			"type": "function"
		},
		{
			"inputs": [
				{
					"internalType": "uint256",
					"name": "",
					"type": "uint256"
				}
			],
			"name": "timestampForTokenId",
			"outputs": [
				{
					"internalType": "uint256",
					"name": "",
					"type": "uint256"
				}
			],
			"stateMutability": "view",
			"type": "function"
		},
		{
			"inputs": [
				{
					"internalType": "uint256",
					"name": "index",
					"type": "uint256"
				}
			],
			"name": "tokenByIndex",
			"outputs": [
				{
					"internalType": "uint256",
					"name": "",
					"type": "uint256"
				}
			],
			"stateMutability": "view",
			"type": "function"
		},
		{
			"inputs": [
				{
					"internalType": "address",
					"name": "owner",
					"type": "address"
				},
				{
					"internalType": "uint256",
					"name": "index",
					"type": "uint256"
				}
			],
			"name": "tokenOfOwnerByIndex",
			"outputs": [
				{
					"internalType": "uint256",
					"name": "",
					"type": "uint256"
				}
			],
			"stateMutability": "view",
			"type": "function"
		},
		{
			"inputs": [
				{
					"internalType": "uint256",
					"name": "tokenId_",
					"type": "uint256"
				}
			],
			"name": "tokenURI",
			"outputs": [
				{
					"internalType": "string",
					"name": "",
					"type": "string"
				}
			],
			"stateMutability": "view",
			"type": "function"
		},
		{
			"inputs": [],
			"name": "totalSupply",
			"outputs": [
				{
					"internalType": "uint256",
					"name": "",
					"type": "uint256"
				}
			],
			"stateMutability": "view",
			"type": "function"
		},
		{
			"inputs": [
				{
					"internalType": "address",
					"name": "from",
					"type": "address"
				},
				{
					"internalType": "address",
					"name": "to",
					"type": "address"
				},
				{
					"internalType": "uint256",
					"name": "tokenId",
					"type": "uint256"
				}
			],
			"name": "transferFrom",
			"outputs": [],
			"stateMutability": "nonpayable",
			"type": "function"
		},
		{
			"inputs": [
				{
					"internalType": "address",
					"name": "newOwner",
					"type": "address"
				}
			],
			"name": "transferOwnership",
			"outputs": [],
			"stateMutability": "nonpayable",
			"type": "function"
		}
	],
	"transactionHash": "0xdeee687f88400d9436ca8a4df5da434e914e3a311151d16009a77f84c90d363b",
	"solcInputHash": "7af6a2ada0936fb91e62a1feed5fd46b",
	"numDeployments": 1,
	"args": [],
	"bytecode": "0x608060405234801561001057600080fd5b50612c50806100206000396000f3fe608060405234801561001057600080fd5b50600436106102265760003560e01c80634f6ccce71161012a578063a3106b95116100bd578063b8d1ebfd1161008c578063d0def52111610071578063d0def521146104c5578063e985e9c5146104d8578063f2fde38b1461051457600080fd5b8063b8d1ebfd14610492578063c87b56dd146104b257600080fd5b8063a3106b951461044e578063a7866a8314610461578063b88d4fde14610475578063b8997a971461048857600080fd5b806377293cc3116100f957806377293cc31461040e5780638da5cb5b1461042257806395d89b4114610433578063a22cb4651461043b57600080fd5b80634f6ccce7146103cd5780636352211e146103e057806370a08231146103f3578063715018a61461040657600080fd5b806328cf1635116101bd5780633c3091a11161018c57806341e42f301161017157806341e42f301461039357806342842e0e146103a65780634c00de82146103b957600080fd5b80633c3091a11461036d5780633e4086e51461038057600080fd5b806328cf1635146102f35780632a55205a146103145780632f745c591461034657806334d722c91461035957600080fd5b806318160ddd116101f957806318160ddd146102a85780631c9fd0c3146102ba57806323b872dd146102cd57806327125e2f146102e057600080fd5b806301ffc9a71461022b57806306fdde0314610253578063081812fc14610268578063095ea7b314610293575b600080fd5b61023e610239366004612335565b610527565b60405190151581526020015b60405180910390f35b61025b610583565b60405161024a91906123b1565b61027b6102763660046123c4565b610615565b6040516001600160a01b03909116815260200161024a565b6102a66102a13660046123f2565b61063c565b005b6099545b60405190815260200161024a565b6102a66102c836600461241e565b610772565b6102a66102db36600461243b565b6107aa565b61025b6102ee3660046123c4565b610831565b6102ac6103013660046123c4565b6101326020526000908152604090205481565b61032761032236600461247c565b6108cc565b604080516001600160a01b03909316835260208301919091520161024a565b6102ac6103543660046123f2565b610968565b6101305461027b906001600160a01b031681565b6102a661037b36600461241e565b610a10565b6102a661038e3660046123c4565b610a48565b6102a66103a136600461241e565b610a84565b6102a66103b436600461243b565b610abc565b61012f5461027b906001600160a01b031681565b6102ac6103db3660046123c4565b610ad7565b61027b6103ee3660046123c4565b610b7b565b6102ac61040136600461241e565b610be0565b6102a6610c7a565b6101335461027b906001600160a01b031681565b60fb546001600160a01b031661027b565b61025b610c8e565b6102a66104493660046124ac565b610c9d565b6102a661045c36600461241e565b610cac565b6101345461027b906001600160a01b031681565b6102a66104833660046125ab565b610d0c565b6102ac6101315481565b6104a56104a036600461264b565b610d9a565b60405161024a9190612692565b61025b6104c03660046123c4565b610f59565b6102a66104d33660046126d6565b61136a565b61023e6104e6366004612726565b6001600160a01b039182166000908152606a6020908152604080832093909416825291909152205460ff1690565b6102a661052236600461241e565b611419565b60007fffffffff0000000000000000000000000000000000000000000000000000000082167f2a55205a00000000000000000000000000000000000000000000000000000000148061057d575061057d826114a9565b92915050565b60606065805461059290612754565b80601f01602080910402602001604051908101604052809291908181526020018280546105be90612754565b801561060b5780601f106105e05761010080835404028352916020019161060b565b820191906000526020600020905b8154815290600101906020018083116105ee57829003601f168201915b5050505050905090565b6000610620826114ff565b506000908152606960205260409020546001600160a01b031690565b600061064782610b7b565b9050806001600160a01b0316836001600160a01b0316036106d55760405162461bcd60e51b815260206004820152602160248201527f4552433732313a20617070726f76616c20746f2063757272656e74206f776e6560448201527f720000000000000000000000000000000000000000000000000000000000000060648201526084015b60405180910390fd5b336001600160a01b03821614806106f157506106f181336104e6565b6107635760405162461bcd60e51b815260206004820152603d60248201527f4552433732313a20617070726f76652063616c6c6572206973206e6f7420746f60448201527f6b656e206f776e6572206f7220617070726f76656420666f7220616c6c00000060648201526084016106cc565b61076d8383611563565b505050565b61077a6115de565b610134805473ffffffffffffffffffffffffffffffffffffffff19166001600160a01b0392909216919091179055565b6107b43382611638565b6108265760405162461bcd60e51b815260206004820152602d60248201527f4552433732313a2063616c6c6572206973206e6f7420746f6b656e206f776e6560448201527f72206f7220617070726f7665640000000000000000000000000000000000000060648201526084016106cc565b61076d8383836116b7565b61012e602052600090815260409020805461084b90612754565b80601f016020809104026020016040519081016040528092919081815260200182805461087790612754565b80156108c45780601f10610899576101008083540402835291602001916108c4565b820191906000526020600020905b8154815290600101906020018083116108a757829003601f168201915b505050505081565b60008281526067602052604081205481906001600160a01b03166109325760405162461bcd60e51b815260206004820152601160248201527f4e6f6e6578697374656e7420746f6b656e00000000000000000000000000000060448201526064016106cc565b6000612710610131548561094691906127d6565b61095091906127f5565b61012f546001600160a01b0316969095509350505050565b600061097383610be0565b82106109e75760405162461bcd60e51b815260206004820152602b60248201527f455243373231456e756d657261626c653a206f776e657220696e646578206f7560448201527f74206f6620626f756e647300000000000000000000000000000000000000000060648201526084016106cc565b506001600160a01b03919091166000908152609760209081526040808320938352929052205490565b610a186115de565b610133805473ffffffffffffffffffffffffffffffffffffffff19166001600160a01b0392909216919091179055565b610a506115de565b61013181905560405181907fc36422dcc77a5c93a5c48743078f8130c9fcc2a0ff893904ee62a3565688117c90600090a250565b610a8c6115de565b61012f805473ffffffffffffffffffffffffffffffffffffffff19166001600160a01b0392909216919091179055565b61076d83838360405180602001604052806000815250610d0c565b6000610ae260995490565b8210610b565760405162461bcd60e51b815260206004820152602c60248201527f455243373231456e756d657261626c653a20676c6f62616c20696e646578206f60448201527f7574206f6620626f756e6473000000000000000000000000000000000000000060648201526084016106cc565b60998281548110610b6957610b69612830565b90600052602060002001549050919050565b6000818152606760205260408120546001600160a01b03168061057d5760405162461bcd60e51b815260206004820152601860248201527f4552433732313a20696e76616c696420746f6b656e204944000000000000000060448201526064016106cc565b60006001600160a01b038216610c5e5760405162461bcd60e51b815260206004820152602960248201527f4552433732313a2061646472657373207a65726f206973206e6f74206120766160448201527f6c6964206f776e6572000000000000000000000000000000000000000000000060648201526084016106cc565b506001600160a01b031660009081526068602052604090205490565b610c826115de565b610c8c60006118fa565b565b60606066805461059290612754565b610ca8338383611959565b5050565b610cb46115de565b610130805473ffffffffffffffffffffffffffffffffffffffff19166001600160a01b0383169081179091556040517f09e32743122b4d02dc06c38a35ee1587a02854644d47574bb35a6ef75a22fa9890600090a250565b610d163383611638565b610d885760405162461bcd60e51b815260206004820152602d60248201527f4552433732313a2063616c6c6572206973206e6f7420746f6b656e206f776e6560448201527f72206f7220617070726f7665640000000000000000000000000000000000000060648201526084016106cc565b610d9484848484611a45565b50505050565b60606000610da783610be0565b905060008167ffffffffffffffff811115610dc457610dc46124e5565b604051908082528060200260200182016040528015610ded578160200160208202803683370190505b5090506000805b83811015610e7f576000610e088783610968565b9050878051906020012061012e6000838152602001908152602001600020604051610e33919061285f565b604051809103902003610e6c5780848381518110610e5357610e53612830565b602090810291909101015282610e68816128f3565b9350505b5080610e77816128f3565b915050610df4565b5060008167ffffffffffffffff811115610e9b57610e9b6124e5565b604051908082528060200260200182016040528015610ec4578160200160208202803683370190505b5090506000805b85811015610f4c576000858281518110610ee757610ee7612830565b60200260200101511115610f3a57848181518110610f0757610f07612830565b6020026020010151838381518110610f2157610f21612830565b602090810291909101015281610f36816128f3565b9250505b80610f44816128f3565b915050610ecb565b5090979650505050505050565b6000818152606760205260409020546060906001600160a01b0316610fe65760405162461bcd60e51b815260206004820152603160248201527f45524337323155524953746f726167653a2055524920717565727920666f722060448201527f6e6f6e6578697374656e7420746f6b656e00000000000000000000000000000060648201526084016106cc565b610134546001600160a01b031661103f5760405162461bcd60e51b815260206004820152601460248201527f5175657374466163746f7279206e6f742073657400000000000000000000000060448201526064016106cc565b600082815261012e60205260408120805461105990612754565b80601f016020809104026020016040519081016040528092919081815260200182805461108590612754565b80156110d25780601f106110a7576101008083540402835291602001916110d2565b820191906000526020600020905b8154815290600101906020018083116110b557829003601f168201915b5050610134546040517fec461ac40000000000000000000000000000000000000000000000000000000081529495506000948594506001600160a01b03909116925063ec461ac491506111299086906004016123b1565b606060405180830381865afa158015611146573d6000803e3d6000fd5b505050506040513d601f19601f8201168201806040525081019061116a919061290d565b506040517f9e34070f00000000000000000000000000000000000000000000000000000000815260048101889052919350915082906000906001600160a01b03831690639e34070f90602401602060405180830381865afa1580156111d3573d6000803e3d6000fd5b505050506040513d601f19601f820116820180604052508101906111f79190612944565b90506000826001600160a01b03166309a69f576040518163ffffffff1660e01b8152600401602060405180830381865afa158015611239573d6000803e3d6000fd5b505050506040513d601f19601f8201168201806040525081019061125d9190612961565b90506000836001600160a01b03166369940d796040518163ffffffff1660e01b8152600401602060405180830381865afa15801561129f573d6000803e3d6000fd5b505050506040513d601f19601f820116820180604052508101906112c3919061297a565b610133546040517fac1733830000000000000000000000000000000000000000000000000000000081529192506001600160a01b03169063ac17338390611318908c908b908a90899089908990600401612997565b600060405180830381865afa158015611335573d6000803e3d6000fd5b505050506040513d6000823e601f3d908101601f1916820160405261135d91908101906129de565b9998505050505050505050565b610130546001600160a01b031633146113c55760405162461bcd60e51b815260206004820152600b60248201527f4f6e6c79206d696e74657200000000000000000000000000000000000000000060448201526064016106cc565b6113d461012d80546001019055565b60006113e061012d5490565b600081815261012e602052604090209091506113fc8382612aa3565b5060008181526101326020526040902042905561076d8382611ace565b6114216115de565b6001600160a01b03811661149d5760405162461bcd60e51b815260206004820152602660248201527f4f776e61626c653a206e6577206f776e657220697320746865207a65726f206160448201527f646472657373000000000000000000000000000000000000000000000000000060648201526084016106cc565b6114a6816118fa565b50565b60007fffffffff0000000000000000000000000000000000000000000000000000000082167f780e9d6300000000000000000000000000000000000000000000000000000000148061057d575061057d82611ae8565b6000818152606760205260409020546001600160a01b03166114a65760405162461bcd60e51b815260206004820152601860248201527f4552433732313a20696e76616c696420746f6b656e204944000000000000000060448201526064016106cc565b6000818152606960205260409020805473ffffffffffffffffffffffffffffffffffffffff19166001600160a01b03841690811790915581906115a582610b7b565b6001600160a01b03167f8c5be1e5ebec7d5bd14f71427d1e84f3dd0314c0f7b2291e5b200ac8c7c3b92560405160405180910390a45050565b60fb546001600160a01b03163314610c8c5760405162461bcd60e51b815260206004820181905260248201527f4f776e61626c653a2063616c6c6572206973206e6f7420746865206f776e657260448201526064016106cc565b60008061164483610b7b565b9050806001600160a01b0316846001600160a01b0316148061168b57506001600160a01b038082166000908152606a602090815260408083209388168352929052205460ff165b806116af5750836001600160a01b03166116a484610615565b6001600160a01b0316145b949350505050565b826001600160a01b03166116ca82610b7b565b6001600160a01b0316146117465760405162461bcd60e51b815260206004820152602560248201527f4552433732313a207472616e736665722066726f6d20696e636f72726563742060448201527f6f776e657200000000000000000000000000000000000000000000000000000060648201526084016106cc565b6001600160a01b0382166117c15760405162461bcd60e51b8152602060048201526024808201527f4552433732313a207472616e7366657220746f20746865207a65726f2061646460448201527f726573730000000000000000000000000000000000000000000000000000000060648201526084016106cc565b6117ce8383836001611bcb565b826001600160a01b03166117e182610b7b565b6001600160a01b03161461185d5760405162461bcd60e51b815260206004820152602560248201527f4552433732313a207472616e736665722066726f6d20696e636f72726563742060448201527f6f776e657200000000000000000000000000000000000000000000000000000060648201526084016106cc565b6000818152606960209081526040808320805473ffffffffffffffffffffffffffffffffffffffff199081169091556001600160a01b0387811680865260688552838620805460001901905590871680865283862080546001019055868652606790945282852080549092168417909155905184937fddf252ad1be2c89b69c2b068fc378daa952ba7f163c4a11628f55a4df523b3ef91a4505050565b60fb80546001600160a01b0383811673ffffffffffffffffffffffffffffffffffffffff19831681179093556040519116919082907f8be0079c531659141344cd1fd0a4f28419497f9722a3daafe3b4186f6b6457e090600090a35050565b816001600160a01b0316836001600160a01b0316036119ba5760405162461bcd60e51b815260206004820152601960248201527f4552433732313a20617070726f766520746f2063616c6c65720000000000000060448201526064016106cc565b6001600160a01b038381166000818152606a602090815260408083209487168084529482529182902080547fffffffffffffffffffffffffffffffffffffffffffffffffffffffffffffff001686151590811790915591519182527f17307eab39ab6107e8899845ad3d59bd9653f200f220920489ca2b5937696c31910160405180910390a3505050565b611a508484846116b7565b611a5c84848484611bd7565b610d945760405162461bcd60e51b815260206004820152603260248201527f4552433732313a207472616e7366657220746f206e6f6e20455243373231526560448201527f63656976657220696d706c656d656e746572000000000000000000000000000060648201526084016106cc565b610ca8828260405180602001604052806000815250611d78565b60007fffffffff0000000000000000000000000000000000000000000000000000000082167f80ac58cd000000000000000000000000000000000000000000000000000000001480611b7b57507fffffffff0000000000000000000000000000000000000000000000000000000082167f5b5e139f00000000000000000000000000000000000000000000000000000000145b8061057d57507f01ffc9a7000000000000000000000000000000000000000000000000000000007fffffffff0000000000000000000000000000000000000000000000000000000083161461057d565b610d9484848484611e01565b60006001600160a01b0384163b15611d6d576040517f150b7a020000000000000000000000000000000000000000000000000000000081526001600160a01b0385169063150b7a0290611c34903390899088908890600401612b63565b6020604051808303816000875af1925050508015611c6f575060408051601f3d908101601f19168201909252611c6c91810190612b9f565b60015b611d22573d808015611c9d576040519150601f19603f3d011682016040523d82523d6000602084013e611ca2565b606091505b508051600003611d1a5760405162461bcd60e51b815260206004820152603260248201527f4552433732313a207472616e7366657220746f206e6f6e20455243373231526560448201527f63656976657220696d706c656d656e746572000000000000000000000000000060648201526084016106cc565b805181602001fd5b7fffffffff00000000000000000000000000000000000000000000000000000000167f150b7a02000000000000000000000000000000000000000000000000000000001490506116af565b506001949350505050565b611d828383611f49565b611d8f6000848484611bd7565b61076d5760405162461bcd60e51b815260206004820152603260248201527f4552433732313a207472616e7366657220746f206e6f6e20455243373231526560448201527f63656976657220696d706c656d656e746572000000000000000000000000000060648201526084016106cc565b611e0d848484846120ef565b6001811115611e845760405162461bcd60e51b815260206004820152603560248201527f455243373231456e756d657261626c653a20636f6e736563757469766520747260448201527f616e7366657273206e6f7420737570706f72746564000000000000000000000060648201526084016106cc565b816001600160a01b038516611ee057611edb81609980546000838152609a60205260408120829055600182018355919091527f72a152ddfb8e864297c917af52ea6c1c68aead0fee1a62673fcc7e0c94979d000155565b611f03565b836001600160a01b0316856001600160a01b031614611f0357611f038582612177565b6001600160a01b038416611f1f57611f1a81612214565b611f42565b846001600160a01b0316846001600160a01b031614611f4257611f4284826122c3565b5050505050565b6001600160a01b038216611f9f5760405162461bcd60e51b815260206004820181905260248201527f4552433732313a206d696e7420746f20746865207a65726f206164647265737360448201526064016106cc565b6000818152606760205260409020546001600160a01b0316156120045760405162461bcd60e51b815260206004820152601c60248201527f4552433732313a20746f6b656e20616c7265616479206d696e7465640000000060448201526064016106cc565b612012600083836001611bcb565b6000818152606760205260409020546001600160a01b0316156120775760405162461bcd60e51b815260206004820152601c60248201527f4552433732313a20746f6b656e20616c7265616479206d696e7465640000000060448201526064016106cc565b6001600160a01b0382166000818152606860209081526040808320805460010190558483526067909152808220805473ffffffffffffffffffffffffffffffffffffffff19168417905551839291907fddf252ad1be2c89b69c2b068fc378daa952ba7f163c4a11628f55a4df523b3ef908290a45050565b6001811115610d94576001600160a01b03841615612135576001600160a01b0384166000908152606860205260408120805483929061212f908490612bbc565b90915550505b6001600160a01b03831615610d94576001600160a01b0383166000908152606860205260408120805483929061216c908490612bd3565b909155505050505050565b6000600161218484610be0565b61218e9190612bbc565b6000838152609860205260409020549091508082146121e1576001600160a01b03841660009081526097602090815260408083208584528252808320548484528184208190558352609890915290208190555b5060009182526098602090815260408084208490556001600160a01b039094168352609781528383209183525290812055565b60995460009061222690600190612bbc565b6000838152609a60205260408120546099805493945090928490811061224e5761224e612830565b90600052602060002001549050806099838154811061226f5761226f612830565b6000918252602080832090910192909255828152609a909152604080822084905585825281205560998054806122a7576122a7612beb565b6001900381819060005260206000200160009055905550505050565b60006122ce83610be0565b6001600160a01b039093166000908152609760209081526040808320868452825280832085905593825260989052919091209190915550565b7fffffffff00000000000000000000000000000000000000000000000000000000811681146114a657600080fd5b60006020828403121561234757600080fd5b813561235281612307565b9392505050565b60005b8381101561237457818101518382015260200161235c565b83811115610d945750506000910152565b6000815180845261239d816020860160208601612359565b601f01601f19169290920160200192915050565b6020815260006123526020830184612385565b6000602082840312156123d657600080fd5b5035919050565b6001600160a01b03811681146114a657600080fd5b6000806040838503121561240557600080fd5b8235612410816123dd565b946020939093013593505050565b60006020828403121561243057600080fd5b8135612352816123dd565b60008060006060848603121561245057600080fd5b833561245b816123dd565b9250602084013561246b816123dd565b929592945050506040919091013590565b6000806040838503121561248f57600080fd5b50508035926020909101359150565b80151581146114a657600080fd5b600080604083850312156124bf57600080fd5b82356124ca816123dd565b915060208301356124da8161249e565b809150509250929050565b7f4e487b7100000000000000000000000000000000000000000000000000000000600052604160045260246000fd5b604051601f8201601f1916810167ffffffffffffffff8111828210171561253d5761253d6124e5565b604052919050565b600067ffffffffffffffff82111561255f5761255f6124e5565b50601f01601f191660200190565b600061258061257b84612545565b612514565b905082815283838301111561259457600080fd5b828260208301376000602084830101529392505050565b600080600080608085870312156125c157600080fd5b84356125cc816123dd565b935060208501356125dc816123dd565b925060408501359150606085013567ffffffffffffffff8111156125ff57600080fd5b8501601f8101871361261057600080fd5b61261f8782356020840161256d565b91505092959194509250565b600082601f83011261263c57600080fd5b6123528383356020850161256d565b6000806040838503121561265e57600080fd5b823567ffffffffffffffff81111561267557600080fd5b6126818582860161262b565b92505060208301356124da816123dd565b6020808252825182820181905260009190848201906040850190845b818110156126ca578351835292840192918401916001016126ae565b50909695505050505050565b600080604083850312156126e957600080fd5b82356126f4816123dd565b9150602083013567ffffffffffffffff81111561271057600080fd5b61271c8582860161262b565b9150509250929050565b6000806040838503121561273957600080fd5b8235612744816123dd565b915060208301356124da816123dd565b600181811c9082168061276857607f821691505b6020821081036127a1577f4e487b7100000000000000000000000000000000000000000000000000000000600052602260045260246000fd5b50919050565b7f4e487b7100000000000000000000000000000000000000000000000000000000600052601160045260246000fd5b60008160001904831182151516156127f0576127f06127a7565b500290565b60008261282b577f4e487b7100000000000000000000000000000000000000000000000000000000600052601260045260246000fd5b500490565b7f4e487b7100000000000000000000000000000000000000000000000000000000600052603260045260246000fd5b600080835461286d81612754565b6001828116801561288557600181146128b8576128e7565b7fffffffffffffffffffffffffffffffffffffffffffffffffffffffffffffff00841687528215158302870194506128e7565b8760005260208060002060005b858110156128de5781548a8201529084019082016128c5565b50505082870194505b50929695505050505050565b60006000198203612906576129066127a7565b5060010190565b60008060006060848603121561292257600080fd5b835161292d816123dd565b602085015160409095015190969495509392505050565b60006020828403121561295657600080fd5b81516123528161249e565b60006020828403121561297357600080fd5b5051919050565b60006020828403121561298c57600080fd5b8151612352816123dd565b86815260c0602082015260006129b060c0830188612385565b604083019690965250921515606084015260808301919091526001600160a01b031660a09091015292915050565b6000602082840312156129f057600080fd5b815167ffffffffffffffff811115612a0757600080fd5b8201601f81018413612a1857600080fd5b8051612a2661257b82612545565b818152856020838501011115612a3b57600080fd5b612a4c826020830160208601612359565b95945050505050565b601f82111561076d57600081815260208120601f850160051c81016020861015612a7c5750805b601f850160051c820191505b81811015612a9b57828155600101612a88565b505050505050565b815167ffffffffffffffff811115612abd57612abd6124e5565b612ad181612acb8454612754565b84612a55565b602080601f831160018114612b065760008415612aee5750858301515b600019600386901b1c1916600185901b178555612a9b565b600085815260208120601f198616915b82811015612b3557888601518255948401946001909101908401612b16565b5085821015612b535787850151600019600388901b60f8161c191681555b5050505050600190811b01905550565b60006001600160a01b03808716835280861660208401525083604083015260806060830152612b956080830184612385565b9695505050505050565b600060208284031215612bb157600080fd5b815161235281612307565b600082821015612bce57612bce6127a7565b500390565b60008219821115612be657612be66127a7565b500190565b7f4e487b7100000000000000000000000000000000000000000000000000000000600052603160045260246000fdfea264697066735822122011025217c7aeaed3115202398fa7c4e728524988c79efbe3f0da42166770099464736f6c634300080f0033",
	"deployedBytecode": "0x60806040526004361061004e5760003560e01c80633659cfe6146100655780634f1ef286146100855780635c60da1b146100ae5780638f283970146100db578063f851a440146100fb5761005d565b3661005d5761005b610110565b005b61005b610110565b34801561007157600080fd5b5061005b61008036600461051d565b6101c8565b610098610093366004610538565b61020e565b6040516100a591906105bb565b60405180910390f35b3480156100ba57600080fd5b506100c361033e565b6040516001600160a01b0390911681526020016100a5565b3480156100e757600080fd5b5061005b6100f636600461051d565b6103a9565b34801561010757600080fd5b506100c36103e4565b600061013a7f360894a13ba1a3210667c828492db98dca3e2076cc3735a920a3ca505d382bbc5490565b90506001600160a01b0381166101a55760405162461bcd60e51b815260206004820152602560248201527f50726f78793a20696d706c656d656e746174696f6e206e6f7420696e697469616044820152641b1a5e995960da1b60648201526084015b60405180910390fd5b3660008037600080366000845af43d6000803e806101c2573d6000fd5b503d6000f35b600080516020610621833981519152546001600160a01b0316336001600160a01b031614806101f5575033155b156102065761020381610432565b50565b610203610110565b60606102266000805160206106218339815191525490565b6001600160a01b0316336001600160a01b03161480610243575033155b1561032f5761025184610432565b600080856001600160a01b0316858560405161026e929190610610565b600060405180830381855af49150503d80600081146102a9576040519150601f19603f3d011682016040523d82523d6000602084013e6102ae565b606091505b5091509150816103265760405162461bcd60e51b815260206004820152603960248201527f50726f78793a2064656c656761746563616c6c20746f206e657720696d706c6560448201527f6d656e746174696f6e20636f6e7472616374206661696c656400000000000000606482015260840161019c565b91506103379050565b610337610110565b9392505050565b60006103566000805160206106218339815191525490565b6001600160a01b0316336001600160a01b03161480610373575033155b1561039e57507f360894a13ba1a3210667c828492db98dca3e2076cc3735a920a3ca505d382bbc5490565b6103a6610110565b90565b600080516020610621833981519152546001600160a01b0316336001600160a01b031614806103d6575033155b15610206576102038161048d565b60006103fc6000805160206106218339815191525490565b6001600160a01b0316336001600160a01b03161480610419575033155b1561039e57506000805160206106218339815191525490565b7f360894a13ba1a3210667c828492db98dca3e2076cc3735a920a3ca505d382bbc8190556040516001600160a01b038216907fbc7cd75a20ee27fd9adebab32041f755214dbc6bffa90cc0225b39da2e5c2d3b90600090a250565b60006104a56000805160206106218339815191525490565b600080516020610621833981519152839055604080516001600160a01b038084168252851660208201529192507f7e644d79422f17c01e4894b5f4f588d331ebfa28653d42ae832dc59e38c9798f910160405180910390a15050565b80356001600160a01b038116811461051857600080fd5b919050565b60006020828403121561052f57600080fd5b61033782610501565b60008060006040848603121561054d57600080fd5b61055684610501565b9250602084013567ffffffffffffffff8082111561057357600080fd5b818601915086601f83011261058757600080fd5b81358181111561059657600080fd5b8760208285010111156105a857600080fd5b6020830194508093505050509250925092565b600060208083528351808285015260005b818110156105e8578581018301518582016040015282016105cc565b818111156105fa576000604083870101525b50601f01601f1916929092016040019392505050565b818382376000910190815291905056feb53127684a568b3173ae13b9f8a6016e243e63b6e8ee1178d6a717850b5d6103a26469706673582212202bd1f0b5e6fde550b88238730ef8a1aca50c563a9964646d6babc0ad93dbcf3b64736f6c634300080f0033",
	"devdoc": {
		"kind": "dev",
		"methods": {
			"approve(address,uint256)": {
				"details": "See {IERC721-approve}."
			},
			"balanceOf(address)": {
				"details": "See {IERC721-balanceOf}."
			},
			"getApproved(uint256)": {
				"details": "See {IERC721-getApproved}."
			},
			"getOwnedTokenIdsOfQuest(string,address)": {
				"details": "get the token ids for a quest owned by an address",
				"params": {
					"claimingAddress_": "the address claiming to own the tokens",
					"questId_": "the quest id"
				}
			},
			"isApprovedForAll(address,address)": {
				"details": "See {IERC721-isApprovedForAll}."
			},
			"mint(address,string)": {
				"details": "mint a receipt",
				"params": {
					"questId_": "the quest id",
					"to_": "the address to mint to"
				}
			},
			"name()": {
				"details": "See {IERC721Metadata-name}."
			},
			"owner()": {
				"details": "Returns the address of the current owner."
			},
			"ownerOf(uint256)": {
				"details": "See {IERC721-ownerOf}."
			},
			"renounceOwnership()": {
				"details": "Leaves the contract without owner. It will not be possible to call `onlyOwner` functions anymore. Can only be called by the current owner. NOTE: Renouncing ownership will leave the contract without an owner, thereby removing any functionality that is only available to the owner."
			},
			"royaltyInfo(uint256,uint256)": {
				"details": "See {IERC165-royaltyInfo}",
				"params": {
					"salePrice_": "the sale price",
					"tokenId_": "the token id"
				}
			},
			"safeTransferFrom(address,address,uint256)": {
				"details": "See {IERC721-safeTransferFrom}."
			},
			"safeTransferFrom(address,address,uint256,bytes)": {
				"details": "See {IERC721-safeTransferFrom}."
			},
			"setApprovalForAll(address,bool)": {
				"details": "See {IERC721-setApprovalForAll}."
			},
			"setMinterAddress(address)": {
				"details": "set the minter address",
				"params": {
					"minterAddress_": "the address of the minter"
				}
			},
			"setQuestFactory(address)": {
				"details": "set the quest factory contract",
				"params": {
					"questFactory_": "the address of the quest factory contract"
				}
			},
			"setReceiptRenderer(address)": {
				"details": "set the receipt renderer contract",
				"params": {
					"receiptRenderer_": "the address of the receipt renderer contract"
				}
			},
			"setRoyaltyFee(uint256)": {
				"details": "set the royalty fee",
				"params": {
					"royaltyFee_": "the royalty fee"
				}
			},
			"setRoyaltyRecipient(address)": {
				"details": "set the royalty recipient",
				"params": {
					"royaltyRecipient_": "the address of the royalty recipient"
				}
			},
			"supportsInterface(bytes4)": {
				"details": "returns true if the supplied interface id is supported",
				"params": {
					"interfaceId_": "the interface id"
				}
			},
			"symbol()": {
				"details": "See {IERC721Metadata-symbol}."
			},
			"tokenByIndex(uint256)": {
				"details": "See {IERC721Enumerable-tokenByIndex}."
			},
			"tokenOfOwnerByIndex(address,uint256)": {
				"details": "See {IERC721Enumerable-tokenOfOwnerByIndex}."
			},
			"tokenURI(uint256)": {
				"details": "return the token uri, this delegates to the receipt renderer contract"
			},
			"totalSupply()": {
				"details": "See {IERC721Enumerable-totalSupply}."
			},
			"transferFrom(address,address,uint256)": {
				"details": "See {IERC721-transferFrom}."
			},
			"transferOwnership(address)": {
				"details": "Transfers ownership of the contract to a new account (`newOwner`). Can only be called by the current owner."
			}
		},
		"version": 1
	},
	"userdoc": {
		"kind": "user",
		"methods": {},
		"version": 1
	},
	"storageLayout": {
		"storage": [
			{
				"astId": 566,
				"contract": "contracts/RabbitHoleReceipt.sol:RabbitHoleReceipt",
				"label": "_initialized",
				"offset": 0,
				"slot": "0",
				"type": "t_uint8"
			},
			{
				"astId": 569,
				"contract": "contracts/RabbitHoleReceipt.sol:RabbitHoleReceipt",
				"label": "_initializing",
				"offset": 1,
				"slot": "0",
				"type": "t_bool"
			},
			{
				"astId": 4246,
				"contract": "contracts/RabbitHoleReceipt.sol:RabbitHoleReceipt",
				"label": "__gap",
				"offset": 0,
				"slot": "1",
				"type": "t_array(t_uint256)50_storage"
			},
			{
				"astId": 4900,
				"contract": "contracts/RabbitHoleReceipt.sol:RabbitHoleReceipt",
				"label": "__gap",
				"offset": 0,
				"slot": "51",
				"type": "t_array(t_uint256)50_storage"
			},
			{
				"astId": 2269,
				"contract": "contracts/RabbitHoleReceipt.sol:RabbitHoleReceipt",
				"label": "_name",
				"offset": 0,
				"slot": "101",
				"type": "t_string_storage"
			},
			{
				"astId": 2271,
				"contract": "contracts/RabbitHoleReceipt.sol:RabbitHoleReceipt",
				"label": "_symbol",
				"offset": 0,
				"slot": "102",
				"type": "t_string_storage"
			},
			{
				"astId": 2275,
				"contract": "contracts/RabbitHoleReceipt.sol:RabbitHoleReceipt",
				"label": "_owners",
				"offset": 0,
				"slot": "103",
				"type": "t_mapping(t_uint256,t_address)"
			},
			{
				"astId": 2279,
				"contract": "contracts/RabbitHoleReceipt.sol:RabbitHoleReceipt",
				"label": "_balances",
				"offset": 0,
				"slot": "104",
				"type": "t_mapping(t_address,t_uint256)"
			},
			{
				"astId": 2283,
				"contract": "contracts/RabbitHoleReceipt.sol:RabbitHoleReceipt",
				"label": "_tokenApprovals",
				"offset": 0,
				"slot": "105",
				"type": "t_mapping(t_uint256,t_address)"
			},
			{
				"astId": 2289,
				"contract": "contracts/RabbitHoleReceipt.sol:RabbitHoleReceipt",
				"label": "_operatorApprovals",
				"offset": 0,
				"slot": "106",
				"type": "t_mapping(t_address,t_mapping(t_address,t_bool))"
			},
			{
				"astId": 3209,
				"contract": "contracts/RabbitHoleReceipt.sol:RabbitHoleReceipt",
				"label": "__gap",
				"offset": 0,
				"slot": "107",
				"type": "t_array(t_uint256)44_storage"
			},
			{
				"astId": 3374,
				"contract": "contracts/RabbitHoleReceipt.sol:RabbitHoleReceipt",
				"label": "_ownedTokens",
				"offset": 0,
				"slot": "151",
				"type": "t_mapping(t_address,t_mapping(t_uint256,t_uint256))"
			},
			{
				"astId": 3378,
				"contract": "contracts/RabbitHoleReceipt.sol:RabbitHoleReceipt",
				"label": "_ownedTokensIndex",
				"offset": 0,
				"slot": "152",
				"type": "t_mapping(t_uint256,t_uint256)"
			},
			{
				"astId": 3381,
				"contract": "contracts/RabbitHoleReceipt.sol:RabbitHoleReceipt",
				"label": "_allTokens",
				"offset": 0,
				"slot": "153",
				"type": "t_array(t_uint256)dyn_storage"
			},
			{
				"astId": 3385,
				"contract": "contracts/RabbitHoleReceipt.sol:RabbitHoleReceipt",
				"label": "_allTokensIndex",
				"offset": 0,
				"slot": "154",
				"type": "t_mapping(t_uint256,t_uint256)"
			},
			{
				"astId": 3717,
				"contract": "contracts/RabbitHoleReceipt.sol:RabbitHoleReceipt",
				"label": "__gap",
				"offset": 0,
				"slot": "155",
				"type": "t_array(t_uint256)46_storage"
			},
			{
				"astId": 3746,
				"contract": "contracts/RabbitHoleReceipt.sol:RabbitHoleReceipt",
				"label": "_tokenURIs",
				"offset": 0,
				"slot": "201",
				"type": "t_mapping(t_uint256,t_string_storage)"
			},
			{
				"astId": 3862,
				"contract": "contracts/RabbitHoleReceipt.sol:RabbitHoleReceipt",
				"label": "__gap",
				"offset": 0,
				"slot": "202",
				"type": "t_array(t_uint256)49_storage"
			},
			{
				"astId": 419,
				"contract": "contracts/RabbitHoleReceipt.sol:RabbitHoleReceipt",
				"label": "_owner",
				"offset": 0,
				"slot": "251",
				"type": "t_address"
			},
			{
				"astId": 539,
				"contract": "contracts/RabbitHoleReceipt.sol:RabbitHoleReceipt",
				"label": "__gap",
				"offset": 0,
				"slot": "252",
				"type": "t_array(t_uint256)49_storage"
			},
			{
				"astId": 11628,
				"contract": "contracts/RabbitHoleReceipt.sol:RabbitHoleReceipt",
				"label": "_tokenIds",
				"offset": 0,
				"slot": "301",
				"type": "t_struct(Counter)4253_storage"
			},
			{
				"astId": 11632,
				"contract": "contracts/RabbitHoleReceipt.sol:RabbitHoleReceipt",
				"label": "questIdForTokenId",
				"offset": 0,
				"slot": "302",
				"type": "t_mapping(t_uint256,t_string_storage)"
			},
			{
				"astId": 11634,
				"contract": "contracts/RabbitHoleReceipt.sol:RabbitHoleReceipt",
				"label": "royaltyRecipient",
				"offset": 0,
				"slot": "303",
				"type": "t_address"
			},
			{
				"astId": 11636,
				"contract": "contracts/RabbitHoleReceipt.sol:RabbitHoleReceipt",
				"label": "minterAddress",
				"offset": 0,
				"slot": "304",
				"type": "t_address"
			},
			{
				"astId": 11638,
				"contract": "contracts/RabbitHoleReceipt.sol:RabbitHoleReceipt",
				"label": "royaltyFee",
				"offset": 0,
				"slot": "305",
				"type": "t_uint256"
			},
			{
				"astId": 11642,
				"contract": "contracts/RabbitHoleReceipt.sol:RabbitHoleReceipt",
				"label": "timestampForTokenId",
				"offset": 0,
				"slot": "306",
				"type": "t_mapping(t_uint256,t_uint256)"
			},
			{
				"astId": 11645,
				"contract": "contracts/RabbitHoleReceipt.sol:RabbitHoleReceipt",
				"label": "ReceiptRendererContract",
				"offset": 0,
				"slot": "307",
				"type": "t_contract(ReceiptRenderer)12982"
			},
			{
				"astId": 11648,
				"contract": "contracts/RabbitHoleReceipt.sol:RabbitHoleReceipt",
				"label": "QuestFactoryContract",
				"offset": 0,
				"slot": "308",
				"type": "t_contract(IQuestFactory)13177"
			}
		],
		"types": {
			"t_address": {
				"encoding": "inplace",
				"label": "address",
				"numberOfBytes": "20"
			},
			"t_array(t_uint256)44_storage": {
				"base": "t_uint256",
				"encoding": "inplace",
				"label": "uint256[44]",
				"numberOfBytes": "1408"
			},
			"t_array(t_uint256)46_storage": {
				"base": "t_uint256",
				"encoding": "inplace",
				"label": "uint256[46]",
				"numberOfBytes": "1472"
			},
			"t_array(t_uint256)49_storage": {
				"base": "t_uint256",
				"encoding": "inplace",
				"label": "uint256[49]",
				"numberOfBytes": "1568"
			},
			"t_array(t_uint256)50_storage": {
				"base": "t_uint256",
				"encoding": "inplace",
				"label": "uint256[50]",
				"numberOfBytes": "1600"
			},
			"t_array(t_uint256)dyn_storage": {
				"base": "t_uint256",
				"encoding": "dynamic_array",
				"label": "uint256[]",
				"numberOfBytes": "32"
			},
			"t_bool": {
				"encoding": "inplace",
				"label": "bool",
				"numberOfBytes": "1"
			},
			"t_contract(IQuestFactory)13177": {
				"encoding": "inplace",
				"label": "contract IQuestFactory",
				"numberOfBytes": "20"
			},
			"t_contract(ReceiptRenderer)12982": {
				"encoding": "inplace",
				"label": "contract ReceiptRenderer",
				"numberOfBytes": "20"
			},
			"t_mapping(t_address,t_bool)": {
				"encoding": "mapping",
				"key": "t_address",
				"label": "mapping(address => bool)",
				"numberOfBytes": "32",
				"value": "t_bool"
			},
			"t_mapping(t_address,t_mapping(t_address,t_bool))": {
				"encoding": "mapping",
				"key": "t_address",
				"label": "mapping(address => mapping(address => bool))",
				"numberOfBytes": "32",
				"value": "t_mapping(t_address,t_bool)"
			},
			"t_mapping(t_address,t_mapping(t_uint256,t_uint256))": {
				"encoding": "mapping",
				"key": "t_address",
				"label": "mapping(address => mapping(uint256 => uint256))",
				"numberOfBytes": "32",
				"value": "t_mapping(t_uint256,t_uint256)"
			},
			"t_mapping(t_address,t_uint256)": {
				"encoding": "mapping",
				"key": "t_address",
				"label": "mapping(address => uint256)",
				"numberOfBytes": "32",
				"value": "t_uint256"
			},
			"t_mapping(t_uint256,t_address)": {
				"encoding": "mapping",
				"key": "t_uint256",
				"label": "mapping(uint256 => address)",
				"numberOfBytes": "32",
				"value": "t_address"
			},
			"t_mapping(t_uint256,t_string_storage)": {
				"encoding": "mapping",
				"key": "t_uint256",
				"label": "mapping(uint256 => string)",
				"numberOfBytes": "32",
				"value": "t_string_storage"
			},
			"t_mapping(t_uint256,t_uint256)": {
				"encoding": "mapping",
				"key": "t_uint256",
				"label": "mapping(uint256 => uint256)",
				"numberOfBytes": "32",
				"value": "t_uint256"
			},
			"t_string_storage": {
				"encoding": "bytes",
				"label": "string",
				"numberOfBytes": "32"
			},
			"t_struct(Counter)4253_storage": {
				"encoding": "inplace",
				"label": "struct CountersUpgradeable.Counter",
				"members": [
					{
						"astId": 4252,
						"contract": "contracts/RabbitHoleReceipt.sol:RabbitHoleReceipt",
						"label": "_value",
						"offset": 0,
						"slot": "0",
						"type": "t_uint256"
					}
				],
				"numberOfBytes": "32"
			},
			"t_uint256": {
				"encoding": "inplace",
				"label": "uint256",
				"numberOfBytes": "32"
			},
			"t_uint8": {
				"encoding": "inplace",
				"label": "uint8",
				"numberOfBytes": "1"
			}
		}
	}
}