{
	"contractName": "RabbitHoleReceipt",
	"address": "0xA9Fe321BA99d312a8e33C153f6A7Be9072204f51",
	"abi": [
		{
			"anonymous": false,
			"inputs": [
				{
					"indexed": true,
					"internalType": "address",
					"name": "owner",
					"type": "address"
				},
				{
					"indexed": true,
					"internalType": "address",
					"name": "approved",
					"type": "address"
				},
				{
					"indexed": true,
					"internalType": "uint256",
					"name": "tokenId",
					"type": "uint256"
				}
			],
			"name": "Approval",
			"type": "event"
		},
		{
			"anonymous": false,
			"inputs": [
				{
					"indexed": true,
					"internalType": "address",
					"name": "owner",
					"type": "address"
				},
				{
					"indexed": true,
					"internalType": "address",
					"name": "operator",
					"type": "address"
				},
				{
					"indexed": false,
					"internalType": "bool",
					"name": "approved",
					"type": "bool"
				}
			],
			"name": "ApprovalForAll",
			"type": "event"
		},
		{
			"anonymous": false,
			"inputs": [
				{
					"indexed": false,
					"internalType": "uint8",
					"name": "version",
					"type": "uint8"
				}
			],
			"name": "Initialized",
			"type": "event"
		},
		{
			"anonymous": false,
			"inputs": [
				{
					"indexed": true,
					"internalType": "address",
					"name": "minterAddress",
					"type": "address"
				}
			],
			"name": "MinterAddressSet",
			"type": "event"
		},
		{
			"anonymous": false,
			"inputs": [
				{
					"indexed": true,
					"internalType": "address",
					"name": "previousOwner",
					"type": "address"
				},
				{
					"indexed": true,
					"internalType": "address",
					"name": "newOwner",
					"type": "address"
				}
			],
			"name": "OwnershipTransferred",
			"type": "event"
		},
		{
			"anonymous": false,
			"inputs": [
				{
					"indexed": true,
					"internalType": "uint256",
					"name": "royaltyFee",
					"type": "uint256"
				}
			],
			"name": "RoyaltyFeeSet",
			"type": "event"
		},
		{
			"anonymous": false,
			"inputs": [
				{
					"indexed": true,
					"internalType": "address",
					"name": "from",
					"type": "address"
				},
				{
					"indexed": true,
					"internalType": "address",
					"name": "to",
					"type": "address"
				},
				{
					"indexed": true,
					"internalType": "uint256",
					"name": "tokenId",
					"type": "uint256"
				}
			],
			"name": "Transfer",
			"type": "event"
		},
		{
			"inputs": [],
			"name": "QuestFactoryContract",
			"outputs": [
				{
					"internalType": "contract IQuestFactory",
					"name": "",
					"type": "address"
				}
			],
			"stateMutability": "view",
			"type": "function"
		},
		{
			"inputs": [],
			"name": "ReceiptRendererContract",
			"outputs": [
				{
					"internalType": "contract ReceiptRenderer",
					"name": "",
					"type": "address"
				}
			],
			"stateMutability": "view",
			"type": "function"
		},
		{
			"inputs": [
				{
					"internalType": "address",
					"name": "to",
					"type": "address"
				},
				{
					"internalType": "uint256",
					"name": "tokenId",
					"type": "uint256"
				}
			],
			"name": "approve",
			"outputs": [],
			"stateMutability": "nonpayable",
			"type": "function"
		},
		{
			"inputs": [
				{
					"internalType": "address",
					"name": "owner",
					"type": "address"
				}
			],
			"name": "balanceOf",
			"outputs": [
				{
					"internalType": "uint256",
					"name": "",
					"type": "uint256"
				}
			],
			"stateMutability": "view",
			"type": "function"
		},
		{
			"inputs": [
				{
					"internalType": "uint256",
					"name": "tokenId",
					"type": "uint256"
				}
			],
			"name": "getApproved",
			"outputs": [
				{
					"internalType": "address",
					"name": "",
					"type": "address"
				}
			],
			"stateMutability": "view",
			"type": "function"
		},
		{
			"inputs": [
				{
					"internalType": "string",
					"name": "questId_",
					"type": "string"
				},
				{
					"internalType": "address",
					"name": "claimingAddress_",
					"type": "address"
				}
			],
			"name": "getOwnedTokenIdsOfQuest",
			"outputs": [
				{
					"internalType": "uint256[]",
					"name": "",
					"type": "uint256[]"
				}
			],
			"stateMutability": "view",
			"type": "function"
		},
		{
			"inputs": [],
			"name": "getTokenId",
			"outputs": [
				{
					"internalType": "uint256",
					"name": "",
					"type": "uint256"
				}
			],
			"stateMutability": "view",
			"type": "function"
		},
		{
			"inputs": [
				{
					"internalType": "address",
					"name": "owner",
					"type": "address"
				},
				{
					"internalType": "address",
					"name": "operator",
					"type": "address"
				}
			],
			"name": "isApprovedForAll",
			"outputs": [
				{
					"internalType": "bool",
					"name": "",
					"type": "bool"
				}
			],
			"stateMutability": "view",
			"type": "function"
		},
		{
			"inputs": [
				{
					"internalType": "address",
					"name": "to_",
					"type": "address"
				},
				{
					"internalType": "string",
					"name": "questId_",
					"type": "string"
				}
			],
			"name": "mint",
			"outputs": [],
			"stateMutability": "nonpayable",
			"type": "function"
		},
		{
			"inputs": [],
			"name": "minterAddress",
			"outputs": [
				{
					"internalType": "address",
					"name": "",
					"type": "address"
				}
			],
			"stateMutability": "view",
			"type": "function"
		},
		{
			"inputs": [],
			"name": "name",
			"outputs": [
				{
					"internalType": "string",
					"name": "",
					"type": "string"
				}
			],
			"stateMutability": "view",
			"type": "function"
		},
		{
			"inputs": [],
			"name": "owner",
			"outputs": [
				{
					"internalType": "address",
					"name": "",
					"type": "address"
				}
			],
			"stateMutability": "view",
			"type": "function"
		},
		{
			"inputs": [
				{
					"internalType": "uint256",
					"name": "tokenId",
					"type": "uint256"
				}
			],
			"name": "ownerOf",
			"outputs": [
				{
					"internalType": "address",
					"name": "",
					"type": "address"
				}
			],
			"stateMutability": "view",
			"type": "function"
		},
		{
			"inputs": [
				{
					"internalType": "uint256",
					"name": "",
					"type": "uint256"
				}
			],
			"name": "questIdForTokenId",
			"outputs": [
				{
					"internalType": "string",
					"name": "",
					"type": "string"
				}
			],
			"stateMutability": "view",
			"type": "function"
		},
		{
			"inputs": [],
			"name": "renounceOwnership",
			"outputs": [],
			"stateMutability": "nonpayable",
			"type": "function"
		},
		{
			"inputs": [],
			"name": "royaltyFee",
			"outputs": [
				{
					"internalType": "uint256",
					"name": "",
					"type": "uint256"
				}
			],
			"stateMutability": "view",
			"type": "function"
		},
		{
			"inputs": [
				{
					"internalType": "uint256",
					"name": "tokenId_",
					"type": "uint256"
				},
				{
					"internalType": "uint256",
					"name": "salePrice_",
					"type": "uint256"
				}
			],
			"name": "royaltyInfo",
			"outputs": [
				{
					"internalType": "address",
					"name": "receiver",
					"type": "address"
				},
				{
					"internalType": "uint256",
					"name": "royaltyAmount",
					"type": "uint256"
				}
			],
			"stateMutability": "view",
			"type": "function"
		},
		{
			"inputs": [],
			"name": "royaltyRecipient",
			"outputs": [
				{
					"internalType": "address",
					"name": "",
					"type": "address"
				}
			],
			"stateMutability": "view",
			"type": "function"
		},
		{
			"inputs": [
				{
					"internalType": "address",
					"name": "from",
					"type": "address"
				},
				{
					"internalType": "address",
					"name": "to",
					"type": "address"
				},
				{
					"internalType": "uint256",
					"name": "tokenId",
					"type": "uint256"
				}
			],
			"name": "safeTransferFrom",
			"outputs": [],
			"stateMutability": "nonpayable",
			"type": "function"
		},
		{
			"inputs": [
				{
					"internalType": "address",
					"name": "from",
					"type": "address"
				},
				{
					"internalType": "address",
					"name": "to",
					"type": "address"
				},
				{
					"internalType": "uint256",
					"name": "tokenId",
					"type": "uint256"
				},
				{
					"internalType": "bytes",
					"name": "data",
					"type": "bytes"
				}
			],
			"name": "safeTransferFrom",
			"outputs": [],
			"stateMutability": "nonpayable",
			"type": "function"
		},
		{
			"inputs": [
				{
					"internalType": "address",
					"name": "operator",
					"type": "address"
				},
				{
					"internalType": "bool",
					"name": "approved",
					"type": "bool"
				}
			],
			"name": "setApprovalForAll",
			"outputs": [],
			"stateMutability": "nonpayable",
			"type": "function"
		},
		{
			"inputs": [
				{
					"internalType": "address",
					"name": "minterAddress_",
					"type": "address"
				}
			],
			"name": "setMinterAddress",
			"outputs": [],
			"stateMutability": "nonpayable",
			"type": "function"
		},
		{
			"inputs": [
				{
					"internalType": "address",
					"name": "questFactory_",
					"type": "address"
				}
			],
			"name": "setQuestFactory",
			"outputs": [],
			"stateMutability": "nonpayable",
			"type": "function"
		},
		{
			"inputs": [
				{
					"internalType": "address",
					"name": "receiptRenderer_",
					"type": "address"
				}
			],
			"name": "setReceiptRenderer",
			"outputs": [],
			"stateMutability": "nonpayable",
			"type": "function"
		},
		{
			"inputs": [
				{
					"internalType": "uint256",
					"name": "royaltyFee_",
					"type": "uint256"
				}
			],
			"name": "setRoyaltyFee",
			"outputs": [],
			"stateMutability": "nonpayable",
			"type": "function"
		},
		{
			"inputs": [
				{
					"internalType": "address",
					"name": "royaltyRecipient_",
					"type": "address"
				}
			],
			"name": "setRoyaltyRecipient",
			"outputs": [],
			"stateMutability": "nonpayable",
			"type": "function"
		},
		{
			"inputs": [
				{
					"internalType": "bytes4",
					"name": "interfaceId_",
					"type": "bytes4"
				}
			],
			"name": "supportsInterface",
			"outputs": [
				{
					"internalType": "bool",
					"name": "",
					"type": "bool"
				}
			],
			"stateMutability": "view",
			"type": "function"
		},
		{
			"inputs": [],
			"name": "symbol",
			"outputs": [
				{
					"internalType": "string",
					"name": "",
					"type": "string"
				}
			],
			"stateMutability": "view",
			"type": "function"
		},
		{
			"inputs": [
				{
					"internalType": "uint256",
					"name": "",
					"type": "uint256"
				}
			],
			"name": "timestampForTokenId",
			"outputs": [
				{
					"internalType": "uint256",
					"name": "",
					"type": "uint256"
				}
			],
			"stateMutability": "view",
			"type": "function"
		},
		{
			"inputs": [
				{
					"internalType": "uint256",
					"name": "index",
					"type": "uint256"
				}
			],
			"name": "tokenByIndex",
			"outputs": [
				{
					"internalType": "uint256",
					"name": "",
					"type": "uint256"
				}
			],
			"stateMutability": "view",
			"type": "function"
		},
		{
			"inputs": [
				{
					"internalType": "address",
					"name": "owner",
					"type": "address"
				},
				{
					"internalType": "uint256",
					"name": "index",
					"type": "uint256"
				}
			],
			"name": "tokenOfOwnerByIndex",
			"outputs": [
				{
					"internalType": "uint256",
					"name": "",
					"type": "uint256"
				}
			],
			"stateMutability": "view",
			"type": "function"
		},
		{
			"inputs": [
				{
					"internalType": "uint256",
					"name": "tokenId_",
					"type": "uint256"
				}
			],
			"name": "tokenURI",
			"outputs": [
				{
					"internalType": "string",
					"name": "",
					"type": "string"
				}
			],
			"stateMutability": "view",
			"type": "function"
		},
		{
			"inputs": [],
			"name": "totalSupply",
			"outputs": [
				{
					"internalType": "uint256",
					"name": "",
					"type": "uint256"
				}
			],
			"stateMutability": "view",
			"type": "function"
		},
		{
			"inputs": [
				{
					"internalType": "address",
					"name": "from",
					"type": "address"
				},
				{
					"internalType": "address",
					"name": "to",
					"type": "address"
				},
				{
					"internalType": "uint256",
					"name": "tokenId",
					"type": "uint256"
				}
			],
			"name": "transferFrom",
			"outputs": [],
			"stateMutability": "nonpayable",
			"type": "function"
		},
		{
			"inputs": [
				{
					"internalType": "address",
					"name": "newOwner",
					"type": "address"
				}
			],
			"name": "transferOwnership",
			"outputs": [],
			"stateMutability": "nonpayable",
			"type": "function"
		}
	],
	"transactionHash": "0x145a7b9ed25cfd678966574aba8e1394d55354671ddf965b265bd4e5e48e9ae8",
	"solcInputHash": "d3be8d60b40734148e5937d6b7b890ef",
	"numDeployments": 1,
	"args": [],
	"bytecode": "0x608060405234801561001057600080fd5b50612c7a806100206000396000f3fe608060405234801561001057600080fd5b50600436106102415760003560e01c80634c00de8211610145578063a3106b95116100bd578063b8d1ebfd1161008c578063d0def52111610071578063d0def521146104ec578063e985e9c5146104ff578063f2fde38b1461053b57600080fd5b8063b8d1ebfd146104b9578063c87b56dd146104d957600080fd5b8063a3106b9514610475578063a7866a8314610488578063b88d4fde1461049c578063b8997a97146104af57600080fd5b8063715018a6116101145780638da5cb5b116100f95780638da5cb5b1461044957806395d89b411461045a578063a22cb4651461046257600080fd5b8063715018a61461042d57806377293cc31461043557600080fd5b80634c00de82146103e05780634f6ccce7146103f45780636352211e1461040757806370a082311461041a57600080fd5b806327125e2f116101d857806334d722c9116101a75780633e4086e51161018c5780633e4086e5146103a757806341e42f30146103ba57806342842e0e146103cd57600080fd5b806334d722c9146103805780633c3091a11461039457600080fd5b806327125e2f1461030757806328cf16351461031a5780632a55205a1461033b5780632f745c591461036d57600080fd5b8063095ea7b311610214578063095ea7b3146102c457806318160ddd146102d95780631c9fd0c3146102e157806323b872dd146102f457600080fd5b8063010a38f51461024657806301ffc9a71461026157806306fdde0314610284578063081812fc14610299575b600080fd5b61024e61054e565b6040519081526020015b60405180910390f35b61027461026f366004612370565b61055f565b6040519015158152602001610258565b61028c6105bb565b60405161025891906123e4565b6102ac6102a73660046123f7565b61064d565b6040516001600160a01b039091168152602001610258565b6102d76102d2366004612425565b610674565b005b60995461024e565b6102d76102ef366004612451565b6107aa565b6102d761030236600461246e565b6107e2565b61028c6103153660046123f7565b610869565b61024e6103283660046123f7565b6101326020526000908152604090205481565b61034e6103493660046124af565b610904565b604080516001600160a01b039093168352602083019190915201610258565b61024e61037b366004612425565b6109a0565b610130546102ac906001600160a01b031681565b6102d76103a2366004612451565b610a48565b6102d76103b53660046123f7565b610a80565b6102d76103c8366004612451565b610abc565b6102d76103db36600461246e565b610af4565b61012f546102ac906001600160a01b031681565b61024e6104023660046123f7565b610b0f565b6102ac6104153660046123f7565b610bb3565b61024e610428366004612451565b610c18565b6102d7610cb2565b610133546102ac906001600160a01b031681565b60fb546001600160a01b03166102ac565b61028c610cc6565b6102d76104703660046124df565b610cd5565b6102d7610483366004612451565b610ce4565b610134546102ac906001600160a01b031681565b6102d76104aa3660046125de565b610d44565b61024e6101315481565b6104cc6104c736600461267e565b610dd2565b60405161025891906126c5565b61028c6104e73660046123f7565b610f94565b6102d76104fa366004612709565b6113a5565b61027461050d366004612759565b6001600160a01b039182166000908152606a6020908152604080832093909416825291909152205460ff1690565b6102d7610549366004612451565b611454565b600061055a61012d5490565b905090565b60007fffffffff0000000000000000000000000000000000000000000000000000000082167f2a55205a0000000000000000000000000000000000000000000000000000000014806105b557506105b5826114e4565b92915050565b6060606580546105ca90612787565b80601f01602080910402602001604051908101604052809291908181526020018280546105f690612787565b80156106435780601f1061061857610100808354040283529160200191610643565b820191906000526020600020905b81548152906001019060200180831161062657829003601f168201915b5050505050905090565b60006106588261153a565b506000908152606960205260409020546001600160a01b031690565b600061067f82610bb3565b9050806001600160a01b0316836001600160a01b03160361070d5760405162461bcd60e51b815260206004820152602160248201527f4552433732313a20617070726f76616c20746f2063757272656e74206f776e6560448201527f720000000000000000000000000000000000000000000000000000000000000060648201526084015b60405180910390fd5b336001600160a01b03821614806107295750610729813361050d565b61079b5760405162461bcd60e51b815260206004820152603d60248201527f4552433732313a20617070726f76652063616c6c6572206973206e6f7420746f60448201527f6b656e206f776e6572206f7220617070726f76656420666f7220616c6c0000006064820152608401610704565b6107a5838361159e565b505050565b6107b2611619565b610134805473ffffffffffffffffffffffffffffffffffffffff19166001600160a01b0392909216919091179055565b6107ec3382611673565b61085e5760405162461bcd60e51b815260206004820152602d60248201527f4552433732313a2063616c6c6572206973206e6f7420746f6b656e206f776e6560448201527f72206f7220617070726f766564000000000000000000000000000000000000006064820152608401610704565b6107a58383836116f2565b61012e602052600090815260409020805461088390612787565b80601f01602080910402602001604051908101604052809291908181526020018280546108af90612787565b80156108fc5780601f106108d1576101008083540402835291602001916108fc565b820191906000526020600020905b8154815290600101906020018083116108df57829003601f168201915b505050505081565b60008281526067602052604081205481906001600160a01b031661096a5760405162461bcd60e51b815260206004820152601160248201527f4e6f6e6578697374656e7420746f6b656e0000000000000000000000000000006044820152606401610704565b6000612710610131548561097e9190612809565b6109889190612828565b61012f546001600160a01b0316969095509350505050565b60006109ab83610c18565b8210610a1f5760405162461bcd60e51b815260206004820152602b60248201527f455243373231456e756d657261626c653a206f776e657220696e646578206f7560448201527f74206f6620626f756e64730000000000000000000000000000000000000000006064820152608401610704565b506001600160a01b03919091166000908152609760209081526040808320938352929052205490565b610a50611619565b610133805473ffffffffffffffffffffffffffffffffffffffff19166001600160a01b0392909216919091179055565b610a88611619565b61013181905560405181907fc36422dcc77a5c93a5c48743078f8130c9fcc2a0ff893904ee62a3565688117c90600090a250565b610ac4611619565b61012f805473ffffffffffffffffffffffffffffffffffffffff19166001600160a01b0392909216919091179055565b6107a583838360405180602001604052806000815250610d44565b6000610b1a60995490565b8210610b8e5760405162461bcd60e51b815260206004820152602c60248201527f455243373231456e756d657261626c653a20676c6f62616c20696e646578206f60448201527f7574206f6620626f756e647300000000000000000000000000000000000000006064820152608401610704565b60998281548110610ba157610ba1612863565b90600052602060002001549050919050565b6000818152606760205260408120546001600160a01b0316806105b55760405162461bcd60e51b815260206004820152601860248201527f4552433732313a20696e76616c696420746f6b656e20494400000000000000006044820152606401610704565b60006001600160a01b038216610c965760405162461bcd60e51b815260206004820152602960248201527f4552433732313a2061646472657373207a65726f206973206e6f74206120766160448201527f6c6964206f776e657200000000000000000000000000000000000000000000006064820152608401610704565b506001600160a01b031660009081526068602052604090205490565b610cba611619565b610cc46000611935565b565b6060606680546105ca90612787565b610ce0338383611994565b5050565b610cec611619565b610130805473ffffffffffffffffffffffffffffffffffffffff19166001600160a01b0383169081179091556040517f09e32743122b4d02dc06c38a35ee1587a02854644d47574bb35a6ef75a22fa9890600090a250565b610d4e3383611673565b610dc05760405162461bcd60e51b815260206004820152602d60248201527f4552433732313a2063616c6c6572206973206e6f7420746f6b656e206f776e6560448201527f72206f7220617070726f766564000000000000000000000000000000000000006064820152608401610704565b610dcc84848484611a80565b50505050565b60606000610ddf83610c18565b905060008167ffffffffffffffff811115610dfc57610dfc612518565b604051908082528060200260200182016040528015610e25578160200160208202803683370190505b5085516020870120909150600090815b84811015610eb9576000610e4988836109a0565b90508261012e6000838152602001908152602001600020604051610e6d9190612892565b604051809103902003610ea65780858381518110610e8d57610e8d612863565b602090810291909101015283610ea281612926565b9450505b5080610eb181612926565b915050610e35565b5060008267ffffffffffffffff811115610ed557610ed5612518565b604051908082528060200260200182016040528015610efe578160200160208202803683370190505b5090506000805b86811015610f86576000868281518110610f2157610f21612863565b60200260200101511115610f7457858181518110610f4157610f41612863565b6020026020010151838381518110610f5b57610f5b612863565b602090810291909101015281610f7081612926565b9250505b80610f7e81612926565b915050610f05565b509098975050505050505050565b6000818152606760205260409020546060906001600160a01b03166110215760405162461bcd60e51b815260206004820152603160248201527f45524337323155524953746f726167653a2055524920717565727920666f722060448201527f6e6f6e6578697374656e7420746f6b656e0000000000000000000000000000006064820152608401610704565b610134546001600160a01b031661107a5760405162461bcd60e51b815260206004820152601460248201527f5175657374466163746f7279206e6f74207365740000000000000000000000006044820152606401610704565b600082815261012e60205260408120805461109490612787565b80601f01602080910402602001604051908101604052809291908181526020018280546110c090612787565b801561110d5780601f106110e25761010080835404028352916020019161110d565b820191906000526020600020905b8154815290600101906020018083116110f057829003601f168201915b5050610134546040517fec461ac40000000000000000000000000000000000000000000000000000000081529495506000948594506001600160a01b03909116925063ec461ac491506111649086906004016123e4565b606060405180830381865afa158015611181573d6000803e3d6000fd5b505050506040513d601f19601f820116820180604052508101906111a59190612940565b506040517f9e34070f00000000000000000000000000000000000000000000000000000000815260048101889052919350915082906000906001600160a01b03831690639e34070f90602401602060405180830381865afa15801561120e573d6000803e3d6000fd5b505050506040513d601f19601f820116820180604052508101906112329190612977565b90506000826001600160a01b03166309a69f576040518163ffffffff1660e01b8152600401602060405180830381865afa158015611274573d6000803e3d6000fd5b505050506040513d601f19601f820116820180604052508101906112989190612994565b90506000836001600160a01b03166369940d796040518163ffffffff1660e01b8152600401602060405180830381865afa1580156112da573d6000803e3d6000fd5b505050506040513d601f19601f820116820180604052508101906112fe91906129ad565b610133546040517fac1733830000000000000000000000000000000000000000000000000000000081529192506001600160a01b03169063ac17338390611353908c908b908a908990899089906004016129ca565b600060405180830381865afa158015611370573d6000803e3d6000fd5b505050506040513d6000823e601f3d908101601f191682016040526113989190810190612a11565b9998505050505050505050565b610130546001600160a01b031633146114005760405162461bcd60e51b815260206004820152600b60248201527f4f6e6c79206d696e7465720000000000000000000000000000000000000000006044820152606401610704565b61140f61012d80546001019055565b600061141b61012d5490565b600081815261012e602052604090209091506114378382612ad6565b506000818152610132602052604090204290556107a58382611b09565b61145c611619565b6001600160a01b0381166114d85760405162461bcd60e51b815260206004820152602660248201527f4f776e61626c653a206e6577206f776e657220697320746865207a65726f206160448201527f64647265737300000000000000000000000000000000000000000000000000006064820152608401610704565b6114e181611935565b50565b60007fffffffff0000000000000000000000000000000000000000000000000000000082167f780e9d630000000000000000000000000000000000000000000000000000000014806105b557506105b582611b23565b6000818152606760205260409020546001600160a01b03166114e15760405162461bcd60e51b815260206004820152601860248201527f4552433732313a20696e76616c696420746f6b656e20494400000000000000006044820152606401610704565b6000818152606960205260409020805473ffffffffffffffffffffffffffffffffffffffff19166001600160a01b03841690811790915581906115e082610bb3565b6001600160a01b03167f8c5be1e5ebec7d5bd14f71427d1e84f3dd0314c0f7b2291e5b200ac8c7c3b92560405160405180910390a45050565b60fb546001600160a01b03163314610cc45760405162461bcd60e51b815260206004820181905260248201527f4f776e61626c653a2063616c6c6572206973206e6f7420746865206f776e65726044820152606401610704565b60008061167f83610bb3565b9050806001600160a01b0316846001600160a01b031614806116c657506001600160a01b038082166000908152606a602090815260408083209388168352929052205460ff165b806116ea5750836001600160a01b03166116df8461064d565b6001600160a01b0316145b949350505050565b826001600160a01b031661170582610bb3565b6001600160a01b0316146117815760405162461bcd60e51b815260206004820152602560248201527f4552433732313a207472616e736665722066726f6d20696e636f72726563742060448201527f6f776e65720000000000000000000000000000000000000000000000000000006064820152608401610704565b6001600160a01b0382166117fc5760405162461bcd60e51b8152602060048201526024808201527f4552433732313a207472616e7366657220746f20746865207a65726f2061646460448201527f72657373000000000000000000000000000000000000000000000000000000006064820152608401610704565b6118098383836001611c06565b826001600160a01b031661181c82610bb3565b6001600160a01b0316146118985760405162461bcd60e51b815260206004820152602560248201527f4552433732313a207472616e736665722066726f6d20696e636f72726563742060448201527f6f776e65720000000000000000000000000000000000000000000000000000006064820152608401610704565b6000818152606960209081526040808320805473ffffffffffffffffffffffffffffffffffffffff199081169091556001600160a01b0387811680865260688552838620805460001901905590871680865283862080546001019055868652606790945282852080549092168417909155905184937fddf252ad1be2c89b69c2b068fc378daa952ba7f163c4a11628f55a4df523b3ef91a4505050565b60fb80546001600160a01b0383811673ffffffffffffffffffffffffffffffffffffffff19831681179093556040519116919082907f8be0079c531659141344cd1fd0a4f28419497f9722a3daafe3b4186f6b6457e090600090a35050565b816001600160a01b0316836001600160a01b0316036119f55760405162461bcd60e51b815260206004820152601960248201527f4552433732313a20617070726f766520746f2063616c6c6572000000000000006044820152606401610704565b6001600160a01b038381166000818152606a602090815260408083209487168084529482529182902080547fffffffffffffffffffffffffffffffffffffffffffffffffffffffffffffff001686151590811790915591519182527f17307eab39ab6107e8899845ad3d59bd9653f200f220920489ca2b5937696c31910160405180910390a3505050565b611a8b8484846116f2565b611a9784848484611c12565b610dcc5760405162461bcd60e51b815260206004820152603260248201527f4552433732313a207472616e7366657220746f206e6f6e20455243373231526560448201527f63656976657220696d706c656d656e74657200000000000000000000000000006064820152608401610704565b610ce0828260405180602001604052806000815250611db3565b60007fffffffff0000000000000000000000000000000000000000000000000000000082167f80ac58cd000000000000000000000000000000000000000000000000000000001480611bb657507fffffffff0000000000000000000000000000000000000000000000000000000082167f5b5e139f00000000000000000000000000000000000000000000000000000000145b806105b557507f01ffc9a7000000000000000000000000000000000000000000000000000000007fffffffff000000000000000000000000000000000000000000000000000000008316146105b5565b610dcc84848484611e3c565b60006001600160a01b0384163b15611da8576040517f150b7a020000000000000000000000000000000000000000000000000000000081526001600160a01b0385169063150b7a0290611c6f903390899088908890600401612b96565b6020604051808303816000875af1925050508015611caa575060408051601f3d908101601f19168201909252611ca791810190612bd2565b60015b611d5d573d808015611cd8576040519150601f19603f3d011682016040523d82523d6000602084013e611cdd565b606091505b508051600003611d555760405162461bcd60e51b815260206004820152603260248201527f4552433732313a207472616e7366657220746f206e6f6e20455243373231526560448201527f63656976657220696d706c656d656e74657200000000000000000000000000006064820152608401610704565b805181602001fd5b7fffffffff00000000000000000000000000000000000000000000000000000000167f150b7a02000000000000000000000000000000000000000000000000000000001490506116ea565b506001949350505050565b611dbd8383611f84565b611dca6000848484611c12565b6107a55760405162461bcd60e51b815260206004820152603260248201527f4552433732313a207472616e7366657220746f206e6f6e20455243373231526560448201527f63656976657220696d706c656d656e74657200000000000000000000000000006064820152608401610704565b611e488484848461212a565b6001811115611ebf5760405162461bcd60e51b815260206004820152603560248201527f455243373231456e756d657261626c653a20636f6e736563757469766520747260448201527f616e7366657273206e6f7420737570706f7274656400000000000000000000006064820152608401610704565b816001600160a01b038516611f1b57611f1681609980546000838152609a60205260408120829055600182018355919091527f72a152ddfb8e864297c917af52ea6c1c68aead0fee1a62673fcc7e0c94979d000155565b611f3e565b836001600160a01b0316856001600160a01b031614611f3e57611f3e85826121b2565b6001600160a01b038416611f5a57611f558161224f565b611f7d565b846001600160a01b0316846001600160a01b031614611f7d57611f7d84826122fe565b5050505050565b6001600160a01b038216611fda5760405162461bcd60e51b815260206004820181905260248201527f4552433732313a206d696e7420746f20746865207a65726f20616464726573736044820152606401610704565b6000818152606760205260409020546001600160a01b03161561203f5760405162461bcd60e51b815260206004820152601c60248201527f4552433732313a20746f6b656e20616c7265616479206d696e746564000000006044820152606401610704565b61204d600083836001611c06565b6000818152606760205260409020546001600160a01b0316156120b25760405162461bcd60e51b815260206004820152601c60248201527f4552433732313a20746f6b656e20616c7265616479206d696e746564000000006044820152606401610704565b6001600160a01b0382166000818152606860209081526040808320805460010190558483526067909152808220805473ffffffffffffffffffffffffffffffffffffffff19168417905551839291907fddf252ad1be2c89b69c2b068fc378daa952ba7f163c4a11628f55a4df523b3ef908290a45050565b6001811115610dcc576001600160a01b03841615612170576001600160a01b0384166000908152606860205260408120805483929061216a908490612bef565b90915550505b6001600160a01b03831615610dcc576001600160a01b038316600090815260686020526040812080548392906121a7908490612c02565b909155505050505050565b600060016121bf84610c18565b6121c99190612bef565b60008381526098602052604090205490915080821461221c576001600160a01b03841660009081526097602090815260408083208584528252808320548484528184208190558352609890915290208190555b5060009182526098602090815260408084208490556001600160a01b039094168352609781528383209183525290812055565b60995460009061226190600190612bef565b6000838152609a60205260408120546099805493945090928490811061228957612289612863565b9060005260206000200154905080609983815481106122aa576122aa612863565b6000918252602080832090910192909255828152609a909152604080822084905585825281205560998054806122e2576122e2612c15565b6001900381819060005260206000200160009055905550505050565b600061230983610c18565b6001600160a01b039093166000908152609760209081526040808320868452825280832085905593825260989052919091209190915550565b7fffffffff00000000000000000000000000000000000000000000000000000000811681146114e157600080fd5b60006020828403121561238257600080fd5b813561238d81612342565b9392505050565b60005b838110156123af578181015183820152602001612397565b50506000910152565b600081518084526123d0816020860160208601612394565b601f01601f19169290920160200192915050565b60208152600061238d60208301846123b8565b60006020828403121561240957600080fd5b5035919050565b6001600160a01b03811681146114e157600080fd5b6000806040838503121561243857600080fd5b823561244381612410565b946020939093013593505050565b60006020828403121561246357600080fd5b813561238d81612410565b60008060006060848603121561248357600080fd5b833561248e81612410565b9250602084013561249e81612410565b929592945050506040919091013590565b600080604083850312156124c257600080fd5b50508035926020909101359150565b80151581146114e157600080fd5b600080604083850312156124f257600080fd5b82356124fd81612410565b9150602083013561250d816124d1565b809150509250929050565b7f4e487b7100000000000000000000000000000000000000000000000000000000600052604160045260246000fd5b604051601f8201601f1916810167ffffffffffffffff8111828210171561257057612570612518565b604052919050565b600067ffffffffffffffff82111561259257612592612518565b50601f01601f191660200190565b60006125b36125ae84612578565b612547565b90508281528383830111156125c757600080fd5b828260208301376000602084830101529392505050565b600080600080608085870312156125f457600080fd5b84356125ff81612410565b9350602085013561260f81612410565b925060408501359150606085013567ffffffffffffffff81111561263257600080fd5b8501601f8101871361264357600080fd5b612652878235602084016125a0565b91505092959194509250565b600082601f83011261266f57600080fd5b61238d838335602085016125a0565b6000806040838503121561269157600080fd5b823567ffffffffffffffff8111156126a857600080fd5b6126b48582860161265e565b925050602083013561250d81612410565b6020808252825182820181905260009190848201906040850190845b818110156126fd578351835292840192918401916001016126e1565b50909695505050505050565b6000806040838503121561271c57600080fd5b823561272781612410565b9150602083013567ffffffffffffffff81111561274357600080fd5b61274f8582860161265e565b9150509250929050565b6000806040838503121561276c57600080fd5b823561277781612410565b9150602083013561250d81612410565b600181811c9082168061279b57607f821691505b6020821081036127d4577f4e487b7100000000000000000000000000000000000000000000000000000000600052602260045260246000fd5b50919050565b7f4e487b7100000000000000000000000000000000000000000000000000000000600052601160045260246000fd5b6000816000190483118215151615612823576128236127da565b500290565b60008261285e577f4e487b7100000000000000000000000000000000000000000000000000000000600052601260045260246000fd5b500490565b7f4e487b7100000000000000000000000000000000000000000000000000000000600052603260045260246000fd5b60008083546128a081612787565b600182811680156128b857600181146128eb5761291a565b7fffffffffffffffffffffffffffffffffffffffffffffffffffffffffffffff008416875282151583028701945061291a565b8760005260208060002060005b858110156129115781548a8201529084019082016128f8565b50505082870194505b50929695505050505050565b60006000198203612939576129396127da565b5060010190565b60008060006060848603121561295557600080fd5b835161296081612410565b602085015160409095015190969495509392505050565b60006020828403121561298957600080fd5b815161238d816124d1565b6000602082840312156129a657600080fd5b5051919050565b6000602082840312156129bf57600080fd5b815161238d81612410565b86815260c0602082015260006129e360c08301886123b8565b604083019690965250921515606084015260808301919091526001600160a01b031660a09091015292915050565b600060208284031215612a2357600080fd5b815167ffffffffffffffff811115612a3a57600080fd5b8201601f81018413612a4b57600080fd5b8051612a596125ae82612578565b818152856020838501011115612a6e57600080fd5b612a7f826020830160208601612394565b95945050505050565b601f8211156107a557600081815260208120601f850160051c81016020861015612aaf5750805b601f850160051c820191505b81811015612ace57828155600101612abb565b505050505050565b815167ffffffffffffffff811115612af057612af0612518565b612b0481612afe8454612787565b84612a88565b602080601f831160018114612b395760008415612b215750858301515b600019600386901b1c1916600185901b178555612ace565b600085815260208120601f198616915b82811015612b6857888601518255948401946001909101908401612b49565b5085821015612b865787850151600019600388901b60f8161c191681555b5050505050600190811b01905550565b60006001600160a01b03808716835280861660208401525083604083015260806060830152612bc860808301846123b8565b9695505050505050565b600060208284031215612be457600080fd5b815161238d81612342565b818103818111156105b5576105b56127da565b808201808211156105b5576105b56127da565b7f4e487b7100000000000000000000000000000000000000000000000000000000600052603160045260246000fdfea2646970667358221220885bb1f9ebb1d81ea5d8e1ad6b9bddea0ff5440cdd655a5c3f1f0d37218c573164736f6c63430008100033",
	"deployedBytecode": "0x60806040526004361061004e5760003560e01c80633659cfe6146100655780634f1ef286146100855780635c60da1b146100ae5780638f283970146100db578063f851a440146100fb5761005d565b3661005d5761005b610110565b005b61005b610110565b34801561007157600080fd5b5061005b61008036600461051d565b6101c8565b610098610093366004610538565b61020e565b6040516100a591906105bb565b60405180910390f35b3480156100ba57600080fd5b506100c361033e565b6040516001600160a01b0390911681526020016100a5565b3480156100e757600080fd5b5061005b6100f636600461051d565b6103a9565b34801561010757600080fd5b506100c36103e4565b600061013a7f360894a13ba1a3210667c828492db98dca3e2076cc3735a920a3ca505d382bbc5490565b90506001600160a01b0381166101a55760405162461bcd60e51b815260206004820152602560248201527f50726f78793a20696d706c656d656e746174696f6e206e6f7420696e697469616044820152641b1a5e995960da1b60648201526084015b60405180910390fd5b3660008037600080366000845af43d6000803e806101c2573d6000fd5b503d6000f35b600080516020610621833981519152546001600160a01b0316336001600160a01b031614806101f5575033155b156102065761020381610432565b50565b610203610110565b60606102266000805160206106218339815191525490565b6001600160a01b0316336001600160a01b03161480610243575033155b1561032f5761025184610432565b600080856001600160a01b0316858560405161026e929190610610565b600060405180830381855af49150503d80600081146102a9576040519150601f19603f3d011682016040523d82523d6000602084013e6102ae565b606091505b5091509150816103265760405162461bcd60e51b815260206004820152603960248201527f50726f78793a2064656c656761746563616c6c20746f206e657720696d706c6560448201527f6d656e746174696f6e20636f6e7472616374206661696c656400000000000000606482015260840161019c565b91506103379050565b610337610110565b9392505050565b60006103566000805160206106218339815191525490565b6001600160a01b0316336001600160a01b03161480610373575033155b1561039e57507f360894a13ba1a3210667c828492db98dca3e2076cc3735a920a3ca505d382bbc5490565b6103a6610110565b90565b600080516020610621833981519152546001600160a01b0316336001600160a01b031614806103d6575033155b15610206576102038161048d565b60006103fc6000805160206106218339815191525490565b6001600160a01b0316336001600160a01b03161480610419575033155b1561039e57506000805160206106218339815191525490565b7f360894a13ba1a3210667c828492db98dca3e2076cc3735a920a3ca505d382bbc8190556040516001600160a01b038216907fbc7cd75a20ee27fd9adebab32041f755214dbc6bffa90cc0225b39da2e5c2d3b90600090a250565b60006104a56000805160206106218339815191525490565b600080516020610621833981519152839055604080516001600160a01b038084168252851660208201529192507f7e644d79422f17c01e4894b5f4f588d331ebfa28653d42ae832dc59e38c9798f910160405180910390a15050565b80356001600160a01b038116811461051857600080fd5b919050565b60006020828403121561052f57600080fd5b61033782610501565b60008060006040848603121561054d57600080fd5b61055684610501565b9250602084013567ffffffffffffffff8082111561057357600080fd5b818601915086601f83011261058757600080fd5b81358181111561059657600080fd5b8760208285010111156105a857600080fd5b6020830194508093505050509250925092565b600060208083528351808285015260005b818110156105e8578581018301518582016040015282016105cc565b818111156105fa576000604083870101525b50601f01601f1916929092016040019392505050565b818382376000910190815291905056feb53127684a568b3173ae13b9f8a6016e243e63b6e8ee1178d6a717850b5d6103a26469706673582212202bd1f0b5e6fde550b88238730ef8a1aca50c563a9964646d6babc0ad93dbcf3b64736f6c634300080f0033",
	"devdoc": {
		"kind": "dev",
		"methods": {
			"approve(address,uint256)": {
				"details": "See {IERC721-approve}."
			},
			"balanceOf(address)": {
				"details": "See {IERC721-balanceOf}."
			},
			"getApproved(uint256)": {
				"details": "See {IERC721-getApproved}."
			},
			"getOwnedTokenIdsOfQuest(string,address)": {
				"details": "get the token ids for a quest owned by an address",
				"params": {
					"claimingAddress_": "the address claiming to own the tokens",
					"questId_": "the quest id"
				}
			},
			"getTokenId()": {
				"details": "get the current token id"
			},
			"isApprovedForAll(address,address)": {
				"details": "See {IERC721-isApprovedForAll}."
			},
			"mint(address,string)": {
				"details": "mint a receipt",
				"params": {
					"questId_": "the quest id",
					"to_": "the address to mint to"
				}
			},
			"name()": {
				"details": "See {IERC721Metadata-name}."
			},
			"owner()": {
				"details": "Returns the address of the current owner."
			},
			"ownerOf(uint256)": {
				"details": "See {IERC721-ownerOf}."
			},
			"renounceOwnership()": {
				"details": "Leaves the contract without owner. It will not be possible to call `onlyOwner` functions anymore. Can only be called by the current owner. NOTE: Renouncing ownership will leave the contract without an owner, thereby removing any functionality that is only available to the owner."
			},
			"royaltyInfo(uint256,uint256)": {
				"details": "See {IERC165-royaltyInfo}",
				"params": {
					"salePrice_": "the sale price",
					"tokenId_": "the token id"
				}
			},
			"safeTransferFrom(address,address,uint256)": {
				"details": "See {IERC721-safeTransferFrom}."
			},
			"safeTransferFrom(address,address,uint256,bytes)": {
				"details": "See {IERC721-safeTransferFrom}."
			},
			"setApprovalForAll(address,bool)": {
				"details": "See {IERC721-setApprovalForAll}."
			},
			"setMinterAddress(address)": {
				"details": "set the minter address",
				"params": {
					"minterAddress_": "the address of the minter"
				}
			},
			"setQuestFactory(address)": {
				"details": "set the quest factory contract",
				"params": {
					"questFactory_": "the address of the quest factory contract"
				}
			},
			"setReceiptRenderer(address)": {
				"details": "set the receipt renderer contract",
				"params": {
					"receiptRenderer_": "the address of the receipt renderer contract"
				}
			},
			"setRoyaltyFee(uint256)": {
				"details": "set the royalty fee",
				"params": {
					"royaltyFee_": "the royalty fee"
				}
			},
			"setRoyaltyRecipient(address)": {
				"details": "set the royalty recipient",
				"params": {
					"royaltyRecipient_": "the address of the royalty recipient"
				}
			},
			"supportsInterface(bytes4)": {
				"details": "returns true if the supplied interface id is supported",
				"params": {
					"interfaceId_": "the interface id"
				}
			},
			"symbol()": {
				"details": "See {IERC721Metadata-symbol}."
			},
			"tokenByIndex(uint256)": {
				"details": "See {IERC721Enumerable-tokenByIndex}."
			},
			"tokenOfOwnerByIndex(address,uint256)": {
				"details": "See {IERC721Enumerable-tokenOfOwnerByIndex}."
			},
			"tokenURI(uint256)": {
				"details": "return the token uri, this delegates to the receipt renderer contract"
			},
			"totalSupply()": {
				"details": "See {IERC721Enumerable-totalSupply}."
			},
			"transferFrom(address,address,uint256)": {
				"details": "See {IERC721-transferFrom}."
			},
			"transferOwnership(address)": {
				"details": "Transfers ownership of the contract to a new account (`newOwner`). Can only be called by the current owner."
			}
		},
		"version": 1
	},
	"userdoc": {
		"kind": "user",
		"methods": {},
		"version": 1
	},
	"storageLayout": {
		"storage": [
			{
				"astId": 566,
				"contract": "contracts/RabbitHoleReceipt.sol:RabbitHoleReceipt",
				"label": "_initialized",
				"offset": 0,
				"slot": "0",
				"type": "t_uint8"
			},
			{
				"astId": 569,
				"contract": "contracts/RabbitHoleReceipt.sol:RabbitHoleReceipt",
				"label": "_initializing",
				"offset": 1,
				"slot": "0",
				"type": "t_bool"
			},
			{
				"astId": 4373,
				"contract": "contracts/RabbitHoleReceipt.sol:RabbitHoleReceipt",
				"label": "__gap",
				"offset": 0,
				"slot": "1",
				"type": "t_array(t_uint256)50_storage"
			},
			{
				"astId": 5027,
				"contract": "contracts/RabbitHoleReceipt.sol:RabbitHoleReceipt",
				"label": "__gap",
				"offset": 0,
				"slot": "51",
				"type": "t_array(t_uint256)50_storage"
			},
			{
				"astId": 2396,
				"contract": "contracts/RabbitHoleReceipt.sol:RabbitHoleReceipt",
				"label": "_name",
				"offset": 0,
				"slot": "101",
				"type": "t_string_storage"
			},
			{
				"astId": 2398,
				"contract": "contracts/RabbitHoleReceipt.sol:RabbitHoleReceipt",
				"label": "_symbol",
				"offset": 0,
				"slot": "102",
				"type": "t_string_storage"
			},
			{
				"astId": 2402,
				"contract": "contracts/RabbitHoleReceipt.sol:RabbitHoleReceipt",
				"label": "_owners",
				"offset": 0,
				"slot": "103",
				"type": "t_mapping(t_uint256,t_address)"
			},
			{
				"astId": 2406,
				"contract": "contracts/RabbitHoleReceipt.sol:RabbitHoleReceipt",
				"label": "_balances",
				"offset": 0,
				"slot": "104",
				"type": "t_mapping(t_address,t_uint256)"
			},
			{
				"astId": 2410,
				"contract": "contracts/RabbitHoleReceipt.sol:RabbitHoleReceipt",
				"label": "_tokenApprovals",
				"offset": 0,
				"slot": "105",
				"type": "t_mapping(t_uint256,t_address)"
			},
			{
				"astId": 2416,
				"contract": "contracts/RabbitHoleReceipt.sol:RabbitHoleReceipt",
				"label": "_operatorApprovals",
				"offset": 0,
				"slot": "106",
				"type": "t_mapping(t_address,t_mapping(t_address,t_bool))"
			},
			{
				"astId": 3336,
				"contract": "contracts/RabbitHoleReceipt.sol:RabbitHoleReceipt",
				"label": "__gap",
				"offset": 0,
				"slot": "107",
				"type": "t_array(t_uint256)44_storage"
			},
			{
				"astId": 3501,
				"contract": "contracts/RabbitHoleReceipt.sol:RabbitHoleReceipt",
				"label": "_ownedTokens",
				"offset": 0,
				"slot": "151",
				"type": "t_mapping(t_address,t_mapping(t_uint256,t_uint256))"
			},
			{
				"astId": 3505,
				"contract": "contracts/RabbitHoleReceipt.sol:RabbitHoleReceipt",
				"label": "_ownedTokensIndex",
				"offset": 0,
				"slot": "152",
				"type": "t_mapping(t_uint256,t_uint256)"
			},
			{
				"astId": 3508,
				"contract": "contracts/RabbitHoleReceipt.sol:RabbitHoleReceipt",
				"label": "_allTokens",
				"offset": 0,
				"slot": "153",
				"type": "t_array(t_uint256)dyn_storage"
			},
			{
				"astId": 3512,
				"contract": "contracts/RabbitHoleReceipt.sol:RabbitHoleReceipt",
				"label": "_allTokensIndex",
				"offset": 0,
				"slot": "154",
				"type": "t_mapping(t_uint256,t_uint256)"
			},
			{
				"astId": 3844,
				"contract": "contracts/RabbitHoleReceipt.sol:RabbitHoleReceipt",
				"label": "__gap",
				"offset": 0,
				"slot": "155",
				"type": "t_array(t_uint256)46_storage"
			},
			{
				"astId": 3873,
				"contract": "contracts/RabbitHoleReceipt.sol:RabbitHoleReceipt",
				"label": "_tokenURIs",
				"offset": 0,
				"slot": "201",
				"type": "t_mapping(t_uint256,t_string_storage)"
			},
			{
				"astId": 3989,
				"contract": "contracts/RabbitHoleReceipt.sol:RabbitHoleReceipt",
				"label": "__gap",
				"offset": 0,
				"slot": "202",
				"type": "t_array(t_uint256)49_storage"
			},
			{
				"astId": 419,
				"contract": "contracts/RabbitHoleReceipt.sol:RabbitHoleReceipt",
				"label": "_owner",
				"offset": 0,
				"slot": "251",
				"type": "t_address"
			},
			{
				"astId": 539,
				"contract": "contracts/RabbitHoleReceipt.sol:RabbitHoleReceipt",
				"label": "__gap",
				"offset": 0,
				"slot": "252",
				"type": "t_array(t_uint256)49_storage"
			},
			{
				"astId": 11928,
				"contract": "contracts/RabbitHoleReceipt.sol:RabbitHoleReceipt",
				"label": "_tokenIds",
				"offset": 0,
				"slot": "301",
				"type": "t_struct(Counter)4380_storage"
			},
			{
				"astId": 11932,
				"contract": "contracts/RabbitHoleReceipt.sol:RabbitHoleReceipt",
				"label": "questIdForTokenId",
				"offset": 0,
				"slot": "302",
				"type": "t_mapping(t_uint256,t_string_storage)"
			},
			{
				"astId": 11934,
				"contract": "contracts/RabbitHoleReceipt.sol:RabbitHoleReceipt",
				"label": "royaltyRecipient",
				"offset": 0,
				"slot": "303",
				"type": "t_address"
			},
			{
				"astId": 11936,
				"contract": "contracts/RabbitHoleReceipt.sol:RabbitHoleReceipt",
				"label": "minterAddress",
				"offset": 0,
				"slot": "304",
				"type": "t_address"
			},
			{
				"astId": 11938,
				"contract": "contracts/RabbitHoleReceipt.sol:RabbitHoleReceipt",
				"label": "royaltyFee",
				"offset": 0,
				"slot": "305",
				"type": "t_uint256"
			},
			{
				"astId": 11942,
				"contract": "contracts/RabbitHoleReceipt.sol:RabbitHoleReceipt",
				"label": "timestampForTokenId",
				"offset": 0,
				"slot": "306",
				"type": "t_mapping(t_uint256,t_uint256)"
			},
			{
				"astId": 11945,
				"contract": "contracts/RabbitHoleReceipt.sol:RabbitHoleReceipt",
				"label": "ReceiptRendererContract",
				"offset": 0,
				"slot": "307",
				"type": "t_contract(ReceiptRenderer)13335"
			},
			{
				"astId": 11948,
				"contract": "contracts/RabbitHoleReceipt.sol:RabbitHoleReceipt",
				"label": "QuestFactoryContract",
				"offset": 0,
				"slot": "308",
				"type": "t_contract(IQuestFactory)13538"
			}
		],
		"types": {
			"t_address": {
				"encoding": "inplace",
				"label": "address",
				"numberOfBytes": "20"
			},
			"t_array(t_uint256)44_storage": {
				"base": "t_uint256",
				"encoding": "inplace",
				"label": "uint256[44]",
				"numberOfBytes": "1408"
			},
			"t_array(t_uint256)46_storage": {
				"base": "t_uint256",
				"encoding": "inplace",
				"label": "uint256[46]",
				"numberOfBytes": "1472"
			},
			"t_array(t_uint256)49_storage": {
				"base": "t_uint256",
				"encoding": "inplace",
				"label": "uint256[49]",
				"numberOfBytes": "1568"
			},
			"t_array(t_uint256)50_storage": {
				"base": "t_uint256",
				"encoding": "inplace",
				"label": "uint256[50]",
				"numberOfBytes": "1600"
			},
			"t_array(t_uint256)dyn_storage": {
				"base": "t_uint256",
				"encoding": "dynamic_array",
				"label": "uint256[]",
				"numberOfBytes": "32"
			},
			"t_bool": {
				"encoding": "inplace",
				"label": "bool",
				"numberOfBytes": "1"
			},
			"t_contract(IQuestFactory)13538": {
				"encoding": "inplace",
				"label": "contract IQuestFactory",
				"numberOfBytes": "20"
			},
			"t_contract(ReceiptRenderer)13335": {
				"encoding": "inplace",
				"label": "contract ReceiptRenderer",
				"numberOfBytes": "20"
			},
			"t_mapping(t_address,t_bool)": {
				"encoding": "mapping",
				"key": "t_address",
				"label": "mapping(address => bool)",
				"numberOfBytes": "32",
				"value": "t_bool"
			},
			"t_mapping(t_address,t_mapping(t_address,t_bool))": {
				"encoding": "mapping",
				"key": "t_address",
				"label": "mapping(address => mapping(address => bool))",
				"numberOfBytes": "32",
				"value": "t_mapping(t_address,t_bool)"
			},
			"t_mapping(t_address,t_mapping(t_uint256,t_uint256))": {
				"encoding": "mapping",
				"key": "t_address",
				"label": "mapping(address => mapping(uint256 => uint256))",
				"numberOfBytes": "32",
				"value": "t_mapping(t_uint256,t_uint256)"
			},
			"t_mapping(t_address,t_uint256)": {
				"encoding": "mapping",
				"key": "t_address",
				"label": "mapping(address => uint256)",
				"numberOfBytes": "32",
				"value": "t_uint256"
			},
			"t_mapping(t_uint256,t_address)": {
				"encoding": "mapping",
				"key": "t_uint256",
				"label": "mapping(uint256 => address)",
				"numberOfBytes": "32",
				"value": "t_address"
			},
			"t_mapping(t_uint256,t_string_storage)": {
				"encoding": "mapping",
				"key": "t_uint256",
				"label": "mapping(uint256 => string)",
				"numberOfBytes": "32",
				"value": "t_string_storage"
			},
			"t_mapping(t_uint256,t_uint256)": {
				"encoding": "mapping",
				"key": "t_uint256",
				"label": "mapping(uint256 => uint256)",
				"numberOfBytes": "32",
				"value": "t_uint256"
			},
			"t_string_storage": {
				"encoding": "bytes",
				"label": "string",
				"numberOfBytes": "32"
			},
			"t_struct(Counter)4380_storage": {
				"encoding": "inplace",
				"label": "struct CountersUpgradeable.Counter",
				"members": [
					{
						"astId": 4379,
						"contract": "contracts/RabbitHoleReceipt.sol:RabbitHoleReceipt",
						"label": "_value",
						"offset": 0,
						"slot": "0",
						"type": "t_uint256"
					}
				],
				"numberOfBytes": "32"
			},
			"t_uint256": {
				"encoding": "inplace",
				"label": "uint256",
				"numberOfBytes": "32"
			},
			"t_uint8": {
				"encoding": "inplace",
				"label": "uint8",
				"numberOfBytes": "1"
			}
		}
	}
}