{
	"contractName": "ReceiptRenderer",
	"address": "0x1E3872c0f73B0bB1CeBb740E256937975E954bc2",
	"abi": [
		{
			"inputs": [
				{
					"internalType": "string",
					"name": "key",
					"type": "string"
				},
				{
					"internalType": "string",
					"name": "value",
					"type": "string"
				}
			],
			"name": "generateAttribute",
			"outputs": [
				{
					"internalType": "string",
					"name": "",
					"type": "string"
				}
			],
			"stateMutability": "pure",
			"type": "function"
		},
		{
			"inputs": [
				{
					"internalType": "uint256",
					"name": "tokenId_",
					"type": "uint256"
				},
				{
					"internalType": "string",
					"name": "questId_",
					"type": "string"
				},
				{
					"internalType": "uint256",
					"name": "totalParticipants_",
					"type": "uint256"
				},
				{
					"internalType": "bool",
					"name": "claimed_",
					"type": "bool"
				},
				{
					"internalType": "uint256",
					"name": "rewardAmount_",
					"type": "uint256"
				},
				{
					"internalType": "address",
					"name": "rewardAddress_",
					"type": "address"
				}
			],
			"name": "generateDataURI",
			"outputs": [
				{
					"internalType": "bytes",
					"name": "",
					"type": "bytes"
				}
			],
			"stateMutability": "view",
			"type": "function"
		},
		{
			"inputs": [
				{
					"internalType": "bool",
					"name": "claimed_",
					"type": "bool"
				},
				{
					"internalType": "string",
					"name": "questId_",
					"type": "string"
				},
				{
					"internalType": "uint256",
					"name": "rewardAmount_",
					"type": "uint256"
				},
				{
					"internalType": "address",
					"name": "rewardAddress_",
					"type": "address"
				}
			],
			"name": "generateSVG",
			"outputs": [
				{
					"internalType": "string",
					"name": "",
					"type": "string"
				}
			],
			"stateMutability": "view",
			"type": "function"
		},
		{
			"inputs": [
				{
					"internalType": "bool",
					"name": "claimed_",
					"type": "bool"
				},
				{
					"internalType": "string",
					"name": "questId_",
					"type": "string"
				},
				{
					"internalType": "uint256",
					"name": "rewardAmount_",
					"type": "uint256"
				},
				{
					"internalType": "address",
					"name": "rewardAddress_",
					"type": "address"
				}
			],
			"name": "generateTextFields",
			"outputs": [
				{
					"internalType": "string",
					"name": "",
					"type": "string"
				}
			],
			"stateMutability": "view",
			"type": "function"
		},
		{
			"inputs": [
				{
					"internalType": "uint256",
					"name": "tokenId_",
					"type": "uint256"
				},
				{
					"internalType": "string",
					"name": "questId_",
					"type": "string"
				},
				{
					"internalType": "uint256",
					"name": "totalParticipants_",
					"type": "uint256"
				},
				{
					"internalType": "bool",
					"name": "claimed_",
					"type": "bool"
				},
				{
					"internalType": "uint256",
					"name": "rewardAmount_",
					"type": "uint256"
				},
				{
					"internalType": "address",
					"name": "rewardAddress_",
					"type": "address"
				}
			],
			"name": "generateTokenURI",
			"outputs": [
				{
					"internalType": "string",
					"name": "",
					"type": "string"
				}
			],
			"stateMutability": "view",
			"type": "function"
		},
		{
			"inputs": [
				{
					"internalType": "uint256",
					"name": "rewardAmount_",
					"type": "uint256"
				},
				{
					"internalType": "address",
					"name": "rewardAddress_",
					"type": "address"
				}
			],
			"name": "humanRewardAmountAndSymbol",
			"outputs": [
				{
					"internalType": "string",
					"name": "",
					"type": "string"
				}
			],
			"stateMutability": "view",
			"type": "function"
		}
	],
	"transactionHash": "0x286e914518e6ae6f91648467115d2c6685ee7c6b1eda90f1ba5263159b040594",
	"solcInputHash": "98406d1eb3523ba0fe5a11cbf41b0cb6",
	"numDeployments": 1,
	"args": [],
	"bytecode": "0x608060405234801561001057600080fd5b506155eb80620000216000396000f3fe608060405234801561001057600080fd5b50600436106100725760003560e01c8063c7cc5b8511610050578063c7cc5b85146100c6578063d6621547146100d9578063f4e03292146100ec57600080fd5b80630e2e17e014610077578063ac173383146100a0578063b6cd0331146100b3575b600080fd5b61008a6100853660046111ca565b6100ff565b604051610097919061128a565b60405180910390f35b61008a6100ae3660046112d6565b610130565b61008a6100c1366004611350565b610179565b61008a6100d43660046112d6565b6102f4565b61008a6100e736600461137c565b610578565b61008a6100fa36600461137c565b610628565b606060008383604051602001610116929190611400565b60408051601f198184030181529190529150505b92915050565b606060006101428888888888886102f4565b905061014d8161068c565b60405160200161015d919061151d565b6040516020818303038152906040529150509695505050505050565b606080600073ffffffffffffffffffffffffffffffffffffffff84166101d657505060408051808201909152600381527f4554480000000000000000000000000000000000000000000000000000000000602082015260126102bd565b8373ffffffffffffffffffffffffffffffffffffffff166395d89b416040518163ffffffff1660e01b8152600401600060405180830381865afa158015610221573d6000803e3d6000fd5b505050506040513d6000823e601f3d908101601f191682016040526102499190810190611562565b91508373ffffffffffffffffffffffffffffffffffffffff1663313ce5676040518163ffffffff1660e01b8152600401602060405180830381865afa158015610296573d6000803e3d6000fd5b505050506040513d601f19601f820116820180604052508101906102ba91906115d9565b90505b6102c9858260006107df565b826040516020016102db9291906115fc565b6040516020818303038152906040529250505092915050565b606060006103376040518060400160405280600881526020017f5175657374204944000000000000000000000000000000000000000000000000815250886100ff565b6103796040518060400160405280600881526020017f546f6b656e2049440000000000000000000000000000000000000000000000008152506100858b6109d9565b6103bb6040518060400160405280601281526020017f546f74616c205061727469636970616e747300000000000000000000000000008152506100858a6109d9565b61046f6040518060400160405280600781526020017f436c61696d65640000000000000000000000000000000000000000000000000081525089610434576040518060400160405280600581526020017f66616c73650000000000000000000000000000000000000000000000000000008152506100ff565b6040518060400160405280600481526020017f74727565000000000000000000000000000000000000000000000000000000008152506100ff565b6104b16040518060400160405280600d81526020017f52657761726420416d6f756e74000000000000000000000000000000000000008152506100858a6109d9565b61050b6040518060400160405280600e81526020017f52657761726420416464726573730000000000000000000000000000000000008152506100858a73ffffffffffffffffffffffffffffffffffffffff166014610a79565b60405160200161052096959493929190611654565b6040516020818303038152906040529050600061053c896109d9565b610548878a8888610628565b8360405160200161055b93929190611787565b60408051808303601f190181529190529998505050505050505050565b60606000856105bc576040518060400160405280600a81526020017f52454445454d41424c45000000000000000000000000000000000000000000008152506105f3565b6040518060400160405280600781526020017f434c41494d4544000000000000000000000000000000000000000000000000008152505b6105fd8585610179565b60405160200161060e92919061192d565b60408051808303601f190181529190529695505050505050565b6060600061063886868686610578565b6040516020016106489190611be6565b60405160208183030381529060405290506106628161068c565b6040516020016106729190615285565b604051602081830303815290604052915050949350505050565b606081516000036106ab57505060408051602081019091526000815290565b600060405180606001604052806040815260200161557660409139905060006003845160026106da91906152f9565b6106e49190615340565b6106ef906004615354565b67ffffffffffffffff811115610707576107076110ec565b6040519080825280601f01601f191660200182016040528015610731576020820181803683370190505b509050600182016020820185865187015b8082101561079d576003820191508151603f8160121c168501518453600184019350603f81600c1c168501518453600184019350603f8160061c168501518453600184019350603f8116850151845350600183019250610742565b50506003865106600181146107b957600281146107cc576107d4565b603d6001830353603d60028303536107d4565b603d60018303535b509195945050505050565b60606000826107ef5760006107f2565b60015b9050600061080185600a615457565b9050856000805b82156108675760ff811615610829578061082181615466565b915050610847565b610834600a84615485565b15610847578061084381615466565b9150505b8161085181615466565b92506108609050600a84615340565b9250610808565b6040805161010081018252600080825260208201819052918101829052606081018290526080810182905260a0810182905260c081019190915287151560e082015260ff89166108b78385615499565b60ff16106108f7576108c9858b615340565b81526108d58984615499565b60ff16604082018190526108ea9087906154bc565b60ff1660208201526109aa565b6109018284615499565b61090c90600a615457565b610916908b615340565b8152898511156109795760026080820152610931838a615499565b61093c9060026154bc565b60ff1660a0820181905261095090836154bc565b60ff16604082018190526109659087906154bc565b60ff166020820152600160c08201526109aa565b6109848260016154bc565b60ff1660408201526109968984615499565b6109a19060016154bc565b60ff1660608201525b8581604001516109ba91906154bc565b60ff1660208201526109cb81610cc7565b9a9950505050505050505050565b606060006109e68361100a565b600101905060008167ffffffffffffffff811115610a0657610a066110ec565b6040519080825280601f01601f191660200182016040528015610a30576020820181803683370190505b5090508181016020015b600019017f3031323334353637383961626364656600000000000000000000000000000000600a86061a8153600a8504945084610a3a57509392505050565b60606000610a88836002615354565b610a939060026152f9565b67ffffffffffffffff811115610aab57610aab6110ec565b6040519080825280601f01601f191660200182016040528015610ad5576020820181803683370190505b5090507f300000000000000000000000000000000000000000000000000000000000000081600081518110610b0c57610b0c6154e1565b60200101907effffffffffffffffffffffffffffffffffffffffffffffffffffffffffffff1916908160001a9053507f780000000000000000000000000000000000000000000000000000000000000081600181518110610b6f57610b6f6154e1565b60200101907effffffffffffffffffffffffffffffffffffffffffffffffffffffffffffff1916908160001a9053506000610bab846002615354565b610bb69060016152f9565b90505b6001811115610c53577f303132333435363738396162636465660000000000000000000000000000000085600f1660108110610bf757610bf76154e1565b1a60f81b828281518110610c0d57610c0d6154e1565b60200101907effffffffffffffffffffffffffffffffffffffffffffffffffffffffffffff1916908160001a90535060049490941c93610c4c81615510565b9050610bb9565b508315610cc0576040517f08c379a000000000000000000000000000000000000000000000000000000000815260206004820181905260248201527f537472696e67733a20686578206c656e67746820696e73756666696369656e74604482015260640160405180910390fd5b9392505050565b60606000826020015160ff1667ffffffffffffffff811115610ceb57610ceb6110ec565b6040519080825280601f01601f191660200182016040528015610d15576020820181803683370190505b5090508260e0015115610d92577f25000000000000000000000000000000000000000000000000000000000000008160018351610d529190615527565b81518110610d6257610d626154e1565b60200101907effffffffffffffffffffffffffffffffffffffffffffffffffffffffffffff1916908160001a9053505b8260c0015115610e63577f300000000000000000000000000000000000000000000000000000000000000081600081518110610dd057610dd06154e1565b60200101907effffffffffffffffffffffffffffffffffffffffffffffffffffffffffffff1916908160001a9053507f2e0000000000000000000000000000000000000000000000000000000000000081600181518110610e3357610e336154e1565b60200101907effffffffffffffffffffffffffffffffffffffffffffffffffffffffffffff1916908160001a9053505b608083015160ff165b8360a0015160ff16811015610ed357603060f81b828281518110610e9257610e926154e1565b60200101907effffffffffffffffffffffffffffffffffffffffffffffffffffffffffffff1916908160001a90535080610ecb8161553e565b915050610e6c565b505b82511561012a576000836060015160ff16118015610f005750826060015160ff16836040015160ff16145b15610f7d577f2e0000000000000000000000000000000000000000000000000000000000000081846040018051610f3690615558565b60ff169081905281518110610f4d57610f4d6154e1565b60200101907effffffffffffffffffffffffffffffffffffffffffffffffffffffffffffff1916908160001a9053505b8251610f8b90600a90615485565b610f969060306152f9565b60f81b81846040018051610fa990615558565b60ff169081905281518110610fc057610fc06154e1565b60200101907effffffffffffffffffffffffffffffffffffffffffffffffffffffffffffff1916908160001a905350600a836000018181516110029190615340565b905250610ed5565b6000807a184f03e93ff9f4daa797ed6e38ed64bf6a1f0100000000000000008310611053577a184f03e93ff9f4daa797ed6e38ed64bf6a1f010000000000000000830492506040015b6d04ee2d6d415b85acef8100000000831061107f576d04ee2d6d415b85acef8100000000830492506020015b662386f26fc10000831061109d57662386f26fc10000830492506010015b6305f5e10083106110b5576305f5e100830492506008015b61271083106110c957612710830492506004015b606483106110db576064830492506002015b600a831061012a5760010192915050565b7f4e487b7100000000000000000000000000000000000000000000000000000000600052604160045260246000fd5b604051601f8201601f1916810167ffffffffffffffff81118282101715611144576111446110ec565b604052919050565b600067ffffffffffffffff821115611166576111666110ec565b50601f01601f191660200190565b600082601f83011261118557600080fd5b81356111986111938261114c565b61111b565b8181528460208386010111156111ad57600080fd5b816020850160208301376000918101602001919091529392505050565b600080604083850312156111dd57600080fd5b823567ffffffffffffffff808211156111f557600080fd5b61120186838701611174565b9350602085013591508082111561121757600080fd5b5061122485828601611174565b9150509250929050565b60005b83811015611249578181015183820152602001611231565b83811115611258576000848401525b50505050565b6000815180845261127681602086016020860161122e565b601f01601f19169290920160200192915050565b602081526000610cc0602083018461125e565b803580151581146112ad57600080fd5b919050565b803573ffffffffffffffffffffffffffffffffffffffff811681146112ad57600080fd5b60008060008060008060c087890312156112ef57600080fd5b86359550602087013567ffffffffffffffff81111561130d57600080fd5b61131989828a01611174565b9550506040870135935061132f6060880161129d565b92506080870135915061134460a088016112b2565b90509295509295509295565b6000806040838503121561136357600080fd5b82359150611373602084016112b2565b90509250929050565b6000806000806080858703121561139257600080fd5b61139b8561129d565b9350602085013567ffffffffffffffff8111156113b757600080fd5b6113c387828801611174565b935050604085013591506113d9606086016112b2565b905092959194509250565b600081516113f681856020860161122e565b9290920192915050565b7f7b0000000000000000000000000000000000000000000000000000000000000081527f2274726169745f74797065223a2022000000000000000000000000000000000060018201526000835161145e81601085016020880161122e565b7f222c0000000000000000000000000000000000000000000000000000000000006010918401918201527f2276616c7565223a202200000000000000000000000000000000000000000000601282015283516114c181601c84016020880161122e565b7f2200000000000000000000000000000000000000000000000000000000000000601c92909101918201527f7d00000000000000000000000000000000000000000000000000000000000000601d820152601e01949350505050565b7f646174613a6170706c69636174696f6e2f6a736f6e3b6261736536342c00000081526000825161155581601d85016020870161122e565b91909101601d0192915050565b60006020828403121561157457600080fd5b815167ffffffffffffffff81111561158b57600080fd5b8201601f8101841361159c57600080fd5b80516115aa6111938261114c565b8181528560208385010111156115bf57600080fd5b6115d082602083016020860161122e565b95945050505050565b6000602082840312156115eb57600080fd5b815160ff81168114610cc057600080fd5b6000835161160e81846020880161122e565b7f2000000000000000000000000000000000000000000000000000000000000000908301908152835161164881600184016020880161122e565b01600101949350505050565b7f5b0000000000000000000000000000000000000000000000000000000000000081526000875161168c816001850160208c0161122e565b80830190507f2c0000000000000000000000000000000000000000000000000000000000000080600183015288516116cb816002850160208d0161122e565b6002920191820181905287516116e8816003850160208c0161122e565b600392019182018190528651611705816004850160208b0161122e565b6004920191820152845161172081600584016020890161122e565b6109cb61175e6117586005848601017f2c00000000000000000000000000000000000000000000000000000000000000815260010190565b876113e4565b7f5d00000000000000000000000000000000000000000000000000000000000000815260010190565b7f7b0000000000000000000000000000000000000000000000000000000000000081527f226e616d65223a2022526162626974486f6c652e6767205265636569707420236001820152600084516117e581602185016020890161122e565b80830190507f222c0000000000000000000000000000000000000000000000000000000000008060218301527f226465736372697074696f6e223a2022526162626974486f6c652e676720526560238301527f63656970747320617265207573656420746f20636c61696d207265776172647360438301527f2066726f6d20636f6d706c65746564207175657374732e222c0000000000000060638301527f22696d616765223a202200000000000000000000000000000000000000000000607c83015285516118bc816086850160208a0161122e565b60869201918201527f2261747472696275746573223a2000000000000000000000000000000000000060888201526119236118fa60968301866113e4565b7f7d00000000000000000000000000000000000000000000000000000000000000815260010190565b9695505050505050565b7f3c672066696c7465723d2275726c282345292220636c6173733d2249223e3c7481527f6578742066696c6c3d22233066306631362220786d6c3a73706163653d22707260208201527f65736572766522207374796c653d2277686974652d73706163653a707265222060408201527f666f6e742d73697a653d2232362220666f6e742d7765696768743d22626f6c6460608201527f22206c65747465722d73706163696e673d22302e3037656d223e3c747370616e60808201527f20793d223735302220783d223332352220636c6173733d224a223e000000000060a082015260008351611a238160bb85016020880161122e565b7f3c2f747370616e3e3c2f746578743e3c2f673e0000000000000000000000000060bb918401918201527f3c672066696c7465723d2275726c282346292220636c6173733d22482049204a60ce8201527f204c223e3c7465787420666f6e742d73697a653d22323622206c65747465722d60ee8201527f73706163696e673d2230656d2220783d223530252220793d22363135223e3c7461010e8201527f7370616e3e526162626974486f6c653c2f747370616e3e3c2f746578743e3c2f61012e8201527f673e00000000000000000000000000000000000000000000000000000000000061014e8201526115d0611bbd611bb761015084017f3c672066696c7465723d2275726c282347292220636c6173733d22482049204a81527f204c223e3c7465787420666f6e742d73697a653d2233392e37353822206c657460208201527f7465722d73706163696e673d22302e3035656d2220783d223530252220793d2260408201527f333635223e000000000000000000000000000000000000000000000000000000606082015260650190565b866113e4565b7f3c2f746578743e3c2f673e0000000000000000000000000000000000000000008152600b0190565b7f3c73766720786d6c6e733d22687474703a2f2f7777772e77332e6f72672f323081527f30302f7376672220786d6c6e733a786c696e6b3d22687474703a2f2f7777772e60208201527f77332e6f72672f313939392f786c696e6b222077696474683d2236343822206860408201527f65696768743d22383839222066696c6c3d226e6f6e65223e000000000000000060608201527f3c7374796c653e3c215b43444154415b2e427b66696c6c2d72756c653a65766560788201527f6e6f64647d2e437b636f6c6f722d696e746572706f6c6174696f6e2d66696c7460988201527f6572733a735247427d2e447b666c6f6f642d6f7061636974793a307d2e457b6660b88201527f696c6c2d6f7061636974793a2e357d2e467b7374726f6b653a2361643836666660d88201527f7d2e477b7374726f6b652d77696474683a327d2e487b66696c6c3a236461653060f88201527f66667d2e497b666f6e742d66616d696c793a417269616c7d2e4a7b746578742d6101188201527f616e63686f723a6d6964646c657d2e4b7b73686170652d72656e646572696e676101388201527f3a637269737045646765737d2e4c7b646f6d696e616e742d626173656c696e656101588201527f3a6d6964646c657d5d5d3e3c2f7374796c653e3c672066696c7465723d2275726101788201527f6c28234229223e3c7061746820643d224d39312e3733312034342e313935632d6101988201527f32352e39353720302d34372032312e3034332d343720343776313134633020326101b88201527f352e3935382032312e303433203437203437203437483232302e3233763338346101d88201527f4839312e373331632d32352e39353720302d34372032312e3034332d343720346101f88201527f377631313463302032352e3935382032312e30343320343720343720343768346102188201527f36356332352e39353820302034372d32312e3034322034372d3437762d3131346102388201527f63302d32352e3935372d32312e3034322d34372d34372d3437682d3132382e356102588201527f762d333834683132382e356332352e39353820302034372d32312e30343220346102788201527f372d3437762d31313463302d32352e3935372d32312e3034322d34372d34372d6102988201527f34374839312e3733317a222066696c6c3d22233066306631362220636c6173736102b88201527f3d2242222f3e3c7061746820643d224d3232302e3733203235322e313935762d6102d88201527f2e35682d2e354839312e373331632d32352e36383120302d34362e352d32302e6102f88201527f3831382d34362e352d34362e35762d31313463302d32352e3638312032302e386103188201527f31392d34362e352034362e352d34362e35683436356332352e363832203020346103388201527f362e352032302e3831392034362e352034362e357631313463302032352e36386103588201527f322d32302e3831382034362e352d34362e352034362e35682d3132382e352d2e6103788201527f35762e3520333834202e35682e35203132382e356332352e36383220302034366103988201527f2e352032302e3831392034362e352034362e357631313463302032352e3638326103b88201527f2d32302e3831382034362e352d34362e352034362e354839312e373331632d326103d88201527f352e36383120302d34362e352d32302e3831382d34362e352d34362e35762d316103f88201527f313463302d32352e3638312032302e3831392d34362e352034362e352d34362e6104188201527f35483232302e3233682e35762d2e352d3338347a22207374726f6b653d2223326104388201527f3332383534222f3e3c2f673e3c6d61736b2069643d2241222066696c6c3d22236104588201527f666666223e3c7061746820643d224d34342e3733312039312e31393563302d326104788201527f352e3935372032312e3034332d34372034372d3437683436356332352e3935386104988201527f20302034372032312e3034332034372034377631313463302032312e3434382d6104b88201527f31342e3336352033392e35342d33342034352e313739763338372e36343263316104d88201527f392e36333520352e36342033342032332e3733322033342034352e31373976316104f88201527f313463302032352e3935382d32312e3034322034372d34372034374839312e376105188201527f3331632d32352e39353720302d34372d32312e3034322d34372d3437762d31316105388201527f3463302d32312e38312031342e3835362d34302e31352033352d34352e3435346105588201527f563235302e3635632d32302e3134352d352e3330342d33352d32332e3634352d6105788201527f33352d34352e343535762d3131347a2220636c6173733d2242222f3e3c2f6d616105988201527f736b3e3c7061746820643d224d3536392e3733203235302e3337346c2d2e32376105b88201527f362d2e3936312d2e3732342e323038762e37353368317a6d30203338372e36346105d88201527f32682d31762e3735346c2e3732342e3230372e3237362d2e3936317a6d2d34386105f88201527f392e3939392d2e3237356c2e3235352e3936372e3734352d2e313936762d2e376106188201527f3731682d317a6d302d3338372e3039316831762d2e3737316c2d2e3734352d2e6106388201527f3139372d2e3235352e3936387a6d31322d3230372e343535632d32362e3531206106588201527f302d34382032312e34392d3438203438683263302d32352e3430352032302e356106788201527f39352d34362034362d3436762d327a6d34363520304839312e373331763268346106988201527f3635762d327a6d343820343863302d32362e35312d32312e34392d34382d34386106b88201527f2d343876326332352e34303620302034362032302e35393520343620343668326106d88201527f7a6d3020313134762d313134682d327631313468327a6d2d33342e37323320346106f88201527f362e31346332302e3035312d352e3735392033342e3732332d32342e323334206107188201527f33342e3732332d34362e3134682d3263302032302e39392d31342e30353920336107388201527f382e3639392d33332e3237362034342e3231386c2e35353320312e3932327a6d6107588201527f2e373233203338362e363831563235302e333734682d32763338372e363432686107788201527f327a6d33342034352e31373963302d32312e3930352d31342e3637322d34302e6107988201527f3338312d33342e3732332d34362e31346c2d2e35353320312e3932326331392e6107b88201527f32313720352e35322033332e3237362032332e3232392033332e3237362034346107d88201527f2e32313868327a6d3020313134762d313134682d327631313468327a6d2d34386107f88201527f2034386332362e353120302034382d32312e34392034382d3438682d326330206108188201527f32352e3430352d32302e3539342034362d343620343676327a6d2d3436342e396108388201527f3939203068343635762d324839312e37333176327a6d2d34382d3438633020326108588201527f362e35312032312e3439203438203438203438762d32632d32352e34303520306108788201527f2d34362d32302e3539352d34362d3436682d327a6d302d3131347631313468326108988201527f762d313134682d327a6d33352e3734352d34362e343231632d32302e353733206108b88201527f352e3431372d33352e3734352032342e3134362d33352e3734352034362e34326108d88201527f31683263302d32312e3334342031342e3533392d33392e3239362033342e32356108f88201527f352d34342e3438376c2d2e3530392d312e3933347a6d2d2e3734352d3338362e6109188201527f313234763338372e3039316832563235302e3635682d327a6d2d33352d34352e6109388201527f34353563302032322e3237362031352e3137332034312e3030352033352e37346109588201527f352034362e3432326c2e3530392d312e393335632d31392e3731362d352e31396109788201527f312d33342e3235352d32332e3134322d33342e3235352d34342e343837682d326109988201527f7a6d302d313134763131346832762d313134682d327a222066696c6c3d2223326109b88201527f333238353422206d61736b3d2275726c28234129222f3e3c672066696c7465726109d88201527f3d2275726c282343292220636c6173733d2242204b223e3c75736520786c696e6109f88201527f6b3a687265663d22234d222066696c6c3d2223303030222066696c6c2d6f7061610a188201527f636974793d222e3031222f3e3c2f673e3c75736520786c696e6b3a687265663d610a388201527f22234d222066696c6c3d2223306330623066222066696c6c2d6f706163697479610a588201527f3d222e32362220636c6173733d2242222f3e3c67207374796c653d226d69782d610a788201527f626c656e642d6d6f64653a636f6c6f722d646f646765222066696c7465723d22610a988201527f75726c282344292220636c6173733d2242204b223e3c75736520786c696e6b3a610ab88201527f687265663d22234d222066696c6c3d2275726c28234829222066696c6c2d6f70610ad88201527f61636974793d222e3939222f3e3c2f673e3c75736520786c696e6b3a68726566610af88201527f3d22234e222066696c6c3d2275726c2823492922207374796c653d226d69782d610b188201527f626c656e642d6d6f64653a636f6c6f722d646f6467652220636c6173733d2245610b388201527f222f3e3c75736520786c696e6b3a687265663d22234e222066696c6c3d227572610b588201527f6c28234a2922207374796c653d226d69782d626c656e642d6d6f64653a636f6c610b788201527f6f722d646f6467652220636c6173733d2245222f3e3c75736520786c696e6b3a610b988201527f687265663d22234e222066696c6c3d2275726c28234b2922207374796c653d22610bb88201527f6d69782d626c656e642d6d6f64653a636f6c6f722d646f6467652220636c6173610bd88201527f733d2245222f3e3c75736520786c696e6b3a687265663d22234e222066696c6c610bf88201527f3d2275726c28234c2922207374796c653d226d69782d626c656e642d6d6f6465610c188201527f3a636f6c6f722d646f6467652220636c6173733d2245222f3e3c75736520786c610c388201527f696e6b3a687265663d22234e2220636c6173733d22462047222f3e3c70617468610c588201527f20643d224d38312e343235203639352e313935483536392e32377635382e356c610c788201527f2d33352e37362033372e3133312d3435322e3038352e333639762d39367a2220610c988201527f66696c6c3d2223616438366666222f3e3c7061746820643d224d3332352e3233610cb88201527f31203331352e3030396c2d2e3030312d3233362e3830326d2d372e3520323336610cd88201527f2e3236355639352e3839326c2d31382e352d31382e3639376d33332e35203233610cf88201527f372e3237375639352e3839326c31382e352d31382e3639376d2d34302e352032610d188201527f33372e3534355639392e34336c2d32322d32322e3233346d3532203233372e32610d388201527f37375639392e34336c32322d32322e3233346d2d33362e35203333312e363636610d588201527f6c2d2e303031203137302e3536356d372e3530312d3137302e35363576313532610d788201527f2e38386c31382e352031382e3639376d2d33332e352d3137312e353737763135610d988201527f322e38386c2d31382e352031382e3639376d34302e352d3137312e3234327631610db88201527f34392e3030376c32322032322e3233356d2d35322d3137312e37373576313439610dd88201527f2e35346c2d32322032322e3233356d2d36362e3638332d3236362e3234334834610df88201527f32322e36376c32392e362034372e352d32392e362034372e35483232322e3034610e188201527f376c2d32382e3737372d34372e352032382e3737372d34372e357a6d2e323233610e388201527f203239372e3563302d31372e3339372031342e3130332d33312e352033312e35610e588201527f2d33312e35683134306331372e33393720302033312e352031342e3130332033610e788201527f312e352033312e35732d31342e3130332033312e352d33312e352033312e3568610e988201527f2d313430632d31372e33393720302d33312e352d31342e3130332d33312e352d610eb88201527f33312e357a6d3130322038332e3439397639356d2d3234352d39366834383822610ed88201527f20636c6173733d22462047222f3e3c7061746820643d224d3530382e30323220610ef88201527f3137382e33346331302e3830332d342e3332332031382e34352d31352e303239610f188201527f2031382e34352d32372e353520302d31362e3334352d31332e3032392d32392e610f388201527f3539352d32392e3130312d32392e353935732d32392e3130312031332e32352d610f588201527f32392e3130312032392e35393563302031302e33383520352e3235392031392e610f788201527f35322031332e3231372032342e3830322e3536362d312e303220312e3631322d610f988201527f312e37303520322e3830392d312e3730352e3236352030202e3438382d2e3234610fb88201527f372e3432322d2e3530346132302e34372032302e34372030203020312d2e3634610fd88201527f342d352e31313563302d31302e36353220382e3130352d31392e323837203138610ff88201527f2e3130342d31392e3238372e363837203020312e3239332d2e34363320312e356110188201527f32322d312e3131316c2e3035382d2e313538632e3437312d312e32362d2e33316110388201527f342d332e3034332d312e3632352d332e3334352d362e372d312e3534352d31326110588201527f2e3031362d372e3032322d31332e3638382d31342e3033362d2e3139322d2e386110788201527f30352e3731342d312e33343120312e3337332d2e3833396c32362e34313620326110988201527f302e303937632e3238372e3231382e3432312e3538332e3335382e3933392d2e6110b88201527f31383120312e3032312d2e32373620322e3037352d2e32373620332e313532206110d88201527f3020312e3333342e31343620322e3633332e343220332e3837382e3037392e336110f88201527f36312d2e3034332e3734322d2e3334382e39353161382e323420382e323420306111188201527f203020312d342e36363220312e343437632d312e33393720302d322e3731362d6111388201527f2e3335312d332e38382d2e3937332d2e3334342d2e3138342d2e37342d2e32356111588201527f352d312e3131392d2e3136352d2e3635322e3135352d312e3131322e3733382d6111788201527f312e31313220312e3430387631322e3136396330202e3531362d2e3431382e396111988201527f33342d2e3933342e393334682d312e353036632d2e35303420302d2e3931322d6111b88201527f2e342d2e3937382d2e3839392d2e35362d342e3232392d332e3937332d372e346111d88201527f38332d382e3130312d372e3438332d2e32363220302d2e3532312e3031332d2e6111f88201527f3737372e3033392d2e3330342e30332d2e3532342e3239342d2e3532342e36206112188201527f30202e3333352e3236342e3630372e3539362e36353320332e3339392e3437316112388201527f20362e30323420332e35353320362e30323420372e32383561372e383320372e6112588201527f38332030203020312d2e31333720312e343634632d2e3130312e3532372e32376112788201527f3820312e3035392e38313520312e303539682e373632612e30322e30322030206112988201527f302031202e30322e30322e30322e3032203020302030202e30322e303268352e6112b88201527f383934632e3036352030202e3132382e3032352e3137342e30373168306131356112d88201527f2e35322031352e3532203020302031202e3530392e3532632e33352e33382e346112f88201527f39322e3931352e353520312e3636327a6d2d32372e3431392d33312e3635632d6113188201527f2e3438382d2e3338392d2e3139332d312e3132362e3433312d312e31323668316113388201527f362e363236632e3632342030202e3931392e3733372e34333120312e3132362d6113588201527f322e34333620312e39342d352e34363320332e3038392d382e37343420332e306113788201527f3839732d362e3330392d312e3134392d382e3734342d332e3038397a6d33312e6113988201527f3520352e3330336330202e3932322d2e37303520312e3636392d312e353735206113b88201527f312e363639732d312e3537352d2e3734372d312e3537352d312e3636392e37306113d88201527f352d312e36363920312e3537352d312e36363920312e3537352e37343820312e6113f88201527f35373520312e3636397a2220636c6173733d22422048222f3e000000000000006114188201526000610cc061525c61349e6114318501866113e4565b7f3c6720636c6173733d22462047223e3c75736520786c696e6b3a687265663d2281527f234f222f3e3c75736520786c696e6b3a687265663d22234f2220783d222d333560208201527f33222f3e3c75736520786c696e6b3a687265663d22234f2220793d223235362260408201527f2f3e3c75736520786c696e6b3a687265663d22234f2220783d222d333533222060608201527f793d22323536222f3e3c2f673e3c646566733e3c66696c7465722069643d224260808201527f2220783d222e37332220793d222e313935222077696474683d2236343722206860a08201527f65696768743d22383838222066696c746572556e6974733d227573657253706160c08201527f63654f6e5573652220636c6173733d2243223e3c6665466c6f6f6420636c617360e08201527f733d2244222f3e3c6665426c656e6420696e3d22536f757263654772617068696101008201527f63222f3e3c6665476175737369616e426c757220737464446576696174696f6e6101208201527f3d223232222f3e3c2f66696c7465723e3c66696c7465722069643d22432220786101408201527f3d2231332e3831362220793d2231302e313935222077696474683d22363232226101608201527f206865696768743d22383437222066696c746572556e6974733d2275736572536101808201527f706163654f6e5573652220636c6173733d2243223e3c6665466c6f6f642072656101a08201527f73756c743d22412220636c6173733d2244222f3e3c6665436f6c6f724d6174726101c08201527f697820696e3d22536f75726365416c706861222076616c7565733d22302030206101e08201527f30203020302030203020302030203020302030203020302030203020302030206102008201527f31323720302220726573756c743d2242222f3e3c66654f66667365742f3e3c666102208201527f65476175737369616e426c757220737464446576696174696f6e3d2231222f3e61024082015260007f3c6665436f6d706f7369746520696e323d224222206f70657261746f723d226f806102608401527f7574222f3e3c6665436f6c6f724d61747269782076616c7565733d2230203020806102808501527f30203020302e373536203020302030203020302e3233373520302030203020306102a08501527f203120302030203020312030222f3e3c6665426c656e6420696e323d224122206102c08501527f726573756c743d2243222f3e3c6665436f6c6f724d617472697820696e3d22536102e08501527f6f75726365416c706861222076616c7565733d223020302030203020302030206103008501527f30203020302030203020302030203020302030203020302031323720302220726103208501527f6573756c743d2242222f3e3c66654f66667365742f3e3c6665476175737369616103408501527f6e426c757220737464446576696174696f6e3d223333222f3e3c6665436f6d706103608501527f6f7369746520696e323d224222206f70657261746f723d226f7574222f3e3c66806103808601527f65436f6c6f724d61747269782076616c7565733d223020302030203020302e36806103a08701527f303935203020302030203020302e3131323520302030203020302031203020306103c08701527f203020302e38332030222f3e3c6665426c656e6420696e323d2243222f3e3c666103e08701527f65426c656e6420696e3d22536f75726365477261706869632220726573756c746104008701527f3d2245222f3e3c6665436f6c6f724d617472697820696e3d22536f75726365416104208701527f6c706861222076616c7565733d223020302030203020302030203020302030206104408701527f30203020302030203020302030203020302031323720302220726573756c743d6104608701527f2242222f3e3c66654f66667365742f3e3c6665476175737369616e426c7572206104808701527f737464446576696174696f6e3d2231222f3e3c6665436f6d706f7369746520696104a08701527f6e323d224222206f70657261746f723d2261726974686d6574696322206b323d6104c08701527f222d3122206b333d2231222f3e3c6665436f6c6f724d61747269782076616c756104e08701527f65733d223020302030203020302e3633203020302030203020302e35333735206105008701527f30203020302030203120302030203020312030222f3e3c6665426c656e6420696105208701527f6e323d2245222f3e3c2f66696c7465723e3c66696c7465722069643d224422206105408701527f783d2237352e3831362220793d2237362e313935222077696474683d223439386105608701527f22206865696768743d22373233222066696c746572556e6974733d22757365726105808701527f53706163654f6e5573652220636c6173733d2243223e3c6665466c6f6f6420726105a08701527f6573756c743d22412220636c6173733d2244222f3e3c6665436f6c6f724d61746105c08701527f72697820696e3d22536f75726365416c706861222076616c7565733d223020306105e08701527f20302030203020302030203020302030203020302030203020302030203020306106008701527f2031323720302220726573756c743d2242222f3e3c66654f66667365742064796106208701527f3d2234222f3e3c6665476175737369616e426c757220737464446576696174696106408701527f6f6e3d2232222f3e3c6665436f6d706f7369746520696e323d224222206f70656106608701527f7261746f723d226f7574222f3e3c6665436f6c6f724d61747269782076616c756106808701527f65733d2230203020302030203020302030203020302030203020302030203020806106a08801527f3020302030203020302e32352030222f3e3c6665426c656e6420696e323d22416106c08801527f222f3e3c6665426c656e6420696e3d22536f7572636547726170686963222f3e6106e08801527f3c2f66696c7465723e3c66696c7465722069643d22452220793d223637352e356107008801527f383422206865696768743d223133362e363131222066696c746572556e6974736107208801527f3d227573657253706163654f6e5573652220783d22313030222077696474683d6107408801527f223435302220636c6173733d2243223e3c6665466c6f6f6420726573756c743d6107608801527f22412220636c6173733d2244222f3e3c6665436f6c6f724d617472697820696e6107808801527f3d22536f75726365416c706861222076616c7565733d223020302030203020306107a08801527f20302030203020302030203020302030203020302030203020302031323720306107c08801527f2220726573756c743d2242222f3e3c66654f66667365742f3e3c6665476175736107e08801527f7369616e426c757220737464446576696174696f6e3d22312e35222f3e3c66656108008801527f436f6d706f7369746520696e323d224222206f70657261746f723d226f7574226108208801527f2f3e3c6665436f6c6f724d61747269782076616c7565733d22302030203020306108408801527f20302e393636383637203020302030203020302e3538353833332030203020306108608801527f2030203120302030203020302e38372030222f3e3c6665426c656e6420696e326108808801527f3d22412220726573756c743d2243222f3e3c6665436f6c6f724d6174726978206108a08801527f696e3d22536f75726365416c706861222076616c7565733d22302030203020306108c08801527f20302030203020302030203020302030203020302030203020302030203132376108e08801527f20302220726573756c743d2242222f3e3c66654f66667365742f3e3c666547616109008801527f75737369616e426c757220737464446576696174696f6e3d2232392e35222f3e61092088015284610940880152836109608801527f30203020302e363234313637203020302030203020302e3134353833332030206109808801527f3020302030203120302030203020302e39312030222f3e3c6665426c656e64206109a08801527f696e323d2243222f3e3c6665426c656e6420696e3d22536f75726365477261706109c08801527f686963222f3e3c2f66696c7465723e3c66696c7465722069643d22462220783d6109e08801527f223230332e3136362220793d223534332e333839222077696474683d22323433610a008801527f2e363222206865696768743d223133362e393136222066696c746572556e6974610a208801527f733d227573657253706163654f6e5573652220636c6173733d2243223e3c6665610a408801527f466c6f6f6420726573756c743d22412220636c6173733d2244222f3e3c666543610a608801527f6f6c6f724d617472697820696e3d22536f75726365416c706861222076616c75610a8088015280610aa0880152507f302030203020302031323720302220726573756c743d2242222f3e3c66654f66610ac08701527f667365742f3e3c6665476175737369616e426c75722073746444657669617469610ae08701527f6f6e3d22312e35222f3e3c6665436f6d706f7369746520696e323d224222206f610b008701527f70657261746f723d226f7574222f3e3c6665436f6c6f724d6174726978207661610b208701527f6c7565733d223020302030203020302e39363638363720302030203020302030610b408701527f2e3538353833332030203020302030203120302030203020302e38372030222f610b608701527f3e3c6665426c656e6420696e323d22412220726573756c743d2243222f3e3c66610b808701527f65436f6c6f724d617472697820696e3d22536f75726365416c70686122207661610ba08701527f6c7565733d223020302030203020302030203020302030203020302030203020610bc08701527f3020302030203020302031323720302220726573756c743d2242222f3e3c6665610be08701527f4f66667365742f3e3c6665476175737369616e426c7572207374644465766961610c008701527f74696f6e3d2232392e35222f3e3c6665436f6d706f7369746520696e323d2242610c208701527f22206f70657261746f723d226f7574222f3e3c6665436f6c6f724d6174726978610c408701527f2076616c7565733d223020302030203020302e36323431363720302030203020610c608701527f3020302e3134353833332030203020302030203120302030203020302e393120610c808701527f30222f3e3c6665426c656e6420696e323d2243222f3e3c6665426c656e642069610ca08701527f6e3d22536f7572636547726170686963222f3e3c2f66696c7465723e3c66696c610cc08701527f7465722069643d22472220783d223139362e3837362220793d223239302e3631610ce08701527f39222077696474683d223234372e3722206865696768743d223134372e303632610d008701527f222066696c746572556e6974733d227573657253706163654f6e557365222063610d208701527f6c6173733d2243223e3c6665466c6f6f6420726573756c743d22412220636c61610d408701527f73733d2244222f3e3c6665436f6c6f724d617472697820696e3d22536f757263610d608701527f65416c706861222076616c7565733d2230203020302030203020302030203020610d808701527f302030203020302030203020302030203020302031323720302220726573756c610da08701527f743d2242222f3e3c66654f66667365742f3e3c6665476175737369616e426c75610dc08701527f7220737464446576696174696f6e3d22312e35222f3e3c6665436f6d706f7369610de08701527f746520696e323d224222206f70657261746f723d226f7574222f3e3c6665436f610e008701527f6c6f724d61747269782076616c7565733d223020302030203020302e39363638610e208701527f3637203020302030203020302e35383538333320302030203020302031203020610e408701527f30203020302e38372030222f3e3c6665426c656e6420696e323d224122207265610e608701527f73756c743d2243222f3e3c6665436f6c6f724d617472697820696e3d22536f75610e808701527f726365416c706861222076616c7565733d223020302030203020302030203020610ea08701527f3020302030203020302030203020302030203020302031323720302220726573610ec08701527f756c743d2242222f3e3c66654f66667365742f3e3c6665476175737369616e42610ee08701527f6c757220737464446576696174696f6e3d2232392e35222f3e3c6665436f6d70610f0087015281610f2087015280610f40870152505050507f3234313637203020302030203020302e31343538333320302030203020302031610f608301527f20302030203020302e39312030222f3e3c6665426c656e6420696e323d224322610f808301527f2f3e3c6665426c656e6420696e3d22536f7572636547726170686963222f3e3c610fa08301527f2f66696c7465723e3c72616469616c4772616469656e742069643d2248222063610fc08301527f783d2230222063793d22302220723d223122206772616469656e745472616e73610fe08301527f666f726d3d226d6174726978283738342e3138342c302c302c3736312e31372c6110008301527f3332352e3831362c3338302e313935292220786c696e6b3a687265663d2223506110208301527f223e3c73746f70206f66667365743d222e3031222073746f702d636f6c6f723d6110408301527f2223626430306666222073746f702d6f7061636974793d222e3339222f3e3c736110608301527f746f70206f66667365743d222e313335222073746f702d636f6c6f723d2223656110808301527f6337626666222073746f702d6f7061636974793d222e3232222f3e3c73746f706110a08301527f206f66667365743d222e323731222073746f702d636f6c6f723d2223663235616110c08301527f6666222073746f702d6f7061636974793d222e3438222f3e3c73746f70206f666110e08301527f667365743d2231222073746f702d636f6c6f723d2223303130303339222073746111008301527f6f702d6f7061636974793d222e3639222f3e3c2f72616469616c4772616469656111208301527f6e743e3c72616469616c4772616469656e742069643d2249222063783d2230226111408301527f2063793d22302220723d223122206772616469656e745472616e73666f726d3d6111608301527f227472616e736c617465283332302e3331362035372e313935332920726f74616111808301527f74652838382e3632333829207363616c65283333332e303936203537392e37366111a08301527f31292220786c696e6b3a687265663d222350223e3c73746f702073746f702d636111c08301527f6f6c6f723d2223386630306666222073746f702d6f7061636974793d222e35316111e08301527f222f3e3c73746f70206f66667365743d2231222073746f702d636f6c6f723d226112008301527f23316332333162222073746f702d6f7061636974793d2230222f3e3c73746f706112208301527f206f66667365743d2231222073746f702d6f7061636974793d2230222f3e3c2f6112408301527f72616469616c4772616469656e743e3c72616469616c4772616469656e7420696112608301527f643d224a222063783d2230222063793d22302220723d223122206772616469656112808301527f6e745472616e73666f726d3d226d617472697828322e313132353135373238356112a08301527f3239313834652d31342c2d3334352c3837372e3737342c352e333734383135356112c08301527f393733373338343434652d31342c3332372e3831362c3831352e3639352922206112e08301527f786c696e6b3a687265663d222350223e3c73746f702073746f702d636f6c6f726113008301527f3d2223633133666666222f3e3c73746f70206f66667365743d2231222073746f6113208301527f702d636f6c6f723d2223316332333162222073746f702d6f7061636974793d226113408301527f30222f3e3c73746f70206f66667365743d2231222073746f702d636f6c6f723d6113608301527f2223633030646666222073746f702d6f7061636974793d2230222f3e3c2f72616113808301527f6469616c4772616469656e743e3c72616469616c4772616469656e742069643d6113a08301527f224b222063783d2230222063793d22302220723d223122206772616469656e746113c08301527f5472616e73666f726d3d226d6174726978283236372e393939353337323733336113e08301527f3731322c2d322e303030303137353634363538303136352c382e3537323039306114008301527f3139323331333532332c313134382e3634383031343639383033342c36342e336114208301527f3136342c3338342e313935292220786c696e6b3a687265663d222350223e3c736114408301527f746f702073746f702d636f6c6f723d2223623934366666222f3e3c73746f70206114608301527f6f66667365743d2231222073746f702d636f6c6f723d222331633233316222206114808301527f73746f702d6f7061636974793d2230222f3e3c73746f70206f66667365743d226114a08301527f31222073746f702d636f6c6f723d2223383630646666222073746f702d6f70616114c08301527f636974793d2230222f3e3c2f72616469616c4772616469656e743e3c726164696114e08301527f616c4772616469656e742069643d224c222063783d2230222063793d223022206115008301527f723d223122206772616469656e745472616e73666f726d3d226d6174726978286115208301527f2d3234322c322e393633363435323533393336353935652d31342c2d312e35366115408301527f3434303035363036333438303336652d31332c2d313237372e34332c3537342e6115608301527f3331362c3338322e313935292220786c696e6b3a687265663d222350223e3c736115808301527f746f702073746f702d636f6c6f723d2223646430666666222073746f702d6f706115a08301527f61636974793d222e3931222f3e3c73746f70206f66667365743d2231222073746115c08301527f6f702d636f6c6f723d2223316332333162222073746f702d6f7061636974793d6115e08301527f2230222f3e3c73746f70206f66667365743d2231222073746f702d636f6c6f726116008301527f3d2223613330646666222073746f702d6f7061636974793d2230222f3e3c2f726116208301527f616469616c4772616469656e743e3c706174682069643d224d2220643d224d346116408301527f31332e3338372037362e313935483233392e323436632d322e32363420392e376116608301527f34312d31302e3939392031372d32312e3433203137682d3339632d31302e34336116808301527f20302d31392e3136352d372e3235392d32312e3432392d3137682d34332e39376116a08301527f396c2d33332e3539322033332e353932763638312e343038683435332e3530316116c08301527f6c33362e3439392d33362e35762d3634316c2d33372e352d33372e35682d33376116e08301527f2e3037632d322e32363420392e3734312d31302e3939392031372d32312e34336117008301527f203137682d3339632d31302e343320302d31392e3136352d372e3235392d32316117208301527f2e3432392d31377a222f3e3c706174682069643d224e2220643d224d3231372e6117408301527f3831362039342e3139356331302e36323820302031392e35372d372e323037206117608301527f32322e32312d3137683137322e35383163322e363420392e3739332031312e356117808301527f38322031372032322e3230392031376833396331302e36323820302031392e356117a08301527f372d372e3230372032322e32312d31376833352e3837366c33362e39313420336117c08301527f362e393135763634302e3137316c2d33352e3931342033352e3931344838302e6117e08301527f383136563131302e3230316c33332e3030362d33332e3030366834322e3738356118008301527f63322e363420392e3739332031312e3538322031372032322e323039203137686118208301527f33397a222f3e3c706174682069643d224f2220643d224d3439392033353176316118408301527f326d3020307631326d302d3132682d31326d313220306831326d2d31322037616118608301527f37203720302031203120302d31342037203720302031203120302031347a222f6118808301527f3e3c6c696e6561724772616469656e742069643d225022206772616469656e746118a08301527f556e6974733d227573657253706163654f6e557365222f3e3c2f646566733e006118c08301526118df82019050919050565b7f3c2f7376673e0000000000000000000000000000000000000000000000000000815260060190565b7f646174613a696d6167652f7376672b786d6c3b6261736536342c0000000000008152600082516152bd81601a85016020870161122e565b91909101601a0192915050565b7f4e487b7100000000000000000000000000000000000000000000000000000000600052601160045260246000fd5b6000821982111561530c5761530c6152ca565b500190565b7f4e487b7100000000000000000000000000000000000000000000000000000000600052601260045260246000fd5b60008261534f5761534f615311565b500490565b600081600019048311821515161561536e5761536e6152ca565b500290565b600181815b808511156153ae578160001904821115615394576153946152ca565b808516156153a157918102915b93841c9390800290615378565b509250929050565b6000826153c55750600161012a565b816153d25750600061012a565b81600181146153e857600281146153f25761540e565b600191505061012a565b60ff841115615403576154036152ca565b50506001821b61012a565b5060208310610133831016604e8410600b8410161715615431575081810a61012a565b61543b8383615373565b806000190482111561544f5761544f6152ca565b029392505050565b6000610cc060ff8416836153b6565b600060ff821660ff810361547c5761547c6152ca565b60010192915050565b60008261549457615494615311565b500690565b600060ff821660ff8416808210156154b3576154b36152ca565b90039392505050565b600060ff821660ff84168060ff038211156154d9576154d96152ca565b019392505050565b7f4e487b7100000000000000000000000000000000000000000000000000000000600052603260045260246000fd5b60008161551f5761551f6152ca565b506000190190565b600082821015615539576155396152ca565b500390565b60006000198203615551576155516152ca565b5060010190565b600060ff82168061556b5761556b6152ca565b600019019291505056fe4142434445464748494a4b4c4d4e4f505152535455565758595a6162636465666768696a6b6c6d6e6f707172737475767778797a303132333435363738392b2fa26469706673582212208a44405d9e3d1a5aac45b3af7d86e35005c892f7864af6effeb2182ad433f7b864736f6c634300080f0033",
	"deployedBytecode": "0x60806040526004361061004e5760003560e01c80633659cfe6146100655780634f1ef286146100855780635c60da1b146100ae5780638f283970146100db578063f851a440146100fb5761005d565b3661005d5761005b610110565b005b61005b610110565b34801561007157600080fd5b5061005b61008036600461051d565b6101c8565b610098610093366004610538565b61020e565b6040516100a591906105bb565b60405180910390f35b3480156100ba57600080fd5b506100c361033e565b6040516001600160a01b0390911681526020016100a5565b3480156100e757600080fd5b5061005b6100f636600461051d565b6103a9565b34801561010757600080fd5b506100c36103e4565b600061013a7f360894a13ba1a3210667c828492db98dca3e2076cc3735a920a3ca505d382bbc5490565b90506001600160a01b0381166101a55760405162461bcd60e51b815260206004820152602560248201527f50726f78793a20696d706c656d656e746174696f6e206e6f7420696e697469616044820152641b1a5e995960da1b60648201526084015b60405180910390fd5b3660008037600080366000845af43d6000803e806101c2573d6000fd5b503d6000f35b600080516020610621833981519152546001600160a01b0316336001600160a01b031614806101f5575033155b156102065761020381610432565b50565b610203610110565b60606102266000805160206106218339815191525490565b6001600160a01b0316336001600160a01b03161480610243575033155b1561032f5761025184610432565b600080856001600160a01b0316858560405161026e929190610610565b600060405180830381855af49150503d80600081146102a9576040519150601f19603f3d011682016040523d82523d6000602084013e6102ae565b606091505b5091509150816103265760405162461bcd60e51b815260206004820152603960248201527f50726f78793a2064656c656761746563616c6c20746f206e657720696d706c6560448201527f6d656e746174696f6e20636f6e7472616374206661696c656400000000000000606482015260840161019c565b91506103379050565b610337610110565b9392505050565b60006103566000805160206106218339815191525490565b6001600160a01b0316336001600160a01b03161480610373575033155b1561039e57507f360894a13ba1a3210667c828492db98dca3e2076cc3735a920a3ca505d382bbc5490565b6103a6610110565b90565b600080516020610621833981519152546001600160a01b0316336001600160a01b031614806103d6575033155b15610206576102038161048d565b60006103fc6000805160206106218339815191525490565b6001600160a01b0316336001600160a01b03161480610419575033155b1561039e57506000805160206106218339815191525490565b7f360894a13ba1a3210667c828492db98dca3e2076cc3735a920a3ca505d382bbc8190556040516001600160a01b038216907fbc7cd75a20ee27fd9adebab32041f755214dbc6bffa90cc0225b39da2e5c2d3b90600090a250565b60006104a56000805160206106218339815191525490565b600080516020610621833981519152839055604080516001600160a01b038084168252851660208201529192507f7e644d79422f17c01e4894b5f4f588d331ebfa28653d42ae832dc59e38c9798f910160405180910390a15050565b80356001600160a01b038116811461051857600080fd5b919050565b60006020828403121561052f57600080fd5b61033782610501565b60008060006040848603121561054d57600080fd5b61055684610501565b9250602084013567ffffffffffffffff8082111561057357600080fd5b818601915086601f83011261058757600080fd5b81358181111561059657600080fd5b8760208285010111156105a857600080fd5b6020830194508093505050509250925092565b600060208083528351808285015260005b818110156105e8578581018301518582016040015282016105cc565b818111156105fa576000604083870101525b50601f01601f1916929092016040019392505050565b818382376000910190815291905056feb53127684a568b3173ae13b9f8a6016e243e63b6e8ee1178d6a717850b5d6103a26469706673582212202bd1f0b5e6fde550b88238730ef8a1aca50c563a9964646d6babc0ad93dbcf3b64736f6c634300080f0033",
	"devdoc": {
		"author": "RabbitHole.gg",
		"details": "This contract is used to render on-chain data for RabbitHole Receipts (ERC-721 standard)",
		"kind": "dev",
		"methods": {
			"generateAttribute(string,string)": {
				"details": "generates an attribute object for an ERC-721 token",
				"params": {
					"key": "The key for the attribute",
					"value": "The value for the attribute"
				}
			},
			"generateSVG(bool,string,uint256,address)": {
				"details": "generates the on-chain SVG for an ERC-721 token ID",
				"params": {
					"claimed_": "Whether or not the token has been claimed",
					"questId_": "The questId tied to the tokenId",
					"rewardAddress_": "The address of the reward token",
					"rewardAmount_": "The amount of reward tokens that the user is eligible for"
				},
				"returns": {
					"_0": "base64 encoded SVG image"
				}
			},
			"generateTextFields(bool,string,uint256,address)": {
				"details": "generates the SVG parts that include the text fields",
				"params": {
					"claimed_": "Whether or not the token has been claimed",
					"questId_": "The questId tied to the tokenId",
					"rewardAddress_": "The address of the reward token",
					"rewardAmount_": "The amount of reward tokens that the user is eligible for"
				},
				"returns": {
					"_0": "SVG parts that include the text fields"
				}
			},
			"generateTokenURI(uint256,string,uint256,bool,uint256,address)": {
				"details": "generates the tokenURI for a given ERC-721 token ID",
				"params": {
					"claimed_": "Whether or not the token has been claimed",
					"questId_": "The questId tied to the tokenId",
					"rewardAddress_": "The address of the reward token",
					"rewardAmount_": "The amount of reward tokens that the user is eligible for",
					"tokenId_": "The token id to generate the URI for",
					"totalParticipants_": "The total number of participants in the quest"
				},
				"returns": {
					"_0": "encoded JSON following the generic OpenSea metadata standard"
				}
			},
			"humanRewardAmountAndSymbol(uint256,address)": {
				"details": "Returns a human readable reward amount and symbol",
				"params": {
					"rewardAddress_": "The reward address",
					"rewardAmount_": "The reward amount"
				}
			}
		},
		"title": "ReceiptRenderer",
		"version": 1
	},
	"userdoc": {
		"kind": "user",
		"methods": {},
		"version": 1
	},
	"storageLayout": {
		"storage": [],
		"types": null
	}
}