{
	"contractName": "TicketRenderer",
	"address": "0xe1F3F3808F069450a6Aa441C00d93c41d2DfbdF8",
	"abi": [
		{
			"inputs": [
				{
					"internalType": "uint256",
					"name": "tokenId_",
					"type": "uint256"
				}
			],
			"name": "generateSVG",
			"outputs": [
				{
					"internalType": "string",
					"name": "",
					"type": "string"
				}
			],
			"stateMutability": "pure",
			"type": "function"
		},
		{
			"inputs": [
				{
					"internalType": "uint256",
					"name": "tokenId_",
					"type": "uint256"
				}
			],
			"name": "generateTokenURI",
			"outputs": [
				{
					"internalType": "string",
					"name": "",
					"type": "string"
				}
			],
			"stateMutability": "pure",
			"type": "function"
		}
	],
	"transactionHash": "0x286e914518e6ae6f91648467115d2c6685ee7c6b1eda90f1ba5263159b040594",
	"solcInputHash": "98406d1eb3523ba0fe5a11cbf41b0cb6",
	"numDeployments": 1,
	"args": [],
	"bytecode": "0x608060405234801561001057600080fd5b50610aaa806100206000396000f3fe608060405234801561001057600080fd5b50600436106100365760003560e01c8063210fa96b1461003b5780636dcee4ca14610064575b600080fd5b61004e61004936600461041a565b610077565b60405161005b9190610463565b60405180910390f35b61004e61007236600461041a565b6100df565b6060600061008483610126565b61008d846100df565b60405160200161009e9291906104d0565b60405160208183030381529060405290506100b8816101e4565b6040516020016100c89190610660565b604051602081830303815290604052915050919050565b606060006100ec83610126565b6040516020016100fc91906106a5565b6040516020818303038152906040529050610116816101e4565b6040516020016100c89190610901565b6060600061013383610337565b600101905060008167ffffffffffffffff81111561015357610153610946565b6040519080825280601f01601f19166020018201604052801561017d576020820181803683370190505b5090508181016020015b7fffffffffffffffffffffffffffffffffffffffffffffffffffffffffffffffff017f3031323334353637383961626364656600000000000000000000000000000000600a86061a8153600a850494508461018757509392505050565b6060815160000361020357505060408051602081019091526000815290565b6000604051806060016040528060408152602001610a35604091399050600060038451600261023291906109a4565b61023c91906109bc565b6102479060046109f7565b67ffffffffffffffff81111561025f5761025f610946565b6040519080825280601f01601f191660200182016040528015610289576020820181803683370190505b509050600182016020820185865187015b808210156102f5576003820191508151603f8160121c168501518453600184019350603f81600c1c168501518453600184019350603f8160061c168501518453600184019350603f811685015184535060018301925061029a565b505060038651066001811461031157600281146103245761032c565b603d6001830353603d600283035361032c565b603d60018303535b509195945050505050565b6000807a184f03e93ff9f4daa797ed6e38ed64bf6a1f0100000000000000008310610380577a184f03e93ff9f4daa797ed6e38ed64bf6a1f010000000000000000830492506040015b6d04ee2d6d415b85acef810000000083106103ac576d04ee2d6d415b85acef8100000000830492506020015b662386f26fc1000083106103ca57662386f26fc10000830492506010015b6305f5e10083106103e2576305f5e100830492506008015b61271083106103f657612710830492506004015b60648310610408576064830492506002015b600a8310610414576001015b92915050565b60006020828403121561042c57600080fd5b5035919050565b60005b8381101561044e578181015183820152602001610436565b8381111561045d576000848401525b50505050565b6020815260008251806020840152610482816040850160208701610433565b601f017fffffffffffffffffffffffffffffffffffffffffffffffffffffffffffffffe0169190910160400192915050565b600081516104c6818560208601610433565b9290920192915050565b7f7b0000000000000000000000000000000000000000000000000000000000000081527f226e616d65223a2022526162626974486f6c65205469636b657473202300000060018201526000835161052e81601e850160208801610433565b80830190507f222c000000000000000000000000000000000000000000000000000000000000601e8201527f226465736372697074696f6e223a2022412072657761726420666f7220636f6d60208201527f706c6574696e67207175657374732077697468696e20526162626974486f6c6560408201527f2c207769746820756e6b286e6f29776e207574696c697479222c00000000000060608201527f22696d616765223a202200000000000000000000000000000000000000000000607a8201528351610604816084840160208801610433565b7f2200000000000000000000000000000000000000000000000000000000000000608492909101918201527f7d000000000000000000000000000000000000000000000000000000000000006085820152608601949350505050565b7f646174613a6170706c69636174696f6e2f6a736f6e3b6261736536342c00000081526000825161069881601d850160208701610433565b91909101601d0192915050565b7f3c73766720786d6c6e733d22687474703a2f2f7777772e77332e6f72672f323081527f30302f73766722207072657365727665417370656374526174696f3d22784d6960208201527f6e594d696e206d656574222076696577426f783d22302030203335302033353060408201527f223e00000000000000000000000000000000000000000000000000000000000060608201527f3c7374796c653e2e62617365207b2066696c6c3a2077686974653b20666f6e7460628201527f2d66616d696c793a2073657269663b20666f6e742d73697a653a20313470783b60828201527f207d3c2f7374796c653e0000000000000000000000000000000000000000000060a28201527f3c726563742077696474683d223130302522206865696768743d22313030252260ac8201527f2066696c6c3d22626c61636b22202f3e0000000000000000000000000000000060cc8201527f3c7465787420783d223530252220793d223430252220636c6173733d2262617360dc8201527f652220646f6d696e616e742d626173656c696e653d226d6964646c652220746560fc8201527f78742d616e63686f723d226d6964646c65223e526162626974486f6c6520546961011c8201527f636b65747320230000000000000000000000000000000000000000000000000061013c82015260006108fa6108d16108a86101438501866104b4565b7f3c2f746578743e00000000000000000000000000000000000000000000000000815260070190565b7f3c2f7376673e0000000000000000000000000000000000000000000000000000815260060190565b9392505050565b7f646174613a696d6167652f7376672b786d6c3b6261736536342c00000000000081526000825161093981601a850160208701610433565b91909101601a0192915050565b7f4e487b7100000000000000000000000000000000000000000000000000000000600052604160045260246000fd5b7f4e487b7100000000000000000000000000000000000000000000000000000000600052601160045260246000fd5b600082198211156109b7576109b7610975565b500190565b6000826109f2577f4e487b7100000000000000000000000000000000000000000000000000000000600052601260045260246000fd5b500490565b6000817fffffffffffffffffffffffffffffffffffffffffffffffffffffffffffffffff0483118215151615610a2f57610a2f610975565b50029056fe4142434445464748494a4b4c4d4e4f505152535455565758595a6162636465666768696a6b6c6d6e6f707172737475767778797a303132333435363738392b2fa26469706673582212202e1d431af8b9c48f6549272731471fe24a706cbd0e8c2aa9c6389a6fc72604c564736f6c634300080f0033",
	"deployedBytecode": "0x60806040526004361061004e5760003560e01c80633659cfe6146100655780634f1ef286146100855780635c60da1b146100ae5780638f283970146100db578063f851a440146100fb5761005d565b3661005d5761005b610110565b005b61005b610110565b34801561007157600080fd5b5061005b61008036600461051d565b6101c8565b610098610093366004610538565b61020e565b6040516100a591906105bb565b60405180910390f35b3480156100ba57600080fd5b506100c361033e565b6040516001600160a01b0390911681526020016100a5565b3480156100e757600080fd5b5061005b6100f636600461051d565b6103a9565b34801561010757600080fd5b506100c36103e4565b600061013a7f360894a13ba1a3210667c828492db98dca3e2076cc3735a920a3ca505d382bbc5490565b90506001600160a01b0381166101a55760405162461bcd60e51b815260206004820152602560248201527f50726f78793a20696d706c656d656e746174696f6e206e6f7420696e697469616044820152641b1a5e995960da1b60648201526084015b60405180910390fd5b3660008037600080366000845af43d6000803e806101c2573d6000fd5b503d6000f35b600080516020610621833981519152546001600160a01b0316336001600160a01b031614806101f5575033155b156102065761020381610432565b50565b610203610110565b60606102266000805160206106218339815191525490565b6001600160a01b0316336001600160a01b03161480610243575033155b1561032f5761025184610432565b600080856001600160a01b0316858560405161026e929190610610565b600060405180830381855af49150503d80600081146102a9576040519150601f19603f3d011682016040523d82523d6000602084013e6102ae565b606091505b5091509150816103265760405162461bcd60e51b815260206004820152603960248201527f50726f78793a2064656c656761746563616c6c20746f206e657720696d706c6560448201527f6d656e746174696f6e20636f6e7472616374206661696c656400000000000000606482015260840161019c565b91506103379050565b610337610110565b9392505050565b60006103566000805160206106218339815191525490565b6001600160a01b0316336001600160a01b03161480610373575033155b1561039e57507f360894a13ba1a3210667c828492db98dca3e2076cc3735a920a3ca505d382bbc5490565b6103a6610110565b90565b600080516020610621833981519152546001600160a01b0316336001600160a01b031614806103d6575033155b15610206576102038161048d565b60006103fc6000805160206106218339815191525490565b6001600160a01b0316336001600160a01b03161480610419575033155b1561039e57506000805160206106218339815191525490565b7f360894a13ba1a3210667c828492db98dca3e2076cc3735a920a3ca505d382bbc8190556040516001600160a01b038216907fbc7cd75a20ee27fd9adebab32041f755214dbc6bffa90cc0225b39da2e5c2d3b90600090a250565b60006104a56000805160206106218339815191525490565b600080516020610621833981519152839055604080516001600160a01b038084168252851660208201529192507f7e644d79422f17c01e4894b5f4f588d331ebfa28653d42ae832dc59e38c9798f910160405180910390a15050565b80356001600160a01b038116811461051857600080fd5b919050565b60006020828403121561052f57600080fd5b61033782610501565b60008060006040848603121561054d57600080fd5b61055684610501565b9250602084013567ffffffffffffffff8082111561057357600080fd5b818601915086601f83011261058757600080fd5b81358181111561059657600080fd5b8760208285010111156105a857600080fd5b6020830194508093505050509250925092565b600060208083528351808285015260005b818110156105e8578581018301518582016040015282016105cc565b818111156105fa576000604083870101525b50601f01601f1916929092016040019392505050565b818382376000910190815291905056feb53127684a568b3173ae13b9f8a6016e243e63b6e8ee1178d6a717850b5d6103a26469706673582212202bd1f0b5e6fde550b88238730ef8a1aca50c563a9964646d6babc0ad93dbcf3b64736f6c634300080f0033",
	"devdoc": {
		"author": "RabbitHole.gg",
		"details": "This contract is used to render on-chain data for RabbitHole tickets (aka an 1155 Reward)",
		"kind": "dev",
		"methods": {
			"generateSVG(uint256)": {
				"details": "generates the on-chain SVG for an 1155 token ID",
				"params": {
					"tokenId_": "The token id to generate the svg for"
				},
				"returns": {
					"_0": "encoded JSON for an SVG image"
				}
			},
			"generateTokenURI(uint256)": {
				"details": "generates the tokenURI for a given 1155 token ID",
				"params": {
					"tokenId_": "The token id to generate the URI for"
				},
				"returns": {
					"_0": "encoded JSON following the generic OpenSea metadata standard"
				}
			}
		},
		"title": "TicketRenderer",
		"version": 1
	},
	"userdoc": {
		"kind": "user",
		"methods": {},
		"version": 1
	},
	"storageLayout": {
		"storage": [],
		"types": null
	}
}