{
  "abi": [
    {
      "inputs": [
        {
          "internalType": "uint256",
          "name": "tokenId_",
          "type": "uint256"
        },
        {
          "internalType": "string",
          "name": "questId_",
          "type": "string"
        },
        {
          "internalType": "uint256",
          "name": "totalParticipants_",
          "type": "uint256"
        },
        {
          "internalType": "bool",
          "name": "claimed_",
          "type": "bool"
        },
        {
          "internalType": "uint256",
          "name": "rewardAmount_",
          "type": "uint256"
        },
        {
          "internalType": "address",
          "name": "rewardAddress_",
          "type": "address"
        }
      ],
      "name": "generateTokenURI",
      "outputs": [
        {
          "internalType": "string",
          "name": "",
          "type": "string"
        }
      ],
      "stateMutability": "view",
      "type": "function"
    },
    {
      "inputs": [
        {
          "internalType": "uint256",
          "name": "rewardAmount_",
          "type": "uint256"
        },
        {
          "internalType": "address",
          "name": "rewardAddress_",
          "type": "address"
        }
      ],
      "name": "humanRewardAmount",
      "outputs": [
        {
          "internalType": "string",
          "name": "",
          "type": "string"
        }
      ],
      "stateMutability": "view",
      "type": "function"
    },
    {
      "inputs": [
        {
          "internalType": "address",
          "name": "tokenAddress_",
          "type": "address"
        }
      ],
      "name": "symbolForAddress",
      "outputs": [
        {
          "internalType": "string",
          "name": "",
          "type": "string"
        }
      ],
      "stateMutability": "view",
      "type": "function"
    }
  ],
  "bytecode": {
    "object": "0x608060405234801561001057600080fd5b50614e5f806100206000396000f3fe608060405234801561001057600080fd5b50600436106100415760003560e01c8063499b98d31461004657806385487f841461006f578063ac17338314610082575b600080fd5b610059610054366004610bec565b610095565b6040516100669190610c32565b60405180910390f35b61005961007d366004610c65565b610135565b610059610090366004610d10565b6101c8565b6060806001600160a01b0383166100c6575060408051808201909152600381526208aa8960eb1b602082015261012f565b826001600160a01b03166395d89b416040518163ffffffff1660e01b8152600401600060405180830381865afa158015610104573d6000803e3d6000fd5b505050506040513d6000823e601f3d908101601f1916820160405261012c9190810190610dcd565b90505b92915050565b606060006001600160a01b03831661014f575060126101b4565b826001600160a01b031663313ce5676040518163ffffffff1660e01b8152600401602060405180830381865afa15801561018d573d6000803e3d6000fd5b505050506040513d601f19601f820116820180604052508101906101b19190610e44565b90505b6101c084826000610211565b949350505050565b606060006101da88888888888861040b565b90506101e5816106d8565b6040516020016101f59190610e83565b6040516020818303038152906040529150509695505050505050565b6060600082610221576000610224565b60015b9050600061023385600a610fc2565b9050856000805b82156102995760ff81161561025b578061025381610fd1565b915050610279565b610266600a84611006565b15610279578061027581610fd1565b9150505b8161028381610fd1565b92506102929050600a8461101a565b925061023a565b6040805161010081018252600080825260208201819052918101829052606081018290526080810182905260a0810182905260c081019190915287151560e082015260ff89166102e9838561102e565b60ff1610610329576102fb858b61101a565b8152610307898461102e565b60ff166040820181905261031c908790611047565b60ff1660208201526103dc565b610333828461102e565b61033e90600a610fc2565b610348908b61101a565b8152898511156103ab5760026080820152610363838a61102e565b61036e906002611047565b60ff1660a082018190526103829083611047565b60ff1660408201819052610397908790611047565b60ff166020820152600160c08201526103dc565b6103b6826001611047565b60ff1660408201526103c8898461102e565b6103d3906001611047565b60ff1660608201525b8581604001516103ec9190611047565b60ff1660208201526103fd816106e6565b9a9950505050505050505050565b6060600061041888610929565b6040516321521fe160e21b8152600481018690526001600160a01b038516602482015290915060009030906385487f8490604401600060405180830381865afa158015610469573d6000803e3d6000fd5b505050506040513d6000823e601f3d908101601f191682016040526104919190810190610dcd565b60405163499b98d360e01b81526001600160a01b0386166004820152909150600090309063499b98d390602401600060405180830381865afa1580156104db573d6000803e3d6000fd5b505050506040513d6000823e601f3d908101601f191682016040526105039190810190610dcd565b9050600061053160405180604001604052806008815260200167145d595cdd08125160c21b8152508b61096d565b61055b60405180604001604052806008815260200167151bdad95b88125160c21b8152508661096d565b61059760405180604001604052806012815260200171546f74616c205061727469636970616e747360701b8152506105928d610929565b61096d565b6106046040518060400160405280600781526020016610db185a5b595960ca1b8152508c6105e2576040518060400160405280600581526020016466616c736560d81b81525061096d565b604051806040016040528060048152602001637472756560e01b81525061096d565b6106336040518060400160405280600d81526020016c14995dd85c9908105b5bdd5b9d609a1b8152508861096d565b6106716040518060400160405280600e81526020016d526577617264204164647265737360901b8152506105928d6001600160a01b0316601461099c565b60405160200161068696959493929190611060565b60405160208183030381529060405290506000846106a58a86866109c2565b836040516020016106b893929190611123565b60408051808303601f190181529190529c9b505050505050505050505050565b606061012f82600080610a60565b60606000826020015160ff1667ffffffffffffffff81111561070a5761070a610c91565b6040519080825280601f01601f191660200182016040528015610734576020820181803683370190505b5090508260e001511561077d57602560f81b81600183516107559190611254565b8151811061076557610765611267565b60200101906001600160f81b031916908160001a9053505b8260c00151156107e657600360fc1b8160008151811061079f5761079f611267565b60200101906001600160f81b031916908160001a905350601760f91b816001815181106107ce576107ce611267565b60200101906001600160f81b031916908160001a9053505b608083015160ff165b8360a0015160ff1681101561083e57603060f81b82828151811061081557610815611267565b60200101906001600160f81b031916908160001a905350806108368161127d565b9150506107ef565b505b82511561012f576000836060015160ff1611801561086b5750826060015160ff16836040015160ff16145b156108b457601760f91b8184604001805161088590611296565b60ff16908190528151811061089c5761089c611267565b60200101906001600160f81b031916908160001a9053505b82516108c290600a90611006565b6108cd9060306112b3565b60f81b818460400180516108e090611296565b60ff1690819052815181106108f7576108f7611267565b60200101906001600160f81b031916908160001a905350600a83600001818151610921919061101a565b905250610840565b60606080604051019050602081016040526000815280600019835b928101926030600a8206018453600a900480610944575050819003601f19909101908152919050565b6060600083836040516020016109849291906112c6565b60408051808303601f19018152919052949350505050565b60606109a88383610b48565b805161307882526002016001199091019081529392505050565b60606000846109ec5760405180611ce00160405280611cb68152602001613174611cb69139610a09565b60405180611da00160405280611d708152602001611404611d7091395b8484604051602001610a1d93929190611354565b6040516020818303038152906040529050610a37816106d8565b604051602001610a4791906113be565b6040516020818303038152906040529150509392505050565b606083518015610b40576003600282010460021b60405192507f4142434445464748494a4b4c4d4e4f505152535455565758595a616263646566601f526102308515027f6768696a6b6c6d6e6f707172737475767778797a303132333435363738392d5f03603f52602083018181015b6003880197508751603f8160121c1651600053603f81600c1c1651600153603f8160061c1651600253603f811651600353506000518252600482019150808210610ad057602001604052613d3d60f01b600384066002048083039190915260008615159091029182900352900382525b509392505050565b6060601f1960428360011b01166040510190506020810160405260008152806f30313233343536373839616263646566600f528283018203600119855b600f811651948201946001860153600f8160041c1651855360081c848303610b85578015610bbb57632194895a6000526004601cfd5b505050819003601f1990910190815292915050565b80356001600160a01b0381168114610be757600080fd5b919050565b600060208284031215610bfe57600080fd5b610c0782610bd0565b9392505050565b60005b83811015610c29578181015183820152602001610c11565b50506000910152565b6020815260008251806020840152610c51816040850160208701610c0e565b601f01601f19169190910160400192915050565b60008060408385031215610c7857600080fd5b82359150610c8860208401610bd0565b90509250929050565b634e487b7160e01b600052604160045260246000fd5b604051601f8201601f1916810167ffffffffffffffff81118282101715610cd057610cd0610c91565b604052919050565b600067ffffffffffffffff821115610cf257610cf2610c91565b50601f01601f191660200190565b80358015158114610be757600080fd5b60008060008060008060c08789031215610d2957600080fd5b86359550602087013567ffffffffffffffff811115610d4757600080fd5b8701601f81018913610d5857600080fd5b8035610d6b610d6682610cd8565b610ca7565b8181528a6020838501011115610d8057600080fd5b8160208401602083013760006020838301015280975050505060408701359350610dac60608801610d00565b925060808701359150610dc160a08801610bd0565b90509295509295509295565b600060208284031215610ddf57600080fd5b815167ffffffffffffffff811115610df657600080fd5b8201601f81018413610e0757600080fd5b8051610e15610d6682610cd8565b818152856020838501011115610e2a57600080fd5b610e3b826020830160208601610c0e565b95945050505050565b600060208284031215610e5657600080fd5b815160ff81168114610c0757600080fd5b60008151610e79818560208601610c0e565b9290920192915050565b7f646174613a6170706c69636174696f6e2f6a736f6e3b6261736536342c000000815260008251610ebb81601d850160208701610c0e565b91909101601d0192915050565b634e487b7160e01b600052601160045260246000fd5b600181815b80851115610f19578160001904821115610eff57610eff610ec8565b80851615610f0c57918102915b93841c9390800290610ee3565b509250929050565b600082610f305750600161012f565b81610f3d5750600061012f565b8160018114610f535760028114610f5d57610f79565b600191505061012f565b60ff841115610f6e57610f6e610ec8565b50506001821b61012f565b5060208310610133831016604e8410600b8410161715610f9c575081810a61012f565b610fa68383610ede565b8060001904821115610fba57610fba610ec8565b029392505050565b6000610c0760ff841683610f21565b600060ff821660ff8103610fe757610fe7610ec8565b60010192915050565b634e487b7160e01b600052601260045260246000fd5b60008261101557611015610ff0565b500690565b60008261102957611029610ff0565b500490565b60ff828116828216039081111561012f5761012f610ec8565b60ff818116838216019081111561012f5761012f610ec8565b605b60f81b81526000875161107c816001850160208c01610c0e565b8083019050600b60fa1b806001830152885161109f816002850160208d01610c0e565b6002920191820181905287516110bc816003850160208c01610c0e565b6003920191820181905286516110d9816004850160208b01610c0e565b600492019182015284516110f4816005840160208901610c0e565b6103fd611116611110600584860101600b60fa1b815260010190565b87610e67565b605d60f81b815260010190565b607b60f81b81527f226e616d65223a2022526162626974486f6c652e676720526563656970742023600182015260008451611165816021850160208901610c0e565b61088b60f21b60219184019182018190527f226465736372697074696f6e223a2022526162626974486f6c652e676720526560238301527f63656970747320617265207573656420746f20636c61696d207265776172647360438301527f2066726f6d20636f6d706c65746564207175657374732e222c000000000000006063830152691134b6b0b3b2911d101160b11b607c830152855161120e816086850160208a01610c0e565b60869201918201526d01130ba3a3934b13aba32b9911d160951b608882015261124a61123d6096830186610e67565b607d60f81b815260010190565b9695505050505050565b8181038181111561012f5761012f610ec8565b634e487b7160e01b600052603260045260246000fd5b60006001820161128f5761128f610ec8565b5060010190565b600060ff8216806112a9576112a9610ec8565b6000190192915050565b8082018082111561012f5761012f610ec8565b607b60f81b81526e113a3930b4ba2fba3cb832911d101160891b600182015282516000906112fb816010850160208801610c0e565b61088b60f21b60109184019182015269113b30b63ab2911d101160b11b6012820152835161133081601c840160208801610c0e565b601160f91b601c9290910191820152607d60f81b601d820152601e01949350505050565b60008451611366818460208901610c0e565b84519083019061137a818360208901610c0e565b600160fd1b91019081528351611397816001840160208801610c0e565b6c1e17ba32bc3a1f1e17b9bb339f60991b60019290910191820152600e0195945050505050565b7f646174613a696d6167652f7376672b786d6c3b6261736536342c0000000000008152600082516113f681601a850160208701610c0e565b91909101601a019291505056fe3c73766720786d6c6e733d22687474703a2f2f7777772e77332e6f72672f323030302f7376672220786d6c6e733a786c696e6b3d22687474703a2f2f7777772e77332e6f72672f313939392f786c696e6b222077696474683d2236323322206865696768743d223834382220786d6c6e733a763d2268747470733a2f2f76656374612e696f2f6e616e6f223e3c646566733e3c72616469616c4772616469656e742069643d2241222063783d2231382e3033222063793d222d32332e38352220723d223122206772616469656e745472616e73666f726d3d226d6174726978282d3737382e343420302030202d3735352e35392031343334312e3932202d31373635352e3234292220786c696e6b3a687265663d222347223e3c73746f70206f66667365743d222e3031222073746f702d636f6c6f723d2223646538306666222073746f702d6f7061636974793d222e3339222f3e3c73746f70206f66667365743d222e3134222073746f702d636f6c6f723d2223656337626666222073746f702d6f7061636974793d222e3232222f3e3c73746f70206f66667365743d222e3237222073746f702d636f6c6f723d2223663235616666222073746f702d6f7061636974793d222e3438222f3e3c73746f70206f66667365743d2231222073746f702d636f6c6f723d2223316332333162222073746f702d6f7061636974793d2230222f3e3c2f72616469616c4772616469656e743e3c72616469616c4772616469656e742069643d2242222063783d2231372e3931222063793d222d32332e38362220723d223122206772616469656e745472616e73666f726d3d226d617472697828382c3333332c2d3537392e35392c31332e39322c2d31333636392e30352c2d353538312e3034292220786c696e6b3a687265663d222347223e3c73746f70206f66667365743d2230222073746f702d636f6c6f723d2223386630306666222073746f702d6f7061636974793d222e3531222f3e3c73746f70206f66667365743d2231222073746f702d636f6c6f723d2223316332333162222073746f702d6f7061636974793d2230222f3e3c2f72616469616c4772616469656e743e3c72616469616c4772616469656e742069643d2243222063783d2231382e3039222063793d222d32332e39312220723d223122206772616469656e745472616e73666f726d3d226d617472697828302c2d3334352c3837372e37372c302c32313330352e32372c373034352e35292220786c696e6b3a687265663d222347223e3c73746f70206f66667365743d2230222073746f702d636f6c6f723d2223633133666666222f3e3c73746f70206f66667365743d2231222073746f702d636f6c6f723d2223316332333162222073746f702d6f7061636974793d2230222f3e3c2f72616469616c4772616469656e743e3c72616469616c4772616469656e742069643d2244222063783d2231372e3933222063793d222d32332e39312220723d223122206772616469656e745472616e73666f726d3d226d6174726978283236382c2d322c382e35372c313134382e36352c2d343534382e39392c32373837392e36292220786c696e6b3a687265663d222347223e3c73746f70206f66667365743d2230222073746f702d636f6c6f723d2223623934366666222f3e3c73746f70206f66667365743d2231222073746f702d636f6c6f723d2223316332333162222073746f702d6f7061636974793d2230222f3e3c2f72616469616c4772616469656e743e3c72616469616c4772616469656e742069643d2245222063783d2231382e3037222063793d222d32332e38372220723d223122206772616469656e745472616e73666f726d3d226d6174726978282d3234322c302c302c2d313237372e34332c343933342e352c2d33303131352e3836292220786c696e6b3a687265663d222347223e3c73746f70206f66667365743d2230222073746f702d636f6c6f723d2223646430666666222073746f702d6f7061636974793d222e3931222f3e3c73746f70206f66667365743d2231222073746f702d636f6c6f723d2223316332333162222073746f702d6f7061636974793d2230222f3e3c2f72616469616c4772616469656e743e3c706174682069643d22462220643d224d3339392e36203636483232352e3441323220323220302030203120323034203833682d33396132322032322030203020312d32312e342d3137682d34344c36362039392e3656373831683435332e356c33362e352d33362e35762d3634314c3531382e35203636682d33372e3141323220323220302030203120343630203833682d33396132322032322030203020312d32312e342d31375a222f3e3c6c696e6561724772616469656e742069643d224722206772616469656e74556e6974733d227573657253706163654f6e557365222f3e3c2f646566733e3c7061746820643d224d2e352e356836323276383437482e357a22207374726f6b653d222330303022207374726f6b652d6d697465726c696d69743d223130222f3e3c672066696c6c2d72756c653d226576656e6f6464223e3c7061746820643d224d3430302036362e35483232352e386132322032322030203020312d32312e34203137682d33396132322032322030203020312d32312e342d3137682d34346c2d33332e362033332e36763638312e34683435332e356c33362e352d33362e35563130346c2d33372e352d33372e35682d33372e316132322032322030203020312d32312e34203137682d33396132322032322030203020312d32312e342d31377a222066696c6c3d2223306330623066222066696c6c2d6f7061636974793d222e3236222f3e3c67207472616e73666f726d3d227472616e736c617465282e34202e3529223e3c75736520786c696e6b3a687265663d222346222066696c6c2d6f7061636974793d222e3939222066696c6c3d2275726c28234129222f3e3c75736520786c696e6b3a687265663d222346222066696c6c2d6f7061636974793d222e35222066696c6c3d2275726c28234229222f3e3c75736520786c696e6b3a687265663d222346222066696c6c2d6f7061636974793d222e35222066696c6c3d2275726c28234329222f3e3c75736520786c696e6b3a687265663d222346222066696c6c2d6f7061636974793d222e35222066696c6c3d2275726c28234429222f3e3c75736520786c696e6b3a687265663d222346222066696c6c2d6f7061636974793d222e35222066696c6c3d2275726c28234529222f3e3c2f673e3c2f673e3c672066696c6c3d226e6f6e6522207374726f6b653d222361643836666622207374726f6b652d77696474683d2232223e3c7061746820643d224d3230342e342038342e356132332032332030203020302032322e322d3137683137322e366132332032332030203020302032322e322031376833396132332032332030203020302032322e322d31376833352e396c33362e392033362e39763634302e326c2d33352e392033352e394836372e34762d3638306c33332d33336834322e386132332032332030203020302032322e322031377a222f3e3c7061746820643d224d3331312e39203330352e335636382e356d2d372e35203233362e335638362e326c2d31382e352d31382e376d33332e35203233372e335638362e326c31382e352d31382e374d3239372e34203330355638392e376c2d32322d32322e326d3532203233372e33762d3231356c32322d32322e336d2d33362e35203333312e37763137302e366d372e352d3137302e36763135322e396c31382e352031382e376d2d33332e352d3137312e36763135322e396c2d31382e352031382e376d34302e352d3137312e33763134396c32322032322e326d2d35322d3137312e37763134392e356c2d32322032322e324d3230382e392036303263302d31372e3339372031342e3130332d33312e352033312e352d33312e35683134306331372e33393720302033312e352031342e3130332033312e352033312e35732d31342e3130332033312e352d33312e352033312e35682d313430632d31372e33393720302d33312e352d31342e3130332d33312e352d33312e357a6d3237362e382d3236302e377631326d3020307631326d302d3132682d31326d313220306831326d2d313220376137203720302031203120302d31342037203720302031203120302031347a6d2d3335332d31397631326d3020307631326d302d3132682d31326d313220306831326d2d313220376137203720302031203120302d31342037203720302031203120302031347a6d333533203233377631326d3020307631326d302d3132682d31326d313220306831326d2d313220376137203720302031203120302d31342037203720302031203120302031347a6d2d3335332d31397631326d3020307631326d302d3132682d31326d313220306831326d2d313220376137203720302031203120302d31342037203720302031203120302031347a222f3e3c2f673e3c7061746820643d224d3234322e37203731342e357632316834762d392e3168332e3663312e33203020312e3920312e3320312e39203476352e3168332e39762d362e3661332e3720332e372030203020302d322e382d3463322d2e3820322e372d322e3520322e372d342e3620302d342e312d312e352d352e382d342e372d352e387a6d3420322e3668332e3763312e32203020312e3920312e3320312e3920332e34732d2e3720332e332d312e3920332e33682d332e377a6d31342d322e367632316831322e38762d322e36682d382e37762d362e3768362e34762d322e35682d362e34762d362e3668382e37762d322e367a6d31372e34203076323168392e3563322e34203020332e392d322e3520332e392d352e37762d392e3563302d332e332d312e362d352e382d332e392d352e387a6d342e3120322e3668332e3763312e31203020312e3820312e3520312e3820332e3276392e35633020312e362d2e3720332e312d312e3820332e31682d332e377a6d31332e392d322e3676323148333039762d322e36682d382e38762d362e3768362e34762d322e35682d362e34762d362e3668382e38762d322e367a6d31372e3720307632316831322e39762d322e36682d382e38762d362e3768362e34762d322e35682d362e34762d362e3668382e38762d322e367a6d31372e3420307632316833762d31332e326c322e312031332e3268332e326c322e332d31332e337631332e3368322e39762d3231682d346c2d322e372031362d322e382d31367a6d313820307632316831322e39762d322e36682d382e38762d362e3768362e34762d322e35682d362e34762d362e3668382e38762d322e367a6d31372e35203076323168392e3463322e34203020342d322e3520342d352e37762d392e3563302d332e332d312e362d352e382d342d352e387a6d3420322e3668332e3763312e32203020312e3920312e3520312e3920332e3276392e35633020312e362d2e3720332e312d312e3920332e31682d332e377a4d3234352e35203630342e3776372e35682d332e36762d32302e3168382e3361382e363720382e363720302030203120352e3420312e3620362e313120362e313120302030203120312e3820342e3720352e3720352e372030203020312d342e3120352e376c342e3920382e31682d346c2d342e342d372e357a6d302d392e3676362e3668342e3361342e3620342e3620302030203020332e312d2e3820332e353920332e353920302030203020302d3520342e3620342e362030203020302d332e312d2e387a6d32362e362031372e31682d332e3463302d2e342d2e312d2e382d2e312d312e3261332e3720332e372030203020312d2e312d312e3120332e383920332e38392030203020312d312e3720312e3920362e313220362e31322030203020312d322e392e3720342e353120342e35312030203020312d332e332d312e3220332e3520332e352030203020312d312e332d3320332e3720332e3720302030203120312e322d322e3920362e363520362e363520302030203120332e382d312e346c342e312d2e35762d2e3761322e343920322e34392030203020302d2e372d312e3920322e373220322e37322030203020302d312e392d2e3720322e333720322e33372030203020302d312e382e3620322e3320322e332030203020302d2e3820312e36682d332e3361342e343920342e343920302030203120312e382d332e3520362e333520362e333520302030203120342e322d312e332036203620302030203120342e3420312e3420352e323920352e323920302030203120312e3520342e3176372e357a6d2d392e342d342e3161312e3720312e37203020302030202e3620312e3420322e3520322e3520302030203020312e362e3520332e363820332e363820302030203020322e352d2e3920332e323220332e323220302030203020312d322e35762d2e386c2d332e312e3361352e303920352e30392030203020302d32202e3720312e343920312e34392030203020302d2e3620312e337a6d32302e3220342e3461352e323120352e32312030203020312d322e372d2e3720342e343120342e34312030203020312d312e372d312e3976322e33682d332e34762d32302e3768332e3576382e3761332e383920332e383920302030203120312e372d312e3920342e353920342e353920302030203120322e362d2e3720352e363120352e363120302030203120342e34203220392e343220392e343220302030203120302031302e3820352e3420352e342030203020312d342e3420322e317a6d2d312d31322e33613320332030203020302d322e3520312e3220352e363820352e36382030203020302d2e3920332e34762e3561352e393220352e3932203020302030202e3920332e342033203320302030203020322e3520312e3220332e333920332e333920302030203020322e372d312e3320362e3420362e34203020302030202e392d332e3620362e303820362e30382030203020302d2e392d332e3520332e3120332e312030203020302d322e372d312e337a6d31372e342031322e33613520352030203020312d322e372d2e3720342e343120342e34312030203020312d312e372d312e3976322e33682d332e34762d32302e3768332e3576382e3761332e383920332e383920302030203120312e372d312e3920342e353920342e353920302030203120322e362d2e3720352e363120352e363120302030203120342e34203220392e343220392e343220302030203120302031302e3820352e3420352e342030203020312d342e3420322e317a6d2d312d31322e33613320332030203020302d322e3520312e3220352e363820352e36382030203020302d2e3920332e34762e3561352e393220352e3932203020302030202e3920332e342033203320302030203020322e3520312e3220332e3520332e3520302030203020322e372d312e3320362e3420362e34203020302030202e392d332e3620362e303820362e30382030203020302d2e392d332e3520332e323120332e32312030203020302d322e372d312e337a6d31332e322d342e37682d332e375635393268332e377a6d2d2e322031362e37682d332e34762d31342e3368332e347a6d392d322e37682e396c2e392d2e3276322e386c2d312e342e33682d312e3461342e343120342e34312030203020312d332e322d3120342e323120342e32312030203020312d312e312d332e31762d372e38682d312e39762d322e3668312e39762d332e3668332e3576332e3668332e3376322e36682d332e3376372e3261322032203020302030202e3420312e3420312e383220312e383220302030203020312e342e347a6d372e3920322e37682d332e36762d32302e3168332e3676382e34683130762d382e3468332e357632302e31682d332e35762d382e37682d31307a6d32332e312d31342e3661362e343820362e34382030203020312035203220382e373720382e373720302030203120302031302e3920362e363920362e36392030203020312d35203220362e383920362e38392030203020312d352e312d3220382e373720382e373720302030203120302d31302e3920362e363320362e363320302030203120352e312d327a6d3020322e3661332e323220332e32322030203020302d322e3620312e3320352e373720352e37372030203020302d2e3920332e3520362e3420362e34203020302030202e3920332e3620332e3120332e3120302030203020322e3620312e3220322e3920322e3920302030203020322e352d312e3220352e363820352e363820302030203020312d332e3620352e3420352e342030203020302d312d332e35203320332030203020302d322e352d312e337a6d31322e392d382e377632302e37682d332e35762d32302e377a6d31322e352031362e3268332e3261352e313920352e31392030203020312d322e3220332e3520362e303720362e30372030203020312d342e3120312e3320362e383820362e38382030203020312d352d3220382e373720382e373720302030203120302d31302e3920362e363920362e363920302030203120352d3220352e343920352e343920302030203120342e36203220372e323920372e323920302030203120312e3720352e3276312e314833373061342e363220342e363220302030203020312e3120322e3920332e333220332e333220302030203020322e3520312e3120322e3920322e3920302030203020312e392d2e3620332e343120332e343120302030203020312e322d312e367a6d2d332e312d372e35613320332030203020302d322e332e3920342e353520342e35352030203020302d312e3220322e3568362e3561332e363120332e36312030203020302d2e382d322e3420322e3720322e372030203020302d322e322d317a6d3132312e312d3433312e366331322e3536352d342e3930342032302e3133362d31372e3737352031382e3331372d33312e3134732d31322e3535352d32332e3734342d32352e3937332d32352e3131322d32362e30323720362e3633342d33302e3530342031392e3335372e3334332032362e3835372031312e3636312033342e31393461332e3220332e3220302030203120322e382d312e37632e322030202e352d2e332e342d2e356132312e34372032312e34372030203020312d2e372d352e3163302d31302e3720382e312d31392e332031382e312d31392e3361312e393220312e393220302030203020312e362d312e31762d2e3261322e3620322e362030203020302d312e362d332e332031382e39312031382e39312030203020312d31332e372d31342e312e38312e383120302030203120312e342d2e386c32362e342032302e3161312e303820312e3038203020302031202e342e392031382e32352031382e3235203020302030202e3120372e312e37392e37392030203020312d2e332e3920382e3120382e312030203020312d382e362e3520312e333820312e33382030203020302d312e312d2e3220312e353120312e35312030203020302d312e3120312e347631322e32612e392e392030203020312d2e392e39682d312e36612e392e392030203020312d2e392d2e3920382e3420382e342030203020302d382e312d372e34682d2e38612e362e36203020312030202e3120312e3220372e3320372e33203020302031203620372e3320372e353220372e35322030203020312d2e3220312e352e392e39203020302030202e363820312e303868372e303261312e323120312e3231203020302031202e352e3520322e353820322e3538203020302031202e3620312e37327a4d3436372e3320313337612e362e36203020302031202e342d312e316831362e36632e3330342d2e3133382e3636322d2e3030342e382e33732e3030342e3636322d2e332e386131342e35362031342e35362030203020312d382e3820332e312031342031342030203020312d382e372d332e317a6d33312e3520352e3361312e3620312e362030203020312d332e3139372d2e31333120312e3620312e3620302030203120312e3539372d312e35363920312e3720312e3720302030203120312e3620312e377a222066696c6c3d2223646165306666222f3e3c7465787420616c69676e6d656e742d626173656c696e653d226d6964646c652220746578742d616e63686f723d226d6964646c6522207472616e73666f726d3d227472616e736c61746528333131203337302e39292220666f6e742d73697a653d223434222066696c6c3d22236666662220666f6e742d66616d696c793d22417269616c4d542c20417269616c223e3c73766720786d6c6e733d22687474703a2f2f7777772e77332e6f72672f323030302f7376672220786d6c6e733a786c696e6b3d22687474703a2f2f7777772e77332e6f72672f313939392f786c696e6b222077696474683d2236323322206865696768743d22383438223e3c646566733e3c72616469616c4772616469656e742069643d2241222063783d2231382e3033222063793d222d32332e38352220723d223122206772616469656e745472616e73666f726d3d226d6174726978282d37353020342e3031202d332e3839202d3732372e39392031333733382e3735202d31373036332e35312922206772616469656e74556e6974733d227573657253706163654f6e557365223e3c73746f70206f66667365743d222e3031222073746f702d636f6c6f723d2223366166663637222073746f702d6f7061636974793d222e3339222f3e3c73746f70206f66667365743d222e3134222073746f702d636f6c6f723d2223353966663365222073746f702d6f7061636974793d222e3232222f3e3c73746f70206f66667365743d222e33222073746f702d636f6c6f723d2223346164343333222073746f702d6f7061636974793d222e3532222f3e3c73746f70206f66667365743d222e34222073746f702d636f6c6f723d2223336562343262222073746f702d6f7061636974793d2230222f3e3c73746f70206f66667365743d2231222073746f702d6f7061636974793d2230222f3e3c2f72616469616c4772616469656e743e3c72616469616c4772616469656e742069643d2242222063783d2231372e3931222063793d222d32332e38362220723d223122206772616469656e745472616e73666f726d3d226d617472697828382c3333332c2d3537392e35392c31332e39322c2d31333636392e30352c2d353538312e30342922206772616469656e74556e6974733d227573657253706163654f6e557365223e3c73746f70206f66667365743d2230222073746f702d636f6c6f723d2223353966663365222073746f702d6f7061636974793d222e3335222f3e3c73746f70206f66667365743d2231222073746f702d6f7061636974793d2230222f3e3c2f72616469616c4772616469656e743e3c72616469616c4772616469656e7420786c696e6b3a687265663d222342222069643d2243222063783d2231382e3039222063793d222d32332e393122206772616469656e745472616e73666f726d3d226d617472697828302c2d3334352c3837372e37372c302c32313330352e32372c373034352e3529222f3e3c72616469616c4772616469656e7420786c696e6b3a687265663d222342222069643d2244222063783d2231372e3933222063793d222d32332e393122206772616469656e745472616e73666f726d3d226d6174726978283236382c2d322c382e35372c313134382e36352c2d343534382e39392c32373837392e3629222f3e3c72616469616c4772616469656e742069643d2245222063783d2231382e3037222063793d222d32332e38372220723d223122206772616469656e745472616e73666f726d3d226d6174726978282d3234322c302c302c2d313237372e34332c343933342e352c2d33303131352e38362922206772616469656e74556e6974733d227573657253706163654f6e557365223e3c73746f70206f66667365743d2230222073746f702d636f6c6f723d2223353966663365222073746f702d6f7061636974793d222e3432222f3e3c73746f70206f66667365743d2231222073746f702d6f7061636974793d2230222f3e3c2f72616469616c4772616469656e743e3c706174682069643d22462220643d224d3339392e36203636483232352e3441323220323220302030203120323034203833682d33396132322032322030203020312d32312e342d3137682d34344c36362039392e3656373831683435332e356c33362e352d33362e35762d3634314c3531382e35203636682d33372e3141323220323220302030203120343630203833682d33396132322032322030203020312d32312e342d31375a222f3e3c2f646566733e3c7061746820643d224d2e352e356836323276383437482e357a22207374726f6b653d222330303022207374726f6b652d6d697465726c696d69743d223130222f3e3c7061746820643d224d3430302e312036362e35483232352e396132322032322030203020312d32312e34203137682d33396132322032322030203020312d32312e342d3137682d34346c2d33332e362033332e36763638312e34483532306c33362e352d33362e35563130344c3531392036362e35682d33372e316132322032322030203020312d32312e34203137682d33396132322032322030203020312d32312e342d31377a222066696c6c2d6f7061636974793d222e32222f3e3c67207472616e73666f726d3d227472616e736c617465282e35202e3529223e3c75736520786c696e6b3a687265663d222346222066696c6c3d2275726c28234129222f3e3c75736520786c696e6b3a687265663d222346222066696c6c3d2275726c28234229222f3e3c75736520786c696e6b3a687265663d222346222066696c6c3d2275726c28234329222f3e3c75736520786c696e6b3a687265663d222346222066696c6c3d2275726c28234429222f3e3c75736520786c696e6b3a687265663d222346222066696c6c3d2275726c28234529222f3e3c2f673e3c672066696c6c3d226e6f6e6522207374726f6b653d222334326666303022207374726f6b652d77696474683d2232223e3c7061746820643d224d3230342e352038342e356132332032332030203020302032322e322d3137683137322e366132332032332030203020302032322e322031376833396132332032332030203020302032322e322d31376833352e396c33362e392033362e39763634302e326c2d33352e392033352e394836372e35762d3638306c33332d33336834322e386132332032332030203020302032322e322031377a22207374726f6b652d6f7061636974793d222e3937222f3e3c7061746820643d224d333132203330352e335636382e356d2d372e35203233362e335638362e324c3238362036372e356d33332e35203233372e335638362e324c3333382036372e354d3239372e35203330355638392e376c2d32322d32322e326d3532203233372e33762d3231356c32322d32322e334d333133203339392e32763137302e366d372e352d3137302e36763135322e396c31382e352031382e376d2d33332e352d3137312e36763135322e394c323837203537302e386d34302e352d3137312e33763134396c32322032322e326d2d35322d3137312e37763134392e356c2d32322032322e324d3230392036303263302d31372e3339372031342e3130332d33312e352033312e352d33312e35683134306331372e33393720302033312e352031342e3130332033312e352033312e35732d31342e3130332033312e352d33312e352033312e35682d313430632d31372e33393720302d33312e352d31342e3130332d33312e352d33312e357a6d3237362e332d3236302e377631326d3020307631326d302d3132682d31326d313220306831326d2d313220376137203720302031203120302d31342037203720302031203120302031347a6d2d3335332d31397631326d3020307631326d302d3132682d31326d313220306831326d2d313220376137203720302031203120302d31342037203720302031203120302031347a6d333533203233377631326d3020307631326d302d3132682d31326d313220306831326d2d313220376137203720302031203120302d31342037203720302031203120302031347a6d2d3335332d31397631326d3020307631326d302d3132682d31326d313220306831326d2d313220376137203720302031203120302d31342037203720302031203120302031347a22207374726f6b652d6f7061636974793d222e3937222f3e3c2f673e3c7061746820643d224d3232352e32203732302e3376323168342e31762d392e3168332e3663312e32203020312e3920312e3320312e39203476352e3168332e38762d362e3663302d322e342d312d332e342d322e372d3420312e392d2e3820322e362d322e3520322e362d342e3620302d342e312d312e342d352e382d342e372d352e387a6d342e3120322e3668332e3663312e32203020312e3920312e3320312e3920332e34732d2e3720332e332d312e3920332e33682d332e367a6d31332e392d322e367632316831322e39762d322e36682d382e385637333268362e34762d322e35682d362e34762d362e3668382e38762d322e367a6d31372e35203076323168392e3463322e34203020342d322e3520342d352e37762d392e3563302d332e332d312e372d352e382d342d352e387a6d3420322e3668332e3763312e31203020312e3820312e3520312e3820332e3276392e35633020312e362d2e3720332e312d312e3820332e31682d332e377a6d31332e392d322e367632316831322e39762d322e36682d382e385637333268362e34762d322e35682d362e34762d362e3668382e38762d322e367a6d31372e3720307632316831322e39762d322e36682d382e385637333268362e34762d322e35682d362e34762d362e3668382e38762d322e367a6d31372e34203076323168332e31762d31332e326c322e312031332e3268332e316c322e332d31332e337631332e3368322e39762d3231682d346c2d322e372031362d322e372d31367a6d32372e3520323168346c2d342e342d3231682d352e336c2d342e3320323168342e316c2e362d342e3468342e367a6d2d332e322d31382e34682e346c312e372031312e34682d332e387a6d31312d322e3676323168392e3863322e34203020342d322e3620342d352e39732d2e392d342e322d322e312d3563312e322d2e3920312e372d322e3320312e372d342e33732d312e362d352e382d342d352e387a6d342e3120322e3668332e3663312e32203020312e3920312e3220312e3920332e33732d2e3720332e312d312e3920332e31682d332e367a6d302039683463312e31203020312e3820312e3520312e3820332e34732d2e3720332e342d312e3820332e34682d347a6d31332e382d31312e367632316831332e34762d322e3648333731762d31382e347a6d313820307632316831322e39762d322e36483338395637333268362e34762d322e3548333839762d362e3668382e38762d322e367a222066696c6c3d2223663266326632222f3e3c7061746820643d224d3234352e36203630342e3776372e3548323432762d32302e3168382e3361382e363720382e363720302030203120352e3420312e3620362e313120362e313120302030203120312e3820342e3720352e3720352e372030203020312d342e3120352e376c342e3920382e31682d346c2d342e342d372e357a6d302d392e3676362e3668342e3361342e3620342e3620302030203020332e312d2e3820332e353920332e353920302030203020302d3520342e3620342e362030203020302d332e312d2e387a6d32362e362031372e31682d332e3463302d2e342d2e312d2e382d2e312d312e3261332e3720332e372030203020312d2e312d312e3120332e383920332e38392030203020312d312e3720312e3920362e313220362e31322030203020312d322e392e3720342e353120342e35312030203020312d332e332d312e3220332e3520332e352030203020312d312e332d3320332e3720332e3720302030203120312e322d322e3920362e363520362e363520302030203120332e382d312e346c342e312d2e35762d2e3761322e343920322e34392030203020302d2e372d312e3920322e373220322e37322030203020302d312e392d2e3720322e333720322e33372030203020302d312e382e3620322e3320322e332030203020302d2e3820312e364832363061342e343920342e343920302030203120312e382d332e3520362e333520362e333520302030203120342e322d312e332036203620302030203120342e3420312e3420352e323920352e323920302030203120312e3520342e3176372e357a6d2d392e342d342e3161312e3720312e37203020302030202e3620312e3420322e3520322e3520302030203020312e362e3520332e363820332e363820302030203020322e352d2e3920332e323220332e323220302030203020312d322e35762d2e386c2d332e312e3361352e303920352e30392030203020302d32202e3720312e343920312e34392030203020302d2e3620312e337a6d32302e3220342e3461352e323120352e32312030203020312d322e372d2e3720342e343120342e34312030203020312d312e372d312e3976322e33682d332e34762d32302e3768332e3576382e3761332e383920332e383920302030203120312e372d312e3920342e353920342e353920302030203120322e362d2e3720352e363120352e363120302030203120342e34203220392e343220392e343220302030203120302031302e3820352e3420352e342030203020312d342e3420322e317a6d2d312d31322e33613320332030203020302d322e3520312e3220352e363820352e36382030203020302d2e3920332e34762e3561352e393220352e3932203020302030202e3920332e342033203320302030203020322e3520312e3220332e333920332e333920302030203020322e372d312e3320362e3420362e34203020302030202e392d332e3620362e303820362e30382030203020302d2e392d332e3520332e3120332e312030203020302d322e372d312e337a6d31372e342031322e33613520352030203020312d322e372d2e3720342e343120342e34312030203020312d312e372d312e3976322e33682d332e34762d32302e3768332e3576382e3761332e383920332e383920302030203120312e372d312e3920342e353920342e353920302030203120322e362d2e3720352e363120352e363120302030203120342e34203220392e343220392e343220302030203120302031302e3820352e3420352e342030203020312d342e3420322e317a6d2d312d31322e33613320332030203020302d322e3520312e3220352e363820352e36382030203020302d2e3920332e34762e3561352e393220352e3932203020302030202e3920332e342033203320302030203020322e3520312e3220332e3520332e3520302030203020322e372d312e3320362e3420362e34203020302030202e392d332e3620362e303820362e30382030203020302d2e392d332e3520332e323120332e32312030203020302d322e372d312e337a6d31332e322d342e37682d332e375635393268332e377a6d2d2e322031362e3748333038762d31342e3368332e347a6d392d322e37682e396c2e392d2e3276322e386c2d312e342e33682d312e3461342e343120342e34312030203020312d332e322d3120342e323120342e32312030203020312d312e312d332e31762d372e38682d312e39762d322e3668312e39762d332e3668332e3576332e3668332e3376322e36682d332e3376372e3261322032203020302030202e3420312e3420312e383220312e383220302030203020312e342e347a6d372e3920322e37682d332e36762d32302e3168332e3676382e34683130762d382e3468332e357632302e31682d332e35762d382e37682d31307a6d32332e312d31342e3661362e343820362e34382030203020312035203220382e373720382e373720302030203120302031302e3920362e363920362e36392030203020312d35203220362e383920362e38392030203020312d352e312d3220382e373720382e373720302030203120302d31302e3920362e363320362e363320302030203120352e312d327a6d3020322e3661332e323220332e32322030203020302d322e3620312e3320352e373720352e37372030203020302d2e3920332e3520362e3420362e34203020302030202e3920332e3620332e3120332e3120302030203020322e3620312e3220322e3920322e3920302030203020322e352d312e3220352e363820352e363820302030203020312d332e3620352e3420352e342030203020302d312d332e35203320332030203020302d322e352d312e337a6d31322e392d382e377632302e37682d332e35762d32302e377a6d31322e352031362e3268332e3261352e313920352e31392030203020312d322e3220332e3520362e303720362e30372030203020312d342e3120312e3320362e383820362e38382030203020312d352d3220382e373720382e373720302030203120302d31302e3920362e363920362e363920302030203120352d3220352e343920352e343920302030203120342e36203220372e323920372e323920302030203120312e3720352e3276312e31682d392e3961342e363220342e363220302030203020312e3120322e3920332e333220332e333220302030203020322e3520312e3120322e3920322e3920302030203020312e392d2e3620332e343120332e343120302030203020312e322d312e367a6d2d332e312d372e35613320332030203020302d322e332e3920342e353520342e35352030203020302d312e3220322e3568362e3561332e363120332e36312030203020302d2e382d322e3420322e3720322e372030203020302d322e322d317a6d3132312e312d3433312e366331322e3536352d342e3930342032302e3133362d31372e3737352031382e3331372d33312e3134732d31322e3535352d32332e3734342d32352e3937332d32352e3131322d32362e30323720362e3633342d33302e3530342031392e3335372e3334332032362e3835372031312e3636312033342e31393461332e3220332e3220302030203120322e382d312e37632e322030202e352d2e332e342d2e356132312e34372032312e34372030203020312d2e372d352e3163302d31302e3720382e312d31392e332031382e312d31392e3361312e393220312e393220302030203020312e362d312e31762d2e3261322e3620322e362030203020302d312e362d332e332031382e39312031382e39312030203020312d31332e372d31342e312e38312e383120302030203120312e342d2e386c32362e342032302e3161312e303820312e3038203020302031202e342e392031382e32352031382e3235203020302030202e3120372e312e37392e37392030203020312d2e332e3920382e3120382e312030203020312d382e362e3520312e333820312e33382030203020302d312e312d2e3220312e353120312e35312030203020302d312e3120312e347631322e32612e392e392030203020312d2e392e39682d312e36612e392e392030203020312d2e392d2e3920382e3420382e342030203020302d382e312d372e34682d2e38612e362e36203020312030202e3120312e3220372e3320372e33203020302031203620372e3320372e353220372e35322030203020312d2e3220312e352e392e39203020302030202e363820312e303868372e303261312e323120312e3231203020302031202e352e3520322e353820322e3538203020302031202e3620312e37327a4d3436372e3420313337612e362e36203020302031202e342d312e316831362e36632e3330342d2e3133382e3636322d2e3030342e382e33732e3030342e3636322d2e332e386131342e35362031342e35362030203020312d382e3820332e312031342031342030203020312d382e372d332e317a6d33312e3520352e3361312e3620312e362030203020312d332e3139372d2e31333120312e3620312e3620302030203120312e3539372d312e35363920312e3720312e3720302030203120312e3620312e377a222066696c6c3d2223646165306666222f3e3c7465787420616c69676e6d656e742d626173656c696e653d226d6964646c652220746578742d616e63686f723d226d6964646c6522207472616e73666f726d3d227472616e736c61746528333131203337302e39292220666f6e742d73697a653d223434222066696c6c3d22236666662220666f6e742d66616d696c793d22417269616c4d542c20417269616c223ea2646970667358221220248a21f869766817517c164848d05323650aa9843fe9a4e663398a60903357bc64736f6c63430008130033",
    "linkReferences": {}
  },
  "methodIdentifiers": {
    "generateTokenURI(uint256,string,uint256,bool,uint256,address)": "ac173383",
    "humanRewardAmount(uint256,address)": "85487f84",
    "symbolForAddress(address)": "499b98d3"
  },
  "id": 7
}